{
	"data": {
		"bytecode": {
			"linkReferences": {},
			"object": "60e060405234801561000f575f80fd5b5060405161116838038061116883398101604081905261002e9161011b565b6001600160a01b0385166080525f6100468582610247565b5060016100538482610247565b5063ffffffff90911660c05260a05250506002805460ff60201b191664010000000017905550610301565b634e487b7160e01b5f52604160045260245ffd5b5f82601f8301126100a1575f80fd5b81516001600160401b038111156100ba576100ba61007e565b604051601f8201601f19908116603f011681016001600160401b03811182821017156100e8576100e861007e565b6040528181528382016020018510156100ff575f80fd5b8160208501602083015e5f918101602001919091529392505050565b5f805f805f60a0868803121561012f575f80fd5b85516001600160a01b0381168114610145575f80fd5b60208701519095506001600160401b03811115610160575f80fd5b61016c88828901610092565b604088015190955090506001600160401b03811115610189575f80fd5b61019588828901610092565b935050606086015163ffffffff811681146101ae575f80fd5b60809690960151949793965091949392915050565b600181811c908216806101d757607f821691505b6020821081036101f557634e487b7160e01b5f52602260045260245ffd5b50919050565b601f82111561024257805f5260205f20601f840160051c810160208510156102205750805b601f840160051c820191505b8181101561023f575f815560010161022c565b50505b505050565b81516001600160401b038111156102605761026061007e565b6102748161026e84546101c3565b846101fb565b6020601f8211600181146102a6575f831561028f5750848201515b5f19600385901b1c1916600184901b17845561023f565b5f84815260208120601f198516915b828110156102d557878501518255602094850194600190920191016102b5565b50848210156102f257868401515f19600387901b60f8161c191681555b50505050600190811b01905550565b60805160a05160c051610df06103785f395f8181610215015281816104cc0152818161068901526109eb01525f8181610156015281816104a9015261060201525f81816101970152818161036d015281816107e40152818161099101528181610a4901528181610b160152610b840152610df05ff3fe6080604052600436106100bf575f3560e01c80637284e4161161007c57806396f300d41161005757806396f300d414610268578063a1211bc014610289578063cc6cb19a1461029f578063ed88c68e146102d0575f80fd5b80637284e416146101f05780637a3a0e8414610204578063968ed6001461024c575f80fd5b806306fdde03146100c35780630c611f24146100ed57806322f3e2d41461011457806329dcb0cf1461014557806338af3eed146101865780634abfa163146101d1575b5f80fd5b3480156100ce575f80fd5b506100d76102d8565b6040516100e49190610c3a565b60405180910390f35b3480156100f8575f80fd5b50610101610363565b6040516100e49796959493929190610c53565b34801561011f575f80fd5b5060025461013590640100000000900460ff1681565b60405190151581526020016100e4565b348015610150575f80fd5b506101787f000000000000000000000000000000000000000000000000000000000000000081565b6040519081526020016100e4565b348015610191575f80fd5b506101b97f000000000000000000000000000000000000000000000000000000000000000081565b6040516001600160a01b0390911681526020016100e4565b3480156101dc575f80fd5b506101b96101eb366004610cb8565b61050c565b3480156101fb575f80fd5b506100d7610534565b34801561020f575f80fd5b506102377f000000000000000000000000000000000000000000000000000000000000000081565b60405163ffffffff90911681526020016100e4565b348015610257575f80fd5b506002546102379063ffffffff1681565b348015610273575f80fd5b5061027c610541565b6040516100e49190610ccf565b348015610294575f80fd5b5061029d6105a1565b005b3480156102aa575f80fd5b506102376102b9366004610d1a565b60036020525f908152604090205463ffffffff1681565b61029d61083d565b5f80546102e490610d40565b80601f016020809104026020016040519081016040528092919081815260200182805461031090610d40565b801561035b5780601f106103325761010080835404028352916020019161035b565b820191905f5260205f20905b81548152906001019060200180831161033e57829003601f168201915b505050505081565b5f6060805f805f807f000000000000000000000000000000000000000000000000000000000000000096505f805461039a90610d40565b80601f01602080910402602001604051908101604052809291908181526020018280546103c690610d40565b80156104115780601f106103e857610100808354040283529160200191610411565b820191905f5260205f20905b8154815290600101906020018083116103f457829003601f168201915b505050505095506001805461042590610d40565b80601f016020809104026020016040519081016040528092919081815260200182805461045190610d40565b801561049c5780601f106104735761010080835404028352916020019161049c565b820191905f5260205f20905b81548152906001019060200180831161047f57829003601f168201915b50506002549a9b999a93997f000000000000000000000000000000000000000000000000000000000000000099507f0000000000000000000000000000000000000000000000000000000000000000985063ffffffff8516975064010000000090940460ff169550929350505050565b6004818154811061051b575f80fd5b5f918252602090912001546001600160a01b0316905081565b600180546102e490610d40565b6060600480548060200260200160405190810160405280929190818152602001828054801561059757602002820191905f5260205f20905b81546001600160a01b03168152600190910190602001808311610579575b5050505050905090565b600254640100000000900460ff166106005760405162461bcd60e51b815260206004820152601b60248201527f5468652043616d706169676e206973206e6f742061637469766521000000000060448201526064015b60405180910390fd5b7f0000000000000000000000000000000000000000000000000000000000000000421161067f5760405162461bcd60e51b815260206004820152602760248201527f5468652043616d617069676e277320646561646c696e6520686173206e6f74206044820152667061737365642160c81b60648201526084016105f7565b60025463ffffffff7f000000000000000000000000000000000000000000000000000000000000000081169116106106bb576106b9610a29565b565b6002805464ff00000000191690556004545f5b818110156107bf575f600482815481106106ea576106ea610d78565b5f9182526020808320909101546001600160a01b0316808352600390915260409091205490915063ffffffff1680156107b5576001600160a01b0382165f81815260036020526040808220805463ffffffff191690555163ffffffff841680156108fc0292909190818181858888f1935050505015801561076d573d5f803e3d5ffd5b5060405163ffffffff821681526001600160a01b0383169030907fcbaf39f3d8f9a55dbfd111d1803615438ca90cd340bf43a9b32af9967cb268b09060200160405180910390a35b50506001016106ce565b506107cb60045f610bd6565b600254604080515f815263ffffffff90921660208301527f00000000000000000000000000000000000000000000000000000000000000006001600160a01b03169130917ff8b5bc9a22de51519f1a92f78276ca83d891d1edf8dd4263ccb6032594644b65910160405180910390a350565b600254640100000000900460ff166108975760405162461bcd60e51b815260206004820152601b60248201527f5468652043616d706169676e206973206e6f742061637469766521000000000060448201526064016105f7565b335f81815260036020526040812054349163ffffffff909116900361090157600480546001810182555f919091527f8a35acfbc15ff81a39ae7d344fd709f28e8600b4aa8c65c6b64bfe7fe36bd19b0180546001600160a01b0319166001600160a01b0384161790555b6001600160a01b0382165f908152600360205260408120805483929061092e90849063ffffffff16610d8c565b92506101000a81548163ffffffff021916908363ffffffff1602179055505f8160025f9054906101000a900463ffffffff1661096a9190610d8c565b6002805463ffffffff191663ffffffff8381169190911790915560405190841681529091507f00000000000000000000000000000000000000000000000000000000000000006001600160a01b03169030907f4bcad339364614747037d489debcab743e155b2486ad23759d702d48c30a7dc69060200160405180910390a37f000000000000000000000000000000000000000000000000000000000000000063ffffffff168163ffffffff1610610a2457610a24610a29565b505050565b6002805464ffffffffff19811690915560405163ffffffff909116905f907f00000000000000000000000000000000000000000000000000000000000000006001600160a01b03169083908381818185875af1925050503d805f8114610aaa576040519150601f19603f3d011682016040523d82523d5f602084013e610aaf565b606091505b5050905080610b005760405162461bcd60e51b815260206004820152601860248201527f556e61626c6520746f2072656c656173652066756e647321000000000000000060448201526064016105f7565b60405163ffffffff831681526001600160a01b037f0000000000000000000000000000000000000000000000000000000000000000169030907f9a2d22bdc446507e83df389ff5730c89bb47efe4486aa9fe07032b2b7339ee7f9060200160405180910390a3604080516001815263ffffffff841660208201526001600160a01b037f0000000000000000000000000000000000000000000000000000000000000000169130917ff8b5bc9a22de51519f1a92f78276ca83d891d1edf8dd4263ccb6032594644b65910160405180910390a35050565b5080545f8255905f5260205f2090810190610bf19190610bf4565b50565b5b80821115610c08575f8155600101610bf5565b5090565b5f81518084528060208401602086015e5f602082860101526020601f19601f83011685010191505092915050565b602081525f610c4c6020830184610c0c565b9392505050565b6001600160a01b038816815260e0602082018190525f90610c7690830189610c0c565b8281036040840152610c888189610c0c565b6060840197909752505063ffffffff93841660808201529190921660a082015290151560c0909101529392505050565b5f60208284031215610cc8575f80fd5b5035919050565b602080825282518282018190525f918401906040840190835b81811015610d0f5783516001600160a01b0316835260209384019390920191600101610ce8565b509095945050505050565b5f60208284031215610d2a575f80fd5b81356001600160a01b0381168114610c4c575f80fd5b600181811c90821680610d5457607f821691505b602082108103610d7257634e487b7160e01b5f52602260045260245ffd5b50919050565b634e487b7160e01b5f52603260045260245ffd5b63ffffffff8181168382160190811115610db457634e487b7160e01b5f52601160045260245ffd5b9291505056fea26469706673582212202cd0f72863162f5c0caac42c56eea90232aff4d7108e4d328d8c7abc9df4b28164736f6c634300081a0033",
			"opcodes": "PUSH1 0xE0 PUSH1 0x40 MSTORE CALLVALUE DUP1 ISZERO PUSH2 0xF JUMPI PUSH0 DUP1 REVERT JUMPDEST POP PUSH1 0x40 MLOAD PUSH2 0x1168 CODESIZE SUB DUP1 PUSH2 0x1168 DUP4 CODECOPY DUP2 ADD PUSH1 0x40 DUP2 SWAP1 MSTORE PUSH2 0x2E SWAP2 PUSH2 0x11B JUMP JUMPDEST PUSH1 0x1 PUSH1 0x1 PUSH1 0xA0 SHL SUB DUP6 AND PUSH1 0x80 MSTORE PUSH0 PUSH2 0x46 DUP6 DUP3 PUSH2 0x247 JUMP JUMPDEST POP PUSH1 0x1 PUSH2 0x53 DUP5 DUP3 PUSH2 0x247 JUMP JUMPDEST POP PUSH4 0xFFFFFFFF SWAP1 SWAP2 AND PUSH1 0xC0 MSTORE PUSH1 0xA0 MSTORE POP POP PUSH1 0x2 DUP1 SLOAD PUSH1 0xFF PUSH1 0x20 SHL NOT AND PUSH5 0x100000000 OR SWAP1 SSTORE POP PUSH2 0x301 JUMP JUMPDEST PUSH4 0x4E487B71 PUSH1 0xE0 SHL PUSH0 MSTORE PUSH1 0x41 PUSH1 0x4 MSTORE PUSH1 0x24 PUSH0 REVERT JUMPDEST PUSH0 DUP3 PUSH1 0x1F DUP4 ADD SLT PUSH2 0xA1 JUMPI PUSH0 DUP1 REVERT JUMPDEST DUP2 MLOAD PUSH1 0x1 PUSH1 0x1 PUSH1 0x40 SHL SUB DUP2 GT ISZERO PUSH2 0xBA JUMPI PUSH2 0xBA PUSH2 0x7E JUMP JUMPDEST PUSH1 0x40 MLOAD PUSH1 0x1F DUP3 ADD PUSH1 0x1F NOT SWAP1 DUP2 AND PUSH1 0x3F ADD AND DUP2 ADD PUSH1 0x1 PUSH1 0x1 PUSH1 0x40 SHL SUB DUP2 GT DUP3 DUP3 LT OR ISZERO PUSH2 0xE8 JUMPI PUSH2 0xE8 PUSH2 0x7E JUMP JUMPDEST PUSH1 0x40 MSTORE DUP2 DUP2 MSTORE DUP4 DUP3 ADD PUSH1 0x20 ADD DUP6 LT ISZERO PUSH2 0xFF JUMPI PUSH0 DUP1 REVERT JUMPDEST DUP2 PUSH1 0x20 DUP6 ADD PUSH1 0x20 DUP4 ADD MCOPY PUSH0 SWAP2 DUP2 ADD PUSH1 0x20 ADD SWAP2 SWAP1 SWAP2 MSTORE SWAP4 SWAP3 POP POP POP JUMP JUMPDEST PUSH0 DUP1 PUSH0 DUP1 PUSH0 PUSH1 0xA0 DUP7 DUP9 SUB SLT ISZERO PUSH2 0x12F JUMPI PUSH0 DUP1 REVERT JUMPDEST DUP6 MLOAD PUSH1 0x1 PUSH1 0x1 PUSH1 0xA0 SHL SUB DUP2 AND DUP2 EQ PUSH2 0x145 JUMPI PUSH0 DUP1 REVERT JUMPDEST PUSH1 0x20 DUP8 ADD MLOAD SWAP1 SWAP6 POP PUSH1 0x1 PUSH1 0x1 PUSH1 0x40 SHL SUB DUP2 GT ISZERO PUSH2 0x160 JUMPI PUSH0 DUP1 REVERT JUMPDEST PUSH2 0x16C DUP9 DUP3 DUP10 ADD PUSH2 0x92 JUMP JUMPDEST PUSH1 0x40 DUP9 ADD MLOAD SWAP1 SWAP6 POP SWAP1 POP PUSH1 0x1 PUSH1 0x1 PUSH1 0x40 SHL SUB DUP2 GT ISZERO PUSH2 0x189 JUMPI PUSH0 DUP1 REVERT JUMPDEST PUSH2 0x195 DUP9 DUP3 DUP10 ADD PUSH2 0x92 JUMP JUMPDEST SWAP4 POP POP PUSH1 0x60 DUP7 ADD MLOAD PUSH4 0xFFFFFFFF DUP2 AND DUP2 EQ PUSH2 0x1AE JUMPI PUSH0 DUP1 REVERT JUMPDEST PUSH1 0x80 SWAP7 SWAP1 SWAP7 ADD MLOAD SWAP5 SWAP8 SWAP4 SWAP7 POP SWAP2 SWAP5 SWAP4 SWAP3 SWAP2 POP POP JUMP JUMPDEST PUSH1 0x1 DUP2 DUP2 SHR SWAP1 DUP3 AND DUP1 PUSH2 0x1D7 JUMPI PUSH1 0x7F DUP3 AND SWAP2 POP JUMPDEST PUSH1 0x20 DUP3 LT DUP2 SUB PUSH2 0x1F5 JUMPI PUSH4 0x4E487B71 PUSH1 0xE0 SHL PUSH0 MSTORE PUSH1 0x22 PUSH1 0x4 MSTORE PUSH1 0x24 PUSH0 REVERT JUMPDEST POP SWAP2 SWAP1 POP JUMP JUMPDEST PUSH1 0x1F DUP3 GT ISZERO PUSH2 0x242 JUMPI DUP1 PUSH0 MSTORE PUSH1 0x20 PUSH0 KECCAK256 PUSH1 0x1F DUP5 ADD PUSH1 0x5 SHR DUP2 ADD PUSH1 0x20 DUP6 LT ISZERO PUSH2 0x220 JUMPI POP DUP1 JUMPDEST PUSH1 0x1F DUP5 ADD PUSH1 0x5 SHR DUP3 ADD SWAP2 POP JUMPDEST DUP2 DUP2 LT ISZERO PUSH2 0x23F JUMPI PUSH0 DUP2 SSTORE PUSH1 0x1 ADD PUSH2 0x22C JUMP JUMPDEST POP POP JUMPDEST POP POP POP JUMP JUMPDEST DUP2 MLOAD PUSH1 0x1 PUSH1 0x1 PUSH1 0x40 SHL SUB DUP2 GT ISZERO PUSH2 0x260 JUMPI PUSH2 0x260 PUSH2 0x7E JUMP JUMPDEST PUSH2 0x274 DUP2 PUSH2 0x26E DUP5 SLOAD PUSH2 0x1C3 JUMP JUMPDEST DUP5 PUSH2 0x1FB JUMP JUMPDEST PUSH1 0x20 PUSH1 0x1F DUP3 GT PUSH1 0x1 DUP2 EQ PUSH2 0x2A6 JUMPI PUSH0 DUP4 ISZERO PUSH2 0x28F JUMPI POP DUP5 DUP3 ADD MLOAD JUMPDEST PUSH0 NOT PUSH1 0x3 DUP6 SWAP1 SHL SHR NOT AND PUSH1 0x1 DUP5 SWAP1 SHL OR DUP5 SSTORE PUSH2 0x23F JUMP JUMPDEST PUSH0 DUP5 DUP2 MSTORE PUSH1 0x20 DUP2 KECCAK256 PUSH1 0x1F NOT DUP6 AND SWAP2 JUMPDEST DUP3 DUP2 LT ISZERO PUSH2 0x2D5 JUMPI DUP8 DUP6 ADD MLOAD DUP3 SSTORE PUSH1 0x20 SWAP5 DUP6 ADD SWAP5 PUSH1 0x1 SWAP1 SWAP3 ADD SWAP2 ADD PUSH2 0x2B5 JUMP JUMPDEST POP DUP5 DUP3 LT ISZERO PUSH2 0x2F2 JUMPI DUP7 DUP5 ADD MLOAD PUSH0 NOT PUSH1 0x3 DUP8 SWAP1 SHL PUSH1 0xF8 AND SHR NOT AND DUP2 SSTORE JUMPDEST POP POP POP POP PUSH1 0x1 SWAP1 DUP2 SHL ADD SWAP1 SSTORE POP JUMP JUMPDEST PUSH1 0x80 MLOAD PUSH1 0xA0 MLOAD PUSH1 0xC0 MLOAD PUSH2 0xDF0 PUSH2 0x378 PUSH0 CODECOPY PUSH0 DUP2 DUP2 PUSH2 0x215 ADD MSTORE DUP2 DUP2 PUSH2 0x4CC ADD MSTORE DUP2 DUP2 PUSH2 0x689 ADD MSTORE PUSH2 0x9EB ADD MSTORE PUSH0 DUP2 DUP2 PUSH2 0x156 ADD MSTORE DUP2 DUP2 PUSH2 0x4A9 ADD MSTORE PUSH2 0x602 ADD MSTORE PUSH0 DUP2 DUP2 PUSH2 0x197 ADD MSTORE DUP2 DUP2 PUSH2 0x36D ADD MSTORE DUP2 DUP2 PUSH2 0x7E4 ADD MSTORE DUP2 DUP2 PUSH2 0x991 ADD MSTORE DUP2 DUP2 PUSH2 0xA49 ADD MSTORE DUP2 DUP2 PUSH2 0xB16 ADD MSTORE PUSH2 0xB84 ADD MSTORE PUSH2 0xDF0 PUSH0 RETURN INVALID PUSH1 0x80 PUSH1 0x40 MSTORE PUSH1 0x4 CALLDATASIZE LT PUSH2 0xBF JUMPI PUSH0 CALLDATALOAD PUSH1 0xE0 SHR DUP1 PUSH4 0x7284E416 GT PUSH2 0x7C JUMPI DUP1 PUSH4 0x96F300D4 GT PUSH2 0x57 JUMPI DUP1 PUSH4 0x96F300D4 EQ PUSH2 0x268 JUMPI DUP1 PUSH4 0xA1211BC0 EQ PUSH2 0x289 JUMPI DUP1 PUSH4 0xCC6CB19A EQ PUSH2 0x29F JUMPI DUP1 PUSH4 0xED88C68E EQ PUSH2 0x2D0 JUMPI PUSH0 DUP1 REVERT JUMPDEST DUP1 PUSH4 0x7284E416 EQ PUSH2 0x1F0 JUMPI DUP1 PUSH4 0x7A3A0E84 EQ PUSH2 0x204 JUMPI DUP1 PUSH4 0x968ED600 EQ PUSH2 0x24C JUMPI PUSH0 DUP1 REVERT JUMPDEST DUP1 PUSH4 0x6FDDE03 EQ PUSH2 0xC3 JUMPI DUP1 PUSH4 0xC611F24 EQ PUSH2 0xED JUMPI DUP1 PUSH4 0x22F3E2D4 EQ PUSH2 0x114 JUMPI DUP1 PUSH4 0x29DCB0CF EQ PUSH2 0x145 JUMPI DUP1 PUSH4 0x38AF3EED EQ PUSH2 0x186 JUMPI DUP1 PUSH4 0x4ABFA163 EQ PUSH2 0x1D1 JUMPI JUMPDEST PUSH0 DUP1 REVERT JUMPDEST CALLVALUE DUP1 ISZERO PUSH2 0xCE JUMPI PUSH0 DUP1 REVERT JUMPDEST POP PUSH2 0xD7 PUSH2 0x2D8 JUMP JUMPDEST PUSH1 0x40 MLOAD PUSH2 0xE4 SWAP2 SWAP1 PUSH2 0xC3A JUMP JUMPDEST PUSH1 0x40 MLOAD DUP1 SWAP2 SUB SWAP1 RETURN JUMPDEST CALLVALUE DUP1 ISZERO PUSH2 0xF8 JUMPI PUSH0 DUP1 REVERT JUMPDEST POP PUSH2 0x101 PUSH2 0x363 JUMP JUMPDEST PUSH1 0x40 MLOAD PUSH2 0xE4 SWAP8 SWAP7 SWAP6 SWAP5 SWAP4 SWAP3 SWAP2 SWAP1 PUSH2 0xC53 JUMP JUMPDEST CALLVALUE DUP1 ISZERO PUSH2 0x11F JUMPI PUSH0 DUP1 REVERT JUMPDEST POP PUSH1 0x2 SLOAD PUSH2 0x135 SWAP1 PUSH5 0x100000000 SWAP1 DIV PUSH1 0xFF AND DUP2 JUMP JUMPDEST PUSH1 0x40 MLOAD SWAP1 ISZERO ISZERO DUP2 MSTORE PUSH1 0x20 ADD PUSH2 0xE4 JUMP JUMPDEST CALLVALUE DUP1 ISZERO PUSH2 0x150 JUMPI PUSH0 DUP1 REVERT JUMPDEST POP PUSH2 0x178 PUSH32 0x0 DUP2 JUMP JUMPDEST PUSH1 0x40 MLOAD SWAP1 DUP2 MSTORE PUSH1 0x20 ADD PUSH2 0xE4 JUMP JUMPDEST CALLVALUE DUP1 ISZERO PUSH2 0x191 JUMPI PUSH0 DUP1 REVERT JUMPDEST POP PUSH2 0x1B9 PUSH32 0x0 DUP2 JUMP JUMPDEST PUSH1 0x40 MLOAD PUSH1 0x1 PUSH1 0x1 PUSH1 0xA0 SHL SUB SWAP1 SWAP2 AND DUP2 MSTORE PUSH1 0x20 ADD PUSH2 0xE4 JUMP JUMPDEST CALLVALUE DUP1 ISZERO PUSH2 0x1DC JUMPI PUSH0 DUP1 REVERT JUMPDEST POP PUSH2 0x1B9 PUSH2 0x1EB CALLDATASIZE PUSH1 0x4 PUSH2 0xCB8 JUMP JUMPDEST PUSH2 0x50C JUMP JUMPDEST CALLVALUE DUP1 ISZERO PUSH2 0x1FB JUMPI PUSH0 DUP1 REVERT JUMPDEST POP PUSH2 0xD7 PUSH2 0x534 JUMP JUMPDEST CALLVALUE DUP1 ISZERO PUSH2 0x20F JUMPI PUSH0 DUP1 REVERT JUMPDEST POP PUSH2 0x237 PUSH32 0x0 DUP2 JUMP JUMPDEST PUSH1 0x40 MLOAD PUSH4 0xFFFFFFFF SWAP1 SWAP2 AND DUP2 MSTORE PUSH1 0x20 ADD PUSH2 0xE4 JUMP JUMPDEST CALLVALUE DUP1 ISZERO PUSH2 0x257 JUMPI PUSH0 DUP1 REVERT JUMPDEST POP PUSH1 0x2 SLOAD PUSH2 0x237 SWAP1 PUSH4 0xFFFFFFFF AND DUP2 JUMP JUMPDEST CALLVALUE DUP1 ISZERO PUSH2 0x273 JUMPI PUSH0 DUP1 REVERT JUMPDEST POP PUSH2 0x27C PUSH2 0x541 JUMP JUMPDEST PUSH1 0x40 MLOAD PUSH2 0xE4 SWAP2 SWAP1 PUSH2 0xCCF JUMP JUMPDEST CALLVALUE DUP1 ISZERO PUSH2 0x294 JUMPI PUSH0 DUP1 REVERT JUMPDEST POP PUSH2 0x29D PUSH2 0x5A1 JUMP JUMPDEST STOP JUMPDEST CALLVALUE DUP1 ISZERO PUSH2 0x2AA JUMPI PUSH0 DUP1 REVERT JUMPDEST POP PUSH2 0x237 PUSH2 0x2B9 CALLDATASIZE PUSH1 0x4 PUSH2 0xD1A JUMP JUMPDEST PUSH1 0x3 PUSH1 0x20 MSTORE PUSH0 SWAP1 DUP2 MSTORE PUSH1 0x40 SWAP1 KECCAK256 SLOAD PUSH4 0xFFFFFFFF AND DUP2 JUMP JUMPDEST PUSH2 0x29D PUSH2 0x83D JUMP JUMPDEST PUSH0 DUP1 SLOAD PUSH2 0x2E4 SWAP1 PUSH2 0xD40 JUMP JUMPDEST DUP1 PUSH1 0x1F ADD PUSH1 0x20 DUP1 SWAP2 DIV MUL PUSH1 0x20 ADD PUSH1 0x40 MLOAD SWAP1 DUP2 ADD PUSH1 0x40 MSTORE DUP1 SWAP3 SWAP2 SWAP1 DUP2 DUP2 MSTORE PUSH1 0x20 ADD DUP3 DUP1 SLOAD PUSH2 0x310 SWAP1 PUSH2 0xD40 JUMP JUMPDEST DUP1 ISZERO PUSH2 0x35B JUMPI DUP1 PUSH1 0x1F LT PUSH2 0x332 JUMPI PUSH2 0x100 DUP1 DUP4 SLOAD DIV MUL DUP4 MSTORE SWAP2 PUSH1 0x20 ADD SWAP2 PUSH2 0x35B JUMP JUMPDEST DUP3 ADD SWAP2 SWAP1 PUSH0 MSTORE PUSH1 0x20 PUSH0 KECCAK256 SWAP1 JUMPDEST DUP2 SLOAD DUP2 MSTORE SWAP1 PUSH1 0x1 ADD SWAP1 PUSH1 0x20 ADD DUP1 DUP4 GT PUSH2 0x33E JUMPI DUP3 SWAP1 SUB PUSH1 0x1F AND DUP3 ADD SWAP2 JUMPDEST POP POP POP POP POP DUP2 JUMP JUMPDEST PUSH0 PUSH1 0x60 DUP1 PUSH0 DUP1 PUSH0 DUP1 PUSH32 0x0 SWAP7 POP PUSH0 DUP1 SLOAD PUSH2 0x39A SWAP1 PUSH2 0xD40 JUMP JUMPDEST DUP1 PUSH1 0x1F ADD PUSH1 0x20 DUP1 SWAP2 DIV MUL PUSH1 0x20 ADD PUSH1 0x40 MLOAD SWAP1 DUP2 ADD PUSH1 0x40 MSTORE DUP1 SWAP3 SWAP2 SWAP1 DUP2 DUP2 MSTORE PUSH1 0x20 ADD DUP3 DUP1 SLOAD PUSH2 0x3C6 SWAP1 PUSH2 0xD40 JUMP JUMPDEST DUP1 ISZERO PUSH2 0x411 JUMPI DUP1 PUSH1 0x1F LT PUSH2 0x3E8 JUMPI PUSH2 0x100 DUP1 DUP4 SLOAD DIV MUL DUP4 MSTORE SWAP2 PUSH1 0x20 ADD SWAP2 PUSH2 0x411 JUMP JUMPDEST DUP3 ADD SWAP2 SWAP1 PUSH0 MSTORE PUSH1 0x20 PUSH0 KECCAK256 SWAP1 JUMPDEST DUP2 SLOAD DUP2 MSTORE SWAP1 PUSH1 0x1 ADD SWAP1 PUSH1 0x20 ADD DUP1 DUP4 GT PUSH2 0x3F4 JUMPI DUP3 SWAP1 SUB PUSH1 0x1F AND DUP3 ADD SWAP2 JUMPDEST POP POP POP POP POP SWAP6 POP PUSH1 0x1 DUP1 SLOAD PUSH2 0x425 SWAP1 PUSH2 0xD40 JUMP JUMPDEST DUP1 PUSH1 0x1F ADD PUSH1 0x20 DUP1 SWAP2 DIV MUL PUSH1 0x20 ADD PUSH1 0x40 MLOAD SWAP1 DUP2 ADD PUSH1 0x40 MSTORE DUP1 SWAP3 SWAP2 SWAP1 DUP2 DUP2 MSTORE PUSH1 0x20 ADD DUP3 DUP1 SLOAD PUSH2 0x451 SWAP1 PUSH2 0xD40 JUMP JUMPDEST DUP1 ISZERO PUSH2 0x49C JUMPI DUP1 PUSH1 0x1F LT PUSH2 0x473 JUMPI PUSH2 0x100 DUP1 DUP4 SLOAD DIV MUL DUP4 MSTORE SWAP2 PUSH1 0x20 ADD SWAP2 PUSH2 0x49C JUMP JUMPDEST DUP3 ADD SWAP2 SWAP1 PUSH0 MSTORE PUSH1 0x20 PUSH0 KECCAK256 SWAP1 JUMPDEST DUP2 SLOAD DUP2 MSTORE SWAP1 PUSH1 0x1 ADD SWAP1 PUSH1 0x20 ADD DUP1 DUP4 GT PUSH2 0x47F JUMPI DUP3 SWAP1 SUB PUSH1 0x1F AND DUP3 ADD SWAP2 JUMPDEST POP POP PUSH1 0x2 SLOAD SWAP11 SWAP12 SWAP10 SWAP11 SWAP4 SWAP10 PUSH32 0x0 SWAP10 POP PUSH32 0x0 SWAP9 POP PUSH4 0xFFFFFFFF DUP6 AND SWAP8 POP PUSH5 0x100000000 SWAP1 SWAP5 DIV PUSH1 0xFF AND SWAP6 POP SWAP3 SWAP4 POP POP POP POP JUMP JUMPDEST PUSH1 0x4 DUP2 DUP2 SLOAD DUP2 LT PUSH2 0x51B JUMPI PUSH0 DUP1 REVERT JUMPDEST PUSH0 SWAP2 DUP3 MSTORE PUSH1 0x20 SWAP1 SWAP2 KECCAK256 ADD SLOAD PUSH1 0x1 PUSH1 0x1 PUSH1 0xA0 SHL SUB AND SWAP1 POP DUP2 JUMP JUMPDEST PUSH1 0x1 DUP1 SLOAD PUSH2 0x2E4 SWAP1 PUSH2 0xD40 JUMP JUMPDEST PUSH1 0x60 PUSH1 0x4 DUP1 SLOAD DUP1 PUSH1 0x20 MUL PUSH1 0x20 ADD PUSH1 0x40 MLOAD SWAP1 DUP2 ADD PUSH1 0x40 MSTORE DUP1 SWAP3 SWAP2 SWAP1 DUP2 DUP2 MSTORE PUSH1 0x20 ADD DUP3 DUP1 SLOAD DUP1 ISZERO PUSH2 0x597 JUMPI PUSH1 0x20 MUL DUP3 ADD SWAP2 SWAP1 PUSH0 MSTORE PUSH1 0x20 PUSH0 KECCAK256 SWAP1 JUMPDEST DUP2 SLOAD PUSH1 0x1 PUSH1 0x1 PUSH1 0xA0 SHL SUB AND DUP2 MSTORE PUSH1 0x1 SWAP1 SWAP2 ADD SWAP1 PUSH1 0x20 ADD DUP1 DUP4 GT PUSH2 0x579 JUMPI JUMPDEST POP POP POP POP POP SWAP1 POP SWAP1 JUMP JUMPDEST PUSH1 0x2 SLOAD PUSH5 0x100000000 SWAP1 DIV PUSH1 0xFF AND PUSH2 0x600 JUMPI PUSH1 0x40 MLOAD PUSH3 0x461BCD PUSH1 0xE5 SHL DUP2 MSTORE PUSH1 0x20 PUSH1 0x4 DUP3 ADD MSTORE PUSH1 0x1B PUSH1 0x24 DUP3 ADD MSTORE PUSH32 0x5468652043616D706169676E206973206E6F7420616374697665210000000000 PUSH1 0x44 DUP3 ADD MSTORE PUSH1 0x64 ADD JUMPDEST PUSH1 0x40 MLOAD DUP1 SWAP2 SUB SWAP1 REVERT JUMPDEST PUSH32 0x0 TIMESTAMP GT PUSH2 0x67F JUMPI PUSH1 0x40 MLOAD PUSH3 0x461BCD PUSH1 0xE5 SHL DUP2 MSTORE PUSH1 0x20 PUSH1 0x4 DUP3 ADD MSTORE PUSH1 0x27 PUSH1 0x24 DUP3 ADD MSTORE PUSH32 0x5468652043616D617069676E277320646561646C696E6520686173206E6F7420 PUSH1 0x44 DUP3 ADD MSTORE PUSH7 0x70617373656421 PUSH1 0xC8 SHL PUSH1 0x64 DUP3 ADD MSTORE PUSH1 0x84 ADD PUSH2 0x5F7 JUMP JUMPDEST PUSH1 0x2 SLOAD PUSH4 0xFFFFFFFF PUSH32 0x0 DUP2 AND SWAP2 AND LT PUSH2 0x6BB JUMPI PUSH2 0x6B9 PUSH2 0xA29 JUMP JUMPDEST JUMP JUMPDEST PUSH1 0x2 DUP1 SLOAD PUSH5 0xFF00000000 NOT AND SWAP1 SSTORE PUSH1 0x4 SLOAD PUSH0 JUMPDEST DUP2 DUP2 LT ISZERO PUSH2 0x7BF JUMPI PUSH0 PUSH1 0x4 DUP3 DUP2 SLOAD DUP2 LT PUSH2 0x6EA JUMPI PUSH2 0x6EA PUSH2 0xD78 JUMP JUMPDEST PUSH0 SWAP2 DUP3 MSTORE PUSH1 0x20 DUP1 DUP4 KECCAK256 SWAP1 SWAP2 ADD SLOAD PUSH1 0x1 PUSH1 0x1 PUSH1 0xA0 SHL SUB AND DUP1 DUP4 MSTORE PUSH1 0x3 SWAP1 SWAP2 MSTORE PUSH1 0x40 SWAP1 SWAP2 KECCAK256 SLOAD SWAP1 SWAP2 POP PUSH4 0xFFFFFFFF AND DUP1 ISZERO PUSH2 0x7B5 JUMPI PUSH1 0x1 PUSH1 0x1 PUSH1 0xA0 SHL SUB DUP3 AND PUSH0 DUP2 DUP2 MSTORE PUSH1 0x3 PUSH1 0x20 MSTORE PUSH1 0x40 DUP1 DUP3 KECCAK256 DUP1 SLOAD PUSH4 0xFFFFFFFF NOT AND SWAP1 SSTORE MLOAD PUSH4 0xFFFFFFFF DUP5 AND DUP1 ISZERO PUSH2 0x8FC MUL SWAP3 SWAP1 SWAP2 SWAP1 DUP2 DUP2 DUP2 DUP6 DUP9 DUP9 CALL SWAP4 POP POP POP POP ISZERO DUP1 ISZERO PUSH2 0x76D JUMPI RETURNDATASIZE PUSH0 DUP1 RETURNDATACOPY RETURNDATASIZE PUSH0 REVERT JUMPDEST POP PUSH1 0x40 MLOAD PUSH4 0xFFFFFFFF DUP3 AND DUP2 MSTORE PUSH1 0x1 PUSH1 0x1 PUSH1 0xA0 SHL SUB DUP4 AND SWAP1 ADDRESS SWAP1 PUSH32 0xCBAF39F3D8F9A55DBFD111D1803615438CA90CD340BF43A9B32AF9967CB268B0 SWAP1 PUSH1 0x20 ADD PUSH1 0x40 MLOAD DUP1 SWAP2 SUB SWAP1 LOG3 JUMPDEST POP POP PUSH1 0x1 ADD PUSH2 0x6CE JUMP JUMPDEST POP PUSH2 0x7CB PUSH1 0x4 PUSH0 PUSH2 0xBD6 JUMP JUMPDEST PUSH1 0x2 SLOAD PUSH1 0x40 DUP1 MLOAD PUSH0 DUP2 MSTORE PUSH4 0xFFFFFFFF SWAP1 SWAP3 AND PUSH1 0x20 DUP4 ADD MSTORE PUSH32 0x0 PUSH1 0x1 PUSH1 0x1 PUSH1 0xA0 SHL SUB AND SWAP2 ADDRESS SWAP2 PUSH32 0xF8B5BC9A22DE51519F1A92F78276CA83D891D1EDF8DD4263CCB6032594644B65 SWAP2 ADD PUSH1 0x40 MLOAD DUP1 SWAP2 SUB SWAP1 LOG3 POP JUMP JUMPDEST PUSH1 0x2 SLOAD PUSH5 0x100000000 SWAP1 DIV PUSH1 0xFF AND PUSH2 0x897 JUMPI PUSH1 0x40 MLOAD PUSH3 0x461BCD PUSH1 0xE5 SHL DUP2 MSTORE PUSH1 0x20 PUSH1 0x4 DUP3 ADD MSTORE PUSH1 0x1B PUSH1 0x24 DUP3 ADD MSTORE PUSH32 0x5468652043616D706169676E206973206E6F7420616374697665210000000000 PUSH1 0x44 DUP3 ADD MSTORE PUSH1 0x64 ADD PUSH2 0x5F7 JUMP JUMPDEST CALLER PUSH0 DUP2 DUP2 MSTORE PUSH1 0x3 PUSH1 0x20 MSTORE PUSH1 0x40 DUP2 KECCAK256 SLOAD CALLVALUE SWAP2 PUSH4 0xFFFFFFFF SWAP1 SWAP2 AND SWAP1 SUB PUSH2 0x901 JUMPI PUSH1 0x4 DUP1 SLOAD PUSH1 0x1 DUP2 ADD DUP3 SSTORE PUSH0 SWAP2 SWAP1 SWAP2 MSTORE PUSH32 0x8A35ACFBC15FF81A39AE7D344FD709F28E8600B4AA8C65C6B64BFE7FE36BD19B ADD DUP1 SLOAD PUSH1 0x1 PUSH1 0x1 PUSH1 0xA0 SHL SUB NOT AND PUSH1 0x1 PUSH1 0x1 PUSH1 0xA0 SHL SUB DUP5 AND OR SWAP1 SSTORE JUMPDEST PUSH1 0x1 PUSH1 0x1 PUSH1 0xA0 SHL SUB DUP3 AND PUSH0 SWAP1 DUP2 MSTORE PUSH1 0x3 PUSH1 0x20 MSTORE PUSH1 0x40 DUP2 KECCAK256 DUP1 SLOAD DUP4 SWAP3 SWAP1 PUSH2 0x92E SWAP1 DUP5 SWAP1 PUSH4 0xFFFFFFFF AND PUSH2 0xD8C JUMP JUMPDEST SWAP3 POP PUSH2 0x100 EXP DUP2 SLOAD DUP2 PUSH4 0xFFFFFFFF MUL NOT AND SWAP1 DUP4 PUSH4 0xFFFFFFFF AND MUL OR SWAP1 SSTORE POP PUSH0 DUP2 PUSH1 0x2 PUSH0 SWAP1 SLOAD SWAP1 PUSH2 0x100 EXP SWAP1 DIV PUSH4 0xFFFFFFFF AND PUSH2 0x96A SWAP2 SWAP1 PUSH2 0xD8C JUMP JUMPDEST PUSH1 0x2 DUP1 SLOAD PUSH4 0xFFFFFFFF NOT AND PUSH4 0xFFFFFFFF DUP4 DUP2 AND SWAP2 SWAP1 SWAP2 OR SWAP1 SWAP2 SSTORE PUSH1 0x40 MLOAD SWAP1 DUP5 AND DUP2 MSTORE SWAP1 SWAP2 POP PUSH32 0x0 PUSH1 0x1 PUSH1 0x1 PUSH1 0xA0 SHL SUB AND SWAP1 ADDRESS SWAP1 PUSH32 0x4BCAD339364614747037D489DEBCAB743E155B2486AD23759D702D48C30A7DC6 SWAP1 PUSH1 0x20 ADD PUSH1 0x40 MLOAD DUP1 SWAP2 SUB SWAP1 LOG3 PUSH32 0x0 PUSH4 0xFFFFFFFF AND DUP2 PUSH4 0xFFFFFFFF AND LT PUSH2 0xA24 JUMPI PUSH2 0xA24 PUSH2 0xA29 JUMP JUMPDEST POP POP POP JUMP JUMPDEST PUSH1 0x2 DUP1 SLOAD PUSH5 0xFFFFFFFFFF NOT DUP2 AND SWAP1 SWAP2 SSTORE PUSH1 0x40 MLOAD PUSH4 0xFFFFFFFF SWAP1 SWAP2 AND SWAP1 PUSH0 SWAP1 PUSH32 0x0 PUSH1 0x1 PUSH1 0x1 PUSH1 0xA0 SHL SUB AND SWAP1 DUP4 SWAP1 DUP4 DUP2 DUP2 DUP2 DUP6 DUP8 GAS CALL SWAP3 POP POP POP RETURNDATASIZE DUP1 PUSH0 DUP2 EQ PUSH2 0xAAA JUMPI PUSH1 0x40 MLOAD SWAP2 POP PUSH1 0x1F NOT PUSH1 0x3F RETURNDATASIZE ADD AND DUP3 ADD PUSH1 0x40 MSTORE RETURNDATASIZE DUP3 MSTORE RETURNDATASIZE PUSH0 PUSH1 0x20 DUP5 ADD RETURNDATACOPY PUSH2 0xAAF JUMP JUMPDEST PUSH1 0x60 SWAP2 POP JUMPDEST POP POP SWAP1 POP DUP1 PUSH2 0xB00 JUMPI PUSH1 0x40 MLOAD PUSH3 0x461BCD PUSH1 0xE5 SHL DUP2 MSTORE PUSH1 0x20 PUSH1 0x4 DUP3 ADD MSTORE PUSH1 0x18 PUSH1 0x24 DUP3 ADD MSTORE PUSH32 0x556E61626C6520746F2072656C656173652066756E6473210000000000000000 PUSH1 0x44 DUP3 ADD MSTORE PUSH1 0x64 ADD PUSH2 0x5F7 JUMP JUMPDEST PUSH1 0x40 MLOAD PUSH4 0xFFFFFFFF DUP4 AND DUP2 MSTORE PUSH1 0x1 PUSH1 0x1 PUSH1 0xA0 SHL SUB PUSH32 0x0 AND SWAP1 ADDRESS SWAP1 PUSH32 0x9A2D22BDC446507E83DF389FF5730C89BB47EFE4486AA9FE07032B2B7339EE7F SWAP1 PUSH1 0x20 ADD PUSH1 0x40 MLOAD DUP1 SWAP2 SUB SWAP1 LOG3 PUSH1 0x40 DUP1 MLOAD PUSH1 0x1 DUP2 MSTORE PUSH4 0xFFFFFFFF DUP5 AND PUSH1 0x20 DUP3 ADD MSTORE PUSH1 0x1 PUSH1 0x1 PUSH1 0xA0 SHL SUB PUSH32 0x0 AND SWAP2 ADDRESS SWAP2 PUSH32 0xF8B5BC9A22DE51519F1A92F78276CA83D891D1EDF8DD4263CCB6032594644B65 SWAP2 ADD PUSH1 0x40 MLOAD DUP1 SWAP2 SUB SWAP1 LOG3 POP POP JUMP JUMPDEST POP DUP1 SLOAD PUSH0 DUP3 SSTORE SWAP1 PUSH0 MSTORE PUSH1 0x20 PUSH0 KECCAK256 SWAP1 DUP2 ADD SWAP1 PUSH2 0xBF1 SWAP2 SWAP1 PUSH2 0xBF4 JUMP JUMPDEST POP JUMP JUMPDEST JUMPDEST DUP1 DUP3 GT ISZERO PUSH2 0xC08 JUMPI PUSH0 DUP2 SSTORE PUSH1 0x1 ADD PUSH2 0xBF5 JUMP JUMPDEST POP SWAP1 JUMP JUMPDEST PUSH0 DUP2 MLOAD DUP1 DUP5 MSTORE DUP1 PUSH1 0x20 DUP5 ADD PUSH1 0x20 DUP7 ADD MCOPY PUSH0 PUSH1 0x20 DUP3 DUP7 ADD ADD MSTORE PUSH1 0x20 PUSH1 0x1F NOT PUSH1 0x1F DUP4 ADD AND DUP6 ADD ADD SWAP2 POP POP SWAP3 SWAP2 POP POP JUMP JUMPDEST PUSH1 0x20 DUP2 MSTORE PUSH0 PUSH2 0xC4C PUSH1 0x20 DUP4 ADD DUP5 PUSH2 0xC0C JUMP JUMPDEST SWAP4 SWAP3 POP POP POP JUMP JUMPDEST PUSH1 0x1 PUSH1 0x1 PUSH1 0xA0 SHL SUB DUP9 AND DUP2 MSTORE PUSH1 0xE0 PUSH1 0x20 DUP3 ADD DUP2 SWAP1 MSTORE PUSH0 SWAP1 PUSH2 0xC76 SWAP1 DUP4 ADD DUP10 PUSH2 0xC0C JUMP JUMPDEST DUP3 DUP2 SUB PUSH1 0x40 DUP5 ADD MSTORE PUSH2 0xC88 DUP2 DUP10 PUSH2 0xC0C JUMP JUMPDEST PUSH1 0x60 DUP5 ADD SWAP8 SWAP1 SWAP8 MSTORE POP POP PUSH4 0xFFFFFFFF SWAP4 DUP5 AND PUSH1 0x80 DUP3 ADD MSTORE SWAP2 SWAP1 SWAP3 AND PUSH1 0xA0 DUP3 ADD MSTORE SWAP1 ISZERO ISZERO PUSH1 0xC0 SWAP1 SWAP2 ADD MSTORE SWAP4 SWAP3 POP POP POP JUMP JUMPDEST PUSH0 PUSH1 0x20 DUP3 DUP5 SUB SLT ISZERO PUSH2 0xCC8 JUMPI PUSH0 DUP1 REVERT JUMPDEST POP CALLDATALOAD SWAP2 SWAP1 POP JUMP JUMPDEST PUSH1 0x20 DUP1 DUP3 MSTORE DUP3 MLOAD DUP3 DUP3 ADD DUP2 SWAP1 MSTORE PUSH0 SWAP2 DUP5 ADD SWAP1 PUSH1 0x40 DUP5 ADD SWAP1 DUP4 JUMPDEST DUP2 DUP2 LT ISZERO PUSH2 0xD0F JUMPI DUP4 MLOAD PUSH1 0x1 PUSH1 0x1 PUSH1 0xA0 SHL SUB AND DUP4 MSTORE PUSH1 0x20 SWAP4 DUP5 ADD SWAP4 SWAP1 SWAP3 ADD SWAP2 PUSH1 0x1 ADD PUSH2 0xCE8 JUMP JUMPDEST POP SWAP1 SWAP6 SWAP5 POP POP POP POP POP JUMP JUMPDEST PUSH0 PUSH1 0x20 DUP3 DUP5 SUB SLT ISZERO PUSH2 0xD2A JUMPI PUSH0 DUP1 REVERT JUMPDEST DUP2 CALLDATALOAD PUSH1 0x1 PUSH1 0x1 PUSH1 0xA0 SHL SUB DUP2 AND DUP2 EQ PUSH2 0xC4C JUMPI PUSH0 DUP1 REVERT JUMPDEST PUSH1 0x1 DUP2 DUP2 SHR SWAP1 DUP3 AND DUP1 PUSH2 0xD54 JUMPI PUSH1 0x7F DUP3 AND SWAP2 POP JUMPDEST PUSH1 0x20 DUP3 LT DUP2 SUB PUSH2 0xD72 JUMPI PUSH4 0x4E487B71 PUSH1 0xE0 SHL PUSH0 MSTORE PUSH1 0x22 PUSH1 0x4 MSTORE PUSH1 0x24 PUSH0 REVERT JUMPDEST POP SWAP2 SWAP1 POP JUMP JUMPDEST PUSH4 0x4E487B71 PUSH1 0xE0 SHL PUSH0 MSTORE PUSH1 0x32 PUSH1 0x4 MSTORE PUSH1 0x24 PUSH0 REVERT JUMPDEST PUSH4 0xFFFFFFFF DUP2 DUP2 AND DUP4 DUP3 AND ADD SWAP1 DUP2 GT ISZERO PUSH2 0xDB4 JUMPI PUSH4 0x4E487B71 PUSH1 0xE0 SHL PUSH0 MSTORE PUSH1 0x11 PUSH1 0x4 MSTORE PUSH1 0x24 PUSH0 REVERT JUMPDEST SWAP3 SWAP2 POP POP JUMP INVALID LOG2 PUSH5 0x6970667358 0x22 SLT KECCAK256 0x2C 0xD0 0xF7 0x28 PUSH4 0x162F5C0C 0xAA 0xC4 0x2C JUMP 0xEE 0xA9 MUL ORIGIN 0xAF DELEGATECALL 0xD7 LT DUP15 0x4D ORIGIN DUP14 DUP13 PUSH27 0xBC9DF4B28164736F6C634300081A00330000000000000000000000 "
		},
		"gasEstimates": {
			"creation": {
				"codeDepositCost": "713600",
				"executionCost": "infinite",
				"totalCost": "infinite"
			},
			"external": {
				"beneficiary()": "infinite",
				"deadline()": "infinite",
				"description()": "infinite",
				"donate()": "infinite",
				"donations(address)": "2562",
				"donors(uint256)": "4722",
				"finalizeCampaign()": "infinite",
				"fundingGoal()": "infinite",
				"getCampaignDetails()": "infinite",
				"getDonors()": "infinite",
				"isActive()": "2365",
				"name()": "infinite",
				"totalFunds()": "2379"
			},
			"internal": {
				"releaseFunds()": "infinite"
			}
		},
		"methodIdentifiers": {
			"beneficiary()": "38af3eed",
			"deadline()": "29dcb0cf",
			"description()": "7284e416",
			"donate()": "ed88c68e",
			"donations(address)": "cc6cb19a",
			"donors(uint256)": "4abfa163",
			"finalizeCampaign()": "a1211bc0",
			"fundingGoal()": "7a3a0e84",
			"getCampaignDetails()": "0c611f24",
			"getDonors()": "96f300d4",
			"isActive()": "22f3e2d4",
			"name()": "06fdde03",
			"totalFunds()": "968ed600"
		}
	},
	"abi": [
		{
			"inputs": [
				{
					"internalType": "address",
					"name": "_beneficiary",
					"type": "address"
				},
				{
					"internalType": "string",
					"name": "_name",
					"type": "string"
				},
				{
					"internalType": "string",
					"name": "_description",
					"type": "string"
				},
				{
					"internalType": "uint32",
					"name": "_fundingGoal",
					"type": "uint32"
				},
				{
					"internalType": "uint256",
					"name": "_deadline",
					"type": "uint256"
				}
			],
			"stateMutability": "nonpayable",
			"type": "constructor"
		},
		{
			"anonymous": false,
			"inputs": [
				{
					"indexed": true,
					"internalType": "address",
					"name": "campaignAddress",
					"type": "address"
				},
				{
					"indexed": true,
					"internalType": "address",
					"name": "beneficiary",
					"type": "address"
				},
				{
					"indexed": false,
					"internalType": "bool",
					"name": "success",
					"type": "bool"
				},
				{
					"indexed": false,
					"internalType": "uint32",
					"name": "totalFunds",
					"type": "uint32"
				}
			],
			"name": "CampaignFinalized",
			"type": "event"
		},
		{
			"anonymous": false,
			"inputs": [
				{
					"indexed": true,
					"internalType": "address",
					"name": "campaignAddress",
					"type": "address"
				},
				{
					"indexed": true,
					"internalType": "address",
					"name": "beneficiary",
					"type": "address"
				},
				{
					"indexed": false,
					"internalType": "uint32",
					"name": "amount",
					"type": "uint32"
				}
			],
			"name": "DonationMade",
			"type": "event"
		},
		{
			"anonymous": false,
			"inputs": [
				{
					"indexed": true,
					"internalType": "address",
					"name": "campaignAddress",
					"type": "address"
				},
				{
					"indexed": true,
					"internalType": "address",
					"name": "beneficiary",
					"type": "address"
				},
				{
					"indexed": false,
					"internalType": "uint32",
					"name": "amount",
					"type": "uint32"
				}
			],
			"name": "FundsWithdrawn",
			"type": "event"
		},
		{
			"anonymous": false,
			"inputs": [
				{
					"indexed": true,
					"internalType": "address",
					"name": "campaignAddress",
					"type": "address"
				},
				{
					"indexed": true,
					"internalType": "address",
					"name": "donor",
					"type": "address"
				},
				{
					"indexed": false,
					"internalType": "uint32",
					"name": "amount",
					"type": "uint32"
				}
			],
			"name": "RefundIssued",
			"type": "event"
		},
		{
			"inputs": [],
			"name": "beneficiary",
			"outputs": [
				{
					"internalType": "address",
					"name": "",
					"type": "address"
				}
			],
			"stateMutability": "view",
			"type": "function"
		},
		{
			"inputs": [],
			"name": "deadline",
			"outputs": [
				{
					"internalType": "uint256",
					"name": "",
					"type": "uint256"
				}
			],
			"stateMutability": "view",
			"type": "function"
		},
		{
			"inputs": [],
			"name": "description",
			"outputs": [
				{
					"internalType": "string",
					"name": "",
					"type": "string"
				}
			],
			"stateMutability": "view",
			"type": "function"
		},
		{
			"inputs": [],
			"name": "donate",
			"outputs": [],
			"stateMutability": "payable",
			"type": "function"
		},
		{
			"inputs": [
				{
					"internalType": "address",
					"name": "",
					"type": "address"
				}
			],
			"name": "donations",
			"outputs": [
				{
					"internalType": "uint32",
					"name": "",
					"type": "uint32"
				}
			],
			"stateMutability": "view",
			"type": "function"
		},
		{
			"inputs": [
				{
					"internalType": "uint256",
					"name": "",
					"type": "uint256"
				}
			],
			"name": "donors",
			"outputs": [
				{
					"internalType": "address",
					"name": "",
					"type": "address"
				}
			],
			"stateMutability": "view",
			"type": "function"
		},
		{
			"inputs": [],
			"name": "finalizeCampaign",
			"outputs": [],
			"stateMutability": "nonpayable",
			"type": "function"
		},
		{
			"inputs": [],
			"name": "fundingGoal",
			"outputs": [
				{
					"internalType": "uint32",
					"name": "",
					"type": "uint32"
				}
			],
			"stateMutability": "view",
			"type": "function"
		},
		{
			"inputs": [],
			"name": "getCampaignDetails",
			"outputs": [
				{
					"internalType": "address",
					"name": "campaignBeneficiary",
					"type": "address"
				},
				{
					"internalType": "string",
					"name": "campaignName",
					"type": "string"
				},
				{
					"internalType": "string",
					"name": "campaignDescription",
					"type": "string"
				},
				{
					"internalType": "uint256",
					"name": "campaignDeadline",
					"type": "uint256"
				},
				{
					"internalType": "uint32",
					"name": "campaignFundingGoal",
					"type": "uint32"
				},
				{
					"internalType": "uint32",
					"name": "campaignTotalFunds",
					"type": "uint32"
				},
				{
					"internalType": "bool",
					"name": "campaignIsActive",
					"type": "bool"
				}
			],
			"stateMutability": "view",
			"type": "function"
		},
		{
			"inputs": [],
			"name": "getDonors",
			"outputs": [
				{
					"internalType": "address[]",
					"name": "",
					"type": "address[]"
				}
			],
			"stateMutability": "view",
			"type": "function"
		},
		{
			"inputs": [],
			"name": "isActive",
			"outputs": [
				{
					"internalType": "bool",
					"name": "",
					"type": "bool"
				}
			],
			"stateMutability": "view",
			"type": "function"
		},
		{
			"inputs": [],
			"name": "name",
			"outputs": [
				{
					"internalType": "string",
					"name": "",
					"type": "string"
				}
			],
			"stateMutability": "view",
			"type": "function"
		},
		{
			"inputs": [],
			"name": "totalFunds",
			"outputs": [
				{
					"internalType": "uint32",
					"name": "",
					"type": "uint32"
				}
			],
			"stateMutability": "view",
			"type": "function"
		}
	]
}