{
	"backend/contracts/Campaign.sol": {
		"Campaign": {
			"abi": [
				{
					"inputs": [
						{
							"internalType": "address",
							"name": "_beneficiary",
							"type": "address"
						},
						{
							"internalType": "bytes32",
							"name": "_name",
							"type": "bytes32"
						},
						{
							"internalType": "string",
							"name": "_description",
							"type": "string"
						},
						{
							"internalType": "uint256",
							"name": "_fundingGoal",
							"type": "uint256"
						},
						{
							"internalType": "uint48",
							"name": "_deadline",
							"type": "uint48"
						}
					],
					"stateMutability": "nonpayable",
					"type": "constructor"
				},
				{
					"anonymous": false,
					"inputs": [
						{
							"indexed": true,
							"internalType": "address",
							"name": "beneficiary",
							"type": "address"
						},
						{
							"indexed": false,
							"internalType": "bool",
							"name": "success",
							"type": "bool"
						},
						{
							"indexed": false,
							"internalType": "uint256",
							"name": "totalFunds",
							"type": "uint256"
						}
					],
					"name": "CampaignFinalized",
					"type": "event"
				},
				{
					"anonymous": false,
					"inputs": [
						{
							"indexed": false,
							"internalType": "uint256",
							"name": "amount",
							"type": "uint256"
						}
					],
					"name": "DonationMade",
					"type": "event"
				},
				{
					"anonymous": false,
					"inputs": [],
					"name": "FundingGoalMet",
					"type": "event"
				},
				{
					"anonymous": false,
					"inputs": [
						{
							"indexed": true,
							"internalType": "address",
							"name": "donor",
							"type": "address"
						},
						{
							"indexed": false,
							"internalType": "uint256",
							"name": "amount",
							"type": "uint256"
						}
					],
					"name": "RefundIssued",
					"type": "event"
				},
				{
					"inputs": [],
					"name": "beneficiary",
					"outputs": [
						{
							"internalType": "address",
							"name": "",
							"type": "address"
						}
					],
					"stateMutability": "view",
					"type": "function"
				},
				{
					"inputs": [],
					"name": "deadline",
					"outputs": [
						{
							"internalType": "uint48",
							"name": "",
							"type": "uint48"
						}
					],
					"stateMutability": "view",
					"type": "function"
				},
				{
					"inputs": [],
					"name": "description",
					"outputs": [
						{
							"internalType": "string",
							"name": "",
							"type": "string"
						}
					],
					"stateMutability": "view",
					"type": "function"
				},
				{
					"inputs": [],
					"name": "donate",
					"outputs": [],
					"stateMutability": "payable",
					"type": "function"
				},
				{
					"inputs": [],
					"name": "finalizeCampaign",
					"outputs": [],
					"stateMutability": "nonpayable",
					"type": "function"
				},
				{
					"inputs": [],
					"name": "fundingGoal",
					"outputs": [
						{
							"internalType": "uint256",
							"name": "",
							"type": "uint256"
						}
					],
					"stateMutability": "view",
					"type": "function"
				},
				{
					"inputs": [],
					"name": "getCampaignDetails",
					"outputs": [
						{
							"internalType": "address",
							"name": "campaignBeneficiary",
							"type": "address"
						},
						{
							"internalType": "bytes32",
							"name": "campaignName",
							"type": "bytes32"
						},
						{
							"internalType": "string",
							"name": "campaignDescription",
							"type": "string"
						},
						{
							"internalType": "uint48",
							"name": "campaignDeadline",
							"type": "uint48"
						},
						{
							"internalType": "uint256",
							"name": "campaignFundingGoal",
							"type": "uint256"
						},
						{
							"internalType": "uint256",
							"name": "campaignTotalFunds",
							"type": "uint256"
						},
						{
							"internalType": "bool",
							"name": "campaignIsActive",
							"type": "bool"
						}
					],
					"stateMutability": "view",
					"type": "function"
				},
				{
					"inputs": [],
					"name": "getDonors",
					"outputs": [
						{
							"internalType": "address[]",
							"name": "",
							"type": "address[]"
						}
					],
					"stateMutability": "view",
					"type": "function"
				},
				{
					"inputs": [],
					"name": "isActive",
					"outputs": [
						{
							"internalType": "bool",
							"name": "",
							"type": "bool"
						}
					],
					"stateMutability": "view",
					"type": "function"
				},
				{
					"inputs": [],
					"name": "name",
					"outputs": [
						{
							"internalType": "bytes32",
							"name": "",
							"type": "bytes32"
						}
					],
					"stateMutability": "view",
					"type": "function"
				},
				{
					"inputs": [],
					"name": "totalFunds",
					"outputs": [
						{
							"internalType": "uint256",
							"name": "",
							"type": "uint256"
						}
					],
					"stateMutability": "view",
					"type": "function"
				}
			],
			"devdoc": {
				"details": "The smart contract for the created Campaign. It handles everything related to a specific Campaign that has been deployed",
				"kind": "dev",
				"methods": {
					"constructor": {
						"details": "Creates the Campaign smart contract",
						"params": {
							"_beneficiary": "The wallet address of the beneficiary that is creating this Campaign",
							"_deadline": "Timestamp of when the Campaign should be fully funded before it becomes inactive",
							"_description": "The description of this Campaign",
							"_fundingGoal": "Funding Goal for the Campaign in cryptocurrency (SepoliaETH)"
						}
					},
					"donate()": {
						"details": "Allows donors to donate to the CampaignTo be called from the frontend by the donor"
					},
					"finalizeCampaign()": {
						"details": "Called when the Campaign's deadline has passed, and also handles the refund to all donors if the fundingGoal is not met by thenTo be called from the frontend by the beneficiary"
					},
					"getCampaignDetails()": {
						"details": "Get all the Campaign details from its state variables"
					},
					"getDonors()": {
						"details": "Get all the donors of this CampaignLikely to be used by the frontend to notify just donors on events such as FundsWithdrawn and CampaignFinalized"
					}
				},
				"title": "Campaign",
				"version": 1
			},
			"evm": {
				"assembly": "    /* \"backend/contracts/Campaign.sol\":226:8196  contract Campaign {... */\n  mstore(0x40, 0x0100)\n    /* \"backend/contracts/Campaign.sol\":1436:2000  constructor(... */\n  callvalue\n  dup1\n  iszero\n  tag_1\n  jumpi\n  0x00\n  dup1\n  revert\ntag_1:\n  pop\n  mload(0x40)\n  sub(codesize, bytecodeSize)\n  dup1\n  bytecodeSize\n  dup4\n  codecopy\n  dup2\n  add\n  0x40\n  dup2\n  swap1\n  mstore\n  tag_2\n  swap2\n  tag_3\n  jump\t// in\ntag_2:\n    /* \"backend/contracts/Campaign.sol\":1632:1633  0 */\n  0x00\n    /* \"backend/contracts/Campaign.sol\":1617:1629  _fundingGoal */\n  dup3\n    /* \"backend/contracts/Campaign.sol\":1617:1633  _fundingGoal > 0 */\n  gt\n    /* \"backend/contracts/Campaign.sol\":1609:1662  require(_fundingGoal > 0, \"Funding goal must be > 0\") */\n  tag_6\n  jumpi\n  mload(0x40)\n  shl(0xe5, 0x461bcd)\n  dup2\n  mstore\n    /* \"#utility.yul\":1890:1892   */\n  0x20\n    /* \"backend/contracts/Campaign.sol\":1609:1662  require(_fundingGoal > 0, \"Funding goal must be > 0\") */\n  0x04\n  dup3\n  add\n    /* \"#utility.yul\":1872:1893   */\n  mstore\n    /* \"#utility.yul\":1929:1931   */\n  0x18\n    /* \"#utility.yul\":1909:1927   */\n  0x24\n  dup3\n  add\n    /* \"#utility.yul\":1902:1932   */\n  mstore\n    /* \"#utility.yul\":1968:1994   */\n  0x46756e64696e6720676f616c206d757374206265203e20300000000000000000\n    /* \"#utility.yul\":1948:1966   */\n  0x44\n  dup3\n  add\n    /* \"#utility.yul\":1941:1995   */\n  mstore\n    /* \"#utility.yul\":2012:2030   */\n  0x64\n  add\n    /* \"backend/contracts/Campaign.sol\":1609:1662  require(_fundingGoal > 0, \"Funding goal must be > 0\") */\ntag_7:\n  mload(0x40)\n  dup1\n  swap2\n  sub\n  swap1\n  revert\ntag_6:\n    /* \"backend/contracts/Campaign.sol\":1712:1727  block.timestamp */\n  timestamp\n    /* \"backend/contracts/Campaign.sol\":1700:1709  _deadline */\n  dup2\n    /* \"backend/contracts/Campaign.sol\":1700:1727  _deadline > block.timestamp */\n  0xffffffffffff\n  and\n  gt\n    /* \"backend/contracts/Campaign.sol\":1692:1747  require(_deadline > block.timestamp, \"Deadline passed\") */\n  tag_9\n  jumpi\n  mload(0x40)\n  shl(0xe5, 0x461bcd)\n  dup2\n  mstore\n    /* \"#utility.yul\":2243:2245   */\n  0x20\n    /* \"backend/contracts/Campaign.sol\":1692:1747  require(_deadline > block.timestamp, \"Deadline passed\") */\n  0x04\n  dup3\n  add\n    /* \"#utility.yul\":2225:2246   */\n  mstore\n    /* \"#utility.yul\":2282:2284   */\n  0x0f\n    /* \"#utility.yul\":2262:2280   */\n  0x24\n  dup3\n  add\n    /* \"#utility.yul\":2255:2285   */\n  mstore\n  shl(0x8a, 0x111958591b1a5b99481c185cdcd959)\n    /* \"#utility.yul\":2301:2319   */\n  0x44\n  dup3\n  add\n    /* \"#utility.yul\":2294:2339   */\n  mstore\n    /* \"#utility.yul\":2356:2374   */\n  0x64\n  add\n    /* \"backend/contracts/Campaign.sol\":1692:1747  require(_deadline > block.timestamp, \"Deadline passed\") */\n  tag_7\n    /* \"#utility.yul\":2041:2380   */\n  jump\n    /* \"backend/contracts/Campaign.sol\":1692:1747  require(_deadline > block.timestamp, \"Deadline passed\") */\ntag_9:\n  sub(shl(0xa0, 0x01), 0x01)\n    /* \"backend/contracts/Campaign.sol\":1777:1803  beneficiary = _beneficiary */\n  dup6\n  and\n  0x80\n  mstore\n    /* \"backend/contracts/Campaign.sol\":1813:1825  name = _name */\n  0xe0\n  dup5\n  swap1\n  mstore\n    /* \"backend/contracts/Campaign.sol\":1835:1846  description */\n  0x02\n    /* \"backend/contracts/Campaign.sol\":1835:1861  description = _description */\n  tag_12\n    /* \"backend/contracts/Campaign.sol\":1849:1861  _description */\n  dup5\n    /* \"backend/contracts/Campaign.sol\":1835:1846  description */\n  dup3\n    /* \"backend/contracts/Campaign.sol\":1835:1861  description = _description */\n  tag_13\n  jump\t// in\ntag_12:\n  pop\n    /* \"backend/contracts/Campaign.sol\":1871:1897  fundingGoal = _fundingGoal */\n  0xc0\n  swap2\n  swap1\n  swap2\n  mstore\n    /* \"backend/contracts/Campaign.sol\":1907:1927  deadline = _deadline */\n  0xffffffffffff\n  and\n  0xa0\n  mstore\n  pop\n  pop\n    /* \"backend/contracts/Campaign.sol\":1937:1945  isActive */\n  0x00\n    /* \"backend/contracts/Campaign.sol\":1937:1952  isActive = true */\n  dup1\n  sload\n  not(0xff)\n  and\n    /* \"backend/contracts/Campaign.sol\":1948:1952  true */\n  0x01\n    /* \"backend/contracts/Campaign.sol\":1937:1952  isActive = true */\n  or\n  swap1\n  sstore\n  pop\n    /* \"backend/contracts/Campaign.sol\":226:8196  contract Campaign {... */\n  jump(tag_21)\n    /* \"#utility.yul\":14:141   */\ntag_15:\n    /* \"#utility.yul\":75:85   */\n  0x4e487b71\n    /* \"#utility.yul\":70:73   */\n  0xe0\n    /* \"#utility.yul\":66:86   */\n  shl\n    /* \"#utility.yul\":63:64   */\n  0x00\n    /* \"#utility.yul\":56:87   */\n  mstore\n    /* \"#utility.yul\":106:110   */\n  0x41\n    /* \"#utility.yul\":103:104   */\n  0x04\n    /* \"#utility.yul\":96:111   */\n  mstore\n    /* \"#utility.yul\":130:134   */\n  0x24\n    /* \"#utility.yul\":127:128   */\n  0x00\n    /* \"#utility.yul\":120:135   */\n  revert\n    /* \"#utility.yul\":146:317   */\ntag_16:\n    /* \"#utility.yul\":224:237   */\n  dup1\n  mload\n    /* \"#utility.yul\":277:291   */\n  0xffffffffffff\n    /* \"#utility.yul\":266:292   */\n  dup2\n  and\n    /* \"#utility.yul\":256:293   */\n  dup2\n  eq\n    /* \"#utility.yul\":246:311   */\n  tag_24\n  jumpi\n    /* \"#utility.yul\":307:308   */\n  0x00\n    /* \"#utility.yul\":304:305   */\n  dup1\n    /* \"#utility.yul\":297:309   */\n  revert\n    /* \"#utility.yul\":246:311   */\ntag_24:\n    /* \"#utility.yul\":146:317   */\n  swap2\n  swap1\n  pop\n  jump\t// out\n    /* \"#utility.yul\":322:1683   */\ntag_3:\n    /* \"#utility.yul\":437:443   */\n  0x00\n    /* \"#utility.yul\":445:451   */\n  dup1\n    /* \"#utility.yul\":453:459   */\n  0x00\n    /* \"#utility.yul\":461:467   */\n  dup1\n    /* \"#utility.yul\":469:475   */\n  0x00\n    /* \"#utility.yul\":522:525   */\n  0xa0\n    /* \"#utility.yul\":510:519   */\n  dup7\n    /* \"#utility.yul\":501:508   */\n  dup9\n    /* \"#utility.yul\":497:520   */\n  sub\n    /* \"#utility.yul\":493:526   */\n  slt\n    /* \"#utility.yul\":490:543   */\n  iszero\n  tag_26\n  jumpi\n    /* \"#utility.yul\":539:540   */\n  0x00\n    /* \"#utility.yul\":536:537   */\n  dup1\n    /* \"#utility.yul\":529:541   */\n  revert\n    /* \"#utility.yul\":490:543   */\ntag_26:\n    /* \"#utility.yul\":565:581   */\n  dup6\n  mload\n  sub(shl(0xa0, 0x01), 0x01)\n    /* \"#utility.yul\":610:641   */\n  dup2\n  and\n    /* \"#utility.yul\":600:642   */\n  dup2\n  eq\n    /* \"#utility.yul\":590:660   */\n  tag_27\n  jumpi\n    /* \"#utility.yul\":656:657   */\n  0x00\n    /* \"#utility.yul\":653:654   */\n  dup1\n    /* \"#utility.yul\":646:658   */\n  revert\n    /* \"#utility.yul\":590:660   */\ntag_27:\n    /* \"#utility.yul\":724:726   */\n  0x20\n    /* \"#utility.yul\":709:727   */\n  dup8\n  add\n    /* \"#utility.yul\":703:728   */\n  mload\n    /* \"#utility.yul\":772:774   */\n  0x40\n    /* \"#utility.yul\":757:775   */\n  dup9\n  add\n    /* \"#utility.yul\":751:776   */\n  mload\n    /* \"#utility.yul\":679:684   */\n  swap2\n  swap7\n  pop\n    /* \"#utility.yul\":703:728   */\n  swap5\n  pop\n  sub(shl(0x40, 0x01), 0x01)\n    /* \"#utility.yul\":788:818   */\n  dup2\n  gt\n    /* \"#utility.yul\":785:835   */\n  iszero\n  tag_28\n  jumpi\n    /* \"#utility.yul\":831:832   */\n  0x00\n    /* \"#utility.yul\":828:829   */\n  dup1\n    /* \"#utility.yul\":821:833   */\n  revert\n    /* \"#utility.yul\":785:835   */\ntag_28:\n    /* \"#utility.yul\":854:876   */\n  dup7\n  add\n    /* \"#utility.yul\":907:911   */\n  0x1f\n    /* \"#utility.yul\":899:912   */\n  dup2\n  add\n    /* \"#utility.yul\":895:922   */\n  dup9\n  sgt\n    /* \"#utility.yul\":885:940   */\n  tag_29\n  jumpi\n    /* \"#utility.yul\":936:937   */\n  0x00\n    /* \"#utility.yul\":933:934   */\n  dup1\n    /* \"#utility.yul\":926:938   */\n  revert\n    /* \"#utility.yul\":885:940   */\ntag_29:\n    /* \"#utility.yul\":963:972   */\n  dup1\n  mload\n  sub(shl(0x40, 0x01), 0x01)\n    /* \"#utility.yul\":984:1014   */\n  dup2\n  gt\n    /* \"#utility.yul\":981:1037   */\n  iszero\n  tag_31\n  jumpi\n    /* \"#utility.yul\":1017:1035   */\n  tag_31\n  tag_15\n  jump\t// in\ntag_31:\n    /* \"#utility.yul\":1066:1068   */\n  0x40\n    /* \"#utility.yul\":1060:1069   */\n  mload\n    /* \"#utility.yul\":1158:1160   */\n  0x1f\n    /* \"#utility.yul\":1120:1137   */\n  dup3\n  add\n  not(0x1f)\n    /* \"#utility.yul\":1116:1147   */\n  swap1\n  dup2\n  and\n    /* \"#utility.yul\":1149:1151   */\n  0x3f\n    /* \"#utility.yul\":1112:1152   */\n  add\n    /* \"#utility.yul\":1108:1162   */\n  and\n    /* \"#utility.yul\":1096:1163   */\n  dup2\n  add\n  sub(shl(0x40, 0x01), 0x01)\n    /* \"#utility.yul\":1178:1212   */\n  dup2\n  gt\n    /* \"#utility.yul\":1214:1236   */\n  dup3\n  dup3\n  lt\n    /* \"#utility.yul\":1175:1237   */\n  or\n    /* \"#utility.yul\":1172:1260   */\n  iszero\n  tag_33\n  jumpi\n    /* \"#utility.yul\":1240:1258   */\n  tag_33\n  tag_15\n  jump\t// in\ntag_33:\n    /* \"#utility.yul\":1276:1278   */\n  0x40\n    /* \"#utility.yul\":1269:1291   */\n  mstore\n    /* \"#utility.yul\":1300:1322   */\n  dup2\n  dup2\n  mstore\n    /* \"#utility.yul\":1341:1356   */\n  dup3\n  dup3\n  add\n    /* \"#utility.yul\":1358:1360   */\n  0x20\n    /* \"#utility.yul\":1337:1361   */\n  add\n    /* \"#utility.yul\":1334:1371   */\n  dup11\n  lt\n    /* \"#utility.yul\":1331:1388   */\n  iszero\n  tag_34\n  jumpi\n    /* \"#utility.yul\":1384:1385   */\n  0x00\n    /* \"#utility.yul\":1381:1382   */\n  dup1\n    /* \"#utility.yul\":1374:1386   */\n  revert\n    /* \"#utility.yul\":1331:1388   */\ntag_34:\n    /* \"#utility.yul\":1433:1439   */\n  dup2\n    /* \"#utility.yul\":1428:1430   */\n  0x20\n    /* \"#utility.yul\":1424:1426   */\n  dup5\n    /* \"#utility.yul\":1420:1431   */\n  add\n    /* \"#utility.yul\":1415:1417   */\n  0x20\n    /* \"#utility.yul\":1407:1413   */\n  dup4\n    /* \"#utility.yul\":1403:1418   */\n  add\n    /* \"#utility.yul\":1397:1440   */\n  mcopy\n    /* \"#utility.yul\":1486:1487   */\n  0x00\n    /* \"#utility.yul\":1460:1479   */\n  swap2\n  dup2\n  add\n    /* \"#utility.yul\":1481:1483   */\n  0x20\n    /* \"#utility.yul\":1456:1484   */\n  add\n    /* \"#utility.yul\":1449:1488   */\n  swap2\n  swap1\n  swap2\n  mstore\n    /* \"#utility.yul\":1579:1581   */\n  0x60\n    /* \"#utility.yul\":1564:1582   */\n  dup9\n  add\n    /* \"#utility.yul\":1558:1583   */\n  mload\n    /* \"#utility.yul\":1464:1470   */\n  swap1\n  swap5\n  pop\n    /* \"#utility.yul\":1558:1583   */\n  swap3\n  pop\n    /* \"#utility.yul\":1628:1677   */\n  tag_35\n  swap1\n  pop\n    /* \"#utility.yul\":1672:1675   */\n  0x80\n    /* \"#utility.yul\":1657:1676   */\n  dup8\n  add\n    /* \"#utility.yul\":1628:1677   */\n  tag_16\n  jump\t// in\ntag_35:\n    /* \"#utility.yul\":1618:1677   */\n  swap1\n  pop\n    /* \"#utility.yul\":322:1683   */\n  swap3\n  swap6\n  pop\n  swap3\n  swap6\n  swap1\n  swap4\n  pop\n  jump\t// out\n    /* \"#utility.yul\":2385:2765   */\ntag_17:\n    /* \"#utility.yul\":2464:2465   */\n  0x01\n    /* \"#utility.yul\":2460:2472   */\n  dup2\n  dup2\n  shr\n  swap1\n    /* \"#utility.yul\":2507:2519   */\n  dup3\n  and\n  dup1\n    /* \"#utility.yul\":2528:2589   */\n  tag_39\n  jumpi\n    /* \"#utility.yul\":2582:2586   */\n  0x7f\n    /* \"#utility.yul\":2574:2580   */\n  dup3\n    /* \"#utility.yul\":2570:2587   */\n  and\n    /* \"#utility.yul\":2560:2587   */\n  swap2\n  pop\n    /* \"#utility.yul\":2528:2589   */\ntag_39:\n    /* \"#utility.yul\":2635:2637   */\n  0x20\n    /* \"#utility.yul\":2627:2633   */\n  dup3\n    /* \"#utility.yul\":2624:2638   */\n  lt\n    /* \"#utility.yul\":2604:2622   */\n  dup2\n    /* \"#utility.yul\":2601:2639   */\n  sub\n    /* \"#utility.yul\":2598:2759   */\n  tag_40\n  jumpi\n    /* \"#utility.yul\":2681:2691   */\n  0x4e487b71\n    /* \"#utility.yul\":2676:2679   */\n  0xe0\n    /* \"#utility.yul\":2672:2692   */\n  shl\n    /* \"#utility.yul\":2669:2670   */\n  0x00\n    /* \"#utility.yul\":2662:2693   */\n  mstore\n    /* \"#utility.yul\":2716:2720   */\n  0x22\n    /* \"#utility.yul\":2713:2714   */\n  0x04\n    /* \"#utility.yul\":2706:2721   */\n  mstore\n    /* \"#utility.yul\":2744:2748   */\n  0x24\n    /* \"#utility.yul\":2741:2742   */\n  0x00\n    /* \"#utility.yul\":2734:2749   */\n  revert\n    /* \"#utility.yul\":2598:2759   */\ntag_40:\n  pop\n    /* \"#utility.yul\":2385:2765   */\n  swap2\n  swap1\n  pop\n  jump\t// out\n    /* \"#utility.yul\":2896:3414   */\ntag_19:\n    /* \"#utility.yul\":2998:3000   */\n  0x1f\n    /* \"#utility.yul\":2993:2996   */\n  dup3\n    /* \"#utility.yul\":2990:3001   */\n  gt\n    /* \"#utility.yul\":2987:3408   */\n  iszero\n  tag_43\n  jumpi\n    /* \"#utility.yul\":3034:3039   */\n  dup1\n    /* \"#utility.yul\":3031:3032   */\n  0x00\n    /* \"#utility.yul\":3024:3040   */\n  mstore\n    /* \"#utility.yul\":3078:3082   */\n  0x20\n    /* \"#utility.yul\":3075:3076   */\n  0x00\n    /* \"#utility.yul\":3065:3083   */\n  keccak256\n    /* \"#utility.yul\":3148:3150   */\n  0x1f\n    /* \"#utility.yul\":3136:3146   */\n  dup5\n    /* \"#utility.yul\":3132:3151   */\n  add\n    /* \"#utility.yul\":3129:3130   */\n  0x05\n    /* \"#utility.yul\":3125:3152   */\n  shr\n    /* \"#utility.yul\":3119:3123   */\n  dup2\n    /* \"#utility.yul\":3115:3153   */\n  add\n    /* \"#utility.yul\":3184:3188   */\n  0x20\n    /* \"#utility.yul\":3172:3182   */\n  dup6\n    /* \"#utility.yul\":3169:3189   */\n  lt\n    /* \"#utility.yul\":3166:3213   */\n  iszero\n  tag_44\n  jumpi\n  pop\n    /* \"#utility.yul\":3207:3211   */\n  dup1\n    /* \"#utility.yul\":3166:3213   */\ntag_44:\n    /* \"#utility.yul\":3262:3264   */\n  0x1f\n    /* \"#utility.yul\":3257:3260   */\n  dup5\n    /* \"#utility.yul\":3253:3265   */\n  add\n    /* \"#utility.yul\":3250:3251   */\n  0x05\n    /* \"#utility.yul\":3246:3266   */\n  shr\n    /* \"#utility.yul\":3240:3244   */\n  dup3\n    /* \"#utility.yul\":3236:3267   */\n  add\n    /* \"#utility.yul\":3226:3267   */\n  swap2\n  pop\n    /* \"#utility.yul\":3317:3398   */\ntag_45:\n    /* \"#utility.yul\":3335:3337   */\n  dup2\n    /* \"#utility.yul\":3328:3333   */\n  dup2\n    /* \"#utility.yul\":3325:3338   */\n  lt\n    /* \"#utility.yul\":3317:3398   */\n  iszero\n  tag_47\n  jumpi\n    /* \"#utility.yul\":3394:3395   */\n  0x00\n    /* \"#utility.yul\":3380:3396   */\n  dup2\n  sstore\n    /* \"#utility.yul\":3361:3362   */\n  0x01\n    /* \"#utility.yul\":3350:3363   */\n  add\n    /* \"#utility.yul\":3317:3398   */\n  jump(tag_45)\ntag_47:\n    /* \"#utility.yul\":3321:3324   */\n  pop\n  pop\n    /* \"#utility.yul\":2987:3408   */\ntag_43:\n    /* \"#utility.yul\":2896:3414   */\n  pop\n  pop\n  pop\n  jump\t// out\n    /* \"#utility.yul\":3590:4889   */\ntag_13:\n    /* \"#utility.yul\":3710:3720   */\n  dup2\n  mload\n  sub(shl(0x40, 0x01), 0x01)\n    /* \"#utility.yul\":3732:3762   */\n  dup2\n  gt\n    /* \"#utility.yul\":3729:3785   */\n  iszero\n  tag_51\n  jumpi\n    /* \"#utility.yul\":3765:3783   */\n  tag_51\n  tag_15\n  jump\t// in\ntag_51:\n    /* \"#utility.yul\":3794:3891   */\n  tag_52\n    /* \"#utility.yul\":3884:3890   */\n  dup2\n    /* \"#utility.yul\":3844:3882   */\n  tag_53\n    /* \"#utility.yul\":3876:3880   */\n  dup5\n    /* \"#utility.yul\":3870:3881   */\n  sload\n    /* \"#utility.yul\":3844:3882   */\n  tag_17\n  jump\t// in\ntag_53:\n    /* \"#utility.yul\":3838:3842   */\n  dup5\n    /* \"#utility.yul\":3794:3891   */\n  tag_19\n  jump\t// in\ntag_52:\n    /* \"#utility.yul\":3940:3944   */\n  0x20\n    /* \"#utility.yul\":3971:3973   */\n  0x1f\n    /* \"#utility.yul\":3960:3974   */\n  dup3\n  gt\n    /* \"#utility.yul\":3988:3989   */\n  0x01\n    /* \"#utility.yul\":3983:4632   */\n  dup2\n  eq\n  tag_55\n  jumpi\n    /* \"#utility.yul\":4676:4677   */\n  0x00\n    /* \"#utility.yul\":4693:4699   */\n  dup4\n    /* \"#utility.yul\":4690:4779   */\n  iszero\n  tag_56\n  jumpi\n  pop\n    /* \"#utility.yul\":4745:4764   */\n  dup5\n  dup3\n  add\n    /* \"#utility.yul\":4739:4765   */\n  mload\n    /* \"#utility.yul\":4690:4779   */\ntag_56:\n  not(0x00)\n    /* \"#utility.yul\":3547:3548   */\n  0x03\n    /* \"#utility.yul\":3543:3554   */\n  dup6\n  swap1\n  shl\n    /* \"#utility.yul\":3539:3563   */\n  shr\n    /* \"#utility.yul\":3535:3564   */\n  not\n    /* \"#utility.yul\":3525:3565   */\n  and\n    /* \"#utility.yul\":3571:3572   */\n  0x01\n    /* \"#utility.yul\":3567:3578   */\n  dup5\n  swap1\n  shl\n    /* \"#utility.yul\":3522:3579   */\n  or\n    /* \"#utility.yul\":4792:4873   */\n  dup5\n  sstore\n    /* \"#utility.yul\":3953:4883   */\n  jump(tag_47)\n    /* \"#utility.yul\":3983:4632   */\ntag_55:\n    /* \"#utility.yul\":2843:2844   */\n  0x00\n    /* \"#utility.yul\":2836:2850   */\n  dup5\n  dup2\n  mstore\n    /* \"#utility.yul\":2880:2884   */\n  0x20\n    /* \"#utility.yul\":2867:2885   */\n  dup2\n  keccak256\n  not(0x1f)\n    /* \"#utility.yul\":4019:4039   */\n  dup6\n  and\n  swap2\n    /* \"#utility.yul\":4137:4359   */\ntag_59:\n    /* \"#utility.yul\":4151:4158   */\n  dup3\n    /* \"#utility.yul\":4148:4149   */\n  dup2\n    /* \"#utility.yul\":4145:4159   */\n  lt\n    /* \"#utility.yul\":4137:4359   */\n  iszero\n  tag_61\n  jumpi\n    /* \"#utility.yul\":4233:4252   */\n  dup8\n  dup6\n  add\n    /* \"#utility.yul\":4227:4253   */\n  mload\n    /* \"#utility.yul\":4212:4254   */\n  dup3\n  sstore\n    /* \"#utility.yul\":4340:4344   */\n  0x20\n    /* \"#utility.yul\":4325:4345   */\n  swap5\n  dup6\n  add\n  swap5\n    /* \"#utility.yul\":4293:4294   */\n  0x01\n    /* \"#utility.yul\":4281:4295   */\n  swap1\n  swap3\n  add\n  swap2\n    /* \"#utility.yul\":4167:4179   */\n  add\n    /* \"#utility.yul\":4137:4359   */\n  jump(tag_59)\ntag_61:\n    /* \"#utility.yul\":4141:4144   */\n  pop\n    /* \"#utility.yul\":4387:4393   */\n  dup5\n    /* \"#utility.yul\":4378:4385   */\n  dup3\n    /* \"#utility.yul\":4375:4394   */\n  lt\n    /* \"#utility.yul\":4372:4573   */\n  iszero\n  tag_62\n  jumpi\n    /* \"#utility.yul\":4448:4467   */\n  dup7\n  dup5\n  add\n    /* \"#utility.yul\":4442:4468   */\n  mload\n  not(0x00)\n    /* \"#utility.yul\":4531:4532   */\n  0x03\n    /* \"#utility.yul\":4527:4541   */\n  dup8\n  swap1\n  shl\n    /* \"#utility.yul\":4543:4546   */\n  0xf8\n    /* \"#utility.yul\":4523:4547   */\n  and\n    /* \"#utility.yul\":4519:4556   */\n  shr\n    /* \"#utility.yul\":4515:4557   */\n  not\n    /* \"#utility.yul\":4500:4558   */\n  and\n    /* \"#utility.yul\":4485:4559   */\n  dup2\n  sstore\n    /* \"#utility.yul\":4372:4573   */\ntag_62:\n  pop\n  pop\n  pop\n  pop\n    /* \"#utility.yul\":4619:4620   */\n  0x01\n    /* \"#utility.yul\":4603:4617   */\n  swap1\n  dup2\n  shl\n    /* \"#utility.yul\":4599:4621   */\n  add\n    /* \"#utility.yul\":4586:4622   */\n  swap1\n  sstore\n  pop\n    /* \"#utility.yul\":3590:4889   */\n  jump\t// out\ntag_21:\n    /* \"backend/contracts/Campaign.sol\":226:8196  contract Campaign {... */\n  mload(0x80)\n  mload(0xa0)\n  mload(0xc0)\n  mload(0xe0)\n  codecopy(0x00, dataOffset(sub_0), dataSize(sub_0))\n  0x00\n  assignImmutable(\"0x5c4c6aa067b6f8e6cb38e6ab843832a94d1712d661a04d73c517d6a1931a9e5d\")\n  0x00\n  assignImmutable(\"0x1a192fabce13988b84994d4296e6cdc418d55e2f1d7f942188d4040b94fc57ac\")\n  0x00\n  assignImmutable(\"0xe455bf8ea6e7463a1046a0b52804526e119b4bf5136279614e0b1e8e296a4e2d\")\n  0x00\n  assignImmutable(\"0x13600b294191fc92924bb3ce4b969c1e7e2bab8f4c93c3fc6d0a51733df3c060\")\n  return(0x00, dataSize(sub_0))\nstop\n\nsub_0: assembly {\n        /* \"backend/contracts/Campaign.sol\":226:8196  contract Campaign {... */\n      mstore(0x40, 0x80)\n      jumpi(tag_1, lt(calldatasize, 0x04))\n      shr(0xe0, calldataload(0x00))\n      dup1\n      0x7284e416\n      gt\n      tag_13\n      jumpi\n      dup1\n      0x7284e416\n      eq\n      tag_7\n      jumpi\n      dup1\n      0x7a3a0e84\n      eq\n      tag_8\n      jumpi\n      dup1\n      0x968ed600\n      eq\n      tag_9\n      jumpi\n      dup1\n      0x96f300d4\n      eq\n      tag_10\n      jumpi\n      dup1\n      0xa1211bc0\n      eq\n      tag_11\n      jumpi\n      dup1\n      0xed88c68e\n      eq\n      tag_12\n      jumpi\n      0x00\n      dup1\n      revert\n    tag_13:\n      dup1\n      0x06fdde03\n      eq\n      tag_2\n      jumpi\n      dup1\n      0x0c611f24\n      eq\n      tag_3\n      jumpi\n      dup1\n      0x22f3e2d4\n      eq\n      tag_4\n      jumpi\n      dup1\n      0x29dcb0cf\n      eq\n      tag_5\n      jumpi\n      dup1\n      0x38af3eed\n      eq\n      tag_6\n      jumpi\n    tag_1:\n      0x00\n      dup1\n      revert\n        /* \"backend/contracts/Campaign.sol\":731:760  bytes32 public immutable name */\n    tag_2:\n      callvalue\n      dup1\n      iszero\n      tag_14\n      jumpi\n      0x00\n      dup1\n      revert\n    tag_14:\n      pop\n      tag_15\n      immutable(\"0x5c4c6aa067b6f8e6cb38e6ab843832a94d1712d661a04d73c517d6a1931a9e5d\")\n      dup2\n      jump\n    tag_15:\n      mload(0x40)\n        /* \"#utility.yul\":160:185   */\n      swap1\n      dup2\n      mstore\n        /* \"#utility.yul\":148:150   */\n      0x20\n        /* \"#utility.yul\":133:151   */\n      add\n        /* \"backend/contracts/Campaign.sol\":731:760  bytes32 public immutable name */\n    tag_17:\n      mload(0x40)\n      dup1\n      swap2\n      sub\n      swap1\n      return\n        /* \"backend/contracts/Campaign.sol\":7548:8194  function getCampaignDetails()... */\n    tag_3:\n      callvalue\n      dup1\n      iszero\n      tag_19\n      jumpi\n      0x00\n      dup1\n      revert\n    tag_19:\n      pop\n      tag_20\n      tag_21\n      jump\t// in\n    tag_20:\n      mload(0x40)\n      tag_17\n      swap8\n      swap7\n      swap6\n      swap5\n      swap4\n      swap3\n      swap2\n      swap1\n      tag_23\n      jump\t// in\n        /* \"backend/contracts/Campaign.sol\":407:427  bool public isActive */\n    tag_4:\n      callvalue\n      dup1\n      iszero\n      tag_24\n      jumpi\n      0x00\n      dup1\n      revert\n    tag_24:\n      pop\n      sload(0x00)\n      tag_25\n      swap1\n      0xff\n      and\n      dup2\n      jump\n    tag_25:\n      mload(0x40)\n        /* \"#utility.yul\":1366:1380   */\n      swap1\n      iszero\n        /* \"#utility.yul\":1359:1381   */\n      iszero\n        /* \"#utility.yul\":1341:1382   */\n      dup2\n      mstore\n        /* \"#utility.yul\":1329:1331   */\n      0x20\n        /* \"#utility.yul\":1314:1332   */\n      add\n        /* \"backend/contracts/Campaign.sol\":407:427  bool public isActive */\n      tag_17\n        /* \"#utility.yul\":1201:1388   */\n      jump\n        /* \"backend/contracts/Campaign.sol\":358:390  uint48 public immutable deadline */\n    tag_5:\n      callvalue\n      dup1\n      iszero\n      tag_29\n      jumpi\n      0x00\n      dup1\n      revert\n    tag_29:\n      pop\n      tag_30\n      immutable(\"0xe455bf8ea6e7463a1046a0b52804526e119b4bf5136279614e0b1e8e296a4e2d\")\n      dup2\n      jump\n    tag_30:\n      mload(0x40)\n        /* \"#utility.yul\":1567:1581   */\n      0xffffffffffff\n        /* \"#utility.yul\":1555:1582   */\n      swap1\n      swap2\n      and\n        /* \"#utility.yul\":1537:1583   */\n      dup2\n      mstore\n        /* \"#utility.yul\":1525:1527   */\n      0x20\n        /* \"#utility.yul\":1510:1528   */\n      add\n        /* \"backend/contracts/Campaign.sol\":358:390  uint48 public immutable deadline */\n      tag_17\n        /* \"#utility.yul\":1393:1589   */\n      jump\n        /* \"backend/contracts/Campaign.sol\":304:340  address public immutable beneficiary */\n    tag_6:\n      callvalue\n      dup1\n      iszero\n      tag_34\n      jumpi\n      0x00\n      dup1\n      revert\n    tag_34:\n      pop\n      tag_35\n      immutable(\"0x13600b294191fc92924bb3ce4b969c1e7e2bab8f4c93c3fc6d0a51733df3c060\")\n      dup2\n      jump\n    tag_35:\n      mload(0x40)\n      sub(shl(0xa0, 0x01), 0x01)\n        /* \"#utility.yul\":1758:1790   */\n      swap1\n      swap2\n      and\n        /* \"#utility.yul\":1740:1791   */\n      dup2\n      mstore\n        /* \"#utility.yul\":1728:1730   */\n      0x20\n        /* \"#utility.yul\":1713:1731   */\n      add\n        /* \"backend/contracts/Campaign.sol\":304:340  address public immutable beneficiary */\n      tag_17\n        /* \"#utility.yul\":1594:1797   */\n      jump\n        /* \"backend/contracts/Campaign.sol\":778:803  string public description */\n    tag_7:\n      callvalue\n      dup1\n      iszero\n      tag_39\n      jumpi\n      0x00\n      dup1\n      revert\n    tag_39:\n      pop\n      tag_40\n      tag_41\n      jump\t// in\n    tag_40:\n      mload(0x40)\n      tag_17\n      swap2\n      swap1\n      tag_43\n      jump\t// in\n        /* \"backend/contracts/Campaign.sol\":593:629  uint256 public immutable fundingGoal */\n    tag_8:\n      callvalue\n      dup1\n      iszero\n      tag_44\n      jumpi\n      0x00\n      dup1\n      revert\n    tag_44:\n      pop\n      tag_15\n      immutable(\"0x1a192fabce13988b84994d4296e6cdc418d55e2f1d7f942188d4040b94fc57ac\")\n      dup2\n      jump\n        /* \"backend/contracts/Campaign.sol\":662:687  uint256 public totalFunds */\n    tag_9:\n      callvalue\n      dup1\n      iszero\n      tag_49\n      jumpi\n      0x00\n      dup1\n      revert\n    tag_49:\n      pop\n      tag_15\n      sload(0x01)\n      dup2\n      jump\n        /* \"backend/contracts/Campaign.sol\":7368:7460  function getDonors() external view returns (address[] memory) {... */\n    tag_10:\n      callvalue\n      dup1\n      iszero\n      tag_53\n      jumpi\n      0x00\n      dup1\n      revert\n    tag_53:\n      pop\n      tag_54\n      tag_55\n      jump\t// in\n    tag_54:\n      mload(0x40)\n      tag_17\n      swap2\n      swap1\n      tag_57\n      jump\t// in\n        /* \"backend/contracts/Campaign.sol\":5605:6455  function finalizeCampaign()... */\n    tag_11:\n      callvalue\n      dup1\n      iszero\n      tag_58\n      jumpi\n      0x00\n      dup1\n      revert\n    tag_58:\n      pop\n      tag_59\n      tag_60\n      jump\t// in\n    tag_59:\n      stop\n        /* \"backend/contracts/Campaign.sol\":4129:5381  function donate()... */\n    tag_12:\n      tag_59\n      tag_62\n      jump\t// in\n        /* \"backend/contracts/Campaign.sol\":7548:8194  function getCampaignDetails()... */\n    tag_21:\n        /* \"backend/contracts/Campaign.sol\":7638:7665  address campaignBeneficiary */\n      0x00\n        /* \"backend/contracts/Campaign.sol\":7679:7699  bytes32 campaignName */\n      dup1\n        /* \"backend/contracts/Campaign.sol\":7713:7746  string memory campaignDescription */\n      0x60\n        /* \"backend/contracts/Campaign.sol\":7760:7783  uint48 campaignDeadline */\n      0x00\n        /* \"backend/contracts/Campaign.sol\":7797:7824  uint256 campaignFundingGoal */\n      dup1\n        /* \"backend/contracts/Campaign.sol\":7838:7864  uint256 campaignTotalFunds */\n      0x00\n        /* \"backend/contracts/Campaign.sol\":7878:7899  bool campaignIsActive */\n      dup1\n        /* \"backend/contracts/Campaign.sol\":7946:7957  beneficiary */\n      immutable(\"0x13600b294191fc92924bb3ce4b969c1e7e2bab8f4c93c3fc6d0a51733df3c060\")\n        /* \"backend/contracts/Campaign.sol\":7924:7957  campaignBeneficiary = beneficiary */\n      swap7\n      pop\n        /* \"backend/contracts/Campaign.sol\":7982:7986  name */\n      immutable(\"0x5c4c6aa067b6f8e6cb38e6ab843832a94d1712d661a04d73c517d6a1931a9e5d\")\n        /* \"backend/contracts/Campaign.sol\":7967:7986  campaignName = name */\n      swap6\n      pop\n        /* \"backend/contracts/Campaign.sol\":8018:8029  description */\n      0x02\n        /* \"backend/contracts/Campaign.sol\":7996:8029  campaignDescription = description */\n      dup1\n      sload\n      tag_64\n      swap1\n      tag_65\n      jump\t// in\n    tag_64:\n      dup1\n      0x1f\n      add\n      0x20\n      dup1\n      swap2\n      div\n      mul\n      0x20\n      add\n      mload(0x40)\n      swap1\n      dup2\n      add\n      0x40\n      mstore\n      dup1\n      swap3\n      swap2\n      swap1\n      dup2\n      dup2\n      mstore\n      0x20\n      add\n      dup3\n      dup1\n      sload\n      tag_66\n      swap1\n      tag_65\n      jump\t// in\n    tag_66:\n      dup1\n      iszero\n      tag_67\n      jumpi\n      dup1\n      0x1f\n      lt\n      tag_68\n      jumpi\n      0x0100\n      dup1\n      dup4\n      sload\n      div\n      mul\n      dup4\n      mstore\n      swap2\n      0x20\n      add\n      swap2\n      jump(tag_67)\n    tag_68:\n      dup3\n      add\n      swap2\n      swap1\n      0x00\n      mstore\n      keccak256(0x00, 0x20)\n      swap1\n    tag_69:\n      dup2\n      sload\n      dup2\n      mstore\n      swap1\n      0x01\n      add\n      swap1\n      0x20\n      add\n      dup1\n      dup4\n      gt\n      tag_69\n      jumpi\n      dup3\n      swap1\n      sub\n      0x1f\n      and\n      dup3\n      add\n      swap2\n    tag_67:\n      pop\n      pop\n        /* \"backend/contracts/Campaign.sol\":8140:8150  totalFunds */\n      sload(0x01)\n        /* \"backend/contracts/Campaign.sol\":8179:8187  isActive */\n      sload(0x00)\n        /* \"backend/contracts/Campaign.sol\":7548:8194  function getCampaignDetails()... */\n      swap12\n      swap13\n      swap11\n      swap12\n        /* \"backend/contracts/Campaign.sol\":7996:8029  campaignDescription = description */\n      swap5\n      swap11\n        /* \"backend/contracts/Campaign.sol\":8058:8066  deadline */\n      immutable(\"0xe455bf8ea6e7463a1046a0b52804526e119b4bf5136279614e0b1e8e296a4e2d\")\n      swap11\n      pop\n        /* \"backend/contracts/Campaign.sol\":8098:8109  fundingGoal */\n      immutable(\"0x1a192fabce13988b84994d4296e6cdc418d55e2f1d7f942188d4040b94fc57ac\")\n      swap10\n      pop\n        /* \"backend/contracts/Campaign.sol\":8140:8150  totalFunds */\n      swap1\n      swap8\n      pop\n        /* \"backend/contracts/Campaign.sol\":8179:8187  isActive */\n      0xff\n      swap1\n      swap5\n      and\n      swap6\n      pop\n        /* \"backend/contracts/Campaign.sol\":7548:8194  function getCampaignDetails()... */\n      swap3\n      swap4\n      pop\n      pop\n      pop\n      pop\n      jump\t// out\n        /* \"backend/contracts/Campaign.sol\":778:803  string public description */\n    tag_41:\n      0x02\n      dup1\n      sload\n      tag_70\n      swap1\n      tag_65\n      jump\t// in\n    tag_70:\n      dup1\n      0x1f\n      add\n      0x20\n      dup1\n      swap2\n      div\n      mul\n      0x20\n      add\n      mload(0x40)\n      swap1\n      dup2\n      add\n      0x40\n      mstore\n      dup1\n      swap3\n      swap2\n      swap1\n      dup2\n      dup2\n      mstore\n      0x20\n      add\n      dup3\n      dup1\n      sload\n      tag_71\n      swap1\n      tag_65\n      jump\t// in\n    tag_71:\n      dup1\n      iszero\n      tag_72\n      jumpi\n      dup1\n      0x1f\n      lt\n      tag_73\n      jumpi\n      0x0100\n      dup1\n      dup4\n      sload\n      div\n      mul\n      dup4\n      mstore\n      swap2\n      0x20\n      add\n      swap2\n      jump(tag_72)\n    tag_73:\n      dup3\n      add\n      swap2\n      swap1\n      0x00\n      mstore\n      keccak256(0x00, 0x20)\n      swap1\n    tag_74:\n      dup2\n      sload\n      dup2\n      mstore\n      swap1\n      0x01\n      add\n      swap1\n      0x20\n      add\n      dup1\n      dup4\n      gt\n      tag_74\n      jumpi\n      dup3\n      swap1\n      sub\n      0x1f\n      and\n      dup3\n      add\n      swap2\n    tag_72:\n      pop\n      pop\n      pop\n      pop\n      pop\n      dup2\n      jump\t// out\n        /* \"backend/contracts/Campaign.sol\":7368:7460  function getDonors() external view returns (address[] memory) {... */\n    tag_55:\n        /* \"backend/contracts/Campaign.sol\":7412:7428  address[] memory */\n      0x60\n        /* \"backend/contracts/Campaign.sol\":7447:7453  donors */\n      0x04\n        /* \"backend/contracts/Campaign.sol\":7440:7453  return donors */\n      dup1\n      sload\n      dup1\n      0x20\n      mul\n      0x20\n      add\n      mload(0x40)\n      swap1\n      dup2\n      add\n      0x40\n      mstore\n      dup1\n      swap3\n      swap2\n      swap1\n      dup2\n      dup2\n      mstore\n      0x20\n      add\n      dup3\n      dup1\n      sload\n      dup1\n      iszero\n      tag_76\n      jumpi\n      0x20\n      mul\n      dup3\n      add\n      swap2\n      swap1\n      0x00\n      mstore\n      keccak256(0x00, 0x20)\n      swap1\n    tag_77:\n      dup2\n      sload\n      sub(shl(0xa0, 0x01), 0x01)\n      and\n      dup2\n      mstore\n      0x01\n      swap1\n      swap2\n      add\n      swap1\n      0x20\n      add\n      dup1\n      dup4\n      gt\n      tag_77\n      jumpi\n    tag_76:\n      pop\n      pop\n      pop\n      pop\n      pop\n      swap1\n      pop\n        /* \"backend/contracts/Campaign.sol\":7368:7460  function getDonors() external view returns (address[] memory) {... */\n      swap1\n      jump\t// out\n        /* \"backend/contracts/Campaign.sol\":5605:6455  function finalizeCampaign()... */\n    tag_60:\n        /* \"backend/contracts/Campaign.sol\":3367:3375  isActive */\n      and(0xff, sload(0x00))\n        /* \"backend/contracts/Campaign.sol\":3359:3397  require(isActive, \"Inactive Campaign\") */\n      tag_79\n      jumpi\n      mload(0x40)\n      shl(0xe5, 0x461bcd)\n      dup2\n      mstore\n        /* \"#utility.yul\":3438:3440   */\n      0x20\n        /* \"backend/contracts/Campaign.sol\":3359:3397  require(isActive, \"Inactive Campaign\") */\n      0x04\n      dup3\n      add\n        /* \"#utility.yul\":3420:3441   */\n      mstore\n        /* \"#utility.yul\":3477:3479   */\n      0x11\n        /* \"#utility.yul\":3457:3475   */\n      0x24\n      dup3\n      add\n        /* \"#utility.yul\":3450:3480   */\n      mstore\n      shl(0x79, 0x24b730b1ba34bb329021b0b6b830b4b3b7)\n        /* \"#utility.yul\":3496:3514   */\n      0x44\n      dup3\n      add\n        /* \"#utility.yul\":3489:3536   */\n      mstore\n        /* \"#utility.yul\":3553:3571   */\n      0x64\n      add\n        /* \"backend/contracts/Campaign.sol\":3359:3397  require(isActive, \"Inactive Campaign\") */\n    tag_80:\n      mload(0x40)\n      dup1\n      swap2\n      sub\n      swap1\n      revert\n    tag_79:\n        /* \"backend/contracts/Campaign.sol\":3480:3488  deadline */\n      immutable(\"0xe455bf8ea6e7463a1046a0b52804526e119b4bf5136279614e0b1e8e296a4e2d\")\n        /* \"backend/contracts/Campaign.sol\":3462:3488  block.timestamp > deadline */\n      0xffffffffffff\n      and\n        /* \"backend/contracts/Campaign.sol\":3462:3477  block.timestamp */\n      timestamp\n        /* \"backend/contracts/Campaign.sol\":3462:3488  block.timestamp > deadline */\n      gt\n        /* \"backend/contracts/Campaign.sol\":3462:3517  block.timestamp > deadline || totalFunds >= fundingGoal */\n      dup1\n      tag_83\n      jumpi\n      pop\n        /* \"backend/contracts/Campaign.sol\":3506:3517  fundingGoal */\n      immutable(\"0x1a192fabce13988b84994d4296e6cdc418d55e2f1d7f942188d4040b94fc57ac\")\n        /* \"backend/contracts/Campaign.sol\":3492:3502  totalFunds */\n      sload(0x01)\n        /* \"backend/contracts/Campaign.sol\":3492:3517  totalFunds >= fundingGoal */\n      lt\n      iszero\n        /* \"backend/contracts/Campaign.sol\":3462:3517  block.timestamp > deadline || totalFunds >= fundingGoal */\n    tag_83:\n        /* \"backend/contracts/Campaign.sol\":3454:3537  require(block.timestamp > deadline || totalFunds >= fundingGoal, \"Cannof finalize\") */\n      tag_84\n      jumpi\n      mload(0x40)\n      shl(0xe5, 0x461bcd)\n      dup2\n      mstore\n        /* \"#utility.yul\":3784:3786   */\n      0x20\n        /* \"backend/contracts/Campaign.sol\":3454:3537  require(block.timestamp > deadline || totalFunds >= fundingGoal, \"Cannof finalize\") */\n      0x04\n      dup3\n      add\n        /* \"#utility.yul\":3766:3787   */\n      mstore\n        /* \"#utility.yul\":3823:3825   */\n      0x0f\n        /* \"#utility.yul\":3803:3821   */\n      0x24\n      dup3\n      add\n        /* \"#utility.yul\":3796:3826   */\n      mstore\n      shl(0x88, 0x43616e6e6f662066696e616c697a65)\n        /* \"#utility.yul\":3842:3860   */\n      0x44\n      dup3\n      add\n        /* \"#utility.yul\":3835:3880   */\n      mstore\n        /* \"#utility.yul\":3897:3915   */\n      0x64\n      add\n        /* \"backend/contracts/Campaign.sol\":3454:3537  require(block.timestamp > deadline || totalFunds >= fundingGoal, \"Cannof finalize\") */\n      tag_80\n        /* \"#utility.yul\":3582:3921   */\n      jump\n        /* \"backend/contracts/Campaign.sol\":3454:3537  require(block.timestamp > deadline || totalFunds >= fundingGoal, \"Cannof finalize\") */\n    tag_84:\n        /* \"backend/contracts/Campaign.sol\":3138:3148  msg.sender */\n      caller\n      sub(shl(0xa0, 0x01), 0x01)\n        /* \"backend/contracts/Campaign.sol\":3152:3163  beneficiary */\n      immutable(\"0x13600b294191fc92924bb3ce4b969c1e7e2bab8f4c93c3fc6d0a51733df3c060\")\n        /* \"backend/contracts/Campaign.sol\":3138:3163  msg.sender == beneficiary */\n      and\n      eq\n        /* \"backend/contracts/Campaign.sol\":3130:3183  require(msg.sender == beneficiary, \"Not beneficiary\") */\n      tag_88\n      jumpi\n      mload(0x40)\n      shl(0xe5, 0x461bcd)\n      dup2\n      mstore\n        /* \"#utility.yul\":4128:4130   */\n      0x20\n        /* \"backend/contracts/Campaign.sol\":3130:3183  require(msg.sender == beneficiary, \"Not beneficiary\") */\n      0x04\n      dup3\n      add\n        /* \"#utility.yul\":4110:4131   */\n      mstore\n        /* \"#utility.yul\":4167:4169   */\n      0x0f\n        /* \"#utility.yul\":4147:4165   */\n      0x24\n      dup3\n      add\n        /* \"#utility.yul\":4140:4170   */\n      mstore\n      shl(0x88, 0x4e6f742062656e6566696369617279)\n        /* \"#utility.yul\":4186:4204   */\n      0x44\n      dup3\n      add\n        /* \"#utility.yul\":4179:4224   */\n      mstore\n        /* \"#utility.yul\":4241:4259   */\n      0x64\n      add\n        /* \"backend/contracts/Campaign.sol\":3130:3183  require(msg.sender == beneficiary, \"Not beneficiary\") */\n      tag_80\n        /* \"#utility.yul\":3926:4265   */\n      jump\n        /* \"backend/contracts/Campaign.sol\":3130:3183  require(msg.sender == beneficiary, \"Not beneficiary\") */\n    tag_88:\n        /* \"backend/contracts/Campaign.sol\":5751:5762  fundingGoal */\n      immutable(\"0x1a192fabce13988b84994d4296e6cdc418d55e2f1d7f942188d4040b94fc57ac\")\n        /* \"backend/contracts/Campaign.sol\":5737:5747  totalFunds */\n      sload(0x01)\n        /* \"backend/contracts/Campaign.sol\":5737:5762  totalFunds >= fundingGoal */\n      lt\n        /* \"backend/contracts/Campaign.sol\":5733:6449  if (totalFunds >= fundingGoal) {... */\n      tag_92\n      jumpi\n        /* \"backend/contracts/Campaign.sol\":5778:5792  releaseFunds() */\n      tag_93\n        /* \"backend/contracts/Campaign.sol\":5778:5790  releaseFunds */\n      tag_94\n        /* \"backend/contracts/Campaign.sol\":5778:5792  releaseFunds() */\n      jump\t// in\n    tag_93:\n        /* \"backend/contracts/Campaign.sol\":5605:6455  function finalizeCampaign()... */\n      jump\t// out\n        /* \"backend/contracts/Campaign.sol\":5733:6449  if (totalFunds >= fundingGoal) {... */\n    tag_92:\n        /* \"backend/contracts/Campaign.sol\":5834:5839  false */\n      0x00\n        /* \"backend/contracts/Campaign.sol\":5823:5839  isActive = false */\n      dup1\n      sload\n      not(0xff)\n      and\n      dup2\n      sstore\n        /* \"backend/contracts/Campaign.sol\":5950:6370  for (uint256 i = 0; i < donors.length; i++) {... */\n    tag_96:\n        /* \"backend/contracts/Campaign.sol\":5974:5980  donors */\n      0x04\n        /* \"backend/contracts/Campaign.sol\":5974:5987  donors.length */\n      sload\n        /* \"backend/contracts/Campaign.sol\":5970:5987  i < donors.length */\n      dup2\n      lt\n        /* \"backend/contracts/Campaign.sol\":5950:6370  for (uint256 i = 0; i < donors.length; i++) {... */\n      iszero\n      tag_97\n      jumpi\n        /* \"backend/contracts/Campaign.sol\":6012:6025  address donor */\n      0x00\n        /* \"backend/contracts/Campaign.sol\":6028:6034  donors */\n      0x04\n        /* \"backend/contracts/Campaign.sol\":6035:6036  i */\n      dup3\n        /* \"backend/contracts/Campaign.sol\":6028:6037  donors[i] */\n      dup2\n      sload\n      dup2\n      lt\n      tag_100\n      jumpi\n      tag_100\n      tag_101\n      jump\t// in\n    tag_100:\n      0x00\n      swap2\n      dup3\n      mstore\n      0x20\n      dup1\n      dup4\n      keccak256\n      swap1\n      swap2\n      add\n      sload\n      sub(shl(0xa0, 0x01), 0x01)\n      and\n        /* \"backend/contracts/Campaign.sol\":6080:6096  donations[donor] */\n      dup1\n      dup4\n      mstore\n        /* \"backend/contracts/Campaign.sol\":6080:6089  donations */\n      0x03\n        /* \"backend/contracts/Campaign.sol\":6080:6096  donations[donor] */\n      swap1\n      swap2\n      mstore\n      0x40\n      swap1\n      swap2\n      keccak256\n      sload\n        /* \"backend/contracts/Campaign.sol\":6028:6037  donors[i] */\n      swap1\n      swap2\n      pop\n        /* \"backend/contracts/Campaign.sol\":6119:6137  donationAmount > 0 */\n      dup1\n      iszero\n        /* \"backend/contracts/Campaign.sol\":6115:6356  if (donationAmount > 0) {... */\n      tag_103\n      jumpi\n      sub(shl(0xa0, 0x01), 0x01)\n        /* \"backend/contracts/Campaign.sol\":6168:6184  donations[donor] */\n      dup3\n      and\n      0x00\n      dup2\n      dup2\n      mstore\n        /* \"backend/contracts/Campaign.sol\":6168:6177  donations */\n      0x03\n        /* \"backend/contracts/Campaign.sol\":6168:6184  donations[donor] */\n      0x20\n      mstore\n      0x40\n      dup1\n      dup3\n      keccak256\n        /* \"backend/contracts/Campaign.sol\":6161:6184  delete donations[donor] */\n      dup3\n      swap1\n      sstore\n        /* \"backend/contracts/Campaign.sol\":6235:6274  payable(donor).transfer(donationAmount) */\n      mload\n      dup4\n      iszero\n      0x08fc\n      mul\n      swap2\n        /* \"backend/contracts/Campaign.sol\":6259:6273  donationAmount */\n      dup5\n      swap2\n        /* \"backend/contracts/Campaign.sol\":6235:6274  payable(donor).transfer(donationAmount) */\n      swap1\n      dup2\n        /* \"backend/contracts/Campaign.sol\":6168:6184  donations[donor] */\n      dup2\n        /* \"backend/contracts/Campaign.sol\":6235:6274  payable(donor).transfer(donationAmount) */\n      dup2\n        /* \"backend/contracts/Campaign.sol\":6259:6273  donationAmount */\n      dup6\n        /* \"backend/contracts/Campaign.sol\":6168:6184  donations[donor] */\n      dup9\n        /* \"backend/contracts/Campaign.sol\":6235:6274  payable(donor).transfer(donationAmount) */\n      dup9\n      call\n      swap4\n      pop\n      pop\n      pop\n      pop\n      iszero\n      dup1\n      iszero\n      tag_105\n      jumpi\n      returndatasize\n      0x00\n      dup1\n      returndatacopy\n      revert(0x00, returndatasize)\n    tag_105:\n      pop\n        /* \"backend/contracts/Campaign.sol\":6315:6320  donor */\n      dup2\n      sub(shl(0xa0, 0x01), 0x01)\n        /* \"backend/contracts/Campaign.sol\":6302:6337  RefundIssued(donor, donationAmount) */\n      and\n      0xa171b6942063c6f2800ce40a780edce37baa2b618571b11eedd1e69e626e7d76\n        /* \"backend/contracts/Campaign.sol\":6322:6336  donationAmount */\n      dup3\n        /* \"backend/contracts/Campaign.sol\":6302:6337  RefundIssued(donor, donationAmount) */\n      mload(0x40)\n      tag_106\n      swap2\n        /* \"#utility.yul\":160:185   */\n      dup2\n      mstore\n        /* \"#utility.yul\":148:150   */\n      0x20\n        /* \"#utility.yul\":133:151   */\n      add\n      swap1\n        /* \"#utility.yul\":14:191   */\n      jump\n        /* \"backend/contracts/Campaign.sol\":6302:6337  RefundIssued(donor, donationAmount) */\n    tag_106:\n      mload(0x40)\n      dup1\n      swap2\n      sub\n      swap1\n      log2\n        /* \"backend/contracts/Campaign.sol\":6115:6356  if (donationAmount > 0) {... */\n    tag_103:\n      pop\n      pop\n        /* \"backend/contracts/Campaign.sol\":5989:5992  i++ */\n      0x01\n      add\n        /* \"backend/contracts/Campaign.sol\":5950:6370  for (uint256 i = 0; i < donors.length; i++) {... */\n      jump(tag_96)\n    tag_97:\n      pop\n        /* \"backend/contracts/Campaign.sol\":6427:6437  totalFunds */\n      sload(0x01)\n        /* \"backend/contracts/Campaign.sol\":6389:6438  CampaignFinalized(beneficiary, false, totalFunds) */\n      0x40\n      dup1\n      mload\n        /* \"backend/contracts/Campaign.sol\":6420:6425  false */\n      0x00\n        /* \"#utility.yul\":4570:4611   */\n      dup2\n      mstore\n        /* \"#utility.yul\":4642:4644   */\n      0x20\n        /* \"#utility.yul\":4627:4645   */\n      dup2\n      add\n        /* \"#utility.yul\":4620:4654   */\n      swap3\n      swap1\n      swap3\n      mstore\n      sub(shl(0xa0, 0x01), 0x01)\n        /* \"backend/contracts/Campaign.sol\":6407:6418  beneficiary */\n      immutable(\"0x13600b294191fc92924bb3ce4b969c1e7e2bab8f4c93c3fc6d0a51733df3c060\")\n        /* \"backend/contracts/Campaign.sol\":6389:6438  CampaignFinalized(beneficiary, false, totalFunds) */\n      and\n      swap2\n      0x712d35f4bf4c7422ae5b3996c20cc32903765397cd70e33a25294baf8c89dc80\n      swap2\n        /* \"#utility.yul\":4543:4561   */\n      add\n        /* \"backend/contracts/Campaign.sol\":6389:6438  CampaignFinalized(beneficiary, false, totalFunds) */\n      mload(0x40)\n      dup1\n      swap2\n      sub\n      swap1\n      log2\n        /* \"backend/contracts/Campaign.sol\":5605:6455  function finalizeCampaign()... */\n      jump\t// out\n        /* \"backend/contracts/Campaign.sol\":4129:5381  function donate()... */\n    tag_62:\n        /* \"backend/contracts/Campaign.sol\":3624:3632  deadline */\n      immutable(\"0xe455bf8ea6e7463a1046a0b52804526e119b4bf5136279614e0b1e8e296a4e2d\")\n        /* \"backend/contracts/Campaign.sol\":3605:3632  block.timestamp <= deadline */\n      0xffffffffffff\n      and\n        /* \"backend/contracts/Campaign.sol\":3605:3620  block.timestamp */\n      timestamp\n        /* \"backend/contracts/Campaign.sol\":3605:3632  block.timestamp <= deadline */\n      gt\n      iszero\n        /* \"backend/contracts/Campaign.sol\":3597:3654  require(block.timestamp <= deadline, \"Deadline exceeded\") */\n      tag_110\n      jumpi\n      mload(0x40)\n      shl(0xe5, 0x461bcd)\n      dup2\n      mstore\n        /* \"#utility.yul\":4867:4869   */\n      0x20\n        /* \"backend/contracts/Campaign.sol\":3597:3654  require(block.timestamp <= deadline, \"Deadline exceeded\") */\n      0x04\n      dup3\n      add\n        /* \"#utility.yul\":4849:4870   */\n      mstore\n        /* \"#utility.yul\":4906:4908   */\n      0x11\n        /* \"#utility.yul\":4886:4904   */\n      0x24\n      dup3\n      add\n        /* \"#utility.yul\":4879:4909   */\n      mstore\n      shl(0x7a, 0x111958591b1a5b9948195e18d959591959)\n        /* \"#utility.yul\":4925:4943   */\n      0x44\n      dup3\n      add\n        /* \"#utility.yul\":4918:4965   */\n      mstore\n        /* \"#utility.yul\":4982:5000   */\n      0x64\n      add\n        /* \"backend/contracts/Campaign.sol\":3597:3654  require(block.timestamp <= deadline, \"Deadline exceeded\") */\n      tag_80\n        /* \"#utility.yul\":4665:5006   */\n      jump\n        /* \"backend/contracts/Campaign.sol\":3597:3654  require(block.timestamp <= deadline, \"Deadline exceeded\") */\n    tag_110:\n        /* \"backend/contracts/Campaign.sol\":3367:3375  isActive */\n      and(0xff, sload(0x00))\n        /* \"backend/contracts/Campaign.sol\":3359:3397  require(isActive, \"Inactive Campaign\") */\n      tag_114\n      jumpi\n      mload(0x40)\n      shl(0xe5, 0x461bcd)\n      dup2\n      mstore\n        /* \"#utility.yul\":3438:3440   */\n      0x20\n        /* \"backend/contracts/Campaign.sol\":3359:3397  require(isActive, \"Inactive Campaign\") */\n      0x04\n      dup3\n      add\n        /* \"#utility.yul\":3420:3441   */\n      mstore\n        /* \"#utility.yul\":3477:3479   */\n      0x11\n        /* \"#utility.yul\":3457:3475   */\n      0x24\n      dup3\n      add\n        /* \"#utility.yul\":3450:3480   */\n      mstore\n      shl(0x79, 0x24b730b1ba34bb329021b0b6b830b4b3b7)\n        /* \"#utility.yul\":3496:3514   */\n      0x44\n      dup3\n      add\n        /* \"#utility.yul\":3489:3536   */\n      mstore\n        /* \"#utility.yul\":3553:3571   */\n      0x64\n      add\n        /* \"backend/contracts/Campaign.sol\":3359:3397  require(isActive, \"Inactive Campaign\") */\n      tag_80\n        /* \"#utility.yul\":3236:3577   */\n      jump\n        /* \"backend/contracts/Campaign.sol\":3359:3397  require(isActive, \"Inactive Campaign\") */\n    tag_114:\n        /* \"backend/contracts/Campaign.sol\":3738:3749  fundingGoal */\n      immutable(\"0x1a192fabce13988b84994d4296e6cdc418d55e2f1d7f942188d4040b94fc57ac\")\n        /* \"backend/contracts/Campaign.sol\":3725:3735  totalFunds */\n      sload(0x01)\n        /* \"backend/contracts/Campaign.sol\":3725:3749  totalFunds < fundingGoal */\n      lt\n        /* \"backend/contracts/Campaign.sol\":3717:3770  require(totalFunds < fundingGoal, \"Funding goal met\") */\n      tag_117\n      jumpi\n      mload(0x40)\n      shl(0xe5, 0x461bcd)\n      dup2\n      mstore\n        /* \"#utility.yul\":5213:5215   */\n      0x20\n        /* \"backend/contracts/Campaign.sol\":3717:3770  require(totalFunds < fundingGoal, \"Funding goal met\") */\n      0x04\n      dup3\n      add\n        /* \"#utility.yul\":5195:5216   */\n      mstore\n        /* \"#utility.yul\":5252:5254   */\n      0x10\n        /* \"#utility.yul\":5232:5250   */\n      0x24\n      dup3\n      add\n        /* \"#utility.yul\":5225:5255   */\n      mstore\n      shl(0x82, 0x119d5b991a5b99c819dbd85b081b595d)\n        /* \"#utility.yul\":5271:5289   */\n      0x44\n      dup3\n      add\n        /* \"#utility.yul\":5264:5310   */\n      mstore\n        /* \"#utility.yul\":5327:5345   */\n      0x64\n      add\n        /* \"backend/contracts/Campaign.sol\":3717:3770  require(totalFunds < fundingGoal, \"Funding goal met\") */\n      tag_80\n        /* \"#utility.yul\":5011:5351   */\n      jump\n        /* \"backend/contracts/Campaign.sol\":3717:3770  require(totalFunds < fundingGoal, \"Funding goal met\") */\n    tag_117:\n      sub(shl(0xa0, 0x01), 0x01)\n        /* \"backend/contracts/Campaign.sol\":3265:3276  beneficiary */\n      immutable(\"0x13600b294191fc92924bb3ce4b969c1e7e2bab8f4c93c3fc6d0a51733df3c060\")\n        /* \"backend/contracts/Campaign.sol\":3251:3276  msg.sender != beneficiary */\n      and\n        /* \"backend/contracts/Campaign.sol\":3251:3261  msg.sender */\n      caller\n        /* \"backend/contracts/Campaign.sol\":3251:3276  msg.sender != beneficiary */\n      sub\n        /* \"backend/contracts/Campaign.sol\":3243:3297  require(msg.sender != beneficiary, \"Beneficiary only\") */\n      tag_121\n      jumpi\n      mload(0x40)\n      shl(0xe5, 0x461bcd)\n      dup2\n      mstore\n        /* \"#utility.yul\":5558:5560   */\n      0x20\n        /* \"backend/contracts/Campaign.sol\":3243:3297  require(msg.sender != beneficiary, \"Beneficiary only\") */\n      0x04\n      dup3\n      add\n        /* \"#utility.yul\":5540:5561   */\n      mstore\n        /* \"#utility.yul\":5597:5599   */\n      0x10\n        /* \"#utility.yul\":5577:5595   */\n      0x24\n      dup3\n      add\n        /* \"#utility.yul\":5570:5600   */\n      mstore\n      shl(0x80, 0x42656e6566696369617279206f6e6c79)\n        /* \"#utility.yul\":5616:5634   */\n      0x44\n      dup3\n      add\n        /* \"#utility.yul\":5609:5655   */\n      mstore\n        /* \"#utility.yul\":5672:5690   */\n      0x64\n      add\n        /* \"backend/contracts/Campaign.sol\":3243:3297  require(msg.sender != beneficiary, \"Beneficiary only\") */\n      tag_80\n        /* \"#utility.yul\":5356:5696   */\n      jump\n        /* \"backend/contracts/Campaign.sol\":3243:3297  require(msg.sender != beneficiary, \"Beneficiary only\") */\n    tag_121:\n        /* \"backend/contracts/Campaign.sol\":3926:3932  donors */\n      0x04\n        /* \"backend/contracts/Campaign.sol\":3926:3939  donors.length */\n      sload\n        /* \"backend/contracts/Campaign.sol\":3942:3944  50 */\n      0x32\n      gt\n        /* \"backend/contracts/Campaign.sol\":3918:3964  require(donors.length < 50, \"Too many donors\") */\n      tag_125\n      jumpi\n      mload(0x40)\n      shl(0xe5, 0x461bcd)\n      dup2\n      mstore\n        /* \"#utility.yul\":5903:5905   */\n      0x20\n        /* \"backend/contracts/Campaign.sol\":3918:3964  require(donors.length < 50, \"Too many donors\") */\n      0x04\n      dup3\n      add\n        /* \"#utility.yul\":5885:5906   */\n      mstore\n        /* \"#utility.yul\":5942:5944   */\n      0x0f\n        /* \"#utility.yul\":5922:5940   */\n      0x24\n      dup3\n      add\n        /* \"#utility.yul\":5915:5945   */\n      mstore\n      shl(0x88, 0x546f6f206d616e7920646f6e6f7273)\n        /* \"#utility.yul\":5961:5979   */\n      0x44\n      dup3\n      add\n        /* \"#utility.yul\":5954:5999   */\n      mstore\n        /* \"#utility.yul\":6016:6034   */\n      0x64\n      add\n        /* \"backend/contracts/Campaign.sol\":3918:3964  require(donors.length < 50, \"Too many donors\") */\n      tag_80\n        /* \"#utility.yul\":5701:6040   */\n      jump\n        /* \"backend/contracts/Campaign.sol\":3918:3964  require(donors.length < 50, \"Too many donors\") */\n    tag_125:\n        /* \"backend/contracts/Campaign.sol\":4570:4580  msg.sender */\n      caller\n        /* \"backend/contracts/Campaign.sol\":4554:4567  address donor */\n      0x00\n        /* \"backend/contracts/Campaign.sol\":4702:4718  donations[donor] */\n      dup2\n      dup2\n      mstore\n        /* \"backend/contracts/Campaign.sol\":4702:4711  donations */\n      0x03\n        /* \"backend/contracts/Campaign.sol\":4702:4718  donations[donor] */\n      0x20\n      mstore\n      0x40\n      dup2\n      keccak256\n      sload\n        /* \"backend/contracts/Campaign.sol\":4615:4624  msg.value */\n      callvalue\n      swap2\n        /* \"backend/contracts/Campaign.sol\":4702:4723  donations[donor] == 0 */\n      sub\n        /* \"backend/contracts/Campaign.sol\":4698:4768  if (donations[donor] == 0) {... */\n      tag_129\n      jumpi\n        /* \"backend/contracts/Campaign.sol\":4739:4745  donors */\n      0x04\n        /* \"backend/contracts/Campaign.sol\":4739:4757  donors.push(donor) */\n      dup1\n      sload\n      0x01\n      dup2\n      add\n      dup3\n      sstore\n      0x00\n      swap2\n      swap1\n      swap2\n      mstore\n      0x8a35acfbc15ff81a39ae7d344fd709f28e8600b4aa8c65c6b64bfe7fe36bd19b\n      add\n      dup1\n      sload\n      not(sub(shl(0xa0, 0x01), 0x01))\n      and\n      sub(shl(0xa0, 0x01), 0x01)\n      dup5\n      and\n      or\n      swap1\n      sstore\n        /* \"backend/contracts/Campaign.sol\":4698:4768  if (donations[donor] == 0) {... */\n    tag_129:\n      sub(shl(0xa0, 0x01), 0x01)\n        /* \"backend/contracts/Campaign.sol\":4778:4794  donations[donor] */\n      dup3\n      and\n      0x00\n      swap1\n      dup2\n      mstore\n        /* \"backend/contracts/Campaign.sol\":4778:4787  donations */\n      0x03\n        /* \"backend/contracts/Campaign.sol\":4778:4794  donations[donor] */\n      0x20\n      mstore\n      0x40\n      dup2\n      keccak256\n        /* \"backend/contracts/Campaign.sol\":4778:4804  donations[donor] += amount */\n      dup1\n      sload\n        /* \"backend/contracts/Campaign.sol\":4798:4804  amount */\n      dup4\n      swap3\n        /* \"backend/contracts/Campaign.sol\":4778:4794  donations[donor] */\n      swap1\n        /* \"backend/contracts/Campaign.sol\":4778:4804  donations[donor] += amount */\n      tag_131\n      swap1\n        /* \"backend/contracts/Campaign.sol\":4798:4804  amount */\n      dup5\n      swap1\n        /* \"backend/contracts/Campaign.sol\":4778:4804  donations[donor] += amount */\n      tag_132\n      jump\t// in\n    tag_131:\n      swap1\n      swap2\n      sstore\n      pop\n      pop\n        /* \"backend/contracts/Campaign.sol\":4967:4977  totalFunds */\n      sload(0x01)\n        /* \"backend/contracts/Campaign.sol\":4943:4964  uint256 newTotalFunds */\n      0x00\n      swap1\n        /* \"backend/contracts/Campaign.sol\":4967:4986  totalFunds + amount */\n      tag_133\n      swap1\n        /* \"backend/contracts/Campaign.sol\":4980:4986  amount */\n      dup4\n      swap1\n        /* \"backend/contracts/Campaign.sol\":4967:4986  totalFunds + amount */\n      tag_132\n      jump\t// in\n    tag_133:\n        /* \"backend/contracts/Campaign.sol\":4996:5006  totalFunds */\n      0x01\n        /* \"backend/contracts/Campaign.sol\":4996:5022  totalFunds = newTotalFunds */\n      dup2\n      swap1\n      sstore\n        /* \"backend/contracts/Campaign.sol\":5038:5058  DonationMade(amount) */\n      mload(0x40)\n        /* \"#utility.yul\":160:185   */\n      dup4\n      dup2\n      mstore\n        /* \"backend/contracts/Campaign.sol\":4943:4986  uint256 newTotalFunds = totalFunds + amount */\n      swap1\n      swap2\n      pop\n        /* \"backend/contracts/Campaign.sol\":5038:5058  DonationMade(amount) */\n      0xeb3301a94d74dc3ee739ec081ebeaf60c5e72b48aef0402c21c9f049f84c9622\n      swap1\n        /* \"#utility.yul\":148:150   */\n      0x20\n        /* \"#utility.yul\":133:151   */\n      add\n        /* \"backend/contracts/Campaign.sol\":5038:5058  DonationMade(amount) */\n      mload(0x40)\n      dup1\n      swap2\n      sub\n      swap1\n      log1\n        /* \"backend/contracts/Campaign.sol\":5316:5327  fundingGoal */\n      immutable(\"0x1a192fabce13988b84994d4296e6cdc418d55e2f1d7f942188d4040b94fc57ac\")\n        /* \"backend/contracts/Campaign.sol\":5299:5312  newTotalFunds */\n      dup2\n        /* \"backend/contracts/Campaign.sol\":5299:5327  newTotalFunds >= fundingGoal */\n      lt\n        /* \"backend/contracts/Campaign.sol\":5295:5375  if (newTotalFunds >= fundingGoal) {... */\n      tag_135\n      jumpi\n        /* \"backend/contracts/Campaign.sol\":5348:5364  FundingGoalMet() */\n      mload(0x40)\n      0x7efee204be5df5d59d7f2294f7f2776f836d145d72998af64b6dcbbd898e7bf6\n      swap1\n      0x00\n      swap1\n      log1\n        /* \"backend/contracts/Campaign.sol\":5295:5375  if (newTotalFunds >= fundingGoal) {... */\n    tag_135:\n        /* \"backend/contracts/Campaign.sol\":4544:5381  {... */\n      pop\n      pop\n      pop\n        /* \"backend/contracts/Campaign.sol\":4129:5381  function donate()... */\n      jump\t// out\n        /* \"backend/contracts/Campaign.sol\":6822:7175  function releaseFunds() private {... */\n    tag_94:\n        /* \"backend/contracts/Campaign.sol\":6889:6899  totalFunds */\n      0x01\n      dup1\n      sload\n        /* \"backend/contracts/Campaign.sol\":6864:6886  uint256 fundsToRelease */\n      0x00\n        /* \"backend/contracts/Campaign.sol\":6909:6925  isActive = false */\n      dup1\n      sload\n      not(0xff)\n      and\n      dup2\n      sstore\n        /* \"backend/contracts/Campaign.sol\":6935:6952  delete totalFunds */\n      swap2\n      dup3\n      swap1\n      sstore\n        /* \"backend/contracts/Campaign.sol\":7055:7100  payable(beneficiary).transfer(fundsToRelease) */\n      mload(0x40)\n        /* \"backend/contracts/Campaign.sol\":6889:6899  totalFunds */\n      swap1\n      swap2\n      sub(shl(0xa0, 0x01), 0x01)\n        /* \"backend/contracts/Campaign.sol\":7063:7074  beneficiary */\n      immutable(\"0x13600b294191fc92924bb3ce4b969c1e7e2bab8f4c93c3fc6d0a51733df3c060\")\n        /* \"backend/contracts/Campaign.sol\":7055:7084  payable(beneficiary).transfer */\n      and\n      swap2\n        /* \"backend/contracts/Campaign.sol\":7055:7100  payable(beneficiary).transfer(fundsToRelease) */\n      dup4\n      iszero\n      0x08fc\n      mul\n      swap2\n        /* \"backend/contracts/Campaign.sol\":6889:6899  totalFunds */\n      dup5\n      swap2\n        /* \"backend/contracts/Campaign.sol\":7055:7100  payable(beneficiary).transfer(fundsToRelease) */\n      swap1\n      dup2\n        /* \"backend/contracts/Campaign.sol\":6864:6886  uint256 fundsToRelease */\n      dup2\n        /* \"backend/contracts/Campaign.sol\":7055:7100  payable(beneficiary).transfer(fundsToRelease) */\n      dup2\n        /* \"backend/contracts/Campaign.sol\":6889:6899  totalFunds */\n      dup6\n        /* \"backend/contracts/Campaign.sol\":7055:7084  payable(beneficiary).transfer */\n      dup9\n        /* \"backend/contracts/Campaign.sol\":7055:7100  payable(beneficiary).transfer(fundsToRelease) */\n      dup9\n      call\n      swap4\n      pop\n      pop\n      pop\n      pop\n      iszero\n      dup1\n      iszero\n      tag_138\n      jumpi\n      returndatasize\n      0x00\n      dup1\n      returndatacopy\n      revert(0x00, returndatasize)\n    tag_138:\n      pop\n        /* \"backend/contracts/Campaign.sol\":7116:7168  CampaignFinalized(beneficiary, true, fundsToRelease) */\n      0x40\n      dup1\n      mload\n        /* \"backend/contracts/Campaign.sol\":7147:7151  true */\n      0x01\n        /* \"#utility.yul\":4570:4611   */\n      dup2\n      mstore\n        /* \"#utility.yul\":4642:4644   */\n      0x20\n        /* \"#utility.yul\":4627:4645   */\n      dup2\n      add\n        /* \"#utility.yul\":4620:4654   */\n      dup4\n      swap1\n      mstore\n      sub(shl(0xa0, 0x01), 0x01)\n        /* \"backend/contracts/Campaign.sol\":7134:7145  beneficiary */\n      immutable(\"0x13600b294191fc92924bb3ce4b969c1e7e2bab8f4c93c3fc6d0a51733df3c060\")\n        /* \"backend/contracts/Campaign.sol\":7116:7168  CampaignFinalized(beneficiary, true, fundsToRelease) */\n      and\n      swap2\n      0x712d35f4bf4c7422ae5b3996c20cc32903765397cd70e33a25294baf8c89dc80\n      swap2\n        /* \"#utility.yul\":4543:4561   */\n      add\n        /* \"backend/contracts/Campaign.sol\":7116:7168  CampaignFinalized(beneficiary, true, fundsToRelease) */\n      mload(0x40)\n      dup1\n      swap2\n      sub\n      swap1\n      log2\n        /* \"backend/contracts/Campaign.sol\":6854:7175  {... */\n      pop\n        /* \"backend/contracts/Campaign.sol\":6822:7175  function releaseFunds() private {... */\n      jump\t// out\n        /* \"#utility.yul\":196:485   */\n    tag_140:\n        /* \"#utility.yul\":238:241   */\n      0x00\n        /* \"#utility.yul\":276:281   */\n      dup2\n        /* \"#utility.yul\":270:282   */\n      mload\n        /* \"#utility.yul\":303:309   */\n      dup1\n        /* \"#utility.yul\":298:301   */\n      dup5\n        /* \"#utility.yul\":291:310   */\n      mstore\n        /* \"#utility.yul\":359:365   */\n      dup1\n        /* \"#utility.yul\":352:356   */\n      0x20\n        /* \"#utility.yul\":345:350   */\n      dup5\n        /* \"#utility.yul\":341:357   */\n      add\n        /* \"#utility.yul\":334:338   */\n      0x20\n        /* \"#utility.yul\":329:332   */\n      dup7\n        /* \"#utility.yul\":325:339   */\n      add\n        /* \"#utility.yul\":319:366   */\n      mcopy\n        /* \"#utility.yul\":411:412   */\n      0x00\n        /* \"#utility.yul\":404:408   */\n      0x20\n        /* \"#utility.yul\":395:401   */\n      dup3\n        /* \"#utility.yul\":390:393   */\n      dup7\n        /* \"#utility.yul\":386:402   */\n      add\n        /* \"#utility.yul\":382:409   */\n      add\n        /* \"#utility.yul\":375:413   */\n      mstore\n        /* \"#utility.yul\":474:478   */\n      0x20\n        /* \"#utility.yul\":467:469   */\n      0x1f\n        /* \"#utility.yul\":463:470   */\n      not\n        /* \"#utility.yul\":458:460   */\n      0x1f\n        /* \"#utility.yul\":450:456   */\n      dup4\n        /* \"#utility.yul\":446:461   */\n      add\n        /* \"#utility.yul\":442:471   */\n      and\n        /* \"#utility.yul\":437:440   */\n      dup6\n        /* \"#utility.yul\":433:472   */\n      add\n        /* \"#utility.yul\":429:479   */\n      add\n        /* \"#utility.yul\":422:479   */\n      swap2\n      pop\n      pop\n        /* \"#utility.yul\":196:485   */\n      swap3\n      swap2\n      pop\n      pop\n      jump\t// out\n        /* \"#utility.yul\":490:1196   */\n    tag_23:\n        /* \"#utility.yul\":828:829   */\n      0x01\n        /* \"#utility.yul\":824:825   */\n      dup1\n        /* \"#utility.yul\":819:822   */\n      0xa0\n        /* \"#utility.yul\":815:826   */\n      shl\n        /* \"#utility.yul\":811:830   */\n      sub\n        /* \"#utility.yul\":803:809   */\n      dup9\n        /* \"#utility.yul\":799:831   */\n      and\n        /* \"#utility.yul\":788:797   */\n      dup2\n        /* \"#utility.yul\":781:832   */\n      mstore\n        /* \"#utility.yul\":868:874   */\n      dup7\n        /* \"#utility.yul\":863:865   */\n      0x20\n        /* \"#utility.yul\":852:861   */\n      dup3\n        /* \"#utility.yul\":848:866   */\n      add\n        /* \"#utility.yul\":841:875   */\n      mstore\n        /* \"#utility.yul\":911:914   */\n      0xe0\n        /* \"#utility.yul\":906:908   */\n      0x40\n        /* \"#utility.yul\":895:904   */\n      dup3\n        /* \"#utility.yul\":891:909   */\n      add\n        /* \"#utility.yul\":884:915   */\n      mstore\n        /* \"#utility.yul\":762:766   */\n      0x00\n        /* \"#utility.yul\":932:978   */\n      tag_145\n        /* \"#utility.yul\":973:976   */\n      0xe0\n        /* \"#utility.yul\":962:971   */\n      dup4\n        /* \"#utility.yul\":958:977   */\n      add\n        /* \"#utility.yul\":950:956   */\n      dup9\n        /* \"#utility.yul\":932:978   */\n      tag_140\n      jump\t// in\n    tag_145:\n        /* \"#utility.yul\":924:978   */\n      swap1\n      pop\n        /* \"#utility.yul\":1026:1040   */\n      0xffffffffffff\n        /* \"#utility.yul\":1018:1024   */\n      dup7\n        /* \"#utility.yul\":1014:1041   */\n      and\n        /* \"#utility.yul\":1009:1011   */\n      0x60\n        /* \"#utility.yul\":998:1007   */\n      dup4\n        /* \"#utility.yul\":994:1012   */\n      add\n        /* \"#utility.yul\":987:1042   */\n      mstore\n        /* \"#utility.yul\":1079:1085   */\n      dup5\n        /* \"#utility.yul\":1073:1076   */\n      0x80\n        /* \"#utility.yul\":1062:1071   */\n      dup4\n        /* \"#utility.yul\":1058:1077   */\n      add\n        /* \"#utility.yul\":1051:1086   */\n      mstore\n        /* \"#utility.yul\":1123:1129   */\n      dup4\n        /* \"#utility.yul\":1117:1120   */\n      0xa0\n        /* \"#utility.yul\":1106:1115   */\n      dup4\n        /* \"#utility.yul\":1102:1121   */\n      add\n        /* \"#utility.yul\":1095:1130   */\n      mstore\n        /* \"#utility.yul\":1181:1187   */\n      dup3\n        /* \"#utility.yul\":1174:1188   */\n      iszero\n        /* \"#utility.yul\":1167:1189   */\n      iszero\n        /* \"#utility.yul\":1161:1164   */\n      0xc0\n        /* \"#utility.yul\":1150:1159   */\n      dup4\n        /* \"#utility.yul\":1146:1165   */\n      add\n        /* \"#utility.yul\":1139:1190   */\n      mstore\n        /* \"#utility.yul\":490:1196   */\n      swap9\n      swap8\n      pop\n      pop\n      pop\n      pop\n      pop\n      pop\n      pop\n      pop\n      jump\t// out\n        /* \"#utility.yul\":1802:2022   */\n    tag_43:\n        /* \"#utility.yul\":1951:1953   */\n      0x20\n        /* \"#utility.yul\":1940:1949   */\n      dup2\n        /* \"#utility.yul\":1933:1954   */\n      mstore\n        /* \"#utility.yul\":1914:1918   */\n      0x00\n        /* \"#utility.yul\":1971:2016   */\n      tag_150\n        /* \"#utility.yul\":2012:2014   */\n      0x20\n        /* \"#utility.yul\":2001:2010   */\n      dup4\n        /* \"#utility.yul\":1997:2015   */\n      add\n        /* \"#utility.yul\":1989:1995   */\n      dup5\n        /* \"#utility.yul\":1971:2016   */\n      tag_140\n      jump\t// in\n    tag_150:\n        /* \"#utility.yul\":1963:2016   */\n      swap4\n        /* \"#utility.yul\":1802:2022   */\n      swap3\n      pop\n      pop\n      pop\n      jump\t// out\n        /* \"#utility.yul\":2209:2846   */\n    tag_57:\n        /* \"#utility.yul\":2399:2401   */\n      0x20\n        /* \"#utility.yul\":2411:2432   */\n      dup1\n      dup3\n      mstore\n        /* \"#utility.yul\":2481:2494   */\n      dup3\n      mload\n        /* \"#utility.yul\":2384:2402   */\n      dup3\n      dup3\n      add\n        /* \"#utility.yul\":2503:2525   */\n      dup2\n      swap1\n      mstore\n        /* \"#utility.yul\":2351:2355   */\n      0x00\n      swap2\n        /* \"#utility.yul\":2582:2597   */\n      dup5\n      add\n      swap1\n        /* \"#utility.yul\":2556:2558   */\n      0x40\n        /* \"#utility.yul\":2541:2559   */\n      dup5\n      add\n      swap1\n        /* \"#utility.yul\":2351:2355   */\n      dup4\n        /* \"#utility.yul\":2625:2820   */\n    tag_153:\n        /* \"#utility.yul\":2639:2645   */\n      dup2\n        /* \"#utility.yul\":2636:2637   */\n      dup2\n        /* \"#utility.yul\":2633:2646   */\n      lt\n        /* \"#utility.yul\":2625:2820   */\n      iszero\n      tag_155\n      jumpi\n        /* \"#utility.yul\":2704:2717   */\n      dup4\n      mload\n      sub(shl(0xa0, 0x01), 0x01)\n        /* \"#utility.yul\":2700:2739   */\n      and\n        /* \"#utility.yul\":2688:2740   */\n      dup4\n      mstore\n        /* \"#utility.yul\":2769:2771   */\n      0x20\n        /* \"#utility.yul\":2795:2810   */\n      swap4\n      dup5\n      add\n      swap4\n        /* \"#utility.yul\":2760:2772   */\n      swap1\n      swap3\n      add\n      swap2\n        /* \"#utility.yul\":2736:2737   */\n      0x01\n        /* \"#utility.yul\":2654:2663   */\n      add\n        /* \"#utility.yul\":2625:2820   */\n      jump(tag_153)\n    tag_155:\n      pop\n        /* \"#utility.yul\":2837:2840   */\n      swap1\n      swap6\n        /* \"#utility.yul\":2209:2846   */\n      swap5\n      pop\n      pop\n      pop\n      pop\n      pop\n      jump\t// out\n        /* \"#utility.yul\":2851:3231   */\n    tag_65:\n        /* \"#utility.yul\":2930:2931   */\n      0x01\n        /* \"#utility.yul\":2926:2938   */\n      dup2\n      dup2\n      shr\n      swap1\n        /* \"#utility.yul\":2973:2985   */\n      dup3\n      and\n      dup1\n        /* \"#utility.yul\":2994:3055   */\n      tag_157\n      jumpi\n        /* \"#utility.yul\":3048:3052   */\n      0x7f\n        /* \"#utility.yul\":3040:3046   */\n      dup3\n        /* \"#utility.yul\":3036:3053   */\n      and\n        /* \"#utility.yul\":3026:3053   */\n      swap2\n      pop\n        /* \"#utility.yul\":2994:3055   */\n    tag_157:\n        /* \"#utility.yul\":3101:3103   */\n      0x20\n        /* \"#utility.yul\":3093:3099   */\n      dup3\n        /* \"#utility.yul\":3090:3104   */\n      lt\n        /* \"#utility.yul\":3070:3088   */\n      dup2\n        /* \"#utility.yul\":3067:3105   */\n      sub\n        /* \"#utility.yul\":3064:3225   */\n      tag_158\n      jumpi\n        /* \"#utility.yul\":3147:3157   */\n      0x4e487b71\n        /* \"#utility.yul\":3142:3145   */\n      0xe0\n        /* \"#utility.yul\":3138:3158   */\n      shl\n        /* \"#utility.yul\":3135:3136   */\n      0x00\n        /* \"#utility.yul\":3128:3159   */\n      mstore\n        /* \"#utility.yul\":3182:3186   */\n      0x22\n        /* \"#utility.yul\":3179:3180   */\n      0x04\n        /* \"#utility.yul\":3172:3187   */\n      mstore\n        /* \"#utility.yul\":3210:3214   */\n      0x24\n        /* \"#utility.yul\":3207:3208   */\n      0x00\n        /* \"#utility.yul\":3200:3215   */\n      revert\n        /* \"#utility.yul\":3064:3225   */\n    tag_158:\n      pop\n        /* \"#utility.yul\":2851:3231   */\n      swap2\n      swap1\n      pop\n      jump\t// out\n        /* \"#utility.yul\":4270:4397   */\n    tag_101:\n        /* \"#utility.yul\":4331:4341   */\n      0x4e487b71\n        /* \"#utility.yul\":4326:4329   */\n      0xe0\n        /* \"#utility.yul\":4322:4342   */\n      shl\n        /* \"#utility.yul\":4319:4320   */\n      0x00\n        /* \"#utility.yul\":4312:4343   */\n      mstore\n        /* \"#utility.yul\":4362:4366   */\n      0x32\n        /* \"#utility.yul\":4359:4360   */\n      0x04\n        /* \"#utility.yul\":4352:4367   */\n      mstore\n        /* \"#utility.yul\":4386:4390   */\n      0x24\n        /* \"#utility.yul\":4383:4384   */\n      0x00\n        /* \"#utility.yul\":4376:4391   */\n      revert\n        /* \"#utility.yul\":6045:6267   */\n    tag_132:\n        /* \"#utility.yul\":6110:6119   */\n      dup1\n      dup3\n      add\n        /* \"#utility.yul\":6131:6141   */\n      dup1\n      dup3\n      gt\n        /* \"#utility.yul\":6128:6261   */\n      iszero\n      tag_169\n      jumpi\n        /* \"#utility.yul\":6183:6193   */\n      0x4e487b71\n        /* \"#utility.yul\":6178:6181   */\n      0xe0\n        /* \"#utility.yul\":6174:6194   */\n      shl\n        /* \"#utility.yul\":6171:6172   */\n      0x00\n        /* \"#utility.yul\":6164:6195   */\n      mstore\n        /* \"#utility.yul\":6218:6222   */\n      0x11\n        /* \"#utility.yul\":6215:6216   */\n      0x04\n        /* \"#utility.yul\":6208:6223   */\n      mstore\n        /* \"#utility.yul\":6246:6250   */\n      0x24\n        /* \"#utility.yul\":6243:6244   */\n      0x00\n        /* \"#utility.yul\":6236:6251   */\n      revert\n        /* \"#utility.yul\":6128:6261   */\n    tag_169:\n        /* \"#utility.yul\":6045:6267   */\n      swap3\n      swap2\n      pop\n      pop\n      jump\t// out\n\n    auxdata: 0xa2646970667358221220c3402d8413f6f06ba303f302d49a9207e8533bac5409dbb331cc87e66bf7504364736f6c634300081a0033\n}\n",
				"bytecode": {
					"linkReferences": {},
					"object": "610100604052348015610010575f80fd5b506040516110b93803806110b983398101604081905261002f9161013e565b5f82116100835760405162461bcd60e51b815260206004820152601860248201527f46756e64696e6720676f616c206d757374206265203e2030000000000000000060448201526064015b60405180910390fd5b428165ffffffffffff16116100cc5760405162461bcd60e51b815260206004820152600f60248201526e111958591b1a5b99481c185cdcd959608a1b604482015260640161007a565b6001600160a01b03851660805260e084905260026100ea84826102b5565b5060c09190915265ffffffffffff1660a05250505f805460ff191660011790555061036f565b634e487b7160e01b5f52604160045260245ffd5b805165ffffffffffff81168114610139575f80fd5b919050565b5f805f805f60a08688031215610152575f80fd5b85516001600160a01b0381168114610168575f80fd5b6020870151604088015191965094506001600160401b0381111561018a575f80fd5b8601601f8101881361019a575f80fd5b80516001600160401b038111156101b3576101b3610110565b604051601f8201601f19908116603f011681016001600160401b03811182821017156101e1576101e1610110565b6040528181528282016020018a10156101f8575f80fd5b8160208401602083015e5f9181016020019190915260608801519094509250610225905060808701610124565b90509295509295909350565b600181811c9082168061024557607f821691505b60208210810361026357634e487b7160e01b5f52602260045260245ffd5b50919050565b601f8211156102b057805f5260205f20601f840160051c8101602085101561028e5750805b601f840160051c820191505b818110156102ad575f815560010161029a565b50505b505050565b81516001600160401b038111156102ce576102ce610110565b6102e2816102dc8454610231565b84610269565b6020601f821160018114610314575f83156102fd5750848201515b5f19600385901b1c1916600184901b1784556102ad565b5f84815260208120601f198516915b828110156103435787850151825560209485019460019092019101610323565b508482101561036057868401515f19600387901b60f8161c191681555b50505050600190811b01905550565b60805160a05160c05160e051610caf61040a5f395f818160af015261029d01525f81816101fa0152818161037401528181610510015281816105df0152818161081301526109fe01525f818161014401528181610351015281816104df015261076201525f818161018e0152818161027a0152818161057e015281816107120152818161087f01528181610a710152610ad10152610caf5ff3fe60806040526004361061009a575f3560e01c80637284e416116100625780637284e416146101c85780637a3a0e84146101e9578063968ed6001461021c57806396f300d414610231578063a1211bc014610252578063ed88c68e14610268575f80fd5b806306fdde031461009e5780630c611f24146100e457806322f3e2d41461010b57806329dcb0cf1461013357806338af3eed1461017d575b5f80fd5b3480156100a9575f80fd5b506100d17f000000000000000000000000000000000000000000000000000000000000000081565b6040519081526020015b60405180910390f35b3480156100ef575f80fd5b506100f8610270565b6040516100db9796959493929190610b4e565b348015610116575f80fd5b505f546101239060ff1681565b60405190151581526020016100db565b34801561013e575f80fd5b506101667f000000000000000000000000000000000000000000000000000000000000000081565b60405165ffffffffffff90911681526020016100db565b348015610188575f80fd5b506101b07f000000000000000000000000000000000000000000000000000000000000000081565b6040516001600160a01b0390911681526020016100db565b3480156101d3575f80fd5b506101dc6103a7565b6040516100db9190610ba4565b3480156101f4575f80fd5b506100d17f000000000000000000000000000000000000000000000000000000000000000081565b348015610227575f80fd5b506100d160015481565b34801561023c575f80fd5b50610245610433565b6040516100db9190610bbd565b34801561025d575f80fd5b50610266610493565b005b610266610760565b5f8060605f805f807f000000000000000000000000000000000000000000000000000000000000000096507f00000000000000000000000000000000000000000000000000000000000000009550600280546102cb90610c08565b80601f01602080910402602001604051908101604052809291908181526020018280546102f790610c08565b80156103425780601f1061031957610100808354040283529160200191610342565b820191905f5260205f20905b81548152906001019060200180831161032557829003601f168201915b50506001545f549b9c9a9b949a7f00000000000000000000000000000000000000000000000000000000000000009a507f0000000000000000000000000000000000000000000000000000000000000000995090975060ff9094169550929350505050565b600280546103b490610c08565b80601f01602080910402602001604051908101604052809291908181526020018280546103e090610c08565b801561042b5780601f106104025761010080835404028352916020019161042b565b820191905f5260205f20905b81548152906001019060200180831161040e57829003601f168201915b505050505081565b6060600480548060200260200160405190810160405280929190818152602001828054801561048957602002820191905f5260205f20905b81546001600160a01b0316815260019091019060200180831161046b575b5050505050905090565b5f5460ff166104dd5760405162461bcd60e51b815260206004820152601160248201527024b730b1ba34bb329021b0b6b830b4b3b760791b60448201526064015b60405180910390fd5b7f000000000000000000000000000000000000000000000000000000000000000065ffffffffffff1642118061053557507f000000000000000000000000000000000000000000000000000000000000000060015410155b6105735760405162461bcd60e51b815260206004820152600f60248201526e43616e6e6f662066696e616c697a6560881b60448201526064016104d4565b336001600160a01b037f000000000000000000000000000000000000000000000000000000000000000016146105dd5760405162461bcd60e51b815260206004820152600f60248201526e4e6f742062656e656669636961727960881b60448201526064016104d4565b7f0000000000000000000000000000000000000000000000000000000000000000600154106106105761060e610a51565b565b5f805460ff191681555b6004548110156106f5575f6004828154811061063857610638610c40565b5f9182526020808320909101546001600160a01b0316808352600390915260409091205490915080156106eb576001600160a01b0382165f818152600360205260408082208290555183156108fc0291849190818181858888f193505050501580156106a6573d5f803e3d5ffd5b50816001600160a01b03167fa171b6942063c6f2800ce40a780edce37baa2b618571b11eedd1e69e626e7d76826040516106e291815260200190565b60405180910390a25b505060010161061a565b50600154604080515f815260208101929092526001600160a01b037f000000000000000000000000000000000000000000000000000000000000000016917f712d35f4bf4c7422ae5b3996c20cc32903765397cd70e33a25294baf8c89dc80910160405180910390a2565b7f000000000000000000000000000000000000000000000000000000000000000065ffffffffffff164211156107cc5760405162461bcd60e51b8152602060048201526011602482015270111958591b1a5b9948195e18d959591959607a1b60448201526064016104d4565b5f5460ff166108115760405162461bcd60e51b815260206004820152601160248201527024b730b1ba34bb329021b0b6b830b4b3b760791b60448201526064016104d4565b7f0000000000000000000000000000000000000000000000000000000000000000600154106108755760405162461bcd60e51b815260206004820152601060248201526f119d5b991a5b99c819dbd85b081b595d60821b60448201526064016104d4565b6001600160a01b037f00000000000000000000000000000000000000000000000000000000000000001633036108e05760405162461bcd60e51b815260206004820152601060248201526f42656e6566696369617279206f6e6c7960801b60448201526064016104d4565b6004546032116109245760405162461bcd60e51b815260206004820152600f60248201526e546f6f206d616e7920646f6e6f727360881b60448201526064016104d4565b335f8181526003602052604081205434910361098557600480546001810182555f919091527f8a35acfbc15ff81a39ae7d344fd709f28e8600b4aa8c65c6b64bfe7fe36bd19b0180546001600160a01b0319166001600160a01b0384161790555b6001600160a01b0382165f90815260036020526040812080548392906109ac908490610c54565b90915550506001545f906109c1908390610c54565b60018190556040518381529091507feb3301a94d74dc3ee739ec081ebeaf60c5e72b48aef0402c21c9f049f84c96229060200160405180910390a17f00000000000000000000000000000000000000000000000000000000000000008110610a4c576040517f7efee204be5df5d59d7f2294f7f2776f836d145d72998af64b6dcbbd898e7bf6905f90a15b505050565b600180545f805460ff191681559182905560405190916001600160a01b037f0000000000000000000000000000000000000000000000000000000000000000169183156108fc0291849190818181858888f19350505050158015610ab7573d5f803e3d5ffd5b506040805160018152602081018390526001600160a01b037f000000000000000000000000000000000000000000000000000000000000000016917f712d35f4bf4c7422ae5b3996c20cc32903765397cd70e33a25294baf8c89dc80910160405180910390a250565b5f81518084528060208401602086015e5f602082860101526020601f19601f83011685010191505092915050565b60018060a01b038816815286602082015260e060408201525f610b7460e0830188610b20565b905065ffffffffffff861660608301528460808301528360a083015282151560c083015298975050505050505050565b602081525f610bb66020830184610b20565b9392505050565b602080825282518282018190525f918401906040840190835b81811015610bfd5783516001600160a01b0316835260209384019390920191600101610bd6565b509095945050505050565b600181811c90821680610c1c57607f821691505b602082108103610c3a57634e487b7160e01b5f52602260045260245ffd5b50919050565b634e487b7160e01b5f52603260045260245ffd5b80820180821115610c7357634e487b7160e01b5f52601160045260245ffd5b9291505056fea2646970667358221220c3402d8413f6f06ba303f302d49a9207e8533bac5409dbb331cc87e66bf7504364736f6c634300081a0033",
					"opcodes": "PUSH2 0x100 PUSH1 0x40 MSTORE CALLVALUE DUP1 ISZERO PUSH2 0x10 JUMPI PUSH0 DUP1 REVERT JUMPDEST POP PUSH1 0x40 MLOAD PUSH2 0x10B9 CODESIZE SUB DUP1 PUSH2 0x10B9 DUP4 CODECOPY DUP2 ADD PUSH1 0x40 DUP2 SWAP1 MSTORE PUSH2 0x2F SWAP2 PUSH2 0x13E JUMP JUMPDEST PUSH0 DUP3 GT PUSH2 0x83 JUMPI PUSH1 0x40 MLOAD PUSH3 0x461BCD PUSH1 0xE5 SHL DUP2 MSTORE PUSH1 0x20 PUSH1 0x4 DUP3 ADD MSTORE PUSH1 0x18 PUSH1 0x24 DUP3 ADD MSTORE PUSH32 0x46756E64696E6720676F616C206D757374206265203E20300000000000000000 PUSH1 0x44 DUP3 ADD MSTORE PUSH1 0x64 ADD JUMPDEST PUSH1 0x40 MLOAD DUP1 SWAP2 SUB SWAP1 REVERT JUMPDEST TIMESTAMP DUP2 PUSH6 0xFFFFFFFFFFFF AND GT PUSH2 0xCC JUMPI PUSH1 0x40 MLOAD PUSH3 0x461BCD PUSH1 0xE5 SHL DUP2 MSTORE PUSH1 0x20 PUSH1 0x4 DUP3 ADD MSTORE PUSH1 0xF PUSH1 0x24 DUP3 ADD MSTORE PUSH15 0x111958591B1A5B99481C185CDCD959 PUSH1 0x8A SHL PUSH1 0x44 DUP3 ADD MSTORE PUSH1 0x64 ADD PUSH2 0x7A JUMP JUMPDEST PUSH1 0x1 PUSH1 0x1 PUSH1 0xA0 SHL SUB DUP6 AND PUSH1 0x80 MSTORE PUSH1 0xE0 DUP5 SWAP1 MSTORE PUSH1 0x2 PUSH2 0xEA DUP5 DUP3 PUSH2 0x2B5 JUMP JUMPDEST POP PUSH1 0xC0 SWAP2 SWAP1 SWAP2 MSTORE PUSH6 0xFFFFFFFFFFFF AND PUSH1 0xA0 MSTORE POP POP PUSH0 DUP1 SLOAD PUSH1 0xFF NOT AND PUSH1 0x1 OR SWAP1 SSTORE POP PUSH2 0x36F JUMP JUMPDEST PUSH4 0x4E487B71 PUSH1 0xE0 SHL PUSH0 MSTORE PUSH1 0x41 PUSH1 0x4 MSTORE PUSH1 0x24 PUSH0 REVERT JUMPDEST DUP1 MLOAD PUSH6 0xFFFFFFFFFFFF DUP2 AND DUP2 EQ PUSH2 0x139 JUMPI PUSH0 DUP1 REVERT JUMPDEST SWAP2 SWAP1 POP JUMP JUMPDEST PUSH0 DUP1 PUSH0 DUP1 PUSH0 PUSH1 0xA0 DUP7 DUP9 SUB SLT ISZERO PUSH2 0x152 JUMPI PUSH0 DUP1 REVERT JUMPDEST DUP6 MLOAD PUSH1 0x1 PUSH1 0x1 PUSH1 0xA0 SHL SUB DUP2 AND DUP2 EQ PUSH2 0x168 JUMPI PUSH0 DUP1 REVERT JUMPDEST PUSH1 0x20 DUP8 ADD MLOAD PUSH1 0x40 DUP9 ADD MLOAD SWAP2 SWAP7 POP SWAP5 POP PUSH1 0x1 PUSH1 0x1 PUSH1 0x40 SHL SUB DUP2 GT ISZERO PUSH2 0x18A JUMPI PUSH0 DUP1 REVERT JUMPDEST DUP7 ADD PUSH1 0x1F DUP2 ADD DUP9 SGT PUSH2 0x19A JUMPI PUSH0 DUP1 REVERT JUMPDEST DUP1 MLOAD PUSH1 0x1 PUSH1 0x1 PUSH1 0x40 SHL SUB DUP2 GT ISZERO PUSH2 0x1B3 JUMPI PUSH2 0x1B3 PUSH2 0x110 JUMP JUMPDEST PUSH1 0x40 MLOAD PUSH1 0x1F DUP3 ADD PUSH1 0x1F NOT SWAP1 DUP2 AND PUSH1 0x3F ADD AND DUP2 ADD PUSH1 0x1 PUSH1 0x1 PUSH1 0x40 SHL SUB DUP2 GT DUP3 DUP3 LT OR ISZERO PUSH2 0x1E1 JUMPI PUSH2 0x1E1 PUSH2 0x110 JUMP JUMPDEST PUSH1 0x40 MSTORE DUP2 DUP2 MSTORE DUP3 DUP3 ADD PUSH1 0x20 ADD DUP11 LT ISZERO PUSH2 0x1F8 JUMPI PUSH0 DUP1 REVERT JUMPDEST DUP2 PUSH1 0x20 DUP5 ADD PUSH1 0x20 DUP4 ADD MCOPY PUSH0 SWAP2 DUP2 ADD PUSH1 0x20 ADD SWAP2 SWAP1 SWAP2 MSTORE PUSH1 0x60 DUP9 ADD MLOAD SWAP1 SWAP5 POP SWAP3 POP PUSH2 0x225 SWAP1 POP PUSH1 0x80 DUP8 ADD PUSH2 0x124 JUMP JUMPDEST SWAP1 POP SWAP3 SWAP6 POP SWAP3 SWAP6 SWAP1 SWAP4 POP JUMP JUMPDEST PUSH1 0x1 DUP2 DUP2 SHR SWAP1 DUP3 AND DUP1 PUSH2 0x245 JUMPI PUSH1 0x7F DUP3 AND SWAP2 POP JUMPDEST PUSH1 0x20 DUP3 LT DUP2 SUB PUSH2 0x263 JUMPI PUSH4 0x4E487B71 PUSH1 0xE0 SHL PUSH0 MSTORE PUSH1 0x22 PUSH1 0x4 MSTORE PUSH1 0x24 PUSH0 REVERT JUMPDEST POP SWAP2 SWAP1 POP JUMP JUMPDEST PUSH1 0x1F DUP3 GT ISZERO PUSH2 0x2B0 JUMPI DUP1 PUSH0 MSTORE PUSH1 0x20 PUSH0 KECCAK256 PUSH1 0x1F DUP5 ADD PUSH1 0x5 SHR DUP2 ADD PUSH1 0x20 DUP6 LT ISZERO PUSH2 0x28E JUMPI POP DUP1 JUMPDEST PUSH1 0x1F DUP5 ADD PUSH1 0x5 SHR DUP3 ADD SWAP2 POP JUMPDEST DUP2 DUP2 LT ISZERO PUSH2 0x2AD JUMPI PUSH0 DUP2 SSTORE PUSH1 0x1 ADD PUSH2 0x29A JUMP JUMPDEST POP POP JUMPDEST POP POP POP JUMP JUMPDEST DUP2 MLOAD PUSH1 0x1 PUSH1 0x1 PUSH1 0x40 SHL SUB DUP2 GT ISZERO PUSH2 0x2CE JUMPI PUSH2 0x2CE PUSH2 0x110 JUMP JUMPDEST PUSH2 0x2E2 DUP2 PUSH2 0x2DC DUP5 SLOAD PUSH2 0x231 JUMP JUMPDEST DUP5 PUSH2 0x269 JUMP JUMPDEST PUSH1 0x20 PUSH1 0x1F DUP3 GT PUSH1 0x1 DUP2 EQ PUSH2 0x314 JUMPI PUSH0 DUP4 ISZERO PUSH2 0x2FD JUMPI POP DUP5 DUP3 ADD MLOAD JUMPDEST PUSH0 NOT PUSH1 0x3 DUP6 SWAP1 SHL SHR NOT AND PUSH1 0x1 DUP5 SWAP1 SHL OR DUP5 SSTORE PUSH2 0x2AD JUMP JUMPDEST PUSH0 DUP5 DUP2 MSTORE PUSH1 0x20 DUP2 KECCAK256 PUSH1 0x1F NOT DUP6 AND SWAP2 JUMPDEST DUP3 DUP2 LT ISZERO PUSH2 0x343 JUMPI DUP8 DUP6 ADD MLOAD DUP3 SSTORE PUSH1 0x20 SWAP5 DUP6 ADD SWAP5 PUSH1 0x1 SWAP1 SWAP3 ADD SWAP2 ADD PUSH2 0x323 JUMP JUMPDEST POP DUP5 DUP3 LT ISZERO PUSH2 0x360 JUMPI DUP7 DUP5 ADD MLOAD PUSH0 NOT PUSH1 0x3 DUP8 SWAP1 SHL PUSH1 0xF8 AND SHR NOT AND DUP2 SSTORE JUMPDEST POP POP POP POP PUSH1 0x1 SWAP1 DUP2 SHL ADD SWAP1 SSTORE POP JUMP JUMPDEST PUSH1 0x80 MLOAD PUSH1 0xA0 MLOAD PUSH1 0xC0 MLOAD PUSH1 0xE0 MLOAD PUSH2 0xCAF PUSH2 0x40A PUSH0 CODECOPY PUSH0 DUP2 DUP2 PUSH1 0xAF ADD MSTORE PUSH2 0x29D ADD MSTORE PUSH0 DUP2 DUP2 PUSH2 0x1FA ADD MSTORE DUP2 DUP2 PUSH2 0x374 ADD MSTORE DUP2 DUP2 PUSH2 0x510 ADD MSTORE DUP2 DUP2 PUSH2 0x5DF ADD MSTORE DUP2 DUP2 PUSH2 0x813 ADD MSTORE PUSH2 0x9FE ADD MSTORE PUSH0 DUP2 DUP2 PUSH2 0x144 ADD MSTORE DUP2 DUP2 PUSH2 0x351 ADD MSTORE DUP2 DUP2 PUSH2 0x4DF ADD MSTORE PUSH2 0x762 ADD MSTORE PUSH0 DUP2 DUP2 PUSH2 0x18E ADD MSTORE DUP2 DUP2 PUSH2 0x27A ADD MSTORE DUP2 DUP2 PUSH2 0x57E ADD MSTORE DUP2 DUP2 PUSH2 0x712 ADD MSTORE DUP2 DUP2 PUSH2 0x87F ADD MSTORE DUP2 DUP2 PUSH2 0xA71 ADD MSTORE PUSH2 0xAD1 ADD MSTORE PUSH2 0xCAF PUSH0 RETURN INVALID PUSH1 0x80 PUSH1 0x40 MSTORE PUSH1 0x4 CALLDATASIZE LT PUSH2 0x9A JUMPI PUSH0 CALLDATALOAD PUSH1 0xE0 SHR DUP1 PUSH4 0x7284E416 GT PUSH2 0x62 JUMPI DUP1 PUSH4 0x7284E416 EQ PUSH2 0x1C8 JUMPI DUP1 PUSH4 0x7A3A0E84 EQ PUSH2 0x1E9 JUMPI DUP1 PUSH4 0x968ED600 EQ PUSH2 0x21C JUMPI DUP1 PUSH4 0x96F300D4 EQ PUSH2 0x231 JUMPI DUP1 PUSH4 0xA1211BC0 EQ PUSH2 0x252 JUMPI DUP1 PUSH4 0xED88C68E EQ PUSH2 0x268 JUMPI PUSH0 DUP1 REVERT JUMPDEST DUP1 PUSH4 0x6FDDE03 EQ PUSH2 0x9E JUMPI DUP1 PUSH4 0xC611F24 EQ PUSH2 0xE4 JUMPI DUP1 PUSH4 0x22F3E2D4 EQ PUSH2 0x10B JUMPI DUP1 PUSH4 0x29DCB0CF EQ PUSH2 0x133 JUMPI DUP1 PUSH4 0x38AF3EED EQ PUSH2 0x17D JUMPI JUMPDEST PUSH0 DUP1 REVERT JUMPDEST CALLVALUE DUP1 ISZERO PUSH2 0xA9 JUMPI PUSH0 DUP1 REVERT JUMPDEST POP PUSH2 0xD1 PUSH32 0x0 DUP2 JUMP JUMPDEST PUSH1 0x40 MLOAD SWAP1 DUP2 MSTORE PUSH1 0x20 ADD JUMPDEST PUSH1 0x40 MLOAD DUP1 SWAP2 SUB SWAP1 RETURN JUMPDEST CALLVALUE DUP1 ISZERO PUSH2 0xEF JUMPI PUSH0 DUP1 REVERT JUMPDEST POP PUSH2 0xF8 PUSH2 0x270 JUMP JUMPDEST PUSH1 0x40 MLOAD PUSH2 0xDB SWAP8 SWAP7 SWAP6 SWAP5 SWAP4 SWAP3 SWAP2 SWAP1 PUSH2 0xB4E JUMP JUMPDEST CALLVALUE DUP1 ISZERO PUSH2 0x116 JUMPI PUSH0 DUP1 REVERT JUMPDEST POP PUSH0 SLOAD PUSH2 0x123 SWAP1 PUSH1 0xFF AND DUP2 JUMP JUMPDEST PUSH1 0x40 MLOAD SWAP1 ISZERO ISZERO DUP2 MSTORE PUSH1 0x20 ADD PUSH2 0xDB JUMP JUMPDEST CALLVALUE DUP1 ISZERO PUSH2 0x13E JUMPI PUSH0 DUP1 REVERT JUMPDEST POP PUSH2 0x166 PUSH32 0x0 DUP2 JUMP JUMPDEST PUSH1 0x40 MLOAD PUSH6 0xFFFFFFFFFFFF SWAP1 SWAP2 AND DUP2 MSTORE PUSH1 0x20 ADD PUSH2 0xDB JUMP JUMPDEST CALLVALUE DUP1 ISZERO PUSH2 0x188 JUMPI PUSH0 DUP1 REVERT JUMPDEST POP PUSH2 0x1B0 PUSH32 0x0 DUP2 JUMP JUMPDEST PUSH1 0x40 MLOAD PUSH1 0x1 PUSH1 0x1 PUSH1 0xA0 SHL SUB SWAP1 SWAP2 AND DUP2 MSTORE PUSH1 0x20 ADD PUSH2 0xDB JUMP JUMPDEST CALLVALUE DUP1 ISZERO PUSH2 0x1D3 JUMPI PUSH0 DUP1 REVERT JUMPDEST POP PUSH2 0x1DC PUSH2 0x3A7 JUMP JUMPDEST PUSH1 0x40 MLOAD PUSH2 0xDB SWAP2 SWAP1 PUSH2 0xBA4 JUMP JUMPDEST CALLVALUE DUP1 ISZERO PUSH2 0x1F4 JUMPI PUSH0 DUP1 REVERT JUMPDEST POP PUSH2 0xD1 PUSH32 0x0 DUP2 JUMP JUMPDEST CALLVALUE DUP1 ISZERO PUSH2 0x227 JUMPI PUSH0 DUP1 REVERT JUMPDEST POP PUSH2 0xD1 PUSH1 0x1 SLOAD DUP2 JUMP JUMPDEST CALLVALUE DUP1 ISZERO PUSH2 0x23C JUMPI PUSH0 DUP1 REVERT JUMPDEST POP PUSH2 0x245 PUSH2 0x433 JUMP JUMPDEST PUSH1 0x40 MLOAD PUSH2 0xDB SWAP2 SWAP1 PUSH2 0xBBD JUMP JUMPDEST CALLVALUE DUP1 ISZERO PUSH2 0x25D JUMPI PUSH0 DUP1 REVERT JUMPDEST POP PUSH2 0x266 PUSH2 0x493 JUMP JUMPDEST STOP JUMPDEST PUSH2 0x266 PUSH2 0x760 JUMP JUMPDEST PUSH0 DUP1 PUSH1 0x60 PUSH0 DUP1 PUSH0 DUP1 PUSH32 0x0 SWAP7 POP PUSH32 0x0 SWAP6 POP PUSH1 0x2 DUP1 SLOAD PUSH2 0x2CB SWAP1 PUSH2 0xC08 JUMP JUMPDEST DUP1 PUSH1 0x1F ADD PUSH1 0x20 DUP1 SWAP2 DIV MUL PUSH1 0x20 ADD PUSH1 0x40 MLOAD SWAP1 DUP2 ADD PUSH1 0x40 MSTORE DUP1 SWAP3 SWAP2 SWAP1 DUP2 DUP2 MSTORE PUSH1 0x20 ADD DUP3 DUP1 SLOAD PUSH2 0x2F7 SWAP1 PUSH2 0xC08 JUMP JUMPDEST DUP1 ISZERO PUSH2 0x342 JUMPI DUP1 PUSH1 0x1F LT PUSH2 0x319 JUMPI PUSH2 0x100 DUP1 DUP4 SLOAD DIV MUL DUP4 MSTORE SWAP2 PUSH1 0x20 ADD SWAP2 PUSH2 0x342 JUMP JUMPDEST DUP3 ADD SWAP2 SWAP1 PUSH0 MSTORE PUSH1 0x20 PUSH0 KECCAK256 SWAP1 JUMPDEST DUP2 SLOAD DUP2 MSTORE SWAP1 PUSH1 0x1 ADD SWAP1 PUSH1 0x20 ADD DUP1 DUP4 GT PUSH2 0x325 JUMPI DUP3 SWAP1 SUB PUSH1 0x1F AND DUP3 ADD SWAP2 JUMPDEST POP POP PUSH1 0x1 SLOAD PUSH0 SLOAD SWAP12 SWAP13 SWAP11 SWAP12 SWAP5 SWAP11 PUSH32 0x0 SWAP11 POP PUSH32 0x0 SWAP10 POP SWAP1 SWAP8 POP PUSH1 0xFF SWAP1 SWAP5 AND SWAP6 POP SWAP3 SWAP4 POP POP POP POP JUMP JUMPDEST PUSH1 0x2 DUP1 SLOAD PUSH2 0x3B4 SWAP1 PUSH2 0xC08 JUMP JUMPDEST DUP1 PUSH1 0x1F ADD PUSH1 0x20 DUP1 SWAP2 DIV MUL PUSH1 0x20 ADD PUSH1 0x40 MLOAD SWAP1 DUP2 ADD PUSH1 0x40 MSTORE DUP1 SWAP3 SWAP2 SWAP1 DUP2 DUP2 MSTORE PUSH1 0x20 ADD DUP3 DUP1 SLOAD PUSH2 0x3E0 SWAP1 PUSH2 0xC08 JUMP JUMPDEST DUP1 ISZERO PUSH2 0x42B JUMPI DUP1 PUSH1 0x1F LT PUSH2 0x402 JUMPI PUSH2 0x100 DUP1 DUP4 SLOAD DIV MUL DUP4 MSTORE SWAP2 PUSH1 0x20 ADD SWAP2 PUSH2 0x42B JUMP JUMPDEST DUP3 ADD SWAP2 SWAP1 PUSH0 MSTORE PUSH1 0x20 PUSH0 KECCAK256 SWAP1 JUMPDEST DUP2 SLOAD DUP2 MSTORE SWAP1 PUSH1 0x1 ADD SWAP1 PUSH1 0x20 ADD DUP1 DUP4 GT PUSH2 0x40E JUMPI DUP3 SWAP1 SUB PUSH1 0x1F AND DUP3 ADD SWAP2 JUMPDEST POP POP POP POP POP DUP2 JUMP JUMPDEST PUSH1 0x60 PUSH1 0x4 DUP1 SLOAD DUP1 PUSH1 0x20 MUL PUSH1 0x20 ADD PUSH1 0x40 MLOAD SWAP1 DUP2 ADD PUSH1 0x40 MSTORE DUP1 SWAP3 SWAP2 SWAP1 DUP2 DUP2 MSTORE PUSH1 0x20 ADD DUP3 DUP1 SLOAD DUP1 ISZERO PUSH2 0x489 JUMPI PUSH1 0x20 MUL DUP3 ADD SWAP2 SWAP1 PUSH0 MSTORE PUSH1 0x20 PUSH0 KECCAK256 SWAP1 JUMPDEST DUP2 SLOAD PUSH1 0x1 PUSH1 0x1 PUSH1 0xA0 SHL SUB AND DUP2 MSTORE PUSH1 0x1 SWAP1 SWAP2 ADD SWAP1 PUSH1 0x20 ADD DUP1 DUP4 GT PUSH2 0x46B JUMPI JUMPDEST POP POP POP POP POP SWAP1 POP SWAP1 JUMP JUMPDEST PUSH0 SLOAD PUSH1 0xFF AND PUSH2 0x4DD JUMPI PUSH1 0x40 MLOAD PUSH3 0x461BCD PUSH1 0xE5 SHL DUP2 MSTORE PUSH1 0x20 PUSH1 0x4 DUP3 ADD MSTORE PUSH1 0x11 PUSH1 0x24 DUP3 ADD MSTORE PUSH17 0x24B730B1BA34BB329021B0B6B830B4B3B7 PUSH1 0x79 SHL PUSH1 0x44 DUP3 ADD MSTORE PUSH1 0x64 ADD JUMPDEST PUSH1 0x40 MLOAD DUP1 SWAP2 SUB SWAP1 REVERT JUMPDEST PUSH32 0x0 PUSH6 0xFFFFFFFFFFFF AND TIMESTAMP GT DUP1 PUSH2 0x535 JUMPI POP PUSH32 0x0 PUSH1 0x1 SLOAD LT ISZERO JUMPDEST PUSH2 0x573 JUMPI PUSH1 0x40 MLOAD PUSH3 0x461BCD PUSH1 0xE5 SHL DUP2 MSTORE PUSH1 0x20 PUSH1 0x4 DUP3 ADD MSTORE PUSH1 0xF PUSH1 0x24 DUP3 ADD MSTORE PUSH15 0x43616E6E6F662066696E616C697A65 PUSH1 0x88 SHL PUSH1 0x44 DUP3 ADD MSTORE PUSH1 0x64 ADD PUSH2 0x4D4 JUMP JUMPDEST CALLER PUSH1 0x1 PUSH1 0x1 PUSH1 0xA0 SHL SUB PUSH32 0x0 AND EQ PUSH2 0x5DD JUMPI PUSH1 0x40 MLOAD PUSH3 0x461BCD PUSH1 0xE5 SHL DUP2 MSTORE PUSH1 0x20 PUSH1 0x4 DUP3 ADD MSTORE PUSH1 0xF PUSH1 0x24 DUP3 ADD MSTORE PUSH15 0x4E6F742062656E6566696369617279 PUSH1 0x88 SHL PUSH1 0x44 DUP3 ADD MSTORE PUSH1 0x64 ADD PUSH2 0x4D4 JUMP JUMPDEST PUSH32 0x0 PUSH1 0x1 SLOAD LT PUSH2 0x610 JUMPI PUSH2 0x60E PUSH2 0xA51 JUMP JUMPDEST JUMP JUMPDEST PUSH0 DUP1 SLOAD PUSH1 0xFF NOT AND DUP2 SSTORE JUMPDEST PUSH1 0x4 SLOAD DUP2 LT ISZERO PUSH2 0x6F5 JUMPI PUSH0 PUSH1 0x4 DUP3 DUP2 SLOAD DUP2 LT PUSH2 0x638 JUMPI PUSH2 0x638 PUSH2 0xC40 JUMP JUMPDEST PUSH0 SWAP2 DUP3 MSTORE PUSH1 0x20 DUP1 DUP4 KECCAK256 SWAP1 SWAP2 ADD SLOAD PUSH1 0x1 PUSH1 0x1 PUSH1 0xA0 SHL SUB AND DUP1 DUP4 MSTORE PUSH1 0x3 SWAP1 SWAP2 MSTORE PUSH1 0x40 SWAP1 SWAP2 KECCAK256 SLOAD SWAP1 SWAP2 POP DUP1 ISZERO PUSH2 0x6EB JUMPI PUSH1 0x1 PUSH1 0x1 PUSH1 0xA0 SHL SUB DUP3 AND PUSH0 DUP2 DUP2 MSTORE PUSH1 0x3 PUSH1 0x20 MSTORE PUSH1 0x40 DUP1 DUP3 KECCAK256 DUP3 SWAP1 SSTORE MLOAD DUP4 ISZERO PUSH2 0x8FC MUL SWAP2 DUP5 SWAP2 SWAP1 DUP2 DUP2 DUP2 DUP6 DUP9 DUP9 CALL SWAP4 POP POP POP POP ISZERO DUP1 ISZERO PUSH2 0x6A6 JUMPI RETURNDATASIZE PUSH0 DUP1 RETURNDATACOPY RETURNDATASIZE PUSH0 REVERT JUMPDEST POP DUP2 PUSH1 0x1 PUSH1 0x1 PUSH1 0xA0 SHL SUB AND PUSH32 0xA171B6942063C6F2800CE40A780EDCE37BAA2B618571B11EEDD1E69E626E7D76 DUP3 PUSH1 0x40 MLOAD PUSH2 0x6E2 SWAP2 DUP2 MSTORE PUSH1 0x20 ADD SWAP1 JUMP JUMPDEST PUSH1 0x40 MLOAD DUP1 SWAP2 SUB SWAP1 LOG2 JUMPDEST POP POP PUSH1 0x1 ADD PUSH2 0x61A JUMP JUMPDEST POP PUSH1 0x1 SLOAD PUSH1 0x40 DUP1 MLOAD PUSH0 DUP2 MSTORE PUSH1 0x20 DUP2 ADD SWAP3 SWAP1 SWAP3 MSTORE PUSH1 0x1 PUSH1 0x1 PUSH1 0xA0 SHL SUB PUSH32 0x0 AND SWAP2 PUSH32 0x712D35F4BF4C7422AE5B3996C20CC32903765397CD70E33A25294BAF8C89DC80 SWAP2 ADD PUSH1 0x40 MLOAD DUP1 SWAP2 SUB SWAP1 LOG2 JUMP JUMPDEST PUSH32 0x0 PUSH6 0xFFFFFFFFFFFF AND TIMESTAMP GT ISZERO PUSH2 0x7CC JUMPI PUSH1 0x40 MLOAD PUSH3 0x461BCD PUSH1 0xE5 SHL DUP2 MSTORE PUSH1 0x20 PUSH1 0x4 DUP3 ADD MSTORE PUSH1 0x11 PUSH1 0x24 DUP3 ADD MSTORE PUSH17 0x111958591B1A5B9948195E18D959591959 PUSH1 0x7A SHL PUSH1 0x44 DUP3 ADD MSTORE PUSH1 0x64 ADD PUSH2 0x4D4 JUMP JUMPDEST PUSH0 SLOAD PUSH1 0xFF AND PUSH2 0x811 JUMPI PUSH1 0x40 MLOAD PUSH3 0x461BCD PUSH1 0xE5 SHL DUP2 MSTORE PUSH1 0x20 PUSH1 0x4 DUP3 ADD MSTORE PUSH1 0x11 PUSH1 0x24 DUP3 ADD MSTORE PUSH17 0x24B730B1BA34BB329021B0B6B830B4B3B7 PUSH1 0x79 SHL PUSH1 0x44 DUP3 ADD MSTORE PUSH1 0x64 ADD PUSH2 0x4D4 JUMP JUMPDEST PUSH32 0x0 PUSH1 0x1 SLOAD LT PUSH2 0x875 JUMPI PUSH1 0x40 MLOAD PUSH3 0x461BCD PUSH1 0xE5 SHL DUP2 MSTORE PUSH1 0x20 PUSH1 0x4 DUP3 ADD MSTORE PUSH1 0x10 PUSH1 0x24 DUP3 ADD MSTORE PUSH16 0x119D5B991A5B99C819DBD85B081B595D PUSH1 0x82 SHL PUSH1 0x44 DUP3 ADD MSTORE PUSH1 0x64 ADD PUSH2 0x4D4 JUMP JUMPDEST PUSH1 0x1 PUSH1 0x1 PUSH1 0xA0 SHL SUB PUSH32 0x0 AND CALLER SUB PUSH2 0x8E0 JUMPI PUSH1 0x40 MLOAD PUSH3 0x461BCD PUSH1 0xE5 SHL DUP2 MSTORE PUSH1 0x20 PUSH1 0x4 DUP3 ADD MSTORE PUSH1 0x10 PUSH1 0x24 DUP3 ADD MSTORE PUSH16 0x42656E6566696369617279206F6E6C79 PUSH1 0x80 SHL PUSH1 0x44 DUP3 ADD MSTORE PUSH1 0x64 ADD PUSH2 0x4D4 JUMP JUMPDEST PUSH1 0x4 SLOAD PUSH1 0x32 GT PUSH2 0x924 JUMPI PUSH1 0x40 MLOAD PUSH3 0x461BCD PUSH1 0xE5 SHL DUP2 MSTORE PUSH1 0x20 PUSH1 0x4 DUP3 ADD MSTORE PUSH1 0xF PUSH1 0x24 DUP3 ADD MSTORE PUSH15 0x546F6F206D616E7920646F6E6F7273 PUSH1 0x88 SHL PUSH1 0x44 DUP3 ADD MSTORE PUSH1 0x64 ADD PUSH2 0x4D4 JUMP JUMPDEST CALLER PUSH0 DUP2 DUP2 MSTORE PUSH1 0x3 PUSH1 0x20 MSTORE PUSH1 0x40 DUP2 KECCAK256 SLOAD CALLVALUE SWAP2 SUB PUSH2 0x985 JUMPI PUSH1 0x4 DUP1 SLOAD PUSH1 0x1 DUP2 ADD DUP3 SSTORE PUSH0 SWAP2 SWAP1 SWAP2 MSTORE PUSH32 0x8A35ACFBC15FF81A39AE7D344FD709F28E8600B4AA8C65C6B64BFE7FE36BD19B ADD DUP1 SLOAD PUSH1 0x1 PUSH1 0x1 PUSH1 0xA0 SHL SUB NOT AND PUSH1 0x1 PUSH1 0x1 PUSH1 0xA0 SHL SUB DUP5 AND OR SWAP1 SSTORE JUMPDEST PUSH1 0x1 PUSH1 0x1 PUSH1 0xA0 SHL SUB DUP3 AND PUSH0 SWAP1 DUP2 MSTORE PUSH1 0x3 PUSH1 0x20 MSTORE PUSH1 0x40 DUP2 KECCAK256 DUP1 SLOAD DUP4 SWAP3 SWAP1 PUSH2 0x9AC SWAP1 DUP5 SWAP1 PUSH2 0xC54 JUMP JUMPDEST SWAP1 SWAP2 SSTORE POP POP PUSH1 0x1 SLOAD PUSH0 SWAP1 PUSH2 0x9C1 SWAP1 DUP4 SWAP1 PUSH2 0xC54 JUMP JUMPDEST PUSH1 0x1 DUP2 SWAP1 SSTORE PUSH1 0x40 MLOAD DUP4 DUP2 MSTORE SWAP1 SWAP2 POP PUSH32 0xEB3301A94D74DC3EE739EC081EBEAF60C5E72B48AEF0402C21C9F049F84C9622 SWAP1 PUSH1 0x20 ADD PUSH1 0x40 MLOAD DUP1 SWAP2 SUB SWAP1 LOG1 PUSH32 0x0 DUP2 LT PUSH2 0xA4C JUMPI PUSH1 0x40 MLOAD PUSH32 0x7EFEE204BE5DF5D59D7F2294F7F2776F836D145D72998AF64B6DCBBD898E7BF6 SWAP1 PUSH0 SWAP1 LOG1 JUMPDEST POP POP POP JUMP JUMPDEST PUSH1 0x1 DUP1 SLOAD PUSH0 DUP1 SLOAD PUSH1 0xFF NOT AND DUP2 SSTORE SWAP2 DUP3 SWAP1 SSTORE PUSH1 0x40 MLOAD SWAP1 SWAP2 PUSH1 0x1 PUSH1 0x1 PUSH1 0xA0 SHL SUB PUSH32 0x0 AND SWAP2 DUP4 ISZERO PUSH2 0x8FC MUL SWAP2 DUP5 SWAP2 SWAP1 DUP2 DUP2 DUP2 DUP6 DUP9 DUP9 CALL SWAP4 POP POP POP POP ISZERO DUP1 ISZERO PUSH2 0xAB7 JUMPI RETURNDATASIZE PUSH0 DUP1 RETURNDATACOPY RETURNDATASIZE PUSH0 REVERT JUMPDEST POP PUSH1 0x40 DUP1 MLOAD PUSH1 0x1 DUP2 MSTORE PUSH1 0x20 DUP2 ADD DUP4 SWAP1 MSTORE PUSH1 0x1 PUSH1 0x1 PUSH1 0xA0 SHL SUB PUSH32 0x0 AND SWAP2 PUSH32 0x712D35F4BF4C7422AE5B3996C20CC32903765397CD70E33A25294BAF8C89DC80 SWAP2 ADD PUSH1 0x40 MLOAD DUP1 SWAP2 SUB SWAP1 LOG2 POP JUMP JUMPDEST PUSH0 DUP2 MLOAD DUP1 DUP5 MSTORE DUP1 PUSH1 0x20 DUP5 ADD PUSH1 0x20 DUP7 ADD MCOPY PUSH0 PUSH1 0x20 DUP3 DUP7 ADD ADD MSTORE PUSH1 0x20 PUSH1 0x1F NOT PUSH1 0x1F DUP4 ADD AND DUP6 ADD ADD SWAP2 POP POP SWAP3 SWAP2 POP POP JUMP JUMPDEST PUSH1 0x1 DUP1 PUSH1 0xA0 SHL SUB DUP9 AND DUP2 MSTORE DUP7 PUSH1 0x20 DUP3 ADD MSTORE PUSH1 0xE0 PUSH1 0x40 DUP3 ADD MSTORE PUSH0 PUSH2 0xB74 PUSH1 0xE0 DUP4 ADD DUP9 PUSH2 0xB20 JUMP JUMPDEST SWAP1 POP PUSH6 0xFFFFFFFFFFFF DUP7 AND PUSH1 0x60 DUP4 ADD MSTORE DUP5 PUSH1 0x80 DUP4 ADD MSTORE DUP4 PUSH1 0xA0 DUP4 ADD MSTORE DUP3 ISZERO ISZERO PUSH1 0xC0 DUP4 ADD MSTORE SWAP9 SWAP8 POP POP POP POP POP POP POP POP JUMP JUMPDEST PUSH1 0x20 DUP2 MSTORE PUSH0 PUSH2 0xBB6 PUSH1 0x20 DUP4 ADD DUP5 PUSH2 0xB20 JUMP JUMPDEST SWAP4 SWAP3 POP POP POP JUMP JUMPDEST PUSH1 0x20 DUP1 DUP3 MSTORE DUP3 MLOAD DUP3 DUP3 ADD DUP2 SWAP1 MSTORE PUSH0 SWAP2 DUP5 ADD SWAP1 PUSH1 0x40 DUP5 ADD SWAP1 DUP4 JUMPDEST DUP2 DUP2 LT ISZERO PUSH2 0xBFD JUMPI DUP4 MLOAD PUSH1 0x1 PUSH1 0x1 PUSH1 0xA0 SHL SUB AND DUP4 MSTORE PUSH1 0x20 SWAP4 DUP5 ADD SWAP4 SWAP1 SWAP3 ADD SWAP2 PUSH1 0x1 ADD PUSH2 0xBD6 JUMP JUMPDEST POP SWAP1 SWAP6 SWAP5 POP POP POP POP POP JUMP JUMPDEST PUSH1 0x1 DUP2 DUP2 SHR SWAP1 DUP3 AND DUP1 PUSH2 0xC1C JUMPI PUSH1 0x7F DUP3 AND SWAP2 POP JUMPDEST PUSH1 0x20 DUP3 LT DUP2 SUB PUSH2 0xC3A JUMPI PUSH4 0x4E487B71 PUSH1 0xE0 SHL PUSH0 MSTORE PUSH1 0x22 PUSH1 0x4 MSTORE PUSH1 0x24 PUSH0 REVERT JUMPDEST POP SWAP2 SWAP1 POP JUMP JUMPDEST PUSH4 0x4E487B71 PUSH1 0xE0 SHL PUSH0 MSTORE PUSH1 0x32 PUSH1 0x4 MSTORE PUSH1 0x24 PUSH0 REVERT JUMPDEST DUP1 DUP3 ADD DUP1 DUP3 GT ISZERO PUSH2 0xC73 JUMPI PUSH4 0x4E487B71 PUSH1 0xE0 SHL PUSH0 MSTORE PUSH1 0x11 PUSH1 0x4 MSTORE PUSH1 0x24 PUSH0 REVERT JUMPDEST SWAP3 SWAP2 POP POP JUMP INVALID LOG2 PUSH5 0x6970667358 0x22 SLT KECCAK256 0xC3 BLOCKHASH 0x2D DUP5 SGT 0xF6 CREATE PUSH12 0xA303F302D49A9207E8533BAC SLOAD MULMOD 0xDB 0xB3 BALANCE 0xCC DUP8 0xE6 PUSH12 0xF7504364736F6C634300081A STOP CALLER "
				},
				"gasEstimates": {
					"creation": {
						"codeDepositCost": "649400",
						"executionCost": "infinite",
						"totalCost": "infinite"
					},
					"external": {
						"beneficiary()": "infinite",
						"deadline()": "infinite",
						"description()": "infinite",
						"donate()": "infinite",
						"finalizeCampaign()": "infinite",
						"fundingGoal()": "infinite",
						"getCampaignDetails()": "infinite",
						"getDonors()": "infinite",
						"isActive()": "2353",
						"name()": "infinite",
						"totalFunds()": "2327"
					},
					"internal": {
						"releaseFunds()": "infinite"
					}
				},
				"methodIdentifiers": {
					"beneficiary()": "38af3eed",
					"deadline()": "29dcb0cf",
					"description()": "7284e416",
					"donate()": "ed88c68e",
					"finalizeCampaign()": "a1211bc0",
					"fundingGoal()": "7a3a0e84",
					"getCampaignDetails()": "0c611f24",
					"getDonors()": "96f300d4",
					"isActive()": "22f3e2d4",
					"name()": "06fdde03",
					"totalFunds()": "968ed600"
				}
			},
			"storageLayout": {
				"storage": [
					{
						"astId": 8,
						"contract": "backend/contracts/Campaign.sol:Campaign",
						"label": "isActive",
						"offset": 0,
						"slot": "0",
						"type": "t_bool"
					},
					{
						"astId": 12,
						"contract": "backend/contracts/Campaign.sol:Campaign",
						"label": "totalFunds",
						"offset": 0,
						"slot": "1",
						"type": "t_uint256"
					},
					{
						"astId": 16,
						"contract": "backend/contracts/Campaign.sol:Campaign",
						"label": "description",
						"offset": 0,
						"slot": "2",
						"type": "t_string_storage"
					},
					{
						"astId": 20,
						"contract": "backend/contracts/Campaign.sol:Campaign",
						"label": "donations",
						"offset": 0,
						"slot": "3",
						"type": "t_mapping(t_address,t_uint256)"
					},
					{
						"astId": 23,
						"contract": "backend/contracts/Campaign.sol:Campaign",
						"label": "donors",
						"offset": 0,
						"slot": "4",
						"type": "t_array(t_address)dyn_storage"
					}
				],
				"types": {
					"t_address": {
						"encoding": "inplace",
						"label": "address",
						"numberOfBytes": "20"
					},
					"t_array(t_address)dyn_storage": {
						"base": "t_address",
						"encoding": "dynamic_array",
						"label": "address[]",
						"numberOfBytes": "32"
					},
					"t_bool": {
						"encoding": "inplace",
						"label": "bool",
						"numberOfBytes": "1"
					},
					"t_mapping(t_address,t_uint256)": {
						"encoding": "mapping",
						"key": "t_address",
						"label": "mapping(address => uint256)",
						"numberOfBytes": "32",
						"value": "t_uint256"
					},
					"t_string_storage": {
						"encoding": "bytes",
						"label": "string",
						"numberOfBytes": "32"
					},
					"t_uint256": {
						"encoding": "inplace",
						"label": "uint256",
						"numberOfBytes": "32"
					}
				}
			},
			"userdoc": {
				"kind": "user",
				"methods": {},
				"version": 1
			}
		}
	}
}