{
	"backend/contracts/CampaignFactory.sol": {
		"CampaignFactory": {
			"abi": [
				{
					"anonymous": false,
					"inputs": [
						{
							"indexed": true,
							"internalType": "address",
							"name": "campaignAddress",
							"type": "address"
						}
					],
					"name": "CampaignCreated",
					"type": "event"
				},
				{
					"inputs": [
						{
							"internalType": "bytes32",
							"name": "_name",
							"type": "bytes32"
						},
						{
							"internalType": "bytes32",
							"name": "_description",
							"type": "bytes32"
						},
						{
							"internalType": "uint256",
							"name": "_fundingGoal",
							"type": "uint256"
						},
						{
							"internalType": "uint48",
							"name": "_deadline",
							"type": "uint48"
						}
					],
					"name": "createCampaign",
					"outputs": [],
					"stateMutability": "nonpayable",
					"type": "function"
				}
			],
			"devdoc": {
				"details": "Creates and deploy a new Campaign smart contract whenever any beneficiary creates a campaign",
				"kind": "dev",
				"methods": {
					"createCampaign(bytes32,bytes32,uint256,uint48)": {
						"details": "Allows beneficiaries to create a Campaign with the required details",
						"params": {
							"_deadline": "Timestamp of when the Campaign should be fully funded before it becomes inactive",
							"_description": "Description of the Campaign",
							"_fundingGoal": "Funding Goal for the Campaign in cryptocurrency (SepoliaETH)",
							"_name": "Name of the Campaign"
						}
					}
				},
				"title": "CampaignFactory",
				"version": 1
			},
			"evm": {
				"assembly": "    /* \"backend/contracts/CampaignFactory.sol\":247:1581  contract CampaignFactory {... */\n  mstore(0x40, 0x80)\n  callvalue\n  dup1\n  iszero\n  tag_1\n  jumpi\n  0x00\n  dup1\n  revert\ntag_1:\n  pop\n  dataSize(sub_0)\n  dup1\n  dataOffset(sub_0)\n  0x00\n  codecopy\n  0x00\n  return\nstop\n\nsub_0: assembly {\n        /* \"backend/contracts/CampaignFactory.sol\":247:1581  contract CampaignFactory {... */\n      mstore(0x40, 0x80)\n      callvalue\n      dup1\n      iszero\n      tag_1\n      jumpi\n      0x00\n      dup1\n      revert\n    tag_1:\n      pop\n      jumpi(tag_2, lt(calldatasize, 0x04))\n      shr(0xe0, calldataload(0x00))\n      dup1\n      0xf6461506\n      eq\n      tag_3\n      jumpi\n    tag_2:\n      0x00\n      dup1\n      revert\n        /* \"backend/contracts/CampaignFactory.sol\":990:1579  function createCampaign(... */\n    tag_3:\n      tag_4\n      tag_5\n      calldatasize\n      0x04\n      tag_6\n      jump\t// in\n    tag_5:\n      tag_7\n      jump\t// in\n    tag_4:\n      stop\n    tag_7:\n        /* \"backend/contracts/CampaignFactory.sol\":1196:1213  Campaign campaign */\n      0x00\n        /* \"backend/contracts/CampaignFactory.sol\":1242:1252  msg.sender */\n      caller\n        /* \"backend/contracts/CampaignFactory.sol\":1285:1290  _name */\n      dup6\n        /* \"backend/contracts/CampaignFactory.sol\":1304:1316  _description */\n      dup6\n        /* \"backend/contracts/CampaignFactory.sol\":1330:1342  _fundingGoal */\n      dup6\n        /* \"backend/contracts/CampaignFactory.sol\":1356:1365  _deadline */\n      dup6\n        /* \"backend/contracts/CampaignFactory.sol\":1216:1375  new Campaign(... */\n      mload(0x40)\n      tag_9\n      swap1\n      tag_10\n      jump\t// in\n    tag_9:\n      sub(shl(0xa0, 0x01), 0x01)\n        /* \"#utility.yul\":885:917   */\n      swap1\n      swap6\n      and\n        /* \"#utility.yul\":867:918   */\n      dup6\n      mstore\n        /* \"#utility.yul\":949:951   */\n      0x20\n        /* \"#utility.yul\":934:952   */\n      dup6\n      add\n        /* \"#utility.yul\":927:961   */\n      swap4\n      swap1\n      swap4\n      mstore\n        /* \"#utility.yul\":992:994   */\n      0x40\n        /* \"#utility.yul\":977:995   */\n      dup5\n      add\n        /* \"#utility.yul\":970:1004   */\n      swap2\n      swap1\n      swap2\n      mstore\n        /* \"#utility.yul\":1035:1037   */\n      0x60\n        /* \"#utility.yul\":1020:1038   */\n      dup4\n      add\n        /* \"#utility.yul\":1013:1047   */\n      mstore\n        /* \"#utility.yul\":1096:1110   */\n      0xffffffffffff\n        /* \"#utility.yul\":1084:1111   */\n      and\n        /* \"#utility.yul\":1078:1081   */\n      0x80\n        /* \"#utility.yul\":1063:1082   */\n      dup3\n      add\n        /* \"#utility.yul\":1056:1112   */\n      mstore\n        /* \"#utility.yul\":854:857   */\n      0xa0\n        /* \"#utility.yul\":839:858   */\n      add\n        /* \"backend/contracts/CampaignFactory.sol\":1216:1375  new Campaign(... */\n      mload(0x40)\n      dup1\n      swap2\n      sub\n      swap1\n      0x00\n      create\n      dup1\n      iszero\n      dup1\n      iszero\n      tag_13\n      jumpi\n      returndatasize\n      0x00\n      dup1\n      returndatacopy\n      revert(0x00, returndatasize)\n    tag_13:\n      pop\n        /* \"backend/contracts/CampaignFactory.sol\":1538:1572  CampaignCreated(address(campaign)) */\n      mload(0x40)\n        /* \"backend/contracts/CampaignFactory.sol\":1196:1375  Campaign campaign = new Campaign(... */\n      swap1\n      swap2\n      pop\n      sub(shl(0xa0, 0x01), 0x01)\n        /* \"backend/contracts/CampaignFactory.sol\":1538:1572  CampaignCreated(address(campaign)) */\n      dup3\n      and\n      swap1\n      0x07a9c134c6ed9c353773b355c69cbf65e34e3c3820554f5b8e1afdecdfb40292\n      swap1\n      0x00\n      swap1\n      log2\n        /* \"backend/contracts/CampaignFactory.sol\":1138:1579  {... */\n      pop\n        /* \"backend/contracts/CampaignFactory.sol\":990:1579  function createCampaign(... */\n      pop\n      pop\n      pop\n      pop\n      jump\t// out\n    tag_10:\n      dataSize(sub_0)\n      dup1\n      dataOffset(sub_0)\n      dup4\n      codecopy\n      add\n      swap1\n      jump\t// out\n        /* \"#utility.yul\":14:605   */\n    tag_6:\n        /* \"#utility.yul\":99:105   */\n      0x00\n        /* \"#utility.yul\":107:113   */\n      dup1\n        /* \"#utility.yul\":115:121   */\n      0x00\n        /* \"#utility.yul\":123:129   */\n      dup1\n        /* \"#utility.yul\":176:179   */\n      0x80\n        /* \"#utility.yul\":164:173   */\n      dup6\n        /* \"#utility.yul\":155:162   */\n      dup8\n        /* \"#utility.yul\":151:174   */\n      sub\n        /* \"#utility.yul\":147:180   */\n      slt\n        /* \"#utility.yul\":144:197   */\n      iszero\n      tag_16\n      jumpi\n        /* \"#utility.yul\":193:194   */\n      0x00\n        /* \"#utility.yul\":190:191   */\n      dup1\n        /* \"#utility.yul\":183:195   */\n      revert\n        /* \"#utility.yul\":144:197   */\n    tag_16:\n        /* \"#utility.yul\":238:261   */\n      dup5\n      calldataload\n      swap4\n      pop\n        /* \"#utility.yul\":358:360   */\n      0x20\n        /* \"#utility.yul\":343:361   */\n      dup6\n      add\n        /* \"#utility.yul\":330:362   */\n      calldataload\n      swap3\n      pop\n        /* \"#utility.yul\":435:437   */\n      0x40\n        /* \"#utility.yul\":420:438   */\n      dup6\n      add\n        /* \"#utility.yul\":407:439   */\n      calldataload\n      swap2\n      pop\n        /* \"#utility.yul\":491:493   */\n      0x60\n        /* \"#utility.yul\":476:494   */\n      dup6\n      add\n        /* \"#utility.yul\":463:495   */\n      calldataload\n        /* \"#utility.yul\":539:553   */\n      0xffffffffffff\n        /* \"#utility.yul\":526:554   */\n      dup2\n      and\n        /* \"#utility.yul\":514:555   */\n      dup2\n      eq\n        /* \"#utility.yul\":504:573   */\n      tag_17\n      jumpi\n        /* \"#utility.yul\":569:570   */\n      0x00\n        /* \"#utility.yul\":566:567   */\n      dup1\n        /* \"#utility.yul\":559:571   */\n      revert\n        /* \"#utility.yul\":504:573   */\n    tag_17:\n        /* \"#utility.yul\":14:605   */\n      swap4\n      swap7\n      swap3\n      swap6\n      pop\n      swap1\n      swap4\n      pop\n      pop\n      jump\t// out\n    stop\n\n    sub_0: assembly {\n            /* \"backend/contracts/Campaign.sol\":226:7792  contract Campaign {... */\n          mstore(0x40, 0x0120)\n            /* \"backend/contracts/Campaign.sol\":1439:1829  constructor(... */\n          callvalue\n          dup1\n          iszero\n          tag_1\n          jumpi\n          0x00\n          dup1\n          revert\n        tag_1:\n          pop\n          mload(0x40)\n          sub(codesize, bytecodeSize)\n          dup1\n          bytecodeSize\n          dup4\n          codecopy\n          dup2\n          add\n          0x40\n          dup2\n          swap1\n          mstore\n          tag_2\n          swap2\n          tag_3\n          jump\t// in\n        tag_2:\n          sub(shl(0xa0, 0x01), 0x01)\n            /* \"backend/contracts/Campaign.sol\":1606:1632  beneficiary = _beneficiary */\n          swap1\n          swap5\n          and\n          0x80\n          mstore\n            /* \"backend/contracts/Campaign.sol\":1642:1654  name = _name */\n          0xe0\n          swap3\n          swap1\n          swap3\n          mstore\n            /* \"backend/contracts/Campaign.sol\":1664:1690  description = _description */\n          0x0100\n          mstore\n            /* \"backend/contracts/Campaign.sol\":1700:1726  fundingGoal = _fundingGoal */\n          0xc0\n          mstore\n            /* \"backend/contracts/Campaign.sol\":1736:1756  deadline = _deadline */\n          0xffffffffffff\n          and\n          0xa0\n          mstore\n            /* \"backend/contracts/Campaign.sol\":1766:1774  isActive */\n          0x00\n            /* \"backend/contracts/Campaign.sol\":1766:1781  isActive = true */\n          dup1\n          sload\n          not(0xff)\n          and\n            /* \"backend/contracts/Campaign.sol\":1777:1781  true */\n          0x01\n            /* \"backend/contracts/Campaign.sol\":1766:1781  isActive = true */\n          or\n          swap1\n          sstore\n            /* \"backend/contracts/Campaign.sol\":226:7792  contract Campaign {... */\n          jump(tag_7)\n            /* \"#utility.yul\":14:762   */\n        tag_3:\n            /* \"#utility.yul\":119:125   */\n          0x00\n            /* \"#utility.yul\":127:133   */\n          dup1\n            /* \"#utility.yul\":135:141   */\n          0x00\n            /* \"#utility.yul\":143:149   */\n          dup1\n            /* \"#utility.yul\":151:157   */\n          0x00\n            /* \"#utility.yul\":204:207   */\n          0xa0\n            /* \"#utility.yul\":192:201   */\n          dup7\n            /* \"#utility.yul\":183:190   */\n          dup9\n            /* \"#utility.yul\":179:202   */\n          sub\n            /* \"#utility.yul\":175:208   */\n          slt\n            /* \"#utility.yul\":172:225   */\n          iszero\n          tag_9\n          jumpi\n            /* \"#utility.yul\":221:222   */\n          0x00\n            /* \"#utility.yul\":218:219   */\n          dup1\n            /* \"#utility.yul\":211:223   */\n          revert\n            /* \"#utility.yul\":172:225   */\n        tag_9:\n            /* \"#utility.yul\":247:263   */\n          dup6\n          mload\n          sub(shl(0xa0, 0x01), 0x01)\n            /* \"#utility.yul\":292:323   */\n          dup2\n          and\n            /* \"#utility.yul\":282:324   */\n          dup2\n          eq\n            /* \"#utility.yul\":272:342   */\n          tag_10\n          jumpi\n            /* \"#utility.yul\":338:339   */\n          0x00\n            /* \"#utility.yul\":335:336   */\n          dup1\n            /* \"#utility.yul\":328:340   */\n          revert\n            /* \"#utility.yul\":272:342   */\n        tag_10:\n            /* \"#utility.yul\":432:434   */\n          0x20\n            /* \"#utility.yul\":417:435   */\n          dup8\n          add\n            /* \"#utility.yul\":411:436   */\n          mload\n            /* \"#utility.yul\":528:530   */\n          0x40\n            /* \"#utility.yul\":513:531   */\n          dup9\n          add\n            /* \"#utility.yul\":507:532   */\n          mload\n            /* \"#utility.yul\":598:600   */\n          0x60\n            /* \"#utility.yul\":583:601   */\n          dup10\n          add\n            /* \"#utility.yul\":577:602   */\n          mload\n            /* \"#utility.yul\":647:650   */\n          0x80\n            /* \"#utility.yul\":632:651   */\n          dup11\n          add\n            /* \"#utility.yul\":626:652   */\n          mload\n            /* \"#utility.yul\":361:366   */\n          swap4\n          swap9\n          pop\n            /* \"#utility.yul\":411:436   */\n          swap2\n          swap7\n          pop\n            /* \"#utility.yul\":507:532   */\n          swap5\n          pop\n            /* \"#utility.yul\":577:602   */\n          swap3\n          pop\n            /* \"#utility.yul\":696:710   */\n          0xffffffffffff\n            /* \"#utility.yul\":683:711   */\n          dup2\n          and\n            /* \"#utility.yul\":671:712   */\n          dup2\n          eq\n            /* \"#utility.yul\":661:730   */\n          tag_11\n          jumpi\n            /* \"#utility.yul\":726:727   */\n          0x00\n            /* \"#utility.yul\":723:724   */\n          dup1\n            /* \"#utility.yul\":716:728   */\n          revert\n            /* \"#utility.yul\":661:730   */\n        tag_11:\n            /* \"#utility.yul\":749:756   */\n          dup1\n            /* \"#utility.yul\":739:756   */\n          swap2\n          pop\n          pop\n            /* \"#utility.yul\":14:762   */\n          swap3\n          swap6\n          pop\n          swap3\n          swap6\n          swap1\n          swap4\n          pop\n          jump\t// out\n        tag_7:\n            /* \"backend/contracts/Campaign.sol\":226:7792  contract Campaign {... */\n          mload(0x80)\n          mload(0xa0)\n          mload(0xc0)\n          mload(0xe0)\n          mload(0x0100)\n          codecopy(0x00, dataOffset(sub_0), dataSize(sub_0))\n          0x00\n          assignImmutable(\"0x277ab82e5a4641341820a4a2933a62c1de997e42e92548657ae21b3728d580fe\")\n          0x00\n          assignImmutable(\"0x5c4c6aa067b6f8e6cb38e6ab843832a94d1712d661a04d73c517d6a1931a9e5d\")\n          0x00\n          assignImmutable(\"0x1a192fabce13988b84994d4296e6cdc418d55e2f1d7f942188d4040b94fc57ac\")\n          0x00\n          assignImmutable(\"0xe455bf8ea6e7463a1046a0b52804526e119b4bf5136279614e0b1e8e296a4e2d\")\n          0x00\n          assignImmutable(\"0x13600b294191fc92924bb3ce4b969c1e7e2bab8f4c93c3fc6d0a51733df3c060\")\n          return(0x00, dataSize(sub_0))\n        stop\n\n        sub_0: assembly {\n                /* \"backend/contracts/Campaign.sol\":226:7792  contract Campaign {... */\n              mstore(0x40, 0x80)\n              jumpi(tag_1, lt(calldatasize, 0x04))\n              shr(0xe0, calldataload(0x00))\n              dup1\n              0x7a3a0e84\n              gt\n              tag_14\n              jumpi\n              dup1\n              0x7a3a0e84\n              eq\n              tag_8\n              jumpi\n              dup1\n              0x968ed600\n              eq\n              tag_9\n              jumpi\n              dup1\n              0x96f300d4\n              eq\n              tag_10\n              jumpi\n              dup1\n              0xa1211bc0\n              eq\n              tag_11\n              jumpi\n              dup1\n              0xd506b8b5\n              eq\n              tag_12\n              jumpi\n              dup1\n              0xed88c68e\n              eq\n              tag_13\n              jumpi\n              0x00\n              dup1\n              revert\n            tag_14:\n              dup1\n              0x06fdde03\n              eq\n              tag_2\n              jumpi\n              dup1\n              0x0c611f24\n              eq\n              tag_3\n              jumpi\n              dup1\n              0x22f3e2d4\n              eq\n              tag_4\n              jumpi\n              dup1\n              0x29dcb0cf\n              eq\n              tag_5\n              jumpi\n              dup1\n              0x38af3eed\n              eq\n              tag_6\n              jumpi\n              dup1\n              0x7284e416\n              eq\n              tag_7\n              jumpi\n            tag_1:\n              0x00\n              dup1\n              revert\n                /* \"backend/contracts/Campaign.sol\":731:760  bytes32 public immutable name */\n            tag_2:\n              callvalue\n              dup1\n              iszero\n              tag_15\n              jumpi\n              0x00\n              dup1\n              revert\n            tag_15:\n              pop\n              tag_16\n              immutable(\"0x5c4c6aa067b6f8e6cb38e6ab843832a94d1712d661a04d73c517d6a1931a9e5d\")\n              dup2\n              jump\n            tag_16:\n              mload(0x40)\n                /* \"#utility.yul\":160:185   */\n              swap1\n              dup2\n              mstore\n                /* \"#utility.yul\":148:150   */\n              0x20\n                /* \"#utility.yul\":133:151   */\n              add\n                /* \"backend/contracts/Campaign.sol\":731:760  bytes32 public immutable name */\n            tag_18:\n              mload(0x40)\n              dup1\n              swap2\n              sub\n              swap1\n              return\n                /* \"backend/contracts/Campaign.sol\":7150:7790  function getCampaignDetails()... */\n            tag_3:\n              callvalue\n              dup1\n              iszero\n              tag_20\n              jumpi\n              0x00\n              dup1\n              revert\n            tag_20:\n              pop\n                /* \"backend/contracts/Campaign.sol\":7736:7746  totalFunds */\n              sload(0x01)\n                /* \"backend/contracts/Campaign.sol\":7240:7267  address campaignBeneficiary */\n              0x00\n                /* \"backend/contracts/Campaign.sol\":7775:7783  isActive */\n              sload\n                /* \"backend/contracts/Campaign.sol\":7150:7790  function getCampaignDetails()... */\n              0x40\n              dup1\n              mload\n              sub(shl(0xa0, 0x01), 0x01)\n                /* \"backend/contracts/Campaign.sol\":7542:7553  beneficiary */\n              immutable(\"0x13600b294191fc92924bb3ce4b969c1e7e2bab8f4c93c3fc6d0a51733df3c060\")\n                /* \"#utility.yul\":521:553   */\n              and\n                /* \"#utility.yul\":503:554   */\n              dup2\n              mstore\n                /* \"backend/contracts/Campaign.sol\":7578:7582  name */\n              immutable(\"0x5c4c6aa067b6f8e6cb38e6ab843832a94d1712d661a04d73c517d6a1931a9e5d\")\n                /* \"#utility.yul\":585:587   */\n              0x20\n                /* \"#utility.yul\":570:588   */\n              dup3\n              add\n                /* \"#utility.yul\":563:597   */\n              mstore\n                /* \"backend/contracts/Campaign.sol\":7614:7625  description */\n              immutable(\"0x277ab82e5a4641341820a4a2933a62c1de997e42e92548657ae21b3728d580fe\")\n                /* \"#utility.yul\":613:631   */\n              swap2\n              dup2\n              add\n                /* \"#utility.yul\":606:640   */\n              swap2\n              swap1\n              swap2\n              mstore\n                /* \"#utility.yul\":688:702   */\n              0xffffffffffff\n                /* \"backend/contracts/Campaign.sol\":7654:7662  deadline */\n              immutable(\"0xe455bf8ea6e7463a1046a0b52804526e119b4bf5136279614e0b1e8e296a4e2d\")\n                /* \"#utility.yul\":676:703   */\n              and\n                /* \"#utility.yul\":671:673   */\n              0x60\n                /* \"#utility.yul\":656:674   */\n              dup3\n              add\n                /* \"#utility.yul\":649:704   */\n              mstore\n                /* \"backend/contracts/Campaign.sol\":7694:7705  fundingGoal */\n              immutable(\"0x1a192fabce13988b84994d4296e6cdc418d55e2f1d7f942188d4040b94fc57ac\")\n                /* \"#utility.yul\":735:738   */\n              0x80\n                /* \"#utility.yul\":720:739   */\n              dup3\n              add\n                /* \"#utility.yul\":713:748   */\n              mstore\n                /* \"#utility.yul\":541:544   */\n              0xa0\n                /* \"#utility.yul\":764:783   */\n              dup2\n              add\n                /* \"#utility.yul\":757:792   */\n              swap3\n              swap1\n              swap3\n              mstore\n                /* \"backend/contracts/Campaign.sol\":7775:7783  isActive */\n              0xff\n              and\n                /* \"#utility.yul\":836:850   */\n              iszero\n                /* \"#utility.yul\":829:851   */\n              iszero\n                /* \"#utility.yul\":823:826   */\n              0xc0\n                /* \"#utility.yul\":808:827   */\n              dup3\n              add\n                /* \"#utility.yul\":801:852   */\n              mstore\n                /* \"#utility.yul\":490:493   */\n              0xe0\n                /* \"#utility.yul\":475:494   */\n              add\n                /* \"backend/contracts/Campaign.sol\":7150:7790  function getCampaignDetails()... */\n              tag_18\n                /* \"#utility.yul\":196:858   */\n              jump\n                /* \"backend/contracts/Campaign.sol\":407:427  bool public isActive */\n            tag_4:\n              callvalue\n              dup1\n              iszero\n              tag_25\n              jumpi\n              0x00\n              dup1\n              revert\n            tag_25:\n              pop\n              sload(0x00)\n              tag_26\n              swap1\n              0xff\n              and\n              dup2\n              jump\n            tag_26:\n              mload(0x40)\n                /* \"#utility.yul\":1028:1042   */\n              swap1\n              iszero\n                /* \"#utility.yul\":1021:1043   */\n              iszero\n                /* \"#utility.yul\":1003:1044   */\n              dup2\n              mstore\n                /* \"#utility.yul\":991:993   */\n              0x20\n                /* \"#utility.yul\":976:994   */\n              add\n                /* \"backend/contracts/Campaign.sol\":407:427  bool public isActive */\n              tag_18\n                /* \"#utility.yul\":863:1050   */\n              jump\n                /* \"backend/contracts/Campaign.sol\":358:390  uint48 public immutable deadline */\n            tag_5:\n              callvalue\n              dup1\n              iszero\n              tag_30\n              jumpi\n              0x00\n              dup1\n              revert\n            tag_30:\n              pop\n              tag_31\n              immutable(\"0xe455bf8ea6e7463a1046a0b52804526e119b4bf5136279614e0b1e8e296a4e2d\")\n              dup2\n              jump\n            tag_31:\n              mload(0x40)\n                /* \"#utility.yul\":1229:1243   */\n              0xffffffffffff\n                /* \"#utility.yul\":1217:1244   */\n              swap1\n              swap2\n              and\n                /* \"#utility.yul\":1199:1245   */\n              dup2\n              mstore\n                /* \"#utility.yul\":1187:1189   */\n              0x20\n                /* \"#utility.yul\":1172:1190   */\n              add\n                /* \"backend/contracts/Campaign.sol\":358:390  uint48 public immutable deadline */\n              tag_18\n                /* \"#utility.yul\":1055:1251   */\n              jump\n                /* \"backend/contracts/Campaign.sol\":304:340  address public immutable beneficiary */\n            tag_6:\n              callvalue\n              dup1\n              iszero\n              tag_35\n              jumpi\n              0x00\n              dup1\n              revert\n            tag_35:\n              pop\n              tag_36\n              immutable(\"0x13600b294191fc92924bb3ce4b969c1e7e2bab8f4c93c3fc6d0a51733df3c060\")\n              dup2\n              jump\n            tag_36:\n              mload(0x40)\n              sub(shl(0xa0, 0x01), 0x01)\n                /* \"#utility.yul\":1420:1452   */\n              swap1\n              swap2\n              and\n                /* \"#utility.yul\":1402:1453   */\n              dup2\n              mstore\n                /* \"#utility.yul\":1390:1392   */\n              0x20\n                /* \"#utility.yul\":1375:1393   */\n              add\n                /* \"backend/contracts/Campaign.sol\":304:340  address public immutable beneficiary */\n              tag_18\n                /* \"#utility.yul\":1256:1459   */\n              jump\n                /* \"backend/contracts/Campaign.sol\":778:814  bytes32 public immutable description */\n            tag_7:\n              callvalue\n              dup1\n              iszero\n              tag_40\n              jumpi\n              0x00\n              dup1\n              revert\n            tag_40:\n              pop\n              tag_16\n              immutable(\"0x277ab82e5a4641341820a4a2933a62c1de997e42e92548657ae21b3728d580fe\")\n              dup2\n              jump\n                /* \"backend/contracts/Campaign.sol\":593:629  uint256 public immutable fundingGoal */\n            tag_8:\n              callvalue\n              dup1\n              iszero\n              tag_44\n              jumpi\n              0x00\n              dup1\n              revert\n            tag_44:\n              pop\n              tag_16\n              immutable(\"0x1a192fabce13988b84994d4296e6cdc418d55e2f1d7f942188d4040b94fc57ac\")\n              dup2\n              jump\n                /* \"backend/contracts/Campaign.sol\":662:687  uint256 public totalFunds */\n            tag_9:\n              callvalue\n              dup1\n              iszero\n              tag_49\n              jumpi\n              0x00\n              dup1\n              revert\n            tag_49:\n              pop\n              tag_16\n              sload(0x01)\n              dup2\n              jump\n                /* \"backend/contracts/Campaign.sol\":6970:7062  function getDonors() external view returns (address[] memory) {... */\n            tag_10:\n              callvalue\n              dup1\n              iszero\n              tag_53\n              jumpi\n              0x00\n              dup1\n              revert\n            tag_53:\n              pop\n              tag_54\n              tag_55\n              jump\t// in\n            tag_54:\n              mload(0x40)\n              tag_18\n              swap2\n              swap1\n              tag_57\n              jump\t// in\n                /* \"backend/contracts/Campaign.sol\":4879:5298  function finalizeCampaign()... */\n            tag_11:\n              callvalue\n              dup1\n              iszero\n              tag_58\n              jumpi\n              0x00\n              dup1\n              revert\n            tag_58:\n              pop\n              tag_59\n              tag_60\n              jump\t// in\n            tag_59:\n              stop\n                /* \"backend/contracts/Campaign.sol\":6231:6777  function processRefundsBatch(uint256 start, uint256 end)... */\n            tag_12:\n              callvalue\n              dup1\n              iszero\n              tag_61\n              jumpi\n              0x00\n              dup1\n              revert\n            tag_61:\n              pop\n              tag_59\n              tag_63\n              calldatasize\n              0x04\n              tag_64\n              jump\t// in\n            tag_63:\n              tag_65\n              jump\t// in\n                /* \"backend/contracts/Campaign.sol\":3689:4655  function donate()... */\n            tag_13:\n              tag_59\n              tag_67\n              jump\t// in\n                /* \"backend/contracts/Campaign.sol\":6970:7062  function getDonors() external view returns (address[] memory) {... */\n            tag_55:\n                /* \"backend/contracts/Campaign.sol\":7014:7030  address[] memory */\n              0x60\n                /* \"backend/contracts/Campaign.sol\":7049:7055  donors */\n              0x03\n                /* \"backend/contracts/Campaign.sol\":7042:7055  return donors */\n              dup1\n              sload\n              dup1\n              0x20\n              mul\n              0x20\n              add\n              mload(0x40)\n              swap1\n              dup2\n              add\n              0x40\n              mstore\n              dup1\n              swap3\n              swap2\n              swap1\n              dup2\n              dup2\n              mstore\n              0x20\n              add\n              dup3\n              dup1\n              sload\n              dup1\n              iszero\n              tag_70\n              jumpi\n              0x20\n              mul\n              dup3\n              add\n              swap2\n              swap1\n              0x00\n              mstore\n              keccak256(0x00, 0x20)\n              swap1\n            tag_71:\n              dup2\n              sload\n              sub(shl(0xa0, 0x01), 0x01)\n              and\n              dup2\n              mstore\n              0x01\n              swap1\n              swap2\n              add\n              swap1\n              0x20\n              add\n              dup1\n              dup4\n              gt\n              tag_71\n              jumpi\n            tag_70:\n              pop\n              pop\n              pop\n              pop\n              pop\n              swap1\n              pop\n                /* \"backend/contracts/Campaign.sol\":6970:7062  function getDonors() external view returns (address[] memory) {... */\n              swap1\n              jump\t// out\n                /* \"backend/contracts/Campaign.sol\":4879:5298  function finalizeCampaign()... */\n            tag_60:\n                /* \"backend/contracts/Campaign.sol\":3083:3091  isActive */\n              and(0xff, sload(0x00))\n                /* \"backend/contracts/Campaign.sol\":3075:3113  require(isActive, \"Inactive Campaign\") */\n              tag_73\n              jumpi\n              mload(0x40)\n              shl(0xe5, 0x461bcd)\n              dup2\n              mstore\n                /* \"#utility.yul\":2841:2843   */\n              0x20\n                /* \"backend/contracts/Campaign.sol\":3075:3113  require(isActive, \"Inactive Campaign\") */\n              0x04\n              dup3\n              add\n                /* \"#utility.yul\":2823:2844   */\n              mstore\n                /* \"#utility.yul\":2880:2882   */\n              0x11\n                /* \"#utility.yul\":2860:2878   */\n              0x24\n              dup3\n              add\n                /* \"#utility.yul\":2853:2883   */\n              mstore\n              shl(0x79, 0x24b730b1ba34bb329021b0b6b830b4b3b7)\n                /* \"#utility.yul\":2899:2917   */\n              0x44\n              dup3\n              add\n                /* \"#utility.yul\":2892:2939   */\n              mstore\n                /* \"#utility.yul\":2956:2974   */\n              0x64\n              add\n                /* \"backend/contracts/Campaign.sol\":3075:3113  require(isActive, \"Inactive Campaign\") */\n            tag_74:\n              mload(0x40)\n              dup1\n              swap2\n              sub\n              swap1\n              revert\n            tag_73:\n                /* \"backend/contracts/Campaign.sol\":3213:3221  deadline */\n              immutable(\"0xe455bf8ea6e7463a1046a0b52804526e119b4bf5136279614e0b1e8e296a4e2d\")\n                /* \"backend/contracts/Campaign.sol\":3195:3221  block.timestamp > deadline */\n              0xffffffffffff\n              and\n                /* \"backend/contracts/Campaign.sol\":3195:3210  block.timestamp */\n              timestamp\n                /* \"backend/contracts/Campaign.sol\":3195:3221  block.timestamp > deadline */\n              gt\n                /* \"backend/contracts/Campaign.sol\":3195:3250  block.timestamp > deadline || totalFunds >= fundingGoal */\n              dup1\n              tag_77\n              jumpi\n              pop\n                /* \"backend/contracts/Campaign.sol\":3239:3250  fundingGoal */\n              immutable(\"0x1a192fabce13988b84994d4296e6cdc418d55e2f1d7f942188d4040b94fc57ac\")\n                /* \"backend/contracts/Campaign.sol\":3225:3235  totalFunds */\n              sload(0x01)\n                /* \"backend/contracts/Campaign.sol\":3225:3250  totalFunds >= fundingGoal */\n              lt\n              iszero\n                /* \"backend/contracts/Campaign.sol\":3195:3250  block.timestamp > deadline || totalFunds >= fundingGoal */\n            tag_77:\n                /* \"backend/contracts/Campaign.sol\":3174:3291  require(... */\n              tag_78\n              jumpi\n              mload(0x40)\n              shl(0xe5, 0x461bcd)\n              dup2\n              mstore\n                /* \"#utility.yul\":3187:3189   */\n              0x20\n                /* \"backend/contracts/Campaign.sol\":3174:3291  require(... */\n              0x04\n              dup3\n              add\n                /* \"#utility.yul\":3169:3190   */\n              mstore\n                /* \"#utility.yul\":3226:3228   */\n              0x0f\n                /* \"#utility.yul\":3206:3224   */\n              0x24\n              dup3\n              add\n                /* \"#utility.yul\":3199:3229   */\n              mstore\n              shl(0x88, 0x43616e6e6f742066696e616c697a65)\n                /* \"#utility.yul\":3245:3263   */\n              0x44\n              dup3\n              add\n                /* \"#utility.yul\":3238:3283   */\n              mstore\n                /* \"#utility.yul\":3300:3318   */\n              0x64\n              add\n                /* \"backend/contracts/Campaign.sol\":3174:3291  require(... */\n              tag_74\n                /* \"#utility.yul\":2985:3324   */\n              jump\n                /* \"backend/contracts/Campaign.sol\":3174:3291  require(... */\n            tag_78:\n                /* \"backend/contracts/Campaign.sol\":2967:2977  msg.sender */\n              caller\n              sub(shl(0xa0, 0x01), 0x01)\n                /* \"backend/contracts/Campaign.sol\":2981:2992  beneficiary */\n              immutable(\"0x13600b294191fc92924bb3ce4b969c1e7e2bab8f4c93c3fc6d0a51733df3c060\")\n                /* \"backend/contracts/Campaign.sol\":2967:2992  msg.sender == beneficiary */\n              and\n              eq\n                /* \"backend/contracts/Campaign.sol\":2959:3013  require(msg.sender == beneficiary, \"Beneficiary only\") */\n              tag_82\n              jumpi\n              mload(0x40)\n              shl(0xe5, 0x461bcd)\n              dup2\n              mstore\n                /* \"#utility.yul\":3531:3533   */\n              0x20\n                /* \"backend/contracts/Campaign.sol\":2959:3013  require(msg.sender == beneficiary, \"Beneficiary only\") */\n              0x04\n              dup3\n              add\n                /* \"#utility.yul\":3513:3534   */\n              mstore\n                /* \"#utility.yul\":3570:3572   */\n              0x10\n                /* \"#utility.yul\":3550:3568   */\n              0x24\n              dup3\n              add\n                /* \"#utility.yul\":3543:3573   */\n              mstore\n              shl(0x80, 0x42656e6566696369617279206f6e6c79)\n                /* \"#utility.yul\":3589:3607   */\n              0x44\n              dup3\n              add\n                /* \"#utility.yul\":3582:3628   */\n              mstore\n                /* \"#utility.yul\":3645:3663   */\n              0x64\n              add\n                /* \"backend/contracts/Campaign.sol\":2959:3013  require(msg.sender == beneficiary, \"Beneficiary only\") */\n              tag_74\n                /* \"#utility.yul\":3329:3669   */\n              jump\n                /* \"backend/contracts/Campaign.sol\":2959:3013  require(msg.sender == beneficiary, \"Beneficiary only\") */\n            tag_82:\n                /* \"backend/contracts/Campaign.sol\":5029:5040  fundingGoal */\n              immutable(\"0x1a192fabce13988b84994d4296e6cdc418d55e2f1d7f942188d4040b94fc57ac\")\n                /* \"backend/contracts/Campaign.sol\":5015:5025  totalFunds */\n              sload(0x01)\n                /* \"backend/contracts/Campaign.sol\":5015:5040  totalFunds >= fundingGoal */\n              lt\n                /* \"backend/contracts/Campaign.sol\":5011:5292  if (totalFunds >= fundingGoal) {... */\n              tag_86\n              jumpi\n                /* \"backend/contracts/Campaign.sol\":5056:5070  releaseFunds() */\n              tag_87\n                /* \"backend/contracts/Campaign.sol\":5056:5068  releaseFunds */\n              tag_88\n                /* \"backend/contracts/Campaign.sol\":5056:5070  releaseFunds() */\n              jump\t// in\n            tag_87:\n                /* \"backend/contracts/Campaign.sol\":4879:5298  function finalizeCampaign()... */\n              jump\t// out\n                /* \"backend/contracts/Campaign.sol\":5011:5292  if (totalFunds >= fundingGoal) {... */\n            tag_86:\n                /* \"backend/contracts/Campaign.sol\":5112:5117  false */\n              0x00\n                /* \"backend/contracts/Campaign.sol\":5101:5117  isActive = false */\n              dup1\n              sload\n              not(0xff)\n              and\n              dup2\n              sstore\n              0x01\n                /* \"backend/contracts/Campaign.sol\":5270:5280  totalFunds */\n              sload\n                /* \"backend/contracts/Campaign.sol\":5232:5281  CampaignFinalized(beneficiary, false, totalFunds) */\n              0x40\n              dup1\n              mload\n                /* \"#utility.yul\":3842:3883   */\n              swap3\n              dup4\n              mstore\n                /* \"#utility.yul\":3914:3916   */\n              0x20\n                /* \"#utility.yul\":3899:3917   */\n              dup4\n              add\n                /* \"#utility.yul\":3892:3926   */\n              swap2\n              swap1\n              swap2\n              mstore\n                /* \"backend/contracts/Campaign.sol\":5250:5261  beneficiary */\n              immutable(\"0x13600b294191fc92924bb3ce4b969c1e7e2bab8f4c93c3fc6d0a51733df3c060\")\n              sub(shl(0xa0, 0x01), 0x01)\n                /* \"backend/contracts/Campaign.sol\":5232:5281  CampaignFinalized(beneficiary, false, totalFunds) */\n              and\n              swap2\n              0x712d35f4bf4c7422ae5b3996c20cc32903765397cd70e33a25294baf8c89dc80\n              swap2\n                /* \"#utility.yul\":3815:3833   */\n              add\n                /* \"backend/contracts/Campaign.sol\":5232:5281  CampaignFinalized(beneficiary, false, totalFunds) */\n              mload(0x40)\n              dup1\n              swap2\n              sub\n              swap1\n              log2\n                /* \"backend/contracts/Campaign.sol\":4879:5298  function finalizeCampaign()... */\n              jump\t// out\n                /* \"backend/contracts/Campaign.sol\":6231:6777  function processRefundsBatch(uint256 start, uint256 end)... */\n            tag_65:\n                /* \"backend/contracts/Campaign.sol\":2967:2977  msg.sender */\n              caller\n              sub(shl(0xa0, 0x01), 0x01)\n                /* \"backend/contracts/Campaign.sol\":2981:2992  beneficiary */\n              immutable(\"0x13600b294191fc92924bb3ce4b969c1e7e2bab8f4c93c3fc6d0a51733df3c060\")\n                /* \"backend/contracts/Campaign.sol\":2967:2992  msg.sender == beneficiary */\n              and\n              eq\n                /* \"backend/contracts/Campaign.sol\":2959:3013  require(msg.sender == beneficiary, \"Beneficiary only\") */\n              tag_93\n              jumpi\n              mload(0x40)\n              shl(0xe5, 0x461bcd)\n              dup2\n              mstore\n                /* \"#utility.yul\":3531:3533   */\n              0x20\n                /* \"backend/contracts/Campaign.sol\":2959:3013  require(msg.sender == beneficiary, \"Beneficiary only\") */\n              0x04\n              dup3\n              add\n                /* \"#utility.yul\":3513:3534   */\n              mstore\n                /* \"#utility.yul\":3570:3572   */\n              0x10\n                /* \"#utility.yul\":3550:3568   */\n              0x24\n              dup3\n              add\n                /* \"#utility.yul\":3543:3573   */\n              mstore\n              shl(0x80, 0x42656e6566696369617279206f6e6c79)\n                /* \"#utility.yul\":3589:3607   */\n              0x44\n              dup3\n              add\n                /* \"#utility.yul\":3582:3628   */\n              mstore\n                /* \"#utility.yul\":3645:3663   */\n              0x64\n              add\n                /* \"backend/contracts/Campaign.sol\":2959:3013  require(msg.sender == beneficiary, \"Beneficiary only\") */\n              tag_74\n                /* \"#utility.yul\":3329:3669   */\n              jump\n                /* \"backend/contracts/Campaign.sol\":2959:3013  require(msg.sender == beneficiary, \"Beneficiary only\") */\n            tag_93:\n                /* \"backend/contracts/Campaign.sol\":6360:6365  start */\n              dup2\n                /* \"backend/contracts/Campaign.sol\":6343:6771  for (uint256 i = start; i < end; i++) {... */\n            tag_96:\n                /* \"backend/contracts/Campaign.sol\":6371:6374  end */\n              dup2\n                /* \"backend/contracts/Campaign.sol\":6367:6368  i */\n              dup2\n                /* \"backend/contracts/Campaign.sol\":6367:6374  i < end */\n              lt\n                /* \"backend/contracts/Campaign.sol\":6343:6771  for (uint256 i = start; i < end; i++) {... */\n              iszero\n              tag_97\n              jumpi\n                /* \"backend/contracts/Campaign.sol\":6395:6408  address donor */\n              0x00\n                /* \"backend/contracts/Campaign.sol\":6411:6417  donors */\n              0x03\n                /* \"backend/contracts/Campaign.sol\":6418:6419  i */\n              dup3\n                /* \"backend/contracts/Campaign.sol\":6411:6420  donors[i] */\n              dup2\n              sload\n              dup2\n              lt\n              tag_100\n              jumpi\n              tag_100\n              tag_101\n              jump\t// in\n            tag_100:\n              0x00\n              swap2\n              dup3\n              mstore\n              0x20\n              dup1\n              dup4\n              keccak256\n              swap1\n              swap2\n              add\n              sload\n              sub(shl(0xa0, 0x01), 0x01)\n              and\n                /* \"backend/contracts/Campaign.sol\":6459:6475  donations[donor] */\n              dup1\n              dup4\n              mstore\n                /* \"backend/contracts/Campaign.sol\":6459:6468  donations */\n              0x02\n                /* \"backend/contracts/Campaign.sol\":6459:6475  donations[donor] */\n              swap1\n              swap2\n              mstore\n              0x40\n              swap1\n              swap2\n              keccak256\n              sload\n                /* \"backend/contracts/Campaign.sol\":6411:6420  donors[i] */\n              swap1\n              swap2\n              pop\n                /* \"backend/contracts/Campaign.sol\":6494:6512  donationAmount > 0 */\n              dup1\n              iszero\n                /* \"backend/contracts/Campaign.sol\":6490:6761  if (donationAmount > 0) {... */\n              tag_103\n              jumpi\n              sub(shl(0xa0, 0x01), 0x01)\n                /* \"backend/contracts/Campaign.sol\":6539:6555  donations[donor] */\n              dup3\n              and\n              0x00\n              dup2\n              dup2\n              mstore\n                /* \"backend/contracts/Campaign.sol\":6539:6548  donations */\n              0x02\n                /* \"backend/contracts/Campaign.sol\":6539:6555  donations[donor] */\n              0x20\n              mstore\n              0x40\n              dup1\n              dup3\n              keccak256\n                /* \"backend/contracts/Campaign.sol\":6532:6555  delete donations[donor] */\n              dup3\n              swap1\n              sstore\n                /* \"backend/contracts/Campaign.sol\":6648:6687  payable(donor).transfer(donationAmount) */\n              mload\n              dup4\n              iszero\n              0x08fc\n              mul\n              swap2\n                /* \"backend/contracts/Campaign.sol\":6672:6686  donationAmount */\n              dup5\n              swap2\n                /* \"backend/contracts/Campaign.sol\":6648:6687  payable(donor).transfer(donationAmount) */\n              swap1\n              dup2\n                /* \"backend/contracts/Campaign.sol\":6539:6555  donations[donor] */\n              dup2\n                /* \"backend/contracts/Campaign.sol\":6648:6687  payable(donor).transfer(donationAmount) */\n              dup2\n                /* \"backend/contracts/Campaign.sol\":6672:6686  donationAmount */\n              dup6\n                /* \"backend/contracts/Campaign.sol\":6539:6555  donations[donor] */\n              dup9\n                /* \"backend/contracts/Campaign.sol\":6648:6687  payable(donor).transfer(donationAmount) */\n              dup9\n              call\n              swap4\n              pop\n              pop\n              pop\n              pop\n              iszero\n              dup1\n              iszero\n              tag_105\n              jumpi\n              returndatasize\n              0x00\n              dup1\n              returndatacopy\n              revert(0x00, returndatasize)\n            tag_105:\n              pop\n                /* \"backend/contracts/Campaign.sol\":6724:6729  donor */\n              dup2\n              sub(shl(0xa0, 0x01), 0x01)\n                /* \"backend/contracts/Campaign.sol\":6711:6746  RefundIssued(donor, donationAmount) */\n              and\n              0xa171b6942063c6f2800ce40a780edce37baa2b618571b11eedd1e69e626e7d76\n                /* \"backend/contracts/Campaign.sol\":6731:6745  donationAmount */\n              dup3\n                /* \"backend/contracts/Campaign.sol\":6711:6746  RefundIssued(donor, donationAmount) */\n              mload(0x40)\n              tag_106\n              swap2\n                /* \"#utility.yul\":160:185   */\n              dup2\n              mstore\n                /* \"#utility.yul\":148:150   */\n              0x20\n                /* \"#utility.yul\":133:151   */\n              add\n              swap1\n                /* \"#utility.yul\":14:191   */\n              jump\n                /* \"backend/contracts/Campaign.sol\":6711:6746  RefundIssued(donor, donationAmount) */\n            tag_106:\n              mload(0x40)\n              dup1\n              swap2\n              sub\n              swap1\n              log2\n                /* \"backend/contracts/Campaign.sol\":6490:6761  if (donationAmount > 0) {... */\n            tag_103:\n              pop\n              pop\n                /* \"backend/contracts/Campaign.sol\":6376:6379  i++ */\n              0x01\n              add\n                /* \"backend/contracts/Campaign.sol\":6343:6771  for (uint256 i = start; i < end; i++) {... */\n              jump(tag_96)\n            tag_97:\n              pop\n                /* \"backend/contracts/Campaign.sol\":6231:6777  function processRefundsBatch(uint256 start, uint256 end)... */\n              pop\n              pop\n              jump\t// out\n                /* \"backend/contracts/Campaign.sol\":3689:4655  function donate()... */\n            tag_67:\n                /* \"backend/contracts/Campaign.sol\":3378:3386  deadline */\n              immutable(\"0xe455bf8ea6e7463a1046a0b52804526e119b4bf5136279614e0b1e8e296a4e2d\")\n                /* \"backend/contracts/Campaign.sol\":3359:3386  block.timestamp <= deadline */\n              0xffffffffffff\n              and\n                /* \"backend/contracts/Campaign.sol\":3359:3374  block.timestamp */\n              timestamp\n                /* \"backend/contracts/Campaign.sol\":3359:3386  block.timestamp <= deadline */\n              gt\n              iszero\n                /* \"backend/contracts/Campaign.sol\":3351:3408  require(block.timestamp <= deadline, \"Deadline exceeded\") */\n              tag_108\n              jumpi\n              mload(0x40)\n              shl(0xe5, 0x461bcd)\n              dup2\n              mstore\n                /* \"#utility.yul\":4271:4273   */\n              0x20\n                /* \"backend/contracts/Campaign.sol\":3351:3408  require(block.timestamp <= deadline, \"Deadline exceeded\") */\n              0x04\n              dup3\n              add\n                /* \"#utility.yul\":4253:4274   */\n              mstore\n                /* \"#utility.yul\":4310:4312   */\n              0x11\n                /* \"#utility.yul\":4290:4308   */\n              0x24\n              dup3\n              add\n                /* \"#utility.yul\":4283:4313   */\n              mstore\n              shl(0x7a, 0x111958591b1a5b9948195e18d959591959)\n                /* \"#utility.yul\":4329:4347   */\n              0x44\n              dup3\n              add\n                /* \"#utility.yul\":4322:4369   */\n              mstore\n                /* \"#utility.yul\":4386:4404   */\n              0x64\n              add\n                /* \"backend/contracts/Campaign.sol\":3351:3408  require(block.timestamp <= deadline, \"Deadline exceeded\") */\n              tag_74\n                /* \"#utility.yul\":4069:4410   */\n              jump\n                /* \"backend/contracts/Campaign.sol\":3351:3408  require(block.timestamp <= deadline, \"Deadline exceeded\") */\n            tag_108:\n                /* \"backend/contracts/Campaign.sol\":3083:3091  isActive */\n              and(0xff, sload(0x00))\n                /* \"backend/contracts/Campaign.sol\":3075:3113  require(isActive, \"Inactive Campaign\") */\n              tag_112\n              jumpi\n              mload(0x40)\n              shl(0xe5, 0x461bcd)\n              dup2\n              mstore\n                /* \"#utility.yul\":2841:2843   */\n              0x20\n                /* \"backend/contracts/Campaign.sol\":3075:3113  require(isActive, \"Inactive Campaign\") */\n              0x04\n              dup3\n              add\n                /* \"#utility.yul\":2823:2844   */\n              mstore\n                /* \"#utility.yul\":2880:2882   */\n              0x11\n                /* \"#utility.yul\":2860:2878   */\n              0x24\n              dup3\n              add\n                /* \"#utility.yul\":2853:2883   */\n              mstore\n              shl(0x79, 0x24b730b1ba34bb329021b0b6b830b4b3b7)\n                /* \"#utility.yul\":2899:2917   */\n              0x44\n              dup3\n              add\n                /* \"#utility.yul\":2892:2939   */\n              mstore\n                /* \"#utility.yul\":2956:2974   */\n              0x64\n              add\n                /* \"backend/contracts/Campaign.sol\":3075:3113  require(isActive, \"Inactive Campaign\") */\n              tag_74\n                /* \"#utility.yul\":2639:2980   */\n              jump\n                /* \"backend/contracts/Campaign.sol\":3075:3113  require(isActive, \"Inactive Campaign\") */\n            tag_112:\n                /* \"backend/contracts/Campaign.sol\":3492:3503  fundingGoal */\n              immutable(\"0x1a192fabce13988b84994d4296e6cdc418d55e2f1d7f942188d4040b94fc57ac\")\n                /* \"backend/contracts/Campaign.sol\":3479:3489  totalFunds */\n              sload(0x01)\n                /* \"backend/contracts/Campaign.sol\":3479:3503  totalFunds < fundingGoal */\n              lt\n                /* \"backend/contracts/Campaign.sol\":3471:3524  require(totalFunds < fundingGoal, \"Funding goal met\") */\n              tag_115\n              jumpi\n              mload(0x40)\n              shl(0xe5, 0x461bcd)\n              dup2\n              mstore\n                /* \"#utility.yul\":4617:4619   */\n              0x20\n                /* \"backend/contracts/Campaign.sol\":3471:3524  require(totalFunds < fundingGoal, \"Funding goal met\") */\n              0x04\n              dup3\n              add\n                /* \"#utility.yul\":4599:4620   */\n              mstore\n                /* \"#utility.yul\":4656:4658   */\n              0x10\n                /* \"#utility.yul\":4636:4654   */\n              0x24\n              dup3\n              add\n                /* \"#utility.yul\":4629:4659   */\n              mstore\n              shl(0x82, 0x119d5b991a5b99c819dbd85b081b595d)\n                /* \"#utility.yul\":4675:4693   */\n              0x44\n              dup3\n              add\n                /* \"#utility.yul\":4668:4714   */\n              mstore\n                /* \"#utility.yul\":4731:4749   */\n              0x64\n              add\n                /* \"backend/contracts/Campaign.sol\":3471:3524  require(totalFunds < fundingGoal, \"Funding goal met\") */\n              tag_74\n                /* \"#utility.yul\":4415:4755   */\n              jump\n                /* \"backend/contracts/Campaign.sol\":3471:3524  require(totalFunds < fundingGoal, \"Funding goal met\") */\n            tag_115:\n                /* \"backend/contracts/Campaign.sol\":3844:3854  msg.sender */\n              caller\n                /* \"backend/contracts/Campaign.sol\":3828:3841  address donor */\n              0x00\n                /* \"backend/contracts/Campaign.sol\":3976:3992  donations[donor] */\n              dup2\n              dup2\n              mstore\n                /* \"backend/contracts/Campaign.sol\":3976:3985  donations */\n              0x02\n                /* \"backend/contracts/Campaign.sol\":3976:3992  donations[donor] */\n              0x20\n              mstore\n              0x40\n              dup2\n              keccak256\n              sload\n                /* \"backend/contracts/Campaign.sol\":3889:3898  msg.value */\n              callvalue\n              swap2\n                /* \"backend/contracts/Campaign.sol\":3976:3997  donations[donor] == 0 */\n              sub\n                /* \"backend/contracts/Campaign.sol\":3972:4042  if (donations[donor] == 0) {... */\n              tag_119\n              jumpi\n                /* \"backend/contracts/Campaign.sol\":4013:4019  donors */\n              0x03\n                /* \"backend/contracts/Campaign.sol\":4013:4031  donors.push(donor) */\n              dup1\n              sload\n              0x01\n              dup2\n              add\n              dup3\n              sstore\n              0x00\n              swap2\n              swap1\n              swap2\n              mstore\n              0xc2575a0e9e593c00f959f8c92f12db2869c3395a3b0502d05e2516446f71f85b\n              add\n              dup1\n              sload\n              not(sub(shl(0xa0, 0x01), 0x01))\n              and\n              sub(shl(0xa0, 0x01), 0x01)\n              dup5\n              and\n              or\n              swap1\n              sstore\n                /* \"backend/contracts/Campaign.sol\":3972:4042  if (donations[donor] == 0) {... */\n            tag_119:\n              sub(shl(0xa0, 0x01), 0x01)\n                /* \"backend/contracts/Campaign.sol\":4052:4068  donations[donor] */\n              dup3\n              and\n              0x00\n              swap1\n              dup2\n              mstore\n                /* \"backend/contracts/Campaign.sol\":4052:4061  donations */\n              0x02\n                /* \"backend/contracts/Campaign.sol\":4052:4068  donations[donor] */\n              0x20\n              mstore\n              0x40\n              dup2\n              keccak256\n                /* \"backend/contracts/Campaign.sol\":4052:4078  donations[donor] += amount */\n              dup1\n              sload\n                /* \"backend/contracts/Campaign.sol\":4072:4078  amount */\n              dup4\n              swap3\n                /* \"backend/contracts/Campaign.sol\":4052:4068  donations[donor] */\n              swap1\n                /* \"backend/contracts/Campaign.sol\":4052:4078  donations[donor] += amount */\n              tag_121\n              swap1\n                /* \"backend/contracts/Campaign.sol\":4072:4078  amount */\n              dup5\n              swap1\n                /* \"backend/contracts/Campaign.sol\":4052:4078  donations[donor] += amount */\n              tag_122\n              jump\t// in\n            tag_121:\n              swap1\n              swap2\n              sstore\n              pop\n              pop\n                /* \"backend/contracts/Campaign.sol\":4241:4251  totalFunds */\n              sload(0x01)\n                /* \"backend/contracts/Campaign.sol\":4217:4238  uint256 newTotalFunds */\n              0x00\n              swap1\n                /* \"backend/contracts/Campaign.sol\":4241:4260  totalFunds + amount */\n              tag_123\n              swap1\n                /* \"backend/contracts/Campaign.sol\":4254:4260  amount */\n              dup4\n              swap1\n                /* \"backend/contracts/Campaign.sol\":4241:4260  totalFunds + amount */\n              tag_122\n              jump\t// in\n            tag_123:\n                /* \"backend/contracts/Campaign.sol\":4270:4280  totalFunds */\n              0x01\n                /* \"backend/contracts/Campaign.sol\":4270:4296  totalFunds = newTotalFunds */\n              dup2\n              swap1\n              sstore\n                /* \"backend/contracts/Campaign.sol\":4312:4332  DonationMade(amount) */\n              mload(0x40)\n                /* \"#utility.yul\":160:185   */\n              dup4\n              dup2\n              mstore\n                /* \"backend/contracts/Campaign.sol\":4217:4260  uint256 newTotalFunds = totalFunds + amount */\n              swap1\n              swap2\n              pop\n                /* \"backend/contracts/Campaign.sol\":4312:4332  DonationMade(amount) */\n              0xeb3301a94d74dc3ee739ec081ebeaf60c5e72b48aef0402c21c9f049f84c9622\n              swap1\n                /* \"#utility.yul\":148:150   */\n              0x20\n                /* \"#utility.yul\":133:151   */\n              add\n                /* \"backend/contracts/Campaign.sol\":4312:4332  DonationMade(amount) */\n              mload(0x40)\n              dup1\n              swap2\n              sub\n              swap1\n              log1\n                /* \"backend/contracts/Campaign.sol\":4590:4601  fundingGoal */\n              immutable(\"0x1a192fabce13988b84994d4296e6cdc418d55e2f1d7f942188d4040b94fc57ac\")\n                /* \"backend/contracts/Campaign.sol\":4573:4586  newTotalFunds */\n              dup2\n                /* \"backend/contracts/Campaign.sol\":4573:4601  newTotalFunds >= fundingGoal */\n              lt\n                /* \"backend/contracts/Campaign.sol\":4569:4649  if (newTotalFunds >= fundingGoal) {... */\n              tag_97\n              jumpi\n                /* \"backend/contracts/Campaign.sol\":4622:4638  FundingGoalMet() */\n              mload(0x40)\n              0x7efee204be5df5d59d7f2294f7f2776f836d145d72998af64b6dcbbd898e7bf6\n              swap1\n              0x00\n              swap1\n              log1\n                /* \"backend/contracts/Campaign.sol\":3818:4655  {... */\n              pop\n              pop\n              pop\n                /* \"backend/contracts/Campaign.sol\":3689:4655  function donate()... */\n              jump\t// out\n                /* \"backend/contracts/Campaign.sol\":5665:6018  function releaseFunds() private {... */\n            tag_88:\n                /* \"backend/contracts/Campaign.sol\":5732:5742  totalFunds */\n              0x01\n              dup1\n              sload\n                /* \"backend/contracts/Campaign.sol\":5707:5729  uint256 fundsToRelease */\n              0x00\n                /* \"backend/contracts/Campaign.sol\":5752:5768  isActive = false */\n              dup1\n              sload\n              not(0xff)\n              and\n              dup2\n              sstore\n                /* \"backend/contracts/Campaign.sol\":5778:5795  delete totalFunds */\n              swap2\n              dup3\n              swap1\n              sstore\n                /* \"backend/contracts/Campaign.sol\":5898:5943  payable(beneficiary).transfer(fundsToRelease) */\n              mload(0x40)\n                /* \"backend/contracts/Campaign.sol\":5732:5742  totalFunds */\n              swap1\n              swap2\n              sub(shl(0xa0, 0x01), 0x01)\n                /* \"backend/contracts/Campaign.sol\":5906:5917  beneficiary */\n              immutable(\"0x13600b294191fc92924bb3ce4b969c1e7e2bab8f4c93c3fc6d0a51733df3c060\")\n                /* \"backend/contracts/Campaign.sol\":5898:5927  payable(beneficiary).transfer */\n              and\n              swap2\n                /* \"backend/contracts/Campaign.sol\":5898:5943  payable(beneficiary).transfer(fundsToRelease) */\n              dup4\n              iszero\n              0x08fc\n              mul\n              swap2\n                /* \"backend/contracts/Campaign.sol\":5732:5742  totalFunds */\n              dup5\n              swap2\n                /* \"backend/contracts/Campaign.sol\":5898:5943  payable(beneficiary).transfer(fundsToRelease) */\n              swap1\n              dup2\n                /* \"backend/contracts/Campaign.sol\":5707:5729  uint256 fundsToRelease */\n              dup2\n                /* \"backend/contracts/Campaign.sol\":5898:5943  payable(beneficiary).transfer(fundsToRelease) */\n              dup2\n                /* \"backend/contracts/Campaign.sol\":5732:5742  totalFunds */\n              dup6\n                /* \"backend/contracts/Campaign.sol\":5898:5927  payable(beneficiary).transfer */\n              dup9\n                /* \"backend/contracts/Campaign.sol\":5898:5943  payable(beneficiary).transfer(fundsToRelease) */\n              dup9\n              call\n              swap4\n              pop\n              pop\n              pop\n              pop\n              iszero\n              dup1\n              iszero\n              tag_128\n              jumpi\n              returndatasize\n              0x00\n              dup1\n              returndatacopy\n              revert(0x00, returndatasize)\n            tag_128:\n              pop\n                /* \"backend/contracts/Campaign.sol\":5959:6011  CampaignFinalized(beneficiary, true, fundsToRelease) */\n              0x40\n              dup1\n              mload\n                /* \"backend/contracts/Campaign.sol\":5990:5994  true */\n              0x01\n                /* \"#utility.yul\":3842:3883   */\n              dup2\n              mstore\n                /* \"#utility.yul\":3914:3916   */\n              0x20\n                /* \"#utility.yul\":3899:3917   */\n              dup2\n              add\n                /* \"#utility.yul\":3892:3926   */\n              dup4\n              swap1\n              mstore\n              sub(shl(0xa0, 0x01), 0x01)\n                /* \"backend/contracts/Campaign.sol\":5977:5988  beneficiary */\n              immutable(\"0x13600b294191fc92924bb3ce4b969c1e7e2bab8f4c93c3fc6d0a51733df3c060\")\n                /* \"backend/contracts/Campaign.sol\":5959:6011  CampaignFinalized(beneficiary, true, fundsToRelease) */\n              and\n              swap2\n              0x712d35f4bf4c7422ae5b3996c20cc32903765397cd70e33a25294baf8c89dc80\n              swap2\n                /* \"#utility.yul\":3815:3833   */\n              add\n                /* \"backend/contracts/Campaign.sol\":5959:6011  CampaignFinalized(beneficiary, true, fundsToRelease) */\n              mload(0x40)\n              dup1\n              swap2\n              sub\n              swap1\n              log2\n                /* \"backend/contracts/Campaign.sol\":5697:6018  {... */\n              pop\n                /* \"backend/contracts/Campaign.sol\":5665:6018  function releaseFunds() private {... */\n              jump\t// out\n                /* \"#utility.yul\":1646:2283   */\n            tag_57:\n                /* \"#utility.yul\":1836:1838   */\n              0x20\n                /* \"#utility.yul\":1848:1869   */\n              dup1\n              dup3\n              mstore\n                /* \"#utility.yul\":1918:1931   */\n              dup3\n              mload\n                /* \"#utility.yul\":1821:1839   */\n              dup3\n              dup3\n              add\n                /* \"#utility.yul\":1940:1962   */\n              dup2\n              swap1\n              mstore\n                /* \"#utility.yul\":1788:1792   */\n              0x00\n              swap2\n                /* \"#utility.yul\":2019:2034   */\n              dup5\n              add\n              swap1\n                /* \"#utility.yul\":1993:1995   */\n              0x40\n                /* \"#utility.yul\":1978:1996   */\n              dup5\n              add\n              swap1\n                /* \"#utility.yul\":1788:1792   */\n              dup4\n                /* \"#utility.yul\":2062:2257   */\n            tag_138:\n                /* \"#utility.yul\":2076:2082   */\n              dup2\n                /* \"#utility.yul\":2073:2074   */\n              dup2\n                /* \"#utility.yul\":2070:2083   */\n              lt\n                /* \"#utility.yul\":2062:2257   */\n              iszero\n              tag_140\n              jumpi\n                /* \"#utility.yul\":2141:2154   */\n              dup4\n              mload\n              sub(shl(0xa0, 0x01), 0x01)\n                /* \"#utility.yul\":2137:2176   */\n              and\n                /* \"#utility.yul\":2125:2177   */\n              dup4\n              mstore\n                /* \"#utility.yul\":2206:2208   */\n              0x20\n                /* \"#utility.yul\":2232:2247   */\n              swap4\n              dup5\n              add\n              swap4\n                /* \"#utility.yul\":2197:2209   */\n              swap1\n              swap3\n              add\n              swap2\n                /* \"#utility.yul\":2173:2174   */\n              0x01\n                /* \"#utility.yul\":2091:2100   */\n              add\n                /* \"#utility.yul\":2062:2257   */\n              jump(tag_138)\n            tag_140:\n              pop\n                /* \"#utility.yul\":2274:2277   */\n              swap1\n              swap6\n                /* \"#utility.yul\":1646:2283   */\n              swap5\n              pop\n              pop\n              pop\n              pop\n              pop\n              jump\t// out\n                /* \"#utility.yul\":2288:2634   */\n            tag_64:\n                /* \"#utility.yul\":2356:2362   */\n              0x00\n                /* \"#utility.yul\":2364:2370   */\n              dup1\n                /* \"#utility.yul\":2417:2419   */\n              0x40\n                /* \"#utility.yul\":2405:2414   */\n              dup4\n                /* \"#utility.yul\":2396:2403   */\n              dup6\n                /* \"#utility.yul\":2392:2415   */\n              sub\n                /* \"#utility.yul\":2388:2420   */\n              slt\n                /* \"#utility.yul\":2385:2437   */\n              iszero\n              tag_142\n              jumpi\n                /* \"#utility.yul\":2433:2434   */\n              0x00\n                /* \"#utility.yul\":2430:2431   */\n              dup1\n                /* \"#utility.yul\":2423:2435   */\n              revert\n                /* \"#utility.yul\":2385:2437   */\n            tag_142:\n              pop\n              pop\n                /* \"#utility.yul\":2478:2501   */\n              dup1\n              calldataload\n              swap3\n                /* \"#utility.yul\":2598:2600   */\n              0x20\n                /* \"#utility.yul\":2583:2601   */\n              swap1\n              swap2\n              add\n                /* \"#utility.yul\":2570:2602   */\n              calldataload\n              swap2\n              pop\n                /* \"#utility.yul\":2288:2634   */\n              jump\t// out\n                /* \"#utility.yul\":3937:4064   */\n            tag_101:\n                /* \"#utility.yul\":3998:4008   */\n              0x4e487b71\n                /* \"#utility.yul\":3993:3996   */\n              0xe0\n                /* \"#utility.yul\":3989:4009   */\n              shl\n                /* \"#utility.yul\":3986:3987   */\n              0x00\n                /* \"#utility.yul\":3979:4010   */\n              mstore\n                /* \"#utility.yul\":4029:4033   */\n              0x32\n                /* \"#utility.yul\":4026:4027   */\n              0x04\n                /* \"#utility.yul\":4019:4034   */\n              mstore\n                /* \"#utility.yul\":4053:4057   */\n              0x24\n                /* \"#utility.yul\":4050:4051   */\n              0x00\n                /* \"#utility.yul\":4043:4058   */\n              revert\n                /* \"#utility.yul\":4760:4982   */\n            tag_122:\n                /* \"#utility.yul\":4825:4834   */\n              dup1\n              dup3\n              add\n                /* \"#utility.yul\":4846:4856   */\n              dup1\n              dup3\n              gt\n                /* \"#utility.yul\":4843:4976   */\n              iszero\n              tag_151\n              jumpi\n                /* \"#utility.yul\":4898:4908   */\n              0x4e487b71\n                /* \"#utility.yul\":4893:4896   */\n              0xe0\n                /* \"#utility.yul\":4889:4909   */\n              shl\n                /* \"#utility.yul\":4886:4887   */\n              0x00\n                /* \"#utility.yul\":4879:4910   */\n              mstore\n                /* \"#utility.yul\":4933:4937   */\n              0x11\n                /* \"#utility.yul\":4930:4931   */\n              0x04\n                /* \"#utility.yul\":4923:4938   */\n              mstore\n                /* \"#utility.yul\":4961:4965   */\n              0x24\n                /* \"#utility.yul\":4958:4959   */\n              0x00\n                /* \"#utility.yul\":4951:4966   */\n              revert\n                /* \"#utility.yul\":4843:4976   */\n            tag_151:\n                /* \"#utility.yul\":4760:4982   */\n              swap3\n              swap2\n              pop\n              pop\n              jump\t// out\n\n            auxdata: 0xa2646970667358221220ef74b85a87fd7777429f6cf7a7efe8c4ab79b159b715285ad5f0a2ec2fc7be0c64736f6c634300081a0033\n        }\n    }\n\n    auxdata: 0xa2646970667358221220cef75ed70ef063942e49e014a7b0ade4bce21efa1d6afea2d263362f5b5610cd64736f6c634300081a0033\n}\n",
				"bytecode": {
					"linkReferences": {},
					"object": "6080604052348015600e575f80fd5b50610deb8061001c5f395ff3fe608060405234801561000f575f80fd5b5060043610610029575f3560e01c8063f64615061461002d575b5f80fd5b61004061003b3660046100ea565b610042565b005b5f3385858585604051610054906100dd565b6001600160a01b03909516855260208501939093526040840191909152606083015265ffffffffffff16608082015260a001604051809103905ff08015801561009f573d5f803e3d5ffd5b506040519091506001600160a01b038216907f07a9c134c6ed9c353773b355c69cbf65e34e3c3820554f5b8e1afdecdfb40292905f90a25050505050565b610c838061013383390190565b5f805f80608085870312156100fd575f80fd5b843593506020850135925060408501359150606085013565ffffffffffff81168114610127575f80fd5b93969295509093505056fe610120604052348015610010575f80fd5b50604051610c83380380610c8383398101604081905261002f91610066565b6001600160a01b0390941660805260e0929092526101005260c05265ffffffffffff1660a0525f805460ff191660011790556100cf565b5f805f805f60a0868803121561007a575f80fd5b85516001600160a01b0381168114610090575f80fd5b60208701516040880151606089015160808a01519398509196509450925065ffffffffffff811681146100c1575f80fd5b809150509295509295909350565b60805160a05160c05160e05161010051610b0861017b5f395f818161015801526102ba01525f818160ba015261013201525f81816101ae015281816102ed0152818161045f0152818161052f015281816107d1015261090d01525f8181610187015281816102250152818161042e015261072001525f818161010e0152818161026f015281816104cd0152818161057d015281816105de0152818161097f01526109df0152610b085ff3fe6080604052600436106100a5575f3560e01c80637a3a0e84116100625780637a3a0e84146102dc578063968ed6001461030f57806396f300d414610324578063a1211bc014610345578063d506b8b51461035b578063ed88c68e1461037a575f80fd5b806306fdde03146100a95780630c611f24146100ef57806322f3e2d4146101ec57806329dcb0cf1461021457806338af3eed1461025e5780637284e416146102a9575b5f80fd5b3480156100b4575f80fd5b506100dc7f000000000000000000000000000000000000000000000000000000000000000081565b6040519081526020015b60405180910390f35b3480156100fa575f80fd5b506001545f54604080516001600160a01b037f00000000000000000000000000000000000000000000000000000000000000001681527f000000000000000000000000000000000000000000000000000000000000000060208201527f00000000000000000000000000000000000000000000000000000000000000009181019190915265ffffffffffff7f00000000000000000000000000000000000000000000000000000000000000001660608201527f0000000000000000000000000000000000000000000000000000000000000000608082015260a081019290925260ff16151560c082015260e0016100e6565b3480156101f7575f80fd5b505f546102049060ff1681565b60405190151581526020016100e6565b34801561021f575f80fd5b506102477f000000000000000000000000000000000000000000000000000000000000000081565b60405165ffffffffffff90911681526020016100e6565b348015610269575f80fd5b506102917f000000000000000000000000000000000000000000000000000000000000000081565b6040516001600160a01b0390911681526020016100e6565b3480156102b4575f80fd5b506100dc7f000000000000000000000000000000000000000000000000000000000000000081565b3480156102e7575f80fd5b506100dc7f000000000000000000000000000000000000000000000000000000000000000081565b34801561031a575f80fd5b506100dc60015481565b34801561032f575f80fd5b50610338610382565b6040516100e69190610a2e565b348015610350575f80fd5b506103596103e2565b005b348015610366575f80fd5b50610359610375366004610a79565b6105d3565b61035961071e565b606060038054806020026020016040519081016040528092919081815260200182805480156103d857602002820191905f5260205f20905b81546001600160a01b031681526001909101906020018083116103ba575b5050505050905090565b5f5460ff1661042c5760405162461bcd60e51b815260206004820152601160248201527024b730b1ba34bb329021b0b6b830b4b3b760791b60448201526064015b60405180910390fd5b7f000000000000000000000000000000000000000000000000000000000000000065ffffffffffff1642118061048457507f000000000000000000000000000000000000000000000000000000000000000060015410155b6104c25760405162461bcd60e51b815260206004820152600f60248201526e43616e6e6f742066696e616c697a6560881b6044820152606401610423565b336001600160a01b037f0000000000000000000000000000000000000000000000000000000000000000161461052d5760405162461bcd60e51b815260206004820152601060248201526f42656e6566696369617279206f6e6c7960801b6044820152606401610423565b7f0000000000000000000000000000000000000000000000000000000000000000600154106105605761055e61095f565b565b5f805460ff191681556001546040805192835260208301919091527f00000000000000000000000000000000000000000000000000000000000000006001600160a01b0316917f712d35f4bf4c7422ae5b3996c20cc32903765397cd70e33a25294baf8c89dc80910160405180910390a2565b336001600160a01b037f0000000000000000000000000000000000000000000000000000000000000000161461063e5760405162461bcd60e51b815260206004820152601060248201526f42656e6566696369617279206f6e6c7960801b6044820152606401610423565b815b81811015610719575f6003828154811061065c5761065c610a99565b5f9182526020808320909101546001600160a01b03168083526002909152604090912054909150801561070f576001600160a01b0382165f818152600260205260408082208290555183156108fc0291849190818181858888f193505050501580156106ca573d5f803e3d5ffd5b50816001600160a01b03167fa171b6942063c6f2800ce40a780edce37baa2b618571b11eedd1e69e626e7d768260405161070691815260200190565b60405180910390a25b5050600101610640565b505050565b7f000000000000000000000000000000000000000000000000000000000000000065ffffffffffff1642111561078a5760405162461bcd60e51b8152602060048201526011602482015270111958591b1a5b9948195e18d959591959607a1b6044820152606401610423565b5f5460ff166107cf5760405162461bcd60e51b815260206004820152601160248201527024b730b1ba34bb329021b0b6b830b4b3b760791b6044820152606401610423565b7f0000000000000000000000000000000000000000000000000000000000000000600154106108335760405162461bcd60e51b815260206004820152601060248201526f119d5b991a5b99c819dbd85b081b595d60821b6044820152606401610423565b335f8181526002602052604081205434910361089457600380546001810182555f919091527fc2575a0e9e593c00f959f8c92f12db2869c3395a3b0502d05e2516446f71f85b0180546001600160a01b0319166001600160a01b0384161790555b6001600160a01b0382165f90815260026020526040812080548392906108bb908490610aad565b90915550506001545f906108d0908390610aad565b60018190556040518381529091507feb3301a94d74dc3ee739ec081ebeaf60c5e72b48aef0402c21c9f049f84c96229060200160405180910390a17f00000000000000000000000000000000000000000000000000000000000000008110610719576040517f7efee204be5df5d59d7f2294f7f2776f836d145d72998af64b6dcbbd898e7bf6905f90a1505050565b600180545f805460ff191681559182905560405190916001600160a01b037f0000000000000000000000000000000000000000000000000000000000000000169183156108fc0291849190818181858888f193505050501580156109c5573d5f803e3d5ffd5b506040805160018152602081018390526001600160a01b037f000000000000000000000000000000000000000000000000000000000000000016917f712d35f4bf4c7422ae5b3996c20cc32903765397cd70e33a25294baf8c89dc80910160405180910390a250565b602080825282518282018190525f918401906040840190835b81811015610a6e5783516001600160a01b0316835260209384019390920191600101610a47565b509095945050505050565b5f8060408385031215610a8a575f80fd5b50508035926020909101359150565b634e487b7160e01b5f52603260045260245ffd5b80820180821115610acc57634e487b7160e01b5f52601160045260245ffd5b9291505056fea2646970667358221220ef74b85a87fd7777429f6cf7a7efe8c4ab79b159b715285ad5f0a2ec2fc7be0c64736f6c634300081a0033a2646970667358221220cef75ed70ef063942e49e014a7b0ade4bce21efa1d6afea2d263362f5b5610cd64736f6c634300081a0033",
					"opcodes": "PUSH1 0x80 PUSH1 0x40 MSTORE CALLVALUE DUP1 ISZERO PUSH1 0xE JUMPI PUSH0 DUP1 REVERT JUMPDEST POP PUSH2 0xDEB DUP1 PUSH2 0x1C PUSH0 CODECOPY PUSH0 RETURN INVALID PUSH1 0x80 PUSH1 0x40 MSTORE CALLVALUE DUP1 ISZERO PUSH2 0xF JUMPI PUSH0 DUP1 REVERT JUMPDEST POP PUSH1 0x4 CALLDATASIZE LT PUSH2 0x29 JUMPI PUSH0 CALLDATALOAD PUSH1 0xE0 SHR DUP1 PUSH4 0xF6461506 EQ PUSH2 0x2D JUMPI JUMPDEST PUSH0 DUP1 REVERT JUMPDEST PUSH2 0x40 PUSH2 0x3B CALLDATASIZE PUSH1 0x4 PUSH2 0xEA JUMP JUMPDEST PUSH2 0x42 JUMP JUMPDEST STOP JUMPDEST PUSH0 CALLER DUP6 DUP6 DUP6 DUP6 PUSH1 0x40 MLOAD PUSH2 0x54 SWAP1 PUSH2 0xDD JUMP JUMPDEST PUSH1 0x1 PUSH1 0x1 PUSH1 0xA0 SHL SUB SWAP1 SWAP6 AND DUP6 MSTORE PUSH1 0x20 DUP6 ADD SWAP4 SWAP1 SWAP4 MSTORE PUSH1 0x40 DUP5 ADD SWAP2 SWAP1 SWAP2 MSTORE PUSH1 0x60 DUP4 ADD MSTORE PUSH6 0xFFFFFFFFFFFF AND PUSH1 0x80 DUP3 ADD MSTORE PUSH1 0xA0 ADD PUSH1 0x40 MLOAD DUP1 SWAP2 SUB SWAP1 PUSH0 CREATE DUP1 ISZERO DUP1 ISZERO PUSH2 0x9F JUMPI RETURNDATASIZE PUSH0 DUP1 RETURNDATACOPY RETURNDATASIZE PUSH0 REVERT JUMPDEST POP PUSH1 0x40 MLOAD SWAP1 SWAP2 POP PUSH1 0x1 PUSH1 0x1 PUSH1 0xA0 SHL SUB DUP3 AND SWAP1 PUSH32 0x7A9C134C6ED9C353773B355C69CBF65E34E3C3820554F5B8E1AFDECDFB40292 SWAP1 PUSH0 SWAP1 LOG2 POP POP POP POP POP JUMP JUMPDEST PUSH2 0xC83 DUP1 PUSH2 0x133 DUP4 CODECOPY ADD SWAP1 JUMP JUMPDEST PUSH0 DUP1 PUSH0 DUP1 PUSH1 0x80 DUP6 DUP8 SUB SLT ISZERO PUSH2 0xFD JUMPI PUSH0 DUP1 REVERT JUMPDEST DUP5 CALLDATALOAD SWAP4 POP PUSH1 0x20 DUP6 ADD CALLDATALOAD SWAP3 POP PUSH1 0x40 DUP6 ADD CALLDATALOAD SWAP2 POP PUSH1 0x60 DUP6 ADD CALLDATALOAD PUSH6 0xFFFFFFFFFFFF DUP2 AND DUP2 EQ PUSH2 0x127 JUMPI PUSH0 DUP1 REVERT JUMPDEST SWAP4 SWAP7 SWAP3 SWAP6 POP SWAP1 SWAP4 POP POP JUMP INVALID PUSH2 0x120 PUSH1 0x40 MSTORE CALLVALUE DUP1 ISZERO PUSH2 0x10 JUMPI PUSH0 DUP1 REVERT JUMPDEST POP PUSH1 0x40 MLOAD PUSH2 0xC83 CODESIZE SUB DUP1 PUSH2 0xC83 DUP4 CODECOPY DUP2 ADD PUSH1 0x40 DUP2 SWAP1 MSTORE PUSH2 0x2F SWAP2 PUSH2 0x66 JUMP JUMPDEST PUSH1 0x1 PUSH1 0x1 PUSH1 0xA0 SHL SUB SWAP1 SWAP5 AND PUSH1 0x80 MSTORE PUSH1 0xE0 SWAP3 SWAP1 SWAP3 MSTORE PUSH2 0x100 MSTORE PUSH1 0xC0 MSTORE PUSH6 0xFFFFFFFFFFFF AND PUSH1 0xA0 MSTORE PUSH0 DUP1 SLOAD PUSH1 0xFF NOT AND PUSH1 0x1 OR SWAP1 SSTORE PUSH2 0xCF JUMP JUMPDEST PUSH0 DUP1 PUSH0 DUP1 PUSH0 PUSH1 0xA0 DUP7 DUP9 SUB SLT ISZERO PUSH2 0x7A JUMPI PUSH0 DUP1 REVERT JUMPDEST DUP6 MLOAD PUSH1 0x1 PUSH1 0x1 PUSH1 0xA0 SHL SUB DUP2 AND DUP2 EQ PUSH2 0x90 JUMPI PUSH0 DUP1 REVERT JUMPDEST PUSH1 0x20 DUP8 ADD MLOAD PUSH1 0x40 DUP9 ADD MLOAD PUSH1 0x60 DUP10 ADD MLOAD PUSH1 0x80 DUP11 ADD MLOAD SWAP4 SWAP9 POP SWAP2 SWAP7 POP SWAP5 POP SWAP3 POP PUSH6 0xFFFFFFFFFFFF DUP2 AND DUP2 EQ PUSH2 0xC1 JUMPI PUSH0 DUP1 REVERT JUMPDEST DUP1 SWAP2 POP POP SWAP3 SWAP6 POP SWAP3 SWAP6 SWAP1 SWAP4 POP JUMP JUMPDEST PUSH1 0x80 MLOAD PUSH1 0xA0 MLOAD PUSH1 0xC0 MLOAD PUSH1 0xE0 MLOAD PUSH2 0x100 MLOAD PUSH2 0xB08 PUSH2 0x17B PUSH0 CODECOPY PUSH0 DUP2 DUP2 PUSH2 0x158 ADD MSTORE PUSH2 0x2BA ADD MSTORE PUSH0 DUP2 DUP2 PUSH1 0xBA ADD MSTORE PUSH2 0x132 ADD MSTORE PUSH0 DUP2 DUP2 PUSH2 0x1AE ADD MSTORE DUP2 DUP2 PUSH2 0x2ED ADD MSTORE DUP2 DUP2 PUSH2 0x45F ADD MSTORE DUP2 DUP2 PUSH2 0x52F ADD MSTORE DUP2 DUP2 PUSH2 0x7D1 ADD MSTORE PUSH2 0x90D ADD MSTORE PUSH0 DUP2 DUP2 PUSH2 0x187 ADD MSTORE DUP2 DUP2 PUSH2 0x225 ADD MSTORE DUP2 DUP2 PUSH2 0x42E ADD MSTORE PUSH2 0x720 ADD MSTORE PUSH0 DUP2 DUP2 PUSH2 0x10E ADD MSTORE DUP2 DUP2 PUSH2 0x26F ADD MSTORE DUP2 DUP2 PUSH2 0x4CD ADD MSTORE DUP2 DUP2 PUSH2 0x57D ADD MSTORE DUP2 DUP2 PUSH2 0x5DE ADD MSTORE DUP2 DUP2 PUSH2 0x97F ADD MSTORE PUSH2 0x9DF ADD MSTORE PUSH2 0xB08 PUSH0 RETURN INVALID PUSH1 0x80 PUSH1 0x40 MSTORE PUSH1 0x4 CALLDATASIZE LT PUSH2 0xA5 JUMPI PUSH0 CALLDATALOAD PUSH1 0xE0 SHR DUP1 PUSH4 0x7A3A0E84 GT PUSH2 0x62 JUMPI DUP1 PUSH4 0x7A3A0E84 EQ PUSH2 0x2DC JUMPI DUP1 PUSH4 0x968ED600 EQ PUSH2 0x30F JUMPI DUP1 PUSH4 0x96F300D4 EQ PUSH2 0x324 JUMPI DUP1 PUSH4 0xA1211BC0 EQ PUSH2 0x345 JUMPI DUP1 PUSH4 0xD506B8B5 EQ PUSH2 0x35B JUMPI DUP1 PUSH4 0xED88C68E EQ PUSH2 0x37A JUMPI PUSH0 DUP1 REVERT JUMPDEST DUP1 PUSH4 0x6FDDE03 EQ PUSH2 0xA9 JUMPI DUP1 PUSH4 0xC611F24 EQ PUSH2 0xEF JUMPI DUP1 PUSH4 0x22F3E2D4 EQ PUSH2 0x1EC JUMPI DUP1 PUSH4 0x29DCB0CF EQ PUSH2 0x214 JUMPI DUP1 PUSH4 0x38AF3EED EQ PUSH2 0x25E JUMPI DUP1 PUSH4 0x7284E416 EQ PUSH2 0x2A9 JUMPI JUMPDEST PUSH0 DUP1 REVERT JUMPDEST CALLVALUE DUP1 ISZERO PUSH2 0xB4 JUMPI PUSH0 DUP1 REVERT JUMPDEST POP PUSH2 0xDC PUSH32 0x0 DUP2 JUMP JUMPDEST PUSH1 0x40 MLOAD SWAP1 DUP2 MSTORE PUSH1 0x20 ADD JUMPDEST PUSH1 0x40 MLOAD DUP1 SWAP2 SUB SWAP1 RETURN JUMPDEST CALLVALUE DUP1 ISZERO PUSH2 0xFA JUMPI PUSH0 DUP1 REVERT JUMPDEST POP PUSH1 0x1 SLOAD PUSH0 SLOAD PUSH1 0x40 DUP1 MLOAD PUSH1 0x1 PUSH1 0x1 PUSH1 0xA0 SHL SUB PUSH32 0x0 AND DUP2 MSTORE PUSH32 0x0 PUSH1 0x20 DUP3 ADD MSTORE PUSH32 0x0 SWAP2 DUP2 ADD SWAP2 SWAP1 SWAP2 MSTORE PUSH6 0xFFFFFFFFFFFF PUSH32 0x0 AND PUSH1 0x60 DUP3 ADD MSTORE PUSH32 0x0 PUSH1 0x80 DUP3 ADD MSTORE PUSH1 0xA0 DUP2 ADD SWAP3 SWAP1 SWAP3 MSTORE PUSH1 0xFF AND ISZERO ISZERO PUSH1 0xC0 DUP3 ADD MSTORE PUSH1 0xE0 ADD PUSH2 0xE6 JUMP JUMPDEST CALLVALUE DUP1 ISZERO PUSH2 0x1F7 JUMPI PUSH0 DUP1 REVERT JUMPDEST POP PUSH0 SLOAD PUSH2 0x204 SWAP1 PUSH1 0xFF AND DUP2 JUMP JUMPDEST PUSH1 0x40 MLOAD SWAP1 ISZERO ISZERO DUP2 MSTORE PUSH1 0x20 ADD PUSH2 0xE6 JUMP JUMPDEST CALLVALUE DUP1 ISZERO PUSH2 0x21F JUMPI PUSH0 DUP1 REVERT JUMPDEST POP PUSH2 0x247 PUSH32 0x0 DUP2 JUMP JUMPDEST PUSH1 0x40 MLOAD PUSH6 0xFFFFFFFFFFFF SWAP1 SWAP2 AND DUP2 MSTORE PUSH1 0x20 ADD PUSH2 0xE6 JUMP JUMPDEST CALLVALUE DUP1 ISZERO PUSH2 0x269 JUMPI PUSH0 DUP1 REVERT JUMPDEST POP PUSH2 0x291 PUSH32 0x0 DUP2 JUMP JUMPDEST PUSH1 0x40 MLOAD PUSH1 0x1 PUSH1 0x1 PUSH1 0xA0 SHL SUB SWAP1 SWAP2 AND DUP2 MSTORE PUSH1 0x20 ADD PUSH2 0xE6 JUMP JUMPDEST CALLVALUE DUP1 ISZERO PUSH2 0x2B4 JUMPI PUSH0 DUP1 REVERT JUMPDEST POP PUSH2 0xDC PUSH32 0x0 DUP2 JUMP JUMPDEST CALLVALUE DUP1 ISZERO PUSH2 0x2E7 JUMPI PUSH0 DUP1 REVERT JUMPDEST POP PUSH2 0xDC PUSH32 0x0 DUP2 JUMP JUMPDEST CALLVALUE DUP1 ISZERO PUSH2 0x31A JUMPI PUSH0 DUP1 REVERT JUMPDEST POP PUSH2 0xDC PUSH1 0x1 SLOAD DUP2 JUMP JUMPDEST CALLVALUE DUP1 ISZERO PUSH2 0x32F JUMPI PUSH0 DUP1 REVERT JUMPDEST POP PUSH2 0x338 PUSH2 0x382 JUMP JUMPDEST PUSH1 0x40 MLOAD PUSH2 0xE6 SWAP2 SWAP1 PUSH2 0xA2E JUMP JUMPDEST CALLVALUE DUP1 ISZERO PUSH2 0x350 JUMPI PUSH0 DUP1 REVERT JUMPDEST POP PUSH2 0x359 PUSH2 0x3E2 JUMP JUMPDEST STOP JUMPDEST CALLVALUE DUP1 ISZERO PUSH2 0x366 JUMPI PUSH0 DUP1 REVERT JUMPDEST POP PUSH2 0x359 PUSH2 0x375 CALLDATASIZE PUSH1 0x4 PUSH2 0xA79 JUMP JUMPDEST PUSH2 0x5D3 JUMP JUMPDEST PUSH2 0x359 PUSH2 0x71E JUMP JUMPDEST PUSH1 0x60 PUSH1 0x3 DUP1 SLOAD DUP1 PUSH1 0x20 MUL PUSH1 0x20 ADD PUSH1 0x40 MLOAD SWAP1 DUP2 ADD PUSH1 0x40 MSTORE DUP1 SWAP3 SWAP2 SWAP1 DUP2 DUP2 MSTORE PUSH1 0x20 ADD DUP3 DUP1 SLOAD DUP1 ISZERO PUSH2 0x3D8 JUMPI PUSH1 0x20 MUL DUP3 ADD SWAP2 SWAP1 PUSH0 MSTORE PUSH1 0x20 PUSH0 KECCAK256 SWAP1 JUMPDEST DUP2 SLOAD PUSH1 0x1 PUSH1 0x1 PUSH1 0xA0 SHL SUB AND DUP2 MSTORE PUSH1 0x1 SWAP1 SWAP2 ADD SWAP1 PUSH1 0x20 ADD DUP1 DUP4 GT PUSH2 0x3BA JUMPI JUMPDEST POP POP POP POP POP SWAP1 POP SWAP1 JUMP JUMPDEST PUSH0 SLOAD PUSH1 0xFF AND PUSH2 0x42C JUMPI PUSH1 0x40 MLOAD PUSH3 0x461BCD PUSH1 0xE5 SHL DUP2 MSTORE PUSH1 0x20 PUSH1 0x4 DUP3 ADD MSTORE PUSH1 0x11 PUSH1 0x24 DUP3 ADD MSTORE PUSH17 0x24B730B1BA34BB329021B0B6B830B4B3B7 PUSH1 0x79 SHL PUSH1 0x44 DUP3 ADD MSTORE PUSH1 0x64 ADD JUMPDEST PUSH1 0x40 MLOAD DUP1 SWAP2 SUB SWAP1 REVERT JUMPDEST PUSH32 0x0 PUSH6 0xFFFFFFFFFFFF AND TIMESTAMP GT DUP1 PUSH2 0x484 JUMPI POP PUSH32 0x0 PUSH1 0x1 SLOAD LT ISZERO JUMPDEST PUSH2 0x4C2 JUMPI PUSH1 0x40 MLOAD PUSH3 0x461BCD PUSH1 0xE5 SHL DUP2 MSTORE PUSH1 0x20 PUSH1 0x4 DUP3 ADD MSTORE PUSH1 0xF PUSH1 0x24 DUP3 ADD MSTORE PUSH15 0x43616E6E6F742066696E616C697A65 PUSH1 0x88 SHL PUSH1 0x44 DUP3 ADD MSTORE PUSH1 0x64 ADD PUSH2 0x423 JUMP JUMPDEST CALLER PUSH1 0x1 PUSH1 0x1 PUSH1 0xA0 SHL SUB PUSH32 0x0 AND EQ PUSH2 0x52D JUMPI PUSH1 0x40 MLOAD PUSH3 0x461BCD PUSH1 0xE5 SHL DUP2 MSTORE PUSH1 0x20 PUSH1 0x4 DUP3 ADD MSTORE PUSH1 0x10 PUSH1 0x24 DUP3 ADD MSTORE PUSH16 0x42656E6566696369617279206F6E6C79 PUSH1 0x80 SHL PUSH1 0x44 DUP3 ADD MSTORE PUSH1 0x64 ADD PUSH2 0x423 JUMP JUMPDEST PUSH32 0x0 PUSH1 0x1 SLOAD LT PUSH2 0x560 JUMPI PUSH2 0x55E PUSH2 0x95F JUMP JUMPDEST JUMP JUMPDEST PUSH0 DUP1 SLOAD PUSH1 0xFF NOT AND DUP2 SSTORE PUSH1 0x1 SLOAD PUSH1 0x40 DUP1 MLOAD SWAP3 DUP4 MSTORE PUSH1 0x20 DUP4 ADD SWAP2 SWAP1 SWAP2 MSTORE PUSH32 0x0 PUSH1 0x1 PUSH1 0x1 PUSH1 0xA0 SHL SUB AND SWAP2 PUSH32 0x712D35F4BF4C7422AE5B3996C20CC32903765397CD70E33A25294BAF8C89DC80 SWAP2 ADD PUSH1 0x40 MLOAD DUP1 SWAP2 SUB SWAP1 LOG2 JUMP JUMPDEST CALLER PUSH1 0x1 PUSH1 0x1 PUSH1 0xA0 SHL SUB PUSH32 0x0 AND EQ PUSH2 0x63E JUMPI PUSH1 0x40 MLOAD PUSH3 0x461BCD PUSH1 0xE5 SHL DUP2 MSTORE PUSH1 0x20 PUSH1 0x4 DUP3 ADD MSTORE PUSH1 0x10 PUSH1 0x24 DUP3 ADD MSTORE PUSH16 0x42656E6566696369617279206F6E6C79 PUSH1 0x80 SHL PUSH1 0x44 DUP3 ADD MSTORE PUSH1 0x64 ADD PUSH2 0x423 JUMP JUMPDEST DUP2 JUMPDEST DUP2 DUP2 LT ISZERO PUSH2 0x719 JUMPI PUSH0 PUSH1 0x3 DUP3 DUP2 SLOAD DUP2 LT PUSH2 0x65C JUMPI PUSH2 0x65C PUSH2 0xA99 JUMP JUMPDEST PUSH0 SWAP2 DUP3 MSTORE PUSH1 0x20 DUP1 DUP4 KECCAK256 SWAP1 SWAP2 ADD SLOAD PUSH1 0x1 PUSH1 0x1 PUSH1 0xA0 SHL SUB AND DUP1 DUP4 MSTORE PUSH1 0x2 SWAP1 SWAP2 MSTORE PUSH1 0x40 SWAP1 SWAP2 KECCAK256 SLOAD SWAP1 SWAP2 POP DUP1 ISZERO PUSH2 0x70F JUMPI PUSH1 0x1 PUSH1 0x1 PUSH1 0xA0 SHL SUB DUP3 AND PUSH0 DUP2 DUP2 MSTORE PUSH1 0x2 PUSH1 0x20 MSTORE PUSH1 0x40 DUP1 DUP3 KECCAK256 DUP3 SWAP1 SSTORE MLOAD DUP4 ISZERO PUSH2 0x8FC MUL SWAP2 DUP5 SWAP2 SWAP1 DUP2 DUP2 DUP2 DUP6 DUP9 DUP9 CALL SWAP4 POP POP POP POP ISZERO DUP1 ISZERO PUSH2 0x6CA JUMPI RETURNDATASIZE PUSH0 DUP1 RETURNDATACOPY RETURNDATASIZE PUSH0 REVERT JUMPDEST POP DUP2 PUSH1 0x1 PUSH1 0x1 PUSH1 0xA0 SHL SUB AND PUSH32 0xA171B6942063C6F2800CE40A780EDCE37BAA2B618571B11EEDD1E69E626E7D76 DUP3 PUSH1 0x40 MLOAD PUSH2 0x706 SWAP2 DUP2 MSTORE PUSH1 0x20 ADD SWAP1 JUMP JUMPDEST PUSH1 0x40 MLOAD DUP1 SWAP2 SUB SWAP1 LOG2 JUMPDEST POP POP PUSH1 0x1 ADD PUSH2 0x640 JUMP JUMPDEST POP POP POP JUMP JUMPDEST PUSH32 0x0 PUSH6 0xFFFFFFFFFFFF AND TIMESTAMP GT ISZERO PUSH2 0x78A JUMPI PUSH1 0x40 MLOAD PUSH3 0x461BCD PUSH1 0xE5 SHL DUP2 MSTORE PUSH1 0x20 PUSH1 0x4 DUP3 ADD MSTORE PUSH1 0x11 PUSH1 0x24 DUP3 ADD MSTORE PUSH17 0x111958591B1A5B9948195E18D959591959 PUSH1 0x7A SHL PUSH1 0x44 DUP3 ADD MSTORE PUSH1 0x64 ADD PUSH2 0x423 JUMP JUMPDEST PUSH0 SLOAD PUSH1 0xFF AND PUSH2 0x7CF JUMPI PUSH1 0x40 MLOAD PUSH3 0x461BCD PUSH1 0xE5 SHL DUP2 MSTORE PUSH1 0x20 PUSH1 0x4 DUP3 ADD MSTORE PUSH1 0x11 PUSH1 0x24 DUP3 ADD MSTORE PUSH17 0x24B730B1BA34BB329021B0B6B830B4B3B7 PUSH1 0x79 SHL PUSH1 0x44 DUP3 ADD MSTORE PUSH1 0x64 ADD PUSH2 0x423 JUMP JUMPDEST PUSH32 0x0 PUSH1 0x1 SLOAD LT PUSH2 0x833 JUMPI PUSH1 0x40 MLOAD PUSH3 0x461BCD PUSH1 0xE5 SHL DUP2 MSTORE PUSH1 0x20 PUSH1 0x4 DUP3 ADD MSTORE PUSH1 0x10 PUSH1 0x24 DUP3 ADD MSTORE PUSH16 0x119D5B991A5B99C819DBD85B081B595D PUSH1 0x82 SHL PUSH1 0x44 DUP3 ADD MSTORE PUSH1 0x64 ADD PUSH2 0x423 JUMP JUMPDEST CALLER PUSH0 DUP2 DUP2 MSTORE PUSH1 0x2 PUSH1 0x20 MSTORE PUSH1 0x40 DUP2 KECCAK256 SLOAD CALLVALUE SWAP2 SUB PUSH2 0x894 JUMPI PUSH1 0x3 DUP1 SLOAD PUSH1 0x1 DUP2 ADD DUP3 SSTORE PUSH0 SWAP2 SWAP1 SWAP2 MSTORE PUSH32 0xC2575A0E9E593C00F959F8C92F12DB2869C3395A3B0502D05E2516446F71F85B ADD DUP1 SLOAD PUSH1 0x1 PUSH1 0x1 PUSH1 0xA0 SHL SUB NOT AND PUSH1 0x1 PUSH1 0x1 PUSH1 0xA0 SHL SUB DUP5 AND OR SWAP1 SSTORE JUMPDEST PUSH1 0x1 PUSH1 0x1 PUSH1 0xA0 SHL SUB DUP3 AND PUSH0 SWAP1 DUP2 MSTORE PUSH1 0x2 PUSH1 0x20 MSTORE PUSH1 0x40 DUP2 KECCAK256 DUP1 SLOAD DUP4 SWAP3 SWAP1 PUSH2 0x8BB SWAP1 DUP5 SWAP1 PUSH2 0xAAD JUMP JUMPDEST SWAP1 SWAP2 SSTORE POP POP PUSH1 0x1 SLOAD PUSH0 SWAP1 PUSH2 0x8D0 SWAP1 DUP4 SWAP1 PUSH2 0xAAD JUMP JUMPDEST PUSH1 0x1 DUP2 SWAP1 SSTORE PUSH1 0x40 MLOAD DUP4 DUP2 MSTORE SWAP1 SWAP2 POP PUSH32 0xEB3301A94D74DC3EE739EC081EBEAF60C5E72B48AEF0402C21C9F049F84C9622 SWAP1 PUSH1 0x20 ADD PUSH1 0x40 MLOAD DUP1 SWAP2 SUB SWAP1 LOG1 PUSH32 0x0 DUP2 LT PUSH2 0x719 JUMPI PUSH1 0x40 MLOAD PUSH32 0x7EFEE204BE5DF5D59D7F2294F7F2776F836D145D72998AF64B6DCBBD898E7BF6 SWAP1 PUSH0 SWAP1 LOG1 POP POP POP JUMP JUMPDEST PUSH1 0x1 DUP1 SLOAD PUSH0 DUP1 SLOAD PUSH1 0xFF NOT AND DUP2 SSTORE SWAP2 DUP3 SWAP1 SSTORE PUSH1 0x40 MLOAD SWAP1 SWAP2 PUSH1 0x1 PUSH1 0x1 PUSH1 0xA0 SHL SUB PUSH32 0x0 AND SWAP2 DUP4 ISZERO PUSH2 0x8FC MUL SWAP2 DUP5 SWAP2 SWAP1 DUP2 DUP2 DUP2 DUP6 DUP9 DUP9 CALL SWAP4 POP POP POP POP ISZERO DUP1 ISZERO PUSH2 0x9C5 JUMPI RETURNDATASIZE PUSH0 DUP1 RETURNDATACOPY RETURNDATASIZE PUSH0 REVERT JUMPDEST POP PUSH1 0x40 DUP1 MLOAD PUSH1 0x1 DUP2 MSTORE PUSH1 0x20 DUP2 ADD DUP4 SWAP1 MSTORE PUSH1 0x1 PUSH1 0x1 PUSH1 0xA0 SHL SUB PUSH32 0x0 AND SWAP2 PUSH32 0x712D35F4BF4C7422AE5B3996C20CC32903765397CD70E33A25294BAF8C89DC80 SWAP2 ADD PUSH1 0x40 MLOAD DUP1 SWAP2 SUB SWAP1 LOG2 POP JUMP JUMPDEST PUSH1 0x20 DUP1 DUP3 MSTORE DUP3 MLOAD DUP3 DUP3 ADD DUP2 SWAP1 MSTORE PUSH0 SWAP2 DUP5 ADD SWAP1 PUSH1 0x40 DUP5 ADD SWAP1 DUP4 JUMPDEST DUP2 DUP2 LT ISZERO PUSH2 0xA6E JUMPI DUP4 MLOAD PUSH1 0x1 PUSH1 0x1 PUSH1 0xA0 SHL SUB AND DUP4 MSTORE PUSH1 0x20 SWAP4 DUP5 ADD SWAP4 SWAP1 SWAP3 ADD SWAP2 PUSH1 0x1 ADD PUSH2 0xA47 JUMP JUMPDEST POP SWAP1 SWAP6 SWAP5 POP POP POP POP POP JUMP JUMPDEST PUSH0 DUP1 PUSH1 0x40 DUP4 DUP6 SUB SLT ISZERO PUSH2 0xA8A JUMPI PUSH0 DUP1 REVERT JUMPDEST POP POP DUP1 CALLDATALOAD SWAP3 PUSH1 0x20 SWAP1 SWAP2 ADD CALLDATALOAD SWAP2 POP JUMP JUMPDEST PUSH4 0x4E487B71 PUSH1 0xE0 SHL PUSH0 MSTORE PUSH1 0x32 PUSH1 0x4 MSTORE PUSH1 0x24 PUSH0 REVERT JUMPDEST DUP1 DUP3 ADD DUP1 DUP3 GT ISZERO PUSH2 0xACC JUMPI PUSH4 0x4E487B71 PUSH1 0xE0 SHL PUSH0 MSTORE PUSH1 0x11 PUSH1 0x4 MSTORE PUSH1 0x24 PUSH0 REVERT JUMPDEST SWAP3 SWAP2 POP POP JUMP INVALID LOG2 PUSH5 0x6970667358 0x22 SLT KECCAK256 0xEF PUSH21 0xB85A87FD7777429F6CF7A7EFE8C4AB79B159B71528 GAS 0xD5 CREATE LOG2 0xEC 0x2F 0xC7 0xBE 0xC PUSH5 0x736F6C6343 STOP ADDMOD BYTE STOP CALLER LOG2 PUSH5 0x6970667358 0x22 SLT KECCAK256 0xCE 0xF7 MCOPY 0xD7 0xE CREATE PUSH4 0x942E49E0 EQ 0xA7 0xB0 0xAD 0xE4 0xBC 0xE2 0x1E STATICCALL SAR PUSH11 0xFEA2D263362F5B5610CD64 PUSH20 0x6F6C634300081A00330000000000000000000000 "
				},
				"gasEstimates": {
					"creation": {
						"codeDepositCost": "712600",
						"executionCost": "745",
						"totalCost": "713345"
					},
					"external": {
						"createCampaign(bytes32,bytes32,uint256,uint48)": "infinite"
					}
				},
				"methodIdentifiers": {
					"createCampaign(bytes32,bytes32,uint256,uint48)": "f6461506"
				}
			},
			"storageLayout": {
				"storage": [],
				"types": null
			},
			"userdoc": {
				"kind": "user",
				"methods": {},
				"version": 1
			}
		}
	}
}