{
	"backend/contracts/CampaignFactory.sol": {
		"CampaignFactory": {
			"abi": [
				{
					"anonymous": false,
					"inputs": [
						{
							"indexed": false,
							"internalType": "address",
							"name": "campaignAddress",
							"type": "address"
						},
						{
							"indexed": false,
							"internalType": "address",
							"name": "beneficiary",
							"type": "address"
						},
						{
							"indexed": false,
							"internalType": "uint32",
							"name": "fundingGoal",
							"type": "uint32"
						},
						{
							"indexed": false,
							"internalType": "uint256",
							"name": "deadline",
							"type": "uint256"
						}
					],
					"name": "CampaignCreated",
					"type": "event"
				},
				{
					"inputs": [
						{
							"internalType": "string",
							"name": "_name",
							"type": "string"
						},
						{
							"internalType": "string",
							"name": "_description",
							"type": "string"
						},
						{
							"internalType": "uint32",
							"name": "_fundingGoal",
							"type": "uint32"
						},
						{
							"internalType": "uint256",
							"name": "_deadline",
							"type": "uint256"
						}
					],
					"name": "createCampaign",
					"outputs": [],
					"stateMutability": "nonpayable",
					"type": "function"
				}
			],
			"devdoc": {
				"details": "Creates and deploy a new Campaign smart contract whenever any beneficiary creates a campaign",
				"kind": "dev",
				"methods": {
					"createCampaign(string,string,uint32,uint256)": {
						"details": "Allows beneficiaries to create a Campaign with the required details",
						"params": {
							"_deadline": "Timestamp of when the Campaign should be fully funded before it becomes inactive",
							"_description": "Description of the Campaign",
							"_fundingGoal": "Funding Goal for the Campaign in cryptocurrency (SepoliaETH)",
							"_name": "Name of the Campaign"
						}
					}
				},
				"title": "CampaignFactory",
				"version": 1
			},
			"evm": {
				"assembly": "    /* \"backend/contracts/CampaignFactory.sol\":248:2066  contract CampaignFactory {... */\n  mstore(0x40, 0x80)\n  callvalue\n  dup1\n  iszero\n  tag_1\n  jumpi\n  0x00\n  dup1\n  revert\ntag_1:\n  pop\n  dataSize(sub_0)\n  dup1\n  dataOffset(sub_0)\n  0x00\n  codecopy\n  0x00\n  return\nstop\n\nsub_0: assembly {\n        /* \"backend/contracts/CampaignFactory.sol\":248:2066  contract CampaignFactory {... */\n      mstore(0x40, 0x80)\n      callvalue\n      dup1\n      iszero\n      tag_1\n      jumpi\n      0x00\n      dup1\n      revert\n    tag_1:\n      pop\n      jumpi(tag_2, lt(calldatasize, 0x04))\n      shr(0xe0, calldataload(0x00))\n      dup1\n      0x08cfd36e\n      eq\n      tag_3\n      jumpi\n    tag_2:\n      0x00\n      dup1\n      revert\n        /* \"backend/contracts/CampaignFactory.sol\":1010:1835  function createCampaign(... */\n    tag_3:\n      tag_4\n      tag_5\n      calldatasize\n      0x04\n      tag_6\n      jump\t// in\n    tag_5:\n      tag_7\n      jump\t// in\n    tag_4:\n      stop\n    tag_7:\n        /* \"backend/contracts/CampaignFactory.sol\":1181:1200  address beneficiary */\n      0x00\n        /* \"backend/contracts/CampaignFactory.sol\":1203:1213  msg.sender */\n      caller\n        /* \"backend/contracts/CampaignFactory.sol\":1181:1213  address beneficiary = msg.sender */\n      swap1\n      pop\n        /* \"backend/contracts/CampaignFactory.sol\":1272:1289  Campaign campaign */\n      0x00\n        /* \"backend/contracts/CampaignFactory.sol\":1318:1329  beneficiary */\n      dup2\n        /* \"backend/contracts/CampaignFactory.sol\":1343:1348  _name */\n      dup9\n      dup9\n        /* \"backend/contracts/CampaignFactory.sol\":1362:1374  _description */\n      dup9\n      dup9\n        /* \"backend/contracts/CampaignFactory.sol\":1388:1400  _fundingGoal */\n      dup9\n        /* \"backend/contracts/CampaignFactory.sol\":1414:1423  _deadline */\n      dup9\n        /* \"backend/contracts/CampaignFactory.sol\":1292:1433  new Campaign(... */\n      mload(0x40)\n      tag_9\n      swap1\n      tag_10\n      jump\t// in\n    tag_9:\n      tag_11\n      swap8\n      swap7\n      swap6\n      swap5\n      swap4\n      swap3\n      swap2\n      swap1\n      tag_12\n      jump\t// in\n    tag_11:\n      mload(0x40)\n      dup1\n      swap2\n      sub\n      swap1\n      0x00\n      create\n      dup1\n      iszero\n      dup1\n      iszero\n      tag_13\n      jumpi\n      returndatasize\n      0x00\n      dup1\n      returndatacopy\n      revert(0x00, returndatasize)\n    tag_13:\n      pop\n        /* \"backend/contracts/CampaignFactory.sol\":1693:1763  CampaignCreated(campaignAddress, beneficiary, _fundingGoal, _deadline) */\n      0x40\n      dup1\n      mload\n      sub(shl(0xa0, 0x01), 0x01)\n        /* \"#utility.yul\":2539:2571   */\n      dup4\n      dup2\n      and\n        /* \"#utility.yul\":2521:2572   */\n      dup3\n      mstore\n        /* \"#utility.yul\":2608:2640   */\n      dup6\n      and\n        /* \"#utility.yul\":2603:2605   */\n      0x20\n        /* \"#utility.yul\":2588:2606   */\n      dup3\n      add\n        /* \"#utility.yul\":2581:2641   */\n      mstore\n        /* \"#utility.yul\":2689:2699   */\n      0xffffffff\n        /* \"#utility.yul\":2677:2700   */\n      dup8\n      and\n        /* \"#utility.yul\":2657:2675   */\n      dup2\n      dup4\n      add\n        /* \"#utility.yul\":2650:2701   */\n      mstore\n        /* \"#utility.yul\":2732:2734   */\n      0x60\n        /* \"#utility.yul\":2717:2735   */\n      dup2\n      add\n        /* \"#utility.yul\":2710:2744   */\n      dup7\n      swap1\n      mstore\n        /* \"backend/contracts/CampaignFactory.sol\":1693:1763  CampaignCreated(campaignAddress, beneficiary, _fundingGoal, _deadline) */\n      swap1\n      mload\n        /* \"#utility.yul\":2539:2571   */\n      swap2\n      swap3\n      pop\n      dup3\n      swap2\n        /* \"backend/contracts/CampaignFactory.sol\":1693:1763  CampaignCreated(campaignAddress, beneficiary, _fundingGoal, _deadline) */\n      0x26a72d8c3ee4ea9de24a79f4375306f6f713c7596bdcba170912e5bcb458d43a\n      swap2\n      dup2\n      swap1\n      sub\n        /* \"#utility.yul\":2508:2511   */\n      0x80\n        /* \"backend/contracts/CampaignFactory.sol\":1693:1763  CampaignCreated(campaignAddress, beneficiary, _fundingGoal, _deadline) */\n      add\n      swap1\n      log1\n      pop\n      pop\n      pop\n      pop\n      pop\n      pop\n      pop\n      pop\n      pop\n        /* \"backend/contracts/CampaignFactory.sol\":1010:1835  function createCampaign(... */\n      jump\t// out\n    tag_10:\n      dataSize(sub_0)\n      dup1\n      dataOffset(sub_0)\n      dup4\n      codecopy\n      add\n      swap1\n      jump\t// out\n        /* \"#utility.yul\":14:362   */\n    tag_16:\n        /* \"#utility.yul\":66:74   */\n      0x00\n        /* \"#utility.yul\":76:82   */\n      dup1\n        /* \"#utility.yul\":130:133   */\n      dup4\n        /* \"#utility.yul\":123:127   */\n      0x1f\n        /* \"#utility.yul\":115:121   */\n      dup5\n        /* \"#utility.yul\":111:128   */\n      add\n        /* \"#utility.yul\":107:134   */\n      slt\n        /* \"#utility.yul\":97:152   */\n      tag_20\n      jumpi\n        /* \"#utility.yul\":148:149   */\n      0x00\n        /* \"#utility.yul\":145:146   */\n      dup1\n        /* \"#utility.yul\":138:150   */\n      revert\n        /* \"#utility.yul\":97:152   */\n    tag_20:\n      pop\n        /* \"#utility.yul\":171:191   */\n      dup2\n      calldataload\n        /* \"#utility.yul\":214:232   */\n      0xffffffffffffffff\n        /* \"#utility.yul\":203:233   */\n      dup2\n      gt\n        /* \"#utility.yul\":200:250   */\n      iszero\n      tag_21\n      jumpi\n        /* \"#utility.yul\":246:247   */\n      0x00\n        /* \"#utility.yul\":243:244   */\n      dup1\n        /* \"#utility.yul\":236:248   */\n      revert\n        /* \"#utility.yul\":200:250   */\n    tag_21:\n        /* \"#utility.yul\":283:287   */\n      0x20\n        /* \"#utility.yul\":275:281   */\n      dup4\n        /* \"#utility.yul\":271:288   */\n      add\n        /* \"#utility.yul\":259:288   */\n      swap2\n      pop\n        /* \"#utility.yul\":335:338   */\n      dup4\n        /* \"#utility.yul\":328:332   */\n      0x20\n        /* \"#utility.yul\":319:325   */\n      dup3\n        /* \"#utility.yul\":311:317   */\n      dup6\n        /* \"#utility.yul\":307:326   */\n      add\n        /* \"#utility.yul\":303:333   */\n      add\n        /* \"#utility.yul\":300:339   */\n      gt\n        /* \"#utility.yul\":297:356   */\n      iszero\n      tag_22\n      jumpi\n        /* \"#utility.yul\":352:353   */\n      0x00\n        /* \"#utility.yul\":349:350   */\n      dup1\n        /* \"#utility.yul\":342:354   */\n      revert\n        /* \"#utility.yul\":297:356   */\n    tag_22:\n        /* \"#utility.yul\":14:362   */\n      swap3\n      pop\n      swap3\n      swap1\n      pop\n      jump\t// out\n        /* \"#utility.yul\":367:1316   */\n    tag_6:\n        /* \"#utility.yul\":476:482   */\n      0x00\n        /* \"#utility.yul\":484:490   */\n      dup1\n        /* \"#utility.yul\":492:498   */\n      0x00\n        /* \"#utility.yul\":500:506   */\n      dup1\n        /* \"#utility.yul\":508:514   */\n      0x00\n        /* \"#utility.yul\":516:522   */\n      dup1\n        /* \"#utility.yul\":569:572   */\n      0x80\n        /* \"#utility.yul\":557:566   */\n      dup8\n        /* \"#utility.yul\":548:555   */\n      dup10\n        /* \"#utility.yul\":544:567   */\n      sub\n        /* \"#utility.yul\":540:573   */\n      slt\n        /* \"#utility.yul\":537:590   */\n      iszero\n      tag_24\n      jumpi\n        /* \"#utility.yul\":586:587   */\n      0x00\n        /* \"#utility.yul\":583:584   */\n      dup1\n        /* \"#utility.yul\":576:588   */\n      revert\n        /* \"#utility.yul\":537:590   */\n    tag_24:\n        /* \"#utility.yul\":626:635   */\n      dup7\n        /* \"#utility.yul\":613:636   */\n      calldataload\n        /* \"#utility.yul\":659:677   */\n      0xffffffffffffffff\n        /* \"#utility.yul\":651:657   */\n      dup2\n        /* \"#utility.yul\":648:678   */\n      gt\n        /* \"#utility.yul\":645:695   */\n      iszero\n      tag_25\n      jumpi\n        /* \"#utility.yul\":691:692   */\n      0x00\n        /* \"#utility.yul\":688:689   */\n      dup1\n        /* \"#utility.yul\":681:693   */\n      revert\n        /* \"#utility.yul\":645:695   */\n    tag_25:\n        /* \"#utility.yul\":730:789   */\n      tag_26\n        /* \"#utility.yul\":781:788   */\n      dup10\n        /* \"#utility.yul\":772:778   */\n      dup3\n        /* \"#utility.yul\":761:770   */\n      dup11\n        /* \"#utility.yul\":757:779   */\n      add\n        /* \"#utility.yul\":730:789   */\n      tag_16\n      jump\t// in\n    tag_26:\n        /* \"#utility.yul\":808:816   */\n      swap1\n      swap8\n      pop\n        /* \"#utility.yul\":704:789   */\n      swap6\n      pop\n      pop\n        /* \"#utility.yul\":896:898   */\n      0x20\n        /* \"#utility.yul\":881:899   */\n      dup8\n      add\n        /* \"#utility.yul\":868:900   */\n      calldataload\n        /* \"#utility.yul\":925:943   */\n      0xffffffffffffffff\n        /* \"#utility.yul\":912:944   */\n      dup2\n      gt\n        /* \"#utility.yul\":909:961   */\n      iszero\n      tag_27\n      jumpi\n        /* \"#utility.yul\":957:958   */\n      0x00\n        /* \"#utility.yul\":954:955   */\n      dup1\n        /* \"#utility.yul\":947:959   */\n      revert\n        /* \"#utility.yul\":909:961   */\n    tag_27:\n        /* \"#utility.yul\":996:1057   */\n      tag_28\n        /* \"#utility.yul\":1049:1056   */\n      dup10\n        /* \"#utility.yul\":1038:1046   */\n      dup3\n        /* \"#utility.yul\":1027:1036   */\n      dup11\n        /* \"#utility.yul\":1023:1047   */\n      add\n        /* \"#utility.yul\":996:1057   */\n      tag_16\n      jump\t// in\n    tag_28:\n        /* \"#utility.yul\":1076:1084   */\n      swap1\n      swap6\n      pop\n        /* \"#utility.yul\":970:1057   */\n      swap4\n      pop\n      pop\n        /* \"#utility.yul\":1161:1163   */\n      0x40\n        /* \"#utility.yul\":1146:1164   */\n      dup8\n      add\n        /* \"#utility.yul\":1133:1165   */\n      calldataload\n        /* \"#utility.yul\":1205:1215   */\n      0xffffffff\n        /* \"#utility.yul\":1194:1216   */\n      dup2\n      and\n        /* \"#utility.yul\":1184:1217   */\n      dup2\n      eq\n        /* \"#utility.yul\":1174:1235   */\n      tag_29\n      jumpi\n        /* \"#utility.yul\":1231:1232   */\n      0x00\n        /* \"#utility.yul\":1228:1229   */\n      dup1\n        /* \"#utility.yul\":1221:1233   */\n      revert\n        /* \"#utility.yul\":1174:1235   */\n    tag_29:\n        /* \"#utility.yul\":1254:1259   */\n      dup1\n        /* \"#utility.yul\":1244:1259   */\n      swap3\n      pop\n      pop\n        /* \"#utility.yul\":1306:1308   */\n      0x60\n        /* \"#utility.yul\":1295:1304   */\n      dup8\n        /* \"#utility.yul\":1291:1309   */\n      add\n        /* \"#utility.yul\":1278:1310   */\n      calldataload\n        /* \"#utility.yul\":1268:1310   */\n      swap1\n      pop\n        /* \"#utility.yul\":367:1316   */\n      swap3\n      swap6\n      pop\n      swap3\n      swap6\n      pop\n      swap3\n      swap6\n      jump\t// out\n        /* \"#utility.yul\":1321:1588   */\n    tag_17:\n        /* \"#utility.yul\":1410:1416   */\n      dup2\n        /* \"#utility.yul\":1405:1408   */\n      dup4\n        /* \"#utility.yul\":1398:1417   */\n      mstore\n        /* \"#utility.yul\":1462:1468   */\n      dup2\n        /* \"#utility.yul\":1455:1460   */\n      dup2\n        /* \"#utility.yul\":1448:1452   */\n      0x20\n        /* \"#utility.yul\":1443:1446   */\n      dup6\n        /* \"#utility.yul\":1439:1453   */\n      add\n        /* \"#utility.yul\":1426:1469   */\n      calldatacopy\n      pop\n        /* \"#utility.yul\":1514:1515   */\n      0x00\n        /* \"#utility.yul\":1489:1505   */\n      dup3\n      dup3\n      add\n        /* \"#utility.yul\":1507:1511   */\n      0x20\n        /* \"#utility.yul\":1485:1512   */\n      swap1\n      dup2\n      add\n        /* \"#utility.yul\":1478:1516   */\n      swap2\n      swap1\n      swap2\n      mstore\n        /* \"#utility.yul\":1570:1572   */\n      0x1f\n        /* \"#utility.yul\":1549:1564   */\n      swap1\n      swap2\n      add\n      not(0x1f)\n        /* \"#utility.yul\":1545:1574   */\n      and\n        /* \"#utility.yul\":1536:1575   */\n      swap1\n      swap2\n      add\n        /* \"#utility.yul\":1532:1582   */\n      add\n      swap1\n        /* \"#utility.yul\":1321:1588   */\n      jump\t// out\n        /* \"#utility.yul\":1593:2287   */\n    tag_12:\n      sub(shl(0xa0, 0x01), 0x01)\n        /* \"#utility.yul\":1892:1924   */\n      dup9\n      and\n        /* \"#utility.yul\":1874:1925   */\n      dup2\n      mstore\n        /* \"#utility.yul\":1912:1915   */\n      0xa0\n        /* \"#utility.yul\":1956:1958   */\n      0x20\n        /* \"#utility.yul\":1941:1959   */\n      dup3\n      add\n        /* \"#utility.yul\":1934:1965   */\n      dup2\n      swap1\n      mstore\n      0x00\n      swap1\n        /* \"#utility.yul\":1988:2051   */\n      tag_32\n      swap1\n        /* \"#utility.yul\":2031:2050   */\n      dup4\n      add\n        /* \"#utility.yul\":2023:2029   */\n      dup9\n        /* \"#utility.yul\":2015:2021   */\n      dup11\n        /* \"#utility.yul\":1988:2051   */\n      tag_17\n      jump\t// in\n    tag_32:\n        /* \"#utility.yul\":2099:2108   */\n      dup3\n        /* \"#utility.yul\":2091:2097   */\n      dup2\n        /* \"#utility.yul\":2087:2109   */\n      sub\n        /* \"#utility.yul\":2082:2084   */\n      0x40\n        /* \"#utility.yul\":2071:2080   */\n      dup5\n        /* \"#utility.yul\":2067:2085   */\n      add\n        /* \"#utility.yul\":2060:2110   */\n      mstore\n        /* \"#utility.yul\":2127:2177   */\n      tag_33\n        /* \"#utility.yul\":2170:2176   */\n      dup2\n        /* \"#utility.yul\":2162:2168   */\n      dup8\n        /* \"#utility.yul\":2154:2160   */\n      dup10\n        /* \"#utility.yul\":2127:2177   */\n      tag_17\n      jump\t// in\n    tag_33:\n        /* \"#utility.yul\":2225:2235   */\n      0xffffffff\n        /* \"#utility.yul\":2213:2236   */\n      swap6\n      swap1\n      swap6\n      and\n        /* \"#utility.yul\":2208:2210   */\n      0x60\n        /* \"#utility.yul\":2193:2211   */\n      dup5\n      add\n        /* \"#utility.yul\":2186:2237   */\n      mstore\n      pop\n      pop\n        /* \"#utility.yul\":2268:2271   */\n      0x80\n        /* \"#utility.yul\":2253:2272   */\n      add\n        /* \"#utility.yul\":2246:2281   */\n      mstore\n        /* \"#utility.yul\":2119:2177   */\n      swap6\n        /* \"#utility.yul\":1593:2287   */\n      swap5\n      pop\n      pop\n      pop\n      pop\n      pop\n      jump\t// out\n    stop\n\n    sub_0: assembly {\n            /* \"backend/contracts/Campaign.sol\":227:4860  contract Campaign {... */\n          mstore(0x40, 0xe0)\n            /* \"backend/contracts/Campaign.sol\":1139:1538  constructor(... */\n          callvalue\n          dup1\n          iszero\n          tag_1\n          jumpi\n          0x00\n          dup1\n          revert\n        tag_1:\n          pop\n          mload(0x40)\n          sub(codesize, bytecodeSize)\n          dup1\n          bytecodeSize\n          dup4\n          codecopy\n          dup2\n          add\n          0x40\n          dup2\n          swap1\n          mstore\n          tag_2\n          swap2\n          tag_3\n          jump\t// in\n        tag_2:\n          sub(shl(0xa0, 0x01), 0x01)\n            /* \"backend/contracts/Campaign.sol\":1315:1341  beneficiary = _beneficiary */\n          dup6\n          and\n          0x80\n          mstore\n            /* \"backend/contracts/Campaign.sol\":1351:1355  name */\n          0x00\n            /* \"backend/contracts/Campaign.sol\":1351:1363  name = _name */\n          tag_6\n            /* \"backend/contracts/Campaign.sol\":1358:1363  _name */\n          dup6\n            /* \"backend/contracts/Campaign.sol\":1351:1355  name */\n          dup3\n            /* \"backend/contracts/Campaign.sol\":1351:1363  name = _name */\n          tag_7\n          jump\t// in\n        tag_6:\n          pop\n            /* \"backend/contracts/Campaign.sol\":1373:1384  description */\n          0x01\n            /* \"backend/contracts/Campaign.sol\":1373:1399  description = _description */\n          tag_8\n            /* \"backend/contracts/Campaign.sol\":1387:1399  _description */\n          dup5\n            /* \"backend/contracts/Campaign.sol\":1373:1384  description */\n          dup3\n            /* \"backend/contracts/Campaign.sol\":1373:1399  description = _description */\n          tag_7\n          jump\t// in\n        tag_8:\n          pop\n            /* \"backend/contracts/Campaign.sol\":1409:1435  fundingGoal = _fundingGoal */\n          0xffffffff\n          swap1\n          swap2\n          and\n          0xc0\n          mstore\n            /* \"backend/contracts/Campaign.sol\":1445:1465  deadline = _deadline */\n          0xa0\n          mstore\n          pop\n          pop\n            /* \"backend/contracts/Campaign.sol\":1475:1483  isActive */\n          0x02\n            /* \"backend/contracts/Campaign.sol\":1475:1490  isActive = true */\n          dup1\n          sload\n          not(shl(0x20, 0xff))\n          and\n          0x0100000000\n          or\n          swap1\n          sstore\n          pop\n            /* \"backend/contracts/Campaign.sol\":227:4860  contract Campaign {... */\n          jump(tag_16)\n            /* \"#utility.yul\":14:141   */\n        tag_10:\n            /* \"#utility.yul\":75:85   */\n          0x4e487b71\n            /* \"#utility.yul\":70:73   */\n          0xe0\n            /* \"#utility.yul\":66:86   */\n          shl\n            /* \"#utility.yul\":63:64   */\n          0x00\n            /* \"#utility.yul\":56:87   */\n          mstore\n            /* \"#utility.yul\":106:110   */\n          0x41\n            /* \"#utility.yul\":103:104   */\n          0x04\n            /* \"#utility.yul\":96:111   */\n          mstore\n            /* \"#utility.yul\":130:134   */\n          0x24\n            /* \"#utility.yul\":127:128   */\n          0x00\n            /* \"#utility.yul\":120:135   */\n          revert\n            /* \"#utility.yul\":146:869   */\n        tag_11:\n            /* \"#utility.yul\":200:205   */\n          0x00\n            /* \"#utility.yul\":253:256   */\n          dup3\n            /* \"#utility.yul\":246:250   */\n          0x1f\n            /* \"#utility.yul\":238:244   */\n          dup4\n            /* \"#utility.yul\":234:251   */\n          add\n            /* \"#utility.yul\":230:257   */\n          slt\n            /* \"#utility.yul\":220:275   */\n          tag_19\n          jumpi\n            /* \"#utility.yul\":271:272   */\n          0x00\n            /* \"#utility.yul\":268:269   */\n          dup1\n            /* \"#utility.yul\":261:273   */\n          revert\n            /* \"#utility.yul\":220:275   */\n        tag_19:\n            /* \"#utility.yul\":298:311   */\n          dup2\n          mload\n          sub(shl(0x40, 0x01), 0x01)\n            /* \"#utility.yul\":323:353   */\n          dup2\n          gt\n            /* \"#utility.yul\":320:376   */\n          iszero\n          tag_21\n          jumpi\n            /* \"#utility.yul\":356:374   */\n          tag_21\n          tag_10\n          jump\t// in\n        tag_21:\n            /* \"#utility.yul\":405:407   */\n          0x40\n            /* \"#utility.yul\":399:408   */\n          mload\n            /* \"#utility.yul\":497:499   */\n          0x1f\n            /* \"#utility.yul\":459:476   */\n          dup3\n          add\n          not(0x1f)\n            /* \"#utility.yul\":455:486   */\n          swap1\n          dup2\n          and\n            /* \"#utility.yul\":488:490   */\n          0x3f\n            /* \"#utility.yul\":451:491   */\n          add\n            /* \"#utility.yul\":447:501   */\n          and\n            /* \"#utility.yul\":435:502   */\n          dup2\n          add\n          sub(shl(0x40, 0x01), 0x01)\n            /* \"#utility.yul\":517:551   */\n          dup2\n          gt\n            /* \"#utility.yul\":553:575   */\n          dup3\n          dup3\n          lt\n            /* \"#utility.yul\":514:576   */\n          or\n            /* \"#utility.yul\":511:599   */\n          iszero\n          tag_23\n          jumpi\n            /* \"#utility.yul\":579:597   */\n          tag_23\n          tag_10\n          jump\t// in\n        tag_23:\n            /* \"#utility.yul\":615:617   */\n          0x40\n            /* \"#utility.yul\":608:630   */\n          mstore\n            /* \"#utility.yul\":639:661   */\n          dup2\n          dup2\n          mstore\n            /* \"#utility.yul\":680:699   */\n          dup4\n          dup3\n          add\n            /* \"#utility.yul\":701:705   */\n          0x20\n            /* \"#utility.yul\":676:706   */\n          add\n            /* \"#utility.yul\":673:712   */\n          dup6\n          lt\n            /* \"#utility.yul\":670:729   */\n          iszero\n          tag_24\n          jumpi\n            /* \"#utility.yul\":725:726   */\n          0x00\n            /* \"#utility.yul\":722:723   */\n          dup1\n            /* \"#utility.yul\":715:727   */\n          revert\n            /* \"#utility.yul\":670:729   */\n        tag_24:\n            /* \"#utility.yul\":782:788   */\n          dup2\n            /* \"#utility.yul\":775:779   */\n          0x20\n            /* \"#utility.yul\":767:773   */\n          dup6\n            /* \"#utility.yul\":763:780   */\n          add\n            /* \"#utility.yul\":756:760   */\n          0x20\n            /* \"#utility.yul\":748:754   */\n          dup4\n            /* \"#utility.yul\":744:761   */\n          add\n            /* \"#utility.yul\":738:789   */\n          mcopy\n            /* \"#utility.yul\":837:838   */\n          0x00\n            /* \"#utility.yul\":809:828   */\n          swap2\n          dup2\n          add\n            /* \"#utility.yul\":830:834   */\n          0x20\n            /* \"#utility.yul\":805:835   */\n          add\n            /* \"#utility.yul\":798:839   */\n          swap2\n          swap1\n          swap2\n          mstore\n            /* \"#utility.yul\":813:819   */\n          swap4\n            /* \"#utility.yul\":146:869   */\n          swap3\n          pop\n          pop\n          pop\n          jump\t// out\n            /* \"#utility.yul\":874:1878   */\n        tag_3:\n            /* \"#utility.yul\":999:1005   */\n          0x00\n            /* \"#utility.yul\":1007:1013   */\n          dup1\n            /* \"#utility.yul\":1015:1021   */\n          0x00\n            /* \"#utility.yul\":1023:1029   */\n          dup1\n            /* \"#utility.yul\":1031:1037   */\n          0x00\n            /* \"#utility.yul\":1084:1087   */\n          0xa0\n            /* \"#utility.yul\":1072:1081   */\n          dup7\n            /* \"#utility.yul\":1063:1070   */\n          dup9\n            /* \"#utility.yul\":1059:1082   */\n          sub\n            /* \"#utility.yul\":1055:1088   */\n          slt\n            /* \"#utility.yul\":1052:1105   */\n          iszero\n          tag_26\n          jumpi\n            /* \"#utility.yul\":1101:1102   */\n          0x00\n            /* \"#utility.yul\":1098:1099   */\n          dup1\n            /* \"#utility.yul\":1091:1103   */\n          revert\n            /* \"#utility.yul\":1052:1105   */\n        tag_26:\n            /* \"#utility.yul\":1127:1143   */\n          dup6\n          mload\n          sub(shl(0xa0, 0x01), 0x01)\n            /* \"#utility.yul\":1172:1203   */\n          dup2\n          and\n            /* \"#utility.yul\":1162:1204   */\n          dup2\n          eq\n            /* \"#utility.yul\":1152:1222   */\n          tag_27\n          jumpi\n            /* \"#utility.yul\":1218:1219   */\n          0x00\n            /* \"#utility.yul\":1215:1216   */\n          dup1\n            /* \"#utility.yul\":1208:1220   */\n          revert\n            /* \"#utility.yul\":1152:1222   */\n        tag_27:\n            /* \"#utility.yul\":1290:1292   */\n          0x20\n            /* \"#utility.yul\":1275:1293   */\n          dup8\n          add\n            /* \"#utility.yul\":1269:1294   */\n          mload\n            /* \"#utility.yul\":1241:1246   */\n          swap1\n          swap6\n          pop\n          sub(shl(0x40, 0x01), 0x01)\n            /* \"#utility.yul\":1306:1336   */\n          dup2\n          gt\n            /* \"#utility.yul\":1303:1353   */\n          iszero\n          tag_28\n          jumpi\n            /* \"#utility.yul\":1349:1350   */\n          0x00\n            /* \"#utility.yul\":1346:1347   */\n          dup1\n            /* \"#utility.yul\":1339:1351   */\n          revert\n            /* \"#utility.yul\":1303:1353   */\n        tag_28:\n            /* \"#utility.yul\":1372:1433   */\n          tag_29\n            /* \"#utility.yul\":1425:1432   */\n          dup9\n            /* \"#utility.yul\":1416:1422   */\n          dup3\n            /* \"#utility.yul\":1405:1414   */\n          dup10\n            /* \"#utility.yul\":1401:1423   */\n          add\n            /* \"#utility.yul\":1372:1433   */\n          tag_11\n          jump\t// in\n        tag_29:\n            /* \"#utility.yul\":1479:1481   */\n          0x40\n            /* \"#utility.yul\":1464:1482   */\n          dup9\n          add\n            /* \"#utility.yul\":1458:1483   */\n          mload\n            /* \"#utility.yul\":1362:1433   */\n          swap1\n          swap6\n          pop\n            /* \"#utility.yul\":1458:1483   */\n          swap1\n          pop\n          sub(shl(0x40, 0x01), 0x01)\n            /* \"#utility.yul\":1495:1527   */\n          dup2\n          gt\n            /* \"#utility.yul\":1492:1544   */\n          iszero\n          tag_30\n          jumpi\n            /* \"#utility.yul\":1540:1541   */\n          0x00\n            /* \"#utility.yul\":1537:1538   */\n          dup1\n            /* \"#utility.yul\":1530:1542   */\n          revert\n            /* \"#utility.yul\":1492:1544   */\n        tag_30:\n            /* \"#utility.yul\":1563:1626   */\n          tag_31\n            /* \"#utility.yul\":1618:1625   */\n          dup9\n            /* \"#utility.yul\":1607:1615   */\n          dup3\n            /* \"#utility.yul\":1596:1605   */\n          dup10\n            /* \"#utility.yul\":1592:1616   */\n          add\n            /* \"#utility.yul\":1563:1626   */\n          tag_11\n          jump\t// in\n        tag_31:\n            /* \"#utility.yul\":1553:1626   */\n          swap4\n          pop\n          pop\n            /* \"#utility.yul\":1671:1673   */\n          0x60\n            /* \"#utility.yul\":1660:1669   */\n          dup7\n            /* \"#utility.yul\":1656:1674   */\n          add\n            /* \"#utility.yul\":1650:1675   */\n          mload\n            /* \"#utility.yul\":1719:1729   */\n          0xffffffff\n            /* \"#utility.yul\":1710:1717   */\n          dup2\n            /* \"#utility.yul\":1706:1730   */\n          and\n            /* \"#utility.yul\":1697:1704   */\n          dup2\n            /* \"#utility.yul\":1694:1731   */\n          eq\n            /* \"#utility.yul\":1684:1749   */\n          tag_32\n          jumpi\n            /* \"#utility.yul\":1745:1746   */\n          0x00\n            /* \"#utility.yul\":1742:1743   */\n          dup1\n            /* \"#utility.yul\":1735:1747   */\n          revert\n            /* \"#utility.yul\":1684:1749   */\n        tag_32:\n            /* \"#utility.yul\":1841:1844   */\n          0x80\n            /* \"#utility.yul\":1826:1845   */\n          swap7\n          swap1\n          swap7\n          add\n            /* \"#utility.yul\":1820:1846   */\n          mload\n            /* \"#utility.yul\":874:1878   */\n          swap5\n          swap8\n          swap4\n          swap7\n          pop\n          swap2\n          swap5\n            /* \"#utility.yul\":1768:1775   */\n          swap4\n            /* \"#utility.yul\":1820:1846   */\n          swap3\n            /* \"#utility.yul\":874:1878   */\n          swap2\n          pop\n          pop\n          jump\t// out\n            /* \"#utility.yul\":1883:2263   */\n        tag_12:\n            /* \"#utility.yul\":1962:1963   */\n          0x01\n            /* \"#utility.yul\":1958:1970   */\n          dup2\n          dup2\n          shr\n          swap1\n            /* \"#utility.yul\":2005:2017   */\n          dup3\n          and\n          dup1\n            /* \"#utility.yul\":2026:2087   */\n          tag_34\n          jumpi\n            /* \"#utility.yul\":2080:2084   */\n          0x7f\n            /* \"#utility.yul\":2072:2078   */\n          dup3\n            /* \"#utility.yul\":2068:2085   */\n          and\n            /* \"#utility.yul\":2058:2085   */\n          swap2\n          pop\n            /* \"#utility.yul\":2026:2087   */\n        tag_34:\n            /* \"#utility.yul\":2133:2135   */\n          0x20\n            /* \"#utility.yul\":2125:2131   */\n          dup3\n            /* \"#utility.yul\":2122:2136   */\n          lt\n            /* \"#utility.yul\":2102:2120   */\n          dup2\n            /* \"#utility.yul\":2099:2137   */\n          sub\n            /* \"#utility.yul\":2096:2257   */\n          tag_35\n          jumpi\n            /* \"#utility.yul\":2179:2189   */\n          0x4e487b71\n            /* \"#utility.yul\":2174:2177   */\n          0xe0\n            /* \"#utility.yul\":2170:2190   */\n          shl\n            /* \"#utility.yul\":2167:2168   */\n          0x00\n            /* \"#utility.yul\":2160:2191   */\n          mstore\n            /* \"#utility.yul\":2214:2218   */\n          0x22\n            /* \"#utility.yul\":2211:2212   */\n          0x04\n            /* \"#utility.yul\":2204:2219   */\n          mstore\n            /* \"#utility.yul\":2242:2246   */\n          0x24\n            /* \"#utility.yul\":2239:2240   */\n          0x00\n            /* \"#utility.yul\":2232:2247   */\n          revert\n            /* \"#utility.yul\":2096:2257   */\n        tag_35:\n          pop\n            /* \"#utility.yul\":1883:2263   */\n          swap2\n          swap1\n          pop\n          jump\t// out\n            /* \"#utility.yul\":2394:2912   */\n        tag_14:\n            /* \"#utility.yul\":2496:2498   */\n          0x1f\n            /* \"#utility.yul\":2491:2494   */\n          dup3\n            /* \"#utility.yul\":2488:2499   */\n          gt\n            /* \"#utility.yul\":2485:2906   */\n          iszero\n          tag_38\n          jumpi\n            /* \"#utility.yul\":2532:2537   */\n          dup1\n            /* \"#utility.yul\":2529:2530   */\n          0x00\n            /* \"#utility.yul\":2522:2538   */\n          mstore\n            /* \"#utility.yul\":2576:2580   */\n          0x20\n            /* \"#utility.yul\":2573:2574   */\n          0x00\n            /* \"#utility.yul\":2563:2581   */\n          keccak256\n            /* \"#utility.yul\":2646:2648   */\n          0x1f\n            /* \"#utility.yul\":2634:2644   */\n          dup5\n            /* \"#utility.yul\":2630:2649   */\n          add\n            /* \"#utility.yul\":2627:2628   */\n          0x05\n            /* \"#utility.yul\":2623:2650   */\n          shr\n            /* \"#utility.yul\":2617:2621   */\n          dup2\n            /* \"#utility.yul\":2613:2651   */\n          add\n            /* \"#utility.yul\":2682:2686   */\n          0x20\n            /* \"#utility.yul\":2670:2680   */\n          dup6\n            /* \"#utility.yul\":2667:2687   */\n          lt\n            /* \"#utility.yul\":2664:2711   */\n          iszero\n          tag_39\n          jumpi\n          pop\n            /* \"#utility.yul\":2705:2709   */\n          dup1\n            /* \"#utility.yul\":2664:2711   */\n        tag_39:\n            /* \"#utility.yul\":2760:2762   */\n          0x1f\n            /* \"#utility.yul\":2755:2758   */\n          dup5\n            /* \"#utility.yul\":2751:2763   */\n          add\n            /* \"#utility.yul\":2748:2749   */\n          0x05\n            /* \"#utility.yul\":2744:2764   */\n          shr\n            /* \"#utility.yul\":2738:2742   */\n          dup3\n            /* \"#utility.yul\":2734:2765   */\n          add\n            /* \"#utility.yul\":2724:2765   */\n          swap2\n          pop\n            /* \"#utility.yul\":2815:2896   */\n        tag_40:\n            /* \"#utility.yul\":2833:2835   */\n          dup2\n            /* \"#utility.yul\":2826:2831   */\n          dup2\n            /* \"#utility.yul\":2823:2836   */\n          lt\n            /* \"#utility.yul\":2815:2896   */\n          iszero\n          tag_42\n          jumpi\n            /* \"#utility.yul\":2892:2893   */\n          0x00\n            /* \"#utility.yul\":2878:2894   */\n          dup2\n          sstore\n            /* \"#utility.yul\":2859:2860   */\n          0x01\n            /* \"#utility.yul\":2848:2861   */\n          add\n            /* \"#utility.yul\":2815:2896   */\n          jump(tag_40)\n        tag_42:\n            /* \"#utility.yul\":2819:2822   */\n          pop\n          pop\n            /* \"#utility.yul\":2485:2906   */\n        tag_38:\n            /* \"#utility.yul\":2394:2912   */\n          pop\n          pop\n          pop\n          jump\t// out\n            /* \"#utility.yul\":3088:4387   */\n        tag_7:\n            /* \"#utility.yul\":3208:3218   */\n          dup2\n          mload\n          sub(shl(0x40, 0x01), 0x01)\n            /* \"#utility.yul\":3230:3260   */\n          dup2\n          gt\n            /* \"#utility.yul\":3227:3283   */\n          iszero\n          tag_46\n          jumpi\n            /* \"#utility.yul\":3263:3281   */\n          tag_46\n          tag_10\n          jump\t// in\n        tag_46:\n            /* \"#utility.yul\":3292:3389   */\n          tag_47\n            /* \"#utility.yul\":3382:3388   */\n          dup2\n            /* \"#utility.yul\":3342:3380   */\n          tag_48\n            /* \"#utility.yul\":3374:3378   */\n          dup5\n            /* \"#utility.yul\":3368:3379   */\n          sload\n            /* \"#utility.yul\":3342:3380   */\n          tag_12\n          jump\t// in\n        tag_48:\n            /* \"#utility.yul\":3336:3340   */\n          dup5\n            /* \"#utility.yul\":3292:3389   */\n          tag_14\n          jump\t// in\n        tag_47:\n            /* \"#utility.yul\":3438:3442   */\n          0x20\n            /* \"#utility.yul\":3469:3471   */\n          0x1f\n            /* \"#utility.yul\":3458:3472   */\n          dup3\n          gt\n            /* \"#utility.yul\":3486:3487   */\n          0x01\n            /* \"#utility.yul\":3481:4130   */\n          dup2\n          eq\n          tag_50\n          jumpi\n            /* \"#utility.yul\":4174:4175   */\n          0x00\n            /* \"#utility.yul\":4191:4197   */\n          dup4\n            /* \"#utility.yul\":4188:4277   */\n          iszero\n          tag_51\n          jumpi\n          pop\n            /* \"#utility.yul\":4243:4262   */\n          dup5\n          dup3\n          add\n            /* \"#utility.yul\":4237:4263   */\n          mload\n            /* \"#utility.yul\":4188:4277   */\n        tag_51:\n          not(0x00)\n            /* \"#utility.yul\":3045:3046   */\n          0x03\n            /* \"#utility.yul\":3041:3052   */\n          dup6\n          swap1\n          shl\n            /* \"#utility.yul\":3037:3061   */\n          shr\n            /* \"#utility.yul\":3033:3062   */\n          not\n            /* \"#utility.yul\":3023:3063   */\n          and\n            /* \"#utility.yul\":3069:3070   */\n          0x01\n            /* \"#utility.yul\":3065:3076   */\n          dup5\n          swap1\n          shl\n            /* \"#utility.yul\":3020:3077   */\n          or\n            /* \"#utility.yul\":4290:4371   */\n          dup5\n          sstore\n            /* \"#utility.yul\":3451:4381   */\n          jump(tag_42)\n            /* \"#utility.yul\":3481:4130   */\n        tag_50:\n            /* \"#utility.yul\":2341:2342   */\n          0x00\n            /* \"#utility.yul\":2334:2348   */\n          dup5\n          dup2\n          mstore\n            /* \"#utility.yul\":2378:2382   */\n          0x20\n            /* \"#utility.yul\":2365:2383   */\n          dup2\n          keccak256\n          not(0x1f)\n            /* \"#utility.yul\":3517:3537   */\n          dup6\n          and\n          swap2\n            /* \"#utility.yul\":3635:3857   */\n        tag_54:\n            /* \"#utility.yul\":3649:3656   */\n          dup3\n            /* \"#utility.yul\":3646:3647   */\n          dup2\n            /* \"#utility.yul\":3643:3657   */\n          lt\n            /* \"#utility.yul\":3635:3857   */\n          iszero\n          tag_56\n          jumpi\n            /* \"#utility.yul\":3731:3750   */\n          dup8\n          dup6\n          add\n            /* \"#utility.yul\":3725:3751   */\n          mload\n            /* \"#utility.yul\":3710:3752   */\n          dup3\n          sstore\n            /* \"#utility.yul\":3838:3842   */\n          0x20\n            /* \"#utility.yul\":3823:3843   */\n          swap5\n          dup6\n          add\n          swap5\n            /* \"#utility.yul\":3791:3792   */\n          0x01\n            /* \"#utility.yul\":3779:3793   */\n          swap1\n          swap3\n          add\n          swap2\n            /* \"#utility.yul\":3665:3677   */\n          add\n            /* \"#utility.yul\":3635:3857   */\n          jump(tag_54)\n        tag_56:\n            /* \"#utility.yul\":3639:3642   */\n          pop\n            /* \"#utility.yul\":3885:3891   */\n          dup5\n            /* \"#utility.yul\":3876:3883   */\n          dup3\n            /* \"#utility.yul\":3873:3892   */\n          lt\n            /* \"#utility.yul\":3870:4071   */\n          iszero\n          tag_57\n          jumpi\n            /* \"#utility.yul\":3946:3965   */\n          dup7\n          dup5\n          add\n            /* \"#utility.yul\":3940:3966   */\n          mload\n          not(0x00)\n            /* \"#utility.yul\":4029:4030   */\n          0x03\n            /* \"#utility.yul\":4025:4039   */\n          dup8\n          swap1\n          shl\n            /* \"#utility.yul\":4041:4044   */\n          0xf8\n            /* \"#utility.yul\":4021:4045   */\n          and\n            /* \"#utility.yul\":4017:4054   */\n          shr\n            /* \"#utility.yul\":4013:4055   */\n          not\n            /* \"#utility.yul\":3998:4056   */\n          and\n            /* \"#utility.yul\":3983:4057   */\n          dup2\n          sstore\n            /* \"#utility.yul\":3870:4071   */\n        tag_57:\n          pop\n          pop\n          pop\n          pop\n            /* \"#utility.yul\":4117:4118   */\n          0x01\n            /* \"#utility.yul\":4101:4115   */\n          swap1\n          dup2\n          shl\n            /* \"#utility.yul\":4097:4119   */\n          add\n            /* \"#utility.yul\":4084:4120   */\n          swap1\n          sstore\n          pop\n            /* \"#utility.yul\":3088:4387   */\n          jump\t// out\n        tag_16:\n            /* \"backend/contracts/Campaign.sol\":227:4860  contract Campaign {... */\n          mload(0x80)\n          mload(0xa0)\n          mload(0xc0)\n          codecopy(0x00, dataOffset(sub_0), dataSize(sub_0))\n          0x00\n          assignImmutable(\"0x7f8b6b088b6d74c2852fc86c796dca07b44eed6fb3daf5e6b59f7c364db14528\")\n          0x00\n          assignImmutable(\"0x1a192fabce13988b84994d4296e6cdc418d55e2f1d7f942188d4040b94fc57ac\")\n          0x00\n          assignImmutable(\"0x13600b294191fc92924bb3ce4b969c1e7e2bab8f4c93c3fc6d0a51733df3c060\")\n          return(0x00, dataSize(sub_0))\n        stop\n\n        sub_0: assembly {\n                /* \"backend/contracts/Campaign.sol\":227:4860  contract Campaign {... */\n              mstore(0x40, 0x80)\n              jumpi(tag_1, lt(calldatasize, 0x04))\n              shr(0xe0, calldataload(0x00))\n              dup1\n              0x7a3a0e84\n              gt\n              tag_12\n              jumpi\n              dup1\n              0x7a3a0e84\n              eq\n              tag_7\n              jumpi\n              dup1\n              0x968ed600\n              eq\n              tag_8\n              jumpi\n              dup1\n              0xa1211bc0\n              eq\n              tag_9\n              jumpi\n              dup1\n              0xcc6cb19a\n              eq\n              tag_10\n              jumpi\n              dup1\n              0xed88c68e\n              eq\n              tag_11\n              jumpi\n              0x00\n              dup1\n              revert\n            tag_12:\n              dup1\n              0x06fdde03\n              eq\n              tag_2\n              jumpi\n              dup1\n              0x22f3e2d4\n              eq\n              tag_3\n              jumpi\n              dup1\n              0x29dcb0cf\n              eq\n              tag_4\n              jumpi\n              dup1\n              0x38af3eed\n              eq\n              tag_5\n              jumpi\n              dup1\n              0x7284e416\n              eq\n              tag_6\n              jumpi\n            tag_1:\n              0x00\n              dup1\n              revert\n                /* \"backend/contracts/Campaign.sol\":316:334  string public name */\n            tag_2:\n              callvalue\n              dup1\n              iszero\n              tag_13\n              jumpi\n              0x00\n              dup1\n              revert\n            tag_13:\n              pop\n              tag_14\n              tag_15\n              jump\t// in\n            tag_14:\n              mload(0x40)\n              tag_16\n              swap2\n              swap1\n              tag_17\n              jump\t// in\n            tag_16:\n              mload(0x40)\n              dup1\n              swap2\n              sub\n              swap1\n              return\n                /* \"backend/contracts/Campaign.sol\":499:519  bool public isActive */\n            tag_3:\n              callvalue\n              dup1\n              iszero\n              tag_18\n              jumpi\n              0x00\n              dup1\n              revert\n            tag_18:\n              pop\n              sload(0x02)\n              tag_19\n              swap1\n              0x0100000000\n              swap1\n              div\n              0xff\n              and\n              dup2\n              jump\n            tag_19:\n              mload(0x40)\n                /* \"#utility.yul\":602:616   */\n              swap1\n              iszero\n                /* \"#utility.yul\":595:617   */\n              iszero\n                /* \"#utility.yul\":577:618   */\n              dup2\n              mstore\n                /* \"#utility.yul\":565:567   */\n              0x20\n                /* \"#utility.yul\":550:568   */\n              add\n                /* \"backend/contracts/Campaign.sol\":499:519  bool public isActive */\n              tag_16\n                /* \"#utility.yul\":437:624   */\n              jump\n                /* \"backend/contracts/Campaign.sol\":371:401  uint public immutable deadline */\n            tag_4:\n              callvalue\n              dup1\n              iszero\n              tag_23\n              jumpi\n              0x00\n              dup1\n              revert\n            tag_23:\n              pop\n              tag_24\n              immutable(\"0x1a192fabce13988b84994d4296e6cdc418d55e2f1d7f942188d4040b94fc57ac\")\n              dup2\n              jump\n            tag_24:\n              mload(0x40)\n                /* \"#utility.yul\":775:800   */\n              swap1\n              dup2\n              mstore\n                /* \"#utility.yul\":763:765   */\n              0x20\n                /* \"#utility.yul\":748:766   */\n              add\n                /* \"backend/contracts/Campaign.sol\":371:401  uint public immutable deadline */\n              tag_16\n                /* \"#utility.yul\":629:806   */\n              jump\n                /* \"backend/contracts/Campaign.sol\":274:310  address public immutable beneficiary */\n            tag_5:\n              callvalue\n              dup1\n              iszero\n              tag_28\n              jumpi\n              0x00\n              dup1\n              revert\n            tag_28:\n              pop\n              tag_29\n              immutable(\"0x13600b294191fc92924bb3ce4b969c1e7e2bab8f4c93c3fc6d0a51733df3c060\")\n              dup2\n              jump\n            tag_29:\n              mload(0x40)\n              sub(shl(0xa0, 0x01), 0x01)\n                /* \"#utility.yul\":975:1007   */\n              swap1\n              swap2\n              and\n                /* \"#utility.yul\":957:1008   */\n              dup2\n              mstore\n                /* \"#utility.yul\":945:947   */\n              0x20\n                /* \"#utility.yul\":930:948   */\n              add\n                /* \"backend/contracts/Campaign.sol\":274:310  address public immutable beneficiary */\n              tag_16\n                /* \"#utility.yul\":811:1014   */\n              jump\n                /* \"backend/contracts/Campaign.sol\":340:365  string public description */\n            tag_6:\n              callvalue\n              dup1\n              iszero\n              tag_33\n              jumpi\n              0x00\n              dup1\n              revert\n            tag_33:\n              pop\n              tag_14\n              tag_35\n              jump\t// in\n                /* \"backend/contracts/Campaign.sol\":407:442  uint32 public immutable fundingGoal */\n            tag_7:\n              callvalue\n              dup1\n              iszero\n              tag_37\n              jumpi\n              0x00\n              dup1\n              revert\n            tag_37:\n              pop\n              tag_38\n              immutable(\"0x7f8b6b088b6d74c2852fc86c796dca07b44eed6fb3daf5e6b59f7c364db14528\")\n              dup2\n              jump\n            tag_38:\n              mload(0x40)\n                /* \"#utility.yul\":1193:1203   */\n              0xffffffff\n                /* \"#utility.yul\":1181:1204   */\n              swap1\n              swap2\n              and\n                /* \"#utility.yul\":1163:1205   */\n              dup2\n              mstore\n                /* \"#utility.yul\":1151:1153   */\n              0x20\n                /* \"#utility.yul\":1136:1154   */\n              add\n                /* \"backend/contracts/Campaign.sol\":407:442  uint32 public immutable fundingGoal */\n              tag_16\n                /* \"#utility.yul\":1019:1211   */\n              jump\n                /* \"backend/contracts/Campaign.sol\":448:472  uint32 public totalFunds */\n            tag_8:\n              callvalue\n              dup1\n              iszero\n              tag_42\n              jumpi\n              0x00\n              dup1\n              revert\n            tag_42:\n              pop\n              sload(0x02)\n              tag_38\n              swap1\n              0xffffffff\n              and\n              dup2\n              jump\n                /* \"backend/contracts/Campaign.sol\":4033:4386  function finalizeCampaign() external isActiveCampaign deadlineExceeded {... */\n            tag_9:\n              callvalue\n              dup1\n              iszero\n              tag_46\n              jumpi\n              0x00\n              dup1\n              revert\n            tag_46:\n              pop\n              tag_47\n              tag_48\n              jump\t// in\n            tag_47:\n              stop\n                /* \"backend/contracts/Campaign.sol\":676:717  mapping(address => uint) public donations */\n            tag_10:\n              callvalue\n              dup1\n              iszero\n              tag_49\n              jumpi\n              0x00\n              dup1\n              revert\n            tag_49:\n              pop\n              tag_24\n              tag_51\n              calldatasize\n              0x04\n              tag_52\n              jump\t// in\n            tag_51:\n              mstore(0x20, 0x03)\n              0x00\n              swap1\n              dup2\n              mstore\n              0x40\n              swap1\n              keccak256\n              sload\n              dup2\n              jump\n                /* \"backend/contracts/Campaign.sol\":2366:3034  function donate() external payable isActiveCampaign {... */\n            tag_11:\n              tag_47\n              tag_56\n              jump\t// in\n                /* \"backend/contracts/Campaign.sol\":316:334  string public name */\n            tag_15:\n              0x00\n              dup1\n              sload\n              tag_57\n              swap1\n              tag_58\n              jump\t// in\n            tag_57:\n              dup1\n              0x1f\n              add\n              0x20\n              dup1\n              swap2\n              div\n              mul\n              0x20\n              add\n              mload(0x40)\n              swap1\n              dup2\n              add\n              0x40\n              mstore\n              dup1\n              swap3\n              swap2\n              swap1\n              dup2\n              dup2\n              mstore\n              0x20\n              add\n              dup3\n              dup1\n              sload\n              tag_59\n              swap1\n              tag_58\n              jump\t// in\n            tag_59:\n              dup1\n              iszero\n              tag_60\n              jumpi\n              dup1\n              0x1f\n              lt\n              tag_61\n              jumpi\n              0x0100\n              dup1\n              dup4\n              sload\n              div\n              mul\n              dup4\n              mstore\n              swap2\n              0x20\n              add\n              swap2\n              jump(tag_60)\n            tag_61:\n              dup3\n              add\n              swap2\n              swap1\n              0x00\n              mstore\n              keccak256(0x00, 0x20)\n              swap1\n            tag_62:\n              dup2\n              sload\n              dup2\n              mstore\n              swap1\n              0x01\n              add\n              swap1\n              0x20\n              add\n              dup1\n              dup4\n              gt\n              tag_62\n              jumpi\n              dup3\n              swap1\n              sub\n              0x1f\n              and\n              dup3\n              add\n              swap2\n            tag_60:\n              pop\n              pop\n              pop\n              pop\n              pop\n              dup2\n              jump\t// out\n                /* \"backend/contracts/Campaign.sol\":340:365  string public description */\n            tag_35:\n              0x01\n              dup1\n              sload\n              tag_57\n              swap1\n              tag_58\n              jump\t// in\n                /* \"backend/contracts/Campaign.sol\":4033:4386  function finalizeCampaign() external isActiveCampaign deadlineExceeded {... */\n            tag_48:\n                /* \"backend/contracts/Campaign.sol\":2010:2018  deadline */\n              immutable(\"0x1a192fabce13988b84994d4296e6cdc418d55e2f1d7f942188d4040b94fc57ac\")\n                /* \"backend/contracts/Campaign.sol\":1991:2006  block.timestamp */\n              timestamp\n                /* \"backend/contracts/Campaign.sol\":1991:2018  block.timestamp <= deadline */\n              gt\n              iszero\n                /* \"backend/contracts/Campaign.sol\":1983:2058  require(block.timestamp <= deadline, \"The Camapign's deadline has passed!\") */\n              tag_69\n              jumpi\n              mload(0x40)\n              shl(0xe5, 0x461bcd)\n              dup2\n              mstore\n              0x04\n              add\n              tag_70\n              swap1\n              tag_71\n              jump\t// in\n            tag_70:\n              mload(0x40)\n              dup1\n              swap2\n              sub\n              swap1\n              revert\n            tag_69:\n                /* \"backend/contracts/Campaign.sol\":2076:2084  isActive */\n              sload(0x02)\n              0x0100000000\n              swap1\n              div\n              0xff\n              and\n                /* \"backend/contracts/Campaign.sol\":2068:2116  require(isActive, \"The Campaign is not active!\") */\n              tag_72\n              jumpi\n              mload(0x40)\n              shl(0xe5, 0x461bcd)\n              dup2\n              mstore\n                /* \"#utility.yul\":2498:2500   */\n              0x20\n                /* \"backend/contracts/Campaign.sol\":2068:2116  require(isActive, \"The Campaign is not active!\") */\n              0x04\n              dup3\n              add\n                /* \"#utility.yul\":2480:2501   */\n              mstore\n                /* \"#utility.yul\":2537:2539   */\n              0x1b\n                /* \"#utility.yul\":2517:2535   */\n              0x24\n              dup3\n              add\n                /* \"#utility.yul\":2510:2540   */\n              mstore\n                /* \"#utility.yul\":2576:2605   */\n              0x5468652043616d706169676e206973206e6f7420616374697665210000000000\n                /* \"#utility.yul\":2556:2574   */\n              0x44\n              dup3\n              add\n                /* \"#utility.yul\":2549:2606   */\n              mstore\n                /* \"#utility.yul\":2623:2641   */\n              0x64\n              add\n                /* \"backend/contracts/Campaign.sol\":2068:2116  require(isActive, \"The Campaign is not active!\") */\n              tag_70\n                /* \"#utility.yul\":2296:2647   */\n              jump\n                /* \"backend/contracts/Campaign.sol\":2068:2116  require(isActive, \"The Campaign is not active!\") */\n            tag_72:\n                /* \"backend/contracts/Campaign.sol\":2204:2212  deadline */\n              immutable(\"0x1a192fabce13988b84994d4296e6cdc418d55e2f1d7f942188d4040b94fc57ac\")\n                /* \"backend/contracts/Campaign.sol\":2186:2201  block.timestamp */\n              timestamp\n                /* \"backend/contracts/Campaign.sol\":2186:2212  block.timestamp > deadline */\n              gt\n                /* \"backend/contracts/Campaign.sol\":2178:2256  require(block.timestamp > deadline, \"The Camapign's deadline has not passed!\") */\n              tag_76\n              jumpi\n              mload(0x40)\n              shl(0xe5, 0x461bcd)\n              dup2\n              mstore\n                /* \"#utility.yul\":2854:2856   */\n              0x20\n                /* \"backend/contracts/Campaign.sol\":2178:2256  require(block.timestamp > deadline, \"The Camapign's deadline has not passed!\") */\n              0x04\n              dup3\n              add\n                /* \"#utility.yul\":2836:2857   */\n              mstore\n                /* \"#utility.yul\":2893:2895   */\n              0x27\n                /* \"#utility.yul\":2873:2891   */\n              0x24\n              dup3\n              add\n                /* \"#utility.yul\":2866:2896   */\n              mstore\n                /* \"#utility.yul\":2932:2966   */\n              0x5468652043616d617069676e277320646561646c696e6520686173206e6f7420\n                /* \"#utility.yul\":2912:2930   */\n              0x44\n              dup3\n              add\n                /* \"#utility.yul\":2905:2967   */\n              mstore\n              shl(0xc8, 0x70617373656421)\n                /* \"#utility.yul\":2983:3001   */\n              0x64\n              dup3\n              add\n                /* \"#utility.yul\":2976:3013   */\n              mstore\n                /* \"#utility.yul\":3030:3049   */\n              0x84\n              add\n                /* \"backend/contracts/Campaign.sol\":2178:2256  require(block.timestamp > deadline, \"The Camapign's deadline has not passed!\") */\n              tag_70\n                /* \"#utility.yul\":2652:3055   */\n              jump\n                /* \"backend/contracts/Campaign.sol\":2178:2256  require(block.timestamp > deadline, \"The Camapign's deadline has not passed!\") */\n            tag_76:\n                /* \"backend/contracts/Campaign.sol\":4114:4122  isActive */\n              0x02\n                /* \"backend/contracts/Campaign.sol\":4114:4130  isActive = false */\n              dup1\n              sload\n              not(0xff00000000)\n              dup2\n              and\n              swap1\n              swap2\n              sstore\n                /* \"backend/contracts/Campaign.sol\":4145:4169  totalFunds > fundingGoal */\n              0xffffffff\n                /* \"backend/contracts/Campaign.sol\":4158:4169  fundingGoal */\n              immutable(\"0x7f8b6b088b6d74c2852fc86c796dca07b44eed6fb3daf5e6b59f7c364db14528\")\n                /* \"backend/contracts/Campaign.sol\":4145:4169  totalFunds > fundingGoal */\n              dup2\n              and\n                /* \"backend/contracts/Campaign.sol\":4145:4155  totalFunds */\n              swap2\n              and\n                /* \"backend/contracts/Campaign.sol\":4145:4169  totalFunds > fundingGoal */\n              gt\n                /* \"backend/contracts/Campaign.sol\":4141:4380  if (totalFunds > fundingGoal) {... */\n              iszero\n              tag_81\n              jumpi\n                /* \"backend/contracts/Campaign.sol\":4185:4199  releaseFunds() */\n              tag_81\n                /* \"backend/contracts/Campaign.sol\":4185:4197  releaseFunds */\n              tag_82\n                /* \"backend/contracts/Campaign.sol\":4185:4199  releaseFunds() */\n              jump\t// in\n            tag_81:\n                /* \"backend/contracts/Campaign.sol\":4033:4386  function finalizeCampaign() external isActiveCampaign deadlineExceeded {... */\n              jump\t// out\n                /* \"backend/contracts/Campaign.sol\":2366:3034  function donate() external payable isActiveCampaign {... */\n            tag_56:\n                /* \"backend/contracts/Campaign.sol\":2010:2018  deadline */\n              immutable(\"0x1a192fabce13988b84994d4296e6cdc418d55e2f1d7f942188d4040b94fc57ac\")\n                /* \"backend/contracts/Campaign.sol\":1991:2006  block.timestamp */\n              timestamp\n                /* \"backend/contracts/Campaign.sol\":1991:2018  block.timestamp <= deadline */\n              gt\n              iszero\n                /* \"backend/contracts/Campaign.sol\":1983:2058  require(block.timestamp <= deadline, \"The Camapign's deadline has passed!\") */\n              tag_85\n              jumpi\n              mload(0x40)\n              shl(0xe5, 0x461bcd)\n              dup2\n              mstore\n              0x04\n              add\n              tag_70\n              swap1\n              tag_71\n              jump\t// in\n            tag_85:\n                /* \"backend/contracts/Campaign.sol\":2076:2084  isActive */\n              sload(0x02)\n              0x0100000000\n              swap1\n              div\n              0xff\n              and\n                /* \"backend/contracts/Campaign.sol\":2068:2116  require(isActive, \"The Campaign is not active!\") */\n              tag_87\n              jumpi\n              mload(0x40)\n              shl(0xe5, 0x461bcd)\n              dup2\n              mstore\n                /* \"#utility.yul\":2498:2500   */\n              0x20\n                /* \"backend/contracts/Campaign.sol\":2068:2116  require(isActive, \"The Campaign is not active!\") */\n              0x04\n              dup3\n              add\n                /* \"#utility.yul\":2480:2501   */\n              mstore\n                /* \"#utility.yul\":2537:2539   */\n              0x1b\n                /* \"#utility.yul\":2517:2535   */\n              0x24\n              dup3\n              add\n                /* \"#utility.yul\":2510:2540   */\n              mstore\n                /* \"#utility.yul\":2576:2605   */\n              0x5468652043616d706169676e206973206e6f7420616374697665210000000000\n                /* \"#utility.yul\":2556:2574   */\n              0x44\n              dup3\n              add\n                /* \"#utility.yul\":2549:2606   */\n              mstore\n                /* \"#utility.yul\":2623:2641   */\n              0x64\n              add\n                /* \"backend/contracts/Campaign.sol\":2068:2116  require(isActive, \"The Campaign is not active!\") */\n              tag_70\n                /* \"#utility.yul\":2296:2647   */\n              jump\n                /* \"backend/contracts/Campaign.sol\":2068:2116  require(isActive, \"The Campaign is not active!\") */\n            tag_87:\n                /* \"backend/contracts/Campaign.sol\":2444:2454  msg.sender */\n              caller\n                /* \"backend/contracts/Campaign.sol\":2428:2441  address donor */\n              0x00\n                /* \"backend/contracts/Campaign.sol\":2507:2523  donations[donor] */\n              dup2\n              dup2\n              mstore\n                /* \"backend/contracts/Campaign.sol\":2507:2516  donations */\n              0x03\n                /* \"backend/contracts/Campaign.sol\":2507:2523  donations[donor] */\n              0x20\n              mstore\n              0x40\n              dup2\n              keccak256\n                /* \"backend/contracts/Campaign.sol\":2507:2533  donations[donor] += amount */\n              dup1\n              sload\n                /* \"backend/contracts/Campaign.sol\":2487:2496  msg.value */\n              callvalue\n              swap3\n                /* \"backend/contracts/Campaign.sol\":2507:2533  donations[donor] += amount */\n              0xffffffff\n              dup5\n              and\n              swap3\n                /* \"backend/contracts/Campaign.sol\":2507:2523  donations[donor] */\n              swap2\n                /* \"backend/contracts/Campaign.sol\":2507:2533  donations[donor] += amount */\n              tag_90\n              swap1\n              dup5\n              swap1\n              tag_91\n              jump\t// in\n            tag_90:\n              swap1\n              swap2\n              sstore\n              pop\n              pop\n                /* \"backend/contracts/Campaign.sol\":2703:2713  totalFunds */\n              sload(0x02)\n                /* \"backend/contracts/Campaign.sol\":2680:2700  uint32 newTotalFunds */\n              0x00\n              swap1\n                /* \"backend/contracts/Campaign.sol\":2703:2722  totalFunds + amount */\n              tag_92\n              swap1\n                /* \"backend/contracts/Campaign.sol\":2716:2722  amount */\n              dup4\n              swap1\n                /* \"backend/contracts/Campaign.sol\":2703:2713  totalFunds */\n              0xffffffff\n              and\n                /* \"backend/contracts/Campaign.sol\":2703:2722  totalFunds + amount */\n              tag_93\n              jump\t// in\n            tag_92:\n                /* \"backend/contracts/Campaign.sol\":2732:2742  totalFunds */\n              0x02\n                /* \"backend/contracts/Campaign.sol\":2732:2758  totalFunds = newTotalFunds */\n              dup1\n              sload\n              not(0xffffffff)\n              and\n              0xffffffff\n              dup4\n              dup2\n              and\n              swap2\n              swap1\n              swap2\n              or\n              swap1\n              swap2\n              sstore\n                /* \"backend/contracts/Campaign.sol\":2773:2817  DonationMade(donor, amount, block.timestamp) */\n              0x40\n              dup1\n              mload\n              sub(shl(0xa0, 0x01), 0x01)\n                /* \"#utility.yul\":3712:3744   */\n              dup8\n              and\n                /* \"#utility.yul\":3694:3745   */\n              dup2\n              mstore\n                /* \"#utility.yul\":3781:3804   */\n              swap2\n              dup6\n              and\n                /* \"#utility.yul\":3776:3778   */\n              0x20\n                /* \"#utility.yul\":3761:3779   */\n              dup4\n              add\n                /* \"#utility.yul\":3754:3805   */\n              mstore\n                /* \"backend/contracts/Campaign.sol\":2801:2816  block.timestamp */\n              timestamp\n                /* \"#utility.yul\":3821:3839   */\n              swap1\n              dup3\n              add\n                /* \"#utility.yul\":3814:3848   */\n              mstore\n                /* \"backend/contracts/Campaign.sol\":2732:2758  totalFunds = newTotalFunds */\n              swap1\n              swap2\n              pop\n                /* \"backend/contracts/Campaign.sol\":2773:2817  DonationMade(donor, amount, block.timestamp) */\n              0xbe5ba4d5e39744ee657f0a6860c95f5d91d56c6fed3eac2a01c0f621573cba19\n              swap1\n                /* \"#utility.yul\":3682:3684   */\n              0x60\n                /* \"#utility.yul\":3667:3685   */\n              add\n                /* \"backend/contracts/Campaign.sol\":2773:2817  DonationMade(donor, amount, block.timestamp) */\n              mload(0x40)\n              dup1\n              swap2\n              sub\n              swap1\n              log1\n                /* \"backend/contracts/Campaign.sol\":2945:2956  fundingGoal */\n              immutable(\"0x7f8b6b088b6d74c2852fc86c796dca07b44eed6fb3daf5e6b59f7c364db14528\")\n                /* \"backend/contracts/Campaign.sol\":2928:2956  newTotalFunds >= fundingGoal */\n              0xffffffff\n              and\n                /* \"backend/contracts/Campaign.sol\":2928:2941  newTotalFunds */\n              dup2\n                /* \"backend/contracts/Campaign.sol\":2928:2956  newTotalFunds >= fundingGoal */\n              0xffffffff\n              and\n              lt\n                /* \"backend/contracts/Campaign.sol\":2924:2997  if (newTotalFunds >= fundingGoal) {... */\n              tag_97\n              jumpi\n                /* \"backend/contracts/Campaign.sol\":2972:2986  releaseFunds() */\n              tag_97\n                /* \"backend/contracts/Campaign.sol\":2972:2984  releaseFunds */\n              tag_82\n                /* \"backend/contracts/Campaign.sol\":2972:2986  releaseFunds() */\n              jump\t// in\n            tag_97:\n              pop\n              pop\n              pop\n                /* \"backend/contracts/Campaign.sol\":2366:3034  function donate() external payable isActiveCampaign {... */\n              jump\t// out\n                /* \"backend/contracts/Campaign.sol\":3259:3711  function releaseFunds() private {... */\n            tag_82:\n                /* \"backend/contracts/Campaign.sol\":3301:3309  isActive */\n              0x02\n                /* \"backend/contracts/Campaign.sol\":3301:3317  isActive = false */\n              dup1\n              sload\n              not(0xffffffffff)\n                /* \"backend/contracts/Campaign.sol\":3371:3385  totalFunds = 0 */\n              dup2\n              and\n              swap1\n              swap2\n              sstore\n                /* \"backend/contracts/Campaign.sol\":3464:3516  payable(beneficiary).call{value: fundsToRelease}(\"\") */\n              mload(0x40)\n                /* \"backend/contracts/Campaign.sol\":3351:3361  totalFunds */\n              0xffffffff\n              swap1\n              swap2\n              and\n              swap1\n              0x00\n              swap1\n                /* \"backend/contracts/Campaign.sol\":3472:3483  beneficiary */\n              immutable(\"0x13600b294191fc92924bb3ce4b969c1e7e2bab8f4c93c3fc6d0a51733df3c060\")\n              sub(shl(0xa0, 0x01), 0x01)\n                /* \"backend/contracts/Campaign.sol\":3464:3489  payable(beneficiary).call */\n              and\n              swap1\n                /* \"backend/contracts/Campaign.sol\":3351:3361  totalFunds */\n              dup4\n              swap1\n              dup4\n                /* \"backend/contracts/Campaign.sol\":3464:3516  payable(beneficiary).call{value: fundsToRelease}(\"\") */\n              dup2\n              dup2\n              dup2\n                /* \"backend/contracts/Campaign.sol\":3351:3361  totalFunds */\n              dup6\n                /* \"backend/contracts/Campaign.sol\":3464:3489  payable(beneficiary).call */\n              dup8\n                /* \"backend/contracts/Campaign.sol\":3464:3516  payable(beneficiary).call{value: fundsToRelease}(\"\") */\n              gas\n              call\n              swap3\n              pop\n              pop\n              pop\n              returndatasize\n              dup1\n              0x00\n              dup2\n              eq\n              tag_103\n              jumpi\n              mload(0x40)\n              swap2\n              pop\n              and(add(returndatasize, 0x3f), not(0x1f))\n              dup3\n              add\n              0x40\n              mstore\n              returndatasize\n              dup3\n              mstore\n              returndatasize\n              0x00\n              0x20\n              dup5\n              add\n              returndatacopy\n              jump(tag_102)\n            tag_103:\n              0x60\n              swap2\n              pop\n            tag_102:\n              pop\n                /* \"backend/contracts/Campaign.sol\":3446:3516  (bool success,) = payable(beneficiary).call{value: fundsToRelease}(\"\") */\n              pop\n              swap1\n              pop\n                /* \"backend/contracts/Campaign.sol\":3534:3541  success */\n              dup1\n                /* \"backend/contracts/Campaign.sol\":3526:3570  require(success, \"Unable to release funds!\") */\n              tag_104\n              jumpi\n              mload(0x40)\n              shl(0xe5, 0x461bcd)\n              dup2\n              mstore\n                /* \"#utility.yul\":4271:4273   */\n              0x20\n                /* \"backend/contracts/Campaign.sol\":3526:3570  require(success, \"Unable to release funds!\") */\n              0x04\n              dup3\n              add\n                /* \"#utility.yul\":4253:4274   */\n              mstore\n                /* \"#utility.yul\":4310:4312   */\n              0x18\n                /* \"#utility.yul\":4290:4308   */\n              0x24\n              dup3\n              add\n                /* \"#utility.yul\":4283:4313   */\n              mstore\n                /* \"#utility.yul\":4349:4375   */\n              0x556e61626c6520746f2072656c656173652066756e6473210000000000000000\n                /* \"#utility.yul\":4329:4347   */\n              0x44\n              dup3\n              add\n                /* \"#utility.yul\":4322:4376   */\n              mstore\n                /* \"#utility.yul\":4393:4411   */\n              0x64\n              add\n                /* \"backend/contracts/Campaign.sol\":3526:3570  require(success, \"Unable to release funds!\") */\n              tag_70\n                /* \"#utility.yul\":4069:4417   */\n              jump\n                /* \"backend/contracts/Campaign.sol\":3526:3570  require(success, \"Unable to release funds!\") */\n            tag_104:\n                /* \"backend/contracts/Campaign.sol\":3586:3633  FundsWithdrawn(fundsToRelease, block.timestamp) */\n              0x40\n              dup1\n              mload\n                /* \"#utility.yul\":4624:4634   */\n              0xffffffff\n                /* \"#utility.yul\":4612:4635   */\n              dup5\n              and\n                /* \"#utility.yul\":4594:4636   */\n              dup2\n              mstore\n                /* \"backend/contracts/Campaign.sol\":3617:3632  block.timestamp */\n              timestamp\n                /* \"#utility.yul\":4667:4669   */\n              0x20\n                /* \"#utility.yul\":4652:4670   */\n              dup3\n              add\n                /* \"#utility.yul\":4645:4679   */\n              mstore\n                /* \"backend/contracts/Campaign.sol\":3586:3633  FundsWithdrawn(fundsToRelease, block.timestamp) */\n              0x832ca426a0f1af392dc1358ea7759717627e3060d5f935a028a94b3d7969c55c\n              swap2\n                /* \"#utility.yul\":4567:4585   */\n              add\n                /* \"backend/contracts/Campaign.sol\":3586:3633  FundsWithdrawn(fundsToRelease, block.timestamp) */\n              mload(0x40)\n              dup1\n              swap2\n              sub\n              swap1\n              log1\n                /* \"backend/contracts/Campaign.sol\":3648:3704  CampaignFinalized(true, fundsToRelease, block.timestamp) */\n              0x40\n              dup1\n              mload\n                /* \"backend/contracts/Campaign.sol\":3666:3670  true */\n              0x01\n                /* \"#utility.yul\":4884:4925   */\n              dup2\n              mstore\n                /* \"#utility.yul\":4973:4983   */\n              0xffffffff\n                /* \"#utility.yul\":4961:4984   */\n              dup5\n              and\n                /* \"#utility.yul\":4956:4958   */\n              0x20\n                /* \"#utility.yul\":4941:4959   */\n              dup3\n              add\n                /* \"#utility.yul\":4934:4985   */\n              mstore\n                /* \"backend/contracts/Campaign.sol\":3688:3703  block.timestamp */\n              timestamp\n                /* \"#utility.yul\":5001:5019   */\n              dup2\n              dup4\n              add\n                /* \"#utility.yul\":4994:5028   */\n              mstore\n                /* \"backend/contracts/Campaign.sol\":3648:3704  CampaignFinalized(true, fundsToRelease, block.timestamp) */\n              swap1\n              mload\n              0x5b321f4d15a09f3dd177432a4e0c79b8c201f9d24cb6e29d7108da0f9ca2bd33\n              swap2\n              dup2\n              swap1\n              sub\n                /* \"#utility.yul\":4872:4874   */\n              0x60\n                /* \"backend/contracts/Campaign.sol\":3648:3704  CampaignFinalized(true, fundsToRelease, block.timestamp) */\n              add\n              swap1\n              log1\n                /* \"backend/contracts/Campaign.sol\":3291:3711  {... */\n              pop\n              pop\n                /* \"backend/contracts/Campaign.sol\":3259:3711  function releaseFunds() private {... */\n              jump\t// out\n                /* \"#utility.yul\":14:432   */\n            tag_17:\n                /* \"#utility.yul\":163:165   */\n              0x20\n                /* \"#utility.yul\":152:161   */\n              dup2\n                /* \"#utility.yul\":145:166   */\n              mstore\n                /* \"#utility.yul\":126:130   */\n              0x00\n                /* \"#utility.yul\":195:201   */\n              dup3\n                /* \"#utility.yul\":189:202   */\n              mload\n                /* \"#utility.yul\":238:244   */\n              dup1\n                /* \"#utility.yul\":233:235   */\n              0x20\n                /* \"#utility.yul\":222:231   */\n              dup5\n                /* \"#utility.yul\":218:236   */\n              add\n                /* \"#utility.yul\":211:245   */\n              mstore\n                /* \"#utility.yul\":297:303   */\n              dup1\n                /* \"#utility.yul\":292:294   */\n              0x20\n                /* \"#utility.yul\":284:290   */\n              dup6\n                /* \"#utility.yul\":280:295   */\n              add\n                /* \"#utility.yul\":275:277   */\n              0x40\n                /* \"#utility.yul\":264:273   */\n              dup6\n                /* \"#utility.yul\":260:278   */\n              add\n                /* \"#utility.yul\":254:304   */\n              mcopy\n                /* \"#utility.yul\":353:354   */\n              0x00\n                /* \"#utility.yul\":348:350   */\n              0x40\n                /* \"#utility.yul\":339:345   */\n              dup3\n                /* \"#utility.yul\":328:337   */\n              dup6\n                /* \"#utility.yul\":324:346   */\n              add\n                /* \"#utility.yul\":320:351   */\n              add\n                /* \"#utility.yul\":313:355   */\n              mstore\n                /* \"#utility.yul\":423:425   */\n              0x40\n                /* \"#utility.yul\":416:418   */\n              0x1f\n                /* \"#utility.yul\":412:419   */\n              not\n                /* \"#utility.yul\":407:409   */\n              0x1f\n                /* \"#utility.yul\":399:405   */\n              dup4\n                /* \"#utility.yul\":395:410   */\n              add\n                /* \"#utility.yul\":391:420   */\n              and\n                /* \"#utility.yul\":380:389   */\n              dup5\n                /* \"#utility.yul\":376:421   */\n              add\n                /* \"#utility.yul\":372:426   */\n              add\n                /* \"#utility.yul\":364:426   */\n              swap2\n              pop\n              pop\n                /* \"#utility.yul\":14:432   */\n              swap3\n              swap2\n              pop\n              pop\n              jump\t// out\n                /* \"#utility.yul\":1216:1502   */\n            tag_52:\n                /* \"#utility.yul\":1275:1281   */\n              0x00\n                /* \"#utility.yul\":1328:1330   */\n              0x20\n                /* \"#utility.yul\":1316:1325   */\n              dup3\n                /* \"#utility.yul\":1307:1314   */\n              dup5\n                /* \"#utility.yul\":1303:1326   */\n              sub\n                /* \"#utility.yul\":1299:1331   */\n              slt\n                /* \"#utility.yul\":1296:1348   */\n              iszero\n              tag_119\n              jumpi\n                /* \"#utility.yul\":1344:1345   */\n              0x00\n                /* \"#utility.yul\":1341:1342   */\n              dup1\n                /* \"#utility.yul\":1334:1346   */\n              revert\n                /* \"#utility.yul\":1296:1348   */\n            tag_119:\n                /* \"#utility.yul\":1370:1393   */\n              dup2\n              calldataload\n              sub(shl(0xa0, 0x01), 0x01)\n                /* \"#utility.yul\":1422:1453   */\n              dup2\n              and\n                /* \"#utility.yul\":1412:1454   */\n              dup2\n              eq\n                /* \"#utility.yul\":1402:1472   */\n              tag_120\n              jumpi\n                /* \"#utility.yul\":1468:1469   */\n              0x00\n                /* \"#utility.yul\":1465:1466   */\n              dup1\n                /* \"#utility.yul\":1458:1470   */\n              revert\n                /* \"#utility.yul\":1402:1472   */\n            tag_120:\n                /* \"#utility.yul\":1491:1496   */\n              swap4\n                /* \"#utility.yul\":1216:1502   */\n              swap3\n              pop\n              pop\n              pop\n              jump\t// out\n                /* \"#utility.yul\":1507:1887   */\n            tag_58:\n                /* \"#utility.yul\":1586:1587   */\n              0x01\n                /* \"#utility.yul\":1582:1594   */\n              dup2\n              dup2\n              shr\n              swap1\n                /* \"#utility.yul\":1629:1641   */\n              dup3\n              and\n              dup1\n                /* \"#utility.yul\":1650:1711   */\n              tag_122\n              jumpi\n                /* \"#utility.yul\":1704:1708   */\n              0x7f\n                /* \"#utility.yul\":1696:1702   */\n              dup3\n                /* \"#utility.yul\":1692:1709   */\n              and\n                /* \"#utility.yul\":1682:1709   */\n              swap2\n              pop\n                /* \"#utility.yul\":1650:1711   */\n            tag_122:\n                /* \"#utility.yul\":1757:1759   */\n              0x20\n                /* \"#utility.yul\":1749:1755   */\n              dup3\n                /* \"#utility.yul\":1746:1760   */\n              lt\n                /* \"#utility.yul\":1726:1744   */\n              dup2\n                /* \"#utility.yul\":1723:1761   */\n              sub\n                /* \"#utility.yul\":1720:1881   */\n              tag_123\n              jumpi\n                /* \"#utility.yul\":1803:1813   */\n              0x4e487b71\n                /* \"#utility.yul\":1798:1801   */\n              0xe0\n                /* \"#utility.yul\":1794:1814   */\n              shl\n                /* \"#utility.yul\":1791:1792   */\n              0x00\n                /* \"#utility.yul\":1784:1815   */\n              mstore\n                /* \"#utility.yul\":1838:1842   */\n              0x22\n                /* \"#utility.yul\":1835:1836   */\n              0x04\n                /* \"#utility.yul\":1828:1843   */\n              mstore\n                /* \"#utility.yul\":1866:1870   */\n              0x24\n                /* \"#utility.yul\":1863:1864   */\n              0x00\n                /* \"#utility.yul\":1856:1871   */\n              revert\n                /* \"#utility.yul\":1720:1881   */\n            tag_123:\n              pop\n                /* \"#utility.yul\":1507:1887   */\n              swap2\n              swap1\n              pop\n              jump\t// out\n                /* \"#utility.yul\":1892:2291   */\n            tag_71:\n                /* \"#utility.yul\":2094:2096   */\n              0x20\n                /* \"#utility.yul\":2076:2097   */\n              dup1\n              dup3\n              mstore\n                /* \"#utility.yul\":2133:2135   */\n              0x23\n                /* \"#utility.yul\":2113:2131   */\n              swap1\n              dup3\n              add\n                /* \"#utility.yul\":2106:2136   */\n              mstore\n                /* \"#utility.yul\":2172:2206   */\n              0x5468652043616d617069676e277320646561646c696e65206861732070617373\n                /* \"#utility.yul\":2167:2169   */\n              0x40\n                /* \"#utility.yul\":2152:2170   */\n              dup3\n              add\n                /* \"#utility.yul\":2145:2207   */\n              mstore\n              shl(0xe8, 0x656421)\n                /* \"#utility.yul\":2238:2240   */\n              0x60\n                /* \"#utility.yul\":2223:2241   */\n              dup3\n              add\n                /* \"#utility.yul\":2216:2249   */\n              mstore\n                /* \"#utility.yul\":2281:2284   */\n              0x80\n                /* \"#utility.yul\":2266:2285   */\n              add\n              swap1\n                /* \"#utility.yul\":1892:2291   */\n              jump\t// out\n                /* \"#utility.yul\":3060:3187   */\n            tag_111:\n                /* \"#utility.yul\":3121:3131   */\n              0x4e487b71\n                /* \"#utility.yul\":3116:3119   */\n              0xe0\n                /* \"#utility.yul\":3112:3132   */\n              shl\n                /* \"#utility.yul\":3109:3110   */\n              0x00\n                /* \"#utility.yul\":3102:3133   */\n              mstore\n                /* \"#utility.yul\":3152:3156   */\n              0x11\n                /* \"#utility.yul\":3149:3150   */\n              0x04\n                /* \"#utility.yul\":3142:3157   */\n              mstore\n                /* \"#utility.yul\":3176:3180   */\n              0x24\n                /* \"#utility.yul\":3173:3174   */\n              0x00\n                /* \"#utility.yul\":3166:3181   */\n              revert\n                /* \"#utility.yul\":3192:3317   */\n            tag_91:\n                /* \"#utility.yul\":3257:3266   */\n              dup1\n              dup3\n              add\n                /* \"#utility.yul\":3278:3288   */\n              dup1\n              dup3\n              gt\n                /* \"#utility.yul\":3275:3311   */\n              iszero\n              tag_130\n              jumpi\n                /* \"#utility.yul\":3291:3309   */\n              tag_130\n              tag_111\n              jump\t// in\n            tag_130:\n                /* \"#utility.yul\":3192:3317   */\n              swap3\n              swap2\n              pop\n              pop\n              jump\t// out\n                /* \"#utility.yul\":3322:3489   */\n            tag_93:\n                /* \"#utility.yul\":3417:3427   */\n              0xffffffff\n                /* \"#utility.yul\":3390:3408   */\n              dup2\n              dup2\n              and\n                /* \"#utility.yul\":3410:3428   */\n              dup4\n              dup3\n              and\n                /* \"#utility.yul\":3386:3429   */\n              add\n              swap1\n                /* \"#utility.yul\":3441:3460   */\n              dup2\n              gt\n                /* \"#utility.yul\":3438:3483   */\n              iszero\n              tag_130\n              jumpi\n                /* \"#utility.yul\":3463:3481   */\n              tag_130\n              tag_111\n              jump\t// in\n\n            auxdata: 0xa2646970667358221220da822240b34dbcc03c5fee7b50b8a7ab64b3a4c07fdfe9949729d9c66963aef664736f6c634300081a0033\n        }\n    }\n\n    auxdata: 0xa2646970667358221220b054291d20bff3d597bd5e5f886e44f2bcb5e90ff0230f0166fc4208b23a977564736f6c634300081a0033\n}\n",
				"bytecode": {
					"linkReferences": {},
					"object": "6080604052348015600e575f80fd5b50610e508061001c5f395ff3fe608060405234801561000f575f80fd5b5060043610610029575f3560e01c806308cfd36e1461002d575b5f80fd5b61004061003b36600461013c565b610042565b005b5f3390505f8188888888888860405161005a906100ea565b61006a97969594939291906101f7565b604051809103905ff080158015610083573d5f803e3d5ffd5b50604080516001600160a01b0383811682528516602082015263ffffffff87168183015260608101869052905191925082917f26a72d8c3ee4ea9de24a79f4375306f6f713c7596bdcba170912e5bcb458d43a9181900360800190a1505050505050505050565b610bcf8061024c83390190565b5f8083601f840112610107575f80fd5b50813567ffffffffffffffff81111561011e575f80fd5b602083019150836020828501011115610135575f80fd5b9250929050565b5f805f805f8060808789031215610151575f80fd5b863567ffffffffffffffff811115610167575f80fd5b61017389828a016100f7565b909750955050602087013567ffffffffffffffff811115610192575f80fd5b61019e89828a016100f7565b909550935050604087013563ffffffff811681146101ba575f80fd5b80925050606087013590509295509295509295565b81835281816020850137505f828201602090810191909152601f909101601f19169091010190565b6001600160a01b038816815260a0602082018190525f9061021b908301888a6101cf565b828103604084015261022e8187896101cf565b63ffffffff9590951660608401525050608001529594505050505056fe60e060405234801561000f575f80fd5b50604051610bcf380380610bcf83398101604081905261002e9161011b565b6001600160a01b0385166080525f6100468582610247565b5060016100538482610247565b5063ffffffff90911660c05260a05250506002805460ff60201b191664010000000017905550610301565b634e487b7160e01b5f52604160045260245ffd5b5f82601f8301126100a1575f80fd5b81516001600160401b038111156100ba576100ba61007e565b604051601f8201601f19908116603f011681016001600160401b03811182821017156100e8576100e861007e565b6040528181528382016020018510156100ff575f80fd5b8160208501602083015e5f918101602001919091529392505050565b5f805f805f60a0868803121561012f575f80fd5b85516001600160a01b0381168114610145575f80fd5b60208701519095506001600160401b03811115610160575f80fd5b61016c88828901610092565b604088015190955090506001600160401b03811115610189575f80fd5b61019588828901610092565b935050606086015163ffffffff811681146101ae575f80fd5b60809690960151949793965091949392915050565b600181811c908216806101d757607f821691505b6020821081036101f557634e487b7160e01b5f52602260045260245ffd5b50919050565b601f82111561024257805f5260205f20601f840160051c810160208510156102205750805b601f840160051c820191505b8181101561023f575f815560010161022c565b50505b505050565b81516001600160401b038111156102605761026061007e565b6102748161026e84546101c3565b846101fb565b6020601f8211600181146102a6575f831561028f5750848201515b5f19600385901b1c1916600184901b17845561023f565b5f84815260208120601f198516915b828110156102d557878501518255602094850194600190920191016102b5565b50848210156102f257868401515f19600387901b60f8161c191681555b50505050600190811b01905550565b60805160a05160c05161087b6103545f395f818161019f0152818161040c015261058301525f818160ff015281816102d501528181610378015261044101525f818161014001526105e1015261087b5ff3fe60806040526004361061008f575f3560e01c80637a3a0e84116100575780637a3a0e841461018e578063968ed600146101d6578063a1211bc0146101f2578063cc6cb19a14610208578063ed88c68e14610233575f80fd5b806306fdde031461009357806322f3e2d4146100bd57806329dcb0cf146100ee57806338af3eed1461012f5780637284e4161461017a575b5f80fd5b34801561009e575f80fd5b506100a761023b565b6040516100b4919061071f565b60405180910390f35b3480156100c8575f80fd5b506002546100de90640100000000900460ff1681565b60405190151581526020016100b4565b3480156100f9575f80fd5b506101217f000000000000000000000000000000000000000000000000000000000000000081565b6040519081526020016100b4565b34801561013a575f80fd5b506101627f000000000000000000000000000000000000000000000000000000000000000081565b6040516001600160a01b0390911681526020016100b4565b348015610185575f80fd5b506100a76102c6565b348015610199575f80fd5b506101c17f000000000000000000000000000000000000000000000000000000000000000081565b60405163ffffffff90911681526020016100b4565b3480156101e1575f80fd5b506002546101c19063ffffffff1681565b3480156101fd575f80fd5b506102066102d3565b005b348015610213575f80fd5b50610121610222366004610754565b60036020525f908152604090205481565b61020661043f565b5f805461024790610781565b80601f016020809104026020016040519081016040528092919081815260200182805461027390610781565b80156102be5780601f10610295576101008083540402835291602001916102be565b820191905f5260205f20905b8154815290600101906020018083116102a157829003601f168201915b505050505081565b6001805461024790610781565b7f000000000000000000000000000000000000000000000000000000000000000042111561031c5760405162461bcd60e51b8152600401610313906107b9565b60405180910390fd5b600254640100000000900460ff166103765760405162461bcd60e51b815260206004820152601b60248201527f5468652043616d706169676e206973206e6f74206163746976652100000000006044820152606401610313565b7f000000000000000000000000000000000000000000000000000000000000000042116103f55760405162461bcd60e51b815260206004820152602760248201527f5468652043616d617069676e277320646561646c696e6520686173206e6f74206044820152667061737365642160c81b6064820152608401610313565b6002805464ff0000000019811690915563ffffffff7f000000000000000000000000000000000000000000000000000000000000000081169116111561043d5761043d6105c1565b565b7f000000000000000000000000000000000000000000000000000000000000000042111561047f5760405162461bcd60e51b8152600401610313906107b9565b600254640100000000900460ff166104d95760405162461bcd60e51b815260206004820152601b60248201527f5468652043616d706169676e206973206e6f74206163746976652100000000006044820152606401610313565b335f8181526003602052604081208054349263ffffffff841692916104ff908490610810565b90915550506002545f9061051a90839063ffffffff16610829565b6002805463ffffffff191663ffffffff83811691909117909155604080516001600160a01b0387168152918516602083015242908201529091507fbe5ba4d5e39744ee657f0a6860c95f5d91d56c6fed3eac2a01c0f621573cba199060600160405180910390a17f000000000000000000000000000000000000000000000000000000000000000063ffffffff168163ffffffff16106105bc576105bc6105c1565b505050565b6002805464ffffffffff19811690915560405163ffffffff909116905f907f00000000000000000000000000000000000000000000000000000000000000006001600160a01b03169083908381818185875af1925050503d805f8114610642576040519150601f19603f3d011682016040523d82523d5f602084013e610647565b606091505b50509050806106985760405162461bcd60e51b815260206004820152601860248201527f556e61626c6520746f2072656c656173652066756e64732100000000000000006044820152606401610313565b6040805163ffffffff841681524260208201527f832ca426a0f1af392dc1358ea7759717627e3060d5f935a028a94b3d7969c55c910160405180910390a1604080516001815263ffffffff84166020820152428183015290517f5b321f4d15a09f3dd177432a4e0c79b8c201f9d24cb6e29d7108da0f9ca2bd339181900360600190a15050565b602081525f82518060208401528060208501604085015e5f604082850101526040601f19601f83011684010191505092915050565b5f60208284031215610764575f80fd5b81356001600160a01b038116811461077a575f80fd5b9392505050565b600181811c9082168061079557607f821691505b6020821081036107b357634e487b7160e01b5f52602260045260245ffd5b50919050565b60208082526023908201527f5468652043616d617069676e277320646561646c696e6520686173207061737360408201526265642160e81b606082015260800190565b634e487b7160e01b5f52601160045260245ffd5b80820180821115610823576108236107fc565b92915050565b63ffffffff8181168382160190811115610823576108236107fc56fea2646970667358221220da822240b34dbcc03c5fee7b50b8a7ab64b3a4c07fdfe9949729d9c66963aef664736f6c634300081a0033a2646970667358221220b054291d20bff3d597bd5e5f886e44f2bcb5e90ff0230f0166fc4208b23a977564736f6c634300081a0033",
					"opcodes": "PUSH1 0x80 PUSH1 0x40 MSTORE CALLVALUE DUP1 ISZERO PUSH1 0xE JUMPI PUSH0 DUP1 REVERT JUMPDEST POP PUSH2 0xE50 DUP1 PUSH2 0x1C PUSH0 CODECOPY PUSH0 RETURN INVALID PUSH1 0x80 PUSH1 0x40 MSTORE CALLVALUE DUP1 ISZERO PUSH2 0xF JUMPI PUSH0 DUP1 REVERT JUMPDEST POP PUSH1 0x4 CALLDATASIZE LT PUSH2 0x29 JUMPI PUSH0 CALLDATALOAD PUSH1 0xE0 SHR DUP1 PUSH4 0x8CFD36E EQ PUSH2 0x2D JUMPI JUMPDEST PUSH0 DUP1 REVERT JUMPDEST PUSH2 0x40 PUSH2 0x3B CALLDATASIZE PUSH1 0x4 PUSH2 0x13C JUMP JUMPDEST PUSH2 0x42 JUMP JUMPDEST STOP JUMPDEST PUSH0 CALLER SWAP1 POP PUSH0 DUP2 DUP9 DUP9 DUP9 DUP9 DUP9 DUP9 PUSH1 0x40 MLOAD PUSH2 0x5A SWAP1 PUSH2 0xEA JUMP JUMPDEST PUSH2 0x6A SWAP8 SWAP7 SWAP6 SWAP5 SWAP4 SWAP3 SWAP2 SWAP1 PUSH2 0x1F7 JUMP JUMPDEST PUSH1 0x40 MLOAD DUP1 SWAP2 SUB SWAP1 PUSH0 CREATE DUP1 ISZERO DUP1 ISZERO PUSH2 0x83 JUMPI RETURNDATASIZE PUSH0 DUP1 RETURNDATACOPY RETURNDATASIZE PUSH0 REVERT JUMPDEST POP PUSH1 0x40 DUP1 MLOAD PUSH1 0x1 PUSH1 0x1 PUSH1 0xA0 SHL SUB DUP4 DUP2 AND DUP3 MSTORE DUP6 AND PUSH1 0x20 DUP3 ADD MSTORE PUSH4 0xFFFFFFFF DUP8 AND DUP2 DUP4 ADD MSTORE PUSH1 0x60 DUP2 ADD DUP7 SWAP1 MSTORE SWAP1 MLOAD SWAP2 SWAP3 POP DUP3 SWAP2 PUSH32 0x26A72D8C3EE4EA9DE24A79F4375306F6F713C7596BDCBA170912E5BCB458D43A SWAP2 DUP2 SWAP1 SUB PUSH1 0x80 ADD SWAP1 LOG1 POP POP POP POP POP POP POP POP POP JUMP JUMPDEST PUSH2 0xBCF DUP1 PUSH2 0x24C DUP4 CODECOPY ADD SWAP1 JUMP JUMPDEST PUSH0 DUP1 DUP4 PUSH1 0x1F DUP5 ADD SLT PUSH2 0x107 JUMPI PUSH0 DUP1 REVERT JUMPDEST POP DUP2 CALLDATALOAD PUSH8 0xFFFFFFFFFFFFFFFF DUP2 GT ISZERO PUSH2 0x11E JUMPI PUSH0 DUP1 REVERT JUMPDEST PUSH1 0x20 DUP4 ADD SWAP2 POP DUP4 PUSH1 0x20 DUP3 DUP6 ADD ADD GT ISZERO PUSH2 0x135 JUMPI PUSH0 DUP1 REVERT JUMPDEST SWAP3 POP SWAP3 SWAP1 POP JUMP JUMPDEST PUSH0 DUP1 PUSH0 DUP1 PUSH0 DUP1 PUSH1 0x80 DUP8 DUP10 SUB SLT ISZERO PUSH2 0x151 JUMPI PUSH0 DUP1 REVERT JUMPDEST DUP7 CALLDATALOAD PUSH8 0xFFFFFFFFFFFFFFFF DUP2 GT ISZERO PUSH2 0x167 JUMPI PUSH0 DUP1 REVERT JUMPDEST PUSH2 0x173 DUP10 DUP3 DUP11 ADD PUSH2 0xF7 JUMP JUMPDEST SWAP1 SWAP8 POP SWAP6 POP POP PUSH1 0x20 DUP8 ADD CALLDATALOAD PUSH8 0xFFFFFFFFFFFFFFFF DUP2 GT ISZERO PUSH2 0x192 JUMPI PUSH0 DUP1 REVERT JUMPDEST PUSH2 0x19E DUP10 DUP3 DUP11 ADD PUSH2 0xF7 JUMP JUMPDEST SWAP1 SWAP6 POP SWAP4 POP POP PUSH1 0x40 DUP8 ADD CALLDATALOAD PUSH4 0xFFFFFFFF DUP2 AND DUP2 EQ PUSH2 0x1BA JUMPI PUSH0 DUP1 REVERT JUMPDEST DUP1 SWAP3 POP POP PUSH1 0x60 DUP8 ADD CALLDATALOAD SWAP1 POP SWAP3 SWAP6 POP SWAP3 SWAP6 POP SWAP3 SWAP6 JUMP JUMPDEST DUP2 DUP4 MSTORE DUP2 DUP2 PUSH1 0x20 DUP6 ADD CALLDATACOPY POP PUSH0 DUP3 DUP3 ADD PUSH1 0x20 SWAP1 DUP2 ADD SWAP2 SWAP1 SWAP2 MSTORE PUSH1 0x1F SWAP1 SWAP2 ADD PUSH1 0x1F NOT AND SWAP1 SWAP2 ADD ADD SWAP1 JUMP JUMPDEST PUSH1 0x1 PUSH1 0x1 PUSH1 0xA0 SHL SUB DUP9 AND DUP2 MSTORE PUSH1 0xA0 PUSH1 0x20 DUP3 ADD DUP2 SWAP1 MSTORE PUSH0 SWAP1 PUSH2 0x21B SWAP1 DUP4 ADD DUP9 DUP11 PUSH2 0x1CF JUMP JUMPDEST DUP3 DUP2 SUB PUSH1 0x40 DUP5 ADD MSTORE PUSH2 0x22E DUP2 DUP8 DUP10 PUSH2 0x1CF JUMP JUMPDEST PUSH4 0xFFFFFFFF SWAP6 SWAP1 SWAP6 AND PUSH1 0x60 DUP5 ADD MSTORE POP POP PUSH1 0x80 ADD MSTORE SWAP6 SWAP5 POP POP POP POP POP JUMP INVALID PUSH1 0xE0 PUSH1 0x40 MSTORE CALLVALUE DUP1 ISZERO PUSH2 0xF JUMPI PUSH0 DUP1 REVERT JUMPDEST POP PUSH1 0x40 MLOAD PUSH2 0xBCF CODESIZE SUB DUP1 PUSH2 0xBCF DUP4 CODECOPY DUP2 ADD PUSH1 0x40 DUP2 SWAP1 MSTORE PUSH2 0x2E SWAP2 PUSH2 0x11B JUMP JUMPDEST PUSH1 0x1 PUSH1 0x1 PUSH1 0xA0 SHL SUB DUP6 AND PUSH1 0x80 MSTORE PUSH0 PUSH2 0x46 DUP6 DUP3 PUSH2 0x247 JUMP JUMPDEST POP PUSH1 0x1 PUSH2 0x53 DUP5 DUP3 PUSH2 0x247 JUMP JUMPDEST POP PUSH4 0xFFFFFFFF SWAP1 SWAP2 AND PUSH1 0xC0 MSTORE PUSH1 0xA0 MSTORE POP POP PUSH1 0x2 DUP1 SLOAD PUSH1 0xFF PUSH1 0x20 SHL NOT AND PUSH5 0x100000000 OR SWAP1 SSTORE POP PUSH2 0x301 JUMP JUMPDEST PUSH4 0x4E487B71 PUSH1 0xE0 SHL PUSH0 MSTORE PUSH1 0x41 PUSH1 0x4 MSTORE PUSH1 0x24 PUSH0 REVERT JUMPDEST PUSH0 DUP3 PUSH1 0x1F DUP4 ADD SLT PUSH2 0xA1 JUMPI PUSH0 DUP1 REVERT JUMPDEST DUP2 MLOAD PUSH1 0x1 PUSH1 0x1 PUSH1 0x40 SHL SUB DUP2 GT ISZERO PUSH2 0xBA JUMPI PUSH2 0xBA PUSH2 0x7E JUMP JUMPDEST PUSH1 0x40 MLOAD PUSH1 0x1F DUP3 ADD PUSH1 0x1F NOT SWAP1 DUP2 AND PUSH1 0x3F ADD AND DUP2 ADD PUSH1 0x1 PUSH1 0x1 PUSH1 0x40 SHL SUB DUP2 GT DUP3 DUP3 LT OR ISZERO PUSH2 0xE8 JUMPI PUSH2 0xE8 PUSH2 0x7E JUMP JUMPDEST PUSH1 0x40 MSTORE DUP2 DUP2 MSTORE DUP4 DUP3 ADD PUSH1 0x20 ADD DUP6 LT ISZERO PUSH2 0xFF JUMPI PUSH0 DUP1 REVERT JUMPDEST DUP2 PUSH1 0x20 DUP6 ADD PUSH1 0x20 DUP4 ADD MCOPY PUSH0 SWAP2 DUP2 ADD PUSH1 0x20 ADD SWAP2 SWAP1 SWAP2 MSTORE SWAP4 SWAP3 POP POP POP JUMP JUMPDEST PUSH0 DUP1 PUSH0 DUP1 PUSH0 PUSH1 0xA0 DUP7 DUP9 SUB SLT ISZERO PUSH2 0x12F JUMPI PUSH0 DUP1 REVERT JUMPDEST DUP6 MLOAD PUSH1 0x1 PUSH1 0x1 PUSH1 0xA0 SHL SUB DUP2 AND DUP2 EQ PUSH2 0x145 JUMPI PUSH0 DUP1 REVERT JUMPDEST PUSH1 0x20 DUP8 ADD MLOAD SWAP1 SWAP6 POP PUSH1 0x1 PUSH1 0x1 PUSH1 0x40 SHL SUB DUP2 GT ISZERO PUSH2 0x160 JUMPI PUSH0 DUP1 REVERT JUMPDEST PUSH2 0x16C DUP9 DUP3 DUP10 ADD PUSH2 0x92 JUMP JUMPDEST PUSH1 0x40 DUP9 ADD MLOAD SWAP1 SWAP6 POP SWAP1 POP PUSH1 0x1 PUSH1 0x1 PUSH1 0x40 SHL SUB DUP2 GT ISZERO PUSH2 0x189 JUMPI PUSH0 DUP1 REVERT JUMPDEST PUSH2 0x195 DUP9 DUP3 DUP10 ADD PUSH2 0x92 JUMP JUMPDEST SWAP4 POP POP PUSH1 0x60 DUP7 ADD MLOAD PUSH4 0xFFFFFFFF DUP2 AND DUP2 EQ PUSH2 0x1AE JUMPI PUSH0 DUP1 REVERT JUMPDEST PUSH1 0x80 SWAP7 SWAP1 SWAP7 ADD MLOAD SWAP5 SWAP8 SWAP4 SWAP7 POP SWAP2 SWAP5 SWAP4 SWAP3 SWAP2 POP POP JUMP JUMPDEST PUSH1 0x1 DUP2 DUP2 SHR SWAP1 DUP3 AND DUP1 PUSH2 0x1D7 JUMPI PUSH1 0x7F DUP3 AND SWAP2 POP JUMPDEST PUSH1 0x20 DUP3 LT DUP2 SUB PUSH2 0x1F5 JUMPI PUSH4 0x4E487B71 PUSH1 0xE0 SHL PUSH0 MSTORE PUSH1 0x22 PUSH1 0x4 MSTORE PUSH1 0x24 PUSH0 REVERT JUMPDEST POP SWAP2 SWAP1 POP JUMP JUMPDEST PUSH1 0x1F DUP3 GT ISZERO PUSH2 0x242 JUMPI DUP1 PUSH0 MSTORE PUSH1 0x20 PUSH0 KECCAK256 PUSH1 0x1F DUP5 ADD PUSH1 0x5 SHR DUP2 ADD PUSH1 0x20 DUP6 LT ISZERO PUSH2 0x220 JUMPI POP DUP1 JUMPDEST PUSH1 0x1F DUP5 ADD PUSH1 0x5 SHR DUP3 ADD SWAP2 POP JUMPDEST DUP2 DUP2 LT ISZERO PUSH2 0x23F JUMPI PUSH0 DUP2 SSTORE PUSH1 0x1 ADD PUSH2 0x22C JUMP JUMPDEST POP POP JUMPDEST POP POP POP JUMP JUMPDEST DUP2 MLOAD PUSH1 0x1 PUSH1 0x1 PUSH1 0x40 SHL SUB DUP2 GT ISZERO PUSH2 0x260 JUMPI PUSH2 0x260 PUSH2 0x7E JUMP JUMPDEST PUSH2 0x274 DUP2 PUSH2 0x26E DUP5 SLOAD PUSH2 0x1C3 JUMP JUMPDEST DUP5 PUSH2 0x1FB JUMP JUMPDEST PUSH1 0x20 PUSH1 0x1F DUP3 GT PUSH1 0x1 DUP2 EQ PUSH2 0x2A6 JUMPI PUSH0 DUP4 ISZERO PUSH2 0x28F JUMPI POP DUP5 DUP3 ADD MLOAD JUMPDEST PUSH0 NOT PUSH1 0x3 DUP6 SWAP1 SHL SHR NOT AND PUSH1 0x1 DUP5 SWAP1 SHL OR DUP5 SSTORE PUSH2 0x23F JUMP JUMPDEST PUSH0 DUP5 DUP2 MSTORE PUSH1 0x20 DUP2 KECCAK256 PUSH1 0x1F NOT DUP6 AND SWAP2 JUMPDEST DUP3 DUP2 LT ISZERO PUSH2 0x2D5 JUMPI DUP8 DUP6 ADD MLOAD DUP3 SSTORE PUSH1 0x20 SWAP5 DUP6 ADD SWAP5 PUSH1 0x1 SWAP1 SWAP3 ADD SWAP2 ADD PUSH2 0x2B5 JUMP JUMPDEST POP DUP5 DUP3 LT ISZERO PUSH2 0x2F2 JUMPI DUP7 DUP5 ADD MLOAD PUSH0 NOT PUSH1 0x3 DUP8 SWAP1 SHL PUSH1 0xF8 AND SHR NOT AND DUP2 SSTORE JUMPDEST POP POP POP POP PUSH1 0x1 SWAP1 DUP2 SHL ADD SWAP1 SSTORE POP JUMP JUMPDEST PUSH1 0x80 MLOAD PUSH1 0xA0 MLOAD PUSH1 0xC0 MLOAD PUSH2 0x87B PUSH2 0x354 PUSH0 CODECOPY PUSH0 DUP2 DUP2 PUSH2 0x19F ADD MSTORE DUP2 DUP2 PUSH2 0x40C ADD MSTORE PUSH2 0x583 ADD MSTORE PUSH0 DUP2 DUP2 PUSH1 0xFF ADD MSTORE DUP2 DUP2 PUSH2 0x2D5 ADD MSTORE DUP2 DUP2 PUSH2 0x378 ADD MSTORE PUSH2 0x441 ADD MSTORE PUSH0 DUP2 DUP2 PUSH2 0x140 ADD MSTORE PUSH2 0x5E1 ADD MSTORE PUSH2 0x87B PUSH0 RETURN INVALID PUSH1 0x80 PUSH1 0x40 MSTORE PUSH1 0x4 CALLDATASIZE LT PUSH2 0x8F JUMPI PUSH0 CALLDATALOAD PUSH1 0xE0 SHR DUP1 PUSH4 0x7A3A0E84 GT PUSH2 0x57 JUMPI DUP1 PUSH4 0x7A3A0E84 EQ PUSH2 0x18E JUMPI DUP1 PUSH4 0x968ED600 EQ PUSH2 0x1D6 JUMPI DUP1 PUSH4 0xA1211BC0 EQ PUSH2 0x1F2 JUMPI DUP1 PUSH4 0xCC6CB19A EQ PUSH2 0x208 JUMPI DUP1 PUSH4 0xED88C68E EQ PUSH2 0x233 JUMPI PUSH0 DUP1 REVERT JUMPDEST DUP1 PUSH4 0x6FDDE03 EQ PUSH2 0x93 JUMPI DUP1 PUSH4 0x22F3E2D4 EQ PUSH2 0xBD JUMPI DUP1 PUSH4 0x29DCB0CF EQ PUSH2 0xEE JUMPI DUP1 PUSH4 0x38AF3EED EQ PUSH2 0x12F JUMPI DUP1 PUSH4 0x7284E416 EQ PUSH2 0x17A JUMPI JUMPDEST PUSH0 DUP1 REVERT JUMPDEST CALLVALUE DUP1 ISZERO PUSH2 0x9E JUMPI PUSH0 DUP1 REVERT JUMPDEST POP PUSH2 0xA7 PUSH2 0x23B JUMP JUMPDEST PUSH1 0x40 MLOAD PUSH2 0xB4 SWAP2 SWAP1 PUSH2 0x71F JUMP JUMPDEST PUSH1 0x40 MLOAD DUP1 SWAP2 SUB SWAP1 RETURN JUMPDEST CALLVALUE DUP1 ISZERO PUSH2 0xC8 JUMPI PUSH0 DUP1 REVERT JUMPDEST POP PUSH1 0x2 SLOAD PUSH2 0xDE SWAP1 PUSH5 0x100000000 SWAP1 DIV PUSH1 0xFF AND DUP2 JUMP JUMPDEST PUSH1 0x40 MLOAD SWAP1 ISZERO ISZERO DUP2 MSTORE PUSH1 0x20 ADD PUSH2 0xB4 JUMP JUMPDEST CALLVALUE DUP1 ISZERO PUSH2 0xF9 JUMPI PUSH0 DUP1 REVERT JUMPDEST POP PUSH2 0x121 PUSH32 0x0 DUP2 JUMP JUMPDEST PUSH1 0x40 MLOAD SWAP1 DUP2 MSTORE PUSH1 0x20 ADD PUSH2 0xB4 JUMP JUMPDEST CALLVALUE DUP1 ISZERO PUSH2 0x13A JUMPI PUSH0 DUP1 REVERT JUMPDEST POP PUSH2 0x162 PUSH32 0x0 DUP2 JUMP JUMPDEST PUSH1 0x40 MLOAD PUSH1 0x1 PUSH1 0x1 PUSH1 0xA0 SHL SUB SWAP1 SWAP2 AND DUP2 MSTORE PUSH1 0x20 ADD PUSH2 0xB4 JUMP JUMPDEST CALLVALUE DUP1 ISZERO PUSH2 0x185 JUMPI PUSH0 DUP1 REVERT JUMPDEST POP PUSH2 0xA7 PUSH2 0x2C6 JUMP JUMPDEST CALLVALUE DUP1 ISZERO PUSH2 0x199 JUMPI PUSH0 DUP1 REVERT JUMPDEST POP PUSH2 0x1C1 PUSH32 0x0 DUP2 JUMP JUMPDEST PUSH1 0x40 MLOAD PUSH4 0xFFFFFFFF SWAP1 SWAP2 AND DUP2 MSTORE PUSH1 0x20 ADD PUSH2 0xB4 JUMP JUMPDEST CALLVALUE DUP1 ISZERO PUSH2 0x1E1 JUMPI PUSH0 DUP1 REVERT JUMPDEST POP PUSH1 0x2 SLOAD PUSH2 0x1C1 SWAP1 PUSH4 0xFFFFFFFF AND DUP2 JUMP JUMPDEST CALLVALUE DUP1 ISZERO PUSH2 0x1FD JUMPI PUSH0 DUP1 REVERT JUMPDEST POP PUSH2 0x206 PUSH2 0x2D3 JUMP JUMPDEST STOP JUMPDEST CALLVALUE DUP1 ISZERO PUSH2 0x213 JUMPI PUSH0 DUP1 REVERT JUMPDEST POP PUSH2 0x121 PUSH2 0x222 CALLDATASIZE PUSH1 0x4 PUSH2 0x754 JUMP JUMPDEST PUSH1 0x3 PUSH1 0x20 MSTORE PUSH0 SWAP1 DUP2 MSTORE PUSH1 0x40 SWAP1 KECCAK256 SLOAD DUP2 JUMP JUMPDEST PUSH2 0x206 PUSH2 0x43F JUMP JUMPDEST PUSH0 DUP1 SLOAD PUSH2 0x247 SWAP1 PUSH2 0x781 JUMP JUMPDEST DUP1 PUSH1 0x1F ADD PUSH1 0x20 DUP1 SWAP2 DIV MUL PUSH1 0x20 ADD PUSH1 0x40 MLOAD SWAP1 DUP2 ADD PUSH1 0x40 MSTORE DUP1 SWAP3 SWAP2 SWAP1 DUP2 DUP2 MSTORE PUSH1 0x20 ADD DUP3 DUP1 SLOAD PUSH2 0x273 SWAP1 PUSH2 0x781 JUMP JUMPDEST DUP1 ISZERO PUSH2 0x2BE JUMPI DUP1 PUSH1 0x1F LT PUSH2 0x295 JUMPI PUSH2 0x100 DUP1 DUP4 SLOAD DIV MUL DUP4 MSTORE SWAP2 PUSH1 0x20 ADD SWAP2 PUSH2 0x2BE JUMP JUMPDEST DUP3 ADD SWAP2 SWAP1 PUSH0 MSTORE PUSH1 0x20 PUSH0 KECCAK256 SWAP1 JUMPDEST DUP2 SLOAD DUP2 MSTORE SWAP1 PUSH1 0x1 ADD SWAP1 PUSH1 0x20 ADD DUP1 DUP4 GT PUSH2 0x2A1 JUMPI DUP3 SWAP1 SUB PUSH1 0x1F AND DUP3 ADD SWAP2 JUMPDEST POP POP POP POP POP DUP2 JUMP JUMPDEST PUSH1 0x1 DUP1 SLOAD PUSH2 0x247 SWAP1 PUSH2 0x781 JUMP JUMPDEST PUSH32 0x0 TIMESTAMP GT ISZERO PUSH2 0x31C JUMPI PUSH1 0x40 MLOAD PUSH3 0x461BCD PUSH1 0xE5 SHL DUP2 MSTORE PUSH1 0x4 ADD PUSH2 0x313 SWAP1 PUSH2 0x7B9 JUMP JUMPDEST PUSH1 0x40 MLOAD DUP1 SWAP2 SUB SWAP1 REVERT JUMPDEST PUSH1 0x2 SLOAD PUSH5 0x100000000 SWAP1 DIV PUSH1 0xFF AND PUSH2 0x376 JUMPI PUSH1 0x40 MLOAD PUSH3 0x461BCD PUSH1 0xE5 SHL DUP2 MSTORE PUSH1 0x20 PUSH1 0x4 DUP3 ADD MSTORE PUSH1 0x1B PUSH1 0x24 DUP3 ADD MSTORE PUSH32 0x5468652043616D706169676E206973206E6F7420616374697665210000000000 PUSH1 0x44 DUP3 ADD MSTORE PUSH1 0x64 ADD PUSH2 0x313 JUMP JUMPDEST PUSH32 0x0 TIMESTAMP GT PUSH2 0x3F5 JUMPI PUSH1 0x40 MLOAD PUSH3 0x461BCD PUSH1 0xE5 SHL DUP2 MSTORE PUSH1 0x20 PUSH1 0x4 DUP3 ADD MSTORE PUSH1 0x27 PUSH1 0x24 DUP3 ADD MSTORE PUSH32 0x5468652043616D617069676E277320646561646C696E6520686173206E6F7420 PUSH1 0x44 DUP3 ADD MSTORE PUSH7 0x70617373656421 PUSH1 0xC8 SHL PUSH1 0x64 DUP3 ADD MSTORE PUSH1 0x84 ADD PUSH2 0x313 JUMP JUMPDEST PUSH1 0x2 DUP1 SLOAD PUSH5 0xFF00000000 NOT DUP2 AND SWAP1 SWAP2 SSTORE PUSH4 0xFFFFFFFF PUSH32 0x0 DUP2 AND SWAP2 AND GT ISZERO PUSH2 0x43D JUMPI PUSH2 0x43D PUSH2 0x5C1 JUMP JUMPDEST JUMP JUMPDEST PUSH32 0x0 TIMESTAMP GT ISZERO PUSH2 0x47F JUMPI PUSH1 0x40 MLOAD PUSH3 0x461BCD PUSH1 0xE5 SHL DUP2 MSTORE PUSH1 0x4 ADD PUSH2 0x313 SWAP1 PUSH2 0x7B9 JUMP JUMPDEST PUSH1 0x2 SLOAD PUSH5 0x100000000 SWAP1 DIV PUSH1 0xFF AND PUSH2 0x4D9 JUMPI PUSH1 0x40 MLOAD PUSH3 0x461BCD PUSH1 0xE5 SHL DUP2 MSTORE PUSH1 0x20 PUSH1 0x4 DUP3 ADD MSTORE PUSH1 0x1B PUSH1 0x24 DUP3 ADD MSTORE PUSH32 0x5468652043616D706169676E206973206E6F7420616374697665210000000000 PUSH1 0x44 DUP3 ADD MSTORE PUSH1 0x64 ADD PUSH2 0x313 JUMP JUMPDEST CALLER PUSH0 DUP2 DUP2 MSTORE PUSH1 0x3 PUSH1 0x20 MSTORE PUSH1 0x40 DUP2 KECCAK256 DUP1 SLOAD CALLVALUE SWAP3 PUSH4 0xFFFFFFFF DUP5 AND SWAP3 SWAP2 PUSH2 0x4FF SWAP1 DUP5 SWAP1 PUSH2 0x810 JUMP JUMPDEST SWAP1 SWAP2 SSTORE POP POP PUSH1 0x2 SLOAD PUSH0 SWAP1 PUSH2 0x51A SWAP1 DUP4 SWAP1 PUSH4 0xFFFFFFFF AND PUSH2 0x829 JUMP JUMPDEST PUSH1 0x2 DUP1 SLOAD PUSH4 0xFFFFFFFF NOT AND PUSH4 0xFFFFFFFF DUP4 DUP2 AND SWAP2 SWAP1 SWAP2 OR SWAP1 SWAP2 SSTORE PUSH1 0x40 DUP1 MLOAD PUSH1 0x1 PUSH1 0x1 PUSH1 0xA0 SHL SUB DUP8 AND DUP2 MSTORE SWAP2 DUP6 AND PUSH1 0x20 DUP4 ADD MSTORE TIMESTAMP SWAP1 DUP3 ADD MSTORE SWAP1 SWAP2 POP PUSH32 0xBE5BA4D5E39744EE657F0A6860C95F5D91D56C6FED3EAC2A01C0F621573CBA19 SWAP1 PUSH1 0x60 ADD PUSH1 0x40 MLOAD DUP1 SWAP2 SUB SWAP1 LOG1 PUSH32 0x0 PUSH4 0xFFFFFFFF AND DUP2 PUSH4 0xFFFFFFFF AND LT PUSH2 0x5BC JUMPI PUSH2 0x5BC PUSH2 0x5C1 JUMP JUMPDEST POP POP POP JUMP JUMPDEST PUSH1 0x2 DUP1 SLOAD PUSH5 0xFFFFFFFFFF NOT DUP2 AND SWAP1 SWAP2 SSTORE PUSH1 0x40 MLOAD PUSH4 0xFFFFFFFF SWAP1 SWAP2 AND SWAP1 PUSH0 SWAP1 PUSH32 0x0 PUSH1 0x1 PUSH1 0x1 PUSH1 0xA0 SHL SUB AND SWAP1 DUP4 SWAP1 DUP4 DUP2 DUP2 DUP2 DUP6 DUP8 GAS CALL SWAP3 POP POP POP RETURNDATASIZE DUP1 PUSH0 DUP2 EQ PUSH2 0x642 JUMPI PUSH1 0x40 MLOAD SWAP2 POP PUSH1 0x1F NOT PUSH1 0x3F RETURNDATASIZE ADD AND DUP3 ADD PUSH1 0x40 MSTORE RETURNDATASIZE DUP3 MSTORE RETURNDATASIZE PUSH0 PUSH1 0x20 DUP5 ADD RETURNDATACOPY PUSH2 0x647 JUMP JUMPDEST PUSH1 0x60 SWAP2 POP JUMPDEST POP POP SWAP1 POP DUP1 PUSH2 0x698 JUMPI PUSH1 0x40 MLOAD PUSH3 0x461BCD PUSH1 0xE5 SHL DUP2 MSTORE PUSH1 0x20 PUSH1 0x4 DUP3 ADD MSTORE PUSH1 0x18 PUSH1 0x24 DUP3 ADD MSTORE PUSH32 0x556E61626C6520746F2072656C656173652066756E6473210000000000000000 PUSH1 0x44 DUP3 ADD MSTORE PUSH1 0x64 ADD PUSH2 0x313 JUMP JUMPDEST PUSH1 0x40 DUP1 MLOAD PUSH4 0xFFFFFFFF DUP5 AND DUP2 MSTORE TIMESTAMP PUSH1 0x20 DUP3 ADD MSTORE PUSH32 0x832CA426A0F1AF392DC1358EA7759717627E3060D5F935A028A94B3D7969C55C SWAP2 ADD PUSH1 0x40 MLOAD DUP1 SWAP2 SUB SWAP1 LOG1 PUSH1 0x40 DUP1 MLOAD PUSH1 0x1 DUP2 MSTORE PUSH4 0xFFFFFFFF DUP5 AND PUSH1 0x20 DUP3 ADD MSTORE TIMESTAMP DUP2 DUP4 ADD MSTORE SWAP1 MLOAD PUSH32 0x5B321F4D15A09F3DD177432A4E0C79B8C201F9D24CB6E29D7108DA0F9CA2BD33 SWAP2 DUP2 SWAP1 SUB PUSH1 0x60 ADD SWAP1 LOG1 POP POP JUMP JUMPDEST PUSH1 0x20 DUP2 MSTORE PUSH0 DUP3 MLOAD DUP1 PUSH1 0x20 DUP5 ADD MSTORE DUP1 PUSH1 0x20 DUP6 ADD PUSH1 0x40 DUP6 ADD MCOPY PUSH0 PUSH1 0x40 DUP3 DUP6 ADD ADD MSTORE PUSH1 0x40 PUSH1 0x1F NOT PUSH1 0x1F DUP4 ADD AND DUP5 ADD ADD SWAP2 POP POP SWAP3 SWAP2 POP POP JUMP JUMPDEST PUSH0 PUSH1 0x20 DUP3 DUP5 SUB SLT ISZERO PUSH2 0x764 JUMPI PUSH0 DUP1 REVERT JUMPDEST DUP2 CALLDATALOAD PUSH1 0x1 PUSH1 0x1 PUSH1 0xA0 SHL SUB DUP2 AND DUP2 EQ PUSH2 0x77A JUMPI PUSH0 DUP1 REVERT JUMPDEST SWAP4 SWAP3 POP POP POP JUMP JUMPDEST PUSH1 0x1 DUP2 DUP2 SHR SWAP1 DUP3 AND DUP1 PUSH2 0x795 JUMPI PUSH1 0x7F DUP3 AND SWAP2 POP JUMPDEST PUSH1 0x20 DUP3 LT DUP2 SUB PUSH2 0x7B3 JUMPI PUSH4 0x4E487B71 PUSH1 0xE0 SHL PUSH0 MSTORE PUSH1 0x22 PUSH1 0x4 MSTORE PUSH1 0x24 PUSH0 REVERT JUMPDEST POP SWAP2 SWAP1 POP JUMP JUMPDEST PUSH1 0x20 DUP1 DUP3 MSTORE PUSH1 0x23 SWAP1 DUP3 ADD MSTORE PUSH32 0x5468652043616D617069676E277320646561646C696E65206861732070617373 PUSH1 0x40 DUP3 ADD MSTORE PUSH3 0x656421 PUSH1 0xE8 SHL PUSH1 0x60 DUP3 ADD MSTORE PUSH1 0x80 ADD SWAP1 JUMP JUMPDEST PUSH4 0x4E487B71 PUSH1 0xE0 SHL PUSH0 MSTORE PUSH1 0x11 PUSH1 0x4 MSTORE PUSH1 0x24 PUSH0 REVERT JUMPDEST DUP1 DUP3 ADD DUP1 DUP3 GT ISZERO PUSH2 0x823 JUMPI PUSH2 0x823 PUSH2 0x7FC JUMP JUMPDEST SWAP3 SWAP2 POP POP JUMP JUMPDEST PUSH4 0xFFFFFFFF DUP2 DUP2 AND DUP4 DUP3 AND ADD SWAP1 DUP2 GT ISZERO PUSH2 0x823 JUMPI PUSH2 0x823 PUSH2 0x7FC JUMP INVALID LOG2 PUSH5 0x6970667358 0x22 SLT KECCAK256 0xDA DUP3 0x22 BLOCKHASH 0xB3 0x4D 0xBC 0xC0 EXTCODECOPY PUSH0 0xEE PUSH28 0x50B8A7AB64B3A4C07FDFE9949729D9C66963AEF664736F6C63430008 BYTE STOP CALLER LOG2 PUSH5 0x6970667358 0x22 SLT KECCAK256 0xB0 SLOAD 0x29 SAR KECCAK256 0xBF RETURN 0xD5 SWAP8 0xBD MCOPY PUSH0 DUP9 PUSH15 0x44F2BCB5E90FF0230F0166FC4208B2 GASPRICE SWAP8 PUSH22 0x64736F6C634300081A00330000000000000000000000 "
				},
				"gasEstimates": {
					"creation": {
						"codeDepositCost": "732800",
						"executionCost": "764",
						"totalCost": "733564"
					},
					"external": {
						"createCampaign(string,string,uint32,uint256)": "infinite"
					}
				},
				"methodIdentifiers": {
					"createCampaign(string,string,uint32,uint256)": "08cfd36e"
				}
			},
			"storageLayout": {
				"storage": [],
				"types": null
			},
			"userdoc": {
				"kind": "user",
				"methods": {},
				"version": 1
			}
		}
	}
}