{
	"backend/contracts/Campaign.sol": {
		"Campaign": {
			"abi": [
				{
					"inputs": [
						{
							"internalType": "address",
							"name": "_beneficiary",
							"type": "address"
						},
						{
							"internalType": "address",
							"name": "_admin",
							"type": "address"
						},
						{
							"internalType": "string",
							"name": "_name",
							"type": "string"
						},
						{
							"internalType": "string",
							"name": "_description",
							"type": "string"
						},
						{
							"internalType": "uint32",
							"name": "_fundingGoal",
							"type": "uint32"
						},
						{
							"internalType": "uint256",
							"name": "_deadline",
							"type": "uint256"
						}
					],
					"stateMutability": "nonpayable",
					"type": "constructor"
				},
				{
					"anonymous": false,
					"inputs": [
						{
							"indexed": true,
							"internalType": "address",
							"name": "campaignAddress",
							"type": "address"
						},
						{
							"indexed": true,
							"internalType": "address",
							"name": "beneficiary",
							"type": "address"
						},
						{
							"indexed": false,
							"internalType": "bool",
							"name": "success",
							"type": "bool"
						},
						{
							"indexed": false,
							"internalType": "uint32",
							"name": "totalFunds",
							"type": "uint32"
						}
					],
					"name": "CampaignFinalized",
					"type": "event"
				},
				{
					"anonymous": false,
					"inputs": [
						{
							"indexed": true,
							"internalType": "address",
							"name": "campaignAddress",
							"type": "address"
						},
						{
							"indexed": true,
							"internalType": "address",
							"name": "beneficiary",
							"type": "address"
						},
						{
							"indexed": false,
							"internalType": "uint32",
							"name": "amount",
							"type": "uint32"
						}
					],
					"name": "DonationMade",
					"type": "event"
				},
				{
					"anonymous": false,
					"inputs": [
						{
							"indexed": true,
							"internalType": "address",
							"name": "campaignAddress",
							"type": "address"
						},
						{
							"indexed": true,
							"internalType": "address",
							"name": "beneficiary",
							"type": "address"
						},
						{
							"indexed": false,
							"internalType": "uint32",
							"name": "amount",
							"type": "uint32"
						}
					],
					"name": "FundsWithdrawn",
					"type": "event"
				},
				{
					"anonymous": false,
					"inputs": [
						{
							"indexed": true,
							"internalType": "address",
							"name": "campaignAddress",
							"type": "address"
						},
						{
							"indexed": true,
							"internalType": "address",
							"name": "donor",
							"type": "address"
						},
						{
							"indexed": false,
							"internalType": "uint32",
							"name": "amount",
							"type": "uint32"
						}
					],
					"name": "RefundIssued",
					"type": "event"
				},
				{
					"inputs": [],
					"name": "admin",
					"outputs": [
						{
							"internalType": "address",
							"name": "",
							"type": "address"
						}
					],
					"stateMutability": "view",
					"type": "function"
				},
				{
					"inputs": [],
					"name": "beneficiary",
					"outputs": [
						{
							"internalType": "address",
							"name": "",
							"type": "address"
						}
					],
					"stateMutability": "view",
					"type": "function"
				},
				{
					"inputs": [],
					"name": "deadline",
					"outputs": [
						{
							"internalType": "uint256",
							"name": "",
							"type": "uint256"
						}
					],
					"stateMutability": "view",
					"type": "function"
				},
				{
					"inputs": [],
					"name": "description",
					"outputs": [
						{
							"internalType": "string",
							"name": "",
							"type": "string"
						}
					],
					"stateMutability": "view",
					"type": "function"
				},
				{
					"inputs": [],
					"name": "donate",
					"outputs": [],
					"stateMutability": "payable",
					"type": "function"
				},
				{
					"inputs": [
						{
							"internalType": "address",
							"name": "",
							"type": "address"
						}
					],
					"name": "donations",
					"outputs": [
						{
							"internalType": "uint32",
							"name": "",
							"type": "uint32"
						}
					],
					"stateMutability": "view",
					"type": "function"
				},
				{
					"inputs": [
						{
							"internalType": "uint256",
							"name": "",
							"type": "uint256"
						}
					],
					"name": "donors",
					"outputs": [
						{
							"internalType": "address",
							"name": "",
							"type": "address"
						}
					],
					"stateMutability": "view",
					"type": "function"
				},
				{
					"inputs": [],
					"name": "finalizeCampaign",
					"outputs": [],
					"stateMutability": "nonpayable",
					"type": "function"
				},
				{
					"inputs": [],
					"name": "fundingGoal",
					"outputs": [
						{
							"internalType": "uint32",
							"name": "",
							"type": "uint32"
						}
					],
					"stateMutability": "view",
					"type": "function"
				},
				{
					"inputs": [],
					"name": "getCampaignDetails",
					"outputs": [
						{
							"internalType": "address",
							"name": "campaignBeneficiary",
							"type": "address"
						},
						{
							"internalType": "string",
							"name": "campaignName",
							"type": "string"
						},
						{
							"internalType": "string",
							"name": "campaignDescription",
							"type": "string"
						},
						{
							"internalType": "uint256",
							"name": "campaignDeadline",
							"type": "uint256"
						},
						{
							"internalType": "uint32",
							"name": "campaignFundingGoal",
							"type": "uint32"
						},
						{
							"internalType": "uint32",
							"name": "campaignTotalFunds",
							"type": "uint32"
						},
						{
							"internalType": "bool",
							"name": "campaignIsActive",
							"type": "bool"
						}
					],
					"stateMutability": "view",
					"type": "function"
				},
				{
					"inputs": [],
					"name": "getDonors",
					"outputs": [
						{
							"internalType": "address[]",
							"name": "",
							"type": "address[]"
						}
					],
					"stateMutability": "view",
					"type": "function"
				},
				{
					"inputs": [],
					"name": "isActive",
					"outputs": [
						{
							"internalType": "bool",
							"name": "",
							"type": "bool"
						}
					],
					"stateMutability": "view",
					"type": "function"
				},
				{
					"inputs": [],
					"name": "name",
					"outputs": [
						{
							"internalType": "string",
							"name": "",
							"type": "string"
						}
					],
					"stateMutability": "view",
					"type": "function"
				},
				{
					"inputs": [],
					"name": "totalFunds",
					"outputs": [
						{
							"internalType": "uint32",
							"name": "",
							"type": "uint32"
						}
					],
					"stateMutability": "view",
					"type": "function"
				}
			],
			"devdoc": {
				"details": "The smart contract for the created Campaign. It handles everything related to a specific Campaign that has been deployed",
				"kind": "dev",
				"methods": {
					"constructor": {
						"details": "Creates the Campaign smart contract",
						"params": {
							"_beneficiary": "The wallet address of the beneficiary that is creating this Campaign",
							"_deadline": "Timestamp of when the Campaign should be fully funded before it becomes inactive",
							"_description": "The description of this Campaign",
							"_fundingGoal": "Funding Goal for the Campaign in cryptocurrency (SepoliaETH)"
						}
					},
					"donate()": {
						"details": "Allows donors to donate to the Campaign"
					},
					"finalizeCampaign()": {
						"details": "Called when the Campaign's deadline has passed, and also handles the refund to all donors if the fundingGoal is not met by thenLikely needs to be called from the frontend"
					},
					"getCampaignDetails()": {
						"details": "Get all the Campaign details from its state variables"
					},
					"getDonors()": {
						"details": "Get all the donors of this CampaignLikely to be used by the frontend to notify just donors on events such as FundsWithdrawn and CampaignFinalized"
					}
				},
				"title": "Campaign",
				"version": 1
			},
			"evm": {
				"assembly": "    /* \"backend/contracts/Campaign.sol\":226:8550  contract Campaign {... */\n  mstore(0x40, 0xe0)\n    /* \"backend/contracts/Campaign.sol\":1243:1784  constructor(... */\n  callvalue\n  dup1\n  iszero\n  tag_1\n  jumpi\n  0x00\n  dup1\n  revert\ntag_1:\n  pop\n  mload(0x40)\n  sub(codesize, bytecodeSize)\n  dup1\n  bytecodeSize\n  dup4\n  codecopy\n  dup2\n  dup2\n  add\n  0x40\n  mstore\n  dup2\n  add\n  swap1\n  tag_2\n  swap2\n  swap1\n  tag_3\n  jump\t// in\ntag_2:\n    /* \"backend/contracts/Campaign.sol\":1551:1563  _beneficiary */\n  dup6\n    /* \"backend/contracts/Campaign.sol\":1537:1563  beneficiary = _beneficiary */\n  0xffffffffffffffffffffffffffffffffffffffff\n  and\n  0x80\n  dup2\n  0xffffffffffffffffffffffffffffffffffffffff\n  and\n  dup2\n  mstore\n  pop\n  pop\n    /* \"backend/contracts/Campaign.sol\":1581:1587  _admin */\n  dup5\n    /* \"backend/contracts/Campaign.sol\":1573:1578  admin */\n  0x05\n  0x00\n    /* \"backend/contracts/Campaign.sol\":1573:1587  admin = _admin */\n  0x0100\n  exp\n  dup2\n  sload\n  dup2\n  0xffffffffffffffffffffffffffffffffffffffff\n  mul\n  not\n  and\n  swap1\n  dup4\n  0xffffffffffffffffffffffffffffffffffffffff\n  and\n  mul\n  or\n  swap1\n  sstore\n  pop\n    /* \"backend/contracts/Campaign.sol\":1604:1609  _name */\n  dup4\n    /* \"backend/contracts/Campaign.sol\":1597:1601  name */\n  0x00\n    /* \"backend/contracts/Campaign.sol\":1597:1609  name = _name */\n  swap1\n  dup2\n  tag_6\n  swap2\n  swap1\n  tag_7\n  jump\t// in\ntag_6:\n  pop\n    /* \"backend/contracts/Campaign.sol\":1633:1645  _description */\n  dup3\n    /* \"backend/contracts/Campaign.sol\":1619:1630  description */\n  0x01\n    /* \"backend/contracts/Campaign.sol\":1619:1645  description = _description */\n  swap1\n  dup2\n  tag_8\n  swap2\n  swap1\n  tag_7\n  jump\t// in\ntag_8:\n  pop\n    /* \"backend/contracts/Campaign.sol\":1669:1681  _fundingGoal */\n  dup2\n    /* \"backend/contracts/Campaign.sol\":1655:1681  fundingGoal = _fundingGoal */\n  0xffffffff\n  and\n  0xc0\n  dup2\n  0xffffffff\n  and\n  dup2\n  mstore\n  pop\n  pop\n    /* \"backend/contracts/Campaign.sol\":1702:1711  _deadline */\n  dup1\n    /* \"backend/contracts/Campaign.sol\":1691:1711  deadline = _deadline */\n  0xa0\n  dup2\n  dup2\n  mstore\n  pop\n  pop\n    /* \"backend/contracts/Campaign.sol\":1732:1736  true */\n  0x01\n    /* \"backend/contracts/Campaign.sol\":1721:1729  isActive */\n  0x02\n  0x04\n    /* \"backend/contracts/Campaign.sol\":1721:1736  isActive = true */\n  0x0100\n  exp\n  dup2\n  sload\n  dup2\n  0xff\n  mul\n  not\n  and\n  swap1\n  dup4\n  iszero\n  iszero\n  mul\n  or\n  swap1\n  sstore\n  pop\n    /* \"backend/contracts/Campaign.sol\":1243:1784  constructor(... */\n  pop\n  pop\n  pop\n  pop\n  pop\n  pop\n    /* \"backend/contracts/Campaign.sol\":226:8550  contract Campaign {... */\n  jump(tag_9)\n    /* \"#utility.yul\":7:82   */\ntag_10:\n    /* \"#utility.yul\":40:46   */\n  0x00\n    /* \"#utility.yul\":73:75   */\n  0x40\n    /* \"#utility.yul\":67:76   */\n  mload\n    /* \"#utility.yul\":57:76   */\n  swap1\n  pop\n    /* \"#utility.yul\":7:82   */\n  swap1\n  jump\t// out\n    /* \"#utility.yul\":88:205   */\ntag_11:\n    /* \"#utility.yul\":197:198   */\n  0x00\n    /* \"#utility.yul\":194:195   */\n  dup1\n    /* \"#utility.yul\":187:199   */\n  revert\n    /* \"#utility.yul\":211:328   */\ntag_12:\n    /* \"#utility.yul\":320:321   */\n  0x00\n    /* \"#utility.yul\":317:318   */\n  dup1\n    /* \"#utility.yul\":310:322   */\n  revert\n    /* \"#utility.yul\":334:460   */\ntag_13:\n    /* \"#utility.yul\":371:378   */\n  0x00\n    /* \"#utility.yul\":411:453   */\n  0xffffffffffffffffffffffffffffffffffffffff\n    /* \"#utility.yul\":404:409   */\n  dup3\n    /* \"#utility.yul\":400:454   */\n  and\n    /* \"#utility.yul\":389:454   */\n  swap1\n  pop\n    /* \"#utility.yul\":334:460   */\n  swap2\n  swap1\n  pop\n  jump\t// out\n    /* \"#utility.yul\":466:562   */\ntag_14:\n    /* \"#utility.yul\":503:510   */\n  0x00\n    /* \"#utility.yul\":532:556   */\n  tag_57\n    /* \"#utility.yul\":550:555   */\n  dup3\n    /* \"#utility.yul\":532:556   */\n  tag_13\n  jump\t// in\ntag_57:\n    /* \"#utility.yul\":521:556   */\n  swap1\n  pop\n    /* \"#utility.yul\":466:562   */\n  swap2\n  swap1\n  pop\n  jump\t// out\n    /* \"#utility.yul\":568:690   */\ntag_15:\n    /* \"#utility.yul\":641:665   */\n  tag_59\n    /* \"#utility.yul\":659:664   */\n  dup2\n    /* \"#utility.yul\":641:665   */\n  tag_14\n  jump\t// in\ntag_59:\n    /* \"#utility.yul\":634:639   */\n  dup2\n    /* \"#utility.yul\":631:666   */\n  eq\n    /* \"#utility.yul\":621:684   */\n  tag_60\n  jumpi\n    /* \"#utility.yul\":680:681   */\n  0x00\n    /* \"#utility.yul\":677:678   */\n  dup1\n    /* \"#utility.yul\":670:682   */\n  revert\n    /* \"#utility.yul\":621:684   */\ntag_60:\n    /* \"#utility.yul\":568:690   */\n  pop\n  jump\t// out\n    /* \"#utility.yul\":696:839   */\ntag_16:\n    /* \"#utility.yul\":753:758   */\n  0x00\n    /* \"#utility.yul\":784:790   */\n  dup2\n    /* \"#utility.yul\":778:791   */\n  mload\n    /* \"#utility.yul\":769:791   */\n  swap1\n  pop\n    /* \"#utility.yul\":800:833   */\n  tag_62\n    /* \"#utility.yul\":827:832   */\n  dup2\n    /* \"#utility.yul\":800:833   */\n  tag_15\n  jump\t// in\ntag_62:\n    /* \"#utility.yul\":696:839   */\n  swap3\n  swap2\n  pop\n  pop\n  jump\t// out\n    /* \"#utility.yul\":845:962   */\ntag_17:\n    /* \"#utility.yul\":954:955   */\n  0x00\n    /* \"#utility.yul\":951:952   */\n  dup1\n    /* \"#utility.yul\":944:956   */\n  revert\n    /* \"#utility.yul\":968:1085   */\ntag_18:\n    /* \"#utility.yul\":1077:1078   */\n  0x00\n    /* \"#utility.yul\":1074:1075   */\n  dup1\n    /* \"#utility.yul\":1067:1079   */\n  revert\n    /* \"#utility.yul\":1091:1193   */\ntag_19:\n    /* \"#utility.yul\":1132:1138   */\n  0x00\n    /* \"#utility.yul\":1183:1185   */\n  0x1f\n    /* \"#utility.yul\":1179:1186   */\n  not\n    /* \"#utility.yul\":1174:1176   */\n  0x1f\n    /* \"#utility.yul\":1167:1172   */\n  dup4\n    /* \"#utility.yul\":1163:1177   */\n  add\n    /* \"#utility.yul\":1159:1187   */\n  and\n    /* \"#utility.yul\":1149:1187   */\n  swap1\n  pop\n    /* \"#utility.yul\":1091:1193   */\n  swap2\n  swap1\n  pop\n  jump\t// out\n    /* \"#utility.yul\":1199:1379   */\ntag_20:\n    /* \"#utility.yul\":1247:1324   */\n  0x4e487b7100000000000000000000000000000000000000000000000000000000\n    /* \"#utility.yul\":1244:1245   */\n  0x00\n    /* \"#utility.yul\":1237:1325   */\n  mstore\n    /* \"#utility.yul\":1344:1348   */\n  0x41\n    /* \"#utility.yul\":1341:1342   */\n  0x04\n    /* \"#utility.yul\":1334:1349   */\n  mstore\n    /* \"#utility.yul\":1368:1372   */\n  0x24\n    /* \"#utility.yul\":1365:1366   */\n  0x00\n    /* \"#utility.yul\":1358:1373   */\n  revert\n    /* \"#utility.yul\":1385:1666   */\ntag_21:\n    /* \"#utility.yul\":1468:1495   */\n  tag_68\n    /* \"#utility.yul\":1490:1494   */\n  dup3\n    /* \"#utility.yul\":1468:1495   */\n  tag_19\n  jump\t// in\ntag_68:\n    /* \"#utility.yul\":1460:1466   */\n  dup2\n    /* \"#utility.yul\":1456:1496   */\n  add\n    /* \"#utility.yul\":1598:1604   */\n  dup2\n    /* \"#utility.yul\":1586:1596   */\n  dup2\n    /* \"#utility.yul\":1583:1605   */\n  lt\n    /* \"#utility.yul\":1562:1580   */\n  0xffffffffffffffff\n    /* \"#utility.yul\":1550:1560   */\n  dup3\n    /* \"#utility.yul\":1547:1581   */\n  gt\n    /* \"#utility.yul\":1544:1606   */\n  or\n    /* \"#utility.yul\":1541:1629   */\n  iszero\n  tag_69\n  jumpi\n    /* \"#utility.yul\":1609:1627   */\n  tag_70\n  tag_20\n  jump\t// in\ntag_70:\n    /* \"#utility.yul\":1541:1629   */\ntag_69:\n    /* \"#utility.yul\":1649:1659   */\n  dup1\n    /* \"#utility.yul\":1645:1647   */\n  0x40\n    /* \"#utility.yul\":1638:1660   */\n  mstore\n    /* \"#utility.yul\":1428:1666   */\n  pop\n    /* \"#utility.yul\":1385:1666   */\n  pop\n  pop\n  jump\t// out\n    /* \"#utility.yul\":1672:1801   */\ntag_22:\n    /* \"#utility.yul\":1706:1712   */\n  0x00\n    /* \"#utility.yul\":1733:1753   */\n  tag_72\n  tag_10\n  jump\t// in\ntag_72:\n    /* \"#utility.yul\":1723:1753   */\n  swap1\n  pop\n    /* \"#utility.yul\":1762:1795   */\n  tag_73\n    /* \"#utility.yul\":1790:1794   */\n  dup3\n    /* \"#utility.yul\":1782:1788   */\n  dup3\n    /* \"#utility.yul\":1762:1795   */\n  tag_21\n  jump\t// in\ntag_73:\n    /* \"#utility.yul\":1672:1801   */\n  swap2\n  swap1\n  pop\n  jump\t// out\n    /* \"#utility.yul\":1807:2115   */\ntag_23:\n    /* \"#utility.yul\":1869:1873   */\n  0x00\n    /* \"#utility.yul\":1959:1977   */\n  0xffffffffffffffff\n    /* \"#utility.yul\":1951:1957   */\n  dup3\n    /* \"#utility.yul\":1948:1978   */\n  gt\n    /* \"#utility.yul\":1945:2001   */\n  iszero\n  tag_75\n  jumpi\n    /* \"#utility.yul\":1981:1999   */\n  tag_76\n  tag_20\n  jump\t// in\ntag_76:\n    /* \"#utility.yul\":1945:2001   */\ntag_75:\n    /* \"#utility.yul\":2019:2048   */\n  tag_77\n    /* \"#utility.yul\":2041:2047   */\n  dup3\n    /* \"#utility.yul\":2019:2048   */\n  tag_19\n  jump\t// in\ntag_77:\n    /* \"#utility.yul\":2011:2048   */\n  swap1\n  pop\n    /* \"#utility.yul\":2103:2107   */\n  0x20\n    /* \"#utility.yul\":2097:2101   */\n  dup2\n    /* \"#utility.yul\":2093:2108   */\n  add\n    /* \"#utility.yul\":2085:2108   */\n  swap1\n  pop\n    /* \"#utility.yul\":1807:2115   */\n  swap2\n  swap1\n  pop\n  jump\t// out\n    /* \"#utility.yul\":2121:2260   */\ntag_24:\n    /* \"#utility.yul\":2210:2216   */\n  dup3\n    /* \"#utility.yul\":2205:2208   */\n  dup2\n    /* \"#utility.yul\":2200:2203   */\n  dup4\n    /* \"#utility.yul\":2194:2217   */\n  mcopy\n    /* \"#utility.yul\":2251:2252   */\n  0x00\n    /* \"#utility.yul\":2242:2248   */\n  dup4\n    /* \"#utility.yul\":2237:2240   */\n  dup4\n    /* \"#utility.yul\":2233:2249   */\n  add\n    /* \"#utility.yul\":2226:2253   */\n  mstore\n    /* \"#utility.yul\":2121:2260   */\n  pop\n  pop\n  pop\n  jump\t// out\n    /* \"#utility.yul\":2266:2700   */\ntag_25:\n    /* \"#utility.yul\":2355:2360   */\n  0x00\n    /* \"#utility.yul\":2380:2446   */\n  tag_80\n    /* \"#utility.yul\":2396:2445   */\n  tag_81\n    /* \"#utility.yul\":2438:2444   */\n  dup5\n    /* \"#utility.yul\":2396:2445   */\n  tag_23\n  jump\t// in\ntag_81:\n    /* \"#utility.yul\":2380:2446   */\n  tag_22\n  jump\t// in\ntag_80:\n    /* \"#utility.yul\":2371:2446   */\n  swap1\n  pop\n    /* \"#utility.yul\":2469:2475   */\n  dup3\n    /* \"#utility.yul\":2462:2467   */\n  dup2\n    /* \"#utility.yul\":2455:2476   */\n  mstore\n    /* \"#utility.yul\":2507:2511   */\n  0x20\n    /* \"#utility.yul\":2500:2505   */\n  dup2\n    /* \"#utility.yul\":2496:2512   */\n  add\n    /* \"#utility.yul\":2545:2548   */\n  dup5\n    /* \"#utility.yul\":2536:2542   */\n  dup5\n    /* \"#utility.yul\":2531:2534   */\n  dup5\n    /* \"#utility.yul\":2527:2543   */\n  add\n    /* \"#utility.yul\":2524:2549   */\n  gt\n    /* \"#utility.yul\":2521:2633   */\n  iszero\n  tag_82\n  jumpi\n    /* \"#utility.yul\":2552:2631   */\n  tag_83\n  tag_18\n  jump\t// in\ntag_83:\n    /* \"#utility.yul\":2521:2633   */\ntag_82:\n    /* \"#utility.yul\":2642:2694   */\n  tag_84\n    /* \"#utility.yul\":2687:2693   */\n  dup5\n    /* \"#utility.yul\":2682:2685   */\n  dup3\n    /* \"#utility.yul\":2677:2680   */\n  dup6\n    /* \"#utility.yul\":2642:2694   */\n  tag_24\n  jump\t// in\ntag_84:\n    /* \"#utility.yul\":2361:2700   */\n  pop\n    /* \"#utility.yul\":2266:2700   */\n  swap4\n  swap3\n  pop\n  pop\n  pop\n  jump\t// out\n    /* \"#utility.yul\":2720:3075   */\ntag_26:\n    /* \"#utility.yul\":2787:2792   */\n  0x00\n    /* \"#utility.yul\":2836:2839   */\n  dup3\n    /* \"#utility.yul\":2829:2833   */\n  0x1f\n    /* \"#utility.yul\":2821:2827   */\n  dup4\n    /* \"#utility.yul\":2817:2834   */\n  add\n    /* \"#utility.yul\":2813:2840   */\n  slt\n    /* \"#utility.yul\":2803:2925   */\n  tag_86\n  jumpi\n    /* \"#utility.yul\":2844:2923   */\n  tag_87\n  tag_17\n  jump\t// in\ntag_87:\n    /* \"#utility.yul\":2803:2925   */\ntag_86:\n    /* \"#utility.yul\":2954:2960   */\n  dup2\n    /* \"#utility.yul\":2948:2961   */\n  mload\n    /* \"#utility.yul\":2979:3069   */\n  tag_88\n    /* \"#utility.yul\":3065:3068   */\n  dup5\n    /* \"#utility.yul\":3057:3063   */\n  dup3\n    /* \"#utility.yul\":3050:3054   */\n  0x20\n    /* \"#utility.yul\":3042:3048   */\n  dup7\n    /* \"#utility.yul\":3038:3055   */\n  add\n    /* \"#utility.yul\":2979:3069   */\n  tag_25\n  jump\t// in\ntag_88:\n    /* \"#utility.yul\":2970:3069   */\n  swap2\n  pop\n    /* \"#utility.yul\":2793:3075   */\n  pop\n    /* \"#utility.yul\":2720:3075   */\n  swap3\n  swap2\n  pop\n  pop\n  jump\t// out\n    /* \"#utility.yul\":3081:3174   */\ntag_27:\n    /* \"#utility.yul\":3117:3124   */\n  0x00\n    /* \"#utility.yul\":3157:3167   */\n  0xffffffff\n    /* \"#utility.yul\":3150:3155   */\n  dup3\n    /* \"#utility.yul\":3146:3168   */\n  and\n    /* \"#utility.yul\":3135:3168   */\n  swap1\n  pop\n    /* \"#utility.yul\":3081:3174   */\n  swap2\n  swap1\n  pop\n  jump\t// out\n    /* \"#utility.yul\":3180:3300   */\ntag_28:\n    /* \"#utility.yul\":3252:3275   */\n  tag_91\n    /* \"#utility.yul\":3269:3274   */\n  dup2\n    /* \"#utility.yul\":3252:3275   */\n  tag_27\n  jump\t// in\ntag_91:\n    /* \"#utility.yul\":3245:3250   */\n  dup2\n    /* \"#utility.yul\":3242:3276   */\n  eq\n    /* \"#utility.yul\":3232:3294   */\n  tag_92\n  jumpi\n    /* \"#utility.yul\":3290:3291   */\n  0x00\n    /* \"#utility.yul\":3287:3288   */\n  dup1\n    /* \"#utility.yul\":3280:3292   */\n  revert\n    /* \"#utility.yul\":3232:3294   */\ntag_92:\n    /* \"#utility.yul\":3180:3300   */\n  pop\n  jump\t// out\n    /* \"#utility.yul\":3306:3447   */\ntag_29:\n    /* \"#utility.yul\":3362:3367   */\n  0x00\n    /* \"#utility.yul\":3393:3399   */\n  dup2\n    /* \"#utility.yul\":3387:3400   */\n  mload\n    /* \"#utility.yul\":3378:3400   */\n  swap1\n  pop\n    /* \"#utility.yul\":3409:3441   */\n  tag_94\n    /* \"#utility.yul\":3435:3440   */\n  dup2\n    /* \"#utility.yul\":3409:3441   */\n  tag_28\n  jump\t// in\ntag_94:\n    /* \"#utility.yul\":3306:3447   */\n  swap3\n  swap2\n  pop\n  pop\n  jump\t// out\n    /* \"#utility.yul\":3453:3530   */\ntag_30:\n    /* \"#utility.yul\":3490:3497   */\n  0x00\n    /* \"#utility.yul\":3519:3524   */\n  dup2\n    /* \"#utility.yul\":3508:3524   */\n  swap1\n  pop\n    /* \"#utility.yul\":3453:3530   */\n  swap2\n  swap1\n  pop\n  jump\t// out\n    /* \"#utility.yul\":3536:3658   */\ntag_31:\n    /* \"#utility.yul\":3609:3633   */\n  tag_97\n    /* \"#utility.yul\":3627:3632   */\n  dup2\n    /* \"#utility.yul\":3609:3633   */\n  tag_30\n  jump\t// in\ntag_97:\n    /* \"#utility.yul\":3602:3607   */\n  dup2\n    /* \"#utility.yul\":3599:3634   */\n  eq\n    /* \"#utility.yul\":3589:3652   */\n  tag_98\n  jumpi\n    /* \"#utility.yul\":3648:3649   */\n  0x00\n    /* \"#utility.yul\":3645:3646   */\n  dup1\n    /* \"#utility.yul\":3638:3650   */\n  revert\n    /* \"#utility.yul\":3589:3652   */\ntag_98:\n    /* \"#utility.yul\":3536:3658   */\n  pop\n  jump\t// out\n    /* \"#utility.yul\":3664:3807   */\ntag_32:\n    /* \"#utility.yul\":3721:3726   */\n  0x00\n    /* \"#utility.yul\":3752:3758   */\n  dup2\n    /* \"#utility.yul\":3746:3759   */\n  mload\n    /* \"#utility.yul\":3737:3759   */\n  swap1\n  pop\n    /* \"#utility.yul\":3768:3801   */\n  tag_100\n    /* \"#utility.yul\":3795:3800   */\n  dup2\n    /* \"#utility.yul\":3768:3801   */\n  tag_31\n  jump\t// in\ntag_100:\n    /* \"#utility.yul\":3664:3807   */\n  swap3\n  swap2\n  pop\n  pop\n  jump\t// out\n    /* \"#utility.yul\":3813:5291   */\ntag_3:\n    /* \"#utility.yul\":3947:3953   */\n  0x00\n    /* \"#utility.yul\":3955:3961   */\n  dup1\n    /* \"#utility.yul\":3963:3969   */\n  0x00\n    /* \"#utility.yul\":3971:3977   */\n  dup1\n    /* \"#utility.yul\":3979:3985   */\n  0x00\n    /* \"#utility.yul\":3987:3993   */\n  dup1\n    /* \"#utility.yul\":4036:4039   */\n  0xc0\n    /* \"#utility.yul\":4024:4033   */\n  dup8\n    /* \"#utility.yul\":4015:4022   */\n  dup10\n    /* \"#utility.yul\":4011:4034   */\n  sub\n    /* \"#utility.yul\":4007:4040   */\n  slt\n    /* \"#utility.yul\":4004:4124   */\n  iszero\n  tag_102\n  jumpi\n    /* \"#utility.yul\":4043:4122   */\n  tag_103\n  tag_11\n  jump\t// in\ntag_103:\n    /* \"#utility.yul\":4004:4124   */\ntag_102:\n    /* \"#utility.yul\":4163:4164   */\n  0x00\n    /* \"#utility.yul\":4188:4252   */\n  tag_104\n    /* \"#utility.yul\":4244:4251   */\n  dup10\n    /* \"#utility.yul\":4235:4241   */\n  dup3\n    /* \"#utility.yul\":4224:4233   */\n  dup11\n    /* \"#utility.yul\":4220:4242   */\n  add\n    /* \"#utility.yul\":4188:4252   */\n  tag_16\n  jump\t// in\ntag_104:\n    /* \"#utility.yul\":4178:4252   */\n  swap7\n  pop\n    /* \"#utility.yul\":4134:4262   */\n  pop\n    /* \"#utility.yul\":4301:4303   */\n  0x20\n    /* \"#utility.yul\":4327:4391   */\n  tag_105\n    /* \"#utility.yul\":4383:4390   */\n  dup10\n    /* \"#utility.yul\":4374:4380   */\n  dup3\n    /* \"#utility.yul\":4363:4372   */\n  dup11\n    /* \"#utility.yul\":4359:4381   */\n  add\n    /* \"#utility.yul\":4327:4391   */\n  tag_16\n  jump\t// in\ntag_105:\n    /* \"#utility.yul\":4317:4391   */\n  swap6\n  pop\n    /* \"#utility.yul\":4272:4401   */\n  pop\n    /* \"#utility.yul\":4461:4463   */\n  0x40\n    /* \"#utility.yul\":4450:4459   */\n  dup8\n    /* \"#utility.yul\":4446:4464   */\n  add\n    /* \"#utility.yul\":4440:4465   */\n  mload\n    /* \"#utility.yul\":4492:4510   */\n  0xffffffffffffffff\n    /* \"#utility.yul\":4484:4490   */\n  dup2\n    /* \"#utility.yul\":4481:4511   */\n  gt\n    /* \"#utility.yul\":4478:4595   */\n  iszero\n  tag_106\n  jumpi\n    /* \"#utility.yul\":4514:4593   */\n  tag_107\n  tag_12\n  jump\t// in\ntag_107:\n    /* \"#utility.yul\":4478:4595   */\ntag_106:\n    /* \"#utility.yul\":4619:4693   */\n  tag_108\n    /* \"#utility.yul\":4685:4692   */\n  dup10\n    /* \"#utility.yul\":4676:4682   */\n  dup3\n    /* \"#utility.yul\":4665:4674   */\n  dup11\n    /* \"#utility.yul\":4661:4683   */\n  add\n    /* \"#utility.yul\":4619:4693   */\n  tag_26\n  jump\t// in\ntag_108:\n    /* \"#utility.yul\":4609:4693   */\n  swap5\n  pop\n    /* \"#utility.yul\":4411:4703   */\n  pop\n    /* \"#utility.yul\":4763:4765   */\n  0x60\n    /* \"#utility.yul\":4752:4761   */\n  dup8\n    /* \"#utility.yul\":4748:4766   */\n  add\n    /* \"#utility.yul\":4742:4767   */\n  mload\n    /* \"#utility.yul\":4794:4812   */\n  0xffffffffffffffff\n    /* \"#utility.yul\":4786:4792   */\n  dup2\n    /* \"#utility.yul\":4783:4813   */\n  gt\n    /* \"#utility.yul\":4780:4897   */\n  iszero\n  tag_109\n  jumpi\n    /* \"#utility.yul\":4816:4895   */\n  tag_110\n  tag_12\n  jump\t// in\ntag_110:\n    /* \"#utility.yul\":4780:4897   */\ntag_109:\n    /* \"#utility.yul\":4921:4995   */\n  tag_111\n    /* \"#utility.yul\":4987:4994   */\n  dup10\n    /* \"#utility.yul\":4978:4984   */\n  dup3\n    /* \"#utility.yul\":4967:4976   */\n  dup11\n    /* \"#utility.yul\":4963:4985   */\n  add\n    /* \"#utility.yul\":4921:4995   */\n  tag_26\n  jump\t// in\ntag_111:\n    /* \"#utility.yul\":4911:4995   */\n  swap4\n  pop\n    /* \"#utility.yul\":4713:5005   */\n  pop\n    /* \"#utility.yul\":5044:5047   */\n  0x80\n    /* \"#utility.yul\":5071:5134   */\n  tag_112\n    /* \"#utility.yul\":5126:5133   */\n  dup10\n    /* \"#utility.yul\":5117:5123   */\n  dup3\n    /* \"#utility.yul\":5106:5115   */\n  dup11\n    /* \"#utility.yul\":5102:5124   */\n  add\n    /* \"#utility.yul\":5071:5134   */\n  tag_29\n  jump\t// in\ntag_112:\n    /* \"#utility.yul\":5061:5134   */\n  swap3\n  pop\n    /* \"#utility.yul\":5015:5144   */\n  pop\n    /* \"#utility.yul\":5183:5186   */\n  0xa0\n    /* \"#utility.yul\":5210:5274   */\n  tag_113\n    /* \"#utility.yul\":5266:5273   */\n  dup10\n    /* \"#utility.yul\":5257:5263   */\n  dup3\n    /* \"#utility.yul\":5246:5255   */\n  dup11\n    /* \"#utility.yul\":5242:5264   */\n  add\n    /* \"#utility.yul\":5210:5274   */\n  tag_32\n  jump\t// in\ntag_113:\n    /* \"#utility.yul\":5200:5274   */\n  swap2\n  pop\n    /* \"#utility.yul\":5154:5284   */\n  pop\n    /* \"#utility.yul\":3813:5291   */\n  swap3\n  swap6\n  pop\n  swap3\n  swap6\n  pop\n  swap3\n  swap6\n  jump\t// out\n    /* \"#utility.yul\":5297:5396   */\ntag_33:\n    /* \"#utility.yul\":5349:5355   */\n  0x00\n    /* \"#utility.yul\":5383:5388   */\n  dup2\n    /* \"#utility.yul\":5377:5389   */\n  mload\n    /* \"#utility.yul\":5367:5389   */\n  swap1\n  pop\n    /* \"#utility.yul\":5297:5396   */\n  swap2\n  swap1\n  pop\n  jump\t// out\n    /* \"#utility.yul\":5402:5582   */\ntag_34:\n    /* \"#utility.yul\":5450:5527   */\n  0x4e487b7100000000000000000000000000000000000000000000000000000000\n    /* \"#utility.yul\":5447:5448   */\n  0x00\n    /* \"#utility.yul\":5440:5528   */\n  mstore\n    /* \"#utility.yul\":5547:5551   */\n  0x22\n    /* \"#utility.yul\":5544:5545   */\n  0x04\n    /* \"#utility.yul\":5537:5552   */\n  mstore\n    /* \"#utility.yul\":5571:5575   */\n  0x24\n    /* \"#utility.yul\":5568:5569   */\n  0x00\n    /* \"#utility.yul\":5561:5576   */\n  revert\n    /* \"#utility.yul\":5588:5908   */\ntag_35:\n    /* \"#utility.yul\":5632:5638   */\n  0x00\n    /* \"#utility.yul\":5669:5670   */\n  0x02\n    /* \"#utility.yul\":5663:5667   */\n  dup3\n    /* \"#utility.yul\":5659:5671   */\n  div\n    /* \"#utility.yul\":5649:5671   */\n  swap1\n  pop\n    /* \"#utility.yul\":5716:5717   */\n  0x01\n    /* \"#utility.yul\":5710:5714   */\n  dup3\n    /* \"#utility.yul\":5706:5718   */\n  and\n    /* \"#utility.yul\":5737:5755   */\n  dup1\n    /* \"#utility.yul\":5727:5808   */\n  tag_117\n  jumpi\n    /* \"#utility.yul\":5793:5797   */\n  0x7f\n    /* \"#utility.yul\":5785:5791   */\n  dup3\n    /* \"#utility.yul\":5781:5798   */\n  and\n    /* \"#utility.yul\":5771:5798   */\n  swap2\n  pop\n    /* \"#utility.yul\":5727:5808   */\ntag_117:\n    /* \"#utility.yul\":5855:5857   */\n  0x20\n    /* \"#utility.yul\":5847:5853   */\n  dup3\n    /* \"#utility.yul\":5844:5858   */\n  lt\n    /* \"#utility.yul\":5824:5842   */\n  dup2\n    /* \"#utility.yul\":5821:5859   */\n  sub\n    /* \"#utility.yul\":5818:5902   */\n  tag_118\n  jumpi\n    /* \"#utility.yul\":5874:5892   */\n  tag_119\n  tag_34\n  jump\t// in\ntag_119:\n    /* \"#utility.yul\":5818:5902   */\ntag_118:\n    /* \"#utility.yul\":5639:5908   */\n  pop\n    /* \"#utility.yul\":5588:5908   */\n  swap2\n  swap1\n  pop\n  jump\t// out\n    /* \"#utility.yul\":5914:6055   */\ntag_36:\n    /* \"#utility.yul\":5963:5967   */\n  0x00\n    /* \"#utility.yul\":5986:5989   */\n  dup2\n    /* \"#utility.yul\":5978:5989   */\n  swap1\n  pop\n    /* \"#utility.yul\":6009:6012   */\n  dup2\n    /* \"#utility.yul\":6006:6007   */\n  0x00\n    /* \"#utility.yul\":5999:6013   */\n  mstore\n    /* \"#utility.yul\":6043:6047   */\n  0x20\n    /* \"#utility.yul\":6040:6041   */\n  0x00\n    /* \"#utility.yul\":6030:6048   */\n  keccak256\n    /* \"#utility.yul\":6022:6048   */\n  swap1\n  pop\n    /* \"#utility.yul\":5914:6055   */\n  swap2\n  swap1\n  pop\n  jump\t// out\n    /* \"#utility.yul\":6061:6154   */\ntag_37:\n    /* \"#utility.yul\":6098:6104   */\n  0x00\n    /* \"#utility.yul\":6145:6147   */\n  0x20\n    /* \"#utility.yul\":6140:6142   */\n  0x1f\n    /* \"#utility.yul\":6133:6138   */\n  dup4\n    /* \"#utility.yul\":6129:6143   */\n  add\n    /* \"#utility.yul\":6125:6148   */\n  div\n    /* \"#utility.yul\":6115:6148   */\n  swap1\n  pop\n    /* \"#utility.yul\":6061:6154   */\n  swap2\n  swap1\n  pop\n  jump\t// out\n    /* \"#utility.yul\":6160:6267   */\ntag_38:\n    /* \"#utility.yul\":6204:6212   */\n  0x00\n    /* \"#utility.yul\":6254:6259   */\n  dup3\n    /* \"#utility.yul\":6248:6252   */\n  dup3\n    /* \"#utility.yul\":6244:6260   */\n  shl\n    /* \"#utility.yul\":6223:6260   */\n  swap1\n  pop\n    /* \"#utility.yul\":6160:6267   */\n  swap3\n  swap2\n  pop\n  pop\n  jump\t// out\n    /* \"#utility.yul\":6273:6666   */\ntag_39:\n    /* \"#utility.yul\":6342:6348   */\n  0x00\n    /* \"#utility.yul\":6392:6393   */\n  0x08\n    /* \"#utility.yul\":6380:6390   */\n  dup4\n    /* \"#utility.yul\":6376:6394   */\n  mul\n    /* \"#utility.yul\":6415:6512   */\n  tag_124\n    /* \"#utility.yul\":6445:6511   */\n  0xffffffffffffffffffffffffffffffffffffffffffffffffffffffffffffffff\n    /* \"#utility.yul\":6434:6443   */\n  dup3\n    /* \"#utility.yul\":6415:6512   */\n  tag_38\n  jump\t// in\ntag_124:\n    /* \"#utility.yul\":6533:6572   */\n  tag_125\n    /* \"#utility.yul\":6563:6571   */\n  dup7\n    /* \"#utility.yul\":6552:6561   */\n  dup4\n    /* \"#utility.yul\":6533:6572   */\n  tag_38\n  jump\t// in\ntag_125:\n    /* \"#utility.yul\":6521:6572   */\n  swap6\n  pop\n    /* \"#utility.yul\":6605:6609   */\n  dup1\n    /* \"#utility.yul\":6601:6610   */\n  not\n    /* \"#utility.yul\":6594:6599   */\n  dup5\n    /* \"#utility.yul\":6590:6611   */\n  and\n    /* \"#utility.yul\":6581:6611   */\n  swap4\n  pop\n    /* \"#utility.yul\":6654:6658   */\n  dup1\n    /* \"#utility.yul\":6644:6652   */\n  dup7\n    /* \"#utility.yul\":6640:6659   */\n  and\n    /* \"#utility.yul\":6633:6638   */\n  dup5\n    /* \"#utility.yul\":6630:6660   */\n  or\n    /* \"#utility.yul\":6620:6660   */\n  swap3\n  pop\n    /* \"#utility.yul\":6349:6666   */\n  pop\n  pop\n    /* \"#utility.yul\":6273:6666   */\n  swap4\n  swap3\n  pop\n  pop\n  pop\n  jump\t// out\n    /* \"#utility.yul\":6672:6732   */\ntag_40:\n    /* \"#utility.yul\":6700:6703   */\n  0x00\n    /* \"#utility.yul\":6721:6726   */\n  dup2\n    /* \"#utility.yul\":6714:6726   */\n  swap1\n  pop\n    /* \"#utility.yul\":6672:6732   */\n  swap2\n  swap1\n  pop\n  jump\t// out\n    /* \"#utility.yul\":6738:6880   */\ntag_41:\n    /* \"#utility.yul\":6788:6797   */\n  0x00\n    /* \"#utility.yul\":6821:6874   */\n  tag_128\n    /* \"#utility.yul\":6839:6873   */\n  tag_129\n    /* \"#utility.yul\":6848:6872   */\n  tag_130\n    /* \"#utility.yul\":6866:6871   */\n  dup5\n    /* \"#utility.yul\":6848:6872   */\n  tag_30\n  jump\t// in\ntag_130:\n    /* \"#utility.yul\":6839:6873   */\n  tag_40\n  jump\t// in\ntag_129:\n    /* \"#utility.yul\":6821:6874   */\n  tag_30\n  jump\t// in\ntag_128:\n    /* \"#utility.yul\":6808:6874   */\n  swap1\n  pop\n    /* \"#utility.yul\":6738:6880   */\n  swap2\n  swap1\n  pop\n  jump\t// out\n    /* \"#utility.yul\":6886:6961   */\ntag_42:\n    /* \"#utility.yul\":6929:6932   */\n  0x00\n    /* \"#utility.yul\":6950:6955   */\n  dup2\n    /* \"#utility.yul\":6943:6955   */\n  swap1\n  pop\n    /* \"#utility.yul\":6886:6961   */\n  swap2\n  swap1\n  pop\n  jump\t// out\n    /* \"#utility.yul\":6967:7236   */\ntag_43:\n    /* \"#utility.yul\":7077:7116   */\n  tag_133\n    /* \"#utility.yul\":7108:7115   */\n  dup4\n    /* \"#utility.yul\":7077:7116   */\n  tag_41\n  jump\t// in\ntag_133:\n    /* \"#utility.yul\":7138:7229   */\n  tag_134\n    /* \"#utility.yul\":7187:7228   */\n  tag_135\n    /* \"#utility.yul\":7211:7227   */\n  dup3\n    /* \"#utility.yul\":7187:7228   */\n  tag_42\n  jump\t// in\ntag_135:\n    /* \"#utility.yul\":7179:7185   */\n  dup5\n    /* \"#utility.yul\":7172:7176   */\n  dup5\n    /* \"#utility.yul\":7166:7177   */\n  sload\n    /* \"#utility.yul\":7138:7229   */\n  tag_39\n  jump\t// in\ntag_134:\n    /* \"#utility.yul\":7132:7136   */\n  dup3\n    /* \"#utility.yul\":7125:7230   */\n  sstore\n    /* \"#utility.yul\":7043:7236   */\n  pop\n    /* \"#utility.yul\":6967:7236   */\n  pop\n  pop\n  pop\n  jump\t// out\n    /* \"#utility.yul\":7242:7315   */\ntag_44:\n    /* \"#utility.yul\":7287:7290   */\n  0x00\n    /* \"#utility.yul\":7242:7315   */\n  swap1\n  jump\t// out\n    /* \"#utility.yul\":7321:7510   */\ntag_45:\n    /* \"#utility.yul\":7398:7430   */\n  tag_138\n  tag_44\n  jump\t// in\ntag_138:\n    /* \"#utility.yul\":7439:7504   */\n  tag_139\n    /* \"#utility.yul\":7497:7503   */\n  dup2\n    /* \"#utility.yul\":7489:7495   */\n  dup5\n    /* \"#utility.yul\":7483:7487   */\n  dup5\n    /* \"#utility.yul\":7439:7504   */\n  tag_43\n  jump\t// in\ntag_139:\n    /* \"#utility.yul\":7374:7510   */\n  pop\n    /* \"#utility.yul\":7321:7510   */\n  pop\n  pop\n  jump\t// out\n    /* \"#utility.yul\":7516:7702   */\ntag_46:\n    /* \"#utility.yul\":7576:7696   */\ntag_141:\n    /* \"#utility.yul\":7593:7596   */\n  dup2\n    /* \"#utility.yul\":7586:7591   */\n  dup2\n    /* \"#utility.yul\":7583:7597   */\n  lt\n    /* \"#utility.yul\":7576:7696   */\n  iszero\n  tag_143\n  jumpi\n    /* \"#utility.yul\":7647:7686   */\n  tag_144\n    /* \"#utility.yul\":7684:7685   */\n  0x00\n    /* \"#utility.yul\":7677:7682   */\n  dup3\n    /* \"#utility.yul\":7647:7686   */\n  tag_45\n  jump\t// in\ntag_144:\n    /* \"#utility.yul\":7620:7621   */\n  0x01\n    /* \"#utility.yul\":7613:7618   */\n  dup2\n    /* \"#utility.yul\":7609:7622   */\n  add\n    /* \"#utility.yul\":7600:7622   */\n  swap1\n  pop\n    /* \"#utility.yul\":7576:7696   */\n  jump(tag_141)\ntag_143:\n    /* \"#utility.yul\":7516:7702   */\n  pop\n  pop\n  jump\t// out\n    /* \"#utility.yul\":7708:8251   */\ntag_47:\n    /* \"#utility.yul\":7809:7811   */\n  0x1f\n    /* \"#utility.yul\":7804:7807   */\n  dup3\n    /* \"#utility.yul\":7801:7812   */\n  gt\n    /* \"#utility.yul\":7798:8244   */\n  iszero\n  tag_146\n  jumpi\n    /* \"#utility.yul\":7843:7881   */\n  tag_147\n    /* \"#utility.yul\":7875:7880   */\n  dup2\n    /* \"#utility.yul\":7843:7881   */\n  tag_36\n  jump\t// in\ntag_147:\n    /* \"#utility.yul\":7927:7956   */\n  tag_148\n    /* \"#utility.yul\":7945:7955   */\n  dup5\n    /* \"#utility.yul\":7927:7956   */\n  tag_37\n  jump\t// in\ntag_148:\n    /* \"#utility.yul\":7917:7925   */\n  dup2\n    /* \"#utility.yul\":7913:7957   */\n  add\n    /* \"#utility.yul\":8110:8112   */\n  0x20\n    /* \"#utility.yul\":8098:8108   */\n  dup6\n    /* \"#utility.yul\":8095:8113   */\n  lt\n    /* \"#utility.yul\":8092:8141   */\n  iszero\n  tag_149\n  jumpi\n    /* \"#utility.yul\":8131:8139   */\n  dup2\n    /* \"#utility.yul\":8116:8139   */\n  swap1\n  pop\n    /* \"#utility.yul\":8092:8141   */\ntag_149:\n    /* \"#utility.yul\":8154:8234   */\n  tag_150\n    /* \"#utility.yul\":8210:8232   */\n  tag_151\n    /* \"#utility.yul\":8228:8231   */\n  dup6\n    /* \"#utility.yul\":8210:8232   */\n  tag_37\n  jump\t// in\ntag_151:\n    /* \"#utility.yul\":8200:8208   */\n  dup4\n    /* \"#utility.yul\":8196:8233   */\n  add\n    /* \"#utility.yul\":8183:8194   */\n  dup3\n    /* \"#utility.yul\":8154:8234   */\n  tag_46\n  jump\t// in\ntag_150:\n    /* \"#utility.yul\":7813:8244   */\n  pop\n  pop\n    /* \"#utility.yul\":7798:8244   */\ntag_146:\n    /* \"#utility.yul\":7708:8251   */\n  pop\n  pop\n  pop\n  jump\t// out\n    /* \"#utility.yul\":8257:8374   */\ntag_48:\n    /* \"#utility.yul\":8311:8319   */\n  0x00\n    /* \"#utility.yul\":8361:8366   */\n  dup3\n    /* \"#utility.yul\":8355:8359   */\n  dup3\n    /* \"#utility.yul\":8351:8367   */\n  shr\n    /* \"#utility.yul\":8330:8367   */\n  swap1\n  pop\n    /* \"#utility.yul\":8257:8374   */\n  swap3\n  swap2\n  pop\n  pop\n  jump\t// out\n    /* \"#utility.yul\":8380:8549   */\ntag_49:\n    /* \"#utility.yul\":8424:8430   */\n  0x00\n    /* \"#utility.yul\":8457:8508   */\n  tag_154\n    /* \"#utility.yul\":8505:8506   */\n  0x00\n    /* \"#utility.yul\":8501:8507   */\n  not\n    /* \"#utility.yul\":8493:8498   */\n  dup5\n    /* \"#utility.yul\":8490:8491   */\n  0x08\n    /* \"#utility.yul\":8486:8499   */\n  mul\n    /* \"#utility.yul\":8457:8508   */\n  tag_48\n  jump\t// in\ntag_154:\n    /* \"#utility.yul\":8453:8509   */\n  not\n    /* \"#utility.yul\":8538:8542   */\n  dup1\n    /* \"#utility.yul\":8532:8536   */\n  dup4\n    /* \"#utility.yul\":8528:8543   */\n  and\n    /* \"#utility.yul\":8518:8543   */\n  swap2\n  pop\n    /* \"#utility.yul\":8431:8549   */\n  pop\n    /* \"#utility.yul\":8380:8549   */\n  swap3\n  swap2\n  pop\n  pop\n  jump\t// out\n    /* \"#utility.yul\":8554:8849   */\ntag_50:\n    /* \"#utility.yul\":8630:8634   */\n  0x00\n    /* \"#utility.yul\":8776:8805   */\n  tag_156\n    /* \"#utility.yul\":8801:8804   */\n  dup4\n    /* \"#utility.yul\":8795:8799   */\n  dup4\n    /* \"#utility.yul\":8776:8805   */\n  tag_49\n  jump\t// in\ntag_156:\n    /* \"#utility.yul\":8768:8805   */\n  swap2\n  pop\n    /* \"#utility.yul\":8838:8841   */\n  dup3\n    /* \"#utility.yul\":8835:8836   */\n  0x02\n    /* \"#utility.yul\":8831:8842   */\n  mul\n    /* \"#utility.yul\":8825:8829   */\n  dup3\n    /* \"#utility.yul\":8822:8843   */\n  or\n    /* \"#utility.yul\":8814:8843   */\n  swap1\n  pop\n    /* \"#utility.yul\":8554:8849   */\n  swap3\n  swap2\n  pop\n  pop\n  jump\t// out\n    /* \"#utility.yul\":8854:10249   */\ntag_7:\n    /* \"#utility.yul\":8971:9008   */\n  tag_158\n    /* \"#utility.yul\":9004:9007   */\n  dup3\n    /* \"#utility.yul\":8971:9008   */\n  tag_33\n  jump\t// in\ntag_158:\n    /* \"#utility.yul\":9073:9091   */\n  0xffffffffffffffff\n    /* \"#utility.yul\":9065:9071   */\n  dup2\n    /* \"#utility.yul\":9062:9092   */\n  gt\n    /* \"#utility.yul\":9059:9115   */\n  iszero\n  tag_159\n  jumpi\n    /* \"#utility.yul\":9095:9113   */\n  tag_160\n  tag_20\n  jump\t// in\ntag_160:\n    /* \"#utility.yul\":9059:9115   */\ntag_159:\n    /* \"#utility.yul\":9139:9177   */\n  tag_161\n    /* \"#utility.yul\":9171:9175   */\n  dup3\n    /* \"#utility.yul\":9165:9176   */\n  sload\n    /* \"#utility.yul\":9139:9177   */\n  tag_35\n  jump\t// in\ntag_161:\n    /* \"#utility.yul\":9224:9291   */\n  tag_162\n    /* \"#utility.yul\":9284:9290   */\n  dup3\n    /* \"#utility.yul\":9276:9282   */\n  dup3\n    /* \"#utility.yul\":9270:9274   */\n  dup6\n    /* \"#utility.yul\":9224:9291   */\n  tag_47\n  jump\t// in\ntag_162:\n    /* \"#utility.yul\":9318:9319   */\n  0x00\n    /* \"#utility.yul\":9342:9346   */\n  0x20\n    /* \"#utility.yul\":9329:9346   */\n  swap1\n  pop\n    /* \"#utility.yul\":9374:9376   */\n  0x1f\n    /* \"#utility.yul\":9366:9372   */\n  dup4\n    /* \"#utility.yul\":9363:9377   */\n  gt\n    /* \"#utility.yul\":9391:9392   */\n  0x01\n    /* \"#utility.yul\":9386:10004   */\n  dup2\n  eq\n  tag_164\n  jumpi\n    /* \"#utility.yul\":10048:10049   */\n  0x00\n    /* \"#utility.yul\":10065:10071   */\n  dup5\n    /* \"#utility.yul\":10062:10139   */\n  iszero\n  tag_165\n  jumpi\n    /* \"#utility.yul\":10114:10123   */\n  dup3\n    /* \"#utility.yul\":10109:10112   */\n  dup8\n    /* \"#utility.yul\":10105:10124   */\n  add\n    /* \"#utility.yul\":10099:10125   */\n  mload\n    /* \"#utility.yul\":10090:10125   */\n  swap1\n  pop\n    /* \"#utility.yul\":10062:10139   */\ntag_165:\n    /* \"#utility.yul\":10165:10232   */\n  tag_166\n    /* \"#utility.yul\":10225:10231   */\n  dup6\n    /* \"#utility.yul\":10218:10223   */\n  dup3\n    /* \"#utility.yul\":10165:10232   */\n  tag_50\n  jump\t// in\ntag_166:\n    /* \"#utility.yul\":10159:10163   */\n  dup7\n    /* \"#utility.yul\":10152:10233   */\n  sstore\n    /* \"#utility.yul\":10021:10243   */\n  pop\n    /* \"#utility.yul\":9356:10243   */\n  jump(tag_163)\n    /* \"#utility.yul\":9386:10004   */\ntag_164:\n    /* \"#utility.yul\":9438:9442   */\n  0x1f\n    /* \"#utility.yul\":9434:9443   */\n  not\n    /* \"#utility.yul\":9426:9432   */\n  dup5\n    /* \"#utility.yul\":9422:9444   */\n  and\n    /* \"#utility.yul\":9472:9509   */\n  tag_167\n    /* \"#utility.yul\":9504:9508   */\n  dup7\n    /* \"#utility.yul\":9472:9509   */\n  tag_36\n  jump\t// in\ntag_167:\n    /* \"#utility.yul\":9531:9532   */\n  0x00\n    /* \"#utility.yul\":9545:9753   */\ntag_168:\n    /* \"#utility.yul\":9559:9566   */\n  dup3\n    /* \"#utility.yul\":9556:9557   */\n  dup2\n    /* \"#utility.yul\":9553:9567   */\n  lt\n    /* \"#utility.yul\":9545:9753   */\n  iszero\n  tag_170\n  jumpi\n    /* \"#utility.yul\":9638:9647   */\n  dup5\n    /* \"#utility.yul\":9633:9636   */\n  dup10\n    /* \"#utility.yul\":9629:9648   */\n  add\n    /* \"#utility.yul\":9623:9649   */\n  mload\n    /* \"#utility.yul\":9615:9621   */\n  dup3\n    /* \"#utility.yul\":9608:9650   */\n  sstore\n    /* \"#utility.yul\":9689:9690   */\n  0x01\n    /* \"#utility.yul\":9681:9687   */\n  dup3\n    /* \"#utility.yul\":9677:9691   */\n  add\n    /* \"#utility.yul\":9667:9691   */\n  swap2\n  pop\n    /* \"#utility.yul\":9736:9738   */\n  0x20\n    /* \"#utility.yul\":9725:9734   */\n  dup6\n    /* \"#utility.yul\":9721:9739   */\n  add\n    /* \"#utility.yul\":9708:9739   */\n  swap5\n  pop\n    /* \"#utility.yul\":9582:9586   */\n  0x20\n    /* \"#utility.yul\":9579:9580   */\n  dup2\n    /* \"#utility.yul\":9575:9587   */\n  add\n    /* \"#utility.yul\":9570:9587   */\n  swap1\n  pop\n    /* \"#utility.yul\":9545:9753   */\n  jump(tag_168)\ntag_170:\n    /* \"#utility.yul\":9781:9787   */\n  dup7\n    /* \"#utility.yul\":9772:9779   */\n  dup4\n    /* \"#utility.yul\":9769:9788   */\n  lt\n    /* \"#utility.yul\":9766:9945   */\n  iszero\n  tag_171\n  jumpi\n    /* \"#utility.yul\":9839:9848   */\n  dup5\n    /* \"#utility.yul\":9834:9837   */\n  dup10\n    /* \"#utility.yul\":9830:9849   */\n  add\n    /* \"#utility.yul\":9824:9850   */\n  mload\n    /* \"#utility.yul\":9882:9930   */\n  tag_172\n    /* \"#utility.yul\":9924:9928   */\n  0x1f\n    /* \"#utility.yul\":9916:9922   */\n  dup10\n    /* \"#utility.yul\":9912:9929   */\n  and\n    /* \"#utility.yul\":9901:9910   */\n  dup3\n    /* \"#utility.yul\":9882:9930   */\n  tag_49\n  jump\t// in\ntag_172:\n    /* \"#utility.yul\":9874:9880   */\n  dup4\n    /* \"#utility.yul\":9867:9931   */\n  sstore\n    /* \"#utility.yul\":9789:9945   */\n  pop\n    /* \"#utility.yul\":9766:9945   */\ntag_171:\n    /* \"#utility.yul\":9991:9992   */\n  0x01\n    /* \"#utility.yul\":9987:9988   */\n  0x02\n    /* \"#utility.yul\":9979:9985   */\n  dup9\n    /* \"#utility.yul\":9975:9989   */\n  mul\n    /* \"#utility.yul\":9971:9993   */\n  add\n    /* \"#utility.yul\":9965:9969   */\n  dup9\n    /* \"#utility.yul\":9958:9994   */\n  sstore\n    /* \"#utility.yul\":9393:10004   */\n  pop\n  pop\n  pop\n    /* \"#utility.yul\":9356:10243   */\ntag_163:\n  pop\n    /* \"#utility.yul\":8946:10249   */\n  pop\n  pop\n  pop\n    /* \"#utility.yul\":8854:10249   */\n  pop\n  pop\n  jump\t// out\n    /* \"backend/contracts/Campaign.sol\":226:8550  contract Campaign {... */\ntag_9:\n  mload(0x80)\n  mload(0xa0)\n  mload(0xc0)\n  codecopy(0x00, dataOffset(sub_0), dataSize(sub_0))\n  0x00\n  assignImmutable(\"0x7f8b6b088b6d74c2852fc86c796dca07b44eed6fb3daf5e6b59f7c364db14528\")\n  0x00\n  assignImmutable(\"0x1a192fabce13988b84994d4296e6cdc418d55e2f1d7f942188d4040b94fc57ac\")\n  0x00\n  assignImmutable(\"0x13600b294191fc92924bb3ce4b969c1e7e2bab8f4c93c3fc6d0a51733df3c060\")\n  return(0x00, dataSize(sub_0))\nstop\n\nsub_0: assembly {\n        /* \"backend/contracts/Campaign.sol\":226:8550  contract Campaign {... */\n      mstore(0x40, 0x80)\n      jumpi(tag_1, lt(calldatasize, 0x04))\n      shr(0xe0, calldataload(0x00))\n      dup1\n      0x7a3a0e84\n      gt\n      tag_16\n      jumpi\n      dup1\n      0xa1211bc0\n      gt\n      tag_17\n      jumpi\n      dup1\n      0xa1211bc0\n      eq\n      tag_12\n      jumpi\n      dup1\n      0xcc6cb19a\n      eq\n      tag_13\n      jumpi\n      dup1\n      0xed88c68e\n      eq\n      tag_14\n      jumpi\n      dup1\n      0xf851a440\n      eq\n      tag_15\n      jumpi\n      jump(tag_1)\n    tag_17:\n      dup1\n      0x7a3a0e84\n      eq\n      tag_9\n      jumpi\n      dup1\n      0x968ed600\n      eq\n      tag_10\n      jumpi\n      dup1\n      0x96f300d4\n      eq\n      tag_11\n      jumpi\n      jump(tag_1)\n    tag_16:\n      dup1\n      0x29dcb0cf\n      gt\n      tag_18\n      jumpi\n      dup1\n      0x29dcb0cf\n      eq\n      tag_5\n      jumpi\n      dup1\n      0x38af3eed\n      eq\n      tag_6\n      jumpi\n      dup1\n      0x4abfa163\n      eq\n      tag_7\n      jumpi\n      dup1\n      0x7284e416\n      eq\n      tag_8\n      jumpi\n      jump(tag_1)\n    tag_18:\n      dup1\n      0x06fdde03\n      eq\n      tag_2\n      jumpi\n      dup1\n      0x0c611f24\n      eq\n      tag_3\n      jumpi\n      dup1\n      0x22f3e2d4\n      eq\n      tag_4\n      jumpi\n    tag_1:\n      0x00\n      dup1\n      revert\n        /* \"backend/contracts/Campaign.sol\":315:333  string public name */\n    tag_2:\n      callvalue\n      dup1\n      iszero\n      tag_19\n      jumpi\n      0x00\n      dup1\n      revert\n    tag_19:\n      pop\n      tag_20\n      tag_21\n      jump\t// in\n    tag_20:\n      mload(0x40)\n      tag_22\n      swap2\n      swap1\n      tag_23\n      jump\t// in\n    tag_22:\n      mload(0x40)\n      dup1\n      swap2\n      sub\n      swap1\n      return\n        /* \"backend/contracts/Campaign.sol\":7329:7980  function getCampaignDetails()... */\n    tag_3:\n      callvalue\n      dup1\n      iszero\n      tag_24\n      jumpi\n      0x00\n      dup1\n      revert\n    tag_24:\n      pop\n      tag_25\n      tag_26\n      jump\t// in\n    tag_25:\n      mload(0x40)\n      tag_27\n      swap8\n      swap7\n      swap6\n      swap5\n      swap4\n      swap3\n      swap2\n      swap1\n      tag_28\n      jump\t// in\n    tag_27:\n      mload(0x40)\n      dup1\n      swap2\n      sub\n      swap1\n      return\n        /* \"backend/contracts/Campaign.sol\":501:521  bool public isActive */\n    tag_4:\n      callvalue\n      dup1\n      iszero\n      tag_29\n      jumpi\n      0x00\n      dup1\n      revert\n    tag_29:\n      pop\n      tag_30\n      tag_31\n      jump\t// in\n    tag_30:\n      mload(0x40)\n      tag_32\n      swap2\n      swap1\n      tag_33\n      jump\t// in\n    tag_32:\n      mload(0x40)\n      dup1\n      swap2\n      sub\n      swap1\n      return\n        /* \"backend/contracts/Campaign.sol\":370:403  uint256 public immutable deadline */\n    tag_5:\n      callvalue\n      dup1\n      iszero\n      tag_34\n      jumpi\n      0x00\n      dup1\n      revert\n    tag_34:\n      pop\n      tag_35\n      tag_36\n      jump\t// in\n    tag_35:\n      mload(0x40)\n      tag_37\n      swap2\n      swap1\n      tag_38\n      jump\t// in\n    tag_37:\n      mload(0x40)\n      dup1\n      swap2\n      sub\n      swap1\n      return\n        /* \"backend/contracts/Campaign.sol\":273:309  address public immutable beneficiary */\n    tag_6:\n      callvalue\n      dup1\n      iszero\n      tag_39\n      jumpi\n      0x00\n      dup1\n      revert\n    tag_39:\n      pop\n      tag_40\n      tag_41\n      jump\t// in\n    tag_40:\n      mload(0x40)\n      tag_42\n      swap2\n      swap1\n      tag_43\n      jump\t// in\n    tag_42:\n      mload(0x40)\n      dup1\n      swap2\n      sub\n      swap1\n      return\n        /* \"backend/contracts/Campaign.sol\":727:750  address[] public donors */\n    tag_7:\n      callvalue\n      dup1\n      iszero\n      tag_44\n      jumpi\n      0x00\n      dup1\n      revert\n    tag_44:\n      pop\n      tag_45\n      0x04\n      dup1\n      calldatasize\n      sub\n      dup2\n      add\n      swap1\n      tag_46\n      swap2\n      swap1\n      tag_47\n      jump\t// in\n    tag_46:\n      tag_48\n      jump\t// in\n    tag_45:\n      mload(0x40)\n      tag_49\n      swap2\n      swap1\n      tag_43\n      jump\t// in\n    tag_49:\n      mload(0x40)\n      dup1\n      swap2\n      sub\n      swap1\n      return\n        /* \"backend/contracts/Campaign.sol\":339:364  string public description */\n    tag_8:\n      callvalue\n      dup1\n      iszero\n      tag_50\n      jumpi\n      0x00\n      dup1\n      revert\n    tag_50:\n      pop\n      tag_51\n      tag_52\n      jump\t// in\n    tag_51:\n      mload(0x40)\n      tag_53\n      swap2\n      swap1\n      tag_23\n      jump\t// in\n    tag_53:\n      mload(0x40)\n      dup1\n      swap2\n      sub\n      swap1\n      return\n        /* \"backend/contracts/Campaign.sol\":409:444  uint32 public immutable fundingGoal */\n    tag_9:\n      callvalue\n      dup1\n      iszero\n      tag_54\n      jumpi\n      0x00\n      dup1\n      revert\n    tag_54:\n      pop\n      tag_55\n      tag_56\n      jump\t// in\n    tag_55:\n      mload(0x40)\n      tag_57\n      swap2\n      swap1\n      tag_58\n      jump\t// in\n    tag_57:\n      mload(0x40)\n      dup1\n      swap2\n      sub\n      swap1\n      return\n        /* \"backend/contracts/Campaign.sol\":450:474  uint32 public totalFunds */\n    tag_10:\n      callvalue\n      dup1\n      iszero\n      tag_59\n      jumpi\n      0x00\n      dup1\n      revert\n    tag_59:\n      pop\n      tag_60\n      tag_61\n      jump\t// in\n    tag_60:\n      mload(0x40)\n      tag_62\n      swap2\n      swap1\n      tag_58\n      jump\t// in\n    tag_62:\n      mload(0x40)\n      dup1\n      swap2\n      sub\n      swap1\n      return\n        /* \"backend/contracts/Campaign.sol\":7149:7241  function getDonors() external view returns (address[] memory) {... */\n    tag_11:\n      callvalue\n      dup1\n      iszero\n      tag_63\n      jumpi\n      0x00\n      dup1\n      revert\n    tag_63:\n      pop\n      tag_64\n      tag_65\n      jump\t// in\n    tag_64:\n      mload(0x40)\n      tag_66\n      swap2\n      swap1\n      tag_67\n      jump\t// in\n    tag_66:\n      mload(0x40)\n      dup1\n      swap2\n      sub\n      swap1\n      return\n        /* \"backend/contracts/Campaign.sol\":5523:6956  function finalizeCampaign() external isActiveCampaign deadlineExceeded onlyAdmin{... */\n    tag_12:\n      callvalue\n      dup1\n      iszero\n      tag_68\n      jumpi\n      0x00\n      dup1\n      revert\n    tag_68:\n      pop\n      tag_69\n      tag_70\n      jump\t// in\n    tag_69:\n      stop\n        /* \"backend/contracts/Campaign.sol\":678:721  mapping(address => uint32) public donations */\n    tag_13:\n      callvalue\n      dup1\n      iszero\n      tag_71\n      jumpi\n      0x00\n      dup1\n      revert\n    tag_71:\n      pop\n      tag_72\n      0x04\n      dup1\n      calldatasize\n      sub\n      dup2\n      add\n      swap1\n      tag_73\n      swap2\n      swap1\n      tag_74\n      jump\t// in\n    tag_73:\n      tag_75\n      jump\t// in\n    tag_72:\n      mload(0x40)\n      tag_76\n      swap2\n      swap1\n      tag_58\n      jump\t// in\n    tag_76:\n      mload(0x40)\n      dup1\n      swap2\n      sub\n      swap1\n      return\n        /* \"backend/contracts/Campaign.sol\":3623:4400  function donate() external payable isActiveCampaign {... */\n    tag_14:\n      tag_77\n      tag_78\n      jump\t// in\n    tag_77:\n      stop\n        /* \"backend/contracts/Campaign.sol\":802:822  address public admin */\n    tag_15:\n      callvalue\n      dup1\n      iszero\n      tag_79\n      jumpi\n      0x00\n      dup1\n      revert\n    tag_79:\n      pop\n      tag_80\n      tag_81\n      jump\t// in\n    tag_80:\n      mload(0x40)\n      tag_82\n      swap2\n      swap1\n      tag_43\n      jump\t// in\n    tag_82:\n      mload(0x40)\n      dup1\n      swap2\n      sub\n      swap1\n      return\n        /* \"backend/contracts/Campaign.sol\":315:333  string public name */\n    tag_21:\n      0x00\n      dup1\n      sload\n      tag_83\n      swap1\n      tag_84\n      jump\t// in\n    tag_83:\n      dup1\n      0x1f\n      add\n      0x20\n      dup1\n      swap2\n      div\n      mul\n      0x20\n      add\n      mload(0x40)\n      swap1\n      dup2\n      add\n      0x40\n      mstore\n      dup1\n      swap3\n      swap2\n      swap1\n      dup2\n      dup2\n      mstore\n      0x20\n      add\n      dup3\n      dup1\n      sload\n      tag_85\n      swap1\n      tag_84\n      jump\t// in\n    tag_85:\n      dup1\n      iszero\n      tag_86\n      jumpi\n      dup1\n      0x1f\n      lt\n      tag_87\n      jumpi\n      0x0100\n      dup1\n      dup4\n      sload\n      div\n      mul\n      dup4\n      mstore\n      swap2\n      0x20\n      add\n      swap2\n      jump(tag_86)\n    tag_87:\n      dup3\n      add\n      swap2\n      swap1\n      0x00\n      mstore\n      keccak256(0x00, 0x20)\n      swap1\n    tag_88:\n      dup2\n      sload\n      dup2\n      mstore\n      swap1\n      0x01\n      add\n      swap1\n      0x20\n      add\n      dup1\n      dup4\n      gt\n      tag_88\n      jumpi\n      dup3\n      swap1\n      sub\n      0x1f\n      and\n      dup3\n      add\n      swap2\n    tag_86:\n      pop\n      pop\n      pop\n      pop\n      pop\n      dup2\n      jump\t// out\n        /* \"backend/contracts/Campaign.sol\":7329:7980  function getCampaignDetails()... */\n    tag_26:\n        /* \"backend/contracts/Campaign.sol\":7419:7446  address campaignBeneficiary */\n      0x00\n        /* \"backend/contracts/Campaign.sol\":7460:7486  string memory campaignName */\n      0x60\n        /* \"backend/contracts/Campaign.sol\":7500:7533  string memory campaignDescription */\n      dup1\n        /* \"backend/contracts/Campaign.sol\":7547:7571  uint256 campaignDeadline */\n      0x00\n        /* \"backend/contracts/Campaign.sol\":7585:7611  uint32 campaignFundingGoal */\n      dup1\n        /* \"backend/contracts/Campaign.sol\":7625:7650  uint32 campaignTotalFunds */\n      0x00\n        /* \"backend/contracts/Campaign.sol\":7664:7685  bool campaignIsActive */\n      dup1\n        /* \"backend/contracts/Campaign.sol\":7732:7743  beneficiary */\n      immutable(\"0x13600b294191fc92924bb3ce4b969c1e7e2bab8f4c93c3fc6d0a51733df3c060\")\n        /* \"backend/contracts/Campaign.sol\":7710:7743  campaignBeneficiary = beneficiary */\n      swap7\n      pop\n        /* \"backend/contracts/Campaign.sol\":7768:7772  name */\n      0x00\n        /* \"backend/contracts/Campaign.sol\":7753:7772  campaignName = name */\n      dup1\n      sload\n      tag_90\n      swap1\n      tag_84\n      jump\t// in\n    tag_90:\n      dup1\n      0x1f\n      add\n      0x20\n      dup1\n      swap2\n      div\n      mul\n      0x20\n      add\n      mload(0x40)\n      swap1\n      dup2\n      add\n      0x40\n      mstore\n      dup1\n      swap3\n      swap2\n      swap1\n      dup2\n      dup2\n      mstore\n      0x20\n      add\n      dup3\n      dup1\n      sload\n      tag_91\n      swap1\n      tag_84\n      jump\t// in\n    tag_91:\n      dup1\n      iszero\n      tag_92\n      jumpi\n      dup1\n      0x1f\n      lt\n      tag_93\n      jumpi\n      0x0100\n      dup1\n      dup4\n      sload\n      div\n      mul\n      dup4\n      mstore\n      swap2\n      0x20\n      add\n      swap2\n      jump(tag_92)\n    tag_93:\n      dup3\n      add\n      swap2\n      swap1\n      0x00\n      mstore\n      keccak256(0x00, 0x20)\n      swap1\n    tag_94:\n      dup2\n      sload\n      dup2\n      mstore\n      swap1\n      0x01\n      add\n      swap1\n      0x20\n      add\n      dup1\n      dup4\n      gt\n      tag_94\n      jumpi\n      dup3\n      swap1\n      sub\n      0x1f\n      and\n      dup3\n      add\n      swap2\n    tag_92:\n      pop\n      pop\n      pop\n      pop\n      pop\n      swap6\n      pop\n        /* \"backend/contracts/Campaign.sol\":7804:7815  description */\n      0x01\n        /* \"backend/contracts/Campaign.sol\":7782:7815  campaignDescription = description */\n      dup1\n      sload\n      tag_95\n      swap1\n      tag_84\n      jump\t// in\n    tag_95:\n      dup1\n      0x1f\n      add\n      0x20\n      dup1\n      swap2\n      div\n      mul\n      0x20\n      add\n      mload(0x40)\n      swap1\n      dup2\n      add\n      0x40\n      mstore\n      dup1\n      swap3\n      swap2\n      swap1\n      dup2\n      dup2\n      mstore\n      0x20\n      add\n      dup3\n      dup1\n      sload\n      tag_96\n      swap1\n      tag_84\n      jump\t// in\n    tag_96:\n      dup1\n      iszero\n      tag_97\n      jumpi\n      dup1\n      0x1f\n      lt\n      tag_98\n      jumpi\n      0x0100\n      dup1\n      dup4\n      sload\n      div\n      mul\n      dup4\n      mstore\n      swap2\n      0x20\n      add\n      swap2\n      jump(tag_97)\n    tag_98:\n      dup3\n      add\n      swap2\n      swap1\n      0x00\n      mstore\n      keccak256(0x00, 0x20)\n      swap1\n    tag_99:\n      dup2\n      sload\n      dup2\n      mstore\n      swap1\n      0x01\n      add\n      swap1\n      0x20\n      add\n      dup1\n      dup4\n      gt\n      tag_99\n      jumpi\n      dup3\n      swap1\n      sub\n      0x1f\n      and\n      dup3\n      add\n      swap2\n    tag_97:\n      pop\n      pop\n      pop\n      pop\n      pop\n      swap5\n      pop\n        /* \"backend/contracts/Campaign.sol\":7844:7852  deadline */\n      immutable(\"0x1a192fabce13988b84994d4296e6cdc418d55e2f1d7f942188d4040b94fc57ac\")\n        /* \"backend/contracts/Campaign.sol\":7825:7852  campaignDeadline = deadline */\n      swap4\n      pop\n        /* \"backend/contracts/Campaign.sol\":7884:7895  fundingGoal */\n      immutable(\"0x7f8b6b088b6d74c2852fc86c796dca07b44eed6fb3daf5e6b59f7c364db14528\")\n        /* \"backend/contracts/Campaign.sol\":7862:7895  campaignFundingGoal = fundingGoal */\n      swap3\n      pop\n        /* \"backend/contracts/Campaign.sol\":7926:7936  totalFunds */\n      0x02\n      0x00\n      swap1\n      sload\n      swap1\n      0x0100\n      exp\n      swap1\n      div\n      0xffffffff\n      and\n        /* \"backend/contracts/Campaign.sol\":7905:7936  campaignTotalFunds = totalFunds */\n      swap2\n      pop\n        /* \"backend/contracts/Campaign.sol\":7965:7973  isActive */\n      0x02\n      0x04\n      swap1\n      sload\n      swap1\n      0x0100\n      exp\n      swap1\n      div\n      0xff\n      and\n        /* \"backend/contracts/Campaign.sol\":7946:7973  campaignIsActive = isActive */\n      swap1\n      pop\n        /* \"backend/contracts/Campaign.sol\":7329:7980  function getCampaignDetails()... */\n      swap1\n      swap2\n      swap3\n      swap4\n      swap5\n      swap6\n      swap7\n      jump\t// out\n        /* \"backend/contracts/Campaign.sol\":501:521  bool public isActive */\n    tag_31:\n      0x02\n      0x04\n      swap1\n      sload\n      swap1\n      0x0100\n      exp\n      swap1\n      div\n      0xff\n      and\n      dup2\n      jump\t// out\n        /* \"backend/contracts/Campaign.sol\":370:403  uint256 public immutable deadline */\n    tag_36:\n      immutable(\"0x1a192fabce13988b84994d4296e6cdc418d55e2f1d7f942188d4040b94fc57ac\")\n      dup2\n      jump\t// out\n        /* \"backend/contracts/Campaign.sol\":273:309  address public immutable beneficiary */\n    tag_41:\n      immutable(\"0x13600b294191fc92924bb3ce4b969c1e7e2bab8f4c93c3fc6d0a51733df3c060\")\n      dup2\n      jump\t// out\n        /* \"backend/contracts/Campaign.sol\":727:750  address[] public donors */\n    tag_48:\n      0x04\n      dup2\n      dup2\n      sload\n      dup2\n      lt\n      tag_100\n      jumpi\n      0x00\n      dup1\n      revert\n    tag_100:\n      swap1\n      0x00\n      mstore\n      keccak256(0x00, 0x20)\n      add\n      0x00\n      swap2\n      pop\n      sload\n      swap1\n      0x0100\n      exp\n      swap1\n      div\n      0xffffffffffffffffffffffffffffffffffffffff\n      and\n      dup2\n      jump\t// out\n        /* \"backend/contracts/Campaign.sol\":339:364  string public description */\n    tag_52:\n      0x01\n      dup1\n      sload\n      tag_102\n      swap1\n      tag_84\n      jump\t// in\n    tag_102:\n      dup1\n      0x1f\n      add\n      0x20\n      dup1\n      swap2\n      div\n      mul\n      0x20\n      add\n      mload(0x40)\n      swap1\n      dup2\n      add\n      0x40\n      mstore\n      dup1\n      swap3\n      swap2\n      swap1\n      dup2\n      dup2\n      mstore\n      0x20\n      add\n      dup3\n      dup1\n      sload\n      tag_103\n      swap1\n      tag_84\n      jump\t// in\n    tag_103:\n      dup1\n      iszero\n      tag_104\n      jumpi\n      dup1\n      0x1f\n      lt\n      tag_105\n      jumpi\n      0x0100\n      dup1\n      dup4\n      sload\n      div\n      mul\n      dup4\n      mstore\n      swap2\n      0x20\n      add\n      swap2\n      jump(tag_104)\n    tag_105:\n      dup3\n      add\n      swap2\n      swap1\n      0x00\n      mstore\n      keccak256(0x00, 0x20)\n      swap1\n    tag_106:\n      dup2\n      sload\n      dup2\n      mstore\n      swap1\n      0x01\n      add\n      swap1\n      0x20\n      add\n      dup1\n      dup4\n      gt\n      tag_106\n      jumpi\n      dup3\n      swap1\n      sub\n      0x1f\n      and\n      dup3\n      add\n      swap2\n    tag_104:\n      pop\n      pop\n      pop\n      pop\n      pop\n      dup2\n      jump\t// out\n        /* \"backend/contracts/Campaign.sol\":409:444  uint32 public immutable fundingGoal */\n    tag_56:\n      immutable(\"0x7f8b6b088b6d74c2852fc86c796dca07b44eed6fb3daf5e6b59f7c364db14528\")\n      dup2\n      jump\t// out\n        /* \"backend/contracts/Campaign.sol\":450:474  uint32 public totalFunds */\n    tag_61:\n      0x02\n      0x00\n      swap1\n      sload\n      swap1\n      0x0100\n      exp\n      swap1\n      div\n      0xffffffff\n      and\n      dup2\n      jump\t// out\n        /* \"backend/contracts/Campaign.sol\":7149:7241  function getDonors() external view returns (address[] memory) {... */\n    tag_65:\n        /* \"backend/contracts/Campaign.sol\":7193:7209  address[] memory */\n      0x60\n        /* \"backend/contracts/Campaign.sol\":7228:7234  donors */\n      0x04\n        /* \"backend/contracts/Campaign.sol\":7221:7234  return donors */\n      dup1\n      sload\n      dup1\n      0x20\n      mul\n      0x20\n      add\n      mload(0x40)\n      swap1\n      dup2\n      add\n      0x40\n      mstore\n      dup1\n      swap3\n      swap2\n      swap1\n      dup2\n      dup2\n      mstore\n      0x20\n      add\n      dup3\n      dup1\n      sload\n      dup1\n      iszero\n      tag_108\n      jumpi\n      0x20\n      mul\n      dup3\n      add\n      swap2\n      swap1\n      0x00\n      mstore\n      keccak256(0x00, 0x20)\n      swap1\n    tag_109:\n      dup2\n      0x00\n      swap1\n      sload\n      swap1\n      0x0100\n      exp\n      swap1\n      div\n      0xffffffffffffffffffffffffffffffffffffffff\n      and\n      0xffffffffffffffffffffffffffffffffffffffff\n      and\n      dup2\n      mstore\n      0x20\n      add\n      swap1\n      0x01\n      add\n      swap1\n      dup1\n      dup4\n      gt\n      tag_109\n      jumpi\n    tag_108:\n      pop\n      pop\n      pop\n      pop\n      pop\n      swap1\n      pop\n        /* \"backend/contracts/Campaign.sol\":7149:7241  function getDonors() external view returns (address[] memory) {... */\n      swap1\n      jump\t// out\n        /* \"backend/contracts/Campaign.sol\":5523:6956  function finalizeCampaign() external isActiveCampaign deadlineExceeded onlyAdmin{... */\n    tag_70:\n        /* \"backend/contracts/Campaign.sol\":3300:3308  isActive */\n      0x02\n      0x04\n      swap1\n      sload\n      swap1\n      0x0100\n      exp\n      swap1\n      div\n      0xff\n      and\n        /* \"backend/contracts/Campaign.sol\":3292:3340  require(isActive, \"The Campaign is not active!\") */\n      tag_111\n      jumpi\n      mload(0x40)\n      0x08c379a000000000000000000000000000000000000000000000000000000000\n      dup2\n      mstore\n      0x04\n      add\n      tag_112\n      swap1\n      tag_113\n      jump\t// in\n    tag_112:\n      mload(0x40)\n      dup1\n      swap2\n      sub\n      swap1\n      revert\n    tag_111:\n        /* \"backend/contracts/Campaign.sol\":3441:3449  deadline */\n      immutable(\"0x1a192fabce13988b84994d4296e6cdc418d55e2f1d7f942188d4040b94fc57ac\")\n        /* \"backend/contracts/Campaign.sol\":3423:3438  block.timestamp */\n      timestamp\n        /* \"backend/contracts/Campaign.sol\":3423:3449  block.timestamp > deadline */\n      gt\n        /* \"backend/contracts/Campaign.sol\":3402:3514  require(... */\n      tag_115\n      jumpi\n      mload(0x40)\n      0x08c379a000000000000000000000000000000000000000000000000000000000\n      dup2\n      mstore\n      0x04\n      add\n      tag_116\n      swap1\n      tag_117\n      jump\t// in\n    tag_116:\n      mload(0x40)\n      dup1\n      swap2\n      sub\n      swap1\n      revert\n    tag_115:\n        /* \"backend/contracts/Campaign.sol\":3194:3199  admin */\n      0x05\n      0x00\n      swap1\n      sload\n      swap1\n      0x0100\n      exp\n      swap1\n      div\n      0xffffffffffffffffffffffffffffffffffffffff\n      and\n        /* \"backend/contracts/Campaign.sol\":3180:3199  msg.sender == admin */\n      0xffffffffffffffffffffffffffffffffffffffff\n      and\n        /* \"backend/contracts/Campaign.sol\":3180:3190  msg.sender */\n      caller\n        /* \"backend/contracts/Campaign.sol\":3180:3199  msg.sender == admin */\n      0xffffffffffffffffffffffffffffffffffffffff\n      and\n      eq\n        /* \"backend/contracts/Campaign.sol\":3172:3231  require(msg.sender == admin, \"Access restricted to admin!\") */\n      tag_119\n      jumpi\n      mload(0x40)\n      0x08c379a000000000000000000000000000000000000000000000000000000000\n      dup2\n      mstore\n      0x04\n      add\n      tag_120\n      swap1\n      tag_121\n      jump\t// in\n    tag_120:\n      mload(0x40)\n      dup1\n      swap2\n      sub\n      swap1\n      revert\n    tag_119:\n        /* \"backend/contracts/Campaign.sol\":5631:5642  fundingGoal */\n      immutable(\"0x7f8b6b088b6d74c2852fc86c796dca07b44eed6fb3daf5e6b59f7c364db14528\")\n        /* \"backend/contracts/Campaign.sol\":5617:5642  totalFunds >= fundingGoal */\n      0xffffffff\n      and\n        /* \"backend/contracts/Campaign.sol\":5617:5627  totalFunds */\n      0x02\n      0x00\n      swap1\n      sload\n      swap1\n      0x0100\n      exp\n      swap1\n      div\n      0xffffffff\n      and\n        /* \"backend/contracts/Campaign.sol\":5617:5642  totalFunds >= fundingGoal */\n      0xffffffff\n      and\n      lt\n        /* \"backend/contracts/Campaign.sol\":5613:6950  if (totalFunds >= fundingGoal) {... */\n      tag_123\n      jumpi\n        /* \"backend/contracts/Campaign.sol\":5692:5706  releaseFunds() */\n      tag_124\n        /* \"backend/contracts/Campaign.sol\":5692:5704  releaseFunds */\n      tag_125\n        /* \"backend/contracts/Campaign.sol\":5692:5706  releaseFunds() */\n      jump\t// in\n    tag_124:\n        /* \"backend/contracts/Campaign.sol\":5613:6950  if (totalFunds >= fundingGoal) {... */\n      jump(tag_126)\n    tag_123:\n        /* \"backend/contracts/Campaign.sol\":5748:5753  false */\n      0x00\n        /* \"backend/contracts/Campaign.sol\":5737:5745  isActive */\n      0x02\n      0x04\n        /* \"backend/contracts/Campaign.sol\":5737:5753  isActive = false */\n      0x0100\n      exp\n      dup2\n      sload\n      dup2\n      0xff\n      mul\n      not\n      and\n      swap1\n      dup4\n      iszero\n      iszero\n      mul\n      or\n      swap1\n      sstore\n      pop\n        /* \"backend/contracts/Campaign.sol\":5957:5976  uint256 totalDonors */\n      0x00\n        /* \"backend/contracts/Campaign.sol\":5979:5985  donors */\n      0x04\n        /* \"backend/contracts/Campaign.sol\":5979:5992  donors.length */\n      dup1\n      sload\n      swap1\n      pop\n        /* \"backend/contracts/Campaign.sol\":5957:5992  uint256 totalDonors = donors.length */\n      swap1\n      pop\n        /* \"backend/contracts/Campaign.sol\":6091:6100  uint256 i */\n      0x00\n        /* \"backend/contracts/Campaign.sol\":6086:6665  for (uint256 i = 0; i < totalDonors; i++) {... */\n    tag_127:\n        /* \"backend/contracts/Campaign.sol\":6110:6121  totalDonors */\n      dup2\n        /* \"backend/contracts/Campaign.sol\":6106:6107  i */\n      dup2\n        /* \"backend/contracts/Campaign.sol\":6106:6121  i < totalDonors */\n      lt\n        /* \"backend/contracts/Campaign.sol\":6086:6665  for (uint256 i = 0; i < totalDonors; i++) {... */\n      iszero\n      tag_128\n      jumpi\n        /* \"backend/contracts/Campaign.sol\":6146:6159  address donor */\n      0x00\n        /* \"backend/contracts/Campaign.sol\":6162:6168  donors */\n      0x04\n        /* \"backend/contracts/Campaign.sol\":6169:6170  i */\n      dup3\n        /* \"backend/contracts/Campaign.sol\":6162:6171  donors[i] */\n      dup2\n      sload\n      dup2\n      lt\n      tag_130\n      jumpi\n      tag_131\n      tag_132\n      jump\t// in\n    tag_131:\n    tag_130:\n      swap1\n      0x00\n      mstore\n      keccak256(0x00, 0x20)\n      add\n      0x00\n      swap1\n      sload\n      swap1\n      0x0100\n      exp\n      swap1\n      div\n      0xffffffffffffffffffffffffffffffffffffffff\n      and\n        /* \"backend/contracts/Campaign.sol\":6146:6171  address donor = donors[i] */\n      swap1\n      pop\n        /* \"backend/contracts/Campaign.sol\":6189:6210  uint32 donationAmount */\n      0x00\n        /* \"backend/contracts/Campaign.sol\":6213:6222  donations */\n      0x03\n        /* \"backend/contracts/Campaign.sol\":6213:6229  donations[donor] */\n      0x00\n        /* \"backend/contracts/Campaign.sol\":6223:6228  donor */\n      dup4\n        /* \"backend/contracts/Campaign.sol\":6213:6229  donations[donor] */\n      0xffffffffffffffffffffffffffffffffffffffff\n      and\n      0xffffffffffffffffffffffffffffffffffffffff\n      and\n      dup2\n      mstore\n      0x20\n      add\n      swap1\n      dup2\n      mstore\n      0x20\n      add\n      0x00\n      keccak256\n      0x00\n      swap1\n      sload\n      swap1\n      0x0100\n      exp\n      swap1\n      div\n      0xffffffff\n      and\n        /* \"backend/contracts/Campaign.sol\":6189:6229  uint32 donationAmount = donations[donor] */\n      swap1\n      pop\n        /* \"backend/contracts/Campaign.sol\":6448:6449  0 */\n      0x00\n        /* \"backend/contracts/Campaign.sol\":6431:6445  donationAmount */\n      dup2\n        /* \"backend/contracts/Campaign.sol\":6431:6449  donationAmount > 0 */\n      0xffffffff\n      and\n      gt\n        /* \"backend/contracts/Campaign.sol\":6427:6651  if (donationAmount > 0) {... */\n      iszero\n      tag_134\n      jumpi\n        /* \"backend/contracts/Campaign.sol\":6492:6493  0 */\n      0x00\n        /* \"backend/contracts/Campaign.sol\":6473:6482  donations */\n      0x03\n        /* \"backend/contracts/Campaign.sol\":6473:6489  donations[donor] */\n      0x00\n        /* \"backend/contracts/Campaign.sol\":6483:6488  donor */\n      dup5\n        /* \"backend/contracts/Campaign.sol\":6473:6489  donations[donor] */\n      0xffffffffffffffffffffffffffffffffffffffff\n      and\n      0xffffffffffffffffffffffffffffffffffffffff\n      and\n      dup2\n      mstore\n      0x20\n      add\n      swap1\n      dup2\n      mstore\n      0x20\n      add\n      0x00\n      keccak256\n      0x00\n        /* \"backend/contracts/Campaign.sol\":6473:6493  donations[donor] = 0 */\n      0x0100\n      exp\n      dup2\n      sload\n      dup2\n      0xffffffff\n      mul\n      not\n      and\n      swap1\n      dup4\n      0xffffffff\n      and\n      mul\n      or\n      swap1\n      sstore\n      pop\n        /* \"backend/contracts/Campaign.sol\":6523:6528  donor */\n      dup2\n        /* \"backend/contracts/Campaign.sol\":6515:6538  payable(donor).transfer */\n      0xffffffffffffffffffffffffffffffffffffffff\n      and\n        /* \"backend/contracts/Campaign.sol\":6515:6554  payable(donor).transfer(donationAmount) */\n      0x08fc\n        /* \"backend/contracts/Campaign.sol\":6539:6553  donationAmount */\n      dup3\n        /* \"backend/contracts/Campaign.sol\":6515:6554  payable(donor).transfer(donationAmount) */\n      0xffffffff\n      and\n      swap1\n      dup2\n      iszero\n      mul\n      swap1\n      mload(0x40)\n      0x00\n      mload(0x40)\n      dup1\n      dup4\n      sub\n      dup2\n      dup6\n      dup9\n      dup9\n      call\n      swap4\n      pop\n      pop\n      pop\n      pop\n      iszero\n      dup1\n      iszero\n      tag_136\n      jumpi\n      returndatasize\n      0x00\n      dup1\n      returndatacopy\n      revert(0x00, returndatasize)\n    tag_136:\n      pop\n        /* \"backend/contracts/Campaign.sol\":6610:6615  donor */\n      dup2\n        /* \"backend/contracts/Campaign.sol\":6582:6632  RefundIssued(address(this), donor, donationAmount) */\n      0xffffffffffffffffffffffffffffffffffffffff\n      and\n        /* \"backend/contracts/Campaign.sol\":6603:6607  this */\n      address\n        /* \"backend/contracts/Campaign.sol\":6582:6632  RefundIssued(address(this), donor, donationAmount) */\n      0xffffffffffffffffffffffffffffffffffffffff\n      and\n      0xcbaf39f3d8f9a55dbfd111d1803615438ca90cd340bf43a9b32af9967cb268b0\n        /* \"backend/contracts/Campaign.sol\":6617:6631  donationAmount */\n      dup4\n        /* \"backend/contracts/Campaign.sol\":6582:6632  RefundIssued(address(this), donor, donationAmount) */\n      mload(0x40)\n      tag_137\n      swap2\n      swap1\n      tag_58\n      jump\t// in\n    tag_137:\n      mload(0x40)\n      dup1\n      swap2\n      sub\n      swap1\n      log3\n        /* \"backend/contracts/Campaign.sol\":6427:6651  if (donationAmount > 0) {... */\n    tag_134:\n        /* \"backend/contracts/Campaign.sol\":6128:6665  {... */\n      pop\n      pop\n        /* \"backend/contracts/Campaign.sol\":6123:6126  i++ */\n      dup1\n      dup1\n      0x01\n      add\n      swap2\n      pop\n      pop\n        /* \"backend/contracts/Campaign.sol\":6086:6665  for (uint256 i = 0; i < totalDonors; i++) {... */\n      jump(tag_127)\n    tag_128:\n      pop\n        /* \"backend/contracts/Campaign.sol\":6686:6692  donors */\n      0x04\n      0x00\n        /* \"backend/contracts/Campaign.sol\":6679:6692  delete donors */\n      tag_138\n      swap2\n      swap1\n      tag_139\n      jump\t// in\n    tag_138:\n        /* \"backend/contracts/Campaign.sol\":6863:6874  beneficiary */\n      immutable(\"0x13600b294191fc92924bb3ce4b969c1e7e2bab8f4c93c3fc6d0a51733df3c060\")\n        /* \"backend/contracts/Campaign.sol\":6797:6939  CampaignFinalized(... */\n      0xffffffffffffffffffffffffffffffffffffffff\n      and\n        /* \"backend/contracts/Campaign.sol\":6840:6844  this */\n      address\n        /* \"backend/contracts/Campaign.sol\":6797:6939  CampaignFinalized(... */\n      0xffffffffffffffffffffffffffffffffffffffff\n      and\n      0xf8b5bc9a22de51519f1a92f78276ca83d891d1edf8dd4263ccb6032594644b65\n        /* \"backend/contracts/Campaign.sol\":6892:6897  false */\n      0x00\n        /* \"backend/contracts/Campaign.sol\":6915:6925  totalFunds */\n      0x02\n      0x00\n      swap1\n      sload\n      swap1\n      0x0100\n      exp\n      swap1\n      div\n      0xffffffff\n      and\n        /* \"backend/contracts/Campaign.sol\":6797:6939  CampaignFinalized(... */\n      mload(0x40)\n      tag_140\n      swap3\n      swap2\n      swap1\n      tag_141\n      jump\t// in\n    tag_140:\n      mload(0x40)\n      dup1\n      swap2\n      sub\n      swap1\n      log3\n        /* \"backend/contracts/Campaign.sol\":5723:6950  {... */\n      pop\n        /* \"backend/contracts/Campaign.sol\":5613:6950  if (totalFunds >= fundingGoal) {... */\n    tag_126:\n        /* \"backend/contracts/Campaign.sol\":5523:6956  function finalizeCampaign() external isActiveCampaign deadlineExceeded onlyAdmin{... */\n      jump\t// out\n        /* \"backend/contracts/Campaign.sol\":678:721  mapping(address => uint32) public donations */\n    tag_75:\n      mstore(0x20, 0x03)\n      dup1\n      0x00\n      mstore\n      keccak256(0x00, 0x40)\n      0x00\n      swap2\n      pop\n      sload\n      swap1\n      0x0100\n      exp\n      swap1\n      div\n      0xffffffff\n      and\n      dup2\n      jump\t// out\n        /* \"backend/contracts/Campaign.sol\":3623:4400  function donate() external payable isActiveCampaign {... */\n    tag_78:\n        /* \"backend/contracts/Campaign.sol\":3300:3308  isActive */\n      0x02\n      0x04\n      swap1\n      sload\n      swap1\n      0x0100\n      exp\n      swap1\n      div\n      0xff\n      and\n        /* \"backend/contracts/Campaign.sol\":3292:3340  require(isActive, \"The Campaign is not active!\") */\n      tag_143\n      jumpi\n      mload(0x40)\n      0x08c379a000000000000000000000000000000000000000000000000000000000\n      dup2\n      mstore\n      0x04\n      add\n      tag_144\n      swap1\n      tag_113\n      jump\t// in\n    tag_144:\n      mload(0x40)\n      dup1\n      swap2\n      sub\n      swap1\n      revert\n    tag_143:\n        /* \"backend/contracts/Campaign.sol\":3685:3698  address donor */\n      0x00\n        /* \"backend/contracts/Campaign.sol\":3701:3711  msg.sender */\n      caller\n        /* \"backend/contracts/Campaign.sol\":3685:3711  address donor = msg.sender */\n      swap1\n      pop\n        /* \"backend/contracts/Campaign.sol\":3721:3734  uint32 amount */\n      0x00\n        /* \"backend/contracts/Campaign.sol\":3744:3753  msg.value */\n      callvalue\n        /* \"backend/contracts/Campaign.sol\":3721:3754  uint32 amount = uint32(msg.value) */\n      swap1\n      pop\n        /* \"backend/contracts/Campaign.sol\":3851:3852  0 */\n      0x00\n        /* \"backend/contracts/Campaign.sol\":3831:3840  donations */\n      0x03\n        /* \"backend/contracts/Campaign.sol\":3831:3847  donations[donor] */\n      0x00\n        /* \"backend/contracts/Campaign.sol\":3841:3846  donor */\n      dup5\n        /* \"backend/contracts/Campaign.sol\":3831:3847  donations[donor] */\n      0xffffffffffffffffffffffffffffffffffffffff\n      and\n      0xffffffffffffffffffffffffffffffffffffffff\n      and\n      dup2\n      mstore\n      0x20\n      add\n      swap1\n      dup2\n      mstore\n      0x20\n      add\n      0x00\n      keccak256\n      0x00\n      swap1\n      sload\n      swap1\n      0x0100\n      exp\n      swap1\n      div\n      0xffffffff\n      and\n        /* \"backend/contracts/Campaign.sol\":3831:3852  donations[donor] == 0 */\n      0xffffffff\n      and\n      sub\n        /* \"backend/contracts/Campaign.sol\":3827:3897  if (donations[donor] == 0) {... */\n      tag_146\n      jumpi\n        /* \"backend/contracts/Campaign.sol\":3868:3874  donors */\n      0x04\n        /* \"backend/contracts/Campaign.sol\":3880:3885  donor */\n      dup3\n        /* \"backend/contracts/Campaign.sol\":3868:3886  donors.push(donor) */\n      swap1\n      dup1\n      0x01\n      dup2\n      sload\n      add\n      dup1\n      dup3\n      sstore\n      dup1\n      swap2\n      pop\n      pop\n      0x01\n      swap1\n      sub\n      swap1\n      0x00\n      mstore\n      keccak256(0x00, 0x20)\n      add\n      0x00\n      swap1\n      swap2\n      swap1\n      swap2\n      swap1\n      swap2\n      0x0100\n      exp\n      dup2\n      sload\n      dup2\n      0xffffffffffffffffffffffffffffffffffffffff\n      mul\n      not\n      and\n      swap1\n      dup4\n      0xffffffffffffffffffffffffffffffffffffffff\n      and\n      mul\n      or\n      swap1\n      sstore\n      pop\n        /* \"backend/contracts/Campaign.sol\":3827:3897  if (donations[donor] == 0) {... */\n    tag_146:\n        /* \"backend/contracts/Campaign.sol\":3927:3933  amount */\n      dup1\n        /* \"backend/contracts/Campaign.sol\":3907:3916  donations */\n      0x03\n        /* \"backend/contracts/Campaign.sol\":3907:3923  donations[donor] */\n      0x00\n        /* \"backend/contracts/Campaign.sol\":3917:3922  donor */\n      dup5\n        /* \"backend/contracts/Campaign.sol\":3907:3923  donations[donor] */\n      0xffffffffffffffffffffffffffffffffffffffff\n      and\n      0xffffffffffffffffffffffffffffffffffffffff\n      and\n      dup2\n      mstore\n      0x20\n      add\n      swap1\n      dup2\n      mstore\n      0x20\n      add\n      0x00\n      keccak256\n      0x00\n        /* \"backend/contracts/Campaign.sol\":3907:3933  donations[donor] += amount */\n      dup3\n      dup3\n      dup3\n      swap1\n      sload\n      swap1\n      0x0100\n      exp\n      swap1\n      div\n      0xffffffff\n      and\n      tag_148\n      swap2\n      swap1\n      tag_149\n      jump\t// in\n    tag_148:\n      swap3\n      pop\n      0x0100\n      exp\n      dup2\n      sload\n      dup2\n      0xffffffff\n      mul\n      not\n      and\n      swap1\n      dup4\n      0xffffffff\n      and\n      mul\n      or\n      swap1\n      sstore\n      pop\n        /* \"backend/contracts/Campaign.sol\":4072:4092  uint32 newTotalFunds */\n      0x00\n        /* \"backend/contracts/Campaign.sol\":4108:4114  amount */\n      dup2\n        /* \"backend/contracts/Campaign.sol\":4095:4105  totalFunds */\n      0x02\n      0x00\n      swap1\n      sload\n      swap1\n      0x0100\n      exp\n      swap1\n      div\n      0xffffffff\n      and\n        /* \"backend/contracts/Campaign.sol\":4095:4114  totalFunds + amount */\n      tag_150\n      swap2\n      swap1\n      tag_149\n      jump\t// in\n    tag_150:\n        /* \"backend/contracts/Campaign.sol\":4072:4114  uint32 newTotalFunds = totalFunds + amount */\n      swap1\n      pop\n        /* \"backend/contracts/Campaign.sol\":4137:4150  newTotalFunds */\n      dup1\n        /* \"backend/contracts/Campaign.sol\":4124:4134  totalFunds */\n      0x02\n      0x00\n        /* \"backend/contracts/Campaign.sol\":4124:4150  totalFunds = newTotalFunds */\n      0x0100\n      exp\n      dup2\n      sload\n      dup2\n      0xffffffff\n      mul\n      not\n      and\n      swap1\n      dup4\n      0xffffffff\n      and\n      mul\n      or\n      swap1\n      sstore\n      pop\n        /* \"backend/contracts/Campaign.sol\":4194:4205  beneficiary */\n      immutable(\"0x13600b294191fc92924bb3ce4b969c1e7e2bab8f4c93c3fc6d0a51733df3c060\")\n        /* \"backend/contracts/Campaign.sol\":4166:4214  DonationMade(address(this), beneficiary, amount) */\n      0xffffffffffffffffffffffffffffffffffffffff\n      and\n        /* \"backend/contracts/Campaign.sol\":4187:4191  this */\n      address\n        /* \"backend/contracts/Campaign.sol\":4166:4214  DonationMade(address(this), beneficiary, amount) */\n      0xffffffffffffffffffffffffffffffffffffffff\n      and\n      0x4bcad339364614747037d489debcab743e155b2486ad23759d702d48c30a7dc6\n        /* \"backend/contracts/Campaign.sol\":4207:4213  amount */\n      dup5\n        /* \"backend/contracts/Campaign.sol\":4166:4214  DonationMade(address(this), beneficiary, amount) */\n      mload(0x40)\n      tag_151\n      swap2\n      swap1\n      tag_58\n      jump\t// in\n    tag_151:\n      mload(0x40)\n      dup1\n      swap2\n      sub\n      swap1\n      log3\n        /* \"backend/contracts/Campaign.sol\":4342:4353  fundingGoal */\n      immutable(\"0x7f8b6b088b6d74c2852fc86c796dca07b44eed6fb3daf5e6b59f7c364db14528\")\n        /* \"backend/contracts/Campaign.sol\":4325:4353  newTotalFunds >= fundingGoal */\n      0xffffffff\n      and\n        /* \"backend/contracts/Campaign.sol\":4325:4338  newTotalFunds */\n      dup2\n        /* \"backend/contracts/Campaign.sol\":4325:4353  newTotalFunds >= fundingGoal */\n      0xffffffff\n      and\n      lt\n        /* \"backend/contracts/Campaign.sol\":4321:4394  if (newTotalFunds >= fundingGoal) {... */\n      tag_152\n      jumpi\n        /* \"backend/contracts/Campaign.sol\":4369:4383  releaseFunds() */\n      tag_153\n        /* \"backend/contracts/Campaign.sol\":4369:4381  releaseFunds */\n      tag_125\n        /* \"backend/contracts/Campaign.sol\":4369:4383  releaseFunds() */\n      jump\t// in\n    tag_153:\n        /* \"backend/contracts/Campaign.sol\":4321:4394  if (newTotalFunds >= fundingGoal) {... */\n    tag_152:\n        /* \"backend/contracts/Campaign.sol\":3675:4400  {... */\n      pop\n      pop\n      pop\n        /* \"backend/contracts/Campaign.sol\":3623:4400  function donate() external payable isActiveCampaign {... */\n      jump\t// out\n        /* \"backend/contracts/Campaign.sol\":802:822  address public admin */\n    tag_81:\n      0x05\n      0x00\n      swap1\n      sload\n      swap1\n      0x0100\n      exp\n      swap1\n      div\n      0xffffffffffffffffffffffffffffffffffffffff\n      and\n      dup2\n      jump\t// out\n        /* \"backend/contracts/Campaign.sol\":4624:5202  function releaseFunds() private {... */\n    tag_125:\n        /* \"backend/contracts/Campaign.sol\":4666:4687  uint32 fundsToRelease */\n      0x00\n        /* \"backend/contracts/Campaign.sol\":4690:4700  totalFunds */\n      0x02\n      0x00\n      swap1\n      sload\n      swap1\n      0x0100\n      exp\n      swap1\n      div\n      0xffffffff\n      and\n        /* \"backend/contracts/Campaign.sol\":4666:4700  uint32 fundsToRelease = totalFunds */\n      swap1\n      pop\n        /* \"backend/contracts/Campaign.sol\":4717:4727  totalFunds */\n      0x02\n      0x00\n        /* \"backend/contracts/Campaign.sol\":4710:4727  delete totalFunds */\n      0x0100\n      exp\n      dup2\n      sload\n      swap1\n      0xffffffff\n      mul\n      not\n      and\n      swap1\n      sstore\n        /* \"backend/contracts/Campaign.sol\":4790:4795  false */\n      0x00\n        /* \"backend/contracts/Campaign.sol\":4779:4787  isActive */\n      0x02\n      0x04\n        /* \"backend/contracts/Campaign.sol\":4779:4795  isActive = false */\n      0x0100\n      exp\n      dup2\n      sload\n      dup2\n      0xff\n      mul\n      not\n      and\n      swap1\n      dup4\n      iszero\n      iszero\n      mul\n      or\n      swap1\n      sstore\n      pop\n        /* \"backend/contracts/Campaign.sol\":4857:4869  bool success */\n      0x00\n        /* \"backend/contracts/Campaign.sol\":4883:4894  beneficiary */\n      immutable(\"0x13600b294191fc92924bb3ce4b969c1e7e2bab8f4c93c3fc6d0a51733df3c060\")\n        /* \"backend/contracts/Campaign.sol\":4875:4900  payable(beneficiary).call */\n      0xffffffffffffffffffffffffffffffffffffffff\n      and\n        /* \"backend/contracts/Campaign.sol\":4908:4922  fundsToRelease */\n      dup3\n        /* \"backend/contracts/Campaign.sol\":4875:4927  payable(beneficiary).call{value: fundsToRelease}(\"\") */\n      0xffffffff\n      and\n      mload(0x40)\n      tag_155\n      swap1\n      tag_156\n      jump\t// in\n    tag_155:\n      0x00\n      mload(0x40)\n      dup1\n      dup4\n      sub\n      dup2\n      dup6\n      dup8\n      gas\n      call\n      swap3\n      pop\n      pop\n      pop\n      returndatasize\n      dup1\n      0x00\n      dup2\n      eq\n      tag_159\n      jumpi\n      mload(0x40)\n      swap2\n      pop\n      and(add(returndatasize, 0x3f), not(0x1f))\n      dup3\n      add\n      0x40\n      mstore\n      returndatasize\n      dup3\n      mstore\n      returndatasize\n      0x00\n      0x20\n      dup5\n      add\n      returndatacopy\n      jump(tag_158)\n    tag_159:\n      0x60\n      swap2\n      pop\n    tag_158:\n      pop\n        /* \"backend/contracts/Campaign.sol\":4856:4927  (bool success, ) = payable(beneficiary).call{value: fundsToRelease}(\"\") */\n      pop\n      swap1\n      pop\n        /* \"backend/contracts/Campaign.sol\":4945:4952  success */\n      dup1\n        /* \"backend/contracts/Campaign.sol\":4937:4981  require(success, \"Unable to release funds!\") */\n      tag_160\n      jumpi\n      mload(0x40)\n      0x08c379a000000000000000000000000000000000000000000000000000000000\n      dup2\n      mstore\n      0x04\n      add\n      tag_161\n      swap1\n      tag_162\n      jump\t// in\n    tag_161:\n      mload(0x40)\n      dup1\n      swap2\n      sub\n      swap1\n      revert\n    tag_160:\n        /* \"backend/contracts/Campaign.sol\":5027:5038  beneficiary */\n      immutable(\"0x13600b294191fc92924bb3ce4b969c1e7e2bab8f4c93c3fc6d0a51733df3c060\")\n        /* \"backend/contracts/Campaign.sol\":4997:5055  FundsWithdrawn(address(this), beneficiary, fundsToRelease) */\n      0xffffffffffffffffffffffffffffffffffffffff\n      and\n        /* \"backend/contracts/Campaign.sol\":5020:5024  this */\n      address\n        /* \"backend/contracts/Campaign.sol\":4997:5055  FundsWithdrawn(address(this), beneficiary, fundsToRelease) */\n      0xffffffffffffffffffffffffffffffffffffffff\n      and\n      0x9a2d22bdc446507e83df389ff5730c89bb47efe4486aa9fe07032b2b7339ee7f\n        /* \"backend/contracts/Campaign.sol\":5040:5054  fundsToRelease */\n      dup5\n        /* \"backend/contracts/Campaign.sol\":4997:5055  FundsWithdrawn(address(this), beneficiary, fundsToRelease) */\n      mload(0x40)\n      tag_163\n      swap2\n      swap1\n      tag_58\n      jump\t// in\n    tag_163:\n      mload(0x40)\n      dup1\n      swap2\n      sub\n      swap1\n      log3\n        /* \"backend/contracts/Campaign.sol\":5128:5139  beneficiary */\n      immutable(\"0x13600b294191fc92924bb3ce4b969c1e7e2bab8f4c93c3fc6d0a51733df3c060\")\n        /* \"backend/contracts/Campaign.sol\":5070:5195  CampaignFinalized(... */\n      0xffffffffffffffffffffffffffffffffffffffff\n      and\n        /* \"backend/contracts/Campaign.sol\":5109:5113  this */\n      address\n        /* \"backend/contracts/Campaign.sol\":5070:5195  CampaignFinalized(... */\n      0xffffffffffffffffffffffffffffffffffffffff\n      and\n      0xf8b5bc9a22de51519f1a92f78276ca83d891d1edf8dd4263ccb6032594644b65\n        /* \"backend/contracts/Campaign.sol\":5153:5157  true */\n      0x01\n        /* \"backend/contracts/Campaign.sol\":5171:5185  fundsToRelease */\n      dup6\n        /* \"backend/contracts/Campaign.sol\":5070:5195  CampaignFinalized(... */\n      mload(0x40)\n      tag_164\n      swap3\n      swap2\n      swap1\n      tag_141\n      jump\t// in\n    tag_164:\n      mload(0x40)\n      dup1\n      swap2\n      sub\n      swap1\n      log3\n        /* \"backend/contracts/Campaign.sol\":4656:5202  {... */\n      pop\n      pop\n        /* \"backend/contracts/Campaign.sol\":4624:5202  function releaseFunds() private {... */\n      jump\t// out\n    tag_139:\n      pop\n      dup1\n      sload\n      0x00\n      dup3\n      sstore\n      swap1\n      0x00\n      mstore\n      keccak256(0x00, 0x20)\n      swap1\n      dup2\n      add\n      swap1\n      tag_166\n      swap2\n      swap1\n      tag_167\n      jump\t// in\n    tag_166:\n      pop\n      jump\t// out\n    tag_167:\n    tag_168:\n      dup1\n      dup3\n      gt\n      iszero\n      tag_169\n      jumpi\n      0x00\n      dup2\n      0x00\n      swap1\n      sstore\n      pop\n      0x01\n      add\n      jump(tag_168)\n    tag_169:\n      pop\n      swap1\n      jump\t// out\n        /* \"#utility.yul\":7:106   */\n    tag_170:\n        /* \"#utility.yul\":59:65   */\n      0x00\n        /* \"#utility.yul\":93:98   */\n      dup2\n        /* \"#utility.yul\":87:99   */\n      mload\n        /* \"#utility.yul\":77:99   */\n      swap1\n      pop\n        /* \"#utility.yul\":7:106   */\n      swap2\n      swap1\n      pop\n      jump\t// out\n        /* \"#utility.yul\":112:281   */\n    tag_171:\n        /* \"#utility.yul\":196:207   */\n      0x00\n        /* \"#utility.yul\":230:236   */\n      dup3\n        /* \"#utility.yul\":225:228   */\n      dup3\n        /* \"#utility.yul\":218:237   */\n      mstore\n        /* \"#utility.yul\":270:274   */\n      0x20\n        /* \"#utility.yul\":265:268   */\n      dup3\n        /* \"#utility.yul\":261:275   */\n      add\n        /* \"#utility.yul\":246:275   */\n      swap1\n      pop\n        /* \"#utility.yul\":112:281   */\n      swap3\n      swap2\n      pop\n      pop\n      jump\t// out\n        /* \"#utility.yul\":287:426   */\n    tag_172:\n        /* \"#utility.yul\":376:382   */\n      dup3\n        /* \"#utility.yul\":371:374   */\n      dup2\n        /* \"#utility.yul\":366:369   */\n      dup4\n        /* \"#utility.yul\":360:383   */\n      mcopy\n        /* \"#utility.yul\":417:418   */\n      0x00\n        /* \"#utility.yul\":408:414   */\n      dup4\n        /* \"#utility.yul\":403:406   */\n      dup4\n        /* \"#utility.yul\":399:415   */\n      add\n        /* \"#utility.yul\":392:419   */\n      mstore\n        /* \"#utility.yul\":287:426   */\n      pop\n      pop\n      pop\n      jump\t// out\n        /* \"#utility.yul\":432:534   */\n    tag_173:\n        /* \"#utility.yul\":473:479   */\n      0x00\n        /* \"#utility.yul\":524:526   */\n      0x1f\n        /* \"#utility.yul\":520:527   */\n      not\n        /* \"#utility.yul\":515:517   */\n      0x1f\n        /* \"#utility.yul\":508:513   */\n      dup4\n        /* \"#utility.yul\":504:518   */\n      add\n        /* \"#utility.yul\":500:528   */\n      and\n        /* \"#utility.yul\":490:528   */\n      swap1\n      pop\n        /* \"#utility.yul\":432:534   */\n      swap2\n      swap1\n      pop\n      jump\t// out\n        /* \"#utility.yul\":540:917   */\n    tag_174:\n        /* \"#utility.yul\":628:631   */\n      0x00\n        /* \"#utility.yul\":656:695   */\n      tag_217\n        /* \"#utility.yul\":689:694   */\n      dup3\n        /* \"#utility.yul\":656:695   */\n      tag_170\n      jump\t// in\n    tag_217:\n        /* \"#utility.yul\":711:782   */\n      tag_218\n        /* \"#utility.yul\":775:781   */\n      dup2\n        /* \"#utility.yul\":770:773   */\n      dup6\n        /* \"#utility.yul\":711:782   */\n      tag_171\n      jump\t// in\n    tag_218:\n        /* \"#utility.yul\":704:782   */\n      swap4\n      pop\n        /* \"#utility.yul\":791:856   */\n      tag_219\n        /* \"#utility.yul\":849:855   */\n      dup2\n        /* \"#utility.yul\":844:847   */\n      dup6\n        /* \"#utility.yul\":837:841   */\n      0x20\n        /* \"#utility.yul\":830:835   */\n      dup7\n        /* \"#utility.yul\":826:842   */\n      add\n        /* \"#utility.yul\":791:856   */\n      tag_172\n      jump\t// in\n    tag_219:\n        /* \"#utility.yul\":881:910   */\n      tag_220\n        /* \"#utility.yul\":903:909   */\n      dup2\n        /* \"#utility.yul\":881:910   */\n      tag_173\n      jump\t// in\n    tag_220:\n        /* \"#utility.yul\":876:879   */\n      dup5\n        /* \"#utility.yul\":872:911   */\n      add\n        /* \"#utility.yul\":865:911   */\n      swap2\n      pop\n        /* \"#utility.yul\":632:917   */\n      pop\n        /* \"#utility.yul\":540:917   */\n      swap3\n      swap2\n      pop\n      pop\n      jump\t// out\n        /* \"#utility.yul\":923:1236   */\n    tag_23:\n        /* \"#utility.yul\":1036:1040   */\n      0x00\n        /* \"#utility.yul\":1074:1076   */\n      0x20\n        /* \"#utility.yul\":1063:1072   */\n      dup3\n        /* \"#utility.yul\":1059:1077   */\n      add\n        /* \"#utility.yul\":1051:1077   */\n      swap1\n      pop\n        /* \"#utility.yul\":1123:1132   */\n      dup2\n        /* \"#utility.yul\":1117:1121   */\n      dup2\n        /* \"#utility.yul\":1113:1133   */\n      sub\n        /* \"#utility.yul\":1109:1110   */\n      0x00\n        /* \"#utility.yul\":1098:1107   */\n      dup4\n        /* \"#utility.yul\":1094:1111   */\n      add\n        /* \"#utility.yul\":1087:1134   */\n      mstore\n        /* \"#utility.yul\":1151:1229   */\n      tag_222\n        /* \"#utility.yul\":1224:1228   */\n      dup2\n        /* \"#utility.yul\":1215:1221   */\n      dup5\n        /* \"#utility.yul\":1151:1229   */\n      tag_174\n      jump\t// in\n    tag_222:\n        /* \"#utility.yul\":1143:1229   */\n      swap1\n      pop\n        /* \"#utility.yul\":923:1236   */\n      swap3\n      swap2\n      pop\n      pop\n      jump\t// out\n        /* \"#utility.yul\":1242:1368   */\n    tag_175:\n        /* \"#utility.yul\":1279:1286   */\n      0x00\n        /* \"#utility.yul\":1319:1361   */\n      0xffffffffffffffffffffffffffffffffffffffff\n        /* \"#utility.yul\":1312:1317   */\n      dup3\n        /* \"#utility.yul\":1308:1362   */\n      and\n        /* \"#utility.yul\":1297:1362   */\n      swap1\n      pop\n        /* \"#utility.yul\":1242:1368   */\n      swap2\n      swap1\n      pop\n      jump\t// out\n        /* \"#utility.yul\":1374:1470   */\n    tag_176:\n        /* \"#utility.yul\":1411:1418   */\n      0x00\n        /* \"#utility.yul\":1440:1464   */\n      tag_225\n        /* \"#utility.yul\":1458:1463   */\n      dup3\n        /* \"#utility.yul\":1440:1464   */\n      tag_175\n      jump\t// in\n    tag_225:\n        /* \"#utility.yul\":1429:1464   */\n      swap1\n      pop\n        /* \"#utility.yul\":1374:1470   */\n      swap2\n      swap1\n      pop\n      jump\t// out\n        /* \"#utility.yul\":1476:1594   */\n    tag_177:\n        /* \"#utility.yul\":1563:1587   */\n      tag_227\n        /* \"#utility.yul\":1581:1586   */\n      dup2\n        /* \"#utility.yul\":1563:1587   */\n      tag_176\n      jump\t// in\n    tag_227:\n        /* \"#utility.yul\":1558:1561   */\n      dup3\n        /* \"#utility.yul\":1551:1588   */\n      mstore\n        /* \"#utility.yul\":1476:1594   */\n      pop\n      pop\n      jump\t// out\n        /* \"#utility.yul\":1600:1677   */\n    tag_178:\n        /* \"#utility.yul\":1637:1644   */\n      0x00\n        /* \"#utility.yul\":1666:1671   */\n      dup2\n        /* \"#utility.yul\":1655:1671   */\n      swap1\n      pop\n        /* \"#utility.yul\":1600:1677   */\n      swap2\n      swap1\n      pop\n      jump\t// out\n        /* \"#utility.yul\":1683:1801   */\n    tag_179:\n        /* \"#utility.yul\":1770:1794   */\n      tag_230\n        /* \"#utility.yul\":1788:1793   */\n      dup2\n        /* \"#utility.yul\":1770:1794   */\n      tag_178\n      jump\t// in\n    tag_230:\n        /* \"#utility.yul\":1765:1768   */\n      dup3\n        /* \"#utility.yul\":1758:1795   */\n      mstore\n        /* \"#utility.yul\":1683:1801   */\n      pop\n      pop\n      jump\t// out\n        /* \"#utility.yul\":1807:1900   */\n    tag_180:\n        /* \"#utility.yul\":1843:1850   */\n      0x00\n        /* \"#utility.yul\":1883:1893   */\n      0xffffffff\n        /* \"#utility.yul\":1876:1881   */\n      dup3\n        /* \"#utility.yul\":1872:1894   */\n      and\n        /* \"#utility.yul\":1861:1894   */\n      swap1\n      pop\n        /* \"#utility.yul\":1807:1900   */\n      swap2\n      swap1\n      pop\n      jump\t// out\n        /* \"#utility.yul\":1906:2021   */\n    tag_181:\n        /* \"#utility.yul\":1991:2014   */\n      tag_233\n        /* \"#utility.yul\":2008:2013   */\n      dup2\n        /* \"#utility.yul\":1991:2014   */\n      tag_180\n      jump\t// in\n    tag_233:\n        /* \"#utility.yul\":1986:1989   */\n      dup3\n        /* \"#utility.yul\":1979:2015   */\n      mstore\n        /* \"#utility.yul\":1906:2021   */\n      pop\n      pop\n      jump\t// out\n        /* \"#utility.yul\":2027:2117   */\n    tag_182:\n        /* \"#utility.yul\":2061:2068   */\n      0x00\n        /* \"#utility.yul\":2104:2109   */\n      dup2\n        /* \"#utility.yul\":2097:2110   */\n      iszero\n        /* \"#utility.yul\":2090:2111   */\n      iszero\n        /* \"#utility.yul\":2079:2111   */\n      swap1\n      pop\n        /* \"#utility.yul\":2027:2117   */\n      swap2\n      swap1\n      pop\n      jump\t// out\n        /* \"#utility.yul\":2123:2232   */\n    tag_183:\n        /* \"#utility.yul\":2204:2225   */\n      tag_236\n        /* \"#utility.yul\":2219:2224   */\n      dup2\n        /* \"#utility.yul\":2204:2225   */\n      tag_182\n      jump\t// in\n    tag_236:\n        /* \"#utility.yul\":2199:2202   */\n      dup3\n        /* \"#utility.yul\":2192:2226   */\n      mstore\n        /* \"#utility.yul\":2123:2232   */\n      pop\n      pop\n      jump\t// out\n        /* \"#utility.yul\":2238:3286   */\n    tag_28:\n        /* \"#utility.yul\":2529:2533   */\n      0x00\n        /* \"#utility.yul\":2567:2570   */\n      0xe0\n        /* \"#utility.yul\":2556:2565   */\n      dup3\n        /* \"#utility.yul\":2552:2571   */\n      add\n        /* \"#utility.yul\":2544:2571   */\n      swap1\n      pop\n        /* \"#utility.yul\":2581:2652   */\n      tag_238\n        /* \"#utility.yul\":2649:2650   */\n      0x00\n        /* \"#utility.yul\":2638:2647   */\n      dup4\n        /* \"#utility.yul\":2634:2651   */\n      add\n        /* \"#utility.yul\":2625:2631   */\n      dup11\n        /* \"#utility.yul\":2581:2652   */\n      tag_177\n      jump\t// in\n    tag_238:\n        /* \"#utility.yul\":2699:2708   */\n      dup2\n        /* \"#utility.yul\":2693:2697   */\n      dup2\n        /* \"#utility.yul\":2689:2709   */\n      sub\n        /* \"#utility.yul\":2684:2686   */\n      0x20\n        /* \"#utility.yul\":2673:2682   */\n      dup4\n        /* \"#utility.yul\":2669:2687   */\n      add\n        /* \"#utility.yul\":2662:2710   */\n      mstore\n        /* \"#utility.yul\":2727:2805   */\n      tag_239\n        /* \"#utility.yul\":2800:2804   */\n      dup2\n        /* \"#utility.yul\":2791:2797   */\n      dup10\n        /* \"#utility.yul\":2727:2805   */\n      tag_174\n      jump\t// in\n    tag_239:\n        /* \"#utility.yul\":2719:2805   */\n      swap1\n      pop\n        /* \"#utility.yul\":2852:2861   */\n      dup2\n        /* \"#utility.yul\":2846:2850   */\n      dup2\n        /* \"#utility.yul\":2842:2862   */\n      sub\n        /* \"#utility.yul\":2837:2839   */\n      0x40\n        /* \"#utility.yul\":2826:2835   */\n      dup4\n        /* \"#utility.yul\":2822:2840   */\n      add\n        /* \"#utility.yul\":2815:2863   */\n      mstore\n        /* \"#utility.yul\":2880:2958   */\n      tag_240\n        /* \"#utility.yul\":2953:2957   */\n      dup2\n        /* \"#utility.yul\":2944:2950   */\n      dup9\n        /* \"#utility.yul\":2880:2958   */\n      tag_174\n      jump\t// in\n    tag_240:\n        /* \"#utility.yul\":2872:2958   */\n      swap1\n      pop\n        /* \"#utility.yul\":2968:3040   */\n      tag_241\n        /* \"#utility.yul\":3036:3038   */\n      0x60\n        /* \"#utility.yul\":3025:3034   */\n      dup4\n        /* \"#utility.yul\":3021:3039   */\n      add\n        /* \"#utility.yul\":3012:3018   */\n      dup8\n        /* \"#utility.yul\":2968:3040   */\n      tag_179\n      jump\t// in\n    tag_241:\n        /* \"#utility.yul\":3050:3121   */\n      tag_242\n        /* \"#utility.yul\":3116:3119   */\n      0x80\n        /* \"#utility.yul\":3105:3114   */\n      dup4\n        /* \"#utility.yul\":3101:3120   */\n      add\n        /* \"#utility.yul\":3092:3098   */\n      dup7\n        /* \"#utility.yul\":3050:3121   */\n      tag_181\n      jump\t// in\n    tag_242:\n        /* \"#utility.yul\":3131:3202   */\n      tag_243\n        /* \"#utility.yul\":3197:3200   */\n      0xa0\n        /* \"#utility.yul\":3186:3195   */\n      dup4\n        /* \"#utility.yul\":3182:3201   */\n      add\n        /* \"#utility.yul\":3173:3179   */\n      dup6\n        /* \"#utility.yul\":3131:3202   */\n      tag_181\n      jump\t// in\n    tag_243:\n        /* \"#utility.yul\":3212:3279   */\n      tag_244\n        /* \"#utility.yul\":3274:3277   */\n      0xc0\n        /* \"#utility.yul\":3263:3272   */\n      dup4\n        /* \"#utility.yul\":3259:3278   */\n      add\n        /* \"#utility.yul\":3250:3256   */\n      dup5\n        /* \"#utility.yul\":3212:3279   */\n      tag_183\n      jump\t// in\n    tag_244:\n        /* \"#utility.yul\":2238:3286   */\n      swap9\n      swap8\n      pop\n      pop\n      pop\n      pop\n      pop\n      pop\n      pop\n      pop\n      jump\t// out\n        /* \"#utility.yul\":3292:3502   */\n    tag_33:\n        /* \"#utility.yul\":3379:3383   */\n      0x00\n        /* \"#utility.yul\":3417:3419   */\n      0x20\n        /* \"#utility.yul\":3406:3415   */\n      dup3\n        /* \"#utility.yul\":3402:3420   */\n      add\n        /* \"#utility.yul\":3394:3420   */\n      swap1\n      pop\n        /* \"#utility.yul\":3430:3495   */\n      tag_246\n        /* \"#utility.yul\":3492:3493   */\n      0x00\n        /* \"#utility.yul\":3481:3490   */\n      dup4\n        /* \"#utility.yul\":3477:3494   */\n      add\n        /* \"#utility.yul\":3468:3474   */\n      dup5\n        /* \"#utility.yul\":3430:3495   */\n      tag_183\n      jump\t// in\n    tag_246:\n        /* \"#utility.yul\":3292:3502   */\n      swap3\n      swap2\n      pop\n      pop\n      jump\t// out\n        /* \"#utility.yul\":3508:3730   */\n    tag_38:\n        /* \"#utility.yul\":3601:3605   */\n      0x00\n        /* \"#utility.yul\":3639:3641   */\n      0x20\n        /* \"#utility.yul\":3628:3637   */\n      dup3\n        /* \"#utility.yul\":3624:3642   */\n      add\n        /* \"#utility.yul\":3616:3642   */\n      swap1\n      pop\n        /* \"#utility.yul\":3652:3723   */\n      tag_248\n        /* \"#utility.yul\":3720:3721   */\n      0x00\n        /* \"#utility.yul\":3709:3718   */\n      dup4\n        /* \"#utility.yul\":3705:3722   */\n      add\n        /* \"#utility.yul\":3696:3702   */\n      dup5\n        /* \"#utility.yul\":3652:3723   */\n      tag_179\n      jump\t// in\n    tag_248:\n        /* \"#utility.yul\":3508:3730   */\n      swap3\n      swap2\n      pop\n      pop\n      jump\t// out\n        /* \"#utility.yul\":3736:3958   */\n    tag_43:\n        /* \"#utility.yul\":3829:3833   */\n      0x00\n        /* \"#utility.yul\":3867:3869   */\n      0x20\n        /* \"#utility.yul\":3856:3865   */\n      dup3\n        /* \"#utility.yul\":3852:3870   */\n      add\n        /* \"#utility.yul\":3844:3870   */\n      swap1\n      pop\n        /* \"#utility.yul\":3880:3951   */\n      tag_250\n        /* \"#utility.yul\":3948:3949   */\n      0x00\n        /* \"#utility.yul\":3937:3946   */\n      dup4\n        /* \"#utility.yul\":3933:3950   */\n      add\n        /* \"#utility.yul\":3924:3930   */\n      dup5\n        /* \"#utility.yul\":3880:3951   */\n      tag_177\n      jump\t// in\n    tag_250:\n        /* \"#utility.yul\":3736:3958   */\n      swap3\n      swap2\n      pop\n      pop\n      jump\t// out\n        /* \"#utility.yul\":4045:4162   */\n    tag_185:\n        /* \"#utility.yul\":4154:4155   */\n      0x00\n        /* \"#utility.yul\":4151:4152   */\n      dup1\n        /* \"#utility.yul\":4144:4156   */\n      revert\n        /* \"#utility.yul\":4291:4413   */\n    tag_187:\n        /* \"#utility.yul\":4364:4388   */\n      tag_255\n        /* \"#utility.yul\":4382:4387   */\n      dup2\n        /* \"#utility.yul\":4364:4388   */\n      tag_178\n      jump\t// in\n    tag_255:\n        /* \"#utility.yul\":4357:4362   */\n      dup2\n        /* \"#utility.yul\":4354:4389   */\n      eq\n        /* \"#utility.yul\":4344:4407   */\n      tag_256\n      jumpi\n        /* \"#utility.yul\":4403:4404   */\n      0x00\n        /* \"#utility.yul\":4400:4401   */\n      dup1\n        /* \"#utility.yul\":4393:4405   */\n      revert\n        /* \"#utility.yul\":4344:4407   */\n    tag_256:\n        /* \"#utility.yul\":4291:4413   */\n      pop\n      jump\t// out\n        /* \"#utility.yul\":4419:4558   */\n    tag_188:\n        /* \"#utility.yul\":4465:4470   */\n      0x00\n        /* \"#utility.yul\":4503:4509   */\n      dup2\n        /* \"#utility.yul\":4490:4510   */\n      calldataload\n        /* \"#utility.yul\":4481:4510   */\n      swap1\n      pop\n        /* \"#utility.yul\":4519:4552   */\n      tag_258\n        /* \"#utility.yul\":4546:4551   */\n      dup2\n        /* \"#utility.yul\":4519:4552   */\n      tag_187\n      jump\t// in\n    tag_258:\n        /* \"#utility.yul\":4419:4558   */\n      swap3\n      swap2\n      pop\n      pop\n      jump\t// out\n        /* \"#utility.yul\":4564:4893   */\n    tag_47:\n        /* \"#utility.yul\":4623:4629   */\n      0x00\n        /* \"#utility.yul\":4672:4674   */\n      0x20\n        /* \"#utility.yul\":4660:4669   */\n      dup3\n        /* \"#utility.yul\":4651:4658   */\n      dup5\n        /* \"#utility.yul\":4647:4670   */\n      sub\n        /* \"#utility.yul\":4643:4675   */\n      slt\n        /* \"#utility.yul\":4640:4759   */\n      iszero\n      tag_260\n      jumpi\n        /* \"#utility.yul\":4678:4757   */\n      tag_261\n      tag_185\n      jump\t// in\n    tag_261:\n        /* \"#utility.yul\":4640:4759   */\n    tag_260:\n        /* \"#utility.yul\":4798:4799   */\n      0x00\n        /* \"#utility.yul\":4823:4876   */\n      tag_262\n        /* \"#utility.yul\":4868:4875   */\n      dup5\n        /* \"#utility.yul\":4859:4865   */\n      dup3\n        /* \"#utility.yul\":4848:4857   */\n      dup6\n        /* \"#utility.yul\":4844:4866   */\n      add\n        /* \"#utility.yul\":4823:4876   */\n      tag_188\n      jump\t// in\n    tag_262:\n        /* \"#utility.yul\":4813:4876   */\n      swap2\n      pop\n        /* \"#utility.yul\":4769:4886   */\n      pop\n        /* \"#utility.yul\":4564:4893   */\n      swap3\n      swap2\n      pop\n      pop\n      jump\t// out\n        /* \"#utility.yul\":4899:5117   */\n    tag_58:\n        /* \"#utility.yul\":4990:4994   */\n      0x00\n        /* \"#utility.yul\":5028:5030   */\n      0x20\n        /* \"#utility.yul\":5017:5026   */\n      dup3\n        /* \"#utility.yul\":5013:5031   */\n      add\n        /* \"#utility.yul\":5005:5031   */\n      swap1\n      pop\n        /* \"#utility.yul\":5041:5110   */\n      tag_264\n        /* \"#utility.yul\":5107:5108   */\n      0x00\n        /* \"#utility.yul\":5096:5105   */\n      dup4\n        /* \"#utility.yul\":5092:5109   */\n      add\n        /* \"#utility.yul\":5083:5089   */\n      dup5\n        /* \"#utility.yul\":5041:5110   */\n      tag_181\n      jump\t// in\n    tag_264:\n        /* \"#utility.yul\":4899:5117   */\n      swap3\n      swap2\n      pop\n      pop\n      jump\t// out\n        /* \"#utility.yul\":5123:5237   */\n    tag_189:\n        /* \"#utility.yul\":5190:5196   */\n      0x00\n        /* \"#utility.yul\":5224:5229   */\n      dup2\n        /* \"#utility.yul\":5218:5230   */\n      mload\n        /* \"#utility.yul\":5208:5230   */\n      swap1\n      pop\n        /* \"#utility.yul\":5123:5237   */\n      swap2\n      swap1\n      pop\n      jump\t// out\n        /* \"#utility.yul\":5243:5427   */\n    tag_190:\n        /* \"#utility.yul\":5342:5353   */\n      0x00\n        /* \"#utility.yul\":5376:5382   */\n      dup3\n        /* \"#utility.yul\":5371:5374   */\n      dup3\n        /* \"#utility.yul\":5364:5383   */\n      mstore\n        /* \"#utility.yul\":5416:5420   */\n      0x20\n        /* \"#utility.yul\":5411:5414   */\n      dup3\n        /* \"#utility.yul\":5407:5421   */\n      add\n        /* \"#utility.yul\":5392:5421   */\n      swap1\n      pop\n        /* \"#utility.yul\":5243:5427   */\n      swap3\n      swap2\n      pop\n      pop\n      jump\t// out\n        /* \"#utility.yul\":5433:5565   */\n    tag_191:\n        /* \"#utility.yul\":5500:5504   */\n      0x00\n        /* \"#utility.yul\":5523:5526   */\n      dup2\n        /* \"#utility.yul\":5515:5526   */\n      swap1\n      pop\n        /* \"#utility.yul\":5553:5557   */\n      0x20\n        /* \"#utility.yul\":5548:5551   */\n      dup3\n        /* \"#utility.yul\":5544:5558   */\n      add\n        /* \"#utility.yul\":5536:5558   */\n      swap1\n      pop\n        /* \"#utility.yul\":5433:5565   */\n      swap2\n      swap1\n      pop\n      jump\t// out\n        /* \"#utility.yul\":5571:5679   */\n    tag_192:\n        /* \"#utility.yul\":5648:5672   */\n      tag_269\n        /* \"#utility.yul\":5666:5671   */\n      dup2\n        /* \"#utility.yul\":5648:5672   */\n      tag_176\n      jump\t// in\n    tag_269:\n        /* \"#utility.yul\":5643:5646   */\n      dup3\n        /* \"#utility.yul\":5636:5673   */\n      mstore\n        /* \"#utility.yul\":5571:5679   */\n      pop\n      pop\n      jump\t// out\n        /* \"#utility.yul\":5685:5864   */\n    tag_193:\n        /* \"#utility.yul\":5754:5764   */\n      0x00\n        /* \"#utility.yul\":5775:5821   */\n      tag_271\n        /* \"#utility.yul\":5817:5820   */\n      dup4\n        /* \"#utility.yul\":5809:5815   */\n      dup4\n        /* \"#utility.yul\":5775:5821   */\n      tag_192\n      jump\t// in\n    tag_271:\n        /* \"#utility.yul\":5853:5857   */\n      0x20\n        /* \"#utility.yul\":5848:5851   */\n      dup4\n        /* \"#utility.yul\":5844:5858   */\n      add\n        /* \"#utility.yul\":5830:5858   */\n      swap1\n      pop\n        /* \"#utility.yul\":5685:5864   */\n      swap3\n      swap2\n      pop\n      pop\n      jump\t// out\n        /* \"#utility.yul\":5870:5983   */\n    tag_194:\n        /* \"#utility.yul\":5940:5944   */\n      0x00\n        /* \"#utility.yul\":5972:5976   */\n      0x20\n        /* \"#utility.yul\":5967:5970   */\n      dup3\n        /* \"#utility.yul\":5963:5977   */\n      add\n        /* \"#utility.yul\":5955:5977   */\n      swap1\n      pop\n        /* \"#utility.yul\":5870:5983   */\n      swap2\n      swap1\n      pop\n      jump\t// out\n        /* \"#utility.yul\":6019:6751   */\n    tag_195:\n        /* \"#utility.yul\":6138:6141   */\n      0x00\n        /* \"#utility.yul\":6167:6221   */\n      tag_274\n        /* \"#utility.yul\":6215:6220   */\n      dup3\n        /* \"#utility.yul\":6167:6221   */\n      tag_189\n      jump\t// in\n    tag_274:\n        /* \"#utility.yul\":6237:6323   */\n      tag_275\n        /* \"#utility.yul\":6316:6322   */\n      dup2\n        /* \"#utility.yul\":6311:6314   */\n      dup6\n        /* \"#utility.yul\":6237:6323   */\n      tag_190\n      jump\t// in\n    tag_275:\n        /* \"#utility.yul\":6230:6323   */\n      swap4\n      pop\n        /* \"#utility.yul\":6347:6403   */\n      tag_276\n        /* \"#utility.yul\":6397:6402   */\n      dup4\n        /* \"#utility.yul\":6347:6403   */\n      tag_191\n      jump\t// in\n    tag_276:\n        /* \"#utility.yul\":6426:6433   */\n      dup1\n        /* \"#utility.yul\":6457:6458   */\n      0x00\n        /* \"#utility.yul\":6442:6726   */\n    tag_277:\n        /* \"#utility.yul\":6467:6473   */\n      dup4\n        /* \"#utility.yul\":6464:6465   */\n      dup2\n        /* \"#utility.yul\":6461:6474   */\n      lt\n        /* \"#utility.yul\":6442:6726   */\n      iszero\n      tag_279\n      jumpi\n        /* \"#utility.yul\":6543:6549   */\n      dup2\n        /* \"#utility.yul\":6537:6550   */\n      mload\n        /* \"#utility.yul\":6570:6633   */\n      tag_280\n        /* \"#utility.yul\":6629:6632   */\n      dup9\n        /* \"#utility.yul\":6614:6627   */\n      dup3\n        /* \"#utility.yul\":6570:6633   */\n      tag_193\n      jump\t// in\n    tag_280:\n        /* \"#utility.yul\":6563:6633   */\n      swap8\n      pop\n        /* \"#utility.yul\":6656:6716   */\n      tag_281\n        /* \"#utility.yul\":6709:6715   */\n      dup4\n        /* \"#utility.yul\":6656:6716   */\n      tag_194\n      jump\t// in\n    tag_281:\n        /* \"#utility.yul\":6646:6716   */\n      swap3\n      pop\n        /* \"#utility.yul\":6502:6726   */\n      pop\n        /* \"#utility.yul\":6489:6490   */\n      0x01\n        /* \"#utility.yul\":6486:6487   */\n      dup2\n        /* \"#utility.yul\":6482:6491   */\n      add\n        /* \"#utility.yul\":6477:6491   */\n      swap1\n      pop\n        /* \"#utility.yul\":6442:6726   */\n      jump(tag_277)\n    tag_279:\n        /* \"#utility.yul\":6446:6460   */\n      pop\n        /* \"#utility.yul\":6742:6745   */\n      dup6\n        /* \"#utility.yul\":6735:6745   */\n      swap4\n      pop\n        /* \"#utility.yul\":6143:6751   */\n      pop\n      pop\n      pop\n        /* \"#utility.yul\":6019:6751   */\n      swap3\n      swap2\n      pop\n      pop\n      jump\t// out\n        /* \"#utility.yul\":6757:7130   */\n    tag_67:\n        /* \"#utility.yul\":6900:6904   */\n      0x00\n        /* \"#utility.yul\":6938:6940   */\n      0x20\n        /* \"#utility.yul\":6927:6936   */\n      dup3\n        /* \"#utility.yul\":6923:6941   */\n      add\n        /* \"#utility.yul\":6915:6941   */\n      swap1\n      pop\n        /* \"#utility.yul\":6987:6996   */\n      dup2\n        /* \"#utility.yul\":6981:6985   */\n      dup2\n        /* \"#utility.yul\":6977:6997   */\n      sub\n        /* \"#utility.yul\":6973:6974   */\n      0x00\n        /* \"#utility.yul\":6962:6971   */\n      dup4\n        /* \"#utility.yul\":6958:6975   */\n      add\n        /* \"#utility.yul\":6951:6998   */\n      mstore\n        /* \"#utility.yul\":7015:7123   */\n      tag_283\n        /* \"#utility.yul\":7118:7122   */\n      dup2\n        /* \"#utility.yul\":7109:7115   */\n      dup5\n        /* \"#utility.yul\":7015:7123   */\n      tag_195\n      jump\t// in\n    tag_283:\n        /* \"#utility.yul\":7007:7123   */\n      swap1\n      pop\n        /* \"#utility.yul\":6757:7130   */\n      swap3\n      swap2\n      pop\n      pop\n      jump\t// out\n        /* \"#utility.yul\":7136:7258   */\n    tag_196:\n        /* \"#utility.yul\":7209:7233   */\n      tag_285\n        /* \"#utility.yul\":7227:7232   */\n      dup2\n        /* \"#utility.yul\":7209:7233   */\n      tag_176\n      jump\t// in\n    tag_285:\n        /* \"#utility.yul\":7202:7207   */\n      dup2\n        /* \"#utility.yul\":7199:7234   */\n      eq\n        /* \"#utility.yul\":7189:7252   */\n      tag_286\n      jumpi\n        /* \"#utility.yul\":7248:7249   */\n      0x00\n        /* \"#utility.yul\":7245:7246   */\n      dup1\n        /* \"#utility.yul\":7238:7250   */\n      revert\n        /* \"#utility.yul\":7189:7252   */\n    tag_286:\n        /* \"#utility.yul\":7136:7258   */\n      pop\n      jump\t// out\n        /* \"#utility.yul\":7264:7403   */\n    tag_197:\n        /* \"#utility.yul\":7310:7315   */\n      0x00\n        /* \"#utility.yul\":7348:7354   */\n      dup2\n        /* \"#utility.yul\":7335:7355   */\n      calldataload\n        /* \"#utility.yul\":7326:7355   */\n      swap1\n      pop\n        /* \"#utility.yul\":7364:7397   */\n      tag_288\n        /* \"#utility.yul\":7391:7396   */\n      dup2\n        /* \"#utility.yul\":7364:7397   */\n      tag_196\n      jump\t// in\n    tag_288:\n        /* \"#utility.yul\":7264:7403   */\n      swap3\n      swap2\n      pop\n      pop\n      jump\t// out\n        /* \"#utility.yul\":7409:7738   */\n    tag_74:\n        /* \"#utility.yul\":7468:7474   */\n      0x00\n        /* \"#utility.yul\":7517:7519   */\n      0x20\n        /* \"#utility.yul\":7505:7514   */\n      dup3\n        /* \"#utility.yul\":7496:7503   */\n      dup5\n        /* \"#utility.yul\":7492:7515   */\n      sub\n        /* \"#utility.yul\":7488:7520   */\n      slt\n        /* \"#utility.yul\":7485:7604   */\n      iszero\n      tag_290\n      jumpi\n        /* \"#utility.yul\":7523:7602   */\n      tag_291\n      tag_185\n      jump\t// in\n    tag_291:\n        /* \"#utility.yul\":7485:7604   */\n    tag_290:\n        /* \"#utility.yul\":7643:7644   */\n      0x00\n        /* \"#utility.yul\":7668:7721   */\n      tag_292\n        /* \"#utility.yul\":7713:7720   */\n      dup5\n        /* \"#utility.yul\":7704:7710   */\n      dup3\n        /* \"#utility.yul\":7693:7702   */\n      dup6\n        /* \"#utility.yul\":7689:7711   */\n      add\n        /* \"#utility.yul\":7668:7721   */\n      tag_197\n      jump\t// in\n    tag_292:\n        /* \"#utility.yul\":7658:7721   */\n      swap2\n      pop\n        /* \"#utility.yul\":7614:7731   */\n      pop\n        /* \"#utility.yul\":7409:7738   */\n      swap3\n      swap2\n      pop\n      pop\n      jump\t// out\n        /* \"#utility.yul\":7744:7924   */\n    tag_198:\n        /* \"#utility.yul\":7792:7869   */\n      0x4e487b7100000000000000000000000000000000000000000000000000000000\n        /* \"#utility.yul\":7789:7790   */\n      0x00\n        /* \"#utility.yul\":7782:7870   */\n      mstore\n        /* \"#utility.yul\":7889:7893   */\n      0x22\n        /* \"#utility.yul\":7886:7887   */\n      0x04\n        /* \"#utility.yul\":7879:7894   */\n      mstore\n        /* \"#utility.yul\":7913:7917   */\n      0x24\n        /* \"#utility.yul\":7910:7911   */\n      0x00\n        /* \"#utility.yul\":7903:7918   */\n      revert\n        /* \"#utility.yul\":7930:8250   */\n    tag_84:\n        /* \"#utility.yul\":7974:7980   */\n      0x00\n        /* \"#utility.yul\":8011:8012   */\n      0x02\n        /* \"#utility.yul\":8005:8009   */\n      dup3\n        /* \"#utility.yul\":8001:8013   */\n      div\n        /* \"#utility.yul\":7991:8013   */\n      swap1\n      pop\n        /* \"#utility.yul\":8058:8059   */\n      0x01\n        /* \"#utility.yul\":8052:8056   */\n      dup3\n        /* \"#utility.yul\":8048:8060   */\n      and\n        /* \"#utility.yul\":8079:8097   */\n      dup1\n        /* \"#utility.yul\":8069:8150   */\n      tag_295\n      jumpi\n        /* \"#utility.yul\":8135:8139   */\n      0x7f\n        /* \"#utility.yul\":8127:8133   */\n      dup3\n        /* \"#utility.yul\":8123:8140   */\n      and\n        /* \"#utility.yul\":8113:8140   */\n      swap2\n      pop\n        /* \"#utility.yul\":8069:8150   */\n    tag_295:\n        /* \"#utility.yul\":8197:8199   */\n      0x20\n        /* \"#utility.yul\":8189:8195   */\n      dup3\n        /* \"#utility.yul\":8186:8200   */\n      lt\n        /* \"#utility.yul\":8166:8184   */\n      dup2\n        /* \"#utility.yul\":8163:8201   */\n      sub\n        /* \"#utility.yul\":8160:8244   */\n      tag_296\n      jumpi\n        /* \"#utility.yul\":8216:8234   */\n      tag_297\n      tag_198\n      jump\t// in\n    tag_297:\n        /* \"#utility.yul\":8160:8244   */\n    tag_296:\n        /* \"#utility.yul\":7981:8250   */\n      pop\n        /* \"#utility.yul\":7930:8250   */\n      swap2\n      swap1\n      pop\n      jump\t// out\n        /* \"#utility.yul\":8256:8433   */\n    tag_199:\n        /* \"#utility.yul\":8396:8425   */\n      0x5468652043616d706169676e206973206e6f7420616374697665210000000000\n        /* \"#utility.yul\":8392:8393   */\n      0x00\n        /* \"#utility.yul\":8384:8390   */\n      dup3\n        /* \"#utility.yul\":8380:8394   */\n      add\n        /* \"#utility.yul\":8373:8426   */\n      mstore\n        /* \"#utility.yul\":8256:8433   */\n      pop\n      jump\t// out\n        /* \"#utility.yul\":8439:8805   */\n    tag_200:\n        /* \"#utility.yul\":8581:8584   */\n      0x00\n        /* \"#utility.yul\":8602:8669   */\n      tag_300\n        /* \"#utility.yul\":8666:8668   */\n      0x1b\n        /* \"#utility.yul\":8661:8664   */\n      dup4\n        /* \"#utility.yul\":8602:8669   */\n      tag_171\n      jump\t// in\n    tag_300:\n        /* \"#utility.yul\":8595:8669   */\n      swap2\n      pop\n        /* \"#utility.yul\":8678:8771   */\n      tag_301\n        /* \"#utility.yul\":8767:8770   */\n      dup3\n        /* \"#utility.yul\":8678:8771   */\n      tag_199\n      jump\t// in\n    tag_301:\n        /* \"#utility.yul\":8796:8798   */\n      0x20\n        /* \"#utility.yul\":8791:8794   */\n      dup3\n        /* \"#utility.yul\":8787:8799   */\n      add\n        /* \"#utility.yul\":8780:8799   */\n      swap1\n      pop\n        /* \"#utility.yul\":8439:8805   */\n      swap2\n      swap1\n      pop\n      jump\t// out\n        /* \"#utility.yul\":8811:9230   */\n    tag_113:\n        /* \"#utility.yul\":8977:8981   */\n      0x00\n        /* \"#utility.yul\":9015:9017   */\n      0x20\n        /* \"#utility.yul\":9004:9013   */\n      dup3\n        /* \"#utility.yul\":9000:9018   */\n      add\n        /* \"#utility.yul\":8992:9018   */\n      swap1\n      pop\n        /* \"#utility.yul\":9064:9073   */\n      dup2\n        /* \"#utility.yul\":9058:9062   */\n      dup2\n        /* \"#utility.yul\":9054:9074   */\n      sub\n        /* \"#utility.yul\":9050:9051   */\n      0x00\n        /* \"#utility.yul\":9039:9048   */\n      dup4\n        /* \"#utility.yul\":9035:9052   */\n      add\n        /* \"#utility.yul\":9028:9075   */\n      mstore\n        /* \"#utility.yul\":9092:9223   */\n      tag_303\n        /* \"#utility.yul\":9218:9222   */\n      dup2\n        /* \"#utility.yul\":9092:9223   */\n      tag_200\n      jump\t// in\n    tag_303:\n        /* \"#utility.yul\":9084:9223   */\n      swap1\n      pop\n        /* \"#utility.yul\":8811:9230   */\n      swap2\n      swap1\n      pop\n      jump\t// out\n        /* \"#utility.yul\":9236:9462   */\n    tag_201:\n        /* \"#utility.yul\":9376:9410   */\n      0x5468652043616d706169676e277320646561646c696e6520686173206e6f7420\n        /* \"#utility.yul\":9372:9373   */\n      0x00\n        /* \"#utility.yul\":9364:9370   */\n      dup3\n        /* \"#utility.yul\":9360:9374   */\n      add\n        /* \"#utility.yul\":9353:9411   */\n      mstore\n        /* \"#utility.yul\":9445:9454   */\n      0x7061737365642100000000000000000000000000000000000000000000000000\n        /* \"#utility.yul\":9440:9442   */\n      0x20\n        /* \"#utility.yul\":9432:9438   */\n      dup3\n        /* \"#utility.yul\":9428:9443   */\n      add\n        /* \"#utility.yul\":9421:9455   */\n      mstore\n        /* \"#utility.yul\":9236:9462   */\n      pop\n      jump\t// out\n        /* \"#utility.yul\":9468:9834   */\n    tag_202:\n        /* \"#utility.yul\":9610:9613   */\n      0x00\n        /* \"#utility.yul\":9631:9698   */\n      tag_306\n        /* \"#utility.yul\":9695:9697   */\n      0x27\n        /* \"#utility.yul\":9690:9693   */\n      dup4\n        /* \"#utility.yul\":9631:9698   */\n      tag_171\n      jump\t// in\n    tag_306:\n        /* \"#utility.yul\":9624:9698   */\n      swap2\n      pop\n        /* \"#utility.yul\":9707:9800   */\n      tag_307\n        /* \"#utility.yul\":9796:9799   */\n      dup3\n        /* \"#utility.yul\":9707:9800   */\n      tag_201\n      jump\t// in\n    tag_307:\n        /* \"#utility.yul\":9825:9827   */\n      0x40\n        /* \"#utility.yul\":9820:9823   */\n      dup3\n        /* \"#utility.yul\":9816:9828   */\n      add\n        /* \"#utility.yul\":9809:9828   */\n      swap1\n      pop\n        /* \"#utility.yul\":9468:9834   */\n      swap2\n      swap1\n      pop\n      jump\t// out\n        /* \"#utility.yul\":9840:10259   */\n    tag_117:\n        /* \"#utility.yul\":10006:10010   */\n      0x00\n        /* \"#utility.yul\":10044:10046   */\n      0x20\n        /* \"#utility.yul\":10033:10042   */\n      dup3\n        /* \"#utility.yul\":10029:10047   */\n      add\n        /* \"#utility.yul\":10021:10047   */\n      swap1\n      pop\n        /* \"#utility.yul\":10093:10102   */\n      dup2\n        /* \"#utility.yul\":10087:10091   */\n      dup2\n        /* \"#utility.yul\":10083:10103   */\n      sub\n        /* \"#utility.yul\":10079:10080   */\n      0x00\n        /* \"#utility.yul\":10068:10077   */\n      dup4\n        /* \"#utility.yul\":10064:10081   */\n      add\n        /* \"#utility.yul\":10057:10104   */\n      mstore\n        /* \"#utility.yul\":10121:10252   */\n      tag_309\n        /* \"#utility.yul\":10247:10251   */\n      dup2\n        /* \"#utility.yul\":10121:10252   */\n      tag_202\n      jump\t// in\n    tag_309:\n        /* \"#utility.yul\":10113:10252   */\n      swap1\n      pop\n        /* \"#utility.yul\":9840:10259   */\n      swap2\n      swap1\n      pop\n      jump\t// out\n        /* \"#utility.yul\":10265:10442   */\n    tag_203:\n        /* \"#utility.yul\":10405:10434   */\n      0x416363657373207265737472696374656420746f2061646d696e210000000000\n        /* \"#utility.yul\":10401:10402   */\n      0x00\n        /* \"#utility.yul\":10393:10399   */\n      dup3\n        /* \"#utility.yul\":10389:10403   */\n      add\n        /* \"#utility.yul\":10382:10435   */\n      mstore\n        /* \"#utility.yul\":10265:10442   */\n      pop\n      jump\t// out\n        /* \"#utility.yul\":10448:10814   */\n    tag_204:\n        /* \"#utility.yul\":10590:10593   */\n      0x00\n        /* \"#utility.yul\":10611:10678   */\n      tag_312\n        /* \"#utility.yul\":10675:10677   */\n      0x1b\n        /* \"#utility.yul\":10670:10673   */\n      dup4\n        /* \"#utility.yul\":10611:10678   */\n      tag_171\n      jump\t// in\n    tag_312:\n        /* \"#utility.yul\":10604:10678   */\n      swap2\n      pop\n        /* \"#utility.yul\":10687:10780   */\n      tag_313\n        /* \"#utility.yul\":10776:10779   */\n      dup3\n        /* \"#utility.yul\":10687:10780   */\n      tag_203\n      jump\t// in\n    tag_313:\n        /* \"#utility.yul\":10805:10807   */\n      0x20\n        /* \"#utility.yul\":10800:10803   */\n      dup3\n        /* \"#utility.yul\":10796:10808   */\n      add\n        /* \"#utility.yul\":10789:10808   */\n      swap1\n      pop\n        /* \"#utility.yul\":10448:10814   */\n      swap2\n      swap1\n      pop\n      jump\t// out\n        /* \"#utility.yul\":10820:11239   */\n    tag_121:\n        /* \"#utility.yul\":10986:10990   */\n      0x00\n        /* \"#utility.yul\":11024:11026   */\n      0x20\n        /* \"#utility.yul\":11013:11022   */\n      dup3\n        /* \"#utility.yul\":11009:11027   */\n      add\n        /* \"#utility.yul\":11001:11027   */\n      swap1\n      pop\n        /* \"#utility.yul\":11073:11082   */\n      dup2\n        /* \"#utility.yul\":11067:11071   */\n      dup2\n        /* \"#utility.yul\":11063:11083   */\n      sub\n        /* \"#utility.yul\":11059:11060   */\n      0x00\n        /* \"#utility.yul\":11048:11057   */\n      dup4\n        /* \"#utility.yul\":11044:11061   */\n      add\n        /* \"#utility.yul\":11037:11084   */\n      mstore\n        /* \"#utility.yul\":11101:11232   */\n      tag_315\n        /* \"#utility.yul\":11227:11231   */\n      dup2\n        /* \"#utility.yul\":11101:11232   */\n      tag_204\n      jump\t// in\n    tag_315:\n        /* \"#utility.yul\":11093:11232   */\n      swap1\n      pop\n        /* \"#utility.yul\":10820:11239   */\n      swap2\n      swap1\n      pop\n      jump\t// out\n        /* \"#utility.yul\":11245:11425   */\n    tag_132:\n        /* \"#utility.yul\":11293:11370   */\n      0x4e487b7100000000000000000000000000000000000000000000000000000000\n        /* \"#utility.yul\":11290:11291   */\n      0x00\n        /* \"#utility.yul\":11283:11371   */\n      mstore\n        /* \"#utility.yul\":11390:11394   */\n      0x32\n        /* \"#utility.yul\":11387:11388   */\n      0x04\n        /* \"#utility.yul\":11380:11395   */\n      mstore\n        /* \"#utility.yul\":11414:11418   */\n      0x24\n        /* \"#utility.yul\":11411:11412   */\n      0x00\n        /* \"#utility.yul\":11404:11419   */\n      revert\n        /* \"#utility.yul\":11431:11747   */\n    tag_141:\n        /* \"#utility.yul\":11544:11548   */\n      0x00\n        /* \"#utility.yul\":11582:11584   */\n      0x40\n        /* \"#utility.yul\":11571:11580   */\n      dup3\n        /* \"#utility.yul\":11567:11585   */\n      add\n        /* \"#utility.yul\":11559:11585   */\n      swap1\n      pop\n        /* \"#utility.yul\":11595:11660   */\n      tag_318\n        /* \"#utility.yul\":11657:11658   */\n      0x00\n        /* \"#utility.yul\":11646:11655   */\n      dup4\n        /* \"#utility.yul\":11642:11659   */\n      add\n        /* \"#utility.yul\":11633:11639   */\n      dup6\n        /* \"#utility.yul\":11595:11660   */\n      tag_183\n      jump\t// in\n    tag_318:\n        /* \"#utility.yul\":11670:11740   */\n      tag_319\n        /* \"#utility.yul\":11736:11738   */\n      0x20\n        /* \"#utility.yul\":11725:11734   */\n      dup4\n        /* \"#utility.yul\":11721:11739   */\n      add\n        /* \"#utility.yul\":11712:11718   */\n      dup5\n        /* \"#utility.yul\":11670:11740   */\n      tag_181\n      jump\t// in\n    tag_319:\n        /* \"#utility.yul\":11431:11747   */\n      swap4\n      swap3\n      pop\n      pop\n      pop\n      jump\t// out\n        /* \"#utility.yul\":11753:11933   */\n    tag_205:\n        /* \"#utility.yul\":11801:11878   */\n      0x4e487b7100000000000000000000000000000000000000000000000000000000\n        /* \"#utility.yul\":11798:11799   */\n      0x00\n        /* \"#utility.yul\":11791:11879   */\n      mstore\n        /* \"#utility.yul\":11898:11902   */\n      0x11\n        /* \"#utility.yul\":11895:11896   */\n      0x04\n        /* \"#utility.yul\":11888:11903   */\n      mstore\n        /* \"#utility.yul\":11922:11926   */\n      0x24\n        /* \"#utility.yul\":11919:11920   */\n      0x00\n        /* \"#utility.yul\":11912:11927   */\n      revert\n        /* \"#utility.yul\":11939:12136   */\n    tag_149:\n        /* \"#utility.yul\":11978:11981   */\n      0x00\n        /* \"#utility.yul\":11997:12016   */\n      tag_322\n        /* \"#utility.yul\":12014:12015   */\n      dup3\n        /* \"#utility.yul\":11997:12016   */\n      tag_180\n      jump\t// in\n    tag_322:\n        /* \"#utility.yul\":11992:12016   */\n      swap2\n      pop\n        /* \"#utility.yul\":12030:12049   */\n      tag_323\n        /* \"#utility.yul\":12047:12048   */\n      dup4\n        /* \"#utility.yul\":12030:12049   */\n      tag_180\n      jump\t// in\n    tag_323:\n        /* \"#utility.yul\":12025:12049   */\n      swap3\n      pop\n        /* \"#utility.yul\":12072:12073   */\n      dup3\n        /* \"#utility.yul\":12069:12070   */\n      dup3\n        /* \"#utility.yul\":12065:12074   */\n      add\n        /* \"#utility.yul\":12058:12074   */\n      swap1\n      pop\n        /* \"#utility.yul\":12095:12105   */\n      0xffffffff\n        /* \"#utility.yul\":12090:12093   */\n      dup2\n        /* \"#utility.yul\":12087:12106   */\n      gt\n        /* \"#utility.yul\":12084:12129   */\n      iszero\n      tag_324\n      jumpi\n        /* \"#utility.yul\":12109:12127   */\n      tag_325\n      tag_205\n      jump\t// in\n    tag_325:\n        /* \"#utility.yul\":12084:12129   */\n    tag_324:\n        /* \"#utility.yul\":11939:12136   */\n      swap3\n      swap2\n      pop\n      pop\n      jump\t// out\n        /* \"#utility.yul\":12142:12289   */\n    tag_206:\n        /* \"#utility.yul\":12243:12254   */\n      0x00\n        /* \"#utility.yul\":12280:12283   */\n      dup2\n        /* \"#utility.yul\":12265:12283   */\n      swap1\n      pop\n        /* \"#utility.yul\":12142:12289   */\n      swap3\n      swap2\n      pop\n      pop\n      jump\t// out\n        /* \"#utility.yul\":12295:12409   */\n    tag_207:\n      pop\n      jump\t// out\n        /* \"#utility.yul\":12415:12813   */\n    tag_208:\n        /* \"#utility.yul\":12574:12577   */\n      0x00\n        /* \"#utility.yul\":12595:12678   */\n      tag_329\n        /* \"#utility.yul\":12676:12677   */\n      0x00\n        /* \"#utility.yul\":12671:12674   */\n      dup4\n        /* \"#utility.yul\":12595:12678   */\n      tag_206\n      jump\t// in\n    tag_329:\n        /* \"#utility.yul\":12588:12678   */\n      swap2\n      pop\n        /* \"#utility.yul\":12687:12780   */\n      tag_330\n        /* \"#utility.yul\":12776:12779   */\n      dup3\n        /* \"#utility.yul\":12687:12780   */\n      tag_207\n      jump\t// in\n    tag_330:\n        /* \"#utility.yul\":12805:12806   */\n      0x00\n        /* \"#utility.yul\":12800:12803   */\n      dup3\n        /* \"#utility.yul\":12796:12807   */\n      add\n        /* \"#utility.yul\":12789:12807   */\n      swap1\n      pop\n        /* \"#utility.yul\":12415:12813   */\n      swap2\n      swap1\n      pop\n      jump\t// out\n        /* \"#utility.yul\":12819:13198   */\n    tag_156:\n        /* \"#utility.yul\":13003:13006   */\n      0x00\n        /* \"#utility.yul\":13025:13172   */\n      tag_332\n        /* \"#utility.yul\":13168:13171   */\n      dup3\n        /* \"#utility.yul\":13025:13172   */\n      tag_208\n      jump\t// in\n    tag_332:\n        /* \"#utility.yul\":13018:13172   */\n      swap2\n      pop\n        /* \"#utility.yul\":13189:13192   */\n      dup2\n        /* \"#utility.yul\":13182:13192   */\n      swap1\n      pop\n        /* \"#utility.yul\":12819:13198   */\n      swap2\n      swap1\n      pop\n      jump\t// out\n        /* \"#utility.yul\":13204:13378   */\n    tag_209:\n        /* \"#utility.yul\":13344:13370   */\n      0x556e61626c6520746f2072656c656173652066756e6473210000000000000000\n        /* \"#utility.yul\":13340:13341   */\n      0x00\n        /* \"#utility.yul\":13332:13338   */\n      dup3\n        /* \"#utility.yul\":13328:13342   */\n      add\n        /* \"#utility.yul\":13321:13371   */\n      mstore\n        /* \"#utility.yul\":13204:13378   */\n      pop\n      jump\t// out\n        /* \"#utility.yul\":13384:13750   */\n    tag_210:\n        /* \"#utility.yul\":13526:13529   */\n      0x00\n        /* \"#utility.yul\":13547:13614   */\n      tag_335\n        /* \"#utility.yul\":13611:13613   */\n      0x18\n        /* \"#utility.yul\":13606:13609   */\n      dup4\n        /* \"#utility.yul\":13547:13614   */\n      tag_171\n      jump\t// in\n    tag_335:\n        /* \"#utility.yul\":13540:13614   */\n      swap2\n      pop\n        /* \"#utility.yul\":13623:13716   */\n      tag_336\n        /* \"#utility.yul\":13712:13715   */\n      dup3\n        /* \"#utility.yul\":13623:13716   */\n      tag_209\n      jump\t// in\n    tag_336:\n        /* \"#utility.yul\":13741:13743   */\n      0x20\n        /* \"#utility.yul\":13736:13739   */\n      dup3\n        /* \"#utility.yul\":13732:13744   */\n      add\n        /* \"#utility.yul\":13725:13744   */\n      swap1\n      pop\n        /* \"#utility.yul\":13384:13750   */\n      swap2\n      swap1\n      pop\n      jump\t// out\n        /* \"#utility.yul\":13756:14175   */\n    tag_162:\n        /* \"#utility.yul\":13922:13926   */\n      0x00\n        /* \"#utility.yul\":13960:13962   */\n      0x20\n        /* \"#utility.yul\":13949:13958   */\n      dup3\n        /* \"#utility.yul\":13945:13963   */\n      add\n        /* \"#utility.yul\":13937:13963   */\n      swap1\n      pop\n        /* \"#utility.yul\":14009:14018   */\n      dup2\n        /* \"#utility.yul\":14003:14007   */\n      dup2\n        /* \"#utility.yul\":13999:14019   */\n      sub\n        /* \"#utility.yul\":13995:13996   */\n      0x00\n        /* \"#utility.yul\":13984:13993   */\n      dup4\n        /* \"#utility.yul\":13980:13997   */\n      add\n        /* \"#utility.yul\":13973:14020   */\n      mstore\n        /* \"#utility.yul\":14037:14168   */\n      tag_338\n        /* \"#utility.yul\":14163:14167   */\n      dup2\n        /* \"#utility.yul\":14037:14168   */\n      tag_210\n      jump\t// in\n    tag_338:\n        /* \"#utility.yul\":14029:14168   */\n      swap1\n      pop\n        /* \"#utility.yul\":13756:14175   */\n      swap2\n      swap1\n      pop\n      jump\t// out\n\n    auxdata: 0xa2646970667358221220e9048c8876ff753d28406411e39e138e4378a4553624b734832c44e4840f6da264736f6c634300081a0033\n}\n",
				"bytecode": {
					"linkReferences": {},
					"object": "60e060405234801561000f575f80fd5b50604051611e90380380611e9083398181016040528101906100319190610319565b8573ffffffffffffffffffffffffffffffffffffffff1660808173ffffffffffffffffffffffffffffffffffffffff16815250508460055f6101000a81548173ffffffffffffffffffffffffffffffffffffffff021916908373ffffffffffffffffffffffffffffffffffffffff160217905550835f90816100b391906105de565b5082600190816100c391906105de565b508163ffffffff1660c08163ffffffff16815250508060a081815250506001600260046101000a81548160ff0219169083151502179055505050505050506106ad565b5f604051905090565b5f80fd5b5f80fd5b5f73ffffffffffffffffffffffffffffffffffffffff82169050919050565b5f61014082610117565b9050919050565b61015081610136565b811461015a575f80fd5b50565b5f8151905061016b81610147565b92915050565b5f80fd5b5f80fd5b5f601f19601f8301169050919050565b7f4e487b71000000000000000000000000000000000000000000000000000000005f52604160045260245ffd5b6101bf82610179565b810181811067ffffffffffffffff821117156101de576101dd610189565b5b80604052505050565b5f6101f0610106565b90506101fc82826101b6565b919050565b5f67ffffffffffffffff82111561021b5761021a610189565b5b61022482610179565b9050602081019050919050565b8281835e5f83830152505050565b5f61025161024c84610201565b6101e7565b90508281526020810184848401111561026d5761026c610175565b5b610278848285610231565b509392505050565b5f82601f83011261029457610293610171565b5b81516102a484826020860161023f565b91505092915050565b5f63ffffffff82169050919050565b6102c5816102ad565b81146102cf575f80fd5b50565b5f815190506102e0816102bc565b92915050565b5f819050919050565b6102f8816102e6565b8114610302575f80fd5b50565b5f81519050610313816102ef565b92915050565b5f805f805f8060c087890312156103335761033261010f565b5b5f61034089828a0161015d565b965050602061035189828a0161015d565b955050604087015167ffffffffffffffff81111561037257610371610113565b5b61037e89828a01610280565b945050606087015167ffffffffffffffff81111561039f5761039e610113565b5b6103ab89828a01610280565b93505060806103bc89828a016102d2565b92505060a06103cd89828a01610305565b9150509295509295509295565b5f81519050919050565b7f4e487b71000000000000000000000000000000000000000000000000000000005f52602260045260245ffd5b5f600282049050600182168061042857607f821691505b60208210810361043b5761043a6103e4565b5b50919050565b5f819050815f5260205f209050919050565b5f6020601f8301049050919050565b5f82821b905092915050565b5f6008830261049d7fffffffffffffffffffffffffffffffffffffffffffffffffffffffffffffffff82610462565b6104a78683610462565b95508019841693508086168417925050509392505050565b5f819050919050565b5f6104e26104dd6104d8846102e6565b6104bf565b6102e6565b9050919050565b5f819050919050565b6104fb836104c8565b61050f610507826104e9565b84845461046e565b825550505050565b5f90565b610523610517565b61052e8184846104f2565b505050565b5b81811015610551576105465f8261051b565b600181019050610534565b5050565b601f8211156105965761056781610441565b61057084610453565b8101602085101561057f578190505b61059361058b85610453565b830182610533565b50505b505050565b5f82821c905092915050565b5f6105b65f198460080261059b565b1980831691505092915050565b5f6105ce83836105a7565b9150826002028217905092915050565b6105e7826103da565b67ffffffffffffffff811115610600576105ff610189565b5b61060a8254610411565b610615828285610555565b5f60209050601f831160018114610646575f8415610634578287015190505b61063e85826105c3565b8655506106a5565b601f19841661065486610441565b5f5b8281101561067b57848901518255600182019150602085019450602081019050610656565b868310156106985784890151610694601f8916826105a7565b8355505b6001600288020188555050505b505050505050565b60805160a05160c05161176c6107245f395f8181610512015281816106860152818161088a0152610dd801525f81816104ef01528181610577015261079901525f81816103b70152818161059b01528181610acd01528181610d5301528181610e8201528181610f4f0152610fd4015261176c5ff3fe6080604052600436106100dc575f3560e01c80637a3a0e841161007e578063a1211bc011610058578063a1211bc01461029c578063cc6cb19a146102b2578063ed88c68e146102ee578063f851a440146102f8576100dc565b80637a3a0e841461021e578063968ed6001461024857806396f300d414610272576100dc565b806329dcb0cf116100ba57806329dcb0cf1461016457806338af3eed1461018e5780634abfa163146101b85780637284e416146101f4576100dc565b806306fdde03146100e05780630c611f241461010a57806322f3e2d41461013a575b5f80fd5b3480156100eb575f80fd5b506100f4610322565b6040516101019190611107565b60405180910390f35b348015610115575f80fd5b5061011e6103ad565b60405161013197969594939291906111b6565b60405180910390f35b348015610145575f80fd5b5061014e610562565b60405161015b9190611231565b60405180910390f35b34801561016f575f80fd5b50610178610575565b604051610185919061124a565b60405180910390f35b348015610199575f80fd5b506101a2610599565b6040516101af9190611263565b60405180910390f35b3480156101c3575f80fd5b506101de60048036038101906101d991906112aa565b6105bd565b6040516101eb9190611263565b60405180910390f35b3480156101ff575f80fd5b506102086105f8565b6040516102159190611107565b60405180910390f35b348015610229575f80fd5b50610232610684565b60405161023f91906112d5565b60405180910390f35b348015610253575f80fd5b5061025c6106a8565b60405161026991906112d5565b60405180910390f35b34801561027d575f80fd5b506102866106bd565b60405161029391906113a5565b60405180910390f35b3480156102a7575f80fd5b506102b0610748565b005b3480156102bd575f80fd5b506102d860048036038101906102d391906113ef565b610b67565b6040516102e591906112d5565b60405180910390f35b6102f6610b87565b005b348015610303575f80fd5b5061030c610e17565b6040516103199190611263565b60405180910390f35b5f805461032e90611447565b80601f016020809104026020016040519081016040528092919081815260200182805461035a90611447565b80156103a55780601f1061037c576101008083540402835291602001916103a5565b820191905f5260205f20905b81548152906001019060200180831161038857829003601f168201915b505050505081565b5f6060805f805f807f000000000000000000000000000000000000000000000000000000000000000096505f80546103e490611447565b80601f016020809104026020016040519081016040528092919081815260200182805461041090611447565b801561045b5780601f106104325761010080835404028352916020019161045b565b820191905f5260205f20905b81548152906001019060200180831161043e57829003601f168201915b505050505095506001805461046f90611447565b80601f016020809104026020016040519081016040528092919081815260200182805461049b90611447565b80156104e65780601f106104bd576101008083540402835291602001916104e6565b820191905f5260205f20905b8154815290600101906020018083116104c957829003601f168201915b505050505094507f000000000000000000000000000000000000000000000000000000000000000093507f0000000000000000000000000000000000000000000000000000000000000000925060025f9054906101000a900463ffffffff169150600260049054906101000a900460ff16905090919293949596565b600260049054906101000a900460ff1681565b7f000000000000000000000000000000000000000000000000000000000000000081565b7f000000000000000000000000000000000000000000000000000000000000000081565b600481815481106105cc575f80fd5b905f5260205f20015f915054906101000a900473ffffffffffffffffffffffffffffffffffffffff1681565b6001805461060590611447565b80601f016020809104026020016040519081016040528092919081815260200182805461063190611447565b801561067c5780601f106106535761010080835404028352916020019161067c565b820191905f5260205f20905b81548152906001019060200180831161065f57829003601f168201915b505050505081565b7f000000000000000000000000000000000000000000000000000000000000000081565b60025f9054906101000a900463ffffffff1681565b6060600480548060200260200160405190810160405280929190818152602001828054801561073e57602002820191905f5260205f20905b815f9054906101000a900473ffffffffffffffffffffffffffffffffffffffff1673ffffffffffffffffffffffffffffffffffffffff16815260200190600101908083116106f5575b5050505050905090565b600260049054906101000a900460ff16610797576040517f08c379a000000000000000000000000000000000000000000000000000000000815260040161078e906114c1565b60405180910390fd5b7f000000000000000000000000000000000000000000000000000000000000000042116107f9576040517f08c379a00000000000000000000000000000000000000000000000000000000081526004016107f09061154f565b60405180910390fd5b60055f9054906101000a900473ffffffffffffffffffffffffffffffffffffffff1673ffffffffffffffffffffffffffffffffffffffff163373ffffffffffffffffffffffffffffffffffffffff1614610888576040517f08c379a000000000000000000000000000000000000000000000000000000000815260040161087f906115b7565b60405180910390fd5b7f000000000000000000000000000000000000000000000000000000000000000063ffffffff1660025f9054906101000a900463ffffffff1663ffffffff16106108d9576108d4610e3c565b610b65565b5f600260046101000a81548160ff0219169083151502179055505f60048054905090505f5b81811015610abd575f6004828154811061091b5761091a6115d5565b5b905f5260205f20015f9054906101000a900473ffffffffffffffffffffffffffffffffffffffff1690505f60035f8373ffffffffffffffffffffffffffffffffffffffff1673ffffffffffffffffffffffffffffffffffffffff1681526020019081526020015f205f9054906101000a900463ffffffff1690505f8163ffffffff161115610aae575f60035f8473ffffffffffffffffffffffffffffffffffffffff1673ffffffffffffffffffffffffffffffffffffffff1681526020019081526020015f205f6101000a81548163ffffffff021916908363ffffffff1602179055508173ffffffffffffffffffffffffffffffffffffffff166108fc8263ffffffff1690811502906040515f60405180830381858888f19350505050158015610a47573d5f803e3d5ffd5b508173ffffffffffffffffffffffffffffffffffffffff163073ffffffffffffffffffffffffffffffffffffffff167fcbaf39f3d8f9a55dbfd111d1803615438ca90cd340bf43a9b32af9967cb268b083604051610aa591906112d5565b60405180910390a35b505080806001019150506108fe565b5060045f610acb919061105e565b7f000000000000000000000000000000000000000000000000000000000000000073ffffffffffffffffffffffffffffffffffffffff163073ffffffffffffffffffffffffffffffffffffffff167ff8b5bc9a22de51519f1a92f78276ca83d891d1edf8dd4263ccb6032594644b655f60025f9054906101000a900463ffffffff16604051610b5b929190611602565b60405180910390a3505b565b6003602052805f5260405f205f915054906101000a900463ffffffff1681565b600260049054906101000a900460ff16610bd6576040517f08c379a0000000000000000000000000000000000000000000000000000000008152600401610bcd906114c1565b60405180910390fd5b5f3390505f3490505f60035f8473ffffffffffffffffffffffffffffffffffffffff1673ffffffffffffffffffffffffffffffffffffffff1681526020019081526020015f205f9054906101000a900463ffffffff1663ffffffff1603610c9857600482908060018154018082558091505060019003905f5260205f20015f9091909190916101000a81548173ffffffffffffffffffffffffffffffffffffffff021916908373ffffffffffffffffffffffffffffffffffffffff1602179055505b8060035f8473ffffffffffffffffffffffffffffffffffffffff1673ffffffffffffffffffffffffffffffffffffffff1681526020019081526020015f205f8282829054906101000a900463ffffffff16610cf39190611656565b92506101000a81548163ffffffff021916908363ffffffff1602179055505f8160025f9054906101000a900463ffffffff16610d2f9190611656565b90508060025f6101000a81548163ffffffff021916908363ffffffff1602179055507f000000000000000000000000000000000000000000000000000000000000000073ffffffffffffffffffffffffffffffffffffffff163073ffffffffffffffffffffffffffffffffffffffff167f4bcad339364614747037d489debcab743e155b2486ad23759d702d48c30a7dc684604051610dce91906112d5565b60405180910390a37f000000000000000000000000000000000000000000000000000000000000000063ffffffff168163ffffffff1610610e1257610e11610e3c565b5b505050565b60055f9054906101000a900473ffffffffffffffffffffffffffffffffffffffff1681565b5f60025f9054906101000a900463ffffffff16905060025f6101000a81549063ffffffff02191690555f600260046101000a81548160ff0219169083151502179055505f7f000000000000000000000000000000000000000000000000000000000000000073ffffffffffffffffffffffffffffffffffffffff168263ffffffff16604051610eca906116ba565b5f6040518083038185875af1925050503d805f8114610f04576040519150601f19603f3d011682016040523d82523d5f602084013e610f09565b606091505b5050905080610f4d576040517f08c379a0000000000000000000000000000000000000000000000000000000008152600401610f4490611718565b60405180910390fd5b7f000000000000000000000000000000000000000000000000000000000000000073ffffffffffffffffffffffffffffffffffffffff163073ffffffffffffffffffffffffffffffffffffffff167f9a2d22bdc446507e83df389ff5730c89bb47efe4486aa9fe07032b2b7339ee7f84604051610fca91906112d5565b60405180910390a37f000000000000000000000000000000000000000000000000000000000000000073ffffffffffffffffffffffffffffffffffffffff163073ffffffffffffffffffffffffffffffffffffffff167ff8b5bc9a22de51519f1a92f78276ca83d891d1edf8dd4263ccb6032594644b65600185604051611052929190611602565b60405180910390a35050565b5080545f8255905f5260205f2090810190611079919061107c565b50565b5b80821115611093575f815f90555060010161107d565b5090565b5f81519050919050565b5f82825260208201905092915050565b8281835e5f83830152505050565b5f601f19601f8301169050919050565b5f6110d982611097565b6110e381856110a1565b93506110f38185602086016110b1565b6110fc816110bf565b840191505092915050565b5f6020820190508181035f83015261111f81846110cf565b905092915050565b5f73ffffffffffffffffffffffffffffffffffffffff82169050919050565b5f61115082611127565b9050919050565b61116081611146565b82525050565b5f819050919050565b61117881611166565b82525050565b5f63ffffffff82169050919050565b6111968161117e565b82525050565b5f8115159050919050565b6111b08161119c565b82525050565b5f60e0820190506111c95f83018a611157565b81810360208301526111db81896110cf565b905081810360408301526111ef81886110cf565b90506111fe606083018761116f565b61120b608083018661118d565b61121860a083018561118d565b61122560c08301846111a7565b98975050505050505050565b5f6020820190506112445f8301846111a7565b92915050565b5f60208201905061125d5f83018461116f565b92915050565b5f6020820190506112765f830184611157565b92915050565b5f80fd5b61128981611166565b8114611293575f80fd5b50565b5f813590506112a481611280565b92915050565b5f602082840312156112bf576112be61127c565b5b5f6112cc84828501611296565b91505092915050565b5f6020820190506112e85f83018461118d565b92915050565b5f81519050919050565b5f82825260208201905092915050565b5f819050602082019050919050565b61132081611146565b82525050565b5f6113318383611317565b60208301905092915050565b5f602082019050919050565b5f611353826112ee565b61135d81856112f8565b935061136883611308565b805f5b8381101561139857815161137f8882611326565b975061138a8361133d565b92505060018101905061136b565b5085935050505092915050565b5f6020820190508181035f8301526113bd8184611349565b905092915050565b6113ce81611146565b81146113d8575f80fd5b50565b5f813590506113e9816113c5565b92915050565b5f602082840312156114045761140361127c565b5b5f611411848285016113db565b91505092915050565b7f4e487b71000000000000000000000000000000000000000000000000000000005f52602260045260245ffd5b5f600282049050600182168061145e57607f821691505b6020821081036114715761147061141a565b5b50919050565b7f5468652043616d706169676e206973206e6f74206163746976652100000000005f82015250565b5f6114ab601b836110a1565b91506114b682611477565b602082019050919050565b5f6020820190508181035f8301526114d88161149f565b9050919050565b7f5468652043616d706169676e277320646561646c696e6520686173206e6f74205f8201527f7061737365642100000000000000000000000000000000000000000000000000602082015250565b5f6115396027836110a1565b9150611544826114df565b604082019050919050565b5f6020820190508181035f8301526115668161152d565b9050919050565b7f416363657373207265737472696374656420746f2061646d696e2100000000005f82015250565b5f6115a1601b836110a1565b91506115ac8261156d565b602082019050919050565b5f6020820190508181035f8301526115ce81611595565b9050919050565b7f4e487b71000000000000000000000000000000000000000000000000000000005f52603260045260245ffd5b5f6040820190506116155f8301856111a7565b611622602083018461118d565b9392505050565b7f4e487b71000000000000000000000000000000000000000000000000000000005f52601160045260245ffd5b5f6116608261117e565b915061166b8361117e565b9250828201905063ffffffff81111561168757611686611629565b5b92915050565b5f81905092915050565b50565b5f6116a55f8361168d565b91506116b082611697565b5f82019050919050565b5f6116c48261169a565b9150819050919050565b7f556e61626c6520746f2072656c656173652066756e64732100000000000000005f82015250565b5f6117026018836110a1565b915061170d826116ce565b602082019050919050565b5f6020820190508181035f83015261172f816116f6565b905091905056fea2646970667358221220e9048c8876ff753d28406411e39e138e4378a4553624b734832c44e4840f6da264736f6c634300081a0033",
					"opcodes": "PUSH1 0xE0 PUSH1 0x40 MSTORE CALLVALUE DUP1 ISZERO PUSH2 0xF JUMPI PUSH0 DUP1 REVERT JUMPDEST POP PUSH1 0x40 MLOAD PUSH2 0x1E90 CODESIZE SUB DUP1 PUSH2 0x1E90 DUP4 CODECOPY DUP2 DUP2 ADD PUSH1 0x40 MSTORE DUP2 ADD SWAP1 PUSH2 0x31 SWAP2 SWAP1 PUSH2 0x319 JUMP JUMPDEST DUP6 PUSH20 0xFFFFFFFFFFFFFFFFFFFFFFFFFFFFFFFFFFFFFFFF AND PUSH1 0x80 DUP2 PUSH20 0xFFFFFFFFFFFFFFFFFFFFFFFFFFFFFFFFFFFFFFFF AND DUP2 MSTORE POP POP DUP5 PUSH1 0x5 PUSH0 PUSH2 0x100 EXP DUP2 SLOAD DUP2 PUSH20 0xFFFFFFFFFFFFFFFFFFFFFFFFFFFFFFFFFFFFFFFF MUL NOT AND SWAP1 DUP4 PUSH20 0xFFFFFFFFFFFFFFFFFFFFFFFFFFFFFFFFFFFFFFFF AND MUL OR SWAP1 SSTORE POP DUP4 PUSH0 SWAP1 DUP2 PUSH2 0xB3 SWAP2 SWAP1 PUSH2 0x5DE JUMP JUMPDEST POP DUP3 PUSH1 0x1 SWAP1 DUP2 PUSH2 0xC3 SWAP2 SWAP1 PUSH2 0x5DE JUMP JUMPDEST POP DUP2 PUSH4 0xFFFFFFFF AND PUSH1 0xC0 DUP2 PUSH4 0xFFFFFFFF AND DUP2 MSTORE POP POP DUP1 PUSH1 0xA0 DUP2 DUP2 MSTORE POP POP PUSH1 0x1 PUSH1 0x2 PUSH1 0x4 PUSH2 0x100 EXP DUP2 SLOAD DUP2 PUSH1 0xFF MUL NOT AND SWAP1 DUP4 ISZERO ISZERO MUL OR SWAP1 SSTORE POP POP POP POP POP POP POP PUSH2 0x6AD JUMP JUMPDEST PUSH0 PUSH1 0x40 MLOAD SWAP1 POP SWAP1 JUMP JUMPDEST PUSH0 DUP1 REVERT JUMPDEST PUSH0 DUP1 REVERT JUMPDEST PUSH0 PUSH20 0xFFFFFFFFFFFFFFFFFFFFFFFFFFFFFFFFFFFFFFFF DUP3 AND SWAP1 POP SWAP2 SWAP1 POP JUMP JUMPDEST PUSH0 PUSH2 0x140 DUP3 PUSH2 0x117 JUMP JUMPDEST SWAP1 POP SWAP2 SWAP1 POP JUMP JUMPDEST PUSH2 0x150 DUP2 PUSH2 0x136 JUMP JUMPDEST DUP2 EQ PUSH2 0x15A JUMPI PUSH0 DUP1 REVERT JUMPDEST POP JUMP JUMPDEST PUSH0 DUP2 MLOAD SWAP1 POP PUSH2 0x16B DUP2 PUSH2 0x147 JUMP JUMPDEST SWAP3 SWAP2 POP POP JUMP JUMPDEST PUSH0 DUP1 REVERT JUMPDEST PUSH0 DUP1 REVERT JUMPDEST PUSH0 PUSH1 0x1F NOT PUSH1 0x1F DUP4 ADD AND SWAP1 POP SWAP2 SWAP1 POP JUMP JUMPDEST PUSH32 0x4E487B7100000000000000000000000000000000000000000000000000000000 PUSH0 MSTORE PUSH1 0x41 PUSH1 0x4 MSTORE PUSH1 0x24 PUSH0 REVERT JUMPDEST PUSH2 0x1BF DUP3 PUSH2 0x179 JUMP JUMPDEST DUP2 ADD DUP2 DUP2 LT PUSH8 0xFFFFFFFFFFFFFFFF DUP3 GT OR ISZERO PUSH2 0x1DE JUMPI PUSH2 0x1DD PUSH2 0x189 JUMP JUMPDEST JUMPDEST DUP1 PUSH1 0x40 MSTORE POP POP POP JUMP JUMPDEST PUSH0 PUSH2 0x1F0 PUSH2 0x106 JUMP JUMPDEST SWAP1 POP PUSH2 0x1FC DUP3 DUP3 PUSH2 0x1B6 JUMP JUMPDEST SWAP2 SWAP1 POP JUMP JUMPDEST PUSH0 PUSH8 0xFFFFFFFFFFFFFFFF DUP3 GT ISZERO PUSH2 0x21B JUMPI PUSH2 0x21A PUSH2 0x189 JUMP JUMPDEST JUMPDEST PUSH2 0x224 DUP3 PUSH2 0x179 JUMP JUMPDEST SWAP1 POP PUSH1 0x20 DUP2 ADD SWAP1 POP SWAP2 SWAP1 POP JUMP JUMPDEST DUP3 DUP2 DUP4 MCOPY PUSH0 DUP4 DUP4 ADD MSTORE POP POP POP JUMP JUMPDEST PUSH0 PUSH2 0x251 PUSH2 0x24C DUP5 PUSH2 0x201 JUMP JUMPDEST PUSH2 0x1E7 JUMP JUMPDEST SWAP1 POP DUP3 DUP2 MSTORE PUSH1 0x20 DUP2 ADD DUP5 DUP5 DUP5 ADD GT ISZERO PUSH2 0x26D JUMPI PUSH2 0x26C PUSH2 0x175 JUMP JUMPDEST JUMPDEST PUSH2 0x278 DUP5 DUP3 DUP6 PUSH2 0x231 JUMP JUMPDEST POP SWAP4 SWAP3 POP POP POP JUMP JUMPDEST PUSH0 DUP3 PUSH1 0x1F DUP4 ADD SLT PUSH2 0x294 JUMPI PUSH2 0x293 PUSH2 0x171 JUMP JUMPDEST JUMPDEST DUP2 MLOAD PUSH2 0x2A4 DUP5 DUP3 PUSH1 0x20 DUP7 ADD PUSH2 0x23F JUMP JUMPDEST SWAP2 POP POP SWAP3 SWAP2 POP POP JUMP JUMPDEST PUSH0 PUSH4 0xFFFFFFFF DUP3 AND SWAP1 POP SWAP2 SWAP1 POP JUMP JUMPDEST PUSH2 0x2C5 DUP2 PUSH2 0x2AD JUMP JUMPDEST DUP2 EQ PUSH2 0x2CF JUMPI PUSH0 DUP1 REVERT JUMPDEST POP JUMP JUMPDEST PUSH0 DUP2 MLOAD SWAP1 POP PUSH2 0x2E0 DUP2 PUSH2 0x2BC JUMP JUMPDEST SWAP3 SWAP2 POP POP JUMP JUMPDEST PUSH0 DUP2 SWAP1 POP SWAP2 SWAP1 POP JUMP JUMPDEST PUSH2 0x2F8 DUP2 PUSH2 0x2E6 JUMP JUMPDEST DUP2 EQ PUSH2 0x302 JUMPI PUSH0 DUP1 REVERT JUMPDEST POP JUMP JUMPDEST PUSH0 DUP2 MLOAD SWAP1 POP PUSH2 0x313 DUP2 PUSH2 0x2EF JUMP JUMPDEST SWAP3 SWAP2 POP POP JUMP JUMPDEST PUSH0 DUP1 PUSH0 DUP1 PUSH0 DUP1 PUSH1 0xC0 DUP8 DUP10 SUB SLT ISZERO PUSH2 0x333 JUMPI PUSH2 0x332 PUSH2 0x10F JUMP JUMPDEST JUMPDEST PUSH0 PUSH2 0x340 DUP10 DUP3 DUP11 ADD PUSH2 0x15D JUMP JUMPDEST SWAP7 POP POP PUSH1 0x20 PUSH2 0x351 DUP10 DUP3 DUP11 ADD PUSH2 0x15D JUMP JUMPDEST SWAP6 POP POP PUSH1 0x40 DUP8 ADD MLOAD PUSH8 0xFFFFFFFFFFFFFFFF DUP2 GT ISZERO PUSH2 0x372 JUMPI PUSH2 0x371 PUSH2 0x113 JUMP JUMPDEST JUMPDEST PUSH2 0x37E DUP10 DUP3 DUP11 ADD PUSH2 0x280 JUMP JUMPDEST SWAP5 POP POP PUSH1 0x60 DUP8 ADD MLOAD PUSH8 0xFFFFFFFFFFFFFFFF DUP2 GT ISZERO PUSH2 0x39F JUMPI PUSH2 0x39E PUSH2 0x113 JUMP JUMPDEST JUMPDEST PUSH2 0x3AB DUP10 DUP3 DUP11 ADD PUSH2 0x280 JUMP JUMPDEST SWAP4 POP POP PUSH1 0x80 PUSH2 0x3BC DUP10 DUP3 DUP11 ADD PUSH2 0x2D2 JUMP JUMPDEST SWAP3 POP POP PUSH1 0xA0 PUSH2 0x3CD DUP10 DUP3 DUP11 ADD PUSH2 0x305 JUMP JUMPDEST SWAP2 POP POP SWAP3 SWAP6 POP SWAP3 SWAP6 POP SWAP3 SWAP6 JUMP JUMPDEST PUSH0 DUP2 MLOAD SWAP1 POP SWAP2 SWAP1 POP JUMP JUMPDEST PUSH32 0x4E487B7100000000000000000000000000000000000000000000000000000000 PUSH0 MSTORE PUSH1 0x22 PUSH1 0x4 MSTORE PUSH1 0x24 PUSH0 REVERT JUMPDEST PUSH0 PUSH1 0x2 DUP3 DIV SWAP1 POP PUSH1 0x1 DUP3 AND DUP1 PUSH2 0x428 JUMPI PUSH1 0x7F DUP3 AND SWAP2 POP JUMPDEST PUSH1 0x20 DUP3 LT DUP2 SUB PUSH2 0x43B JUMPI PUSH2 0x43A PUSH2 0x3E4 JUMP JUMPDEST JUMPDEST POP SWAP2 SWAP1 POP JUMP JUMPDEST PUSH0 DUP2 SWAP1 POP DUP2 PUSH0 MSTORE PUSH1 0x20 PUSH0 KECCAK256 SWAP1 POP SWAP2 SWAP1 POP JUMP JUMPDEST PUSH0 PUSH1 0x20 PUSH1 0x1F DUP4 ADD DIV SWAP1 POP SWAP2 SWAP1 POP JUMP JUMPDEST PUSH0 DUP3 DUP3 SHL SWAP1 POP SWAP3 SWAP2 POP POP JUMP JUMPDEST PUSH0 PUSH1 0x8 DUP4 MUL PUSH2 0x49D PUSH32 0xFFFFFFFFFFFFFFFFFFFFFFFFFFFFFFFFFFFFFFFFFFFFFFFFFFFFFFFFFFFFFFFF DUP3 PUSH2 0x462 JUMP JUMPDEST PUSH2 0x4A7 DUP7 DUP4 PUSH2 0x462 JUMP JUMPDEST SWAP6 POP DUP1 NOT DUP5 AND SWAP4 POP DUP1 DUP7 AND DUP5 OR SWAP3 POP POP POP SWAP4 SWAP3 POP POP POP JUMP JUMPDEST PUSH0 DUP2 SWAP1 POP SWAP2 SWAP1 POP JUMP JUMPDEST PUSH0 PUSH2 0x4E2 PUSH2 0x4DD PUSH2 0x4D8 DUP5 PUSH2 0x2E6 JUMP JUMPDEST PUSH2 0x4BF JUMP JUMPDEST PUSH2 0x2E6 JUMP JUMPDEST SWAP1 POP SWAP2 SWAP1 POP JUMP JUMPDEST PUSH0 DUP2 SWAP1 POP SWAP2 SWAP1 POP JUMP JUMPDEST PUSH2 0x4FB DUP4 PUSH2 0x4C8 JUMP JUMPDEST PUSH2 0x50F PUSH2 0x507 DUP3 PUSH2 0x4E9 JUMP JUMPDEST DUP5 DUP5 SLOAD PUSH2 0x46E JUMP JUMPDEST DUP3 SSTORE POP POP POP POP JUMP JUMPDEST PUSH0 SWAP1 JUMP JUMPDEST PUSH2 0x523 PUSH2 0x517 JUMP JUMPDEST PUSH2 0x52E DUP2 DUP5 DUP5 PUSH2 0x4F2 JUMP JUMPDEST POP POP POP JUMP JUMPDEST JUMPDEST DUP2 DUP2 LT ISZERO PUSH2 0x551 JUMPI PUSH2 0x546 PUSH0 DUP3 PUSH2 0x51B JUMP JUMPDEST PUSH1 0x1 DUP2 ADD SWAP1 POP PUSH2 0x534 JUMP JUMPDEST POP POP JUMP JUMPDEST PUSH1 0x1F DUP3 GT ISZERO PUSH2 0x596 JUMPI PUSH2 0x567 DUP2 PUSH2 0x441 JUMP JUMPDEST PUSH2 0x570 DUP5 PUSH2 0x453 JUMP JUMPDEST DUP2 ADD PUSH1 0x20 DUP6 LT ISZERO PUSH2 0x57F JUMPI DUP2 SWAP1 POP JUMPDEST PUSH2 0x593 PUSH2 0x58B DUP6 PUSH2 0x453 JUMP JUMPDEST DUP4 ADD DUP3 PUSH2 0x533 JUMP JUMPDEST POP POP JUMPDEST POP POP POP JUMP JUMPDEST PUSH0 DUP3 DUP3 SHR SWAP1 POP SWAP3 SWAP2 POP POP JUMP JUMPDEST PUSH0 PUSH2 0x5B6 PUSH0 NOT DUP5 PUSH1 0x8 MUL PUSH2 0x59B JUMP JUMPDEST NOT DUP1 DUP4 AND SWAP2 POP POP SWAP3 SWAP2 POP POP JUMP JUMPDEST PUSH0 PUSH2 0x5CE DUP4 DUP4 PUSH2 0x5A7 JUMP JUMPDEST SWAP2 POP DUP3 PUSH1 0x2 MUL DUP3 OR SWAP1 POP SWAP3 SWAP2 POP POP JUMP JUMPDEST PUSH2 0x5E7 DUP3 PUSH2 0x3DA JUMP JUMPDEST PUSH8 0xFFFFFFFFFFFFFFFF DUP2 GT ISZERO PUSH2 0x600 JUMPI PUSH2 0x5FF PUSH2 0x189 JUMP JUMPDEST JUMPDEST PUSH2 0x60A DUP3 SLOAD PUSH2 0x411 JUMP JUMPDEST PUSH2 0x615 DUP3 DUP3 DUP6 PUSH2 0x555 JUMP JUMPDEST PUSH0 PUSH1 0x20 SWAP1 POP PUSH1 0x1F DUP4 GT PUSH1 0x1 DUP2 EQ PUSH2 0x646 JUMPI PUSH0 DUP5 ISZERO PUSH2 0x634 JUMPI DUP3 DUP8 ADD MLOAD SWAP1 POP JUMPDEST PUSH2 0x63E DUP6 DUP3 PUSH2 0x5C3 JUMP JUMPDEST DUP7 SSTORE POP PUSH2 0x6A5 JUMP JUMPDEST PUSH1 0x1F NOT DUP5 AND PUSH2 0x654 DUP7 PUSH2 0x441 JUMP JUMPDEST PUSH0 JUMPDEST DUP3 DUP2 LT ISZERO PUSH2 0x67B JUMPI DUP5 DUP10 ADD MLOAD DUP3 SSTORE PUSH1 0x1 DUP3 ADD SWAP2 POP PUSH1 0x20 DUP6 ADD SWAP5 POP PUSH1 0x20 DUP2 ADD SWAP1 POP PUSH2 0x656 JUMP JUMPDEST DUP7 DUP4 LT ISZERO PUSH2 0x698 JUMPI DUP5 DUP10 ADD MLOAD PUSH2 0x694 PUSH1 0x1F DUP10 AND DUP3 PUSH2 0x5A7 JUMP JUMPDEST DUP4 SSTORE POP JUMPDEST PUSH1 0x1 PUSH1 0x2 DUP9 MUL ADD DUP9 SSTORE POP POP POP JUMPDEST POP POP POP POP POP POP JUMP JUMPDEST PUSH1 0x80 MLOAD PUSH1 0xA0 MLOAD PUSH1 0xC0 MLOAD PUSH2 0x176C PUSH2 0x724 PUSH0 CODECOPY PUSH0 DUP2 DUP2 PUSH2 0x512 ADD MSTORE DUP2 DUP2 PUSH2 0x686 ADD MSTORE DUP2 DUP2 PUSH2 0x88A ADD MSTORE PUSH2 0xDD8 ADD MSTORE PUSH0 DUP2 DUP2 PUSH2 0x4EF ADD MSTORE DUP2 DUP2 PUSH2 0x577 ADD MSTORE PUSH2 0x799 ADD MSTORE PUSH0 DUP2 DUP2 PUSH2 0x3B7 ADD MSTORE DUP2 DUP2 PUSH2 0x59B ADD MSTORE DUP2 DUP2 PUSH2 0xACD ADD MSTORE DUP2 DUP2 PUSH2 0xD53 ADD MSTORE DUP2 DUP2 PUSH2 0xE82 ADD MSTORE DUP2 DUP2 PUSH2 0xF4F ADD MSTORE PUSH2 0xFD4 ADD MSTORE PUSH2 0x176C PUSH0 RETURN INVALID PUSH1 0x80 PUSH1 0x40 MSTORE PUSH1 0x4 CALLDATASIZE LT PUSH2 0xDC JUMPI PUSH0 CALLDATALOAD PUSH1 0xE0 SHR DUP1 PUSH4 0x7A3A0E84 GT PUSH2 0x7E JUMPI DUP1 PUSH4 0xA1211BC0 GT PUSH2 0x58 JUMPI DUP1 PUSH4 0xA1211BC0 EQ PUSH2 0x29C JUMPI DUP1 PUSH4 0xCC6CB19A EQ PUSH2 0x2B2 JUMPI DUP1 PUSH4 0xED88C68E EQ PUSH2 0x2EE JUMPI DUP1 PUSH4 0xF851A440 EQ PUSH2 0x2F8 JUMPI PUSH2 0xDC JUMP JUMPDEST DUP1 PUSH4 0x7A3A0E84 EQ PUSH2 0x21E JUMPI DUP1 PUSH4 0x968ED600 EQ PUSH2 0x248 JUMPI DUP1 PUSH4 0x96F300D4 EQ PUSH2 0x272 JUMPI PUSH2 0xDC JUMP JUMPDEST DUP1 PUSH4 0x29DCB0CF GT PUSH2 0xBA JUMPI DUP1 PUSH4 0x29DCB0CF EQ PUSH2 0x164 JUMPI DUP1 PUSH4 0x38AF3EED EQ PUSH2 0x18E JUMPI DUP1 PUSH4 0x4ABFA163 EQ PUSH2 0x1B8 JUMPI DUP1 PUSH4 0x7284E416 EQ PUSH2 0x1F4 JUMPI PUSH2 0xDC JUMP JUMPDEST DUP1 PUSH4 0x6FDDE03 EQ PUSH2 0xE0 JUMPI DUP1 PUSH4 0xC611F24 EQ PUSH2 0x10A JUMPI DUP1 PUSH4 0x22F3E2D4 EQ PUSH2 0x13A JUMPI JUMPDEST PUSH0 DUP1 REVERT JUMPDEST CALLVALUE DUP1 ISZERO PUSH2 0xEB JUMPI PUSH0 DUP1 REVERT JUMPDEST POP PUSH2 0xF4 PUSH2 0x322 JUMP JUMPDEST PUSH1 0x40 MLOAD PUSH2 0x101 SWAP2 SWAP1 PUSH2 0x1107 JUMP JUMPDEST PUSH1 0x40 MLOAD DUP1 SWAP2 SUB SWAP1 RETURN JUMPDEST CALLVALUE DUP1 ISZERO PUSH2 0x115 JUMPI PUSH0 DUP1 REVERT JUMPDEST POP PUSH2 0x11E PUSH2 0x3AD JUMP JUMPDEST PUSH1 0x40 MLOAD PUSH2 0x131 SWAP8 SWAP7 SWAP6 SWAP5 SWAP4 SWAP3 SWAP2 SWAP1 PUSH2 0x11B6 JUMP JUMPDEST PUSH1 0x40 MLOAD DUP1 SWAP2 SUB SWAP1 RETURN JUMPDEST CALLVALUE DUP1 ISZERO PUSH2 0x145 JUMPI PUSH0 DUP1 REVERT JUMPDEST POP PUSH2 0x14E PUSH2 0x562 JUMP JUMPDEST PUSH1 0x40 MLOAD PUSH2 0x15B SWAP2 SWAP1 PUSH2 0x1231 JUMP JUMPDEST PUSH1 0x40 MLOAD DUP1 SWAP2 SUB SWAP1 RETURN JUMPDEST CALLVALUE DUP1 ISZERO PUSH2 0x16F JUMPI PUSH0 DUP1 REVERT JUMPDEST POP PUSH2 0x178 PUSH2 0x575 JUMP JUMPDEST PUSH1 0x40 MLOAD PUSH2 0x185 SWAP2 SWAP1 PUSH2 0x124A JUMP JUMPDEST PUSH1 0x40 MLOAD DUP1 SWAP2 SUB SWAP1 RETURN JUMPDEST CALLVALUE DUP1 ISZERO PUSH2 0x199 JUMPI PUSH0 DUP1 REVERT JUMPDEST POP PUSH2 0x1A2 PUSH2 0x599 JUMP JUMPDEST PUSH1 0x40 MLOAD PUSH2 0x1AF SWAP2 SWAP1 PUSH2 0x1263 JUMP JUMPDEST PUSH1 0x40 MLOAD DUP1 SWAP2 SUB SWAP1 RETURN JUMPDEST CALLVALUE DUP1 ISZERO PUSH2 0x1C3 JUMPI PUSH0 DUP1 REVERT JUMPDEST POP PUSH2 0x1DE PUSH1 0x4 DUP1 CALLDATASIZE SUB DUP2 ADD SWAP1 PUSH2 0x1D9 SWAP2 SWAP1 PUSH2 0x12AA JUMP JUMPDEST PUSH2 0x5BD JUMP JUMPDEST PUSH1 0x40 MLOAD PUSH2 0x1EB SWAP2 SWAP1 PUSH2 0x1263 JUMP JUMPDEST PUSH1 0x40 MLOAD DUP1 SWAP2 SUB SWAP1 RETURN JUMPDEST CALLVALUE DUP1 ISZERO PUSH2 0x1FF JUMPI PUSH0 DUP1 REVERT JUMPDEST POP PUSH2 0x208 PUSH2 0x5F8 JUMP JUMPDEST PUSH1 0x40 MLOAD PUSH2 0x215 SWAP2 SWAP1 PUSH2 0x1107 JUMP JUMPDEST PUSH1 0x40 MLOAD DUP1 SWAP2 SUB SWAP1 RETURN JUMPDEST CALLVALUE DUP1 ISZERO PUSH2 0x229 JUMPI PUSH0 DUP1 REVERT JUMPDEST POP PUSH2 0x232 PUSH2 0x684 JUMP JUMPDEST PUSH1 0x40 MLOAD PUSH2 0x23F SWAP2 SWAP1 PUSH2 0x12D5 JUMP JUMPDEST PUSH1 0x40 MLOAD DUP1 SWAP2 SUB SWAP1 RETURN JUMPDEST CALLVALUE DUP1 ISZERO PUSH2 0x253 JUMPI PUSH0 DUP1 REVERT JUMPDEST POP PUSH2 0x25C PUSH2 0x6A8 JUMP JUMPDEST PUSH1 0x40 MLOAD PUSH2 0x269 SWAP2 SWAP1 PUSH2 0x12D5 JUMP JUMPDEST PUSH1 0x40 MLOAD DUP1 SWAP2 SUB SWAP1 RETURN JUMPDEST CALLVALUE DUP1 ISZERO PUSH2 0x27D JUMPI PUSH0 DUP1 REVERT JUMPDEST POP PUSH2 0x286 PUSH2 0x6BD JUMP JUMPDEST PUSH1 0x40 MLOAD PUSH2 0x293 SWAP2 SWAP1 PUSH2 0x13A5 JUMP JUMPDEST PUSH1 0x40 MLOAD DUP1 SWAP2 SUB SWAP1 RETURN JUMPDEST CALLVALUE DUP1 ISZERO PUSH2 0x2A7 JUMPI PUSH0 DUP1 REVERT JUMPDEST POP PUSH2 0x2B0 PUSH2 0x748 JUMP JUMPDEST STOP JUMPDEST CALLVALUE DUP1 ISZERO PUSH2 0x2BD JUMPI PUSH0 DUP1 REVERT JUMPDEST POP PUSH2 0x2D8 PUSH1 0x4 DUP1 CALLDATASIZE SUB DUP2 ADD SWAP1 PUSH2 0x2D3 SWAP2 SWAP1 PUSH2 0x13EF JUMP JUMPDEST PUSH2 0xB67 JUMP JUMPDEST PUSH1 0x40 MLOAD PUSH2 0x2E5 SWAP2 SWAP1 PUSH2 0x12D5 JUMP JUMPDEST PUSH1 0x40 MLOAD DUP1 SWAP2 SUB SWAP1 RETURN JUMPDEST PUSH2 0x2F6 PUSH2 0xB87 JUMP JUMPDEST STOP JUMPDEST CALLVALUE DUP1 ISZERO PUSH2 0x303 JUMPI PUSH0 DUP1 REVERT JUMPDEST POP PUSH2 0x30C PUSH2 0xE17 JUMP JUMPDEST PUSH1 0x40 MLOAD PUSH2 0x319 SWAP2 SWAP1 PUSH2 0x1263 JUMP JUMPDEST PUSH1 0x40 MLOAD DUP1 SWAP2 SUB SWAP1 RETURN JUMPDEST PUSH0 DUP1 SLOAD PUSH2 0x32E SWAP1 PUSH2 0x1447 JUMP JUMPDEST DUP1 PUSH1 0x1F ADD PUSH1 0x20 DUP1 SWAP2 DIV MUL PUSH1 0x20 ADD PUSH1 0x40 MLOAD SWAP1 DUP2 ADD PUSH1 0x40 MSTORE DUP1 SWAP3 SWAP2 SWAP1 DUP2 DUP2 MSTORE PUSH1 0x20 ADD DUP3 DUP1 SLOAD PUSH2 0x35A SWAP1 PUSH2 0x1447 JUMP JUMPDEST DUP1 ISZERO PUSH2 0x3A5 JUMPI DUP1 PUSH1 0x1F LT PUSH2 0x37C JUMPI PUSH2 0x100 DUP1 DUP4 SLOAD DIV MUL DUP4 MSTORE SWAP2 PUSH1 0x20 ADD SWAP2 PUSH2 0x3A5 JUMP JUMPDEST DUP3 ADD SWAP2 SWAP1 PUSH0 MSTORE PUSH1 0x20 PUSH0 KECCAK256 SWAP1 JUMPDEST DUP2 SLOAD DUP2 MSTORE SWAP1 PUSH1 0x1 ADD SWAP1 PUSH1 0x20 ADD DUP1 DUP4 GT PUSH2 0x388 JUMPI DUP3 SWAP1 SUB PUSH1 0x1F AND DUP3 ADD SWAP2 JUMPDEST POP POP POP POP POP DUP2 JUMP JUMPDEST PUSH0 PUSH1 0x60 DUP1 PUSH0 DUP1 PUSH0 DUP1 PUSH32 0x0 SWAP7 POP PUSH0 DUP1 SLOAD PUSH2 0x3E4 SWAP1 PUSH2 0x1447 JUMP JUMPDEST DUP1 PUSH1 0x1F ADD PUSH1 0x20 DUP1 SWAP2 DIV MUL PUSH1 0x20 ADD PUSH1 0x40 MLOAD SWAP1 DUP2 ADD PUSH1 0x40 MSTORE DUP1 SWAP3 SWAP2 SWAP1 DUP2 DUP2 MSTORE PUSH1 0x20 ADD DUP3 DUP1 SLOAD PUSH2 0x410 SWAP1 PUSH2 0x1447 JUMP JUMPDEST DUP1 ISZERO PUSH2 0x45B JUMPI DUP1 PUSH1 0x1F LT PUSH2 0x432 JUMPI PUSH2 0x100 DUP1 DUP4 SLOAD DIV MUL DUP4 MSTORE SWAP2 PUSH1 0x20 ADD SWAP2 PUSH2 0x45B JUMP JUMPDEST DUP3 ADD SWAP2 SWAP1 PUSH0 MSTORE PUSH1 0x20 PUSH0 KECCAK256 SWAP1 JUMPDEST DUP2 SLOAD DUP2 MSTORE SWAP1 PUSH1 0x1 ADD SWAP1 PUSH1 0x20 ADD DUP1 DUP4 GT PUSH2 0x43E JUMPI DUP3 SWAP1 SUB PUSH1 0x1F AND DUP3 ADD SWAP2 JUMPDEST POP POP POP POP POP SWAP6 POP PUSH1 0x1 DUP1 SLOAD PUSH2 0x46F SWAP1 PUSH2 0x1447 JUMP JUMPDEST DUP1 PUSH1 0x1F ADD PUSH1 0x20 DUP1 SWAP2 DIV MUL PUSH1 0x20 ADD PUSH1 0x40 MLOAD SWAP1 DUP2 ADD PUSH1 0x40 MSTORE DUP1 SWAP3 SWAP2 SWAP1 DUP2 DUP2 MSTORE PUSH1 0x20 ADD DUP3 DUP1 SLOAD PUSH2 0x49B SWAP1 PUSH2 0x1447 JUMP JUMPDEST DUP1 ISZERO PUSH2 0x4E6 JUMPI DUP1 PUSH1 0x1F LT PUSH2 0x4BD JUMPI PUSH2 0x100 DUP1 DUP4 SLOAD DIV MUL DUP4 MSTORE SWAP2 PUSH1 0x20 ADD SWAP2 PUSH2 0x4E6 JUMP JUMPDEST DUP3 ADD SWAP2 SWAP1 PUSH0 MSTORE PUSH1 0x20 PUSH0 KECCAK256 SWAP1 JUMPDEST DUP2 SLOAD DUP2 MSTORE SWAP1 PUSH1 0x1 ADD SWAP1 PUSH1 0x20 ADD DUP1 DUP4 GT PUSH2 0x4C9 JUMPI DUP3 SWAP1 SUB PUSH1 0x1F AND DUP3 ADD SWAP2 JUMPDEST POP POP POP POP POP SWAP5 POP PUSH32 0x0 SWAP4 POP PUSH32 0x0 SWAP3 POP PUSH1 0x2 PUSH0 SWAP1 SLOAD SWAP1 PUSH2 0x100 EXP SWAP1 DIV PUSH4 0xFFFFFFFF AND SWAP2 POP PUSH1 0x2 PUSH1 0x4 SWAP1 SLOAD SWAP1 PUSH2 0x100 EXP SWAP1 DIV PUSH1 0xFF AND SWAP1 POP SWAP1 SWAP2 SWAP3 SWAP4 SWAP5 SWAP6 SWAP7 JUMP JUMPDEST PUSH1 0x2 PUSH1 0x4 SWAP1 SLOAD SWAP1 PUSH2 0x100 EXP SWAP1 DIV PUSH1 0xFF AND DUP2 JUMP JUMPDEST PUSH32 0x0 DUP2 JUMP JUMPDEST PUSH32 0x0 DUP2 JUMP JUMPDEST PUSH1 0x4 DUP2 DUP2 SLOAD DUP2 LT PUSH2 0x5CC JUMPI PUSH0 DUP1 REVERT JUMPDEST SWAP1 PUSH0 MSTORE PUSH1 0x20 PUSH0 KECCAK256 ADD PUSH0 SWAP2 POP SLOAD SWAP1 PUSH2 0x100 EXP SWAP1 DIV PUSH20 0xFFFFFFFFFFFFFFFFFFFFFFFFFFFFFFFFFFFFFFFF AND DUP2 JUMP JUMPDEST PUSH1 0x1 DUP1 SLOAD PUSH2 0x605 SWAP1 PUSH2 0x1447 JUMP JUMPDEST DUP1 PUSH1 0x1F ADD PUSH1 0x20 DUP1 SWAP2 DIV MUL PUSH1 0x20 ADD PUSH1 0x40 MLOAD SWAP1 DUP2 ADD PUSH1 0x40 MSTORE DUP1 SWAP3 SWAP2 SWAP1 DUP2 DUP2 MSTORE PUSH1 0x20 ADD DUP3 DUP1 SLOAD PUSH2 0x631 SWAP1 PUSH2 0x1447 JUMP JUMPDEST DUP1 ISZERO PUSH2 0x67C JUMPI DUP1 PUSH1 0x1F LT PUSH2 0x653 JUMPI PUSH2 0x100 DUP1 DUP4 SLOAD DIV MUL DUP4 MSTORE SWAP2 PUSH1 0x20 ADD SWAP2 PUSH2 0x67C JUMP JUMPDEST DUP3 ADD SWAP2 SWAP1 PUSH0 MSTORE PUSH1 0x20 PUSH0 KECCAK256 SWAP1 JUMPDEST DUP2 SLOAD DUP2 MSTORE SWAP1 PUSH1 0x1 ADD SWAP1 PUSH1 0x20 ADD DUP1 DUP4 GT PUSH2 0x65F JUMPI DUP3 SWAP1 SUB PUSH1 0x1F AND DUP3 ADD SWAP2 JUMPDEST POP POP POP POP POP DUP2 JUMP JUMPDEST PUSH32 0x0 DUP2 JUMP JUMPDEST PUSH1 0x2 PUSH0 SWAP1 SLOAD SWAP1 PUSH2 0x100 EXP SWAP1 DIV PUSH4 0xFFFFFFFF AND DUP2 JUMP JUMPDEST PUSH1 0x60 PUSH1 0x4 DUP1 SLOAD DUP1 PUSH1 0x20 MUL PUSH1 0x20 ADD PUSH1 0x40 MLOAD SWAP1 DUP2 ADD PUSH1 0x40 MSTORE DUP1 SWAP3 SWAP2 SWAP1 DUP2 DUP2 MSTORE PUSH1 0x20 ADD DUP3 DUP1 SLOAD DUP1 ISZERO PUSH2 0x73E JUMPI PUSH1 0x20 MUL DUP3 ADD SWAP2 SWAP1 PUSH0 MSTORE PUSH1 0x20 PUSH0 KECCAK256 SWAP1 JUMPDEST DUP2 PUSH0 SWAP1 SLOAD SWAP1 PUSH2 0x100 EXP SWAP1 DIV PUSH20 0xFFFFFFFFFFFFFFFFFFFFFFFFFFFFFFFFFFFFFFFF AND PUSH20 0xFFFFFFFFFFFFFFFFFFFFFFFFFFFFFFFFFFFFFFFF AND DUP2 MSTORE PUSH1 0x20 ADD SWAP1 PUSH1 0x1 ADD SWAP1 DUP1 DUP4 GT PUSH2 0x6F5 JUMPI JUMPDEST POP POP POP POP POP SWAP1 POP SWAP1 JUMP JUMPDEST PUSH1 0x2 PUSH1 0x4 SWAP1 SLOAD SWAP1 PUSH2 0x100 EXP SWAP1 DIV PUSH1 0xFF AND PUSH2 0x797 JUMPI PUSH1 0x40 MLOAD PUSH32 0x8C379A000000000000000000000000000000000000000000000000000000000 DUP2 MSTORE PUSH1 0x4 ADD PUSH2 0x78E SWAP1 PUSH2 0x14C1 JUMP JUMPDEST PUSH1 0x40 MLOAD DUP1 SWAP2 SUB SWAP1 REVERT JUMPDEST PUSH32 0x0 TIMESTAMP GT PUSH2 0x7F9 JUMPI PUSH1 0x40 MLOAD PUSH32 0x8C379A000000000000000000000000000000000000000000000000000000000 DUP2 MSTORE PUSH1 0x4 ADD PUSH2 0x7F0 SWAP1 PUSH2 0x154F JUMP JUMPDEST PUSH1 0x40 MLOAD DUP1 SWAP2 SUB SWAP1 REVERT JUMPDEST PUSH1 0x5 PUSH0 SWAP1 SLOAD SWAP1 PUSH2 0x100 EXP SWAP1 DIV PUSH20 0xFFFFFFFFFFFFFFFFFFFFFFFFFFFFFFFFFFFFFFFF AND PUSH20 0xFFFFFFFFFFFFFFFFFFFFFFFFFFFFFFFFFFFFFFFF AND CALLER PUSH20 0xFFFFFFFFFFFFFFFFFFFFFFFFFFFFFFFFFFFFFFFF AND EQ PUSH2 0x888 JUMPI PUSH1 0x40 MLOAD PUSH32 0x8C379A000000000000000000000000000000000000000000000000000000000 DUP2 MSTORE PUSH1 0x4 ADD PUSH2 0x87F SWAP1 PUSH2 0x15B7 JUMP JUMPDEST PUSH1 0x40 MLOAD DUP1 SWAP2 SUB SWAP1 REVERT JUMPDEST PUSH32 0x0 PUSH4 0xFFFFFFFF AND PUSH1 0x2 PUSH0 SWAP1 SLOAD SWAP1 PUSH2 0x100 EXP SWAP1 DIV PUSH4 0xFFFFFFFF AND PUSH4 0xFFFFFFFF AND LT PUSH2 0x8D9 JUMPI PUSH2 0x8D4 PUSH2 0xE3C JUMP JUMPDEST PUSH2 0xB65 JUMP JUMPDEST PUSH0 PUSH1 0x2 PUSH1 0x4 PUSH2 0x100 EXP DUP2 SLOAD DUP2 PUSH1 0xFF MUL NOT AND SWAP1 DUP4 ISZERO ISZERO MUL OR SWAP1 SSTORE POP PUSH0 PUSH1 0x4 DUP1 SLOAD SWAP1 POP SWAP1 POP PUSH0 JUMPDEST DUP2 DUP2 LT ISZERO PUSH2 0xABD JUMPI PUSH0 PUSH1 0x4 DUP3 DUP2 SLOAD DUP2 LT PUSH2 0x91B JUMPI PUSH2 0x91A PUSH2 0x15D5 JUMP JUMPDEST JUMPDEST SWAP1 PUSH0 MSTORE PUSH1 0x20 PUSH0 KECCAK256 ADD PUSH0 SWAP1 SLOAD SWAP1 PUSH2 0x100 EXP SWAP1 DIV PUSH20 0xFFFFFFFFFFFFFFFFFFFFFFFFFFFFFFFFFFFFFFFF AND SWAP1 POP PUSH0 PUSH1 0x3 PUSH0 DUP4 PUSH20 0xFFFFFFFFFFFFFFFFFFFFFFFFFFFFFFFFFFFFFFFF AND PUSH20 0xFFFFFFFFFFFFFFFFFFFFFFFFFFFFFFFFFFFFFFFF AND DUP2 MSTORE PUSH1 0x20 ADD SWAP1 DUP2 MSTORE PUSH1 0x20 ADD PUSH0 KECCAK256 PUSH0 SWAP1 SLOAD SWAP1 PUSH2 0x100 EXP SWAP1 DIV PUSH4 0xFFFFFFFF AND SWAP1 POP PUSH0 DUP2 PUSH4 0xFFFFFFFF AND GT ISZERO PUSH2 0xAAE JUMPI PUSH0 PUSH1 0x3 PUSH0 DUP5 PUSH20 0xFFFFFFFFFFFFFFFFFFFFFFFFFFFFFFFFFFFFFFFF AND PUSH20 0xFFFFFFFFFFFFFFFFFFFFFFFFFFFFFFFFFFFFFFFF AND DUP2 MSTORE PUSH1 0x20 ADD SWAP1 DUP2 MSTORE PUSH1 0x20 ADD PUSH0 KECCAK256 PUSH0 PUSH2 0x100 EXP DUP2 SLOAD DUP2 PUSH4 0xFFFFFFFF MUL NOT AND SWAP1 DUP4 PUSH4 0xFFFFFFFF AND MUL OR SWAP1 SSTORE POP DUP2 PUSH20 0xFFFFFFFFFFFFFFFFFFFFFFFFFFFFFFFFFFFFFFFF AND PUSH2 0x8FC DUP3 PUSH4 0xFFFFFFFF AND SWAP1 DUP2 ISZERO MUL SWAP1 PUSH1 0x40 MLOAD PUSH0 PUSH1 0x40 MLOAD DUP1 DUP4 SUB DUP2 DUP6 DUP9 DUP9 CALL SWAP4 POP POP POP POP ISZERO DUP1 ISZERO PUSH2 0xA47 JUMPI RETURNDATASIZE PUSH0 DUP1 RETURNDATACOPY RETURNDATASIZE PUSH0 REVERT JUMPDEST POP DUP2 PUSH20 0xFFFFFFFFFFFFFFFFFFFFFFFFFFFFFFFFFFFFFFFF AND ADDRESS PUSH20 0xFFFFFFFFFFFFFFFFFFFFFFFFFFFFFFFFFFFFFFFF AND PUSH32 0xCBAF39F3D8F9A55DBFD111D1803615438CA90CD340BF43A9B32AF9967CB268B0 DUP4 PUSH1 0x40 MLOAD PUSH2 0xAA5 SWAP2 SWAP1 PUSH2 0x12D5 JUMP JUMPDEST PUSH1 0x40 MLOAD DUP1 SWAP2 SUB SWAP1 LOG3 JUMPDEST POP POP DUP1 DUP1 PUSH1 0x1 ADD SWAP2 POP POP PUSH2 0x8FE JUMP JUMPDEST POP PUSH1 0x4 PUSH0 PUSH2 0xACB SWAP2 SWAP1 PUSH2 0x105E JUMP JUMPDEST PUSH32 0x0 PUSH20 0xFFFFFFFFFFFFFFFFFFFFFFFFFFFFFFFFFFFFFFFF AND ADDRESS PUSH20 0xFFFFFFFFFFFFFFFFFFFFFFFFFFFFFFFFFFFFFFFF AND PUSH32 0xF8B5BC9A22DE51519F1A92F78276CA83D891D1EDF8DD4263CCB6032594644B65 PUSH0 PUSH1 0x2 PUSH0 SWAP1 SLOAD SWAP1 PUSH2 0x100 EXP SWAP1 DIV PUSH4 0xFFFFFFFF AND PUSH1 0x40 MLOAD PUSH2 0xB5B SWAP3 SWAP2 SWAP1 PUSH2 0x1602 JUMP JUMPDEST PUSH1 0x40 MLOAD DUP1 SWAP2 SUB SWAP1 LOG3 POP JUMPDEST JUMP JUMPDEST PUSH1 0x3 PUSH1 0x20 MSTORE DUP1 PUSH0 MSTORE PUSH1 0x40 PUSH0 KECCAK256 PUSH0 SWAP2 POP SLOAD SWAP1 PUSH2 0x100 EXP SWAP1 DIV PUSH4 0xFFFFFFFF AND DUP2 JUMP JUMPDEST PUSH1 0x2 PUSH1 0x4 SWAP1 SLOAD SWAP1 PUSH2 0x100 EXP SWAP1 DIV PUSH1 0xFF AND PUSH2 0xBD6 JUMPI PUSH1 0x40 MLOAD PUSH32 0x8C379A000000000000000000000000000000000000000000000000000000000 DUP2 MSTORE PUSH1 0x4 ADD PUSH2 0xBCD SWAP1 PUSH2 0x14C1 JUMP JUMPDEST PUSH1 0x40 MLOAD DUP1 SWAP2 SUB SWAP1 REVERT JUMPDEST PUSH0 CALLER SWAP1 POP PUSH0 CALLVALUE SWAP1 POP PUSH0 PUSH1 0x3 PUSH0 DUP5 PUSH20 0xFFFFFFFFFFFFFFFFFFFFFFFFFFFFFFFFFFFFFFFF AND PUSH20 0xFFFFFFFFFFFFFFFFFFFFFFFFFFFFFFFFFFFFFFFF AND DUP2 MSTORE PUSH1 0x20 ADD SWAP1 DUP2 MSTORE PUSH1 0x20 ADD PUSH0 KECCAK256 PUSH0 SWAP1 SLOAD SWAP1 PUSH2 0x100 EXP SWAP1 DIV PUSH4 0xFFFFFFFF AND PUSH4 0xFFFFFFFF AND SUB PUSH2 0xC98 JUMPI PUSH1 0x4 DUP3 SWAP1 DUP1 PUSH1 0x1 DUP2 SLOAD ADD DUP1 DUP3 SSTORE DUP1 SWAP2 POP POP PUSH1 0x1 SWAP1 SUB SWAP1 PUSH0 MSTORE PUSH1 0x20 PUSH0 KECCAK256 ADD PUSH0 SWAP1 SWAP2 SWAP1 SWAP2 SWAP1 SWAP2 PUSH2 0x100 EXP DUP2 SLOAD DUP2 PUSH20 0xFFFFFFFFFFFFFFFFFFFFFFFFFFFFFFFFFFFFFFFF MUL NOT AND SWAP1 DUP4 PUSH20 0xFFFFFFFFFFFFFFFFFFFFFFFFFFFFFFFFFFFFFFFF AND MUL OR SWAP1 SSTORE POP JUMPDEST DUP1 PUSH1 0x3 PUSH0 DUP5 PUSH20 0xFFFFFFFFFFFFFFFFFFFFFFFFFFFFFFFFFFFFFFFF AND PUSH20 0xFFFFFFFFFFFFFFFFFFFFFFFFFFFFFFFFFFFFFFFF AND DUP2 MSTORE PUSH1 0x20 ADD SWAP1 DUP2 MSTORE PUSH1 0x20 ADD PUSH0 KECCAK256 PUSH0 DUP3 DUP3 DUP3 SWAP1 SLOAD SWAP1 PUSH2 0x100 EXP SWAP1 DIV PUSH4 0xFFFFFFFF AND PUSH2 0xCF3 SWAP2 SWAP1 PUSH2 0x1656 JUMP JUMPDEST SWAP3 POP PUSH2 0x100 EXP DUP2 SLOAD DUP2 PUSH4 0xFFFFFFFF MUL NOT AND SWAP1 DUP4 PUSH4 0xFFFFFFFF AND MUL OR SWAP1 SSTORE POP PUSH0 DUP2 PUSH1 0x2 PUSH0 SWAP1 SLOAD SWAP1 PUSH2 0x100 EXP SWAP1 DIV PUSH4 0xFFFFFFFF AND PUSH2 0xD2F SWAP2 SWAP1 PUSH2 0x1656 JUMP JUMPDEST SWAP1 POP DUP1 PUSH1 0x2 PUSH0 PUSH2 0x100 EXP DUP2 SLOAD DUP2 PUSH4 0xFFFFFFFF MUL NOT AND SWAP1 DUP4 PUSH4 0xFFFFFFFF AND MUL OR SWAP1 SSTORE POP PUSH32 0x0 PUSH20 0xFFFFFFFFFFFFFFFFFFFFFFFFFFFFFFFFFFFFFFFF AND ADDRESS PUSH20 0xFFFFFFFFFFFFFFFFFFFFFFFFFFFFFFFFFFFFFFFF AND PUSH32 0x4BCAD339364614747037D489DEBCAB743E155B2486AD23759D702D48C30A7DC6 DUP5 PUSH1 0x40 MLOAD PUSH2 0xDCE SWAP2 SWAP1 PUSH2 0x12D5 JUMP JUMPDEST PUSH1 0x40 MLOAD DUP1 SWAP2 SUB SWAP1 LOG3 PUSH32 0x0 PUSH4 0xFFFFFFFF AND DUP2 PUSH4 0xFFFFFFFF AND LT PUSH2 0xE12 JUMPI PUSH2 0xE11 PUSH2 0xE3C JUMP JUMPDEST JUMPDEST POP POP POP JUMP JUMPDEST PUSH1 0x5 PUSH0 SWAP1 SLOAD SWAP1 PUSH2 0x100 EXP SWAP1 DIV PUSH20 0xFFFFFFFFFFFFFFFFFFFFFFFFFFFFFFFFFFFFFFFF AND DUP2 JUMP JUMPDEST PUSH0 PUSH1 0x2 PUSH0 SWAP1 SLOAD SWAP1 PUSH2 0x100 EXP SWAP1 DIV PUSH4 0xFFFFFFFF AND SWAP1 POP PUSH1 0x2 PUSH0 PUSH2 0x100 EXP DUP2 SLOAD SWAP1 PUSH4 0xFFFFFFFF MUL NOT AND SWAP1 SSTORE PUSH0 PUSH1 0x2 PUSH1 0x4 PUSH2 0x100 EXP DUP2 SLOAD DUP2 PUSH1 0xFF MUL NOT AND SWAP1 DUP4 ISZERO ISZERO MUL OR SWAP1 SSTORE POP PUSH0 PUSH32 0x0 PUSH20 0xFFFFFFFFFFFFFFFFFFFFFFFFFFFFFFFFFFFFFFFF AND DUP3 PUSH4 0xFFFFFFFF AND PUSH1 0x40 MLOAD PUSH2 0xECA SWAP1 PUSH2 0x16BA JUMP JUMPDEST PUSH0 PUSH1 0x40 MLOAD DUP1 DUP4 SUB DUP2 DUP6 DUP8 GAS CALL SWAP3 POP POP POP RETURNDATASIZE DUP1 PUSH0 DUP2 EQ PUSH2 0xF04 JUMPI PUSH1 0x40 MLOAD SWAP2 POP PUSH1 0x1F NOT PUSH1 0x3F RETURNDATASIZE ADD AND DUP3 ADD PUSH1 0x40 MSTORE RETURNDATASIZE DUP3 MSTORE RETURNDATASIZE PUSH0 PUSH1 0x20 DUP5 ADD RETURNDATACOPY PUSH2 0xF09 JUMP JUMPDEST PUSH1 0x60 SWAP2 POP JUMPDEST POP POP SWAP1 POP DUP1 PUSH2 0xF4D JUMPI PUSH1 0x40 MLOAD PUSH32 0x8C379A000000000000000000000000000000000000000000000000000000000 DUP2 MSTORE PUSH1 0x4 ADD PUSH2 0xF44 SWAP1 PUSH2 0x1718 JUMP JUMPDEST PUSH1 0x40 MLOAD DUP1 SWAP2 SUB SWAP1 REVERT JUMPDEST PUSH32 0x0 PUSH20 0xFFFFFFFFFFFFFFFFFFFFFFFFFFFFFFFFFFFFFFFF AND ADDRESS PUSH20 0xFFFFFFFFFFFFFFFFFFFFFFFFFFFFFFFFFFFFFFFF AND PUSH32 0x9A2D22BDC446507E83DF389FF5730C89BB47EFE4486AA9FE07032B2B7339EE7F DUP5 PUSH1 0x40 MLOAD PUSH2 0xFCA SWAP2 SWAP1 PUSH2 0x12D5 JUMP JUMPDEST PUSH1 0x40 MLOAD DUP1 SWAP2 SUB SWAP1 LOG3 PUSH32 0x0 PUSH20 0xFFFFFFFFFFFFFFFFFFFFFFFFFFFFFFFFFFFFFFFF AND ADDRESS PUSH20 0xFFFFFFFFFFFFFFFFFFFFFFFFFFFFFFFFFFFFFFFF AND PUSH32 0xF8B5BC9A22DE51519F1A92F78276CA83D891D1EDF8DD4263CCB6032594644B65 PUSH1 0x1 DUP6 PUSH1 0x40 MLOAD PUSH2 0x1052 SWAP3 SWAP2 SWAP1 PUSH2 0x1602 JUMP JUMPDEST PUSH1 0x40 MLOAD DUP1 SWAP2 SUB SWAP1 LOG3 POP POP JUMP JUMPDEST POP DUP1 SLOAD PUSH0 DUP3 SSTORE SWAP1 PUSH0 MSTORE PUSH1 0x20 PUSH0 KECCAK256 SWAP1 DUP2 ADD SWAP1 PUSH2 0x1079 SWAP2 SWAP1 PUSH2 0x107C JUMP JUMPDEST POP JUMP JUMPDEST JUMPDEST DUP1 DUP3 GT ISZERO PUSH2 0x1093 JUMPI PUSH0 DUP2 PUSH0 SWAP1 SSTORE POP PUSH1 0x1 ADD PUSH2 0x107D JUMP JUMPDEST POP SWAP1 JUMP JUMPDEST PUSH0 DUP2 MLOAD SWAP1 POP SWAP2 SWAP1 POP JUMP JUMPDEST PUSH0 DUP3 DUP3 MSTORE PUSH1 0x20 DUP3 ADD SWAP1 POP SWAP3 SWAP2 POP POP JUMP JUMPDEST DUP3 DUP2 DUP4 MCOPY PUSH0 DUP4 DUP4 ADD MSTORE POP POP POP JUMP JUMPDEST PUSH0 PUSH1 0x1F NOT PUSH1 0x1F DUP4 ADD AND SWAP1 POP SWAP2 SWAP1 POP JUMP JUMPDEST PUSH0 PUSH2 0x10D9 DUP3 PUSH2 0x1097 JUMP JUMPDEST PUSH2 0x10E3 DUP2 DUP6 PUSH2 0x10A1 JUMP JUMPDEST SWAP4 POP PUSH2 0x10F3 DUP2 DUP6 PUSH1 0x20 DUP7 ADD PUSH2 0x10B1 JUMP JUMPDEST PUSH2 0x10FC DUP2 PUSH2 0x10BF JUMP JUMPDEST DUP5 ADD SWAP2 POP POP SWAP3 SWAP2 POP POP JUMP JUMPDEST PUSH0 PUSH1 0x20 DUP3 ADD SWAP1 POP DUP2 DUP2 SUB PUSH0 DUP4 ADD MSTORE PUSH2 0x111F DUP2 DUP5 PUSH2 0x10CF JUMP JUMPDEST SWAP1 POP SWAP3 SWAP2 POP POP JUMP JUMPDEST PUSH0 PUSH20 0xFFFFFFFFFFFFFFFFFFFFFFFFFFFFFFFFFFFFFFFF DUP3 AND SWAP1 POP SWAP2 SWAP1 POP JUMP JUMPDEST PUSH0 PUSH2 0x1150 DUP3 PUSH2 0x1127 JUMP JUMPDEST SWAP1 POP SWAP2 SWAP1 POP JUMP JUMPDEST PUSH2 0x1160 DUP2 PUSH2 0x1146 JUMP JUMPDEST DUP3 MSTORE POP POP JUMP JUMPDEST PUSH0 DUP2 SWAP1 POP SWAP2 SWAP1 POP JUMP JUMPDEST PUSH2 0x1178 DUP2 PUSH2 0x1166 JUMP JUMPDEST DUP3 MSTORE POP POP JUMP JUMPDEST PUSH0 PUSH4 0xFFFFFFFF DUP3 AND SWAP1 POP SWAP2 SWAP1 POP JUMP JUMPDEST PUSH2 0x1196 DUP2 PUSH2 0x117E JUMP JUMPDEST DUP3 MSTORE POP POP JUMP JUMPDEST PUSH0 DUP2 ISZERO ISZERO SWAP1 POP SWAP2 SWAP1 POP JUMP JUMPDEST PUSH2 0x11B0 DUP2 PUSH2 0x119C JUMP JUMPDEST DUP3 MSTORE POP POP JUMP JUMPDEST PUSH0 PUSH1 0xE0 DUP3 ADD SWAP1 POP PUSH2 0x11C9 PUSH0 DUP4 ADD DUP11 PUSH2 0x1157 JUMP JUMPDEST DUP2 DUP2 SUB PUSH1 0x20 DUP4 ADD MSTORE PUSH2 0x11DB DUP2 DUP10 PUSH2 0x10CF JUMP JUMPDEST SWAP1 POP DUP2 DUP2 SUB PUSH1 0x40 DUP4 ADD MSTORE PUSH2 0x11EF DUP2 DUP9 PUSH2 0x10CF JUMP JUMPDEST SWAP1 POP PUSH2 0x11FE PUSH1 0x60 DUP4 ADD DUP8 PUSH2 0x116F JUMP JUMPDEST PUSH2 0x120B PUSH1 0x80 DUP4 ADD DUP7 PUSH2 0x118D JUMP JUMPDEST PUSH2 0x1218 PUSH1 0xA0 DUP4 ADD DUP6 PUSH2 0x118D JUMP JUMPDEST PUSH2 0x1225 PUSH1 0xC0 DUP4 ADD DUP5 PUSH2 0x11A7 JUMP JUMPDEST SWAP9 SWAP8 POP POP POP POP POP POP POP POP JUMP JUMPDEST PUSH0 PUSH1 0x20 DUP3 ADD SWAP1 POP PUSH2 0x1244 PUSH0 DUP4 ADD DUP5 PUSH2 0x11A7 JUMP JUMPDEST SWAP3 SWAP2 POP POP JUMP JUMPDEST PUSH0 PUSH1 0x20 DUP3 ADD SWAP1 POP PUSH2 0x125D PUSH0 DUP4 ADD DUP5 PUSH2 0x116F JUMP JUMPDEST SWAP3 SWAP2 POP POP JUMP JUMPDEST PUSH0 PUSH1 0x20 DUP3 ADD SWAP1 POP PUSH2 0x1276 PUSH0 DUP4 ADD DUP5 PUSH2 0x1157 JUMP JUMPDEST SWAP3 SWAP2 POP POP JUMP JUMPDEST PUSH0 DUP1 REVERT JUMPDEST PUSH2 0x1289 DUP2 PUSH2 0x1166 JUMP JUMPDEST DUP2 EQ PUSH2 0x1293 JUMPI PUSH0 DUP1 REVERT JUMPDEST POP JUMP JUMPDEST PUSH0 DUP2 CALLDATALOAD SWAP1 POP PUSH2 0x12A4 DUP2 PUSH2 0x1280 JUMP JUMPDEST SWAP3 SWAP2 POP POP JUMP JUMPDEST PUSH0 PUSH1 0x20 DUP3 DUP5 SUB SLT ISZERO PUSH2 0x12BF JUMPI PUSH2 0x12BE PUSH2 0x127C JUMP JUMPDEST JUMPDEST PUSH0 PUSH2 0x12CC DUP5 DUP3 DUP6 ADD PUSH2 0x1296 JUMP JUMPDEST SWAP2 POP POP SWAP3 SWAP2 POP POP JUMP JUMPDEST PUSH0 PUSH1 0x20 DUP3 ADD SWAP1 POP PUSH2 0x12E8 PUSH0 DUP4 ADD DUP5 PUSH2 0x118D JUMP JUMPDEST SWAP3 SWAP2 POP POP JUMP JUMPDEST PUSH0 DUP2 MLOAD SWAP1 POP SWAP2 SWAP1 POP JUMP JUMPDEST PUSH0 DUP3 DUP3 MSTORE PUSH1 0x20 DUP3 ADD SWAP1 POP SWAP3 SWAP2 POP POP JUMP JUMPDEST PUSH0 DUP2 SWAP1 POP PUSH1 0x20 DUP3 ADD SWAP1 POP SWAP2 SWAP1 POP JUMP JUMPDEST PUSH2 0x1320 DUP2 PUSH2 0x1146 JUMP JUMPDEST DUP3 MSTORE POP POP JUMP JUMPDEST PUSH0 PUSH2 0x1331 DUP4 DUP4 PUSH2 0x1317 JUMP JUMPDEST PUSH1 0x20 DUP4 ADD SWAP1 POP SWAP3 SWAP2 POP POP JUMP JUMPDEST PUSH0 PUSH1 0x20 DUP3 ADD SWAP1 POP SWAP2 SWAP1 POP JUMP JUMPDEST PUSH0 PUSH2 0x1353 DUP3 PUSH2 0x12EE JUMP JUMPDEST PUSH2 0x135D DUP2 DUP6 PUSH2 0x12F8 JUMP JUMPDEST SWAP4 POP PUSH2 0x1368 DUP4 PUSH2 0x1308 JUMP JUMPDEST DUP1 PUSH0 JUMPDEST DUP4 DUP2 LT ISZERO PUSH2 0x1398 JUMPI DUP2 MLOAD PUSH2 0x137F DUP9 DUP3 PUSH2 0x1326 JUMP JUMPDEST SWAP8 POP PUSH2 0x138A DUP4 PUSH2 0x133D JUMP JUMPDEST SWAP3 POP POP PUSH1 0x1 DUP2 ADD SWAP1 POP PUSH2 0x136B JUMP JUMPDEST POP DUP6 SWAP4 POP POP POP POP SWAP3 SWAP2 POP POP JUMP JUMPDEST PUSH0 PUSH1 0x20 DUP3 ADD SWAP1 POP DUP2 DUP2 SUB PUSH0 DUP4 ADD MSTORE PUSH2 0x13BD DUP2 DUP5 PUSH2 0x1349 JUMP JUMPDEST SWAP1 POP SWAP3 SWAP2 POP POP JUMP JUMPDEST PUSH2 0x13CE DUP2 PUSH2 0x1146 JUMP JUMPDEST DUP2 EQ PUSH2 0x13D8 JUMPI PUSH0 DUP1 REVERT JUMPDEST POP JUMP JUMPDEST PUSH0 DUP2 CALLDATALOAD SWAP1 POP PUSH2 0x13E9 DUP2 PUSH2 0x13C5 JUMP JUMPDEST SWAP3 SWAP2 POP POP JUMP JUMPDEST PUSH0 PUSH1 0x20 DUP3 DUP5 SUB SLT ISZERO PUSH2 0x1404 JUMPI PUSH2 0x1403 PUSH2 0x127C JUMP JUMPDEST JUMPDEST PUSH0 PUSH2 0x1411 DUP5 DUP3 DUP6 ADD PUSH2 0x13DB JUMP JUMPDEST SWAP2 POP POP SWAP3 SWAP2 POP POP JUMP JUMPDEST PUSH32 0x4E487B7100000000000000000000000000000000000000000000000000000000 PUSH0 MSTORE PUSH1 0x22 PUSH1 0x4 MSTORE PUSH1 0x24 PUSH0 REVERT JUMPDEST PUSH0 PUSH1 0x2 DUP3 DIV SWAP1 POP PUSH1 0x1 DUP3 AND DUP1 PUSH2 0x145E JUMPI PUSH1 0x7F DUP3 AND SWAP2 POP JUMPDEST PUSH1 0x20 DUP3 LT DUP2 SUB PUSH2 0x1471 JUMPI PUSH2 0x1470 PUSH2 0x141A JUMP JUMPDEST JUMPDEST POP SWAP2 SWAP1 POP JUMP JUMPDEST PUSH32 0x5468652043616D706169676E206973206E6F7420616374697665210000000000 PUSH0 DUP3 ADD MSTORE POP JUMP JUMPDEST PUSH0 PUSH2 0x14AB PUSH1 0x1B DUP4 PUSH2 0x10A1 JUMP JUMPDEST SWAP2 POP PUSH2 0x14B6 DUP3 PUSH2 0x1477 JUMP JUMPDEST PUSH1 0x20 DUP3 ADD SWAP1 POP SWAP2 SWAP1 POP JUMP JUMPDEST PUSH0 PUSH1 0x20 DUP3 ADD SWAP1 POP DUP2 DUP2 SUB PUSH0 DUP4 ADD MSTORE PUSH2 0x14D8 DUP2 PUSH2 0x149F JUMP JUMPDEST SWAP1 POP SWAP2 SWAP1 POP JUMP JUMPDEST PUSH32 0x5468652043616D706169676E277320646561646C696E6520686173206E6F7420 PUSH0 DUP3 ADD MSTORE PUSH32 0x7061737365642100000000000000000000000000000000000000000000000000 PUSH1 0x20 DUP3 ADD MSTORE POP JUMP JUMPDEST PUSH0 PUSH2 0x1539 PUSH1 0x27 DUP4 PUSH2 0x10A1 JUMP JUMPDEST SWAP2 POP PUSH2 0x1544 DUP3 PUSH2 0x14DF JUMP JUMPDEST PUSH1 0x40 DUP3 ADD SWAP1 POP SWAP2 SWAP1 POP JUMP JUMPDEST PUSH0 PUSH1 0x20 DUP3 ADD SWAP1 POP DUP2 DUP2 SUB PUSH0 DUP4 ADD MSTORE PUSH2 0x1566 DUP2 PUSH2 0x152D JUMP JUMPDEST SWAP1 POP SWAP2 SWAP1 POP JUMP JUMPDEST PUSH32 0x416363657373207265737472696374656420746F2061646D696E210000000000 PUSH0 DUP3 ADD MSTORE POP JUMP JUMPDEST PUSH0 PUSH2 0x15A1 PUSH1 0x1B DUP4 PUSH2 0x10A1 JUMP JUMPDEST SWAP2 POP PUSH2 0x15AC DUP3 PUSH2 0x156D JUMP JUMPDEST PUSH1 0x20 DUP3 ADD SWAP1 POP SWAP2 SWAP1 POP JUMP JUMPDEST PUSH0 PUSH1 0x20 DUP3 ADD SWAP1 POP DUP2 DUP2 SUB PUSH0 DUP4 ADD MSTORE PUSH2 0x15CE DUP2 PUSH2 0x1595 JUMP JUMPDEST SWAP1 POP SWAP2 SWAP1 POP JUMP JUMPDEST PUSH32 0x4E487B7100000000000000000000000000000000000000000000000000000000 PUSH0 MSTORE PUSH1 0x32 PUSH1 0x4 MSTORE PUSH1 0x24 PUSH0 REVERT JUMPDEST PUSH0 PUSH1 0x40 DUP3 ADD SWAP1 POP PUSH2 0x1615 PUSH0 DUP4 ADD DUP6 PUSH2 0x11A7 JUMP JUMPDEST PUSH2 0x1622 PUSH1 0x20 DUP4 ADD DUP5 PUSH2 0x118D JUMP JUMPDEST SWAP4 SWAP3 POP POP POP JUMP JUMPDEST PUSH32 0x4E487B7100000000000000000000000000000000000000000000000000000000 PUSH0 MSTORE PUSH1 0x11 PUSH1 0x4 MSTORE PUSH1 0x24 PUSH0 REVERT JUMPDEST PUSH0 PUSH2 0x1660 DUP3 PUSH2 0x117E JUMP JUMPDEST SWAP2 POP PUSH2 0x166B DUP4 PUSH2 0x117E JUMP JUMPDEST SWAP3 POP DUP3 DUP3 ADD SWAP1 POP PUSH4 0xFFFFFFFF DUP2 GT ISZERO PUSH2 0x1687 JUMPI PUSH2 0x1686 PUSH2 0x1629 JUMP JUMPDEST JUMPDEST SWAP3 SWAP2 POP POP JUMP JUMPDEST PUSH0 DUP2 SWAP1 POP SWAP3 SWAP2 POP POP JUMP JUMPDEST POP JUMP JUMPDEST PUSH0 PUSH2 0x16A5 PUSH0 DUP4 PUSH2 0x168D JUMP JUMPDEST SWAP2 POP PUSH2 0x16B0 DUP3 PUSH2 0x1697 JUMP JUMPDEST PUSH0 DUP3 ADD SWAP1 POP SWAP2 SWAP1 POP JUMP JUMPDEST PUSH0 PUSH2 0x16C4 DUP3 PUSH2 0x169A JUMP JUMPDEST SWAP2 POP DUP2 SWAP1 POP SWAP2 SWAP1 POP JUMP JUMPDEST PUSH32 0x556E61626C6520746F2072656C656173652066756E6473210000000000000000 PUSH0 DUP3 ADD MSTORE POP JUMP JUMPDEST PUSH0 PUSH2 0x1702 PUSH1 0x18 DUP4 PUSH2 0x10A1 JUMP JUMPDEST SWAP2 POP PUSH2 0x170D DUP3 PUSH2 0x16CE JUMP JUMPDEST PUSH1 0x20 DUP3 ADD SWAP1 POP SWAP2 SWAP1 POP JUMP JUMPDEST PUSH0 PUSH1 0x20 DUP3 ADD SWAP1 POP DUP2 DUP2 SUB PUSH0 DUP4 ADD MSTORE PUSH2 0x172F DUP2 PUSH2 0x16F6 JUMP JUMPDEST SWAP1 POP SWAP2 SWAP1 POP JUMP INVALID LOG2 PUSH5 0x6970667358 0x22 SLT KECCAK256 0xE9 DIV DUP13 DUP9 PUSH23 0xFF753D28406411E39E138E4378A4553624B734832C44E4 DUP5 0xF PUSH14 0xA264736F6C634300081A00330000 "
				},
				"gasEstimates": {
					"creation": {
						"codeDepositCost": "1199200",
						"executionCost": "infinite",
						"totalCost": "infinite"
					},
					"external": {
						"admin()": "2596",
						"beneficiary()": "infinite",
						"deadline()": "infinite",
						"description()": "infinite",
						"donate()": "infinite",
						"donations(address)": "2877",
						"donors(uint256)": "5011",
						"finalizeCampaign()": "infinite",
						"fundingGoal()": "infinite",
						"getCampaignDetails()": "infinite",
						"getDonors()": "infinite",
						"isActive()": "2585",
						"name()": "infinite",
						"totalFunds()": "2511"
					},
					"internal": {
						"releaseFunds()": "infinite"
					}
				},
				"methodIdentifiers": {
					"admin()": "f851a440",
					"beneficiary()": "38af3eed",
					"deadline()": "29dcb0cf",
					"description()": "7284e416",
					"donate()": "ed88c68e",
					"donations(address)": "cc6cb19a",
					"donors(uint256)": "4abfa163",
					"finalizeCampaign()": "a1211bc0",
					"fundingGoal()": "7a3a0e84",
					"getCampaignDetails()": "0c611f24",
					"getDonors()": "96f300d4",
					"isActive()": "22f3e2d4",
					"name()": "06fdde03",
					"totalFunds()": "968ed600"
				}
			},
			"storageLayout": {
				"storage": [
					{
						"astId": 6,
						"contract": "backend/contracts/Campaign.sol:Campaign",
						"label": "name",
						"offset": 0,
						"slot": "0",
						"type": "t_string_storage"
					},
					{
						"astId": 8,
						"contract": "backend/contracts/Campaign.sol:Campaign",
						"label": "description",
						"offset": 0,
						"slot": "1",
						"type": "t_string_storage"
					},
					{
						"astId": 14,
						"contract": "backend/contracts/Campaign.sol:Campaign",
						"label": "totalFunds",
						"offset": 0,
						"slot": "2",
						"type": "t_uint32"
					},
					{
						"astId": 16,
						"contract": "backend/contracts/Campaign.sol:Campaign",
						"label": "isActive",
						"offset": 4,
						"slot": "2",
						"type": "t_bool"
					},
					{
						"astId": 20,
						"contract": "backend/contracts/Campaign.sol:Campaign",
						"label": "donations",
						"offset": 0,
						"slot": "3",
						"type": "t_mapping(t_address,t_uint32)"
					},
					{
						"astId": 23,
						"contract": "backend/contracts/Campaign.sol:Campaign",
						"label": "donors",
						"offset": 0,
						"slot": "4",
						"type": "t_array(t_address)dyn_storage"
					},
					{
						"astId": 25,
						"contract": "backend/contracts/Campaign.sol:Campaign",
						"label": "admin",
						"offset": 0,
						"slot": "5",
						"type": "t_address"
					}
				],
				"types": {
					"t_address": {
						"encoding": "inplace",
						"label": "address",
						"numberOfBytes": "20"
					},
					"t_array(t_address)dyn_storage": {
						"base": "t_address",
						"encoding": "dynamic_array",
						"label": "address[]",
						"numberOfBytes": "32"
					},
					"t_bool": {
						"encoding": "inplace",
						"label": "bool",
						"numberOfBytes": "1"
					},
					"t_mapping(t_address,t_uint32)": {
						"encoding": "mapping",
						"key": "t_address",
						"label": "mapping(address => uint32)",
						"numberOfBytes": "32",
						"value": "t_uint32"
					},
					"t_string_storage": {
						"encoding": "bytes",
						"label": "string",
						"numberOfBytes": "32"
					},
					"t_uint32": {
						"encoding": "inplace",
						"label": "uint32",
						"numberOfBytes": "4"
					}
				}
			},
			"userdoc": {
				"kind": "user",
				"methods": {},
				"version": 1
			}
		}
	}
}