{
	"backend/contracts/Campaign.sol": {
		"Campaign": {
			"abi": [
				{
					"inputs": [
						{
							"internalType": "uint256",
							"name": "_campaignId",
							"type": "uint256"
						},
						{
							"internalType": "address",
							"name": "_beneficiary",
							"type": "address"
						},
						{
							"internalType": "string",
							"name": "_name",
							"type": "string"
						},
						{
							"internalType": "string",
							"name": "_purpose",
							"type": "string"
						},
						{
							"internalType": "string",
							"name": "_description",
							"type": "string"
						},
						{
							"internalType": "uint256",
							"name": "_fundingGoal",
							"type": "uint256"
						},
						{
							"internalType": "uint256",
							"name": "_deadline",
							"type": "uint256"
						}
					],
					"stateMutability": "nonpayable",
					"type": "constructor"
				},
				{
					"anonymous": false,
					"inputs": [
						{
							"indexed": false,
							"internalType": "bool",
							"name": "success",
							"type": "bool"
						},
						{
							"indexed": false,
							"internalType": "uint256",
							"name": "totalFunds",
							"type": "uint256"
						},
						{
							"indexed": false,
							"internalType": "uint256",
							"name": "timestamp",
							"type": "uint256"
						}
					],
					"name": "CampaignFinalized",
					"type": "event"
				},
				{
					"anonymous": false,
					"inputs": [
						{
							"indexed": false,
							"internalType": "address",
							"name": "donor",
							"type": "address"
						},
						{
							"indexed": false,
							"internalType": "uint256",
							"name": "amount",
							"type": "uint256"
						},
						{
							"indexed": false,
							"internalType": "uint256",
							"name": "timestamp",
							"type": "uint256"
						}
					],
					"name": "DonationMade",
					"type": "event"
				},
				{
					"anonymous": false,
					"inputs": [
						{
							"indexed": false,
							"internalType": "uint256",
							"name": "amount",
							"type": "uint256"
						},
						{
							"indexed": false,
							"internalType": "uint256",
							"name": "timestamp",
							"type": "uint256"
						}
					],
					"name": "FundsWithdrawn",
					"type": "event"
				},
				{
					"anonymous": false,
					"inputs": [
						{
							"indexed": false,
							"internalType": "address",
							"name": "donor",
							"type": "address"
						},
						{
							"indexed": false,
							"internalType": "uint256",
							"name": "amount",
							"type": "uint256"
						},
						{
							"indexed": false,
							"internalType": "uint256",
							"name": "timestamp",
							"type": "uint256"
						}
					],
					"name": "RefundIssued",
					"type": "event"
				},
				{
					"inputs": [],
					"name": "beneficiary",
					"outputs": [
						{
							"internalType": "address",
							"name": "",
							"type": "address"
						}
					],
					"stateMutability": "view",
					"type": "function"
				},
				{
					"inputs": [],
					"name": "campaignId",
					"outputs": [
						{
							"internalType": "uint256",
							"name": "",
							"type": "uint256"
						}
					],
					"stateMutability": "view",
					"type": "function"
				},
				{
					"inputs": [],
					"name": "deadline",
					"outputs": [
						{
							"internalType": "uint256",
							"name": "",
							"type": "uint256"
						}
					],
					"stateMutability": "view",
					"type": "function"
				},
				{
					"inputs": [],
					"name": "description",
					"outputs": [
						{
							"internalType": "string",
							"name": "",
							"type": "string"
						}
					],
					"stateMutability": "view",
					"type": "function"
				},
				{
					"inputs": [],
					"name": "donate",
					"outputs": [],
					"stateMutability": "payable",
					"type": "function"
				},
				{
					"inputs": [
						{
							"internalType": "address",
							"name": "",
							"type": "address"
						}
					],
					"name": "donations",
					"outputs": [
						{
							"internalType": "uint256",
							"name": "",
							"type": "uint256"
						}
					],
					"stateMutability": "view",
					"type": "function"
				},
				{
					"inputs": [],
					"name": "finalizeCampaign",
					"outputs": [],
					"stateMutability": "nonpayable",
					"type": "function"
				},
				{
					"inputs": [],
					"name": "fundingGoal",
					"outputs": [
						{
							"internalType": "uint256",
							"name": "",
							"type": "uint256"
						}
					],
					"stateMutability": "view",
					"type": "function"
				},
				{
					"inputs": [],
					"name": "isActive",
					"outputs": [
						{
							"internalType": "bool",
							"name": "",
							"type": "bool"
						}
					],
					"stateMutability": "view",
					"type": "function"
				},
				{
					"inputs": [],
					"name": "name",
					"outputs": [
						{
							"internalType": "string",
							"name": "",
							"type": "string"
						}
					],
					"stateMutability": "view",
					"type": "function"
				},
				{
					"inputs": [],
					"name": "purpose",
					"outputs": [
						{
							"internalType": "string",
							"name": "",
							"type": "string"
						}
					],
					"stateMutability": "view",
					"type": "function"
				},
				{
					"inputs": [],
					"name": "totalFunds",
					"outputs": [
						{
							"internalType": "uint256",
							"name": "",
							"type": "uint256"
						}
					],
					"stateMutability": "view",
					"type": "function"
				}
			],
			"devdoc": {
				"kind": "dev",
				"methods": {},
				"version": 1
			},
			"evm": {
				"assembly": "    /* \"backend/contracts/Campaign.sol\":70:3881  contract Campaign {... */\n  mstore(0x40, 0x80)\n    /* \"backend/contracts/Campaign.sol\":716:1233  constructor(... */\n  callvalue\n  dup1\n  iszero\n  tag_1\n  jumpi\n  0x00\n  dup1\n  revert\ntag_1:\n  pop\n  mload(0x40)\n  sub(codesize, bytecodeSize)\n  dup1\n  bytecodeSize\n  dup4\n  codecopy\n  dup2\n  dup2\n  add\n  0x40\n  mstore\n  dup2\n  add\n  swap1\n  tag_2\n  swap2\n  swap1\n  tag_3\n  jump\t// in\ntag_2:\n    /* \"backend/contracts/Campaign.sol\":961:972  _campaignId */\n  dup7\n    /* \"backend/contracts/Campaign.sol\":948:958  campaignId */\n  0x00\n    /* \"backend/contracts/Campaign.sol\":948:972  campaignId = _campaignId */\n  dup2\n  swap1\n  sstore\n  pop\n    /* \"backend/contracts/Campaign.sol\":996:1008  _beneficiary */\n  dup6\n    /* \"backend/contracts/Campaign.sol\":982:993  beneficiary */\n  0x01\n  0x00\n    /* \"backend/contracts/Campaign.sol\":982:1008  beneficiary = _beneficiary */\n  0x0100\n  exp\n  dup2\n  sload\n  dup2\n  0xffffffffffffffffffffffffffffffffffffffff\n  mul\n  not\n  and\n  swap1\n  dup4\n  0xffffffffffffffffffffffffffffffffffffffff\n  and\n  mul\n  or\n  swap1\n  sstore\n  pop\n    /* \"backend/contracts/Campaign.sol\":1025:1030  _name */\n  dup5\n    /* \"backend/contracts/Campaign.sol\":1018:1022  name */\n  0x02\n    /* \"backend/contracts/Campaign.sol\":1018:1030  name = _name */\n  swap1\n  dup2\n  tag_6\n  swap2\n  swap1\n  tag_7\n  jump\t// in\ntag_6:\n  pop\n    /* \"backend/contracts/Campaign.sol\":1050:1058  _purpose */\n  dup4\n    /* \"backend/contracts/Campaign.sol\":1040:1047  purpose */\n  0x03\n    /* \"backend/contracts/Campaign.sol\":1040:1058  purpose = _purpose */\n  swap1\n  dup2\n  tag_8\n  swap2\n  swap1\n  tag_7\n  jump\t// in\ntag_8:\n  pop\n    /* \"backend/contracts/Campaign.sol\":1082:1094  _description */\n  dup3\n    /* \"backend/contracts/Campaign.sol\":1068:1079  description */\n  0x04\n    /* \"backend/contracts/Campaign.sol\":1068:1094  description = _description */\n  swap1\n  dup2\n  tag_9\n  swap2\n  swap1\n  tag_7\n  jump\t// in\ntag_9:\n  pop\n    /* \"backend/contracts/Campaign.sol\":1118:1130  _fundingGoal */\n  dup2\n    /* \"backend/contracts/Campaign.sol\":1104:1115  fundingGoal */\n  0x05\n    /* \"backend/contracts/Campaign.sol\":1104:1130  fundingGoal = _fundingGoal */\n  dup2\n  swap1\n  sstore\n  pop\n    /* \"backend/contracts/Campaign.sol\":1151:1160  _deadline */\n  dup1\n    /* \"backend/contracts/Campaign.sol\":1140:1148  deadline */\n  0x06\n    /* \"backend/contracts/Campaign.sol\":1140:1160  deadline = _deadline */\n  dup2\n  swap1\n  sstore\n  pop\n    /* \"backend/contracts/Campaign.sol\":1181:1185  true */\n  0x01\n    /* \"backend/contracts/Campaign.sol\":1170:1178  isActive */\n  0x08\n  0x00\n    /* \"backend/contracts/Campaign.sol\":1170:1185  isActive = true */\n  0x0100\n  exp\n  dup2\n  sload\n  dup2\n  0xff\n  mul\n  not\n  and\n  swap1\n  dup4\n  iszero\n  iszero\n  mul\n  or\n  swap1\n  sstore\n  pop\n    /* \"backend/contracts/Campaign.sol\":716:1233  constructor(... */\n  pop\n  pop\n  pop\n  pop\n  pop\n  pop\n  pop\n    /* \"backend/contracts/Campaign.sol\":70:3881  contract Campaign {... */\n  jump(tag_10)\n    /* \"#utility.yul\":7:82   */\ntag_11:\n    /* \"#utility.yul\":40:46   */\n  0x00\n    /* \"#utility.yul\":73:75   */\n  0x40\n    /* \"#utility.yul\":67:76   */\n  mload\n    /* \"#utility.yul\":57:76   */\n  swap1\n  pop\n    /* \"#utility.yul\":7:82   */\n  swap1\n  jump\t// out\n    /* \"#utility.yul\":88:205   */\ntag_12:\n    /* \"#utility.yul\":197:198   */\n  0x00\n    /* \"#utility.yul\":194:195   */\n  dup1\n    /* \"#utility.yul\":187:199   */\n  revert\n    /* \"#utility.yul\":211:328   */\ntag_13:\n    /* \"#utility.yul\":320:321   */\n  0x00\n    /* \"#utility.yul\":317:318   */\n  dup1\n    /* \"#utility.yul\":310:322   */\n  revert\n    /* \"#utility.yul\":334:411   */\ntag_14:\n    /* \"#utility.yul\":371:378   */\n  0x00\n    /* \"#utility.yul\":400:405   */\n  dup2\n    /* \"#utility.yul\":389:405   */\n  swap1\n  pop\n    /* \"#utility.yul\":334:411   */\n  swap2\n  swap1\n  pop\n  jump\t// out\n    /* \"#utility.yul\":417:539   */\ntag_15:\n    /* \"#utility.yul\":490:514   */\n  tag_55\n    /* \"#utility.yul\":508:513   */\n  dup2\n    /* \"#utility.yul\":490:514   */\n  tag_14\n  jump\t// in\ntag_55:\n    /* \"#utility.yul\":483:488   */\n  dup2\n    /* \"#utility.yul\":480:515   */\n  eq\n    /* \"#utility.yul\":470:533   */\n  tag_56\n  jumpi\n    /* \"#utility.yul\":529:530   */\n  0x00\n    /* \"#utility.yul\":526:527   */\n  dup1\n    /* \"#utility.yul\":519:531   */\n  revert\n    /* \"#utility.yul\":470:533   */\ntag_56:\n    /* \"#utility.yul\":417:539   */\n  pop\n  jump\t// out\n    /* \"#utility.yul\":545:688   */\ntag_16:\n    /* \"#utility.yul\":602:607   */\n  0x00\n    /* \"#utility.yul\":633:639   */\n  dup2\n    /* \"#utility.yul\":627:640   */\n  mload\n    /* \"#utility.yul\":618:640   */\n  swap1\n  pop\n    /* \"#utility.yul\":649:682   */\n  tag_58\n    /* \"#utility.yul\":676:681   */\n  dup2\n    /* \"#utility.yul\":649:682   */\n  tag_15\n  jump\t// in\ntag_58:\n    /* \"#utility.yul\":545:688   */\n  swap3\n  swap2\n  pop\n  pop\n  jump\t// out\n    /* \"#utility.yul\":694:820   */\ntag_17:\n    /* \"#utility.yul\":731:738   */\n  0x00\n    /* \"#utility.yul\":771:813   */\n  0xffffffffffffffffffffffffffffffffffffffff\n    /* \"#utility.yul\":764:769   */\n  dup3\n    /* \"#utility.yul\":760:814   */\n  and\n    /* \"#utility.yul\":749:814   */\n  swap1\n  pop\n    /* \"#utility.yul\":694:820   */\n  swap2\n  swap1\n  pop\n  jump\t// out\n    /* \"#utility.yul\":826:922   */\ntag_18:\n    /* \"#utility.yul\":863:870   */\n  0x00\n    /* \"#utility.yul\":892:916   */\n  tag_61\n    /* \"#utility.yul\":910:915   */\n  dup3\n    /* \"#utility.yul\":892:916   */\n  tag_17\n  jump\t// in\ntag_61:\n    /* \"#utility.yul\":881:916   */\n  swap1\n  pop\n    /* \"#utility.yul\":826:922   */\n  swap2\n  swap1\n  pop\n  jump\t// out\n    /* \"#utility.yul\":928:1050   */\ntag_19:\n    /* \"#utility.yul\":1001:1025   */\n  tag_63\n    /* \"#utility.yul\":1019:1024   */\n  dup2\n    /* \"#utility.yul\":1001:1025   */\n  tag_18\n  jump\t// in\ntag_63:\n    /* \"#utility.yul\":994:999   */\n  dup2\n    /* \"#utility.yul\":991:1026   */\n  eq\n    /* \"#utility.yul\":981:1044   */\n  tag_64\n  jumpi\n    /* \"#utility.yul\":1040:1041   */\n  0x00\n    /* \"#utility.yul\":1037:1038   */\n  dup1\n    /* \"#utility.yul\":1030:1042   */\n  revert\n    /* \"#utility.yul\":981:1044   */\ntag_64:\n    /* \"#utility.yul\":928:1050   */\n  pop\n  jump\t// out\n    /* \"#utility.yul\":1056:1199   */\ntag_20:\n    /* \"#utility.yul\":1113:1118   */\n  0x00\n    /* \"#utility.yul\":1144:1150   */\n  dup2\n    /* \"#utility.yul\":1138:1151   */\n  mload\n    /* \"#utility.yul\":1129:1151   */\n  swap1\n  pop\n    /* \"#utility.yul\":1160:1193   */\n  tag_66\n    /* \"#utility.yul\":1187:1192   */\n  dup2\n    /* \"#utility.yul\":1160:1193   */\n  tag_19\n  jump\t// in\ntag_66:\n    /* \"#utility.yul\":1056:1199   */\n  swap3\n  swap2\n  pop\n  pop\n  jump\t// out\n    /* \"#utility.yul\":1205:1322   */\ntag_21:\n    /* \"#utility.yul\":1314:1315   */\n  0x00\n    /* \"#utility.yul\":1311:1312   */\n  dup1\n    /* \"#utility.yul\":1304:1316   */\n  revert\n    /* \"#utility.yul\":1328:1445   */\ntag_22:\n    /* \"#utility.yul\":1437:1438   */\n  0x00\n    /* \"#utility.yul\":1434:1435   */\n  dup1\n    /* \"#utility.yul\":1427:1439   */\n  revert\n    /* \"#utility.yul\":1451:1553   */\ntag_23:\n    /* \"#utility.yul\":1492:1498   */\n  0x00\n    /* \"#utility.yul\":1543:1545   */\n  0x1f\n    /* \"#utility.yul\":1539:1546   */\n  not\n    /* \"#utility.yul\":1534:1536   */\n  0x1f\n    /* \"#utility.yul\":1527:1532   */\n  dup4\n    /* \"#utility.yul\":1523:1537   */\n  add\n    /* \"#utility.yul\":1519:1547   */\n  and\n    /* \"#utility.yul\":1509:1547   */\n  swap1\n  pop\n    /* \"#utility.yul\":1451:1553   */\n  swap2\n  swap1\n  pop\n  jump\t// out\n    /* \"#utility.yul\":1559:1739   */\ntag_24:\n    /* \"#utility.yul\":1607:1684   */\n  0x4e487b7100000000000000000000000000000000000000000000000000000000\n    /* \"#utility.yul\":1604:1605   */\n  0x00\n    /* \"#utility.yul\":1597:1685   */\n  mstore\n    /* \"#utility.yul\":1704:1708   */\n  0x41\n    /* \"#utility.yul\":1701:1702   */\n  0x04\n    /* \"#utility.yul\":1694:1709   */\n  mstore\n    /* \"#utility.yul\":1728:1732   */\n  0x24\n    /* \"#utility.yul\":1725:1726   */\n  0x00\n    /* \"#utility.yul\":1718:1733   */\n  revert\n    /* \"#utility.yul\":1745:2026   */\ntag_25:\n    /* \"#utility.yul\":1828:1855   */\n  tag_72\n    /* \"#utility.yul\":1850:1854   */\n  dup3\n    /* \"#utility.yul\":1828:1855   */\n  tag_23\n  jump\t// in\ntag_72:\n    /* \"#utility.yul\":1820:1826   */\n  dup2\n    /* \"#utility.yul\":1816:1856   */\n  add\n    /* \"#utility.yul\":1958:1964   */\n  dup2\n    /* \"#utility.yul\":1946:1956   */\n  dup2\n    /* \"#utility.yul\":1943:1965   */\n  lt\n    /* \"#utility.yul\":1922:1940   */\n  0xffffffffffffffff\n    /* \"#utility.yul\":1910:1920   */\n  dup3\n    /* \"#utility.yul\":1907:1941   */\n  gt\n    /* \"#utility.yul\":1904:1966   */\n  or\n    /* \"#utility.yul\":1901:1989   */\n  iszero\n  tag_73\n  jumpi\n    /* \"#utility.yul\":1969:1987   */\n  tag_74\n  tag_24\n  jump\t// in\ntag_74:\n    /* \"#utility.yul\":1901:1989   */\ntag_73:\n    /* \"#utility.yul\":2009:2019   */\n  dup1\n    /* \"#utility.yul\":2005:2007   */\n  0x40\n    /* \"#utility.yul\":1998:2020   */\n  mstore\n    /* \"#utility.yul\":1788:2026   */\n  pop\n    /* \"#utility.yul\":1745:2026   */\n  pop\n  pop\n  jump\t// out\n    /* \"#utility.yul\":2032:2161   */\ntag_26:\n    /* \"#utility.yul\":2066:2072   */\n  0x00\n    /* \"#utility.yul\":2093:2113   */\n  tag_76\n  tag_11\n  jump\t// in\ntag_76:\n    /* \"#utility.yul\":2083:2113   */\n  swap1\n  pop\n    /* \"#utility.yul\":2122:2155   */\n  tag_77\n    /* \"#utility.yul\":2150:2154   */\n  dup3\n    /* \"#utility.yul\":2142:2148   */\n  dup3\n    /* \"#utility.yul\":2122:2155   */\n  tag_25\n  jump\t// in\ntag_77:\n    /* \"#utility.yul\":2032:2161   */\n  swap2\n  swap1\n  pop\n  jump\t// out\n    /* \"#utility.yul\":2167:2475   */\ntag_27:\n    /* \"#utility.yul\":2229:2233   */\n  0x00\n    /* \"#utility.yul\":2319:2337   */\n  0xffffffffffffffff\n    /* \"#utility.yul\":2311:2317   */\n  dup3\n    /* \"#utility.yul\":2308:2338   */\n  gt\n    /* \"#utility.yul\":2305:2361   */\n  iszero\n  tag_79\n  jumpi\n    /* \"#utility.yul\":2341:2359   */\n  tag_80\n  tag_24\n  jump\t// in\ntag_80:\n    /* \"#utility.yul\":2305:2361   */\ntag_79:\n    /* \"#utility.yul\":2379:2408   */\n  tag_81\n    /* \"#utility.yul\":2401:2407   */\n  dup3\n    /* \"#utility.yul\":2379:2408   */\n  tag_23\n  jump\t// in\ntag_81:\n    /* \"#utility.yul\":2371:2408   */\n  swap1\n  pop\n    /* \"#utility.yul\":2463:2467   */\n  0x20\n    /* \"#utility.yul\":2457:2461   */\n  dup2\n    /* \"#utility.yul\":2453:2468   */\n  add\n    /* \"#utility.yul\":2445:2468   */\n  swap1\n  pop\n    /* \"#utility.yul\":2167:2475   */\n  swap2\n  swap1\n  pop\n  jump\t// out\n    /* \"#utility.yul\":2481:2620   */\ntag_28:\n    /* \"#utility.yul\":2570:2576   */\n  dup3\n    /* \"#utility.yul\":2565:2568   */\n  dup2\n    /* \"#utility.yul\":2560:2563   */\n  dup4\n    /* \"#utility.yul\":2554:2577   */\n  mcopy\n    /* \"#utility.yul\":2611:2612   */\n  0x00\n    /* \"#utility.yul\":2602:2608   */\n  dup4\n    /* \"#utility.yul\":2597:2600   */\n  dup4\n    /* \"#utility.yul\":2593:2609   */\n  add\n    /* \"#utility.yul\":2586:2613   */\n  mstore\n    /* \"#utility.yul\":2481:2620   */\n  pop\n  pop\n  pop\n  jump\t// out\n    /* \"#utility.yul\":2626:3060   */\ntag_29:\n    /* \"#utility.yul\":2715:2720   */\n  0x00\n    /* \"#utility.yul\":2740:2806   */\n  tag_84\n    /* \"#utility.yul\":2756:2805   */\n  tag_85\n    /* \"#utility.yul\":2798:2804   */\n  dup5\n    /* \"#utility.yul\":2756:2805   */\n  tag_27\n  jump\t// in\ntag_85:\n    /* \"#utility.yul\":2740:2806   */\n  tag_26\n  jump\t// in\ntag_84:\n    /* \"#utility.yul\":2731:2806   */\n  swap1\n  pop\n    /* \"#utility.yul\":2829:2835   */\n  dup3\n    /* \"#utility.yul\":2822:2827   */\n  dup2\n    /* \"#utility.yul\":2815:2836   */\n  mstore\n    /* \"#utility.yul\":2867:2871   */\n  0x20\n    /* \"#utility.yul\":2860:2865   */\n  dup2\n    /* \"#utility.yul\":2856:2872   */\n  add\n    /* \"#utility.yul\":2905:2908   */\n  dup5\n    /* \"#utility.yul\":2896:2902   */\n  dup5\n    /* \"#utility.yul\":2891:2894   */\n  dup5\n    /* \"#utility.yul\":2887:2903   */\n  add\n    /* \"#utility.yul\":2884:2909   */\n  gt\n    /* \"#utility.yul\":2881:2993   */\n  iszero\n  tag_86\n  jumpi\n    /* \"#utility.yul\":2912:2991   */\n  tag_87\n  tag_22\n  jump\t// in\ntag_87:\n    /* \"#utility.yul\":2881:2993   */\ntag_86:\n    /* \"#utility.yul\":3002:3054   */\n  tag_88\n    /* \"#utility.yul\":3047:3053   */\n  dup5\n    /* \"#utility.yul\":3042:3045   */\n  dup3\n    /* \"#utility.yul\":3037:3040   */\n  dup6\n    /* \"#utility.yul\":3002:3054   */\n  tag_28\n  jump\t// in\ntag_88:\n    /* \"#utility.yul\":2721:3060   */\n  pop\n    /* \"#utility.yul\":2626:3060   */\n  swap4\n  swap3\n  pop\n  pop\n  pop\n  jump\t// out\n    /* \"#utility.yul\":3080:3435   */\ntag_30:\n    /* \"#utility.yul\":3147:3152   */\n  0x00\n    /* \"#utility.yul\":3196:3199   */\n  dup3\n    /* \"#utility.yul\":3189:3193   */\n  0x1f\n    /* \"#utility.yul\":3181:3187   */\n  dup4\n    /* \"#utility.yul\":3177:3194   */\n  add\n    /* \"#utility.yul\":3173:3200   */\n  slt\n    /* \"#utility.yul\":3163:3285   */\n  tag_90\n  jumpi\n    /* \"#utility.yul\":3204:3283   */\n  tag_91\n  tag_21\n  jump\t// in\ntag_91:\n    /* \"#utility.yul\":3163:3285   */\ntag_90:\n    /* \"#utility.yul\":3314:3320   */\n  dup2\n    /* \"#utility.yul\":3308:3321   */\n  mload\n    /* \"#utility.yul\":3339:3429   */\n  tag_92\n    /* \"#utility.yul\":3425:3428   */\n  dup5\n    /* \"#utility.yul\":3417:3423   */\n  dup3\n    /* \"#utility.yul\":3410:3414   */\n  0x20\n    /* \"#utility.yul\":3402:3408   */\n  dup7\n    /* \"#utility.yul\":3398:3415   */\n  add\n    /* \"#utility.yul\":3339:3429   */\n  tag_29\n  jump\t// in\ntag_92:\n    /* \"#utility.yul\":3330:3429   */\n  swap2\n  pop\n    /* \"#utility.yul\":3153:3435   */\n  pop\n    /* \"#utility.yul\":3080:3435   */\n  swap3\n  swap2\n  pop\n  pop\n  jump\t// out\n    /* \"#utility.yul\":3441:5251   */\ntag_3:\n    /* \"#utility.yul\":3595:3601   */\n  0x00\n    /* \"#utility.yul\":3603:3609   */\n  dup1\n    /* \"#utility.yul\":3611:3617   */\n  0x00\n    /* \"#utility.yul\":3619:3625   */\n  dup1\n    /* \"#utility.yul\":3627:3633   */\n  0x00\n    /* \"#utility.yul\":3635:3641   */\n  dup1\n    /* \"#utility.yul\":3643:3649   */\n  0x00\n    /* \"#utility.yul\":3692:3695   */\n  0xe0\n    /* \"#utility.yul\":3680:3689   */\n  dup9\n    /* \"#utility.yul\":3671:3678   */\n  dup11\n    /* \"#utility.yul\":3667:3690   */\n  sub\n    /* \"#utility.yul\":3663:3696   */\n  slt\n    /* \"#utility.yul\":3660:3780   */\n  iszero\n  tag_94\n  jumpi\n    /* \"#utility.yul\":3699:3778   */\n  tag_95\n  tag_12\n  jump\t// in\ntag_95:\n    /* \"#utility.yul\":3660:3780   */\ntag_94:\n    /* \"#utility.yul\":3819:3820   */\n  0x00\n    /* \"#utility.yul\":3844:3908   */\n  tag_96\n    /* \"#utility.yul\":3900:3907   */\n  dup11\n    /* \"#utility.yul\":3891:3897   */\n  dup3\n    /* \"#utility.yul\":3880:3889   */\n  dup12\n    /* \"#utility.yul\":3876:3898   */\n  add\n    /* \"#utility.yul\":3844:3908   */\n  tag_16\n  jump\t// in\ntag_96:\n    /* \"#utility.yul\":3834:3908   */\n  swap8\n  pop\n    /* \"#utility.yul\":3790:3918   */\n  pop\n    /* \"#utility.yul\":3957:3959   */\n  0x20\n    /* \"#utility.yul\":3983:4047   */\n  tag_97\n    /* \"#utility.yul\":4039:4046   */\n  dup11\n    /* \"#utility.yul\":4030:4036   */\n  dup3\n    /* \"#utility.yul\":4019:4028   */\n  dup12\n    /* \"#utility.yul\":4015:4037   */\n  add\n    /* \"#utility.yul\":3983:4047   */\n  tag_20\n  jump\t// in\ntag_97:\n    /* \"#utility.yul\":3973:4047   */\n  swap7\n  pop\n    /* \"#utility.yul\":3928:4057   */\n  pop\n    /* \"#utility.yul\":4117:4119   */\n  0x40\n    /* \"#utility.yul\":4106:4115   */\n  dup9\n    /* \"#utility.yul\":4102:4120   */\n  add\n    /* \"#utility.yul\":4096:4121   */\n  mload\n    /* \"#utility.yul\":4148:4166   */\n  0xffffffffffffffff\n    /* \"#utility.yul\":4140:4146   */\n  dup2\n    /* \"#utility.yul\":4137:4167   */\n  gt\n    /* \"#utility.yul\":4134:4251   */\n  iszero\n  tag_98\n  jumpi\n    /* \"#utility.yul\":4170:4249   */\n  tag_99\n  tag_13\n  jump\t// in\ntag_99:\n    /* \"#utility.yul\":4134:4251   */\ntag_98:\n    /* \"#utility.yul\":4275:4349   */\n  tag_100\n    /* \"#utility.yul\":4341:4348   */\n  dup11\n    /* \"#utility.yul\":4332:4338   */\n  dup3\n    /* \"#utility.yul\":4321:4330   */\n  dup12\n    /* \"#utility.yul\":4317:4339   */\n  add\n    /* \"#utility.yul\":4275:4349   */\n  tag_30\n  jump\t// in\ntag_100:\n    /* \"#utility.yul\":4265:4349   */\n  swap6\n  pop\n    /* \"#utility.yul\":4067:4359   */\n  pop\n    /* \"#utility.yul\":4419:4421   */\n  0x60\n    /* \"#utility.yul\":4408:4417   */\n  dup9\n    /* \"#utility.yul\":4404:4422   */\n  add\n    /* \"#utility.yul\":4398:4423   */\n  mload\n    /* \"#utility.yul\":4450:4468   */\n  0xffffffffffffffff\n    /* \"#utility.yul\":4442:4448   */\n  dup2\n    /* \"#utility.yul\":4439:4469   */\n  gt\n    /* \"#utility.yul\":4436:4553   */\n  iszero\n  tag_101\n  jumpi\n    /* \"#utility.yul\":4472:4551   */\n  tag_102\n  tag_13\n  jump\t// in\ntag_102:\n    /* \"#utility.yul\":4436:4553   */\ntag_101:\n    /* \"#utility.yul\":4577:4651   */\n  tag_103\n    /* \"#utility.yul\":4643:4650   */\n  dup11\n    /* \"#utility.yul\":4634:4640   */\n  dup3\n    /* \"#utility.yul\":4623:4632   */\n  dup12\n    /* \"#utility.yul\":4619:4641   */\n  add\n    /* \"#utility.yul\":4577:4651   */\n  tag_30\n  jump\t// in\ntag_103:\n    /* \"#utility.yul\":4567:4651   */\n  swap5\n  pop\n    /* \"#utility.yul\":4369:4661   */\n  pop\n    /* \"#utility.yul\":4721:4724   */\n  0x80\n    /* \"#utility.yul\":4710:4719   */\n  dup9\n    /* \"#utility.yul\":4706:4725   */\n  add\n    /* \"#utility.yul\":4700:4726   */\n  mload\n    /* \"#utility.yul\":4753:4771   */\n  0xffffffffffffffff\n    /* \"#utility.yul\":4745:4751   */\n  dup2\n    /* \"#utility.yul\":4742:4772   */\n  gt\n    /* \"#utility.yul\":4739:4856   */\n  iszero\n  tag_104\n  jumpi\n    /* \"#utility.yul\":4775:4854   */\n  tag_105\n  tag_13\n  jump\t// in\ntag_105:\n    /* \"#utility.yul\":4739:4856   */\ntag_104:\n    /* \"#utility.yul\":4880:4954   */\n  tag_106\n    /* \"#utility.yul\":4946:4953   */\n  dup11\n    /* \"#utility.yul\":4937:4943   */\n  dup3\n    /* \"#utility.yul\":4926:4935   */\n  dup12\n    /* \"#utility.yul\":4922:4944   */\n  add\n    /* \"#utility.yul\":4880:4954   */\n  tag_30\n  jump\t// in\ntag_106:\n    /* \"#utility.yul\":4870:4954   */\n  swap4\n  pop\n    /* \"#utility.yul\":4671:4964   */\n  pop\n    /* \"#utility.yul\":5003:5006   */\n  0xa0\n    /* \"#utility.yul\":5030:5094   */\n  tag_107\n    /* \"#utility.yul\":5086:5093   */\n  dup11\n    /* \"#utility.yul\":5077:5083   */\n  dup3\n    /* \"#utility.yul\":5066:5075   */\n  dup12\n    /* \"#utility.yul\":5062:5084   */\n  add\n    /* \"#utility.yul\":5030:5094   */\n  tag_16\n  jump\t// in\ntag_107:\n    /* \"#utility.yul\":5020:5094   */\n  swap3\n  pop\n    /* \"#utility.yul\":4974:5104   */\n  pop\n    /* \"#utility.yul\":5143:5146   */\n  0xc0\n    /* \"#utility.yul\":5170:5234   */\n  tag_108\n    /* \"#utility.yul\":5226:5233   */\n  dup11\n    /* \"#utility.yul\":5217:5223   */\n  dup3\n    /* \"#utility.yul\":5206:5215   */\n  dup12\n    /* \"#utility.yul\":5202:5224   */\n  add\n    /* \"#utility.yul\":5170:5234   */\n  tag_16\n  jump\t// in\ntag_108:\n    /* \"#utility.yul\":5160:5234   */\n  swap2\n  pop\n    /* \"#utility.yul\":5114:5244   */\n  pop\n    /* \"#utility.yul\":3441:5251   */\n  swap3\n  swap6\n  swap9\n  swap2\n  swap5\n  swap8\n  pop\n  swap3\n  swap6\n  pop\n  jump\t// out\n    /* \"#utility.yul\":5257:5356   */\ntag_31:\n    /* \"#utility.yul\":5309:5315   */\n  0x00\n    /* \"#utility.yul\":5343:5348   */\n  dup2\n    /* \"#utility.yul\":5337:5349   */\n  mload\n    /* \"#utility.yul\":5327:5349   */\n  swap1\n  pop\n    /* \"#utility.yul\":5257:5356   */\n  swap2\n  swap1\n  pop\n  jump\t// out\n    /* \"#utility.yul\":5362:5542   */\ntag_32:\n    /* \"#utility.yul\":5410:5487   */\n  0x4e487b7100000000000000000000000000000000000000000000000000000000\n    /* \"#utility.yul\":5407:5408   */\n  0x00\n    /* \"#utility.yul\":5400:5488   */\n  mstore\n    /* \"#utility.yul\":5507:5511   */\n  0x22\n    /* \"#utility.yul\":5504:5505   */\n  0x04\n    /* \"#utility.yul\":5497:5512   */\n  mstore\n    /* \"#utility.yul\":5531:5535   */\n  0x24\n    /* \"#utility.yul\":5528:5529   */\n  0x00\n    /* \"#utility.yul\":5521:5536   */\n  revert\n    /* \"#utility.yul\":5548:5868   */\ntag_33:\n    /* \"#utility.yul\":5592:5598   */\n  0x00\n    /* \"#utility.yul\":5629:5630   */\n  0x02\n    /* \"#utility.yul\":5623:5627   */\n  dup3\n    /* \"#utility.yul\":5619:5631   */\n  div\n    /* \"#utility.yul\":5609:5631   */\n  swap1\n  pop\n    /* \"#utility.yul\":5676:5677   */\n  0x01\n    /* \"#utility.yul\":5670:5674   */\n  dup3\n    /* \"#utility.yul\":5666:5678   */\n  and\n    /* \"#utility.yul\":5697:5715   */\n  dup1\n    /* \"#utility.yul\":5687:5768   */\n  tag_112\n  jumpi\n    /* \"#utility.yul\":5753:5757   */\n  0x7f\n    /* \"#utility.yul\":5745:5751   */\n  dup3\n    /* \"#utility.yul\":5741:5758   */\n  and\n    /* \"#utility.yul\":5731:5758   */\n  swap2\n  pop\n    /* \"#utility.yul\":5687:5768   */\ntag_112:\n    /* \"#utility.yul\":5815:5817   */\n  0x20\n    /* \"#utility.yul\":5807:5813   */\n  dup3\n    /* \"#utility.yul\":5804:5818   */\n  lt\n    /* \"#utility.yul\":5784:5802   */\n  dup2\n    /* \"#utility.yul\":5781:5819   */\n  sub\n    /* \"#utility.yul\":5778:5862   */\n  tag_113\n  jumpi\n    /* \"#utility.yul\":5834:5852   */\n  tag_114\n  tag_32\n  jump\t// in\ntag_114:\n    /* \"#utility.yul\":5778:5862   */\ntag_113:\n    /* \"#utility.yul\":5599:5868   */\n  pop\n    /* \"#utility.yul\":5548:5868   */\n  swap2\n  swap1\n  pop\n  jump\t// out\n    /* \"#utility.yul\":5874:6015   */\ntag_34:\n    /* \"#utility.yul\":5923:5927   */\n  0x00\n    /* \"#utility.yul\":5946:5949   */\n  dup2\n    /* \"#utility.yul\":5938:5949   */\n  swap1\n  pop\n    /* \"#utility.yul\":5969:5972   */\n  dup2\n    /* \"#utility.yul\":5966:5967   */\n  0x00\n    /* \"#utility.yul\":5959:5973   */\n  mstore\n    /* \"#utility.yul\":6003:6007   */\n  0x20\n    /* \"#utility.yul\":6000:6001   */\n  0x00\n    /* \"#utility.yul\":5990:6008   */\n  keccak256\n    /* \"#utility.yul\":5982:6008   */\n  swap1\n  pop\n    /* \"#utility.yul\":5874:6015   */\n  swap2\n  swap1\n  pop\n  jump\t// out\n    /* \"#utility.yul\":6021:6114   */\ntag_35:\n    /* \"#utility.yul\":6058:6064   */\n  0x00\n    /* \"#utility.yul\":6105:6107   */\n  0x20\n    /* \"#utility.yul\":6100:6102   */\n  0x1f\n    /* \"#utility.yul\":6093:6098   */\n  dup4\n    /* \"#utility.yul\":6089:6103   */\n  add\n    /* \"#utility.yul\":6085:6108   */\n  div\n    /* \"#utility.yul\":6075:6108   */\n  swap1\n  pop\n    /* \"#utility.yul\":6021:6114   */\n  swap2\n  swap1\n  pop\n  jump\t// out\n    /* \"#utility.yul\":6120:6227   */\ntag_36:\n    /* \"#utility.yul\":6164:6172   */\n  0x00\n    /* \"#utility.yul\":6214:6219   */\n  dup3\n    /* \"#utility.yul\":6208:6212   */\n  dup3\n    /* \"#utility.yul\":6204:6220   */\n  shl\n    /* \"#utility.yul\":6183:6220   */\n  swap1\n  pop\n    /* \"#utility.yul\":6120:6227   */\n  swap3\n  swap2\n  pop\n  pop\n  jump\t// out\n    /* \"#utility.yul\":6233:6626   */\ntag_37:\n    /* \"#utility.yul\":6302:6308   */\n  0x00\n    /* \"#utility.yul\":6352:6353   */\n  0x08\n    /* \"#utility.yul\":6340:6350   */\n  dup4\n    /* \"#utility.yul\":6336:6354   */\n  mul\n    /* \"#utility.yul\":6375:6472   */\n  tag_119\n    /* \"#utility.yul\":6405:6471   */\n  0xffffffffffffffffffffffffffffffffffffffffffffffffffffffffffffffff\n    /* \"#utility.yul\":6394:6403   */\n  dup3\n    /* \"#utility.yul\":6375:6472   */\n  tag_36\n  jump\t// in\ntag_119:\n    /* \"#utility.yul\":6493:6532   */\n  tag_120\n    /* \"#utility.yul\":6523:6531   */\n  dup7\n    /* \"#utility.yul\":6512:6521   */\n  dup4\n    /* \"#utility.yul\":6493:6532   */\n  tag_36\n  jump\t// in\ntag_120:\n    /* \"#utility.yul\":6481:6532   */\n  swap6\n  pop\n    /* \"#utility.yul\":6565:6569   */\n  dup1\n    /* \"#utility.yul\":6561:6570   */\n  not\n    /* \"#utility.yul\":6554:6559   */\n  dup5\n    /* \"#utility.yul\":6550:6571   */\n  and\n    /* \"#utility.yul\":6541:6571   */\n  swap4\n  pop\n    /* \"#utility.yul\":6614:6618   */\n  dup1\n    /* \"#utility.yul\":6604:6612   */\n  dup7\n    /* \"#utility.yul\":6600:6619   */\n  and\n    /* \"#utility.yul\":6593:6598   */\n  dup5\n    /* \"#utility.yul\":6590:6620   */\n  or\n    /* \"#utility.yul\":6580:6620   */\n  swap3\n  pop\n    /* \"#utility.yul\":6309:6626   */\n  pop\n  pop\n    /* \"#utility.yul\":6233:6626   */\n  swap4\n  swap3\n  pop\n  pop\n  pop\n  jump\t// out\n    /* \"#utility.yul\":6632:6692   */\ntag_38:\n    /* \"#utility.yul\":6660:6663   */\n  0x00\n    /* \"#utility.yul\":6681:6686   */\n  dup2\n    /* \"#utility.yul\":6674:6686   */\n  swap1\n  pop\n    /* \"#utility.yul\":6632:6692   */\n  swap2\n  swap1\n  pop\n  jump\t// out\n    /* \"#utility.yul\":6698:6840   */\ntag_39:\n    /* \"#utility.yul\":6748:6757   */\n  0x00\n    /* \"#utility.yul\":6781:6834   */\n  tag_123\n    /* \"#utility.yul\":6799:6833   */\n  tag_124\n    /* \"#utility.yul\":6808:6832   */\n  tag_125\n    /* \"#utility.yul\":6826:6831   */\n  dup5\n    /* \"#utility.yul\":6808:6832   */\n  tag_14\n  jump\t// in\ntag_125:\n    /* \"#utility.yul\":6799:6833   */\n  tag_38\n  jump\t// in\ntag_124:\n    /* \"#utility.yul\":6781:6834   */\n  tag_14\n  jump\t// in\ntag_123:\n    /* \"#utility.yul\":6768:6834   */\n  swap1\n  pop\n    /* \"#utility.yul\":6698:6840   */\n  swap2\n  swap1\n  pop\n  jump\t// out\n    /* \"#utility.yul\":6846:6921   */\ntag_40:\n    /* \"#utility.yul\":6889:6892   */\n  0x00\n    /* \"#utility.yul\":6910:6915   */\n  dup2\n    /* \"#utility.yul\":6903:6915   */\n  swap1\n  pop\n    /* \"#utility.yul\":6846:6921   */\n  swap2\n  swap1\n  pop\n  jump\t// out\n    /* \"#utility.yul\":6927:7196   */\ntag_41:\n    /* \"#utility.yul\":7037:7076   */\n  tag_128\n    /* \"#utility.yul\":7068:7075   */\n  dup4\n    /* \"#utility.yul\":7037:7076   */\n  tag_39\n  jump\t// in\ntag_128:\n    /* \"#utility.yul\":7098:7189   */\n  tag_129\n    /* \"#utility.yul\":7147:7188   */\n  tag_130\n    /* \"#utility.yul\":7171:7187   */\n  dup3\n    /* \"#utility.yul\":7147:7188   */\n  tag_40\n  jump\t// in\ntag_130:\n    /* \"#utility.yul\":7139:7145   */\n  dup5\n    /* \"#utility.yul\":7132:7136   */\n  dup5\n    /* \"#utility.yul\":7126:7137   */\n  sload\n    /* \"#utility.yul\":7098:7189   */\n  tag_37\n  jump\t// in\ntag_129:\n    /* \"#utility.yul\":7092:7096   */\n  dup3\n    /* \"#utility.yul\":7085:7190   */\n  sstore\n    /* \"#utility.yul\":7003:7196   */\n  pop\n    /* \"#utility.yul\":6927:7196   */\n  pop\n  pop\n  pop\n  jump\t// out\n    /* \"#utility.yul\":7202:7275   */\ntag_42:\n    /* \"#utility.yul\":7247:7250   */\n  0x00\n    /* \"#utility.yul\":7202:7275   */\n  swap1\n  jump\t// out\n    /* \"#utility.yul\":7281:7470   */\ntag_43:\n    /* \"#utility.yul\":7358:7390   */\n  tag_133\n  tag_42\n  jump\t// in\ntag_133:\n    /* \"#utility.yul\":7399:7464   */\n  tag_134\n    /* \"#utility.yul\":7457:7463   */\n  dup2\n    /* \"#utility.yul\":7449:7455   */\n  dup5\n    /* \"#utility.yul\":7443:7447   */\n  dup5\n    /* \"#utility.yul\":7399:7464   */\n  tag_41\n  jump\t// in\ntag_134:\n    /* \"#utility.yul\":7334:7470   */\n  pop\n    /* \"#utility.yul\":7281:7470   */\n  pop\n  pop\n  jump\t// out\n    /* \"#utility.yul\":7476:7662   */\ntag_44:\n    /* \"#utility.yul\":7536:7656   */\ntag_136:\n    /* \"#utility.yul\":7553:7556   */\n  dup2\n    /* \"#utility.yul\":7546:7551   */\n  dup2\n    /* \"#utility.yul\":7543:7557   */\n  lt\n    /* \"#utility.yul\":7536:7656   */\n  iszero\n  tag_138\n  jumpi\n    /* \"#utility.yul\":7607:7646   */\n  tag_139\n    /* \"#utility.yul\":7644:7645   */\n  0x00\n    /* \"#utility.yul\":7637:7642   */\n  dup3\n    /* \"#utility.yul\":7607:7646   */\n  tag_43\n  jump\t// in\ntag_139:\n    /* \"#utility.yul\":7580:7581   */\n  0x01\n    /* \"#utility.yul\":7573:7578   */\n  dup2\n    /* \"#utility.yul\":7569:7582   */\n  add\n    /* \"#utility.yul\":7560:7582   */\n  swap1\n  pop\n    /* \"#utility.yul\":7536:7656   */\n  jump(tag_136)\ntag_138:\n    /* \"#utility.yul\":7476:7662   */\n  pop\n  pop\n  jump\t// out\n    /* \"#utility.yul\":7668:8211   */\ntag_45:\n    /* \"#utility.yul\":7769:7771   */\n  0x1f\n    /* \"#utility.yul\":7764:7767   */\n  dup3\n    /* \"#utility.yul\":7761:7772   */\n  gt\n    /* \"#utility.yul\":7758:8204   */\n  iszero\n  tag_141\n  jumpi\n    /* \"#utility.yul\":7803:7841   */\n  tag_142\n    /* \"#utility.yul\":7835:7840   */\n  dup2\n    /* \"#utility.yul\":7803:7841   */\n  tag_34\n  jump\t// in\ntag_142:\n    /* \"#utility.yul\":7887:7916   */\n  tag_143\n    /* \"#utility.yul\":7905:7915   */\n  dup5\n    /* \"#utility.yul\":7887:7916   */\n  tag_35\n  jump\t// in\ntag_143:\n    /* \"#utility.yul\":7877:7885   */\n  dup2\n    /* \"#utility.yul\":7873:7917   */\n  add\n    /* \"#utility.yul\":8070:8072   */\n  0x20\n    /* \"#utility.yul\":8058:8068   */\n  dup6\n    /* \"#utility.yul\":8055:8073   */\n  lt\n    /* \"#utility.yul\":8052:8101   */\n  iszero\n  tag_144\n  jumpi\n    /* \"#utility.yul\":8091:8099   */\n  dup2\n    /* \"#utility.yul\":8076:8099   */\n  swap1\n  pop\n    /* \"#utility.yul\":8052:8101   */\ntag_144:\n    /* \"#utility.yul\":8114:8194   */\n  tag_145\n    /* \"#utility.yul\":8170:8192   */\n  tag_146\n    /* \"#utility.yul\":8188:8191   */\n  dup6\n    /* \"#utility.yul\":8170:8192   */\n  tag_35\n  jump\t// in\ntag_146:\n    /* \"#utility.yul\":8160:8168   */\n  dup4\n    /* \"#utility.yul\":8156:8193   */\n  add\n    /* \"#utility.yul\":8143:8154   */\n  dup3\n    /* \"#utility.yul\":8114:8194   */\n  tag_44\n  jump\t// in\ntag_145:\n    /* \"#utility.yul\":7773:8204   */\n  pop\n  pop\n    /* \"#utility.yul\":7758:8204   */\ntag_141:\n    /* \"#utility.yul\":7668:8211   */\n  pop\n  pop\n  pop\n  jump\t// out\n    /* \"#utility.yul\":8217:8334   */\ntag_46:\n    /* \"#utility.yul\":8271:8279   */\n  0x00\n    /* \"#utility.yul\":8321:8326   */\n  dup3\n    /* \"#utility.yul\":8315:8319   */\n  dup3\n    /* \"#utility.yul\":8311:8327   */\n  shr\n    /* \"#utility.yul\":8290:8327   */\n  swap1\n  pop\n    /* \"#utility.yul\":8217:8334   */\n  swap3\n  swap2\n  pop\n  pop\n  jump\t// out\n    /* \"#utility.yul\":8340:8509   */\ntag_47:\n    /* \"#utility.yul\":8384:8390   */\n  0x00\n    /* \"#utility.yul\":8417:8468   */\n  tag_149\n    /* \"#utility.yul\":8465:8466   */\n  0x00\n    /* \"#utility.yul\":8461:8467   */\n  not\n    /* \"#utility.yul\":8453:8458   */\n  dup5\n    /* \"#utility.yul\":8450:8451   */\n  0x08\n    /* \"#utility.yul\":8446:8459   */\n  mul\n    /* \"#utility.yul\":8417:8468   */\n  tag_46\n  jump\t// in\ntag_149:\n    /* \"#utility.yul\":8413:8469   */\n  not\n    /* \"#utility.yul\":8498:8502   */\n  dup1\n    /* \"#utility.yul\":8492:8496   */\n  dup4\n    /* \"#utility.yul\":8488:8503   */\n  and\n    /* \"#utility.yul\":8478:8503   */\n  swap2\n  pop\n    /* \"#utility.yul\":8391:8509   */\n  pop\n    /* \"#utility.yul\":8340:8509   */\n  swap3\n  swap2\n  pop\n  pop\n  jump\t// out\n    /* \"#utility.yul\":8514:8809   */\ntag_48:\n    /* \"#utility.yul\":8590:8594   */\n  0x00\n    /* \"#utility.yul\":8736:8765   */\n  tag_151\n    /* \"#utility.yul\":8761:8764   */\n  dup4\n    /* \"#utility.yul\":8755:8759   */\n  dup4\n    /* \"#utility.yul\":8736:8765   */\n  tag_47\n  jump\t// in\ntag_151:\n    /* \"#utility.yul\":8728:8765   */\n  swap2\n  pop\n    /* \"#utility.yul\":8798:8801   */\n  dup3\n    /* \"#utility.yul\":8795:8796   */\n  0x02\n    /* \"#utility.yul\":8791:8802   */\n  mul\n    /* \"#utility.yul\":8785:8789   */\n  dup3\n    /* \"#utility.yul\":8782:8803   */\n  or\n    /* \"#utility.yul\":8774:8803   */\n  swap1\n  pop\n    /* \"#utility.yul\":8514:8809   */\n  swap3\n  swap2\n  pop\n  pop\n  jump\t// out\n    /* \"#utility.yul\":8814:10209   */\ntag_7:\n    /* \"#utility.yul\":8931:8968   */\n  tag_153\n    /* \"#utility.yul\":8964:8967   */\n  dup3\n    /* \"#utility.yul\":8931:8968   */\n  tag_31\n  jump\t// in\ntag_153:\n    /* \"#utility.yul\":9033:9051   */\n  0xffffffffffffffff\n    /* \"#utility.yul\":9025:9031   */\n  dup2\n    /* \"#utility.yul\":9022:9052   */\n  gt\n    /* \"#utility.yul\":9019:9075   */\n  iszero\n  tag_154\n  jumpi\n    /* \"#utility.yul\":9055:9073   */\n  tag_155\n  tag_24\n  jump\t// in\ntag_155:\n    /* \"#utility.yul\":9019:9075   */\ntag_154:\n    /* \"#utility.yul\":9099:9137   */\n  tag_156\n    /* \"#utility.yul\":9131:9135   */\n  dup3\n    /* \"#utility.yul\":9125:9136   */\n  sload\n    /* \"#utility.yul\":9099:9137   */\n  tag_33\n  jump\t// in\ntag_156:\n    /* \"#utility.yul\":9184:9251   */\n  tag_157\n    /* \"#utility.yul\":9244:9250   */\n  dup3\n    /* \"#utility.yul\":9236:9242   */\n  dup3\n    /* \"#utility.yul\":9230:9234   */\n  dup6\n    /* \"#utility.yul\":9184:9251   */\n  tag_45\n  jump\t// in\ntag_157:\n    /* \"#utility.yul\":9278:9279   */\n  0x00\n    /* \"#utility.yul\":9302:9306   */\n  0x20\n    /* \"#utility.yul\":9289:9306   */\n  swap1\n  pop\n    /* \"#utility.yul\":9334:9336   */\n  0x1f\n    /* \"#utility.yul\":9326:9332   */\n  dup4\n    /* \"#utility.yul\":9323:9337   */\n  gt\n    /* \"#utility.yul\":9351:9352   */\n  0x01\n    /* \"#utility.yul\":9346:9964   */\n  dup2\n  eq\n  tag_159\n  jumpi\n    /* \"#utility.yul\":10008:10009   */\n  0x00\n    /* \"#utility.yul\":10025:10031   */\n  dup5\n    /* \"#utility.yul\":10022:10099   */\n  iszero\n  tag_160\n  jumpi\n    /* \"#utility.yul\":10074:10083   */\n  dup3\n    /* \"#utility.yul\":10069:10072   */\n  dup8\n    /* \"#utility.yul\":10065:10084   */\n  add\n    /* \"#utility.yul\":10059:10085   */\n  mload\n    /* \"#utility.yul\":10050:10085   */\n  swap1\n  pop\n    /* \"#utility.yul\":10022:10099   */\ntag_160:\n    /* \"#utility.yul\":10125:10192   */\n  tag_161\n    /* \"#utility.yul\":10185:10191   */\n  dup6\n    /* \"#utility.yul\":10178:10183   */\n  dup3\n    /* \"#utility.yul\":10125:10192   */\n  tag_48\n  jump\t// in\ntag_161:\n    /* \"#utility.yul\":10119:10123   */\n  dup7\n    /* \"#utility.yul\":10112:10193   */\n  sstore\n    /* \"#utility.yul\":9981:10203   */\n  pop\n    /* \"#utility.yul\":9316:10203   */\n  jump(tag_158)\n    /* \"#utility.yul\":9346:9964   */\ntag_159:\n    /* \"#utility.yul\":9398:9402   */\n  0x1f\n    /* \"#utility.yul\":9394:9403   */\n  not\n    /* \"#utility.yul\":9386:9392   */\n  dup5\n    /* \"#utility.yul\":9382:9404   */\n  and\n    /* \"#utility.yul\":9432:9469   */\n  tag_162\n    /* \"#utility.yul\":9464:9468   */\n  dup7\n    /* \"#utility.yul\":9432:9469   */\n  tag_34\n  jump\t// in\ntag_162:\n    /* \"#utility.yul\":9491:9492   */\n  0x00\n    /* \"#utility.yul\":9505:9713   */\ntag_163:\n    /* \"#utility.yul\":9519:9526   */\n  dup3\n    /* \"#utility.yul\":9516:9517   */\n  dup2\n    /* \"#utility.yul\":9513:9527   */\n  lt\n    /* \"#utility.yul\":9505:9713   */\n  iszero\n  tag_165\n  jumpi\n    /* \"#utility.yul\":9598:9607   */\n  dup5\n    /* \"#utility.yul\":9593:9596   */\n  dup10\n    /* \"#utility.yul\":9589:9608   */\n  add\n    /* \"#utility.yul\":9583:9609   */\n  mload\n    /* \"#utility.yul\":9575:9581   */\n  dup3\n    /* \"#utility.yul\":9568:9610   */\n  sstore\n    /* \"#utility.yul\":9649:9650   */\n  0x01\n    /* \"#utility.yul\":9641:9647   */\n  dup3\n    /* \"#utility.yul\":9637:9651   */\n  add\n    /* \"#utility.yul\":9627:9651   */\n  swap2\n  pop\n    /* \"#utility.yul\":9696:9698   */\n  0x20\n    /* \"#utility.yul\":9685:9694   */\n  dup6\n    /* \"#utility.yul\":9681:9699   */\n  add\n    /* \"#utility.yul\":9668:9699   */\n  swap5\n  pop\n    /* \"#utility.yul\":9542:9546   */\n  0x20\n    /* \"#utility.yul\":9539:9540   */\n  dup2\n    /* \"#utility.yul\":9535:9547   */\n  add\n    /* \"#utility.yul\":9530:9547   */\n  swap1\n  pop\n    /* \"#utility.yul\":9505:9713   */\n  jump(tag_163)\ntag_165:\n    /* \"#utility.yul\":9741:9747   */\n  dup7\n    /* \"#utility.yul\":9732:9739   */\n  dup4\n    /* \"#utility.yul\":9729:9748   */\n  lt\n    /* \"#utility.yul\":9726:9905   */\n  iszero\n  tag_166\n  jumpi\n    /* \"#utility.yul\":9799:9808   */\n  dup5\n    /* \"#utility.yul\":9794:9797   */\n  dup10\n    /* \"#utility.yul\":9790:9809   */\n  add\n    /* \"#utility.yul\":9784:9810   */\n  mload\n    /* \"#utility.yul\":9842:9890   */\n  tag_167\n    /* \"#utility.yul\":9884:9888   */\n  0x1f\n    /* \"#utility.yul\":9876:9882   */\n  dup10\n    /* \"#utility.yul\":9872:9889   */\n  and\n    /* \"#utility.yul\":9861:9870   */\n  dup3\n    /* \"#utility.yul\":9842:9890   */\n  tag_47\n  jump\t// in\ntag_167:\n    /* \"#utility.yul\":9834:9840   */\n  dup4\n    /* \"#utility.yul\":9827:9891   */\n  sstore\n    /* \"#utility.yul\":9749:9905   */\n  pop\n    /* \"#utility.yul\":9726:9905   */\ntag_166:\n    /* \"#utility.yul\":9951:9952   */\n  0x01\n    /* \"#utility.yul\":9947:9948   */\n  0x02\n    /* \"#utility.yul\":9939:9945   */\n  dup9\n    /* \"#utility.yul\":9935:9949   */\n  mul\n    /* \"#utility.yul\":9931:9953   */\n  add\n    /* \"#utility.yul\":9925:9929   */\n  dup9\n    /* \"#utility.yul\":9918:9954   */\n  sstore\n    /* \"#utility.yul\":9353:9964   */\n  pop\n  pop\n  pop\n    /* \"#utility.yul\":9316:10203   */\ntag_158:\n  pop\n    /* \"#utility.yul\":8906:10209   */\n  pop\n  pop\n  pop\n    /* \"#utility.yul\":8814:10209   */\n  pop\n  pop\n  jump\t// out\n    /* \"backend/contracts/Campaign.sol\":70:3881  contract Campaign {... */\ntag_10:\n  dataSize(sub_0)\n  dup1\n  dataOffset(sub_0)\n  0x00\n  codecopy\n  0x00\n  return\nstop\n\nsub_0: assembly {\n        /* \"backend/contracts/Campaign.sol\":70:3881  contract Campaign {... */\n      mstore(0x40, 0x80)\n      jumpi(tag_1, lt(calldatasize, 0x04))\n      shr(0xe0, calldataload(0x00))\n      dup1\n      0x7a3a0e84\n      gt\n      tag_14\n      jumpi\n      dup1\n      0x7a3a0e84\n      eq\n      tag_8\n      jumpi\n      dup1\n      0x8ed5b0fc\n      eq\n      tag_9\n      jumpi\n      dup1\n      0x968ed600\n      eq\n      tag_10\n      jumpi\n      dup1\n      0xa1211bc0\n      eq\n      tag_11\n      jumpi\n      dup1\n      0xcc6cb19a\n      eq\n      tag_12\n      jumpi\n      dup1\n      0xed88c68e\n      eq\n      tag_13\n      jumpi\n      jump(tag_1)\n    tag_14:\n      dup1\n      0x06fdde03\n      eq\n      tag_2\n      jumpi\n      dup1\n      0x22f3e2d4\n      eq\n      tag_3\n      jumpi\n      dup1\n      0x29dcb0cf\n      eq\n      tag_4\n      jumpi\n      dup1\n      0x38af3eed\n      eq\n      tag_5\n      jumpi\n      dup1\n      0x70740aab\n      eq\n      tag_6\n      jumpi\n      dup1\n      0x7284e416\n      eq\n      tag_7\n      jumpi\n    tag_1:\n      0x00\n      dup1\n      revert\n        /* \"backend/contracts/Campaign.sol\":305:323  string public name */\n    tag_2:\n      callvalue\n      dup1\n      iszero\n      tag_15\n      jumpi\n      0x00\n      dup1\n      revert\n    tag_15:\n      pop\n      tag_16\n      tag_17\n      jump\t// in\n    tag_16:\n      mload(0x40)\n      tag_18\n      swap2\n      swap1\n      tag_19\n      jump\t// in\n    tag_18:\n      mload(0x40)\n      dup1\n      swap2\n      sub\n      swap1\n      return\n        /* \"backend/contracts/Campaign.sol\":491:511  bool public isActive */\n    tag_3:\n      callvalue\n      dup1\n      iszero\n      tag_20\n      jumpi\n      0x00\n      dup1\n      revert\n    tag_20:\n      pop\n      tag_21\n      tag_22\n      jump\t// in\n    tag_21:\n      mload(0x40)\n      tag_23\n      swap2\n      swap1\n      tag_24\n      jump\t// in\n    tag_23:\n      mload(0x40)\n      dup1\n      swap2\n      sub\n      swap1\n      return\n        /* \"backend/contracts/Campaign.sol\":416:436  uint public deadline */\n    tag_4:\n      callvalue\n      dup1\n      iszero\n      tag_25\n      jumpi\n      0x00\n      dup1\n      revert\n    tag_25:\n      pop\n      tag_26\n      tag_27\n      jump\t// in\n    tag_26:\n      mload(0x40)\n      tag_28\n      swap2\n      swap1\n      tag_29\n      jump\t// in\n    tag_28:\n      mload(0x40)\n      dup1\n      swap2\n      sub\n      swap1\n      return\n        /* \"backend/contracts/Campaign.sol\":273:299  address public beneficiary */\n    tag_5:\n      callvalue\n      dup1\n      iszero\n      tag_30\n      jumpi\n      0x00\n      dup1\n      revert\n    tag_30:\n      pop\n      tag_31\n      tag_32\n      jump\t// in\n    tag_31:\n      mload(0x40)\n      tag_33\n      swap2\n      swap1\n      tag_34\n      jump\t// in\n    tag_33:\n      mload(0x40)\n      dup1\n      swap2\n      sub\n      swap1\n      return\n        /* \"backend/contracts/Campaign.sol\":329:350  string public purpose */\n    tag_6:\n      callvalue\n      dup1\n      iszero\n      tag_35\n      jumpi\n      0x00\n      dup1\n      revert\n    tag_35:\n      pop\n      tag_36\n      tag_37\n      jump\t// in\n    tag_36:\n      mload(0x40)\n      tag_38\n      swap2\n      swap1\n      tag_19\n      jump\t// in\n    tag_38:\n      mload(0x40)\n      dup1\n      swap2\n      sub\n      swap1\n      return\n        /* \"backend/contracts/Campaign.sol\":356:381  string public description */\n    tag_7:\n      callvalue\n      dup1\n      iszero\n      tag_39\n      jumpi\n      0x00\n      dup1\n      revert\n    tag_39:\n      pop\n      tag_40\n      tag_41\n      jump\t// in\n    tag_40:\n      mload(0x40)\n      tag_42\n      swap2\n      swap1\n      tag_19\n      jump\t// in\n    tag_42:\n      mload(0x40)\n      dup1\n      swap2\n      sub\n      swap1\n      return\n        /* \"backend/contracts/Campaign.sol\":387:410  uint public fundingGoal */\n    tag_8:\n      callvalue\n      dup1\n      iszero\n      tag_43\n      jumpi\n      0x00\n      dup1\n      revert\n    tag_43:\n      pop\n      tag_44\n      tag_45\n      jump\t// in\n    tag_44:\n      mload(0x40)\n      tag_46\n      swap2\n      swap1\n      tag_29\n      jump\t// in\n    tag_46:\n      mload(0x40)\n      dup1\n      swap2\n      sub\n      swap1\n      return\n        /* \"backend/contracts/Campaign.sol\":245:267  uint public campaignId */\n    tag_9:\n      callvalue\n      dup1\n      iszero\n      tag_47\n      jumpi\n      0x00\n      dup1\n      revert\n    tag_47:\n      pop\n      tag_48\n      tag_49\n      jump\t// in\n    tag_48:\n      mload(0x40)\n      tag_50\n      swap2\n      swap1\n      tag_29\n      jump\t// in\n    tag_50:\n      mload(0x40)\n      dup1\n      swap2\n      sub\n      swap1\n      return\n        /* \"backend/contracts/Campaign.sol\":442:464  uint public totalFunds */\n    tag_10:\n      callvalue\n      dup1\n      iszero\n      tag_51\n      jumpi\n      0x00\n      dup1\n      revert\n    tag_51:\n      pop\n      tag_52\n      tag_53\n      jump\t// in\n    tag_52:\n      mload(0x40)\n      tag_54\n      swap2\n      swap1\n      tag_29\n      jump\t// in\n    tag_54:\n      mload(0x40)\n      dup1\n      swap2\n      sub\n      swap1\n      return\n        /* \"backend/contracts/Campaign.sol\":3214:3518  function finalizeCampaign() public isActiveCampaign deadlineExceeded {... */\n    tag_11:\n      callvalue\n      dup1\n      iszero\n      tag_55\n      jumpi\n      0x00\n      dup1\n      revert\n    tag_55:\n      pop\n      tag_56\n      tag_57\n      jump\t// in\n    tag_56:\n      stop\n        /* \"backend/contracts/Campaign.sol\":668:709  mapping(address => uint) public donations */\n    tag_12:\n      callvalue\n      dup1\n      iszero\n      tag_58\n      jumpi\n      0x00\n      dup1\n      revert\n    tag_58:\n      pop\n      tag_59\n      0x04\n      dup1\n      calldatasize\n      sub\n      dup2\n      add\n      swap1\n      tag_60\n      swap2\n      swap1\n      tag_61\n      jump\t// in\n    tag_60:\n      tag_62\n      jump\t// in\n    tag_59:\n      mload(0x40)\n      tag_63\n      swap2\n      swap1\n      tag_29\n      jump\t// in\n    tag_63:\n      mload(0x40)\n      dup1\n      swap2\n      sub\n      swap1\n      return\n        /* \"backend/contracts/Campaign.sol\":2031:2458  function donate() public payable isActiveCampaign {... */\n    tag_13:\n      tag_64\n      tag_65\n      jump\t// in\n    tag_64:\n      stop\n        /* \"backend/contracts/Campaign.sol\":305:323  string public name */\n    tag_17:\n      0x02\n      dup1\n      sload\n      tag_66\n      swap1\n      tag_67\n      jump\t// in\n    tag_66:\n      dup1\n      0x1f\n      add\n      0x20\n      dup1\n      swap2\n      div\n      mul\n      0x20\n      add\n      mload(0x40)\n      swap1\n      dup2\n      add\n      0x40\n      mstore\n      dup1\n      swap3\n      swap2\n      swap1\n      dup2\n      dup2\n      mstore\n      0x20\n      add\n      dup3\n      dup1\n      sload\n      tag_68\n      swap1\n      tag_67\n      jump\t// in\n    tag_68:\n      dup1\n      iszero\n      tag_69\n      jumpi\n      dup1\n      0x1f\n      lt\n      tag_70\n      jumpi\n      0x0100\n      dup1\n      dup4\n      sload\n      div\n      mul\n      dup4\n      mstore\n      swap2\n      0x20\n      add\n      swap2\n      jump(tag_69)\n    tag_70:\n      dup3\n      add\n      swap2\n      swap1\n      0x00\n      mstore\n      keccak256(0x00, 0x20)\n      swap1\n    tag_71:\n      dup2\n      sload\n      dup2\n      mstore\n      swap1\n      0x01\n      add\n      swap1\n      0x20\n      add\n      dup1\n      dup4\n      gt\n      tag_71\n      jumpi\n      dup3\n      swap1\n      sub\n      0x1f\n      and\n      dup3\n      add\n      swap2\n    tag_69:\n      pop\n      pop\n      pop\n      pop\n      pop\n      dup2\n      jump\t// out\n        /* \"backend/contracts/Campaign.sol\":491:511  bool public isActive */\n    tag_22:\n      0x08\n      0x00\n      swap1\n      sload\n      swap1\n      0x0100\n      exp\n      swap1\n      div\n      0xff\n      and\n      dup2\n      jump\t// out\n        /* \"backend/contracts/Campaign.sol\":416:436  uint public deadline */\n    tag_27:\n      sload(0x06)\n      dup2\n      jump\t// out\n        /* \"backend/contracts/Campaign.sol\":273:299  address public beneficiary */\n    tag_32:\n      0x01\n      0x00\n      swap1\n      sload\n      swap1\n      0x0100\n      exp\n      swap1\n      div\n      0xffffffffffffffffffffffffffffffffffffffff\n      and\n      dup2\n      jump\t// out\n        /* \"backend/contracts/Campaign.sol\":329:350  string public purpose */\n    tag_37:\n      0x03\n      dup1\n      sload\n      tag_72\n      swap1\n      tag_67\n      jump\t// in\n    tag_72:\n      dup1\n      0x1f\n      add\n      0x20\n      dup1\n      swap2\n      div\n      mul\n      0x20\n      add\n      mload(0x40)\n      swap1\n      dup2\n      add\n      0x40\n      mstore\n      dup1\n      swap3\n      swap2\n      swap1\n      dup2\n      dup2\n      mstore\n      0x20\n      add\n      dup3\n      dup1\n      sload\n      tag_73\n      swap1\n      tag_67\n      jump\t// in\n    tag_73:\n      dup1\n      iszero\n      tag_74\n      jumpi\n      dup1\n      0x1f\n      lt\n      tag_75\n      jumpi\n      0x0100\n      dup1\n      dup4\n      sload\n      div\n      mul\n      dup4\n      mstore\n      swap2\n      0x20\n      add\n      swap2\n      jump(tag_74)\n    tag_75:\n      dup3\n      add\n      swap2\n      swap1\n      0x00\n      mstore\n      keccak256(0x00, 0x20)\n      swap1\n    tag_76:\n      dup2\n      sload\n      dup2\n      mstore\n      swap1\n      0x01\n      add\n      swap1\n      0x20\n      add\n      dup1\n      dup4\n      gt\n      tag_76\n      jumpi\n      dup3\n      swap1\n      sub\n      0x1f\n      and\n      dup3\n      add\n      swap2\n    tag_74:\n      pop\n      pop\n      pop\n      pop\n      pop\n      dup2\n      jump\t// out\n        /* \"backend/contracts/Campaign.sol\":356:381  string public description */\n    tag_41:\n      0x04\n      dup1\n      sload\n      tag_77\n      swap1\n      tag_67\n      jump\t// in\n    tag_77:\n      dup1\n      0x1f\n      add\n      0x20\n      dup1\n      swap2\n      div\n      mul\n      0x20\n      add\n      mload(0x40)\n      swap1\n      dup2\n      add\n      0x40\n      mstore\n      dup1\n      swap3\n      swap2\n      swap1\n      dup2\n      dup2\n      mstore\n      0x20\n      add\n      dup3\n      dup1\n      sload\n      tag_78\n      swap1\n      tag_67\n      jump\t// in\n    tag_78:\n      dup1\n      iszero\n      tag_79\n      jumpi\n      dup1\n      0x1f\n      lt\n      tag_80\n      jumpi\n      0x0100\n      dup1\n      dup4\n      sload\n      div\n      mul\n      dup4\n      mstore\n      swap2\n      0x20\n      add\n      swap2\n      jump(tag_79)\n    tag_80:\n      dup3\n      add\n      swap2\n      swap1\n      0x00\n      mstore\n      keccak256(0x00, 0x20)\n      swap1\n    tag_81:\n      dup2\n      sload\n      dup2\n      mstore\n      swap1\n      0x01\n      add\n      swap1\n      0x20\n      add\n      dup1\n      dup4\n      gt\n      tag_81\n      jumpi\n      dup3\n      swap1\n      sub\n      0x1f\n      and\n      dup3\n      add\n      swap2\n    tag_79:\n      pop\n      pop\n      pop\n      pop\n      pop\n      dup2\n      jump\t// out\n        /* \"backend/contracts/Campaign.sol\":387:410  uint public fundingGoal */\n    tag_45:\n      sload(0x05)\n      dup2\n      jump\t// out\n        /* \"backend/contracts/Campaign.sol\":245:267  uint public campaignId */\n    tag_49:\n      sload(0x00)\n      dup2\n      jump\t// out\n        /* \"backend/contracts/Campaign.sol\":442:464  uint public totalFunds */\n    tag_53:\n      sload(0x07)\n      dup2\n      jump\t// out\n        /* \"backend/contracts/Campaign.sol\":3214:3518  function finalizeCampaign() public isActiveCampaign deadlineExceeded {... */\n    tag_57:\n        /* \"backend/contracts/Campaign.sol\":1697:1705  deadline */\n      sload(0x06)\n        /* \"backend/contracts/Campaign.sol\":1678:1693  block.timestamp */\n      timestamp\n        /* \"backend/contracts/Campaign.sol\":1678:1705  block.timestamp <= deadline */\n      gt\n      iszero\n        /* \"backend/contracts/Campaign.sol\":1670:1745  require(block.timestamp <= deadline, \"The Camapign's deadline has passed!\") */\n      tag_83\n      jumpi\n      mload(0x40)\n      0x08c379a000000000000000000000000000000000000000000000000000000000\n      dup2\n      mstore\n      0x04\n      add\n      tag_84\n      swap1\n      tag_85\n      jump\t// in\n    tag_84:\n      mload(0x40)\n      dup1\n      swap2\n      sub\n      swap1\n      revert\n    tag_83:\n        /* \"backend/contracts/Campaign.sol\":1763:1771  isActive */\n      0x08\n      0x00\n      swap1\n      sload\n      swap1\n      0x0100\n      exp\n      swap1\n      div\n      0xff\n      and\n        /* \"backend/contracts/Campaign.sol\":1755:1803  require(isActive, \"The Campaign is not active!\") */\n      tag_86\n      jumpi\n      mload(0x40)\n      0x08c379a000000000000000000000000000000000000000000000000000000000\n      dup2\n      mstore\n      0x04\n      add\n      tag_87\n      swap1\n      tag_88\n      jump\t// in\n    tag_87:\n      mload(0x40)\n      dup1\n      swap2\n      sub\n      swap1\n      revert\n    tag_86:\n        /* \"backend/contracts/Campaign.sol\":1891:1899  deadline */\n      sload(0x06)\n        /* \"backend/contracts/Campaign.sol\":1873:1888  block.timestamp */\n      timestamp\n        /* \"backend/contracts/Campaign.sol\":1873:1899  block.timestamp > deadline */\n      gt\n        /* \"backend/contracts/Campaign.sol\":1865:1943  require(block.timestamp > deadline, \"The Camapign's deadline has not passed!\") */\n      tag_90\n      jumpi\n      mload(0x40)\n      0x08c379a000000000000000000000000000000000000000000000000000000000\n      dup2\n      mstore\n      0x04\n      add\n      tag_91\n      swap1\n      tag_92\n      jump\t// in\n    tag_91:\n      mload(0x40)\n      dup1\n      swap2\n      sub\n      swap1\n      revert\n    tag_90:\n        /* \"backend/contracts/Campaign.sol\":3304:3309  false */\n      0x00\n        /* \"backend/contracts/Campaign.sol\":3293:3301  isActive */\n      0x08\n      0x00\n        /* \"backend/contracts/Campaign.sol\":3293:3309  isActive = false */\n      0x0100\n      exp\n      dup2\n      sload\n      dup2\n      0xff\n      mul\n      not\n      and\n      swap1\n      dup4\n      iszero\n      iszero\n      mul\n      or\n      swap1\n      sstore\n      pop\n        /* \"backend/contracts/Campaign.sol\":3337:3348  fundingGoal */\n      sload(0x05)\n        /* \"backend/contracts/Campaign.sol\":3324:3334  totalFunds */\n      sload(0x07)\n        /* \"backend/contracts/Campaign.sol\":3324:3348  totalFunds > fundingGoal */\n      gt\n        /* \"backend/contracts/Campaign.sol\":3320:3512  if (totalFunds > fundingGoal) {... */\n      iszero\n      tag_94\n      jumpi\n        /* \"backend/contracts/Campaign.sol\":3364:3378  releaseFunds() */\n      tag_95\n        /* \"backend/contracts/Campaign.sol\":3364:3376  releaseFunds */\n      tag_96\n        /* \"backend/contracts/Campaign.sol\":3364:3378  releaseFunds() */\n      jump\t// in\n    tag_95:\n        /* \"backend/contracts/Campaign.sol\":3320:3512  if (totalFunds > fundingGoal) {... */\n      jump(tag_97)\n    tag_94:\n    tag_97:\n        /* \"backend/contracts/Campaign.sol\":3214:3518  function finalizeCampaign() public isActiveCampaign deadlineExceeded {... */\n      jump\t// out\n        /* \"backend/contracts/Campaign.sol\":668:709  mapping(address => uint) public donations */\n    tag_62:\n      mstore(0x20, 0x09)\n      dup1\n      0x00\n      mstore\n      keccak256(0x00, 0x40)\n      0x00\n      swap2\n      pop\n      swap1\n      pop\n      sload\n      dup2\n      jump\t// out\n        /* \"backend/contracts/Campaign.sol\":2031:2458  function donate() public payable isActiveCampaign {... */\n    tag_65:\n        /* \"backend/contracts/Campaign.sol\":1697:1705  deadline */\n      sload(0x06)\n        /* \"backend/contracts/Campaign.sol\":1678:1693  block.timestamp */\n      timestamp\n        /* \"backend/contracts/Campaign.sol\":1678:1705  block.timestamp <= deadline */\n      gt\n      iszero\n        /* \"backend/contracts/Campaign.sol\":1670:1745  require(block.timestamp <= deadline, \"The Camapign's deadline has passed!\") */\n      tag_99\n      jumpi\n      mload(0x40)\n      0x08c379a000000000000000000000000000000000000000000000000000000000\n      dup2\n      mstore\n      0x04\n      add\n      tag_100\n      swap1\n      tag_85\n      jump\t// in\n    tag_100:\n      mload(0x40)\n      dup1\n      swap2\n      sub\n      swap1\n      revert\n    tag_99:\n        /* \"backend/contracts/Campaign.sol\":1763:1771  isActive */\n      0x08\n      0x00\n      swap1\n      sload\n      swap1\n      0x0100\n      exp\n      swap1\n      div\n      0xff\n      and\n        /* \"backend/contracts/Campaign.sol\":1755:1803  require(isActive, \"The Campaign is not active!\") */\n      tag_101\n      jumpi\n      mload(0x40)\n      0x08c379a000000000000000000000000000000000000000000000000000000000\n      dup2\n      mstore\n      0x04\n      add\n      tag_102\n      swap1\n      tag_88\n      jump\t// in\n    tag_102:\n      mload(0x40)\n      dup1\n      swap2\n      sub\n      swap1\n      revert\n    tag_101:\n        /* \"backend/contracts/Campaign.sol\":2091:2104  address donor */\n      0x00\n        /* \"backend/contracts/Campaign.sol\":2107:2117  msg.sender */\n      caller\n        /* \"backend/contracts/Campaign.sol\":2091:2117  address donor = msg.sender */\n      swap1\n      pop\n        /* \"backend/contracts/Campaign.sol\":2127:2138  uint amount */\n      0x00\n        /* \"backend/contracts/Campaign.sol\":2141:2150  msg.value */\n      callvalue\n        /* \"backend/contracts/Campaign.sol\":2127:2150  uint amount = msg.value */\n      swap1\n      pop\n        /* \"backend/contracts/Campaign.sol\":2180:2186  amount */\n      dup1\n        /* \"backend/contracts/Campaign.sol\":2160:2169  donations */\n      0x09\n        /* \"backend/contracts/Campaign.sol\":2160:2176  donations[donor] */\n      0x00\n        /* \"backend/contracts/Campaign.sol\":2170:2175  donor */\n      dup5\n        /* \"backend/contracts/Campaign.sol\":2160:2176  donations[donor] */\n      0xffffffffffffffffffffffffffffffffffffffff\n      and\n      0xffffffffffffffffffffffffffffffffffffffff\n      and\n      dup2\n      mstore\n      0x20\n      add\n      swap1\n      dup2\n      mstore\n      0x20\n      add\n      0x00\n      keccak256\n      0x00\n        /* \"backend/contracts/Campaign.sol\":2160:2186  donations[donor] += amount */\n      dup3\n      dup3\n      sload\n      tag_104\n      swap2\n      swap1\n      tag_105\n      jump\t// in\n    tag_104:\n      swap3\n      pop\n      pop\n      dup2\n      swap1\n      sstore\n      pop\n        /* \"backend/contracts/Campaign.sol\":2210:2216  amount */\n      dup1\n        /* \"backend/contracts/Campaign.sol\":2196:2206  totalFunds */\n      0x07\n      0x00\n        /* \"backend/contracts/Campaign.sol\":2196:2216  totalFunds += amount */\n      dup3\n      dup3\n      sload\n      tag_106\n      swap2\n      swap1\n      tag_105\n      jump\t// in\n    tag_106:\n      swap3\n      pop\n      pop\n      dup2\n      swap1\n      sstore\n      pop\n        /* \"backend/contracts/Campaign.sol\":2231:2275  DonationMade(donor, amount, block.timestamp) */\n      0xd97bcdf12fa1d5342fc942da5eadf35c7597f34f8da7274c2b0d2ad979842679\n        /* \"backend/contracts/Campaign.sol\":2244:2249  donor */\n      dup3\n        /* \"backend/contracts/Campaign.sol\":2251:2257  amount */\n      dup3\n        /* \"backend/contracts/Campaign.sol\":2259:2274  block.timestamp */\n      timestamp\n        /* \"backend/contracts/Campaign.sol\":2231:2275  DonationMade(donor, amount, block.timestamp) */\n      mload(0x40)\n      tag_107\n      swap4\n      swap3\n      swap2\n      swap1\n      tag_108\n      jump\t// in\n    tag_107:\n      mload(0x40)\n      dup1\n      swap2\n      sub\n      swap1\n      log1\n        /* \"backend/contracts/Campaign.sol\":2400:2411  fundingGoal */\n      sload(0x05)\n        /* \"backend/contracts/Campaign.sol\":2386:2396  totalFunds */\n      sload(0x07)\n        /* \"backend/contracts/Campaign.sol\":2386:2411  totalFunds >= fundingGoal */\n      lt\n        /* \"backend/contracts/Campaign.sol\":2382:2452  if (totalFunds >= fundingGoal) {... */\n      tag_109\n      jumpi\n        /* \"backend/contracts/Campaign.sol\":2427:2441  releaseFunds() */\n      tag_110\n        /* \"backend/contracts/Campaign.sol\":2427:2439  releaseFunds */\n      tag_96\n        /* \"backend/contracts/Campaign.sol\":2427:2441  releaseFunds() */\n      jump\t// in\n    tag_110:\n        /* \"backend/contracts/Campaign.sol\":2382:2452  if (totalFunds >= fundingGoal) {... */\n    tag_109:\n        /* \"backend/contracts/Campaign.sol\":2081:2458  {... */\n      pop\n      pop\n        /* \"backend/contracts/Campaign.sol\":2031:2458  function donate() public payable isActiveCampaign {... */\n      jump\t// out\n        /* \"backend/contracts/Campaign.sol\":2629:3026  function releaseFunds() internal {... */\n    tag_96:\n        /* \"backend/contracts/Campaign.sol\":2683:2688  false */\n      0x00\n        /* \"backend/contracts/Campaign.sol\":2672:2680  isActive */\n      0x08\n      0x00\n        /* \"backend/contracts/Campaign.sol\":2672:2688  isActive = false */\n      0x0100\n      exp\n      dup2\n      sload\n      dup2\n      0xff\n      mul\n      not\n      and\n      swap1\n      dup4\n      iszero\n      iszero\n      mul\n      or\n      swap1\n      sstore\n      pop\n        /* \"backend/contracts/Campaign.sol\":2711:2712  0 */\n      0x00\n        /* \"backend/contracts/Campaign.sol\":2698:2708  totalFunds */\n      0x07\n        /* \"backend/contracts/Campaign.sol\":2698:2712  totalFunds = 0 */\n      dup2\n      swap1\n      sstore\n      pop\n        /* \"backend/contracts/Campaign.sol\":2774:2786  bool success */\n      0x00\n        /* \"backend/contracts/Campaign.sol\":2799:2810  beneficiary */\n      0x01\n      0x00\n      swap1\n      sload\n      swap1\n      0x0100\n      exp\n      swap1\n      div\n      0xffffffffffffffffffffffffffffffffffffffff\n      and\n        /* \"backend/contracts/Campaign.sol\":2791:2816  payable(beneficiary).call */\n      0xffffffffffffffffffffffffffffffffffffffff\n      and\n        /* \"backend/contracts/Campaign.sol\":2824:2834  totalFunds */\n      sload(0x07)\n        /* \"backend/contracts/Campaign.sol\":2791:2839  payable(beneficiary).call{value: totalFunds}(\"\") */\n      mload(0x40)\n      tag_112\n      swap1\n      tag_113\n      jump\t// in\n    tag_112:\n      0x00\n      mload(0x40)\n      dup1\n      dup4\n      sub\n      dup2\n      dup6\n      dup8\n      gas\n      call\n      swap3\n      pop\n      pop\n      pop\n      returndatasize\n      dup1\n      0x00\n      dup2\n      eq\n      tag_116\n      jumpi\n      mload(0x40)\n      swap2\n      pop\n      and(add(returndatasize, 0x3f), not(0x1f))\n      dup3\n      add\n      0x40\n      mstore\n      returndatasize\n      dup3\n      mstore\n      returndatasize\n      0x00\n      0x20\n      dup5\n      add\n      returndatacopy\n      jump(tag_115)\n    tag_116:\n      0x60\n      swap2\n      pop\n    tag_115:\n      pop\n        /* \"backend/contracts/Campaign.sol\":2773:2839  (bool success,) = payable(beneficiary).call{value: totalFunds}(\"\") */\n      pop\n      swap1\n      pop\n        /* \"backend/contracts/Campaign.sol\":2857:2864  success */\n      dup1\n        /* \"backend/contracts/Campaign.sol\":2849:2893  require(success, \"Unable to release funds!\") */\n      tag_117\n      jumpi\n      mload(0x40)\n      0x08c379a000000000000000000000000000000000000000000000000000000000\n      dup2\n      mstore\n      0x04\n      add\n      tag_118\n      swap1\n      tag_119\n      jump\t// in\n    tag_118:\n      mload(0x40)\n      dup1\n      swap2\n      sub\n      swap1\n      revert\n    tag_117:\n        /* \"backend/contracts/Campaign.sol\":2909:2952  FundsWithdrawn(totalFunds, block.timestamp) */\n      0xd66662c0ded9e58fd31d5e44944bcfd07ffc15e6927ecc1382e7941cb7bd24c4\n        /* \"backend/contracts/Campaign.sol\":2924:2934  totalFunds */\n      sload(0x07)\n        /* \"backend/contracts/Campaign.sol\":2936:2951  block.timestamp */\n      timestamp\n        /* \"backend/contracts/Campaign.sol\":2909:2952  FundsWithdrawn(totalFunds, block.timestamp) */\n      mload(0x40)\n      tag_120\n      swap3\n      swap2\n      swap1\n      tag_121\n      jump\t// in\n    tag_120:\n      mload(0x40)\n      dup1\n      swap2\n      sub\n      swap1\n      log1\n        /* \"backend/contracts/Campaign.sol\":2967:3019  CampaignFinalized(true, totalFunds, block.timestamp) */\n      0xff1ed4ae8add74fa56c8d588bd1877949f03579b6ec0057a6cbc5ea1ee0dc000\n        /* \"backend/contracts/Campaign.sol\":2985:2989  true */\n      0x01\n        /* \"backend/contracts/Campaign.sol\":2991:3001  totalFunds */\n      sload(0x07)\n        /* \"backend/contracts/Campaign.sol\":3003:3018  block.timestamp */\n      timestamp\n        /* \"backend/contracts/Campaign.sol\":2967:3019  CampaignFinalized(true, totalFunds, block.timestamp) */\n      mload(0x40)\n      tag_122\n      swap4\n      swap3\n      swap2\n      swap1\n      tag_123\n      jump\t// in\n    tag_122:\n      mload(0x40)\n      dup1\n      swap2\n      sub\n      swap1\n      log1\n        /* \"backend/contracts/Campaign.sol\":2662:3026  {... */\n      pop\n        /* \"backend/contracts/Campaign.sol\":2629:3026  function releaseFunds() internal {... */\n      jump\t// out\n        /* \"#utility.yul\":7:106   */\n    tag_124:\n        /* \"#utility.yul\":59:65   */\n      0x00\n        /* \"#utility.yul\":93:98   */\n      dup2\n        /* \"#utility.yul\":87:99   */\n      mload\n        /* \"#utility.yul\":77:99   */\n      swap1\n      pop\n        /* \"#utility.yul\":7:106   */\n      swap2\n      swap1\n      pop\n      jump\t// out\n        /* \"#utility.yul\":112:281   */\n    tag_125:\n        /* \"#utility.yul\":196:207   */\n      0x00\n        /* \"#utility.yul\":230:236   */\n      dup3\n        /* \"#utility.yul\":225:228   */\n      dup3\n        /* \"#utility.yul\":218:237   */\n      mstore\n        /* \"#utility.yul\":270:274   */\n      0x20\n        /* \"#utility.yul\":265:268   */\n      dup3\n        /* \"#utility.yul\":261:275   */\n      add\n        /* \"#utility.yul\":246:275   */\n      swap1\n      pop\n        /* \"#utility.yul\":112:281   */\n      swap3\n      swap2\n      pop\n      pop\n      jump\t// out\n        /* \"#utility.yul\":287:426   */\n    tag_126:\n        /* \"#utility.yul\":376:382   */\n      dup3\n        /* \"#utility.yul\":371:374   */\n      dup2\n        /* \"#utility.yul\":366:369   */\n      dup4\n        /* \"#utility.yul\":360:383   */\n      mcopy\n        /* \"#utility.yul\":417:418   */\n      0x00\n        /* \"#utility.yul\":408:414   */\n      dup4\n        /* \"#utility.yul\":403:406   */\n      dup4\n        /* \"#utility.yul\":399:415   */\n      add\n        /* \"#utility.yul\":392:419   */\n      mstore\n        /* \"#utility.yul\":287:426   */\n      pop\n      pop\n      pop\n      jump\t// out\n        /* \"#utility.yul\":432:534   */\n    tag_127:\n        /* \"#utility.yul\":473:479   */\n      0x00\n        /* \"#utility.yul\":524:526   */\n      0x1f\n        /* \"#utility.yul\":520:527   */\n      not\n        /* \"#utility.yul\":515:517   */\n      0x1f\n        /* \"#utility.yul\":508:513   */\n      dup4\n        /* \"#utility.yul\":504:518   */\n      add\n        /* \"#utility.yul\":500:528   */\n      and\n        /* \"#utility.yul\":490:528   */\n      swap1\n      pop\n        /* \"#utility.yul\":432:534   */\n      swap2\n      swap1\n      pop\n      jump\t// out\n        /* \"#utility.yul\":540:917   */\n    tag_128:\n        /* \"#utility.yul\":628:631   */\n      0x00\n        /* \"#utility.yul\":656:695   */\n      tag_160\n        /* \"#utility.yul\":689:694   */\n      dup3\n        /* \"#utility.yul\":656:695   */\n      tag_124\n      jump\t// in\n    tag_160:\n        /* \"#utility.yul\":711:782   */\n      tag_161\n        /* \"#utility.yul\":775:781   */\n      dup2\n        /* \"#utility.yul\":770:773   */\n      dup6\n        /* \"#utility.yul\":711:782   */\n      tag_125\n      jump\t// in\n    tag_161:\n        /* \"#utility.yul\":704:782   */\n      swap4\n      pop\n        /* \"#utility.yul\":791:856   */\n      tag_162\n        /* \"#utility.yul\":849:855   */\n      dup2\n        /* \"#utility.yul\":844:847   */\n      dup6\n        /* \"#utility.yul\":837:841   */\n      0x20\n        /* \"#utility.yul\":830:835   */\n      dup7\n        /* \"#utility.yul\":826:842   */\n      add\n        /* \"#utility.yul\":791:856   */\n      tag_126\n      jump\t// in\n    tag_162:\n        /* \"#utility.yul\":881:910   */\n      tag_163\n        /* \"#utility.yul\":903:909   */\n      dup2\n        /* \"#utility.yul\":881:910   */\n      tag_127\n      jump\t// in\n    tag_163:\n        /* \"#utility.yul\":876:879   */\n      dup5\n        /* \"#utility.yul\":872:911   */\n      add\n        /* \"#utility.yul\":865:911   */\n      swap2\n      pop\n        /* \"#utility.yul\":632:917   */\n      pop\n        /* \"#utility.yul\":540:917   */\n      swap3\n      swap2\n      pop\n      pop\n      jump\t// out\n        /* \"#utility.yul\":923:1236   */\n    tag_19:\n        /* \"#utility.yul\":1036:1040   */\n      0x00\n        /* \"#utility.yul\":1074:1076   */\n      0x20\n        /* \"#utility.yul\":1063:1072   */\n      dup3\n        /* \"#utility.yul\":1059:1077   */\n      add\n        /* \"#utility.yul\":1051:1077   */\n      swap1\n      pop\n        /* \"#utility.yul\":1123:1132   */\n      dup2\n        /* \"#utility.yul\":1117:1121   */\n      dup2\n        /* \"#utility.yul\":1113:1133   */\n      sub\n        /* \"#utility.yul\":1109:1110   */\n      0x00\n        /* \"#utility.yul\":1098:1107   */\n      dup4\n        /* \"#utility.yul\":1094:1111   */\n      add\n        /* \"#utility.yul\":1087:1134   */\n      mstore\n        /* \"#utility.yul\":1151:1229   */\n      tag_165\n        /* \"#utility.yul\":1224:1228   */\n      dup2\n        /* \"#utility.yul\":1215:1221   */\n      dup5\n        /* \"#utility.yul\":1151:1229   */\n      tag_128\n      jump\t// in\n    tag_165:\n        /* \"#utility.yul\":1143:1229   */\n      swap1\n      pop\n        /* \"#utility.yul\":923:1236   */\n      swap3\n      swap2\n      pop\n      pop\n      jump\t// out\n        /* \"#utility.yul\":1242:1332   */\n    tag_129:\n        /* \"#utility.yul\":1276:1283   */\n      0x00\n        /* \"#utility.yul\":1319:1324   */\n      dup2\n        /* \"#utility.yul\":1312:1325   */\n      iszero\n        /* \"#utility.yul\":1305:1326   */\n      iszero\n        /* \"#utility.yul\":1294:1326   */\n      swap1\n      pop\n        /* \"#utility.yul\":1242:1332   */\n      swap2\n      swap1\n      pop\n      jump\t// out\n        /* \"#utility.yul\":1338:1447   */\n    tag_130:\n        /* \"#utility.yul\":1419:1440   */\n      tag_168\n        /* \"#utility.yul\":1434:1439   */\n      dup2\n        /* \"#utility.yul\":1419:1440   */\n      tag_129\n      jump\t// in\n    tag_168:\n        /* \"#utility.yul\":1414:1417   */\n      dup3\n        /* \"#utility.yul\":1407:1441   */\n      mstore\n        /* \"#utility.yul\":1338:1447   */\n      pop\n      pop\n      jump\t// out\n        /* \"#utility.yul\":1453:1663   */\n    tag_24:\n        /* \"#utility.yul\":1540:1544   */\n      0x00\n        /* \"#utility.yul\":1578:1580   */\n      0x20\n        /* \"#utility.yul\":1567:1576   */\n      dup3\n        /* \"#utility.yul\":1563:1581   */\n      add\n        /* \"#utility.yul\":1555:1581   */\n      swap1\n      pop\n        /* \"#utility.yul\":1591:1656   */\n      tag_170\n        /* \"#utility.yul\":1653:1654   */\n      0x00\n        /* \"#utility.yul\":1642:1651   */\n      dup4\n        /* \"#utility.yul\":1638:1655   */\n      add\n        /* \"#utility.yul\":1629:1635   */\n      dup5\n        /* \"#utility.yul\":1591:1656   */\n      tag_130\n      jump\t// in\n    tag_170:\n        /* \"#utility.yul\":1453:1663   */\n      swap3\n      swap2\n      pop\n      pop\n      jump\t// out\n        /* \"#utility.yul\":1669:1746   */\n    tag_131:\n        /* \"#utility.yul\":1706:1713   */\n      0x00\n        /* \"#utility.yul\":1735:1740   */\n      dup2\n        /* \"#utility.yul\":1724:1740   */\n      swap1\n      pop\n        /* \"#utility.yul\":1669:1746   */\n      swap2\n      swap1\n      pop\n      jump\t// out\n        /* \"#utility.yul\":1752:1870   */\n    tag_132:\n        /* \"#utility.yul\":1839:1863   */\n      tag_173\n        /* \"#utility.yul\":1857:1862   */\n      dup2\n        /* \"#utility.yul\":1839:1863   */\n      tag_131\n      jump\t// in\n    tag_173:\n        /* \"#utility.yul\":1834:1837   */\n      dup3\n        /* \"#utility.yul\":1827:1864   */\n      mstore\n        /* \"#utility.yul\":1752:1870   */\n      pop\n      pop\n      jump\t// out\n        /* \"#utility.yul\":1876:2098   */\n    tag_29:\n        /* \"#utility.yul\":1969:1973   */\n      0x00\n        /* \"#utility.yul\":2007:2009   */\n      0x20\n        /* \"#utility.yul\":1996:2005   */\n      dup3\n        /* \"#utility.yul\":1992:2010   */\n      add\n        /* \"#utility.yul\":1984:2010   */\n      swap1\n      pop\n        /* \"#utility.yul\":2020:2091   */\n      tag_175\n        /* \"#utility.yul\":2088:2089   */\n      0x00\n        /* \"#utility.yul\":2077:2086   */\n      dup4\n        /* \"#utility.yul\":2073:2090   */\n      add\n        /* \"#utility.yul\":2064:2070   */\n      dup5\n        /* \"#utility.yul\":2020:2091   */\n      tag_132\n      jump\t// in\n    tag_175:\n        /* \"#utility.yul\":1876:2098   */\n      swap3\n      swap2\n      pop\n      pop\n      jump\t// out\n        /* \"#utility.yul\":2104:2230   */\n    tag_133:\n        /* \"#utility.yul\":2141:2148   */\n      0x00\n        /* \"#utility.yul\":2181:2223   */\n      0xffffffffffffffffffffffffffffffffffffffff\n        /* \"#utility.yul\":2174:2179   */\n      dup3\n        /* \"#utility.yul\":2170:2224   */\n      and\n        /* \"#utility.yul\":2159:2224   */\n      swap1\n      pop\n        /* \"#utility.yul\":2104:2230   */\n      swap2\n      swap1\n      pop\n      jump\t// out\n        /* \"#utility.yul\":2236:2332   */\n    tag_134:\n        /* \"#utility.yul\":2273:2280   */\n      0x00\n        /* \"#utility.yul\":2302:2326   */\n      tag_178\n        /* \"#utility.yul\":2320:2325   */\n      dup3\n        /* \"#utility.yul\":2302:2326   */\n      tag_133\n      jump\t// in\n    tag_178:\n        /* \"#utility.yul\":2291:2326   */\n      swap1\n      pop\n        /* \"#utility.yul\":2236:2332   */\n      swap2\n      swap1\n      pop\n      jump\t// out\n        /* \"#utility.yul\":2338:2456   */\n    tag_135:\n        /* \"#utility.yul\":2425:2449   */\n      tag_180\n        /* \"#utility.yul\":2443:2448   */\n      dup2\n        /* \"#utility.yul\":2425:2449   */\n      tag_134\n      jump\t// in\n    tag_180:\n        /* \"#utility.yul\":2420:2423   */\n      dup3\n        /* \"#utility.yul\":2413:2450   */\n      mstore\n        /* \"#utility.yul\":2338:2456   */\n      pop\n      pop\n      jump\t// out\n        /* \"#utility.yul\":2462:2684   */\n    tag_34:\n        /* \"#utility.yul\":2555:2559   */\n      0x00\n        /* \"#utility.yul\":2593:2595   */\n      0x20\n        /* \"#utility.yul\":2582:2591   */\n      dup3\n        /* \"#utility.yul\":2578:2596   */\n      add\n        /* \"#utility.yul\":2570:2596   */\n      swap1\n      pop\n        /* \"#utility.yul\":2606:2677   */\n      tag_182\n        /* \"#utility.yul\":2674:2675   */\n      0x00\n        /* \"#utility.yul\":2663:2672   */\n      dup4\n        /* \"#utility.yul\":2659:2676   */\n      add\n        /* \"#utility.yul\":2650:2656   */\n      dup5\n        /* \"#utility.yul\":2606:2677   */\n      tag_135\n      jump\t// in\n    tag_182:\n        /* \"#utility.yul\":2462:2684   */\n      swap3\n      swap2\n      pop\n      pop\n      jump\t// out\n        /* \"#utility.yul\":2771:2888   */\n    tag_137:\n        /* \"#utility.yul\":2880:2881   */\n      0x00\n        /* \"#utility.yul\":2877:2878   */\n      dup1\n        /* \"#utility.yul\":2870:2882   */\n      revert\n        /* \"#utility.yul\":3017:3139   */\n    tag_139:\n        /* \"#utility.yul\":3090:3114   */\n      tag_187\n        /* \"#utility.yul\":3108:3113   */\n      dup2\n        /* \"#utility.yul\":3090:3114   */\n      tag_134\n      jump\t// in\n    tag_187:\n        /* \"#utility.yul\":3083:3088   */\n      dup2\n        /* \"#utility.yul\":3080:3115   */\n      eq\n        /* \"#utility.yul\":3070:3133   */\n      tag_188\n      jumpi\n        /* \"#utility.yul\":3129:3130   */\n      0x00\n        /* \"#utility.yul\":3126:3127   */\n      dup1\n        /* \"#utility.yul\":3119:3131   */\n      revert\n        /* \"#utility.yul\":3070:3133   */\n    tag_188:\n        /* \"#utility.yul\":3017:3139   */\n      pop\n      jump\t// out\n        /* \"#utility.yul\":3145:3284   */\n    tag_140:\n        /* \"#utility.yul\":3191:3196   */\n      0x00\n        /* \"#utility.yul\":3229:3235   */\n      dup2\n        /* \"#utility.yul\":3216:3236   */\n      calldataload\n        /* \"#utility.yul\":3207:3236   */\n      swap1\n      pop\n        /* \"#utility.yul\":3245:3278   */\n      tag_190\n        /* \"#utility.yul\":3272:3277   */\n      dup2\n        /* \"#utility.yul\":3245:3278   */\n      tag_139\n      jump\t// in\n    tag_190:\n        /* \"#utility.yul\":3145:3284   */\n      swap3\n      swap2\n      pop\n      pop\n      jump\t// out\n        /* \"#utility.yul\":3290:3619   */\n    tag_61:\n        /* \"#utility.yul\":3349:3355   */\n      0x00\n        /* \"#utility.yul\":3398:3400   */\n      0x20\n        /* \"#utility.yul\":3386:3395   */\n      dup3\n        /* \"#utility.yul\":3377:3384   */\n      dup5\n        /* \"#utility.yul\":3373:3396   */\n      sub\n        /* \"#utility.yul\":3369:3401   */\n      slt\n        /* \"#utility.yul\":3366:3485   */\n      iszero\n      tag_192\n      jumpi\n        /* \"#utility.yul\":3404:3483   */\n      tag_193\n      tag_137\n      jump\t// in\n    tag_193:\n        /* \"#utility.yul\":3366:3485   */\n    tag_192:\n        /* \"#utility.yul\":3524:3525   */\n      0x00\n        /* \"#utility.yul\":3549:3602   */\n      tag_194\n        /* \"#utility.yul\":3594:3601   */\n      dup5\n        /* \"#utility.yul\":3585:3591   */\n      dup3\n        /* \"#utility.yul\":3574:3583   */\n      dup6\n        /* \"#utility.yul\":3570:3592   */\n      add\n        /* \"#utility.yul\":3549:3602   */\n      tag_140\n      jump\t// in\n    tag_194:\n        /* \"#utility.yul\":3539:3602   */\n      swap2\n      pop\n        /* \"#utility.yul\":3495:3612   */\n      pop\n        /* \"#utility.yul\":3290:3619   */\n      swap3\n      swap2\n      pop\n      pop\n      jump\t// out\n        /* \"#utility.yul\":3625:3805   */\n    tag_141:\n        /* \"#utility.yul\":3673:3750   */\n      0x4e487b7100000000000000000000000000000000000000000000000000000000\n        /* \"#utility.yul\":3670:3671   */\n      0x00\n        /* \"#utility.yul\":3663:3751   */\n      mstore\n        /* \"#utility.yul\":3770:3774   */\n      0x22\n        /* \"#utility.yul\":3767:3768   */\n      0x04\n        /* \"#utility.yul\":3760:3775   */\n      mstore\n        /* \"#utility.yul\":3794:3798   */\n      0x24\n        /* \"#utility.yul\":3791:3792   */\n      0x00\n        /* \"#utility.yul\":3784:3799   */\n      revert\n        /* \"#utility.yul\":3811:4131   */\n    tag_67:\n        /* \"#utility.yul\":3855:3861   */\n      0x00\n        /* \"#utility.yul\":3892:3893   */\n      0x02\n        /* \"#utility.yul\":3886:3890   */\n      dup3\n        /* \"#utility.yul\":3882:3894   */\n      div\n        /* \"#utility.yul\":3872:3894   */\n      swap1\n      pop\n        /* \"#utility.yul\":3939:3940   */\n      0x01\n        /* \"#utility.yul\":3933:3937   */\n      dup3\n        /* \"#utility.yul\":3929:3941   */\n      and\n        /* \"#utility.yul\":3960:3978   */\n      dup1\n        /* \"#utility.yul\":3950:4031   */\n      tag_197\n      jumpi\n        /* \"#utility.yul\":4016:4020   */\n      0x7f\n        /* \"#utility.yul\":4008:4014   */\n      dup3\n        /* \"#utility.yul\":4004:4021   */\n      and\n        /* \"#utility.yul\":3994:4021   */\n      swap2\n      pop\n        /* \"#utility.yul\":3950:4031   */\n    tag_197:\n        /* \"#utility.yul\":4078:4080   */\n      0x20\n        /* \"#utility.yul\":4070:4076   */\n      dup3\n        /* \"#utility.yul\":4067:4081   */\n      lt\n        /* \"#utility.yul\":4047:4065   */\n      dup2\n        /* \"#utility.yul\":4044:4082   */\n      sub\n        /* \"#utility.yul\":4041:4125   */\n      tag_198\n      jumpi\n        /* \"#utility.yul\":4097:4115   */\n      tag_199\n      tag_141\n      jump\t// in\n    tag_199:\n        /* \"#utility.yul\":4041:4125   */\n    tag_198:\n        /* \"#utility.yul\":3862:4131   */\n      pop\n        /* \"#utility.yul\":3811:4131   */\n      swap2\n      swap1\n      pop\n      jump\t// out\n        /* \"#utility.yul\":4137:4359   */\n    tag_142:\n        /* \"#utility.yul\":4277:4311   */\n      0x5468652043616d617069676e277320646561646c696e65206861732070617373\n        /* \"#utility.yul\":4273:4274   */\n      0x00\n        /* \"#utility.yul\":4265:4271   */\n      dup3\n        /* \"#utility.yul\":4261:4275   */\n      add\n        /* \"#utility.yul\":4254:4312   */\n      mstore\n        /* \"#utility.yul\":4346:4351   */\n      0x6564210000000000000000000000000000000000000000000000000000000000\n        /* \"#utility.yul\":4341:4343   */\n      0x20\n        /* \"#utility.yul\":4333:4339   */\n      dup3\n        /* \"#utility.yul\":4329:4344   */\n      add\n        /* \"#utility.yul\":4322:4352   */\n      mstore\n        /* \"#utility.yul\":4137:4359   */\n      pop\n      jump\t// out\n        /* \"#utility.yul\":4365:4731   */\n    tag_143:\n        /* \"#utility.yul\":4507:4510   */\n      0x00\n        /* \"#utility.yul\":4528:4595   */\n      tag_202\n        /* \"#utility.yul\":4592:4594   */\n      0x23\n        /* \"#utility.yul\":4587:4590   */\n      dup4\n        /* \"#utility.yul\":4528:4595   */\n      tag_125\n      jump\t// in\n    tag_202:\n        /* \"#utility.yul\":4521:4595   */\n      swap2\n      pop\n        /* \"#utility.yul\":4604:4697   */\n      tag_203\n        /* \"#utility.yul\":4693:4696   */\n      dup3\n        /* \"#utility.yul\":4604:4697   */\n      tag_142\n      jump\t// in\n    tag_203:\n        /* \"#utility.yul\":4722:4724   */\n      0x40\n        /* \"#utility.yul\":4717:4720   */\n      dup3\n        /* \"#utility.yul\":4713:4725   */\n      add\n        /* \"#utility.yul\":4706:4725   */\n      swap1\n      pop\n        /* \"#utility.yul\":4365:4731   */\n      swap2\n      swap1\n      pop\n      jump\t// out\n        /* \"#utility.yul\":4737:5156   */\n    tag_85:\n        /* \"#utility.yul\":4903:4907   */\n      0x00\n        /* \"#utility.yul\":4941:4943   */\n      0x20\n        /* \"#utility.yul\":4930:4939   */\n      dup3\n        /* \"#utility.yul\":4926:4944   */\n      add\n        /* \"#utility.yul\":4918:4944   */\n      swap1\n      pop\n        /* \"#utility.yul\":4990:4999   */\n      dup2\n        /* \"#utility.yul\":4984:4988   */\n      dup2\n        /* \"#utility.yul\":4980:5000   */\n      sub\n        /* \"#utility.yul\":4976:4977   */\n      0x00\n        /* \"#utility.yul\":4965:4974   */\n      dup4\n        /* \"#utility.yul\":4961:4978   */\n      add\n        /* \"#utility.yul\":4954:5001   */\n      mstore\n        /* \"#utility.yul\":5018:5149   */\n      tag_205\n        /* \"#utility.yul\":5144:5148   */\n      dup2\n        /* \"#utility.yul\":5018:5149   */\n      tag_143\n      jump\t// in\n    tag_205:\n        /* \"#utility.yul\":5010:5149   */\n      swap1\n      pop\n        /* \"#utility.yul\":4737:5156   */\n      swap2\n      swap1\n      pop\n      jump\t// out\n        /* \"#utility.yul\":5162:5339   */\n    tag_144:\n        /* \"#utility.yul\":5302:5331   */\n      0x5468652043616d706169676e206973206e6f7420616374697665210000000000\n        /* \"#utility.yul\":5298:5299   */\n      0x00\n        /* \"#utility.yul\":5290:5296   */\n      dup3\n        /* \"#utility.yul\":5286:5300   */\n      add\n        /* \"#utility.yul\":5279:5332   */\n      mstore\n        /* \"#utility.yul\":5162:5339   */\n      pop\n      jump\t// out\n        /* \"#utility.yul\":5345:5711   */\n    tag_145:\n        /* \"#utility.yul\":5487:5490   */\n      0x00\n        /* \"#utility.yul\":5508:5575   */\n      tag_208\n        /* \"#utility.yul\":5572:5574   */\n      0x1b\n        /* \"#utility.yul\":5567:5570   */\n      dup4\n        /* \"#utility.yul\":5508:5575   */\n      tag_125\n      jump\t// in\n    tag_208:\n        /* \"#utility.yul\":5501:5575   */\n      swap2\n      pop\n        /* \"#utility.yul\":5584:5677   */\n      tag_209\n        /* \"#utility.yul\":5673:5676   */\n      dup3\n        /* \"#utility.yul\":5584:5677   */\n      tag_144\n      jump\t// in\n    tag_209:\n        /* \"#utility.yul\":5702:5704   */\n      0x20\n        /* \"#utility.yul\":5697:5700   */\n      dup3\n        /* \"#utility.yul\":5693:5705   */\n      add\n        /* \"#utility.yul\":5686:5705   */\n      swap1\n      pop\n        /* \"#utility.yul\":5345:5711   */\n      swap2\n      swap1\n      pop\n      jump\t// out\n        /* \"#utility.yul\":5717:6136   */\n    tag_88:\n        /* \"#utility.yul\":5883:5887   */\n      0x00\n        /* \"#utility.yul\":5921:5923   */\n      0x20\n        /* \"#utility.yul\":5910:5919   */\n      dup3\n        /* \"#utility.yul\":5906:5924   */\n      add\n        /* \"#utility.yul\":5898:5924   */\n      swap1\n      pop\n        /* \"#utility.yul\":5970:5979   */\n      dup2\n        /* \"#utility.yul\":5964:5968   */\n      dup2\n        /* \"#utility.yul\":5960:5980   */\n      sub\n        /* \"#utility.yul\":5956:5957   */\n      0x00\n        /* \"#utility.yul\":5945:5954   */\n      dup4\n        /* \"#utility.yul\":5941:5958   */\n      add\n        /* \"#utility.yul\":5934:5981   */\n      mstore\n        /* \"#utility.yul\":5998:6129   */\n      tag_211\n        /* \"#utility.yul\":6124:6128   */\n      dup2\n        /* \"#utility.yul\":5998:6129   */\n      tag_145\n      jump\t// in\n    tag_211:\n        /* \"#utility.yul\":5990:6129   */\n      swap1\n      pop\n        /* \"#utility.yul\":5717:6136   */\n      swap2\n      swap1\n      pop\n      jump\t// out\n        /* \"#utility.yul\":6142:6368   */\n    tag_146:\n        /* \"#utility.yul\":6282:6316   */\n      0x5468652043616d617069676e277320646561646c696e6520686173206e6f7420\n        /* \"#utility.yul\":6278:6279   */\n      0x00\n        /* \"#utility.yul\":6270:6276   */\n      dup3\n        /* \"#utility.yul\":6266:6280   */\n      add\n        /* \"#utility.yul\":6259:6317   */\n      mstore\n        /* \"#utility.yul\":6351:6360   */\n      0x7061737365642100000000000000000000000000000000000000000000000000\n        /* \"#utility.yul\":6346:6348   */\n      0x20\n        /* \"#utility.yul\":6338:6344   */\n      dup3\n        /* \"#utility.yul\":6334:6349   */\n      add\n        /* \"#utility.yul\":6327:6361   */\n      mstore\n        /* \"#utility.yul\":6142:6368   */\n      pop\n      jump\t// out\n        /* \"#utility.yul\":6374:6740   */\n    tag_147:\n        /* \"#utility.yul\":6516:6519   */\n      0x00\n        /* \"#utility.yul\":6537:6604   */\n      tag_214\n        /* \"#utility.yul\":6601:6603   */\n      0x27\n        /* \"#utility.yul\":6596:6599   */\n      dup4\n        /* \"#utility.yul\":6537:6604   */\n      tag_125\n      jump\t// in\n    tag_214:\n        /* \"#utility.yul\":6530:6604   */\n      swap2\n      pop\n        /* \"#utility.yul\":6613:6706   */\n      tag_215\n        /* \"#utility.yul\":6702:6705   */\n      dup3\n        /* \"#utility.yul\":6613:6706   */\n      tag_146\n      jump\t// in\n    tag_215:\n        /* \"#utility.yul\":6731:6733   */\n      0x40\n        /* \"#utility.yul\":6726:6729   */\n      dup3\n        /* \"#utility.yul\":6722:6734   */\n      add\n        /* \"#utility.yul\":6715:6734   */\n      swap1\n      pop\n        /* \"#utility.yul\":6374:6740   */\n      swap2\n      swap1\n      pop\n      jump\t// out\n        /* \"#utility.yul\":6746:7165   */\n    tag_92:\n        /* \"#utility.yul\":6912:6916   */\n      0x00\n        /* \"#utility.yul\":6950:6952   */\n      0x20\n        /* \"#utility.yul\":6939:6948   */\n      dup3\n        /* \"#utility.yul\":6935:6953   */\n      add\n        /* \"#utility.yul\":6927:6953   */\n      swap1\n      pop\n        /* \"#utility.yul\":6999:7008   */\n      dup2\n        /* \"#utility.yul\":6993:6997   */\n      dup2\n        /* \"#utility.yul\":6989:7009   */\n      sub\n        /* \"#utility.yul\":6985:6986   */\n      0x00\n        /* \"#utility.yul\":6974:6983   */\n      dup4\n        /* \"#utility.yul\":6970:6987   */\n      add\n        /* \"#utility.yul\":6963:7010   */\n      mstore\n        /* \"#utility.yul\":7027:7158   */\n      tag_217\n        /* \"#utility.yul\":7153:7157   */\n      dup2\n        /* \"#utility.yul\":7027:7158   */\n      tag_147\n      jump\t// in\n    tag_217:\n        /* \"#utility.yul\":7019:7158   */\n      swap1\n      pop\n        /* \"#utility.yul\":6746:7165   */\n      swap2\n      swap1\n      pop\n      jump\t// out\n        /* \"#utility.yul\":7171:7351   */\n    tag_148:\n        /* \"#utility.yul\":7219:7296   */\n      0x4e487b7100000000000000000000000000000000000000000000000000000000\n        /* \"#utility.yul\":7216:7217   */\n      0x00\n        /* \"#utility.yul\":7209:7297   */\n      mstore\n        /* \"#utility.yul\":7316:7320   */\n      0x11\n        /* \"#utility.yul\":7313:7314   */\n      0x04\n        /* \"#utility.yul\":7306:7321   */\n      mstore\n        /* \"#utility.yul\":7340:7344   */\n      0x24\n        /* \"#utility.yul\":7337:7338   */\n      0x00\n        /* \"#utility.yul\":7330:7345   */\n      revert\n        /* \"#utility.yul\":7357:7548   */\n    tag_105:\n        /* \"#utility.yul\":7397:7400   */\n      0x00\n        /* \"#utility.yul\":7416:7436   */\n      tag_220\n        /* \"#utility.yul\":7434:7435   */\n      dup3\n        /* \"#utility.yul\":7416:7436   */\n      tag_131\n      jump\t// in\n    tag_220:\n        /* \"#utility.yul\":7411:7436   */\n      swap2\n      pop\n        /* \"#utility.yul\":7450:7470   */\n      tag_221\n        /* \"#utility.yul\":7468:7469   */\n      dup4\n        /* \"#utility.yul\":7450:7470   */\n      tag_131\n      jump\t// in\n    tag_221:\n        /* \"#utility.yul\":7445:7470   */\n      swap3\n      pop\n        /* \"#utility.yul\":7493:7494   */\n      dup3\n        /* \"#utility.yul\":7490:7491   */\n      dup3\n        /* \"#utility.yul\":7486:7495   */\n      add\n        /* \"#utility.yul\":7479:7495   */\n      swap1\n      pop\n        /* \"#utility.yul\":7514:7517   */\n      dup1\n        /* \"#utility.yul\":7511:7512   */\n      dup3\n        /* \"#utility.yul\":7508:7518   */\n      gt\n        /* \"#utility.yul\":7505:7541   */\n      iszero\n      tag_222\n      jumpi\n        /* \"#utility.yul\":7521:7539   */\n      tag_223\n      tag_148\n      jump\t// in\n    tag_223:\n        /* \"#utility.yul\":7505:7541   */\n    tag_222:\n        /* \"#utility.yul\":7357:7548   */\n      swap3\n      swap2\n      pop\n      pop\n      jump\t// out\n        /* \"#utility.yul\":7554:7996   */\n    tag_108:\n        /* \"#utility.yul\":7703:7707   */\n      0x00\n        /* \"#utility.yul\":7741:7743   */\n      0x60\n        /* \"#utility.yul\":7730:7739   */\n      dup3\n        /* \"#utility.yul\":7726:7744   */\n      add\n        /* \"#utility.yul\":7718:7744   */\n      swap1\n      pop\n        /* \"#utility.yul\":7754:7825   */\n      tag_225\n        /* \"#utility.yul\":7822:7823   */\n      0x00\n        /* \"#utility.yul\":7811:7820   */\n      dup4\n        /* \"#utility.yul\":7807:7824   */\n      add\n        /* \"#utility.yul\":7798:7804   */\n      dup7\n        /* \"#utility.yul\":7754:7825   */\n      tag_135\n      jump\t// in\n    tag_225:\n        /* \"#utility.yul\":7835:7907   */\n      tag_226\n        /* \"#utility.yul\":7903:7905   */\n      0x20\n        /* \"#utility.yul\":7892:7901   */\n      dup4\n        /* \"#utility.yul\":7888:7906   */\n      add\n        /* \"#utility.yul\":7879:7885   */\n      dup6\n        /* \"#utility.yul\":7835:7907   */\n      tag_132\n      jump\t// in\n    tag_226:\n        /* \"#utility.yul\":7917:7989   */\n      tag_227\n        /* \"#utility.yul\":7985:7987   */\n      0x40\n        /* \"#utility.yul\":7974:7983   */\n      dup4\n        /* \"#utility.yul\":7970:7988   */\n      add\n        /* \"#utility.yul\":7961:7967   */\n      dup5\n        /* \"#utility.yul\":7917:7989   */\n      tag_132\n      jump\t// in\n    tag_227:\n        /* \"#utility.yul\":7554:7996   */\n      swap5\n      swap4\n      pop\n      pop\n      pop\n      pop\n      jump\t// out\n        /* \"#utility.yul\":8002:8149   */\n    tag_149:\n        /* \"#utility.yul\":8103:8114   */\n      0x00\n        /* \"#utility.yul\":8140:8143   */\n      dup2\n        /* \"#utility.yul\":8125:8143   */\n      swap1\n      pop\n        /* \"#utility.yul\":8002:8149   */\n      swap3\n      swap2\n      pop\n      pop\n      jump\t// out\n        /* \"#utility.yul\":8155:8269   */\n    tag_150:\n      pop\n      jump\t// out\n        /* \"#utility.yul\":8275:8673   */\n    tag_151:\n        /* \"#utility.yul\":8434:8437   */\n      0x00\n        /* \"#utility.yul\":8455:8538   */\n      tag_231\n        /* \"#utility.yul\":8536:8537   */\n      0x00\n        /* \"#utility.yul\":8531:8534   */\n      dup4\n        /* \"#utility.yul\":8455:8538   */\n      tag_149\n      jump\t// in\n    tag_231:\n        /* \"#utility.yul\":8448:8538   */\n      swap2\n      pop\n        /* \"#utility.yul\":8547:8640   */\n      tag_232\n        /* \"#utility.yul\":8636:8639   */\n      dup3\n        /* \"#utility.yul\":8547:8640   */\n      tag_150\n      jump\t// in\n    tag_232:\n        /* \"#utility.yul\":8665:8666   */\n      0x00\n        /* \"#utility.yul\":8660:8663   */\n      dup3\n        /* \"#utility.yul\":8656:8667   */\n      add\n        /* \"#utility.yul\":8649:8667   */\n      swap1\n      pop\n        /* \"#utility.yul\":8275:8673   */\n      swap2\n      swap1\n      pop\n      jump\t// out\n        /* \"#utility.yul\":8679:9058   */\n    tag_113:\n        /* \"#utility.yul\":8863:8866   */\n      0x00\n        /* \"#utility.yul\":8885:9032   */\n      tag_234\n        /* \"#utility.yul\":9028:9031   */\n      dup3\n        /* \"#utility.yul\":8885:9032   */\n      tag_151\n      jump\t// in\n    tag_234:\n        /* \"#utility.yul\":8878:9032   */\n      swap2\n      pop\n        /* \"#utility.yul\":9049:9052   */\n      dup2\n        /* \"#utility.yul\":9042:9052   */\n      swap1\n      pop\n        /* \"#utility.yul\":8679:9058   */\n      swap2\n      swap1\n      pop\n      jump\t// out\n        /* \"#utility.yul\":9064:9238   */\n    tag_152:\n        /* \"#utility.yul\":9204:9230   */\n      0x556e61626c6520746f2072656c656173652066756e6473210000000000000000\n        /* \"#utility.yul\":9200:9201   */\n      0x00\n        /* \"#utility.yul\":9192:9198   */\n      dup3\n        /* \"#utility.yul\":9188:9202   */\n      add\n        /* \"#utility.yul\":9181:9231   */\n      mstore\n        /* \"#utility.yul\":9064:9238   */\n      pop\n      jump\t// out\n        /* \"#utility.yul\":9244:9610   */\n    tag_153:\n        /* \"#utility.yul\":9386:9389   */\n      0x00\n        /* \"#utility.yul\":9407:9474   */\n      tag_237\n        /* \"#utility.yul\":9471:9473   */\n      0x18\n        /* \"#utility.yul\":9466:9469   */\n      dup4\n        /* \"#utility.yul\":9407:9474   */\n      tag_125\n      jump\t// in\n    tag_237:\n        /* \"#utility.yul\":9400:9474   */\n      swap2\n      pop\n        /* \"#utility.yul\":9483:9576   */\n      tag_238\n        /* \"#utility.yul\":9572:9575   */\n      dup3\n        /* \"#utility.yul\":9483:9576   */\n      tag_152\n      jump\t// in\n    tag_238:\n        /* \"#utility.yul\":9601:9603   */\n      0x20\n        /* \"#utility.yul\":9596:9599   */\n      dup3\n        /* \"#utility.yul\":9592:9604   */\n      add\n        /* \"#utility.yul\":9585:9604   */\n      swap1\n      pop\n        /* \"#utility.yul\":9244:9610   */\n      swap2\n      swap1\n      pop\n      jump\t// out\n        /* \"#utility.yul\":9616:10035   */\n    tag_119:\n        /* \"#utility.yul\":9782:9786   */\n      0x00\n        /* \"#utility.yul\":9820:9822   */\n      0x20\n        /* \"#utility.yul\":9809:9818   */\n      dup3\n        /* \"#utility.yul\":9805:9823   */\n      add\n        /* \"#utility.yul\":9797:9823   */\n      swap1\n      pop\n        /* \"#utility.yul\":9869:9878   */\n      dup2\n        /* \"#utility.yul\":9863:9867   */\n      dup2\n        /* \"#utility.yul\":9859:9879   */\n      sub\n        /* \"#utility.yul\":9855:9856   */\n      0x00\n        /* \"#utility.yul\":9844:9853   */\n      dup4\n        /* \"#utility.yul\":9840:9857   */\n      add\n        /* \"#utility.yul\":9833:9880   */\n      mstore\n        /* \"#utility.yul\":9897:10028   */\n      tag_240\n        /* \"#utility.yul\":10023:10027   */\n      dup2\n        /* \"#utility.yul\":9897:10028   */\n      tag_153\n      jump\t// in\n    tag_240:\n        /* \"#utility.yul\":9889:10028   */\n      swap1\n      pop\n        /* \"#utility.yul\":9616:10035   */\n      swap2\n      swap1\n      pop\n      jump\t// out\n        /* \"#utility.yul\":10041:10373   */\n    tag_121:\n        /* \"#utility.yul\":10162:10166   */\n      0x00\n        /* \"#utility.yul\":10200:10202   */\n      0x40\n        /* \"#utility.yul\":10189:10198   */\n      dup3\n        /* \"#utility.yul\":10185:10203   */\n      add\n        /* \"#utility.yul\":10177:10203   */\n      swap1\n      pop\n        /* \"#utility.yul\":10213:10284   */\n      tag_242\n        /* \"#utility.yul\":10281:10282   */\n      0x00\n        /* \"#utility.yul\":10270:10279   */\n      dup4\n        /* \"#utility.yul\":10266:10283   */\n      add\n        /* \"#utility.yul\":10257:10263   */\n      dup6\n        /* \"#utility.yul\":10213:10284   */\n      tag_132\n      jump\t// in\n    tag_242:\n        /* \"#utility.yul\":10294:10366   */\n      tag_243\n        /* \"#utility.yul\":10362:10364   */\n      0x20\n        /* \"#utility.yul\":10351:10360   */\n      dup4\n        /* \"#utility.yul\":10347:10365   */\n      add\n        /* \"#utility.yul\":10338:10344   */\n      dup5\n        /* \"#utility.yul\":10294:10366   */\n      tag_132\n      jump\t// in\n    tag_243:\n        /* \"#utility.yul\":10041:10373   */\n      swap4\n      swap3\n      pop\n      pop\n      pop\n      jump\t// out\n        /* \"#utility.yul\":10379:10809   */\n    tag_123:\n        /* \"#utility.yul\":10522:10526   */\n      0x00\n        /* \"#utility.yul\":10560:10562   */\n      0x60\n        /* \"#utility.yul\":10549:10558   */\n      dup3\n        /* \"#utility.yul\":10545:10563   */\n      add\n        /* \"#utility.yul\":10537:10563   */\n      swap1\n      pop\n        /* \"#utility.yul\":10573:10638   */\n      tag_245\n        /* \"#utility.yul\":10635:10636   */\n      0x00\n        /* \"#utility.yul\":10624:10633   */\n      dup4\n        /* \"#utility.yul\":10620:10637   */\n      add\n        /* \"#utility.yul\":10611:10617   */\n      dup7\n        /* \"#utility.yul\":10573:10638   */\n      tag_130\n      jump\t// in\n    tag_245:\n        /* \"#utility.yul\":10648:10720   */\n      tag_246\n        /* \"#utility.yul\":10716:10718   */\n      0x20\n        /* \"#utility.yul\":10705:10714   */\n      dup4\n        /* \"#utility.yul\":10701:10719   */\n      add\n        /* \"#utility.yul\":10692:10698   */\n      dup6\n        /* \"#utility.yul\":10648:10720   */\n      tag_132\n      jump\t// in\n    tag_246:\n        /* \"#utility.yul\":10730:10802   */\n      tag_247\n        /* \"#utility.yul\":10798:10800   */\n      0x40\n        /* \"#utility.yul\":10787:10796   */\n      dup4\n        /* \"#utility.yul\":10783:10801   */\n      add\n        /* \"#utility.yul\":10774:10780   */\n      dup5\n        /* \"#utility.yul\":10730:10802   */\n      tag_132\n      jump\t// in\n    tag_247:\n        /* \"#utility.yul\":10379:10809   */\n      swap5\n      swap4\n      pop\n      pop\n      pop\n      pop\n      jump\t// out\n\n    auxdata: 0xa2646970667358221220de0682fd0ee12047d4b651c8b59f16f8df7137eb5cffaf7bb0808683d0cf2cd964736f6c634300081a0033\n}\n",
				"bytecode": {
					"linkReferences": {},
					"object": "608060405234801561000f575f80fd5b5060405161142f38038061142f833981810160405281019061003191906102b5565b865f819055508560015f6101000a81548173ffffffffffffffffffffffffffffffffffffffff021916908373ffffffffffffffffffffffffffffffffffffffff160217905550846002908161008691906105aa565b50836003908161009691906105aa565b5082600490816100a691906105aa565b508160058190555080600681905550600160085f6101000a81548160ff02191690831515021790555050505050505050610679565b5f604051905090565b5f80fd5b5f80fd5b5f819050919050565b6100fe816100ec565b8114610108575f80fd5b50565b5f81519050610119816100f5565b92915050565b5f73ffffffffffffffffffffffffffffffffffffffff82169050919050565b5f6101488261011f565b9050919050565b6101588161013e565b8114610162575f80fd5b50565b5f815190506101738161014f565b92915050565b5f80fd5b5f80fd5b5f601f19601f8301169050919050565b7f4e487b71000000000000000000000000000000000000000000000000000000005f52604160045260245ffd5b6101c782610181565b810181811067ffffffffffffffff821117156101e6576101e5610191565b5b80604052505050565b5f6101f86100db565b905061020482826101be565b919050565b5f67ffffffffffffffff82111561022357610222610191565b5b61022c82610181565b9050602081019050919050565b8281835e5f83830152505050565b5f61025961025484610209565b6101ef565b9050828152602081018484840111156102755761027461017d565b5b610280848285610239565b509392505050565b5f82601f83011261029c5761029b610179565b5b81516102ac848260208601610247565b91505092915050565b5f805f805f805f60e0888a0312156102d0576102cf6100e4565b5b5f6102dd8a828b0161010b565b97505060206102ee8a828b01610165565b965050604088015167ffffffffffffffff81111561030f5761030e6100e8565b5b61031b8a828b01610288565b955050606088015167ffffffffffffffff81111561033c5761033b6100e8565b5b6103488a828b01610288565b945050608088015167ffffffffffffffff811115610369576103686100e8565b5b6103758a828b01610288565b93505060a06103868a828b0161010b565b92505060c06103978a828b0161010b565b91505092959891949750929550565b5f81519050919050565b7f4e487b71000000000000000000000000000000000000000000000000000000005f52602260045260245ffd5b5f60028204905060018216806103f457607f821691505b602082108103610407576104066103b0565b5b50919050565b5f819050815f5260205f209050919050565b5f6020601f8301049050919050565b5f82821b905092915050565b5f600883026104697fffffffffffffffffffffffffffffffffffffffffffffffffffffffffffffffff8261042e565b610473868361042e565b95508019841693508086168417925050509392505050565b5f819050919050565b5f6104ae6104a96104a4846100ec565b61048b565b6100ec565b9050919050565b5f819050919050565b6104c783610494565b6104db6104d3826104b5565b84845461043a565b825550505050565b5f90565b6104ef6104e3565b6104fa8184846104be565b505050565b5b8181101561051d576105125f826104e7565b600181019050610500565b5050565b601f821115610562576105338161040d565b61053c8461041f565b8101602085101561054b578190505b61055f6105578561041f565b8301826104ff565b50505b505050565b5f82821c905092915050565b5f6105825f1984600802610567565b1980831691505092915050565b5f61059a8383610573565b9150826002028217905092915050565b6105b3826103a6565b67ffffffffffffffff8111156105cc576105cb610191565b5b6105d682546103dd565b6105e1828285610521565b5f60209050601f831160018114610612575f8415610600578287015190505b61060a858261058f565b865550610671565b601f1984166106208661040d565b5f5b8281101561064757848901518255600182019150602085019450602081019050610622565b868310156106645784890151610660601f891682610573565b8355505b6001600288020188555050505b505050505050565b610da9806106865f395ff3fe6080604052600436106100a6575f3560e01c80637a3a0e84116100635780637a3a0e84146101a65780638ed5b0fc146101d0578063968ed600146101fa578063a1211bc014610224578063cc6cb19a1461023a578063ed88c68e14610276576100a6565b806306fdde03146100aa57806322f3e2d4146100d457806329dcb0cf146100fe57806338af3eed1461012857806370740aab146101525780637284e4161461017c575b5f80fd5b3480156100b5575f80fd5b506100be610280565b6040516100cb91906108c3565b60405180910390f35b3480156100df575f80fd5b506100e861030c565b6040516100f591906108fd565b60405180910390f35b348015610109575f80fd5b5061011261031e565b60405161011f919061092e565b60405180910390f35b348015610133575f80fd5b5061013c610324565b6040516101499190610986565b60405180910390f35b34801561015d575f80fd5b50610166610349565b60405161017391906108c3565b60405180910390f35b348015610187575f80fd5b506101906103d5565b60405161019d91906108c3565b60405180910390f35b3480156101b1575f80fd5b506101ba610461565b6040516101c7919061092e565b60405180910390f35b3480156101db575f80fd5b506101e4610467565b6040516101f1919061092e565b60405180910390f35b348015610205575f80fd5b5061020e61046c565b60405161021b919061092e565b60405180910390f35b34801561022f575f80fd5b50610238610472565b005b348015610245575f80fd5b50610260600480360381019061025b91906109cd565b61057e565b60405161026d919061092e565b60405180910390f35b61027e610593565b005b6002805461028d90610a25565b80601f01602080910402602001604051908101604052809291908181526020018280546102b990610a25565b80156103045780601f106102db57610100808354040283529160200191610304565b820191905f5260205f20905b8154815290600101906020018083116102e757829003601f168201915b505050505081565b60085f9054906101000a900460ff1681565b60065481565b60015f9054906101000a900473ffffffffffffffffffffffffffffffffffffffff1681565b6003805461035690610a25565b80601f016020809104026020016040519081016040528092919081815260200182805461038290610a25565b80156103cd5780601f106103a4576101008083540402835291602001916103cd565b820191905f5260205f20905b8154815290600101906020018083116103b057829003601f168201915b505050505081565b600480546103e290610a25565b80601f016020809104026020016040519081016040528092919081815260200182805461040e90610a25565b80156104595780601f1061043057610100808354040283529160200191610459565b820191905f5260205f20905b81548152906001019060200180831161043c57829003601f168201915b505050505081565b60055481565b5f5481565b60075481565b6006544211156104b7576040517f08c379a00000000000000000000000000000000000000000000000000000000081526004016104ae90610ac5565b60405180910390fd5b60085f9054906101000a900460ff16610505576040517f08c379a00000000000000000000000000000000000000000000000000000000081526004016104fc90610b2d565b60405180910390fd5b6006544211610549576040517f08c379a000000000000000000000000000000000000000000000000000000000815260040161054090610bbb565b60405180910390fd5b5f60085f6101000a81548160ff021916908315150217905550600554600754111561057b576105766106ec565b61057c565b5b565b6009602052805f5260405f205f915090505481565b6006544211156105d8576040517f08c379a00000000000000000000000000000000000000000000000000000000081526004016105cf90610ac5565b60405180910390fd5b60085f9054906101000a900460ff16610626576040517f08c379a000000000000000000000000000000000000000000000000000000000815260040161061d90610b2d565b60405180910390fd5b5f3390505f3490508060095f8473ffffffffffffffffffffffffffffffffffffffff1673ffffffffffffffffffffffffffffffffffffffff1681526020019081526020015f205f82825461067a9190610c06565b925050819055508060075f8282546106929190610c06565b925050819055507fd97bcdf12fa1d5342fc942da5eadf35c7597f34f8da7274c2b0d2ad9798426798282426040516106cc93929190610c39565b60405180910390a1600554600754106106e8576106e76106ec565b5b5050565b5f60085f6101000a81548160ff0219169083151502179055505f6007819055505f60015f9054906101000a900473ffffffffffffffffffffffffffffffffffffffff1673ffffffffffffffffffffffffffffffffffffffff1660075460405161075490610c9b565b5f6040518083038185875af1925050503d805f811461078e576040519150601f19603f3d011682016040523d82523d5f602084013e610793565b606091505b50509050806107d7576040517f08c379a00000000000000000000000000000000000000000000000000000000081526004016107ce90610cf9565b60405180910390fd5b7fd66662c0ded9e58fd31d5e44944bcfd07ffc15e6927ecc1382e7941cb7bd24c46007544260405161080a929190610d17565b60405180910390a17fff1ed4ae8add74fa56c8d588bd1877949f03579b6ec0057a6cbc5ea1ee0dc00060016007544260405161084893929190610d3e565b60405180910390a150565b5f81519050919050565b5f82825260208201905092915050565b8281835e5f83830152505050565b5f601f19601f8301169050919050565b5f61089582610853565b61089f818561085d565b93506108af81856020860161086d565b6108b88161087b565b840191505092915050565b5f6020820190508181035f8301526108db818461088b565b905092915050565b5f8115159050919050565b6108f7816108e3565b82525050565b5f6020820190506109105f8301846108ee565b92915050565b5f819050919050565b61092881610916565b82525050565b5f6020820190506109415f83018461091f565b92915050565b5f73ffffffffffffffffffffffffffffffffffffffff82169050919050565b5f61097082610947565b9050919050565b61098081610966565b82525050565b5f6020820190506109995f830184610977565b92915050565b5f80fd5b6109ac81610966565b81146109b6575f80fd5b50565b5f813590506109c7816109a3565b92915050565b5f602082840312156109e2576109e161099f565b5b5f6109ef848285016109b9565b91505092915050565b7f4e487b71000000000000000000000000000000000000000000000000000000005f52602260045260245ffd5b5f6002820490506001821680610a3c57607f821691505b602082108103610a4f57610a4e6109f8565b5b50919050565b7f5468652043616d617069676e277320646561646c696e652068617320706173735f8201527f6564210000000000000000000000000000000000000000000000000000000000602082015250565b5f610aaf60238361085d565b9150610aba82610a55565b604082019050919050565b5f6020820190508181035f830152610adc81610aa3565b9050919050565b7f5468652043616d706169676e206973206e6f74206163746976652100000000005f82015250565b5f610b17601b8361085d565b9150610b2282610ae3565b602082019050919050565b5f6020820190508181035f830152610b4481610b0b565b9050919050565b7f5468652043616d617069676e277320646561646c696e6520686173206e6f74205f8201527f7061737365642100000000000000000000000000000000000000000000000000602082015250565b5f610ba560278361085d565b9150610bb082610b4b565b604082019050919050565b5f6020820190508181035f830152610bd281610b99565b9050919050565b7f4e487b71000000000000000000000000000000000000000000000000000000005f52601160045260245ffd5b5f610c1082610916565b9150610c1b83610916565b9250828201905080821115610c3357610c32610bd9565b5b92915050565b5f606082019050610c4c5f830186610977565b610c59602083018561091f565b610c66604083018461091f565b949350505050565b5f81905092915050565b50565b5f610c865f83610c6e565b9150610c9182610c78565b5f82019050919050565b5f610ca582610c7b565b9150819050919050565b7f556e61626c6520746f2072656c656173652066756e64732100000000000000005f82015250565b5f610ce360188361085d565b9150610cee82610caf565b602082019050919050565b5f6020820190508181035f830152610d1081610cd7565b9050919050565b5f604082019050610d2a5f83018561091f565b610d37602083018461091f565b9392505050565b5f606082019050610d515f8301866108ee565b610d5e602083018561091f565b610d6b604083018461091f565b94935050505056fea2646970667358221220de0682fd0ee12047d4b651c8b59f16f8df7137eb5cffaf7bb0808683d0cf2cd964736f6c634300081a0033",
					"opcodes": "PUSH1 0x80 PUSH1 0x40 MSTORE CALLVALUE DUP1 ISZERO PUSH2 0xF JUMPI PUSH0 DUP1 REVERT JUMPDEST POP PUSH1 0x40 MLOAD PUSH2 0x142F CODESIZE SUB DUP1 PUSH2 0x142F DUP4 CODECOPY DUP2 DUP2 ADD PUSH1 0x40 MSTORE DUP2 ADD SWAP1 PUSH2 0x31 SWAP2 SWAP1 PUSH2 0x2B5 JUMP JUMPDEST DUP7 PUSH0 DUP2 SWAP1 SSTORE POP DUP6 PUSH1 0x1 PUSH0 PUSH2 0x100 EXP DUP2 SLOAD DUP2 PUSH20 0xFFFFFFFFFFFFFFFFFFFFFFFFFFFFFFFFFFFFFFFF MUL NOT AND SWAP1 DUP4 PUSH20 0xFFFFFFFFFFFFFFFFFFFFFFFFFFFFFFFFFFFFFFFF AND MUL OR SWAP1 SSTORE POP DUP5 PUSH1 0x2 SWAP1 DUP2 PUSH2 0x86 SWAP2 SWAP1 PUSH2 0x5AA JUMP JUMPDEST POP DUP4 PUSH1 0x3 SWAP1 DUP2 PUSH2 0x96 SWAP2 SWAP1 PUSH2 0x5AA JUMP JUMPDEST POP DUP3 PUSH1 0x4 SWAP1 DUP2 PUSH2 0xA6 SWAP2 SWAP1 PUSH2 0x5AA JUMP JUMPDEST POP DUP2 PUSH1 0x5 DUP2 SWAP1 SSTORE POP DUP1 PUSH1 0x6 DUP2 SWAP1 SSTORE POP PUSH1 0x1 PUSH1 0x8 PUSH0 PUSH2 0x100 EXP DUP2 SLOAD DUP2 PUSH1 0xFF MUL NOT AND SWAP1 DUP4 ISZERO ISZERO MUL OR SWAP1 SSTORE POP POP POP POP POP POP POP POP PUSH2 0x679 JUMP JUMPDEST PUSH0 PUSH1 0x40 MLOAD SWAP1 POP SWAP1 JUMP JUMPDEST PUSH0 DUP1 REVERT JUMPDEST PUSH0 DUP1 REVERT JUMPDEST PUSH0 DUP2 SWAP1 POP SWAP2 SWAP1 POP JUMP JUMPDEST PUSH2 0xFE DUP2 PUSH2 0xEC JUMP JUMPDEST DUP2 EQ PUSH2 0x108 JUMPI PUSH0 DUP1 REVERT JUMPDEST POP JUMP JUMPDEST PUSH0 DUP2 MLOAD SWAP1 POP PUSH2 0x119 DUP2 PUSH2 0xF5 JUMP JUMPDEST SWAP3 SWAP2 POP POP JUMP JUMPDEST PUSH0 PUSH20 0xFFFFFFFFFFFFFFFFFFFFFFFFFFFFFFFFFFFFFFFF DUP3 AND SWAP1 POP SWAP2 SWAP1 POP JUMP JUMPDEST PUSH0 PUSH2 0x148 DUP3 PUSH2 0x11F JUMP JUMPDEST SWAP1 POP SWAP2 SWAP1 POP JUMP JUMPDEST PUSH2 0x158 DUP2 PUSH2 0x13E JUMP JUMPDEST DUP2 EQ PUSH2 0x162 JUMPI PUSH0 DUP1 REVERT JUMPDEST POP JUMP JUMPDEST PUSH0 DUP2 MLOAD SWAP1 POP PUSH2 0x173 DUP2 PUSH2 0x14F JUMP JUMPDEST SWAP3 SWAP2 POP POP JUMP JUMPDEST PUSH0 DUP1 REVERT JUMPDEST PUSH0 DUP1 REVERT JUMPDEST PUSH0 PUSH1 0x1F NOT PUSH1 0x1F DUP4 ADD AND SWAP1 POP SWAP2 SWAP1 POP JUMP JUMPDEST PUSH32 0x4E487B7100000000000000000000000000000000000000000000000000000000 PUSH0 MSTORE PUSH1 0x41 PUSH1 0x4 MSTORE PUSH1 0x24 PUSH0 REVERT JUMPDEST PUSH2 0x1C7 DUP3 PUSH2 0x181 JUMP JUMPDEST DUP2 ADD DUP2 DUP2 LT PUSH8 0xFFFFFFFFFFFFFFFF DUP3 GT OR ISZERO PUSH2 0x1E6 JUMPI PUSH2 0x1E5 PUSH2 0x191 JUMP JUMPDEST JUMPDEST DUP1 PUSH1 0x40 MSTORE POP POP POP JUMP JUMPDEST PUSH0 PUSH2 0x1F8 PUSH2 0xDB JUMP JUMPDEST SWAP1 POP PUSH2 0x204 DUP3 DUP3 PUSH2 0x1BE JUMP JUMPDEST SWAP2 SWAP1 POP JUMP JUMPDEST PUSH0 PUSH8 0xFFFFFFFFFFFFFFFF DUP3 GT ISZERO PUSH2 0x223 JUMPI PUSH2 0x222 PUSH2 0x191 JUMP JUMPDEST JUMPDEST PUSH2 0x22C DUP3 PUSH2 0x181 JUMP JUMPDEST SWAP1 POP PUSH1 0x20 DUP2 ADD SWAP1 POP SWAP2 SWAP1 POP JUMP JUMPDEST DUP3 DUP2 DUP4 MCOPY PUSH0 DUP4 DUP4 ADD MSTORE POP POP POP JUMP JUMPDEST PUSH0 PUSH2 0x259 PUSH2 0x254 DUP5 PUSH2 0x209 JUMP JUMPDEST PUSH2 0x1EF JUMP JUMPDEST SWAP1 POP DUP3 DUP2 MSTORE PUSH1 0x20 DUP2 ADD DUP5 DUP5 DUP5 ADD GT ISZERO PUSH2 0x275 JUMPI PUSH2 0x274 PUSH2 0x17D JUMP JUMPDEST JUMPDEST PUSH2 0x280 DUP5 DUP3 DUP6 PUSH2 0x239 JUMP JUMPDEST POP SWAP4 SWAP3 POP POP POP JUMP JUMPDEST PUSH0 DUP3 PUSH1 0x1F DUP4 ADD SLT PUSH2 0x29C JUMPI PUSH2 0x29B PUSH2 0x179 JUMP JUMPDEST JUMPDEST DUP2 MLOAD PUSH2 0x2AC DUP5 DUP3 PUSH1 0x20 DUP7 ADD PUSH2 0x247 JUMP JUMPDEST SWAP2 POP POP SWAP3 SWAP2 POP POP JUMP JUMPDEST PUSH0 DUP1 PUSH0 DUP1 PUSH0 DUP1 PUSH0 PUSH1 0xE0 DUP9 DUP11 SUB SLT ISZERO PUSH2 0x2D0 JUMPI PUSH2 0x2CF PUSH2 0xE4 JUMP JUMPDEST JUMPDEST PUSH0 PUSH2 0x2DD DUP11 DUP3 DUP12 ADD PUSH2 0x10B JUMP JUMPDEST SWAP8 POP POP PUSH1 0x20 PUSH2 0x2EE DUP11 DUP3 DUP12 ADD PUSH2 0x165 JUMP JUMPDEST SWAP7 POP POP PUSH1 0x40 DUP9 ADD MLOAD PUSH8 0xFFFFFFFFFFFFFFFF DUP2 GT ISZERO PUSH2 0x30F JUMPI PUSH2 0x30E PUSH2 0xE8 JUMP JUMPDEST JUMPDEST PUSH2 0x31B DUP11 DUP3 DUP12 ADD PUSH2 0x288 JUMP JUMPDEST SWAP6 POP POP PUSH1 0x60 DUP9 ADD MLOAD PUSH8 0xFFFFFFFFFFFFFFFF DUP2 GT ISZERO PUSH2 0x33C JUMPI PUSH2 0x33B PUSH2 0xE8 JUMP JUMPDEST JUMPDEST PUSH2 0x348 DUP11 DUP3 DUP12 ADD PUSH2 0x288 JUMP JUMPDEST SWAP5 POP POP PUSH1 0x80 DUP9 ADD MLOAD PUSH8 0xFFFFFFFFFFFFFFFF DUP2 GT ISZERO PUSH2 0x369 JUMPI PUSH2 0x368 PUSH2 0xE8 JUMP JUMPDEST JUMPDEST PUSH2 0x375 DUP11 DUP3 DUP12 ADD PUSH2 0x288 JUMP JUMPDEST SWAP4 POP POP PUSH1 0xA0 PUSH2 0x386 DUP11 DUP3 DUP12 ADD PUSH2 0x10B JUMP JUMPDEST SWAP3 POP POP PUSH1 0xC0 PUSH2 0x397 DUP11 DUP3 DUP12 ADD PUSH2 0x10B JUMP JUMPDEST SWAP2 POP POP SWAP3 SWAP6 SWAP9 SWAP2 SWAP5 SWAP8 POP SWAP3 SWAP6 POP JUMP JUMPDEST PUSH0 DUP2 MLOAD SWAP1 POP SWAP2 SWAP1 POP JUMP JUMPDEST PUSH32 0x4E487B7100000000000000000000000000000000000000000000000000000000 PUSH0 MSTORE PUSH1 0x22 PUSH1 0x4 MSTORE PUSH1 0x24 PUSH0 REVERT JUMPDEST PUSH0 PUSH1 0x2 DUP3 DIV SWAP1 POP PUSH1 0x1 DUP3 AND DUP1 PUSH2 0x3F4 JUMPI PUSH1 0x7F DUP3 AND SWAP2 POP JUMPDEST PUSH1 0x20 DUP3 LT DUP2 SUB PUSH2 0x407 JUMPI PUSH2 0x406 PUSH2 0x3B0 JUMP JUMPDEST JUMPDEST POP SWAP2 SWAP1 POP JUMP JUMPDEST PUSH0 DUP2 SWAP1 POP DUP2 PUSH0 MSTORE PUSH1 0x20 PUSH0 KECCAK256 SWAP1 POP SWAP2 SWAP1 POP JUMP JUMPDEST PUSH0 PUSH1 0x20 PUSH1 0x1F DUP4 ADD DIV SWAP1 POP SWAP2 SWAP1 POP JUMP JUMPDEST PUSH0 DUP3 DUP3 SHL SWAP1 POP SWAP3 SWAP2 POP POP JUMP JUMPDEST PUSH0 PUSH1 0x8 DUP4 MUL PUSH2 0x469 PUSH32 0xFFFFFFFFFFFFFFFFFFFFFFFFFFFFFFFFFFFFFFFFFFFFFFFFFFFFFFFFFFFFFFFF DUP3 PUSH2 0x42E JUMP JUMPDEST PUSH2 0x473 DUP7 DUP4 PUSH2 0x42E JUMP JUMPDEST SWAP6 POP DUP1 NOT DUP5 AND SWAP4 POP DUP1 DUP7 AND DUP5 OR SWAP3 POP POP POP SWAP4 SWAP3 POP POP POP JUMP JUMPDEST PUSH0 DUP2 SWAP1 POP SWAP2 SWAP1 POP JUMP JUMPDEST PUSH0 PUSH2 0x4AE PUSH2 0x4A9 PUSH2 0x4A4 DUP5 PUSH2 0xEC JUMP JUMPDEST PUSH2 0x48B JUMP JUMPDEST PUSH2 0xEC JUMP JUMPDEST SWAP1 POP SWAP2 SWAP1 POP JUMP JUMPDEST PUSH0 DUP2 SWAP1 POP SWAP2 SWAP1 POP JUMP JUMPDEST PUSH2 0x4C7 DUP4 PUSH2 0x494 JUMP JUMPDEST PUSH2 0x4DB PUSH2 0x4D3 DUP3 PUSH2 0x4B5 JUMP JUMPDEST DUP5 DUP5 SLOAD PUSH2 0x43A JUMP JUMPDEST DUP3 SSTORE POP POP POP POP JUMP JUMPDEST PUSH0 SWAP1 JUMP JUMPDEST PUSH2 0x4EF PUSH2 0x4E3 JUMP JUMPDEST PUSH2 0x4FA DUP2 DUP5 DUP5 PUSH2 0x4BE JUMP JUMPDEST POP POP POP JUMP JUMPDEST JUMPDEST DUP2 DUP2 LT ISZERO PUSH2 0x51D JUMPI PUSH2 0x512 PUSH0 DUP3 PUSH2 0x4E7 JUMP JUMPDEST PUSH1 0x1 DUP2 ADD SWAP1 POP PUSH2 0x500 JUMP JUMPDEST POP POP JUMP JUMPDEST PUSH1 0x1F DUP3 GT ISZERO PUSH2 0x562 JUMPI PUSH2 0x533 DUP2 PUSH2 0x40D JUMP JUMPDEST PUSH2 0x53C DUP5 PUSH2 0x41F JUMP JUMPDEST DUP2 ADD PUSH1 0x20 DUP6 LT ISZERO PUSH2 0x54B JUMPI DUP2 SWAP1 POP JUMPDEST PUSH2 0x55F PUSH2 0x557 DUP6 PUSH2 0x41F JUMP JUMPDEST DUP4 ADD DUP3 PUSH2 0x4FF JUMP JUMPDEST POP POP JUMPDEST POP POP POP JUMP JUMPDEST PUSH0 DUP3 DUP3 SHR SWAP1 POP SWAP3 SWAP2 POP POP JUMP JUMPDEST PUSH0 PUSH2 0x582 PUSH0 NOT DUP5 PUSH1 0x8 MUL PUSH2 0x567 JUMP JUMPDEST NOT DUP1 DUP4 AND SWAP2 POP POP SWAP3 SWAP2 POP POP JUMP JUMPDEST PUSH0 PUSH2 0x59A DUP4 DUP4 PUSH2 0x573 JUMP JUMPDEST SWAP2 POP DUP3 PUSH1 0x2 MUL DUP3 OR SWAP1 POP SWAP3 SWAP2 POP POP JUMP JUMPDEST PUSH2 0x5B3 DUP3 PUSH2 0x3A6 JUMP JUMPDEST PUSH8 0xFFFFFFFFFFFFFFFF DUP2 GT ISZERO PUSH2 0x5CC JUMPI PUSH2 0x5CB PUSH2 0x191 JUMP JUMPDEST JUMPDEST PUSH2 0x5D6 DUP3 SLOAD PUSH2 0x3DD JUMP JUMPDEST PUSH2 0x5E1 DUP3 DUP3 DUP6 PUSH2 0x521 JUMP JUMPDEST PUSH0 PUSH1 0x20 SWAP1 POP PUSH1 0x1F DUP4 GT PUSH1 0x1 DUP2 EQ PUSH2 0x612 JUMPI PUSH0 DUP5 ISZERO PUSH2 0x600 JUMPI DUP3 DUP8 ADD MLOAD SWAP1 POP JUMPDEST PUSH2 0x60A DUP6 DUP3 PUSH2 0x58F JUMP JUMPDEST DUP7 SSTORE POP PUSH2 0x671 JUMP JUMPDEST PUSH1 0x1F NOT DUP5 AND PUSH2 0x620 DUP7 PUSH2 0x40D JUMP JUMPDEST PUSH0 JUMPDEST DUP3 DUP2 LT ISZERO PUSH2 0x647 JUMPI DUP5 DUP10 ADD MLOAD DUP3 SSTORE PUSH1 0x1 DUP3 ADD SWAP2 POP PUSH1 0x20 DUP6 ADD SWAP5 POP PUSH1 0x20 DUP2 ADD SWAP1 POP PUSH2 0x622 JUMP JUMPDEST DUP7 DUP4 LT ISZERO PUSH2 0x664 JUMPI DUP5 DUP10 ADD MLOAD PUSH2 0x660 PUSH1 0x1F DUP10 AND DUP3 PUSH2 0x573 JUMP JUMPDEST DUP4 SSTORE POP JUMPDEST PUSH1 0x1 PUSH1 0x2 DUP9 MUL ADD DUP9 SSTORE POP POP POP JUMPDEST POP POP POP POP POP POP JUMP JUMPDEST PUSH2 0xDA9 DUP1 PUSH2 0x686 PUSH0 CODECOPY PUSH0 RETURN INVALID PUSH1 0x80 PUSH1 0x40 MSTORE PUSH1 0x4 CALLDATASIZE LT PUSH2 0xA6 JUMPI PUSH0 CALLDATALOAD PUSH1 0xE0 SHR DUP1 PUSH4 0x7A3A0E84 GT PUSH2 0x63 JUMPI DUP1 PUSH4 0x7A3A0E84 EQ PUSH2 0x1A6 JUMPI DUP1 PUSH4 0x8ED5B0FC EQ PUSH2 0x1D0 JUMPI DUP1 PUSH4 0x968ED600 EQ PUSH2 0x1FA JUMPI DUP1 PUSH4 0xA1211BC0 EQ PUSH2 0x224 JUMPI DUP1 PUSH4 0xCC6CB19A EQ PUSH2 0x23A JUMPI DUP1 PUSH4 0xED88C68E EQ PUSH2 0x276 JUMPI PUSH2 0xA6 JUMP JUMPDEST DUP1 PUSH4 0x6FDDE03 EQ PUSH2 0xAA JUMPI DUP1 PUSH4 0x22F3E2D4 EQ PUSH2 0xD4 JUMPI DUP1 PUSH4 0x29DCB0CF EQ PUSH2 0xFE JUMPI DUP1 PUSH4 0x38AF3EED EQ PUSH2 0x128 JUMPI DUP1 PUSH4 0x70740AAB EQ PUSH2 0x152 JUMPI DUP1 PUSH4 0x7284E416 EQ PUSH2 0x17C JUMPI JUMPDEST PUSH0 DUP1 REVERT JUMPDEST CALLVALUE DUP1 ISZERO PUSH2 0xB5 JUMPI PUSH0 DUP1 REVERT JUMPDEST POP PUSH2 0xBE PUSH2 0x280 JUMP JUMPDEST PUSH1 0x40 MLOAD PUSH2 0xCB SWAP2 SWAP1 PUSH2 0x8C3 JUMP JUMPDEST PUSH1 0x40 MLOAD DUP1 SWAP2 SUB SWAP1 RETURN JUMPDEST CALLVALUE DUP1 ISZERO PUSH2 0xDF JUMPI PUSH0 DUP1 REVERT JUMPDEST POP PUSH2 0xE8 PUSH2 0x30C JUMP JUMPDEST PUSH1 0x40 MLOAD PUSH2 0xF5 SWAP2 SWAP1 PUSH2 0x8FD JUMP JUMPDEST PUSH1 0x40 MLOAD DUP1 SWAP2 SUB SWAP1 RETURN JUMPDEST CALLVALUE DUP1 ISZERO PUSH2 0x109 JUMPI PUSH0 DUP1 REVERT JUMPDEST POP PUSH2 0x112 PUSH2 0x31E JUMP JUMPDEST PUSH1 0x40 MLOAD PUSH2 0x11F SWAP2 SWAP1 PUSH2 0x92E JUMP JUMPDEST PUSH1 0x40 MLOAD DUP1 SWAP2 SUB SWAP1 RETURN JUMPDEST CALLVALUE DUP1 ISZERO PUSH2 0x133 JUMPI PUSH0 DUP1 REVERT JUMPDEST POP PUSH2 0x13C PUSH2 0x324 JUMP JUMPDEST PUSH1 0x40 MLOAD PUSH2 0x149 SWAP2 SWAP1 PUSH2 0x986 JUMP JUMPDEST PUSH1 0x40 MLOAD DUP1 SWAP2 SUB SWAP1 RETURN JUMPDEST CALLVALUE DUP1 ISZERO PUSH2 0x15D JUMPI PUSH0 DUP1 REVERT JUMPDEST POP PUSH2 0x166 PUSH2 0x349 JUMP JUMPDEST PUSH1 0x40 MLOAD PUSH2 0x173 SWAP2 SWAP1 PUSH2 0x8C3 JUMP JUMPDEST PUSH1 0x40 MLOAD DUP1 SWAP2 SUB SWAP1 RETURN JUMPDEST CALLVALUE DUP1 ISZERO PUSH2 0x187 JUMPI PUSH0 DUP1 REVERT JUMPDEST POP PUSH2 0x190 PUSH2 0x3D5 JUMP JUMPDEST PUSH1 0x40 MLOAD PUSH2 0x19D SWAP2 SWAP1 PUSH2 0x8C3 JUMP JUMPDEST PUSH1 0x40 MLOAD DUP1 SWAP2 SUB SWAP1 RETURN JUMPDEST CALLVALUE DUP1 ISZERO PUSH2 0x1B1 JUMPI PUSH0 DUP1 REVERT JUMPDEST POP PUSH2 0x1BA PUSH2 0x461 JUMP JUMPDEST PUSH1 0x40 MLOAD PUSH2 0x1C7 SWAP2 SWAP1 PUSH2 0x92E JUMP JUMPDEST PUSH1 0x40 MLOAD DUP1 SWAP2 SUB SWAP1 RETURN JUMPDEST CALLVALUE DUP1 ISZERO PUSH2 0x1DB JUMPI PUSH0 DUP1 REVERT JUMPDEST POP PUSH2 0x1E4 PUSH2 0x467 JUMP JUMPDEST PUSH1 0x40 MLOAD PUSH2 0x1F1 SWAP2 SWAP1 PUSH2 0x92E JUMP JUMPDEST PUSH1 0x40 MLOAD DUP1 SWAP2 SUB SWAP1 RETURN JUMPDEST CALLVALUE DUP1 ISZERO PUSH2 0x205 JUMPI PUSH0 DUP1 REVERT JUMPDEST POP PUSH2 0x20E PUSH2 0x46C JUMP JUMPDEST PUSH1 0x40 MLOAD PUSH2 0x21B SWAP2 SWAP1 PUSH2 0x92E JUMP JUMPDEST PUSH1 0x40 MLOAD DUP1 SWAP2 SUB SWAP1 RETURN JUMPDEST CALLVALUE DUP1 ISZERO PUSH2 0x22F JUMPI PUSH0 DUP1 REVERT JUMPDEST POP PUSH2 0x238 PUSH2 0x472 JUMP JUMPDEST STOP JUMPDEST CALLVALUE DUP1 ISZERO PUSH2 0x245 JUMPI PUSH0 DUP1 REVERT JUMPDEST POP PUSH2 0x260 PUSH1 0x4 DUP1 CALLDATASIZE SUB DUP2 ADD SWAP1 PUSH2 0x25B SWAP2 SWAP1 PUSH2 0x9CD JUMP JUMPDEST PUSH2 0x57E JUMP JUMPDEST PUSH1 0x40 MLOAD PUSH2 0x26D SWAP2 SWAP1 PUSH2 0x92E JUMP JUMPDEST PUSH1 0x40 MLOAD DUP1 SWAP2 SUB SWAP1 RETURN JUMPDEST PUSH2 0x27E PUSH2 0x593 JUMP JUMPDEST STOP JUMPDEST PUSH1 0x2 DUP1 SLOAD PUSH2 0x28D SWAP1 PUSH2 0xA25 JUMP JUMPDEST DUP1 PUSH1 0x1F ADD PUSH1 0x20 DUP1 SWAP2 DIV MUL PUSH1 0x20 ADD PUSH1 0x40 MLOAD SWAP1 DUP2 ADD PUSH1 0x40 MSTORE DUP1 SWAP3 SWAP2 SWAP1 DUP2 DUP2 MSTORE PUSH1 0x20 ADD DUP3 DUP1 SLOAD PUSH2 0x2B9 SWAP1 PUSH2 0xA25 JUMP JUMPDEST DUP1 ISZERO PUSH2 0x304 JUMPI DUP1 PUSH1 0x1F LT PUSH2 0x2DB JUMPI PUSH2 0x100 DUP1 DUP4 SLOAD DIV MUL DUP4 MSTORE SWAP2 PUSH1 0x20 ADD SWAP2 PUSH2 0x304 JUMP JUMPDEST DUP3 ADD SWAP2 SWAP1 PUSH0 MSTORE PUSH1 0x20 PUSH0 KECCAK256 SWAP1 JUMPDEST DUP2 SLOAD DUP2 MSTORE SWAP1 PUSH1 0x1 ADD SWAP1 PUSH1 0x20 ADD DUP1 DUP4 GT PUSH2 0x2E7 JUMPI DUP3 SWAP1 SUB PUSH1 0x1F AND DUP3 ADD SWAP2 JUMPDEST POP POP POP POP POP DUP2 JUMP JUMPDEST PUSH1 0x8 PUSH0 SWAP1 SLOAD SWAP1 PUSH2 0x100 EXP SWAP1 DIV PUSH1 0xFF AND DUP2 JUMP JUMPDEST PUSH1 0x6 SLOAD DUP2 JUMP JUMPDEST PUSH1 0x1 PUSH0 SWAP1 SLOAD SWAP1 PUSH2 0x100 EXP SWAP1 DIV PUSH20 0xFFFFFFFFFFFFFFFFFFFFFFFFFFFFFFFFFFFFFFFF AND DUP2 JUMP JUMPDEST PUSH1 0x3 DUP1 SLOAD PUSH2 0x356 SWAP1 PUSH2 0xA25 JUMP JUMPDEST DUP1 PUSH1 0x1F ADD PUSH1 0x20 DUP1 SWAP2 DIV MUL PUSH1 0x20 ADD PUSH1 0x40 MLOAD SWAP1 DUP2 ADD PUSH1 0x40 MSTORE DUP1 SWAP3 SWAP2 SWAP1 DUP2 DUP2 MSTORE PUSH1 0x20 ADD DUP3 DUP1 SLOAD PUSH2 0x382 SWAP1 PUSH2 0xA25 JUMP JUMPDEST DUP1 ISZERO PUSH2 0x3CD JUMPI DUP1 PUSH1 0x1F LT PUSH2 0x3A4 JUMPI PUSH2 0x100 DUP1 DUP4 SLOAD DIV MUL DUP4 MSTORE SWAP2 PUSH1 0x20 ADD SWAP2 PUSH2 0x3CD JUMP JUMPDEST DUP3 ADD SWAP2 SWAP1 PUSH0 MSTORE PUSH1 0x20 PUSH0 KECCAK256 SWAP1 JUMPDEST DUP2 SLOAD DUP2 MSTORE SWAP1 PUSH1 0x1 ADD SWAP1 PUSH1 0x20 ADD DUP1 DUP4 GT PUSH2 0x3B0 JUMPI DUP3 SWAP1 SUB PUSH1 0x1F AND DUP3 ADD SWAP2 JUMPDEST POP POP POP POP POP DUP2 JUMP JUMPDEST PUSH1 0x4 DUP1 SLOAD PUSH2 0x3E2 SWAP1 PUSH2 0xA25 JUMP JUMPDEST DUP1 PUSH1 0x1F ADD PUSH1 0x20 DUP1 SWAP2 DIV MUL PUSH1 0x20 ADD PUSH1 0x40 MLOAD SWAP1 DUP2 ADD PUSH1 0x40 MSTORE DUP1 SWAP3 SWAP2 SWAP1 DUP2 DUP2 MSTORE PUSH1 0x20 ADD DUP3 DUP1 SLOAD PUSH2 0x40E SWAP1 PUSH2 0xA25 JUMP JUMPDEST DUP1 ISZERO PUSH2 0x459 JUMPI DUP1 PUSH1 0x1F LT PUSH2 0x430 JUMPI PUSH2 0x100 DUP1 DUP4 SLOAD DIV MUL DUP4 MSTORE SWAP2 PUSH1 0x20 ADD SWAP2 PUSH2 0x459 JUMP JUMPDEST DUP3 ADD SWAP2 SWAP1 PUSH0 MSTORE PUSH1 0x20 PUSH0 KECCAK256 SWAP1 JUMPDEST DUP2 SLOAD DUP2 MSTORE SWAP1 PUSH1 0x1 ADD SWAP1 PUSH1 0x20 ADD DUP1 DUP4 GT PUSH2 0x43C JUMPI DUP3 SWAP1 SUB PUSH1 0x1F AND DUP3 ADD SWAP2 JUMPDEST POP POP POP POP POP DUP2 JUMP JUMPDEST PUSH1 0x5 SLOAD DUP2 JUMP JUMPDEST PUSH0 SLOAD DUP2 JUMP JUMPDEST PUSH1 0x7 SLOAD DUP2 JUMP JUMPDEST PUSH1 0x6 SLOAD TIMESTAMP GT ISZERO PUSH2 0x4B7 JUMPI PUSH1 0x40 MLOAD PUSH32 0x8C379A000000000000000000000000000000000000000000000000000000000 DUP2 MSTORE PUSH1 0x4 ADD PUSH2 0x4AE SWAP1 PUSH2 0xAC5 JUMP JUMPDEST PUSH1 0x40 MLOAD DUP1 SWAP2 SUB SWAP1 REVERT JUMPDEST PUSH1 0x8 PUSH0 SWAP1 SLOAD SWAP1 PUSH2 0x100 EXP SWAP1 DIV PUSH1 0xFF AND PUSH2 0x505 JUMPI PUSH1 0x40 MLOAD PUSH32 0x8C379A000000000000000000000000000000000000000000000000000000000 DUP2 MSTORE PUSH1 0x4 ADD PUSH2 0x4FC SWAP1 PUSH2 0xB2D JUMP JUMPDEST PUSH1 0x40 MLOAD DUP1 SWAP2 SUB SWAP1 REVERT JUMPDEST PUSH1 0x6 SLOAD TIMESTAMP GT PUSH2 0x549 JUMPI PUSH1 0x40 MLOAD PUSH32 0x8C379A000000000000000000000000000000000000000000000000000000000 DUP2 MSTORE PUSH1 0x4 ADD PUSH2 0x540 SWAP1 PUSH2 0xBBB JUMP JUMPDEST PUSH1 0x40 MLOAD DUP1 SWAP2 SUB SWAP1 REVERT JUMPDEST PUSH0 PUSH1 0x8 PUSH0 PUSH2 0x100 EXP DUP2 SLOAD DUP2 PUSH1 0xFF MUL NOT AND SWAP1 DUP4 ISZERO ISZERO MUL OR SWAP1 SSTORE POP PUSH1 0x5 SLOAD PUSH1 0x7 SLOAD GT ISZERO PUSH2 0x57B JUMPI PUSH2 0x576 PUSH2 0x6EC JUMP JUMPDEST PUSH2 0x57C JUMP JUMPDEST JUMPDEST JUMP JUMPDEST PUSH1 0x9 PUSH1 0x20 MSTORE DUP1 PUSH0 MSTORE PUSH1 0x40 PUSH0 KECCAK256 PUSH0 SWAP2 POP SWAP1 POP SLOAD DUP2 JUMP JUMPDEST PUSH1 0x6 SLOAD TIMESTAMP GT ISZERO PUSH2 0x5D8 JUMPI PUSH1 0x40 MLOAD PUSH32 0x8C379A000000000000000000000000000000000000000000000000000000000 DUP2 MSTORE PUSH1 0x4 ADD PUSH2 0x5CF SWAP1 PUSH2 0xAC5 JUMP JUMPDEST PUSH1 0x40 MLOAD DUP1 SWAP2 SUB SWAP1 REVERT JUMPDEST PUSH1 0x8 PUSH0 SWAP1 SLOAD SWAP1 PUSH2 0x100 EXP SWAP1 DIV PUSH1 0xFF AND PUSH2 0x626 JUMPI PUSH1 0x40 MLOAD PUSH32 0x8C379A000000000000000000000000000000000000000000000000000000000 DUP2 MSTORE PUSH1 0x4 ADD PUSH2 0x61D SWAP1 PUSH2 0xB2D JUMP JUMPDEST PUSH1 0x40 MLOAD DUP1 SWAP2 SUB SWAP1 REVERT JUMPDEST PUSH0 CALLER SWAP1 POP PUSH0 CALLVALUE SWAP1 POP DUP1 PUSH1 0x9 PUSH0 DUP5 PUSH20 0xFFFFFFFFFFFFFFFFFFFFFFFFFFFFFFFFFFFFFFFF AND PUSH20 0xFFFFFFFFFFFFFFFFFFFFFFFFFFFFFFFFFFFFFFFF AND DUP2 MSTORE PUSH1 0x20 ADD SWAP1 DUP2 MSTORE PUSH1 0x20 ADD PUSH0 KECCAK256 PUSH0 DUP3 DUP3 SLOAD PUSH2 0x67A SWAP2 SWAP1 PUSH2 0xC06 JUMP JUMPDEST SWAP3 POP POP DUP2 SWAP1 SSTORE POP DUP1 PUSH1 0x7 PUSH0 DUP3 DUP3 SLOAD PUSH2 0x692 SWAP2 SWAP1 PUSH2 0xC06 JUMP JUMPDEST SWAP3 POP POP DUP2 SWAP1 SSTORE POP PUSH32 0xD97BCDF12FA1D5342FC942DA5EADF35C7597F34F8DA7274C2B0D2AD979842679 DUP3 DUP3 TIMESTAMP PUSH1 0x40 MLOAD PUSH2 0x6CC SWAP4 SWAP3 SWAP2 SWAP1 PUSH2 0xC39 JUMP JUMPDEST PUSH1 0x40 MLOAD DUP1 SWAP2 SUB SWAP1 LOG1 PUSH1 0x5 SLOAD PUSH1 0x7 SLOAD LT PUSH2 0x6E8 JUMPI PUSH2 0x6E7 PUSH2 0x6EC JUMP JUMPDEST JUMPDEST POP POP JUMP JUMPDEST PUSH0 PUSH1 0x8 PUSH0 PUSH2 0x100 EXP DUP2 SLOAD DUP2 PUSH1 0xFF MUL NOT AND SWAP1 DUP4 ISZERO ISZERO MUL OR SWAP1 SSTORE POP PUSH0 PUSH1 0x7 DUP2 SWAP1 SSTORE POP PUSH0 PUSH1 0x1 PUSH0 SWAP1 SLOAD SWAP1 PUSH2 0x100 EXP SWAP1 DIV PUSH20 0xFFFFFFFFFFFFFFFFFFFFFFFFFFFFFFFFFFFFFFFF AND PUSH20 0xFFFFFFFFFFFFFFFFFFFFFFFFFFFFFFFFFFFFFFFF AND PUSH1 0x7 SLOAD PUSH1 0x40 MLOAD PUSH2 0x754 SWAP1 PUSH2 0xC9B JUMP JUMPDEST PUSH0 PUSH1 0x40 MLOAD DUP1 DUP4 SUB DUP2 DUP6 DUP8 GAS CALL SWAP3 POP POP POP RETURNDATASIZE DUP1 PUSH0 DUP2 EQ PUSH2 0x78E JUMPI PUSH1 0x40 MLOAD SWAP2 POP PUSH1 0x1F NOT PUSH1 0x3F RETURNDATASIZE ADD AND DUP3 ADD PUSH1 0x40 MSTORE RETURNDATASIZE DUP3 MSTORE RETURNDATASIZE PUSH0 PUSH1 0x20 DUP5 ADD RETURNDATACOPY PUSH2 0x793 JUMP JUMPDEST PUSH1 0x60 SWAP2 POP JUMPDEST POP POP SWAP1 POP DUP1 PUSH2 0x7D7 JUMPI PUSH1 0x40 MLOAD PUSH32 0x8C379A000000000000000000000000000000000000000000000000000000000 DUP2 MSTORE PUSH1 0x4 ADD PUSH2 0x7CE SWAP1 PUSH2 0xCF9 JUMP JUMPDEST PUSH1 0x40 MLOAD DUP1 SWAP2 SUB SWAP1 REVERT JUMPDEST PUSH32 0xD66662C0DED9E58FD31D5E44944BCFD07FFC15E6927ECC1382E7941CB7BD24C4 PUSH1 0x7 SLOAD TIMESTAMP PUSH1 0x40 MLOAD PUSH2 0x80A SWAP3 SWAP2 SWAP1 PUSH2 0xD17 JUMP JUMPDEST PUSH1 0x40 MLOAD DUP1 SWAP2 SUB SWAP1 LOG1 PUSH32 0xFF1ED4AE8ADD74FA56C8D588BD1877949F03579B6EC0057A6CBC5EA1EE0DC000 PUSH1 0x1 PUSH1 0x7 SLOAD TIMESTAMP PUSH1 0x40 MLOAD PUSH2 0x848 SWAP4 SWAP3 SWAP2 SWAP1 PUSH2 0xD3E JUMP JUMPDEST PUSH1 0x40 MLOAD DUP1 SWAP2 SUB SWAP1 LOG1 POP JUMP JUMPDEST PUSH0 DUP2 MLOAD SWAP1 POP SWAP2 SWAP1 POP JUMP JUMPDEST PUSH0 DUP3 DUP3 MSTORE PUSH1 0x20 DUP3 ADD SWAP1 POP SWAP3 SWAP2 POP POP JUMP JUMPDEST DUP3 DUP2 DUP4 MCOPY PUSH0 DUP4 DUP4 ADD MSTORE POP POP POP JUMP JUMPDEST PUSH0 PUSH1 0x1F NOT PUSH1 0x1F DUP4 ADD AND SWAP1 POP SWAP2 SWAP1 POP JUMP JUMPDEST PUSH0 PUSH2 0x895 DUP3 PUSH2 0x853 JUMP JUMPDEST PUSH2 0x89F DUP2 DUP6 PUSH2 0x85D JUMP JUMPDEST SWAP4 POP PUSH2 0x8AF DUP2 DUP6 PUSH1 0x20 DUP7 ADD PUSH2 0x86D JUMP JUMPDEST PUSH2 0x8B8 DUP2 PUSH2 0x87B JUMP JUMPDEST DUP5 ADD SWAP2 POP POP SWAP3 SWAP2 POP POP JUMP JUMPDEST PUSH0 PUSH1 0x20 DUP3 ADD SWAP1 POP DUP2 DUP2 SUB PUSH0 DUP4 ADD MSTORE PUSH2 0x8DB DUP2 DUP5 PUSH2 0x88B JUMP JUMPDEST SWAP1 POP SWAP3 SWAP2 POP POP JUMP JUMPDEST PUSH0 DUP2 ISZERO ISZERO SWAP1 POP SWAP2 SWAP1 POP JUMP JUMPDEST PUSH2 0x8F7 DUP2 PUSH2 0x8E3 JUMP JUMPDEST DUP3 MSTORE POP POP JUMP JUMPDEST PUSH0 PUSH1 0x20 DUP3 ADD SWAP1 POP PUSH2 0x910 PUSH0 DUP4 ADD DUP5 PUSH2 0x8EE JUMP JUMPDEST SWAP3 SWAP2 POP POP JUMP JUMPDEST PUSH0 DUP2 SWAP1 POP SWAP2 SWAP1 POP JUMP JUMPDEST PUSH2 0x928 DUP2 PUSH2 0x916 JUMP JUMPDEST DUP3 MSTORE POP POP JUMP JUMPDEST PUSH0 PUSH1 0x20 DUP3 ADD SWAP1 POP PUSH2 0x941 PUSH0 DUP4 ADD DUP5 PUSH2 0x91F JUMP JUMPDEST SWAP3 SWAP2 POP POP JUMP JUMPDEST PUSH0 PUSH20 0xFFFFFFFFFFFFFFFFFFFFFFFFFFFFFFFFFFFFFFFF DUP3 AND SWAP1 POP SWAP2 SWAP1 POP JUMP JUMPDEST PUSH0 PUSH2 0x970 DUP3 PUSH2 0x947 JUMP JUMPDEST SWAP1 POP SWAP2 SWAP1 POP JUMP JUMPDEST PUSH2 0x980 DUP2 PUSH2 0x966 JUMP JUMPDEST DUP3 MSTORE POP POP JUMP JUMPDEST PUSH0 PUSH1 0x20 DUP3 ADD SWAP1 POP PUSH2 0x999 PUSH0 DUP4 ADD DUP5 PUSH2 0x977 JUMP JUMPDEST SWAP3 SWAP2 POP POP JUMP JUMPDEST PUSH0 DUP1 REVERT JUMPDEST PUSH2 0x9AC DUP2 PUSH2 0x966 JUMP JUMPDEST DUP2 EQ PUSH2 0x9B6 JUMPI PUSH0 DUP1 REVERT JUMPDEST POP JUMP JUMPDEST PUSH0 DUP2 CALLDATALOAD SWAP1 POP PUSH2 0x9C7 DUP2 PUSH2 0x9A3 JUMP JUMPDEST SWAP3 SWAP2 POP POP JUMP JUMPDEST PUSH0 PUSH1 0x20 DUP3 DUP5 SUB SLT ISZERO PUSH2 0x9E2 JUMPI PUSH2 0x9E1 PUSH2 0x99F JUMP JUMPDEST JUMPDEST PUSH0 PUSH2 0x9EF DUP5 DUP3 DUP6 ADD PUSH2 0x9B9 JUMP JUMPDEST SWAP2 POP POP SWAP3 SWAP2 POP POP JUMP JUMPDEST PUSH32 0x4E487B7100000000000000000000000000000000000000000000000000000000 PUSH0 MSTORE PUSH1 0x22 PUSH1 0x4 MSTORE PUSH1 0x24 PUSH0 REVERT JUMPDEST PUSH0 PUSH1 0x2 DUP3 DIV SWAP1 POP PUSH1 0x1 DUP3 AND DUP1 PUSH2 0xA3C JUMPI PUSH1 0x7F DUP3 AND SWAP2 POP JUMPDEST PUSH1 0x20 DUP3 LT DUP2 SUB PUSH2 0xA4F JUMPI PUSH2 0xA4E PUSH2 0x9F8 JUMP JUMPDEST JUMPDEST POP SWAP2 SWAP1 POP JUMP JUMPDEST PUSH32 0x5468652043616D617069676E277320646561646C696E65206861732070617373 PUSH0 DUP3 ADD MSTORE PUSH32 0x6564210000000000000000000000000000000000000000000000000000000000 PUSH1 0x20 DUP3 ADD MSTORE POP JUMP JUMPDEST PUSH0 PUSH2 0xAAF PUSH1 0x23 DUP4 PUSH2 0x85D JUMP JUMPDEST SWAP2 POP PUSH2 0xABA DUP3 PUSH2 0xA55 JUMP JUMPDEST PUSH1 0x40 DUP3 ADD SWAP1 POP SWAP2 SWAP1 POP JUMP JUMPDEST PUSH0 PUSH1 0x20 DUP3 ADD SWAP1 POP DUP2 DUP2 SUB PUSH0 DUP4 ADD MSTORE PUSH2 0xADC DUP2 PUSH2 0xAA3 JUMP JUMPDEST SWAP1 POP SWAP2 SWAP1 POP JUMP JUMPDEST PUSH32 0x5468652043616D706169676E206973206E6F7420616374697665210000000000 PUSH0 DUP3 ADD MSTORE POP JUMP JUMPDEST PUSH0 PUSH2 0xB17 PUSH1 0x1B DUP4 PUSH2 0x85D JUMP JUMPDEST SWAP2 POP PUSH2 0xB22 DUP3 PUSH2 0xAE3 JUMP JUMPDEST PUSH1 0x20 DUP3 ADD SWAP1 POP SWAP2 SWAP1 POP JUMP JUMPDEST PUSH0 PUSH1 0x20 DUP3 ADD SWAP1 POP DUP2 DUP2 SUB PUSH0 DUP4 ADD MSTORE PUSH2 0xB44 DUP2 PUSH2 0xB0B JUMP JUMPDEST SWAP1 POP SWAP2 SWAP1 POP JUMP JUMPDEST PUSH32 0x5468652043616D617069676E277320646561646C696E6520686173206E6F7420 PUSH0 DUP3 ADD MSTORE PUSH32 0x7061737365642100000000000000000000000000000000000000000000000000 PUSH1 0x20 DUP3 ADD MSTORE POP JUMP JUMPDEST PUSH0 PUSH2 0xBA5 PUSH1 0x27 DUP4 PUSH2 0x85D JUMP JUMPDEST SWAP2 POP PUSH2 0xBB0 DUP3 PUSH2 0xB4B JUMP JUMPDEST PUSH1 0x40 DUP3 ADD SWAP1 POP SWAP2 SWAP1 POP JUMP JUMPDEST PUSH0 PUSH1 0x20 DUP3 ADD SWAP1 POP DUP2 DUP2 SUB PUSH0 DUP4 ADD MSTORE PUSH2 0xBD2 DUP2 PUSH2 0xB99 JUMP JUMPDEST SWAP1 POP SWAP2 SWAP1 POP JUMP JUMPDEST PUSH32 0x4E487B7100000000000000000000000000000000000000000000000000000000 PUSH0 MSTORE PUSH1 0x11 PUSH1 0x4 MSTORE PUSH1 0x24 PUSH0 REVERT JUMPDEST PUSH0 PUSH2 0xC10 DUP3 PUSH2 0x916 JUMP JUMPDEST SWAP2 POP PUSH2 0xC1B DUP4 PUSH2 0x916 JUMP JUMPDEST SWAP3 POP DUP3 DUP3 ADD SWAP1 POP DUP1 DUP3 GT ISZERO PUSH2 0xC33 JUMPI PUSH2 0xC32 PUSH2 0xBD9 JUMP JUMPDEST JUMPDEST SWAP3 SWAP2 POP POP JUMP JUMPDEST PUSH0 PUSH1 0x60 DUP3 ADD SWAP1 POP PUSH2 0xC4C PUSH0 DUP4 ADD DUP7 PUSH2 0x977 JUMP JUMPDEST PUSH2 0xC59 PUSH1 0x20 DUP4 ADD DUP6 PUSH2 0x91F JUMP JUMPDEST PUSH2 0xC66 PUSH1 0x40 DUP4 ADD DUP5 PUSH2 0x91F JUMP JUMPDEST SWAP5 SWAP4 POP POP POP POP JUMP JUMPDEST PUSH0 DUP2 SWAP1 POP SWAP3 SWAP2 POP POP JUMP JUMPDEST POP JUMP JUMPDEST PUSH0 PUSH2 0xC86 PUSH0 DUP4 PUSH2 0xC6E JUMP JUMPDEST SWAP2 POP PUSH2 0xC91 DUP3 PUSH2 0xC78 JUMP JUMPDEST PUSH0 DUP3 ADD SWAP1 POP SWAP2 SWAP1 POP JUMP JUMPDEST PUSH0 PUSH2 0xCA5 DUP3 PUSH2 0xC7B JUMP JUMPDEST SWAP2 POP DUP2 SWAP1 POP SWAP2 SWAP1 POP JUMP JUMPDEST PUSH32 0x556E61626C6520746F2072656C656173652066756E6473210000000000000000 PUSH0 DUP3 ADD MSTORE POP JUMP JUMPDEST PUSH0 PUSH2 0xCE3 PUSH1 0x18 DUP4 PUSH2 0x85D JUMP JUMPDEST SWAP2 POP PUSH2 0xCEE DUP3 PUSH2 0xCAF JUMP JUMPDEST PUSH1 0x20 DUP3 ADD SWAP1 POP SWAP2 SWAP1 POP JUMP JUMPDEST PUSH0 PUSH1 0x20 DUP3 ADD SWAP1 POP DUP2 DUP2 SUB PUSH0 DUP4 ADD MSTORE PUSH2 0xD10 DUP2 PUSH2 0xCD7 JUMP JUMPDEST SWAP1 POP SWAP2 SWAP1 POP JUMP JUMPDEST PUSH0 PUSH1 0x40 DUP3 ADD SWAP1 POP PUSH2 0xD2A PUSH0 DUP4 ADD DUP6 PUSH2 0x91F JUMP JUMPDEST PUSH2 0xD37 PUSH1 0x20 DUP4 ADD DUP5 PUSH2 0x91F JUMP JUMPDEST SWAP4 SWAP3 POP POP POP JUMP JUMPDEST PUSH0 PUSH1 0x60 DUP3 ADD SWAP1 POP PUSH2 0xD51 PUSH0 DUP4 ADD DUP7 PUSH2 0x8EE JUMP JUMPDEST PUSH2 0xD5E PUSH1 0x20 DUP4 ADD DUP6 PUSH2 0x91F JUMP JUMPDEST PUSH2 0xD6B PUSH1 0x40 DUP4 ADD DUP5 PUSH2 0x91F JUMP JUMPDEST SWAP5 SWAP4 POP POP POP POP JUMP INVALID LOG2 PUSH5 0x6970667358 0x22 SLT KECCAK256 0xDE MOD DUP3 REVERT 0xE 0xE1 KECCAK256 SELFBALANCE 0xD4 0xB6 MLOAD 0xC8 0xB5 SWAP16 AND 0xF8 0xDF PUSH18 0x37EB5CFFAF7BB0808683D0CF2CD964736F6C PUSH4 0x4300081A STOP CALLER "
				},
				"gasEstimates": {
					"creation": {
						"codeDepositCost": "699400",
						"executionCost": "infinite",
						"totalCost": "infinite"
					},
					"external": {
						"beneficiary()": "2575",
						"campaignId()": "2446",
						"deadline()": "2470",
						"description()": "infinite",
						"donate()": "infinite",
						"donations(address)": "2890",
						"finalizeCampaign()": "infinite",
						"fundingGoal()": "2425",
						"isActive()": "2489",
						"name()": "infinite",
						"purpose()": "infinite",
						"totalFunds()": "2469"
					},
					"internal": {
						"refund(address)": "infinite",
						"releaseFunds()": "infinite"
					}
				},
				"methodIdentifiers": {
					"beneficiary()": "38af3eed",
					"campaignId()": "8ed5b0fc",
					"deadline()": "29dcb0cf",
					"description()": "7284e416",
					"donate()": "ed88c68e",
					"donations(address)": "cc6cb19a",
					"finalizeCampaign()": "a1211bc0",
					"fundingGoal()": "7a3a0e84",
					"isActive()": "22f3e2d4",
					"name()": "06fdde03",
					"purpose()": "70740aab",
					"totalFunds()": "968ed600"
				}
			},
			"storageLayout": {
				"storage": [
					{
						"astId": 3,
						"contract": "backend/contracts/Campaign.sol:Campaign",
						"label": "campaignId",
						"offset": 0,
						"slot": "0",
						"type": "t_uint256"
					},
					{
						"astId": 5,
						"contract": "backend/contracts/Campaign.sol:Campaign",
						"label": "beneficiary",
						"offset": 0,
						"slot": "1",
						"type": "t_address"
					},
					{
						"astId": 7,
						"contract": "backend/contracts/Campaign.sol:Campaign",
						"label": "name",
						"offset": 0,
						"slot": "2",
						"type": "t_string_storage"
					},
					{
						"astId": 9,
						"contract": "backend/contracts/Campaign.sol:Campaign",
						"label": "purpose",
						"offset": 0,
						"slot": "3",
						"type": "t_string_storage"
					},
					{
						"astId": 11,
						"contract": "backend/contracts/Campaign.sol:Campaign",
						"label": "description",
						"offset": 0,
						"slot": "4",
						"type": "t_string_storage"
					},
					{
						"astId": 13,
						"contract": "backend/contracts/Campaign.sol:Campaign",
						"label": "fundingGoal",
						"offset": 0,
						"slot": "5",
						"type": "t_uint256"
					},
					{
						"astId": 15,
						"contract": "backend/contracts/Campaign.sol:Campaign",
						"label": "deadline",
						"offset": 0,
						"slot": "6",
						"type": "t_uint256"
					},
					{
						"astId": 17,
						"contract": "backend/contracts/Campaign.sol:Campaign",
						"label": "totalFunds",
						"offset": 0,
						"slot": "7",
						"type": "t_uint256"
					},
					{
						"astId": 19,
						"contract": "backend/contracts/Campaign.sol:Campaign",
						"label": "isActive",
						"offset": 0,
						"slot": "8",
						"type": "t_bool"
					},
					{
						"astId": 23,
						"contract": "backend/contracts/Campaign.sol:Campaign",
						"label": "donations",
						"offset": 0,
						"slot": "9",
						"type": "t_mapping(t_address,t_uint256)"
					}
				],
				"types": {
					"t_address": {
						"encoding": "inplace",
						"label": "address",
						"numberOfBytes": "20"
					},
					"t_bool": {
						"encoding": "inplace",
						"label": "bool",
						"numberOfBytes": "1"
					},
					"t_mapping(t_address,t_uint256)": {
						"encoding": "mapping",
						"key": "t_address",
						"label": "mapping(address => uint256)",
						"numberOfBytes": "32",
						"value": "t_uint256"
					},
					"t_string_storage": {
						"encoding": "bytes",
						"label": "string",
						"numberOfBytes": "32"
					},
					"t_uint256": {
						"encoding": "inplace",
						"label": "uint256",
						"numberOfBytes": "32"
					}
				}
			},
			"userdoc": {
				"kind": "user",
				"methods": {},
				"version": 1
			}
		}
	}
}