{
	"backend/contracts/Campaign.sol": {
		"Campaign": {
			"abi": [
				{
					"inputs": [
						{
							"internalType": "address",
							"name": "_beneficiary",
							"type": "address"
						},
						{
							"internalType": "string",
							"name": "_name",
							"type": "string"
						},
						{
							"internalType": "string",
							"name": "_description",
							"type": "string"
						},
						{
							"internalType": "uint32",
							"name": "_fundingGoal",
							"type": "uint32"
						},
						{
							"internalType": "uint256",
							"name": "_deadline",
							"type": "uint256"
						}
					],
					"stateMutability": "nonpayable",
					"type": "constructor"
				},
				{
					"anonymous": false,
					"inputs": [
						{
							"indexed": true,
							"internalType": "address",
							"name": "campaignAddress",
							"type": "address"
						},
						{
							"indexed": false,
							"internalType": "bool",
							"name": "success",
							"type": "bool"
						},
						{
							"indexed": false,
							"internalType": "uint32",
							"name": "totalFunds",
							"type": "uint32"
						}
					],
					"name": "CampaignFinalized",
					"type": "event"
				},
				{
					"anonymous": false,
					"inputs": [
						{
							"indexed": true,
							"internalType": "address",
							"name": "donor",
							"type": "address"
						},
						{
							"indexed": false,
							"internalType": "uint32",
							"name": "amount",
							"type": "uint32"
						}
					],
					"name": "DonationMade",
					"type": "event"
				},
				{
					"anonymous": false,
					"inputs": [
						{
							"indexed": true,
							"internalType": "address",
							"name": "beneficiary",
							"type": "address"
						},
						{
							"indexed": false,
							"internalType": "uint32",
							"name": "amount",
							"type": "uint32"
						}
					],
					"name": "FundsWithdrawn",
					"type": "event"
				},
				{
					"anonymous": false,
					"inputs": [
						{
							"indexed": true,
							"internalType": "address",
							"name": "donor",
							"type": "address"
						},
						{
							"indexed": false,
							"internalType": "uint32",
							"name": "amount",
							"type": "uint32"
						}
					],
					"name": "RefundIssued",
					"type": "event"
				},
				{
					"inputs": [],
					"name": "beneficiary",
					"outputs": [
						{
							"internalType": "address",
							"name": "",
							"type": "address"
						}
					],
					"stateMutability": "view",
					"type": "function"
				},
				{
					"inputs": [],
					"name": "deadline",
					"outputs": [
						{
							"internalType": "uint256",
							"name": "",
							"type": "uint256"
						}
					],
					"stateMutability": "view",
					"type": "function"
				},
				{
					"inputs": [],
					"name": "description",
					"outputs": [
						{
							"internalType": "string",
							"name": "",
							"type": "string"
						}
					],
					"stateMutability": "view",
					"type": "function"
				},
				{
					"inputs": [],
					"name": "donate",
					"outputs": [],
					"stateMutability": "payable",
					"type": "function"
				},
				{
					"inputs": [
						{
							"internalType": "address",
							"name": "",
							"type": "address"
						}
					],
					"name": "donations",
					"outputs": [
						{
							"internalType": "uint32",
							"name": "",
							"type": "uint32"
						}
					],
					"stateMutability": "view",
					"type": "function"
				},
				{
					"inputs": [],
					"name": "finalizeCampaign",
					"outputs": [],
					"stateMutability": "nonpayable",
					"type": "function"
				},
				{
					"inputs": [],
					"name": "fundingGoal",
					"outputs": [
						{
							"internalType": "uint32",
							"name": "",
							"type": "uint32"
						}
					],
					"stateMutability": "view",
					"type": "function"
				},
				{
					"inputs": [],
					"name": "isActive",
					"outputs": [
						{
							"internalType": "bool",
							"name": "",
							"type": "bool"
						}
					],
					"stateMutability": "view",
					"type": "function"
				},
				{
					"inputs": [],
					"name": "name",
					"outputs": [
						{
							"internalType": "string",
							"name": "",
							"type": "string"
						}
					],
					"stateMutability": "view",
					"type": "function"
				},
				{
					"inputs": [],
					"name": "totalFunds",
					"outputs": [
						{
							"internalType": "uint32",
							"name": "",
							"type": "uint32"
						}
					],
					"stateMutability": "view",
					"type": "function"
				}
			],
			"devdoc": {
				"details": "The smart contract for the created Campaign. It handles everything related to a specific Campaign that has been deployed",
				"kind": "dev",
				"methods": {
					"constructor": {
						"details": "Creates the Campaign smart contract",
						"params": {
							"_beneficiary": "The wallet address of the beneficiary that is creating this Campaign",
							"_deadline": "Timestamp of when the Campaign should be fully funded before it becomes inactive",
							"_description": "The description of this Campaign",
							"_fundingGoal": "Funding Goal for the Campaign in cryptocurrency (SepoliaETH)"
						}
					},
					"donate()": {
						"details": "Allows donors to donate to the Campaign"
					},
					"finalizeCampaign()": {
						"details": "Called when the Campaign's deadline has passed, and also handles the refund to all donors if the fundingGoal is not met by thenLikely needs to be called from the frontend"
					}
				},
				"title": "Campaign",
				"version": 1
			},
			"evm": {
				"assembly": "    /* \"backend/contracts/Campaign.sol\":227:5255  contract Campaign {... */\n  mstore(0x40, 0xe0)\n    /* \"backend/contracts/Campaign.sol\":1140:1539  constructor(... */\n  callvalue\n  dup1\n  iszero\n  tag_1\n  jumpi\n  0x00\n  dup1\n  revert\ntag_1:\n  pop\n  mload(0x40)\n  sub(codesize, bytecodeSize)\n  dup1\n  bytecodeSize\n  dup4\n  codecopy\n  dup2\n  add\n  0x40\n  dup2\n  swap1\n  mstore\n  tag_2\n  swap2\n  tag_3\n  jump\t// in\ntag_2:\n  sub(shl(0xa0, 0x01), 0x01)\n    /* \"backend/contracts/Campaign.sol\":1316:1342  beneficiary = _beneficiary */\n  dup6\n  and\n  0x80\n  mstore\n    /* \"backend/contracts/Campaign.sol\":1352:1356  name */\n  0x00\n    /* \"backend/contracts/Campaign.sol\":1352:1364  name = _name */\n  tag_6\n    /* \"backend/contracts/Campaign.sol\":1359:1364  _name */\n  dup6\n    /* \"backend/contracts/Campaign.sol\":1352:1356  name */\n  dup3\n    /* \"backend/contracts/Campaign.sol\":1352:1364  name = _name */\n  tag_7\n  jump\t// in\ntag_6:\n  pop\n    /* \"backend/contracts/Campaign.sol\":1374:1385  description */\n  0x01\n    /* \"backend/contracts/Campaign.sol\":1374:1400  description = _description */\n  tag_8\n    /* \"backend/contracts/Campaign.sol\":1388:1400  _description */\n  dup5\n    /* \"backend/contracts/Campaign.sol\":1374:1385  description */\n  dup3\n    /* \"backend/contracts/Campaign.sol\":1374:1400  description = _description */\n  tag_7\n  jump\t// in\ntag_8:\n  pop\n    /* \"backend/contracts/Campaign.sol\":1410:1436  fundingGoal = _fundingGoal */\n  0xffffffff\n  swap1\n  swap2\n  and\n  0xc0\n  mstore\n    /* \"backend/contracts/Campaign.sol\":1446:1466  deadline = _deadline */\n  0xa0\n  mstore\n  pop\n  pop\n    /* \"backend/contracts/Campaign.sol\":1476:1484  isActive */\n  0x02\n    /* \"backend/contracts/Campaign.sol\":1476:1491  isActive = true */\n  dup1\n  sload\n  not(shl(0x20, 0xff))\n  and\n  0x0100000000\n  or\n  swap1\n  sstore\n  pop\n    /* \"backend/contracts/Campaign.sol\":227:5255  contract Campaign {... */\n  jump(tag_16)\n    /* \"#utility.yul\":14:141   */\ntag_10:\n    /* \"#utility.yul\":75:85   */\n  0x4e487b71\n    /* \"#utility.yul\":70:73   */\n  0xe0\n    /* \"#utility.yul\":66:86   */\n  shl\n    /* \"#utility.yul\":63:64   */\n  0x00\n    /* \"#utility.yul\":56:87   */\n  mstore\n    /* \"#utility.yul\":106:110   */\n  0x41\n    /* \"#utility.yul\":103:104   */\n  0x04\n    /* \"#utility.yul\":96:111   */\n  mstore\n    /* \"#utility.yul\":130:134   */\n  0x24\n    /* \"#utility.yul\":127:128   */\n  0x00\n    /* \"#utility.yul\":120:135   */\n  revert\n    /* \"#utility.yul\":146:869   */\ntag_11:\n    /* \"#utility.yul\":200:205   */\n  0x00\n    /* \"#utility.yul\":253:256   */\n  dup3\n    /* \"#utility.yul\":246:250   */\n  0x1f\n    /* \"#utility.yul\":238:244   */\n  dup4\n    /* \"#utility.yul\":234:251   */\n  add\n    /* \"#utility.yul\":230:257   */\n  slt\n    /* \"#utility.yul\":220:275   */\n  tag_19\n  jumpi\n    /* \"#utility.yul\":271:272   */\n  0x00\n    /* \"#utility.yul\":268:269   */\n  dup1\n    /* \"#utility.yul\":261:273   */\n  revert\n    /* \"#utility.yul\":220:275   */\ntag_19:\n    /* \"#utility.yul\":298:311   */\n  dup2\n  mload\n  sub(shl(0x40, 0x01), 0x01)\n    /* \"#utility.yul\":323:353   */\n  dup2\n  gt\n    /* \"#utility.yul\":320:376   */\n  iszero\n  tag_21\n  jumpi\n    /* \"#utility.yul\":356:374   */\n  tag_21\n  tag_10\n  jump\t// in\ntag_21:\n    /* \"#utility.yul\":405:407   */\n  0x40\n    /* \"#utility.yul\":399:408   */\n  mload\n    /* \"#utility.yul\":497:499   */\n  0x1f\n    /* \"#utility.yul\":459:476   */\n  dup3\n  add\n  not(0x1f)\n    /* \"#utility.yul\":455:486   */\n  swap1\n  dup2\n  and\n    /* \"#utility.yul\":488:490   */\n  0x3f\n    /* \"#utility.yul\":451:491   */\n  add\n    /* \"#utility.yul\":447:501   */\n  and\n    /* \"#utility.yul\":435:502   */\n  dup2\n  add\n  sub(shl(0x40, 0x01), 0x01)\n    /* \"#utility.yul\":517:551   */\n  dup2\n  gt\n    /* \"#utility.yul\":553:575   */\n  dup3\n  dup3\n  lt\n    /* \"#utility.yul\":514:576   */\n  or\n    /* \"#utility.yul\":511:599   */\n  iszero\n  tag_23\n  jumpi\n    /* \"#utility.yul\":579:597   */\n  tag_23\n  tag_10\n  jump\t// in\ntag_23:\n    /* \"#utility.yul\":615:617   */\n  0x40\n    /* \"#utility.yul\":608:630   */\n  mstore\n    /* \"#utility.yul\":639:661   */\n  dup2\n  dup2\n  mstore\n    /* \"#utility.yul\":680:699   */\n  dup4\n  dup3\n  add\n    /* \"#utility.yul\":701:705   */\n  0x20\n    /* \"#utility.yul\":676:706   */\n  add\n    /* \"#utility.yul\":673:712   */\n  dup6\n  lt\n    /* \"#utility.yul\":670:729   */\n  iszero\n  tag_24\n  jumpi\n    /* \"#utility.yul\":725:726   */\n  0x00\n    /* \"#utility.yul\":722:723   */\n  dup1\n    /* \"#utility.yul\":715:727   */\n  revert\n    /* \"#utility.yul\":670:729   */\ntag_24:\n    /* \"#utility.yul\":782:788   */\n  dup2\n    /* \"#utility.yul\":775:779   */\n  0x20\n    /* \"#utility.yul\":767:773   */\n  dup6\n    /* \"#utility.yul\":763:780   */\n  add\n    /* \"#utility.yul\":756:760   */\n  0x20\n    /* \"#utility.yul\":748:754   */\n  dup4\n    /* \"#utility.yul\":744:761   */\n  add\n    /* \"#utility.yul\":738:789   */\n  mcopy\n    /* \"#utility.yul\":837:838   */\n  0x00\n    /* \"#utility.yul\":809:828   */\n  swap2\n  dup2\n  add\n    /* \"#utility.yul\":830:834   */\n  0x20\n    /* \"#utility.yul\":805:835   */\n  add\n    /* \"#utility.yul\":798:839   */\n  swap2\n  swap1\n  swap2\n  mstore\n    /* \"#utility.yul\":813:819   */\n  swap4\n    /* \"#utility.yul\":146:869   */\n  swap3\n  pop\n  pop\n  pop\n  jump\t// out\n    /* \"#utility.yul\":874:1878   */\ntag_3:\n    /* \"#utility.yul\":999:1005   */\n  0x00\n    /* \"#utility.yul\":1007:1013   */\n  dup1\n    /* \"#utility.yul\":1015:1021   */\n  0x00\n    /* \"#utility.yul\":1023:1029   */\n  dup1\n    /* \"#utility.yul\":1031:1037   */\n  0x00\n    /* \"#utility.yul\":1084:1087   */\n  0xa0\n    /* \"#utility.yul\":1072:1081   */\n  dup7\n    /* \"#utility.yul\":1063:1070   */\n  dup9\n    /* \"#utility.yul\":1059:1082   */\n  sub\n    /* \"#utility.yul\":1055:1088   */\n  slt\n    /* \"#utility.yul\":1052:1105   */\n  iszero\n  tag_26\n  jumpi\n    /* \"#utility.yul\":1101:1102   */\n  0x00\n    /* \"#utility.yul\":1098:1099   */\n  dup1\n    /* \"#utility.yul\":1091:1103   */\n  revert\n    /* \"#utility.yul\":1052:1105   */\ntag_26:\n    /* \"#utility.yul\":1127:1143   */\n  dup6\n  mload\n  sub(shl(0xa0, 0x01), 0x01)\n    /* \"#utility.yul\":1172:1203   */\n  dup2\n  and\n    /* \"#utility.yul\":1162:1204   */\n  dup2\n  eq\n    /* \"#utility.yul\":1152:1222   */\n  tag_27\n  jumpi\n    /* \"#utility.yul\":1218:1219   */\n  0x00\n    /* \"#utility.yul\":1215:1216   */\n  dup1\n    /* \"#utility.yul\":1208:1220   */\n  revert\n    /* \"#utility.yul\":1152:1222   */\ntag_27:\n    /* \"#utility.yul\":1290:1292   */\n  0x20\n    /* \"#utility.yul\":1275:1293   */\n  dup8\n  add\n    /* \"#utility.yul\":1269:1294   */\n  mload\n    /* \"#utility.yul\":1241:1246   */\n  swap1\n  swap6\n  pop\n  sub(shl(0x40, 0x01), 0x01)\n    /* \"#utility.yul\":1306:1336   */\n  dup2\n  gt\n    /* \"#utility.yul\":1303:1353   */\n  iszero\n  tag_28\n  jumpi\n    /* \"#utility.yul\":1349:1350   */\n  0x00\n    /* \"#utility.yul\":1346:1347   */\n  dup1\n    /* \"#utility.yul\":1339:1351   */\n  revert\n    /* \"#utility.yul\":1303:1353   */\ntag_28:\n    /* \"#utility.yul\":1372:1433   */\n  tag_29\n    /* \"#utility.yul\":1425:1432   */\n  dup9\n    /* \"#utility.yul\":1416:1422   */\n  dup3\n    /* \"#utility.yul\":1405:1414   */\n  dup10\n    /* \"#utility.yul\":1401:1423   */\n  add\n    /* \"#utility.yul\":1372:1433   */\n  tag_11\n  jump\t// in\ntag_29:\n    /* \"#utility.yul\":1479:1481   */\n  0x40\n    /* \"#utility.yul\":1464:1482   */\n  dup9\n  add\n    /* \"#utility.yul\":1458:1483   */\n  mload\n    /* \"#utility.yul\":1362:1433   */\n  swap1\n  swap6\n  pop\n    /* \"#utility.yul\":1458:1483   */\n  swap1\n  pop\n  sub(shl(0x40, 0x01), 0x01)\n    /* \"#utility.yul\":1495:1527   */\n  dup2\n  gt\n    /* \"#utility.yul\":1492:1544   */\n  iszero\n  tag_30\n  jumpi\n    /* \"#utility.yul\":1540:1541   */\n  0x00\n    /* \"#utility.yul\":1537:1538   */\n  dup1\n    /* \"#utility.yul\":1530:1542   */\n  revert\n    /* \"#utility.yul\":1492:1544   */\ntag_30:\n    /* \"#utility.yul\":1563:1626   */\n  tag_31\n    /* \"#utility.yul\":1618:1625   */\n  dup9\n    /* \"#utility.yul\":1607:1615   */\n  dup3\n    /* \"#utility.yul\":1596:1605   */\n  dup10\n    /* \"#utility.yul\":1592:1616   */\n  add\n    /* \"#utility.yul\":1563:1626   */\n  tag_11\n  jump\t// in\ntag_31:\n    /* \"#utility.yul\":1553:1626   */\n  swap4\n  pop\n  pop\n    /* \"#utility.yul\":1671:1673   */\n  0x60\n    /* \"#utility.yul\":1660:1669   */\n  dup7\n    /* \"#utility.yul\":1656:1674   */\n  add\n    /* \"#utility.yul\":1650:1675   */\n  mload\n    /* \"#utility.yul\":1719:1729   */\n  0xffffffff\n    /* \"#utility.yul\":1710:1717   */\n  dup2\n    /* \"#utility.yul\":1706:1730   */\n  and\n    /* \"#utility.yul\":1697:1704   */\n  dup2\n    /* \"#utility.yul\":1694:1731   */\n  eq\n    /* \"#utility.yul\":1684:1749   */\n  tag_32\n  jumpi\n    /* \"#utility.yul\":1745:1746   */\n  0x00\n    /* \"#utility.yul\":1742:1743   */\n  dup1\n    /* \"#utility.yul\":1735:1747   */\n  revert\n    /* \"#utility.yul\":1684:1749   */\ntag_32:\n    /* \"#utility.yul\":1841:1844   */\n  0x80\n    /* \"#utility.yul\":1826:1845   */\n  swap7\n  swap1\n  swap7\n  add\n    /* \"#utility.yul\":1820:1846   */\n  mload\n    /* \"#utility.yul\":874:1878   */\n  swap5\n  swap8\n  swap4\n  swap7\n  pop\n  swap2\n  swap5\n    /* \"#utility.yul\":1768:1775   */\n  swap4\n    /* \"#utility.yul\":1820:1846   */\n  swap3\n    /* \"#utility.yul\":874:1878   */\n  swap2\n  pop\n  pop\n  jump\t// out\n    /* \"#utility.yul\":1883:2263   */\ntag_12:\n    /* \"#utility.yul\":1962:1963   */\n  0x01\n    /* \"#utility.yul\":1958:1970   */\n  dup2\n  dup2\n  shr\n  swap1\n    /* \"#utility.yul\":2005:2017   */\n  dup3\n  and\n  dup1\n    /* \"#utility.yul\":2026:2087   */\n  tag_34\n  jumpi\n    /* \"#utility.yul\":2080:2084   */\n  0x7f\n    /* \"#utility.yul\":2072:2078   */\n  dup3\n    /* \"#utility.yul\":2068:2085   */\n  and\n    /* \"#utility.yul\":2058:2085   */\n  swap2\n  pop\n    /* \"#utility.yul\":2026:2087   */\ntag_34:\n    /* \"#utility.yul\":2133:2135   */\n  0x20\n    /* \"#utility.yul\":2125:2131   */\n  dup3\n    /* \"#utility.yul\":2122:2136   */\n  lt\n    /* \"#utility.yul\":2102:2120   */\n  dup2\n    /* \"#utility.yul\":2099:2137   */\n  sub\n    /* \"#utility.yul\":2096:2257   */\n  tag_35\n  jumpi\n    /* \"#utility.yul\":2179:2189   */\n  0x4e487b71\n    /* \"#utility.yul\":2174:2177   */\n  0xe0\n    /* \"#utility.yul\":2170:2190   */\n  shl\n    /* \"#utility.yul\":2167:2168   */\n  0x00\n    /* \"#utility.yul\":2160:2191   */\n  mstore\n    /* \"#utility.yul\":2214:2218   */\n  0x22\n    /* \"#utility.yul\":2211:2212   */\n  0x04\n    /* \"#utility.yul\":2204:2219   */\n  mstore\n    /* \"#utility.yul\":2242:2246   */\n  0x24\n    /* \"#utility.yul\":2239:2240   */\n  0x00\n    /* \"#utility.yul\":2232:2247   */\n  revert\n    /* \"#utility.yul\":2096:2257   */\ntag_35:\n  pop\n    /* \"#utility.yul\":1883:2263   */\n  swap2\n  swap1\n  pop\n  jump\t// out\n    /* \"#utility.yul\":2394:2912   */\ntag_14:\n    /* \"#utility.yul\":2496:2498   */\n  0x1f\n    /* \"#utility.yul\":2491:2494   */\n  dup3\n    /* \"#utility.yul\":2488:2499   */\n  gt\n    /* \"#utility.yul\":2485:2906   */\n  iszero\n  tag_38\n  jumpi\n    /* \"#utility.yul\":2532:2537   */\n  dup1\n    /* \"#utility.yul\":2529:2530   */\n  0x00\n    /* \"#utility.yul\":2522:2538   */\n  mstore\n    /* \"#utility.yul\":2576:2580   */\n  0x20\n    /* \"#utility.yul\":2573:2574   */\n  0x00\n    /* \"#utility.yul\":2563:2581   */\n  keccak256\n    /* \"#utility.yul\":2646:2648   */\n  0x1f\n    /* \"#utility.yul\":2634:2644   */\n  dup5\n    /* \"#utility.yul\":2630:2649   */\n  add\n    /* \"#utility.yul\":2627:2628   */\n  0x05\n    /* \"#utility.yul\":2623:2650   */\n  shr\n    /* \"#utility.yul\":2617:2621   */\n  dup2\n    /* \"#utility.yul\":2613:2651   */\n  add\n    /* \"#utility.yul\":2682:2686   */\n  0x20\n    /* \"#utility.yul\":2670:2680   */\n  dup6\n    /* \"#utility.yul\":2667:2687   */\n  lt\n    /* \"#utility.yul\":2664:2711   */\n  iszero\n  tag_39\n  jumpi\n  pop\n    /* \"#utility.yul\":2705:2709   */\n  dup1\n    /* \"#utility.yul\":2664:2711   */\ntag_39:\n    /* \"#utility.yul\":2760:2762   */\n  0x1f\n    /* \"#utility.yul\":2755:2758   */\n  dup5\n    /* \"#utility.yul\":2751:2763   */\n  add\n    /* \"#utility.yul\":2748:2749   */\n  0x05\n    /* \"#utility.yul\":2744:2764   */\n  shr\n    /* \"#utility.yul\":2738:2742   */\n  dup3\n    /* \"#utility.yul\":2734:2765   */\n  add\n    /* \"#utility.yul\":2724:2765   */\n  swap2\n  pop\n    /* \"#utility.yul\":2815:2896   */\ntag_40:\n    /* \"#utility.yul\":2833:2835   */\n  dup2\n    /* \"#utility.yul\":2826:2831   */\n  dup2\n    /* \"#utility.yul\":2823:2836   */\n  lt\n    /* \"#utility.yul\":2815:2896   */\n  iszero\n  tag_42\n  jumpi\n    /* \"#utility.yul\":2892:2893   */\n  0x00\n    /* \"#utility.yul\":2878:2894   */\n  dup2\n  sstore\n    /* \"#utility.yul\":2859:2860   */\n  0x01\n    /* \"#utility.yul\":2848:2861   */\n  add\n    /* \"#utility.yul\":2815:2896   */\n  jump(tag_40)\ntag_42:\n    /* \"#utility.yul\":2819:2822   */\n  pop\n  pop\n    /* \"#utility.yul\":2485:2906   */\ntag_38:\n    /* \"#utility.yul\":2394:2912   */\n  pop\n  pop\n  pop\n  jump\t// out\n    /* \"#utility.yul\":3088:4387   */\ntag_7:\n    /* \"#utility.yul\":3208:3218   */\n  dup2\n  mload\n  sub(shl(0x40, 0x01), 0x01)\n    /* \"#utility.yul\":3230:3260   */\n  dup2\n  gt\n    /* \"#utility.yul\":3227:3283   */\n  iszero\n  tag_46\n  jumpi\n    /* \"#utility.yul\":3263:3281   */\n  tag_46\n  tag_10\n  jump\t// in\ntag_46:\n    /* \"#utility.yul\":3292:3389   */\n  tag_47\n    /* \"#utility.yul\":3382:3388   */\n  dup2\n    /* \"#utility.yul\":3342:3380   */\n  tag_48\n    /* \"#utility.yul\":3374:3378   */\n  dup5\n    /* \"#utility.yul\":3368:3379   */\n  sload\n    /* \"#utility.yul\":3342:3380   */\n  tag_12\n  jump\t// in\ntag_48:\n    /* \"#utility.yul\":3336:3340   */\n  dup5\n    /* \"#utility.yul\":3292:3389   */\n  tag_14\n  jump\t// in\ntag_47:\n    /* \"#utility.yul\":3438:3442   */\n  0x20\n    /* \"#utility.yul\":3469:3471   */\n  0x1f\n    /* \"#utility.yul\":3458:3472   */\n  dup3\n  gt\n    /* \"#utility.yul\":3486:3487   */\n  0x01\n    /* \"#utility.yul\":3481:4130   */\n  dup2\n  eq\n  tag_50\n  jumpi\n    /* \"#utility.yul\":4174:4175   */\n  0x00\n    /* \"#utility.yul\":4191:4197   */\n  dup4\n    /* \"#utility.yul\":4188:4277   */\n  iszero\n  tag_51\n  jumpi\n  pop\n    /* \"#utility.yul\":4243:4262   */\n  dup5\n  dup3\n  add\n    /* \"#utility.yul\":4237:4263   */\n  mload\n    /* \"#utility.yul\":4188:4277   */\ntag_51:\n  not(0x00)\n    /* \"#utility.yul\":3045:3046   */\n  0x03\n    /* \"#utility.yul\":3041:3052   */\n  dup6\n  swap1\n  shl\n    /* \"#utility.yul\":3037:3061   */\n  shr\n    /* \"#utility.yul\":3033:3062   */\n  not\n    /* \"#utility.yul\":3023:3063   */\n  and\n    /* \"#utility.yul\":3069:3070   */\n  0x01\n    /* \"#utility.yul\":3065:3076   */\n  dup5\n  swap1\n  shl\n    /* \"#utility.yul\":3020:3077   */\n  or\n    /* \"#utility.yul\":4290:4371   */\n  dup5\n  sstore\n    /* \"#utility.yul\":3451:4381   */\n  jump(tag_42)\n    /* \"#utility.yul\":3481:4130   */\ntag_50:\n    /* \"#utility.yul\":2341:2342   */\n  0x00\n    /* \"#utility.yul\":2334:2348   */\n  dup5\n  dup2\n  mstore\n    /* \"#utility.yul\":2378:2382   */\n  0x20\n    /* \"#utility.yul\":2365:2383   */\n  dup2\n  keccak256\n  not(0x1f)\n    /* \"#utility.yul\":3517:3537   */\n  dup6\n  and\n  swap2\n    /* \"#utility.yul\":3635:3857   */\ntag_54:\n    /* \"#utility.yul\":3649:3656   */\n  dup3\n    /* \"#utility.yul\":3646:3647   */\n  dup2\n    /* \"#utility.yul\":3643:3657   */\n  lt\n    /* \"#utility.yul\":3635:3857   */\n  iszero\n  tag_56\n  jumpi\n    /* \"#utility.yul\":3731:3750   */\n  dup8\n  dup6\n  add\n    /* \"#utility.yul\":3725:3751   */\n  mload\n    /* \"#utility.yul\":3710:3752   */\n  dup3\n  sstore\n    /* \"#utility.yul\":3838:3842   */\n  0x20\n    /* \"#utility.yul\":3823:3843   */\n  swap5\n  dup6\n  add\n  swap5\n    /* \"#utility.yul\":3791:3792   */\n  0x01\n    /* \"#utility.yul\":3779:3793   */\n  swap1\n  swap3\n  add\n  swap2\n    /* \"#utility.yul\":3665:3677   */\n  add\n    /* \"#utility.yul\":3635:3857   */\n  jump(tag_54)\ntag_56:\n    /* \"#utility.yul\":3639:3642   */\n  pop\n    /* \"#utility.yul\":3885:3891   */\n  dup5\n    /* \"#utility.yul\":3876:3883   */\n  dup3\n    /* \"#utility.yul\":3873:3892   */\n  lt\n    /* \"#utility.yul\":3870:4071   */\n  iszero\n  tag_57\n  jumpi\n    /* \"#utility.yul\":3946:3965   */\n  dup7\n  dup5\n  add\n    /* \"#utility.yul\":3940:3966   */\n  mload\n  not(0x00)\n    /* \"#utility.yul\":4029:4030   */\n  0x03\n    /* \"#utility.yul\":4025:4039   */\n  dup8\n  swap1\n  shl\n    /* \"#utility.yul\":4041:4044   */\n  0xf8\n    /* \"#utility.yul\":4021:4045   */\n  and\n    /* \"#utility.yul\":4017:4054   */\n  shr\n    /* \"#utility.yul\":4013:4055   */\n  not\n    /* \"#utility.yul\":3998:4056   */\n  and\n    /* \"#utility.yul\":3983:4057   */\n  dup2\n  sstore\n    /* \"#utility.yul\":3870:4071   */\ntag_57:\n  pop\n  pop\n  pop\n  pop\n    /* \"#utility.yul\":4117:4118   */\n  0x01\n    /* \"#utility.yul\":4101:4115   */\n  swap1\n  dup2\n  shl\n    /* \"#utility.yul\":4097:4119   */\n  add\n    /* \"#utility.yul\":4084:4120   */\n  swap1\n  sstore\n  pop\n    /* \"#utility.yul\":3088:4387   */\n  jump\t// out\ntag_16:\n    /* \"backend/contracts/Campaign.sol\":227:5255  contract Campaign {... */\n  mload(0x80)\n  mload(0xa0)\n  mload(0xc0)\n  codecopy(0x00, dataOffset(sub_0), dataSize(sub_0))\n  0x00\n  assignImmutable(\"0x7f8b6b088b6d74c2852fc86c796dca07b44eed6fb3daf5e6b59f7c364db14528\")\n  0x00\n  assignImmutable(\"0x1a192fabce13988b84994d4296e6cdc418d55e2f1d7f942188d4040b94fc57ac\")\n  0x00\n  assignImmutable(\"0x13600b294191fc92924bb3ce4b969c1e7e2bab8f4c93c3fc6d0a51733df3c060\")\n  return(0x00, dataSize(sub_0))\nstop\n\nsub_0: assembly {\n        /* \"backend/contracts/Campaign.sol\":227:5255  contract Campaign {... */\n      mstore(0x40, 0x80)\n      jumpi(tag_1, lt(calldatasize, 0x04))\n      shr(0xe0, calldataload(0x00))\n      dup1\n      0x7a3a0e84\n      gt\n      tag_12\n      jumpi\n      dup1\n      0x7a3a0e84\n      eq\n      tag_7\n      jumpi\n      dup1\n      0x968ed600\n      eq\n      tag_8\n      jumpi\n      dup1\n      0xa1211bc0\n      eq\n      tag_9\n      jumpi\n      dup1\n      0xcc6cb19a\n      eq\n      tag_10\n      jumpi\n      dup1\n      0xed88c68e\n      eq\n      tag_11\n      jumpi\n      0x00\n      dup1\n      revert\n    tag_12:\n      dup1\n      0x06fdde03\n      eq\n      tag_2\n      jumpi\n      dup1\n      0x22f3e2d4\n      eq\n      tag_3\n      jumpi\n      dup1\n      0x29dcb0cf\n      eq\n      tag_4\n      jumpi\n      dup1\n      0x38af3eed\n      eq\n      tag_5\n      jumpi\n      dup1\n      0x7284e416\n      eq\n      tag_6\n      jumpi\n    tag_1:\n      0x00\n      dup1\n      revert\n        /* \"backend/contracts/Campaign.sol\":316:334  string public name */\n    tag_2:\n      callvalue\n      dup1\n      iszero\n      tag_13\n      jumpi\n      0x00\n      dup1\n      revert\n    tag_13:\n      pop\n      tag_14\n      tag_15\n      jump\t// in\n    tag_14:\n      mload(0x40)\n      tag_16\n      swap2\n      swap1\n      tag_17\n      jump\t// in\n    tag_16:\n      mload(0x40)\n      dup1\n      swap2\n      sub\n      swap1\n      return\n        /* \"backend/contracts/Campaign.sol\":499:519  bool public isActive */\n    tag_3:\n      callvalue\n      dup1\n      iszero\n      tag_18\n      jumpi\n      0x00\n      dup1\n      revert\n    tag_18:\n      pop\n      sload(0x02)\n      tag_19\n      swap1\n      0x0100000000\n      swap1\n      div\n      0xff\n      and\n      dup2\n      jump\n    tag_19:\n      mload(0x40)\n        /* \"#utility.yul\":602:616   */\n      swap1\n      iszero\n        /* \"#utility.yul\":595:617   */\n      iszero\n        /* \"#utility.yul\":577:618   */\n      dup2\n      mstore\n        /* \"#utility.yul\":565:567   */\n      0x20\n        /* \"#utility.yul\":550:568   */\n      add\n        /* \"backend/contracts/Campaign.sol\":499:519  bool public isActive */\n      tag_16\n        /* \"#utility.yul\":437:624   */\n      jump\n        /* \"backend/contracts/Campaign.sol\":371:401  uint public immutable deadline */\n    tag_4:\n      callvalue\n      dup1\n      iszero\n      tag_23\n      jumpi\n      0x00\n      dup1\n      revert\n    tag_23:\n      pop\n      tag_24\n      immutable(\"0x1a192fabce13988b84994d4296e6cdc418d55e2f1d7f942188d4040b94fc57ac\")\n      dup2\n      jump\n    tag_24:\n      mload(0x40)\n        /* \"#utility.yul\":775:800   */\n      swap1\n      dup2\n      mstore\n        /* \"#utility.yul\":763:765   */\n      0x20\n        /* \"#utility.yul\":748:766   */\n      add\n        /* \"backend/contracts/Campaign.sol\":371:401  uint public immutable deadline */\n      tag_16\n        /* \"#utility.yul\":629:806   */\n      jump\n        /* \"backend/contracts/Campaign.sol\":274:310  address public immutable beneficiary */\n    tag_5:\n      callvalue\n      dup1\n      iszero\n      tag_28\n      jumpi\n      0x00\n      dup1\n      revert\n    tag_28:\n      pop\n      tag_29\n      immutable(\"0x13600b294191fc92924bb3ce4b969c1e7e2bab8f4c93c3fc6d0a51733df3c060\")\n      dup2\n      jump\n    tag_29:\n      mload(0x40)\n      sub(shl(0xa0, 0x01), 0x01)\n        /* \"#utility.yul\":975:1007   */\n      swap1\n      swap2\n      and\n        /* \"#utility.yul\":957:1008   */\n      dup2\n      mstore\n        /* \"#utility.yul\":945:947   */\n      0x20\n        /* \"#utility.yul\":930:948   */\n      add\n        /* \"backend/contracts/Campaign.sol\":274:310  address public immutable beneficiary */\n      tag_16\n        /* \"#utility.yul\":811:1014   */\n      jump\n        /* \"backend/contracts/Campaign.sol\":340:365  string public description */\n    tag_6:\n      callvalue\n      dup1\n      iszero\n      tag_33\n      jumpi\n      0x00\n      dup1\n      revert\n    tag_33:\n      pop\n      tag_14\n      tag_35\n      jump\t// in\n        /* \"backend/contracts/Campaign.sol\":407:442  uint32 public immutable fundingGoal */\n    tag_7:\n      callvalue\n      dup1\n      iszero\n      tag_37\n      jumpi\n      0x00\n      dup1\n      revert\n    tag_37:\n      pop\n      tag_38\n      immutable(\"0x7f8b6b088b6d74c2852fc86c796dca07b44eed6fb3daf5e6b59f7c364db14528\")\n      dup2\n      jump\n    tag_38:\n      mload(0x40)\n        /* \"#utility.yul\":1193:1203   */\n      0xffffffff\n        /* \"#utility.yul\":1181:1204   */\n      swap1\n      swap2\n      and\n        /* \"#utility.yul\":1163:1205   */\n      dup2\n      mstore\n        /* \"#utility.yul\":1151:1153   */\n      0x20\n        /* \"#utility.yul\":1136:1154   */\n      add\n        /* \"backend/contracts/Campaign.sol\":407:442  uint32 public immutable fundingGoal */\n      tag_16\n        /* \"#utility.yul\":1019:1211   */\n      jump\n        /* \"backend/contracts/Campaign.sol\":448:472  uint32 public totalFunds */\n    tag_8:\n      callvalue\n      dup1\n      iszero\n      tag_42\n      jumpi\n      0x00\n      dup1\n      revert\n    tag_42:\n      pop\n      sload(0x02)\n      tag_38\n      swap1\n      0xffffffff\n      and\n      dup2\n      jump\n        /* \"backend/contracts/Campaign.sol\":4394:4720  function finalizeCampaign() external isActiveCampaign deadlineExceeded {... */\n    tag_9:\n      callvalue\n      dup1\n      iszero\n      tag_46\n      jumpi\n      0x00\n      dup1\n      revert\n    tag_46:\n      pop\n      tag_47\n      tag_48\n      jump\t// in\n    tag_47:\n      stop\n        /* \"backend/contracts/Campaign.sol\":676:719  mapping(address => uint32) public donations */\n    tag_10:\n      callvalue\n      dup1\n      iszero\n      tag_49\n      jumpi\n      0x00\n      dup1\n      revert\n    tag_49:\n      pop\n      tag_38\n      tag_51\n      calldatasize\n      0x04\n      tag_52\n      jump\t// in\n    tag_51:\n      mstore(0x20, 0x03)\n      0x00\n      swap1\n      dup2\n      mstore\n      0x40\n      swap1\n      keccak256\n      sload\n      0xffffffff\n      and\n      dup2\n      jump\n        /* \"backend/contracts/Campaign.sol\":2619:3274  function donate() external payable isActiveCampaign {... */\n    tag_11:\n      tag_47\n      tag_56\n      jump\t// in\n        /* \"backend/contracts/Campaign.sol\":316:334  string public name */\n    tag_15:\n      0x00\n      dup1\n      sload\n      tag_57\n      swap1\n      tag_58\n      jump\t// in\n    tag_57:\n      dup1\n      0x1f\n      add\n      0x20\n      dup1\n      swap2\n      div\n      mul\n      0x20\n      add\n      mload(0x40)\n      swap1\n      dup2\n      add\n      0x40\n      mstore\n      dup1\n      swap3\n      swap2\n      swap1\n      dup2\n      dup2\n      mstore\n      0x20\n      add\n      dup3\n      dup1\n      sload\n      tag_59\n      swap1\n      tag_58\n      jump\t// in\n    tag_59:\n      dup1\n      iszero\n      tag_60\n      jumpi\n      dup1\n      0x1f\n      lt\n      tag_61\n      jumpi\n      0x0100\n      dup1\n      dup4\n      sload\n      div\n      mul\n      dup4\n      mstore\n      swap2\n      0x20\n      add\n      swap2\n      jump(tag_60)\n    tag_61:\n      dup3\n      add\n      swap2\n      swap1\n      0x00\n      mstore\n      keccak256(0x00, 0x20)\n      swap1\n    tag_62:\n      dup2\n      sload\n      dup2\n      mstore\n      swap1\n      0x01\n      add\n      swap1\n      0x20\n      add\n      dup1\n      dup4\n      gt\n      tag_62\n      jumpi\n      dup3\n      swap1\n      sub\n      0x1f\n      and\n      dup3\n      add\n      swap2\n    tag_60:\n      pop\n      pop\n      pop\n      pop\n      pop\n      dup2\n      jump\t// out\n        /* \"backend/contracts/Campaign.sol\":340:365  string public description */\n    tag_35:\n      0x01\n      dup1\n      sload\n      tag_57\n      swap1\n      tag_58\n      jump\t// in\n        /* \"backend/contracts/Campaign.sol\":4394:4720  function finalizeCampaign() external isActiveCampaign deadlineExceeded {... */\n    tag_48:\n        /* \"backend/contracts/Campaign.sol\":2230:2238  isActive */\n      sload(0x02)\n      0x0100000000\n      swap1\n      div\n      0xff\n      and\n        /* \"backend/contracts/Campaign.sol\":2222:2270  require(isActive, \"The Campaign is not active!\") */\n      tag_69\n      jumpi\n      mload(0x40)\n      shl(0xe5, 0x461bcd)\n      dup2\n      mstore\n        /* \"#utility.yul\":2094:2096   */\n      0x20\n        /* \"backend/contracts/Campaign.sol\":2222:2270  require(isActive, \"The Campaign is not active!\") */\n      0x04\n      dup3\n      add\n        /* \"#utility.yul\":2076:2097   */\n      mstore\n        /* \"#utility.yul\":2133:2135   */\n      0x1b\n        /* \"#utility.yul\":2113:2131   */\n      0x24\n      dup3\n      add\n        /* \"#utility.yul\":2106:2136   */\n      mstore\n        /* \"#utility.yul\":2172:2201   */\n      0x5468652043616d706169676e206973206e6f7420616374697665210000000000\n        /* \"#utility.yul\":2152:2170   */\n      0x44\n      dup3\n      add\n        /* \"#utility.yul\":2145:2202   */\n      mstore\n        /* \"#utility.yul\":2219:2237   */\n      0x64\n      add\n        /* \"backend/contracts/Campaign.sol\":2222:2270  require(isActive, \"The Campaign is not active!\") */\n    tag_70:\n      mload(0x40)\n      dup1\n      swap2\n      sub\n      swap1\n      revert\n    tag_69:\n        /* \"backend/contracts/Campaign.sol\":2358:2366  deadline */\n      immutable(\"0x1a192fabce13988b84994d4296e6cdc418d55e2f1d7f942188d4040b94fc57ac\")\n        /* \"backend/contracts/Campaign.sol\":2340:2355  block.timestamp */\n      timestamp\n        /* \"backend/contracts/Campaign.sol\":2340:2366  block.timestamp > deadline */\n      gt\n        /* \"backend/contracts/Campaign.sol\":2332:2410  require(block.timestamp > deadline, \"The Camapign's deadline has not passed!\") */\n      tag_73\n      jumpi\n      mload(0x40)\n      shl(0xe5, 0x461bcd)\n      dup2\n      mstore\n        /* \"#utility.yul\":2450:2452   */\n      0x20\n        /* \"backend/contracts/Campaign.sol\":2332:2410  require(block.timestamp > deadline, \"The Camapign's deadline has not passed!\") */\n      0x04\n      dup3\n      add\n        /* \"#utility.yul\":2432:2453   */\n      mstore\n        /* \"#utility.yul\":2489:2491   */\n      0x27\n        /* \"#utility.yul\":2469:2487   */\n      0x24\n      dup3\n      add\n        /* \"#utility.yul\":2462:2492   */\n      mstore\n        /* \"#utility.yul\":2528:2562   */\n      0x5468652043616d617069676e277320646561646c696e6520686173206e6f7420\n        /* \"#utility.yul\":2508:2526   */\n      0x44\n      dup3\n      add\n        /* \"#utility.yul\":2501:2563   */\n      mstore\n      shl(0xc8, 0x70617373656421)\n        /* \"#utility.yul\":2579:2597   */\n      0x64\n      dup3\n      add\n        /* \"#utility.yul\":2572:2609   */\n      mstore\n        /* \"#utility.yul\":2626:2645   */\n      0x84\n      add\n        /* \"backend/contracts/Campaign.sol\":2332:2410  require(block.timestamp > deadline, \"The Camapign's deadline has not passed!\") */\n      tag_70\n        /* \"#utility.yul\":2248:2651   */\n      jump\n        /* \"backend/contracts/Campaign.sol\":2332:2410  require(block.timestamp > deadline, \"The Camapign's deadline has not passed!\") */\n    tag_73:\n        /* \"backend/contracts/Campaign.sol\":4479:4489  totalFunds */\n      sload(0x02)\n        /* \"backend/contracts/Campaign.sol\":4479:4503  totalFunds > fundingGoal */\n      0xffffffff\n        /* \"backend/contracts/Campaign.sol\":4492:4503  fundingGoal */\n      immutable(\"0x7f8b6b088b6d74c2852fc86c796dca07b44eed6fb3daf5e6b59f7c364db14528\")\n        /* \"backend/contracts/Campaign.sol\":4479:4503  totalFunds > fundingGoal */\n      dup2\n      and\n        /* \"backend/contracts/Campaign.sol\":4479:4489  totalFunds */\n      swap2\n      and\n        /* \"backend/contracts/Campaign.sol\":4479:4503  totalFunds > fundingGoal */\n      gt\n        /* \"backend/contracts/Campaign.sol\":4475:4714  if (totalFunds > fundingGoal) {... */\n      iszero\n      tag_78\n      jumpi\n        /* \"backend/contracts/Campaign.sol\":4519:4533  releaseFunds() */\n      tag_78\n        /* \"backend/contracts/Campaign.sol\":4519:4531  releaseFunds */\n      tag_79\n        /* \"backend/contracts/Campaign.sol\":4519:4533  releaseFunds() */\n      jump\t// in\n    tag_78:\n        /* \"backend/contracts/Campaign.sol\":4394:4720  function finalizeCampaign() external isActiveCampaign deadlineExceeded {... */\n      jump\t// out\n        /* \"backend/contracts/Campaign.sol\":2619:3274  function donate() external payable isActiveCampaign {... */\n    tag_56:\n        /* \"backend/contracts/Campaign.sol\":2230:2238  isActive */\n      sload(0x02)\n      0x0100000000\n      swap1\n      div\n      0xff\n      and\n        /* \"backend/contracts/Campaign.sol\":2222:2270  require(isActive, \"The Campaign is not active!\") */\n      tag_82\n      jumpi\n      mload(0x40)\n      shl(0xe5, 0x461bcd)\n      dup2\n      mstore\n        /* \"#utility.yul\":2094:2096   */\n      0x20\n        /* \"backend/contracts/Campaign.sol\":2222:2270  require(isActive, \"The Campaign is not active!\") */\n      0x04\n      dup3\n      add\n        /* \"#utility.yul\":2076:2097   */\n      mstore\n        /* \"#utility.yul\":2133:2135   */\n      0x1b\n        /* \"#utility.yul\":2113:2131   */\n      0x24\n      dup3\n      add\n        /* \"#utility.yul\":2106:2136   */\n      mstore\n        /* \"#utility.yul\":2172:2201   */\n      0x5468652043616d706169676e206973206e6f7420616374697665210000000000\n        /* \"#utility.yul\":2152:2170   */\n      0x44\n      dup3\n      add\n        /* \"#utility.yul\":2145:2202   */\n      mstore\n        /* \"#utility.yul\":2219:2237   */\n      0x64\n      add\n        /* \"backend/contracts/Campaign.sol\":2222:2270  require(isActive, \"The Campaign is not active!\") */\n      tag_70\n        /* \"#utility.yul\":1892:2243   */\n      jump\n        /* \"backend/contracts/Campaign.sol\":2222:2270  require(isActive, \"The Campaign is not active!\") */\n    tag_82:\n        /* \"backend/contracts/Campaign.sol\":2697:2707  msg.sender */\n      caller\n        /* \"backend/contracts/Campaign.sol\":2681:2694  address donor */\n      0x00\n        /* \"backend/contracts/Campaign.sol\":2760:2776  donations[donor] */\n      dup2\n      dup2\n      mstore\n        /* \"backend/contracts/Campaign.sol\":2760:2769  donations */\n      0x03\n        /* \"backend/contracts/Campaign.sol\":2760:2776  donations[donor] */\n      0x20\n      mstore\n      0x40\n      dup2\n      keccak256\n        /* \"backend/contracts/Campaign.sol\":2760:2786  donations[donor] += amount */\n      dup1\n      sload\n        /* \"backend/contracts/Campaign.sol\":2740:2749  msg.value */\n      callvalue\n      swap3\n      dup4\n      swap3\n        /* \"backend/contracts/Campaign.sol\":2760:2776  donations[donor] */\n      swap2\n        /* \"backend/contracts/Campaign.sol\":2760:2786  donations[donor] += amount */\n      tag_85\n      swap1\n        /* \"backend/contracts/Campaign.sol\":2740:2749  msg.value */\n      dup5\n      swap1\n        /* \"backend/contracts/Campaign.sol\":2760:2786  donations[donor] += amount */\n      0xffffffff\n      and\n      tag_86\n      jump\t// in\n    tag_85:\n      swap3\n      pop\n      0x0100\n      exp\n      dup2\n      sload\n      dup2\n      0xffffffff\n      mul\n      not\n      and\n      swap1\n      dup4\n      0xffffffff\n      and\n      mul\n      or\n      swap1\n      sstore\n      pop\n        /* \"backend/contracts/Campaign.sol\":2933:2953  uint32 newTotalFunds */\n      0x00\n        /* \"backend/contracts/Campaign.sol\":2969:2975  amount */\n      dup2\n        /* \"backend/contracts/Campaign.sol\":2956:2966  totalFunds */\n      0x02\n      0x00\n      swap1\n      sload\n      swap1\n      0x0100\n      exp\n      swap1\n      div\n      0xffffffff\n      and\n        /* \"backend/contracts/Campaign.sol\":2956:2975  totalFunds + amount */\n      tag_87\n      swap2\n      swap1\n      tag_86\n      jump\t// in\n    tag_87:\n        /* \"backend/contracts/Campaign.sol\":2985:2995  totalFunds */\n      0x02\n        /* \"backend/contracts/Campaign.sol\":2985:3011  totalFunds = newTotalFunds */\n      dup1\n      sload\n      not(0xffffffff)\n      and\n      0xffffffff\n      dup4\n      dup2\n      and\n      swap2\n      swap1\n      swap2\n      or\n      swap1\n      swap2\n      sstore\n        /* \"backend/contracts/Campaign.sol\":3026:3088  DonationMade(... */\n      mload(0x40)\n        /* \"#utility.yul\":1181:1204   */\n      swap1\n      dup5\n      and\n        /* \"#utility.yul\":1163:1205   */\n      dup2\n      mstore\n        /* \"backend/contracts/Campaign.sol\":2985:3011  totalFunds = newTotalFunds */\n      swap1\n      swap2\n      pop\n      sub(shl(0xa0, 0x01), 0x01)\n        /* \"backend/contracts/Campaign.sol\":3026:3088  DonationMade(... */\n      dup5\n      and\n      swap1\n      0x1c839185b36728265e815fdead3a2012225928c409ed744579e8b61d174bda21\n      swap1\n        /* \"#utility.yul\":1151:1153   */\n      0x20\n        /* \"#utility.yul\":1136:1154   */\n      add\n        /* \"backend/contracts/Campaign.sol\":3026:3088  DonationMade(... */\n      mload(0x40)\n      dup1\n      swap2\n      sub\n      swap1\n      log2\n        /* \"backend/contracts/Campaign.sol\":3216:3227  fundingGoal */\n      immutable(\"0x7f8b6b088b6d74c2852fc86c796dca07b44eed6fb3daf5e6b59f7c364db14528\")\n        /* \"backend/contracts/Campaign.sol\":3199:3227  newTotalFunds >= fundingGoal */\n      0xffffffff\n      and\n        /* \"backend/contracts/Campaign.sol\":3199:3212  newTotalFunds */\n      dup2\n        /* \"backend/contracts/Campaign.sol\":3199:3227  newTotalFunds >= fundingGoal */\n      0xffffffff\n      and\n      lt\n        /* \"backend/contracts/Campaign.sol\":3195:3268  if (newTotalFunds >= fundingGoal) {... */\n      tag_90\n      jumpi\n        /* \"backend/contracts/Campaign.sol\":3243:3257  releaseFunds() */\n      tag_90\n        /* \"backend/contracts/Campaign.sol\":3243:3255  releaseFunds */\n      tag_79\n        /* \"backend/contracts/Campaign.sol\":3243:3257  releaseFunds() */\n      jump\t// in\n    tag_90:\n        /* \"backend/contracts/Campaign.sol\":2671:3274  {... */\n      pop\n      pop\n      pop\n        /* \"backend/contracts/Campaign.sol\":2619:3274  function donate() external payable isActiveCampaign {... */\n      jump\t// out\n        /* \"backend/contracts/Campaign.sol\":3499:4072  function releaseFunds() private {... */\n    tag_79:\n        /* \"backend/contracts/Campaign.sol\":3565:3575  totalFunds */\n      0x02\n      dup1\n      sload\n      not(0xffffffffff)\n        /* \"backend/contracts/Campaign.sol\":3654:3670  isActive = false */\n      dup2\n      and\n      swap1\n      swap2\n      sstore\n        /* \"backend/contracts/Campaign.sol\":3749:3801  payable(beneficiary).call{value: fundsToRelease}(\"\") */\n      mload(0x40)\n        /* \"backend/contracts/Campaign.sol\":3565:3575  totalFunds */\n      0xffffffff\n      swap1\n      swap2\n      and\n      swap1\n      0x00\n      swap1\n        /* \"backend/contracts/Campaign.sol\":3757:3768  beneficiary */\n      immutable(\"0x13600b294191fc92924bb3ce4b969c1e7e2bab8f4c93c3fc6d0a51733df3c060\")\n      sub(shl(0xa0, 0x01), 0x01)\n        /* \"backend/contracts/Campaign.sol\":3749:3774  payable(beneficiary).call */\n      and\n      swap1\n        /* \"backend/contracts/Campaign.sol\":3565:3575  totalFunds */\n      dup4\n      swap1\n      dup4\n        /* \"backend/contracts/Campaign.sol\":3749:3801  payable(beneficiary).call{value: fundsToRelease}(\"\") */\n      dup2\n      dup2\n      dup2\n        /* \"backend/contracts/Campaign.sol\":3565:3575  totalFunds */\n      dup6\n        /* \"backend/contracts/Campaign.sol\":3749:3774  payable(beneficiary).call */\n      dup8\n        /* \"backend/contracts/Campaign.sol\":3749:3801  payable(beneficiary).call{value: fundsToRelease}(\"\") */\n      gas\n      call\n      swap3\n      pop\n      pop\n      pop\n      returndatasize\n      dup1\n      0x00\n      dup2\n      eq\n      tag_96\n      jumpi\n      mload(0x40)\n      swap2\n      pop\n      and(add(returndatasize, 0x3f), not(0x1f))\n      dup3\n      add\n      0x40\n      mstore\n      returndatasize\n      dup3\n      mstore\n      returndatasize\n      0x00\n      0x20\n      dup5\n      add\n      returndatacopy\n      jump(tag_95)\n    tag_96:\n      0x60\n      swap2\n      pop\n    tag_95:\n      pop\n        /* \"backend/contracts/Campaign.sol\":3731:3801  (bool success,) = payable(beneficiary).call{value: fundsToRelease}(\"\") */\n      pop\n      swap1\n      pop\n        /* \"backend/contracts/Campaign.sol\":3819:3826  success */\n      dup1\n        /* \"backend/contracts/Campaign.sol\":3811:3855  require(success, \"Unable to release funds!\") */\n      tag_97\n      jumpi\n      mload(0x40)\n      shl(0xe5, 0x461bcd)\n      dup2\n      mstore\n        /* \"#utility.yul\":3337:3339   */\n      0x20\n        /* \"backend/contracts/Campaign.sol\":3811:3855  require(success, \"Unable to release funds!\") */\n      0x04\n      dup3\n      add\n        /* \"#utility.yul\":3319:3340   */\n      mstore\n        /* \"#utility.yul\":3376:3378   */\n      0x18\n        /* \"#utility.yul\":3356:3374   */\n      0x24\n      dup3\n      add\n        /* \"#utility.yul\":3349:3379   */\n      mstore\n        /* \"#utility.yul\":3415:3441   */\n      0x556e61626c6520746f2072656c656173652066756e6473210000000000000000\n        /* \"#utility.yul\":3395:3413   */\n      0x44\n      dup3\n      add\n        /* \"#utility.yul\":3388:3442   */\n      mstore\n        /* \"#utility.yul\":3459:3477   */\n      0x64\n      add\n        /* \"backend/contracts/Campaign.sol\":3811:3855  require(success, \"Unable to release funds!\") */\n      tag_70\n        /* \"#utility.yul\":3135:3483   */\n      jump\n        /* \"backend/contracts/Campaign.sol\":3811:3855  require(success, \"Unable to release funds!\") */\n    tag_97:\n        /* \"backend/contracts/Campaign.sol\":3871:3948  FundsWithdrawn(... */\n      mload(0x40)\n        /* \"#utility.yul\":1193:1203   */\n      0xffffffff\n        /* \"#utility.yul\":1181:1204   */\n      dup4\n      and\n        /* \"#utility.yul\":1163:1205   */\n      dup2\n      mstore\n      sub(shl(0xa0, 0x01), 0x01)\n        /* \"backend/contracts/Campaign.sol\":3899:3910  beneficiary */\n      immutable(\"0x13600b294191fc92924bb3ce4b969c1e7e2bab8f4c93c3fc6d0a51733df3c060\")\n        /* \"backend/contracts/Campaign.sol\":3871:3948  FundsWithdrawn(... */\n      and\n      swap1\n      0x3de67bb1992e4f254de509dfd7561f97d65e2171867167fbfb7bc25dfa4b2284\n      swap1\n        /* \"#utility.yul\":1151:1153   */\n      0x20\n        /* \"#utility.yul\":1136:1154   */\n      add\n        /* \"backend/contracts/Campaign.sol\":3871:3948  FundsWithdrawn(... */\n      mload(0x40)\n      dup1\n      swap2\n      sub\n      swap1\n      log2\n        /* \"backend/contracts/Campaign.sol\":3963:4065  CampaignFinalized(... */\n      0x40\n      dup1\n      mload\n        /* \"backend/contracts/Campaign.sol\":4022:4026  true */\n      0x01\n        /* \"#utility.yul\":3654:3695   */\n      dup2\n      mstore\n        /* \"#utility.yul\":3743:3753   */\n      0xffffffff\n        /* \"#utility.yul\":3731:3754   */\n      dup5\n      and\n        /* \"#utility.yul\":3726:3728   */\n      0x20\n        /* \"#utility.yul\":3711:3729   */\n      dup3\n      add\n        /* \"#utility.yul\":3704:3755   */\n      mstore\n        /* \"backend/contracts/Campaign.sol\":4002:4006  this */\n      address\n      swap2\n        /* \"backend/contracts/Campaign.sol\":3963:4065  CampaignFinalized(... */\n      0x5be9d52eb6d0b698732f8dd5b5f6ad6c44215f77691d4ea4ab0e04ded81e4e0c\n      swap2\n        /* \"#utility.yul\":3627:3645   */\n      add\n        /* \"backend/contracts/Campaign.sol\":3963:4065  CampaignFinalized(... */\n      mload(0x40)\n      dup1\n      swap2\n      sub\n      swap1\n      log2\n        /* \"backend/contracts/Campaign.sol\":3531:4072  {... */\n      pop\n      pop\n        /* \"backend/contracts/Campaign.sol\":3499:4072  function releaseFunds() private {... */\n      jump\t// out\n        /* \"#utility.yul\":14:432   */\n    tag_17:\n        /* \"#utility.yul\":163:165   */\n      0x20\n        /* \"#utility.yul\":152:161   */\n      dup2\n        /* \"#utility.yul\":145:166   */\n      mstore\n        /* \"#utility.yul\":126:130   */\n      0x00\n        /* \"#utility.yul\":195:201   */\n      dup3\n        /* \"#utility.yul\":189:202   */\n      mload\n        /* \"#utility.yul\":238:244   */\n      dup1\n        /* \"#utility.yul\":233:235   */\n      0x20\n        /* \"#utility.yul\":222:231   */\n      dup5\n        /* \"#utility.yul\":218:236   */\n      add\n        /* \"#utility.yul\":211:245   */\n      mstore\n        /* \"#utility.yul\":297:303   */\n      dup1\n        /* \"#utility.yul\":292:294   */\n      0x20\n        /* \"#utility.yul\":284:290   */\n      dup6\n        /* \"#utility.yul\":280:295   */\n      add\n        /* \"#utility.yul\":275:277   */\n      0x40\n        /* \"#utility.yul\":264:273   */\n      dup6\n        /* \"#utility.yul\":260:278   */\n      add\n        /* \"#utility.yul\":254:304   */\n      mcopy\n        /* \"#utility.yul\":353:354   */\n      0x00\n        /* \"#utility.yul\":348:350   */\n      0x40\n        /* \"#utility.yul\":339:345   */\n      dup3\n        /* \"#utility.yul\":328:337   */\n      dup6\n        /* \"#utility.yul\":324:346   */\n      add\n        /* \"#utility.yul\":320:351   */\n      add\n        /* \"#utility.yul\":313:355   */\n      mstore\n        /* \"#utility.yul\":423:425   */\n      0x40\n        /* \"#utility.yul\":416:418   */\n      0x1f\n        /* \"#utility.yul\":412:419   */\n      not\n        /* \"#utility.yul\":407:409   */\n      0x1f\n        /* \"#utility.yul\":399:405   */\n      dup4\n        /* \"#utility.yul\":395:410   */\n      add\n        /* \"#utility.yul\":391:420   */\n      and\n        /* \"#utility.yul\":380:389   */\n      dup5\n        /* \"#utility.yul\":376:421   */\n      add\n        /* \"#utility.yul\":372:426   */\n      add\n        /* \"#utility.yul\":364:426   */\n      swap2\n      pop\n      pop\n        /* \"#utility.yul\":14:432   */\n      swap3\n      swap2\n      pop\n      pop\n      jump\t// out\n        /* \"#utility.yul\":1216:1502   */\n    tag_52:\n        /* \"#utility.yul\":1275:1281   */\n      0x00\n        /* \"#utility.yul\":1328:1330   */\n      0x20\n        /* \"#utility.yul\":1316:1325   */\n      dup3\n        /* \"#utility.yul\":1307:1314   */\n      dup5\n        /* \"#utility.yul\":1303:1326   */\n      sub\n        /* \"#utility.yul\":1299:1331   */\n      slt\n        /* \"#utility.yul\":1296:1348   */\n      iszero\n      tag_110\n      jumpi\n        /* \"#utility.yul\":1344:1345   */\n      0x00\n        /* \"#utility.yul\":1341:1342   */\n      dup1\n        /* \"#utility.yul\":1334:1346   */\n      revert\n        /* \"#utility.yul\":1296:1348   */\n    tag_110:\n        /* \"#utility.yul\":1370:1393   */\n      dup2\n      calldataload\n      sub(shl(0xa0, 0x01), 0x01)\n        /* \"#utility.yul\":1422:1453   */\n      dup2\n      and\n        /* \"#utility.yul\":1412:1454   */\n      dup2\n      eq\n        /* \"#utility.yul\":1402:1472   */\n      tag_111\n      jumpi\n        /* \"#utility.yul\":1468:1469   */\n      0x00\n        /* \"#utility.yul\":1465:1466   */\n      dup1\n        /* \"#utility.yul\":1458:1470   */\n      revert\n        /* \"#utility.yul\":1402:1472   */\n    tag_111:\n        /* \"#utility.yul\":1491:1496   */\n      swap4\n        /* \"#utility.yul\":1216:1502   */\n      swap3\n      pop\n      pop\n      pop\n      jump\t// out\n        /* \"#utility.yul\":1507:1887   */\n    tag_58:\n        /* \"#utility.yul\":1586:1587   */\n      0x01\n        /* \"#utility.yul\":1582:1594   */\n      dup2\n      dup2\n      shr\n      swap1\n        /* \"#utility.yul\":1629:1641   */\n      dup3\n      and\n      dup1\n        /* \"#utility.yul\":1650:1711   */\n      tag_113\n      jumpi\n        /* \"#utility.yul\":1704:1708   */\n      0x7f\n        /* \"#utility.yul\":1696:1702   */\n      dup3\n        /* \"#utility.yul\":1692:1709   */\n      and\n        /* \"#utility.yul\":1682:1709   */\n      swap2\n      pop\n        /* \"#utility.yul\":1650:1711   */\n    tag_113:\n        /* \"#utility.yul\":1757:1759   */\n      0x20\n        /* \"#utility.yul\":1749:1755   */\n      dup3\n        /* \"#utility.yul\":1746:1760   */\n      lt\n        /* \"#utility.yul\":1726:1744   */\n      dup2\n        /* \"#utility.yul\":1723:1761   */\n      sub\n        /* \"#utility.yul\":1720:1881   */\n      tag_114\n      jumpi\n        /* \"#utility.yul\":1803:1813   */\n      0x4e487b71\n        /* \"#utility.yul\":1798:1801   */\n      0xe0\n        /* \"#utility.yul\":1794:1814   */\n      shl\n        /* \"#utility.yul\":1791:1792   */\n      0x00\n        /* \"#utility.yul\":1784:1815   */\n      mstore\n        /* \"#utility.yul\":1838:1842   */\n      0x22\n        /* \"#utility.yul\":1835:1836   */\n      0x04\n        /* \"#utility.yul\":1828:1843   */\n      mstore\n        /* \"#utility.yul\":1866:1870   */\n      0x24\n        /* \"#utility.yul\":1863:1864   */\n      0x00\n        /* \"#utility.yul\":1856:1871   */\n      revert\n        /* \"#utility.yul\":1720:1881   */\n    tag_114:\n      pop\n        /* \"#utility.yul\":1507:1887   */\n      swap2\n      swap1\n      pop\n      jump\t// out\n        /* \"#utility.yul\":2656:2920   */\n    tag_86:\n        /* \"#utility.yul\":2751:2761   */\n      0xffffffff\n        /* \"#utility.yul\":2724:2742   */\n      dup2\n      dup2\n      and\n        /* \"#utility.yul\":2744:2762   */\n      dup4\n      dup3\n      and\n        /* \"#utility.yul\":2720:2763   */\n      add\n      swap1\n        /* \"#utility.yul\":2775:2794   */\n      dup2\n      gt\n        /* \"#utility.yul\":2772:2914   */\n      iszero\n      tag_118\n      jumpi\n        /* \"#utility.yul\":2836:2846   */\n      0x4e487b71\n        /* \"#utility.yul\":2831:2834   */\n      0xe0\n        /* \"#utility.yul\":2827:2847   */\n      shl\n        /* \"#utility.yul\":2824:2825   */\n      0x00\n        /* \"#utility.yul\":2817:2848   */\n      mstore\n        /* \"#utility.yul\":2871:2875   */\n      0x11\n        /* \"#utility.yul\":2868:2869   */\n      0x04\n        /* \"#utility.yul\":2861:2876   */\n      mstore\n        /* \"#utility.yul\":2899:2903   */\n      0x24\n        /* \"#utility.yul\":2896:2897   */\n      0x00\n        /* \"#utility.yul\":2889:2904   */\n      revert\n        /* \"#utility.yul\":2772:2914   */\n    tag_118:\n        /* \"#utility.yul\":2656:2920   */\n      swap3\n      swap2\n      pop\n      pop\n      jump\t// out\n\n    auxdata: 0xa26469706673582212207c50a2709d51a79e02990651c4e3572620bb75249ea88ad181bdda928049d8b864736f6c634300081a0033\n}\n",
				"bytecode": {
					"linkReferences": {},
					"object": "60e060405234801561000f575f80fd5b50604051610b18380380610b1883398101604081905261002e9161011b565b6001600160a01b0385166080525f6100468582610247565b5060016100538482610247565b5063ffffffff90911660c05260a05250506002805460ff60201b191664010000000017905550610301565b634e487b7160e01b5f52604160045260245ffd5b5f82601f8301126100a1575f80fd5b81516001600160401b038111156100ba576100ba61007e565b604051601f8201601f19908116603f011681016001600160401b03811182821017156100e8576100e861007e565b6040528181528382016020018510156100ff575f80fd5b8160208501602083015e5f918101602001919091529392505050565b5f805f805f60a0868803121561012f575f80fd5b85516001600160a01b0381168114610145575f80fd5b60208701519095506001600160401b03811115610160575f80fd5b61016c88828901610092565b604088015190955090506001600160401b03811115610189575f80fd5b61019588828901610092565b935050606086015163ffffffff811681146101ae575f80fd5b60809690960151949793965091949392915050565b600181811c908216806101d757607f821691505b6020821081036101f557634e487b7160e01b5f52602260045260245ffd5b50919050565b601f82111561024257805f5260205f20601f840160051c810160208510156102205750805b601f840160051c820191505b8181101561023f575f815560010161022c565b50505b505050565b81516001600160401b038111156102605761026061007e565b6102748161026e84546101c3565b846101fb565b6020601f8211600181146102a6575f831561028f5750848201515b5f19600385901b1c1916600184901b17845561023f565b5f84815260208120601f198516915b828110156102d557878501518255602094850194600190920191016102b5565b50848210156102f257868401515f19600387901b60f8161c191681555b50505050600190811b01905550565b60805160a05160c0516107cb61034d5f395f818161019f015281816103c1015261050f01525f818160ff015261033a01525f81816101400152818161056d015261063a01526107cb5ff3fe60806040526004361061008f575f3560e01c80637a3a0e84116100575780637a3a0e841461018e578063968ed600146101d6578063a1211bc0146101f2578063cc6cb19a14610208578063ed88c68e14610239575f80fd5b806306fdde031461009357806322f3e2d4146100bd57806329dcb0cf146100ee57806338af3eed1461012f5780637284e4161461017a575b5f80fd5b34801561009e575f80fd5b506100a7610241565b6040516100b491906106cd565b60405180910390f35b3480156100c8575f80fd5b506002546100de90640100000000900460ff1681565b60405190151581526020016100b4565b3480156100f9575f80fd5b506101217f000000000000000000000000000000000000000000000000000000000000000081565b6040519081526020016100b4565b34801561013a575f80fd5b506101627f000000000000000000000000000000000000000000000000000000000000000081565b6040516001600160a01b0390911681526020016100b4565b348015610185575f80fd5b506100a76102cc565b348015610199575f80fd5b506101c17f000000000000000000000000000000000000000000000000000000000000000081565b60405163ffffffff90911681526020016100b4565b3480156101e1575f80fd5b506002546101c19063ffffffff1681565b3480156101fd575f80fd5b506102066102d9565b005b348015610213575f80fd5b506101c1610222366004610702565b60036020525f908152604090205463ffffffff1681565b6102066103f4565b5f805461024d9061072f565b80601f01602080910402602001604051908101604052809291908181526020018280546102799061072f565b80156102c45780601f1061029b576101008083540402835291602001916102c4565b820191905f5260205f20905b8154815290600101906020018083116102a757829003601f168201915b505050505081565b6001805461024d9061072f565b600254640100000000900460ff166103385760405162461bcd60e51b815260206004820152601b60248201527f5468652043616d706169676e206973206e6f742061637469766521000000000060448201526064015b60405180910390fd5b7f000000000000000000000000000000000000000000000000000000000000000042116103b75760405162461bcd60e51b815260206004820152602760248201527f5468652043616d617069676e277320646561646c696e6520686173206e6f74206044820152667061737365642160c81b606482015260840161032f565b60025463ffffffff7f00000000000000000000000000000000000000000000000000000000000000008116911611156103f2576103f261054d565b565b600254640100000000900460ff1661044e5760405162461bcd60e51b815260206004820152601b60248201527f5468652043616d706169676e206973206e6f7420616374697665210000000000604482015260640161032f565b335f8181526003602052604081208054349283929161047490849063ffffffff16610767565b92506101000a81548163ffffffff021916908363ffffffff1602179055505f8160025f9054906101000a900463ffffffff166104b09190610767565b6002805463ffffffff191663ffffffff8381169190911790915560405190841681529091506001600160a01b038416907f1c839185b36728265e815fdead3a2012225928c409ed744579e8b61d174bda219060200160405180910390a27f000000000000000000000000000000000000000000000000000000000000000063ffffffff168163ffffffff16106105485761054861054d565b505050565b6002805464ffffffffff19811690915560405163ffffffff909116905f907f00000000000000000000000000000000000000000000000000000000000000006001600160a01b03169083908381818185875af1925050503d805f81146105ce576040519150601f19603f3d011682016040523d82523d5f602084013e6105d3565b606091505b50509050806106245760405162461bcd60e51b815260206004820152601860248201527f556e61626c6520746f2072656c656173652066756e6473210000000000000000604482015260640161032f565b60405163ffffffff831681526001600160a01b037f000000000000000000000000000000000000000000000000000000000000000016907f3de67bb1992e4f254de509dfd7561f97d65e2171867167fbfb7bc25dfa4b22849060200160405180910390a2604080516001815263ffffffff8416602082015230917f5be9d52eb6d0b698732f8dd5b5f6ad6c44215f77691d4ea4ab0e04ded81e4e0c910160405180910390a25050565b602081525f82518060208401528060208501604085015e5f604082850101526040601f19601f83011684010191505092915050565b5f60208284031215610712575f80fd5b81356001600160a01b0381168114610728575f80fd5b9392505050565b600181811c9082168061074357607f821691505b60208210810361076157634e487b7160e01b5f52602260045260245ffd5b50919050565b63ffffffff818116838216019081111561078f57634e487b7160e01b5f52601160045260245ffd5b9291505056fea26469706673582212207c50a2709d51a79e02990651c4e3572620bb75249ea88ad181bdda928049d8b864736f6c634300081a0033",
					"opcodes": "PUSH1 0xE0 PUSH1 0x40 MSTORE CALLVALUE DUP1 ISZERO PUSH2 0xF JUMPI PUSH0 DUP1 REVERT JUMPDEST POP PUSH1 0x40 MLOAD PUSH2 0xB18 CODESIZE SUB DUP1 PUSH2 0xB18 DUP4 CODECOPY DUP2 ADD PUSH1 0x40 DUP2 SWAP1 MSTORE PUSH2 0x2E SWAP2 PUSH2 0x11B JUMP JUMPDEST PUSH1 0x1 PUSH1 0x1 PUSH1 0xA0 SHL SUB DUP6 AND PUSH1 0x80 MSTORE PUSH0 PUSH2 0x46 DUP6 DUP3 PUSH2 0x247 JUMP JUMPDEST POP PUSH1 0x1 PUSH2 0x53 DUP5 DUP3 PUSH2 0x247 JUMP JUMPDEST POP PUSH4 0xFFFFFFFF SWAP1 SWAP2 AND PUSH1 0xC0 MSTORE PUSH1 0xA0 MSTORE POP POP PUSH1 0x2 DUP1 SLOAD PUSH1 0xFF PUSH1 0x20 SHL NOT AND PUSH5 0x100000000 OR SWAP1 SSTORE POP PUSH2 0x301 JUMP JUMPDEST PUSH4 0x4E487B71 PUSH1 0xE0 SHL PUSH0 MSTORE PUSH1 0x41 PUSH1 0x4 MSTORE PUSH1 0x24 PUSH0 REVERT JUMPDEST PUSH0 DUP3 PUSH1 0x1F DUP4 ADD SLT PUSH2 0xA1 JUMPI PUSH0 DUP1 REVERT JUMPDEST DUP2 MLOAD PUSH1 0x1 PUSH1 0x1 PUSH1 0x40 SHL SUB DUP2 GT ISZERO PUSH2 0xBA JUMPI PUSH2 0xBA PUSH2 0x7E JUMP JUMPDEST PUSH1 0x40 MLOAD PUSH1 0x1F DUP3 ADD PUSH1 0x1F NOT SWAP1 DUP2 AND PUSH1 0x3F ADD AND DUP2 ADD PUSH1 0x1 PUSH1 0x1 PUSH1 0x40 SHL SUB DUP2 GT DUP3 DUP3 LT OR ISZERO PUSH2 0xE8 JUMPI PUSH2 0xE8 PUSH2 0x7E JUMP JUMPDEST PUSH1 0x40 MSTORE DUP2 DUP2 MSTORE DUP4 DUP3 ADD PUSH1 0x20 ADD DUP6 LT ISZERO PUSH2 0xFF JUMPI PUSH0 DUP1 REVERT JUMPDEST DUP2 PUSH1 0x20 DUP6 ADD PUSH1 0x20 DUP4 ADD MCOPY PUSH0 SWAP2 DUP2 ADD PUSH1 0x20 ADD SWAP2 SWAP1 SWAP2 MSTORE SWAP4 SWAP3 POP POP POP JUMP JUMPDEST PUSH0 DUP1 PUSH0 DUP1 PUSH0 PUSH1 0xA0 DUP7 DUP9 SUB SLT ISZERO PUSH2 0x12F JUMPI PUSH0 DUP1 REVERT JUMPDEST DUP6 MLOAD PUSH1 0x1 PUSH1 0x1 PUSH1 0xA0 SHL SUB DUP2 AND DUP2 EQ PUSH2 0x145 JUMPI PUSH0 DUP1 REVERT JUMPDEST PUSH1 0x20 DUP8 ADD MLOAD SWAP1 SWAP6 POP PUSH1 0x1 PUSH1 0x1 PUSH1 0x40 SHL SUB DUP2 GT ISZERO PUSH2 0x160 JUMPI PUSH0 DUP1 REVERT JUMPDEST PUSH2 0x16C DUP9 DUP3 DUP10 ADD PUSH2 0x92 JUMP JUMPDEST PUSH1 0x40 DUP9 ADD MLOAD SWAP1 SWAP6 POP SWAP1 POP PUSH1 0x1 PUSH1 0x1 PUSH1 0x40 SHL SUB DUP2 GT ISZERO PUSH2 0x189 JUMPI PUSH0 DUP1 REVERT JUMPDEST PUSH2 0x195 DUP9 DUP3 DUP10 ADD PUSH2 0x92 JUMP JUMPDEST SWAP4 POP POP PUSH1 0x60 DUP7 ADD MLOAD PUSH4 0xFFFFFFFF DUP2 AND DUP2 EQ PUSH2 0x1AE JUMPI PUSH0 DUP1 REVERT JUMPDEST PUSH1 0x80 SWAP7 SWAP1 SWAP7 ADD MLOAD SWAP5 SWAP8 SWAP4 SWAP7 POP SWAP2 SWAP5 SWAP4 SWAP3 SWAP2 POP POP JUMP JUMPDEST PUSH1 0x1 DUP2 DUP2 SHR SWAP1 DUP3 AND DUP1 PUSH2 0x1D7 JUMPI PUSH1 0x7F DUP3 AND SWAP2 POP JUMPDEST PUSH1 0x20 DUP3 LT DUP2 SUB PUSH2 0x1F5 JUMPI PUSH4 0x4E487B71 PUSH1 0xE0 SHL PUSH0 MSTORE PUSH1 0x22 PUSH1 0x4 MSTORE PUSH1 0x24 PUSH0 REVERT JUMPDEST POP SWAP2 SWAP1 POP JUMP JUMPDEST PUSH1 0x1F DUP3 GT ISZERO PUSH2 0x242 JUMPI DUP1 PUSH0 MSTORE PUSH1 0x20 PUSH0 KECCAK256 PUSH1 0x1F DUP5 ADD PUSH1 0x5 SHR DUP2 ADD PUSH1 0x20 DUP6 LT ISZERO PUSH2 0x220 JUMPI POP DUP1 JUMPDEST PUSH1 0x1F DUP5 ADD PUSH1 0x5 SHR DUP3 ADD SWAP2 POP JUMPDEST DUP2 DUP2 LT ISZERO PUSH2 0x23F JUMPI PUSH0 DUP2 SSTORE PUSH1 0x1 ADD PUSH2 0x22C JUMP JUMPDEST POP POP JUMPDEST POP POP POP JUMP JUMPDEST DUP2 MLOAD PUSH1 0x1 PUSH1 0x1 PUSH1 0x40 SHL SUB DUP2 GT ISZERO PUSH2 0x260 JUMPI PUSH2 0x260 PUSH2 0x7E JUMP JUMPDEST PUSH2 0x274 DUP2 PUSH2 0x26E DUP5 SLOAD PUSH2 0x1C3 JUMP JUMPDEST DUP5 PUSH2 0x1FB JUMP JUMPDEST PUSH1 0x20 PUSH1 0x1F DUP3 GT PUSH1 0x1 DUP2 EQ PUSH2 0x2A6 JUMPI PUSH0 DUP4 ISZERO PUSH2 0x28F JUMPI POP DUP5 DUP3 ADD MLOAD JUMPDEST PUSH0 NOT PUSH1 0x3 DUP6 SWAP1 SHL SHR NOT AND PUSH1 0x1 DUP5 SWAP1 SHL OR DUP5 SSTORE PUSH2 0x23F JUMP JUMPDEST PUSH0 DUP5 DUP2 MSTORE PUSH1 0x20 DUP2 KECCAK256 PUSH1 0x1F NOT DUP6 AND SWAP2 JUMPDEST DUP3 DUP2 LT ISZERO PUSH2 0x2D5 JUMPI DUP8 DUP6 ADD MLOAD DUP3 SSTORE PUSH1 0x20 SWAP5 DUP6 ADD SWAP5 PUSH1 0x1 SWAP1 SWAP3 ADD SWAP2 ADD PUSH2 0x2B5 JUMP JUMPDEST POP DUP5 DUP3 LT ISZERO PUSH2 0x2F2 JUMPI DUP7 DUP5 ADD MLOAD PUSH0 NOT PUSH1 0x3 DUP8 SWAP1 SHL PUSH1 0xF8 AND SHR NOT AND DUP2 SSTORE JUMPDEST POP POP POP POP PUSH1 0x1 SWAP1 DUP2 SHL ADD SWAP1 SSTORE POP JUMP JUMPDEST PUSH1 0x80 MLOAD PUSH1 0xA0 MLOAD PUSH1 0xC0 MLOAD PUSH2 0x7CB PUSH2 0x34D PUSH0 CODECOPY PUSH0 DUP2 DUP2 PUSH2 0x19F ADD MSTORE DUP2 DUP2 PUSH2 0x3C1 ADD MSTORE PUSH2 0x50F ADD MSTORE PUSH0 DUP2 DUP2 PUSH1 0xFF ADD MSTORE PUSH2 0x33A ADD MSTORE PUSH0 DUP2 DUP2 PUSH2 0x140 ADD MSTORE DUP2 DUP2 PUSH2 0x56D ADD MSTORE PUSH2 0x63A ADD MSTORE PUSH2 0x7CB PUSH0 RETURN INVALID PUSH1 0x80 PUSH1 0x40 MSTORE PUSH1 0x4 CALLDATASIZE LT PUSH2 0x8F JUMPI PUSH0 CALLDATALOAD PUSH1 0xE0 SHR DUP1 PUSH4 0x7A3A0E84 GT PUSH2 0x57 JUMPI DUP1 PUSH4 0x7A3A0E84 EQ PUSH2 0x18E JUMPI DUP1 PUSH4 0x968ED600 EQ PUSH2 0x1D6 JUMPI DUP1 PUSH4 0xA1211BC0 EQ PUSH2 0x1F2 JUMPI DUP1 PUSH4 0xCC6CB19A EQ PUSH2 0x208 JUMPI DUP1 PUSH4 0xED88C68E EQ PUSH2 0x239 JUMPI PUSH0 DUP1 REVERT JUMPDEST DUP1 PUSH4 0x6FDDE03 EQ PUSH2 0x93 JUMPI DUP1 PUSH4 0x22F3E2D4 EQ PUSH2 0xBD JUMPI DUP1 PUSH4 0x29DCB0CF EQ PUSH2 0xEE JUMPI DUP1 PUSH4 0x38AF3EED EQ PUSH2 0x12F JUMPI DUP1 PUSH4 0x7284E416 EQ PUSH2 0x17A JUMPI JUMPDEST PUSH0 DUP1 REVERT JUMPDEST CALLVALUE DUP1 ISZERO PUSH2 0x9E JUMPI PUSH0 DUP1 REVERT JUMPDEST POP PUSH2 0xA7 PUSH2 0x241 JUMP JUMPDEST PUSH1 0x40 MLOAD PUSH2 0xB4 SWAP2 SWAP1 PUSH2 0x6CD JUMP JUMPDEST PUSH1 0x40 MLOAD DUP1 SWAP2 SUB SWAP1 RETURN JUMPDEST CALLVALUE DUP1 ISZERO PUSH2 0xC8 JUMPI PUSH0 DUP1 REVERT JUMPDEST POP PUSH1 0x2 SLOAD PUSH2 0xDE SWAP1 PUSH5 0x100000000 SWAP1 DIV PUSH1 0xFF AND DUP2 JUMP JUMPDEST PUSH1 0x40 MLOAD SWAP1 ISZERO ISZERO DUP2 MSTORE PUSH1 0x20 ADD PUSH2 0xB4 JUMP JUMPDEST CALLVALUE DUP1 ISZERO PUSH2 0xF9 JUMPI PUSH0 DUP1 REVERT JUMPDEST POP PUSH2 0x121 PUSH32 0x0 DUP2 JUMP JUMPDEST PUSH1 0x40 MLOAD SWAP1 DUP2 MSTORE PUSH1 0x20 ADD PUSH2 0xB4 JUMP JUMPDEST CALLVALUE DUP1 ISZERO PUSH2 0x13A JUMPI PUSH0 DUP1 REVERT JUMPDEST POP PUSH2 0x162 PUSH32 0x0 DUP2 JUMP JUMPDEST PUSH1 0x40 MLOAD PUSH1 0x1 PUSH1 0x1 PUSH1 0xA0 SHL SUB SWAP1 SWAP2 AND DUP2 MSTORE PUSH1 0x20 ADD PUSH2 0xB4 JUMP JUMPDEST CALLVALUE DUP1 ISZERO PUSH2 0x185 JUMPI PUSH0 DUP1 REVERT JUMPDEST POP PUSH2 0xA7 PUSH2 0x2CC JUMP JUMPDEST CALLVALUE DUP1 ISZERO PUSH2 0x199 JUMPI PUSH0 DUP1 REVERT JUMPDEST POP PUSH2 0x1C1 PUSH32 0x0 DUP2 JUMP JUMPDEST PUSH1 0x40 MLOAD PUSH4 0xFFFFFFFF SWAP1 SWAP2 AND DUP2 MSTORE PUSH1 0x20 ADD PUSH2 0xB4 JUMP JUMPDEST CALLVALUE DUP1 ISZERO PUSH2 0x1E1 JUMPI PUSH0 DUP1 REVERT JUMPDEST POP PUSH1 0x2 SLOAD PUSH2 0x1C1 SWAP1 PUSH4 0xFFFFFFFF AND DUP2 JUMP JUMPDEST CALLVALUE DUP1 ISZERO PUSH2 0x1FD JUMPI PUSH0 DUP1 REVERT JUMPDEST POP PUSH2 0x206 PUSH2 0x2D9 JUMP JUMPDEST STOP JUMPDEST CALLVALUE DUP1 ISZERO PUSH2 0x213 JUMPI PUSH0 DUP1 REVERT JUMPDEST POP PUSH2 0x1C1 PUSH2 0x222 CALLDATASIZE PUSH1 0x4 PUSH2 0x702 JUMP JUMPDEST PUSH1 0x3 PUSH1 0x20 MSTORE PUSH0 SWAP1 DUP2 MSTORE PUSH1 0x40 SWAP1 KECCAK256 SLOAD PUSH4 0xFFFFFFFF AND DUP2 JUMP JUMPDEST PUSH2 0x206 PUSH2 0x3F4 JUMP JUMPDEST PUSH0 DUP1 SLOAD PUSH2 0x24D SWAP1 PUSH2 0x72F JUMP JUMPDEST DUP1 PUSH1 0x1F ADD PUSH1 0x20 DUP1 SWAP2 DIV MUL PUSH1 0x20 ADD PUSH1 0x40 MLOAD SWAP1 DUP2 ADD PUSH1 0x40 MSTORE DUP1 SWAP3 SWAP2 SWAP1 DUP2 DUP2 MSTORE PUSH1 0x20 ADD DUP3 DUP1 SLOAD PUSH2 0x279 SWAP1 PUSH2 0x72F JUMP JUMPDEST DUP1 ISZERO PUSH2 0x2C4 JUMPI DUP1 PUSH1 0x1F LT PUSH2 0x29B JUMPI PUSH2 0x100 DUP1 DUP4 SLOAD DIV MUL DUP4 MSTORE SWAP2 PUSH1 0x20 ADD SWAP2 PUSH2 0x2C4 JUMP JUMPDEST DUP3 ADD SWAP2 SWAP1 PUSH0 MSTORE PUSH1 0x20 PUSH0 KECCAK256 SWAP1 JUMPDEST DUP2 SLOAD DUP2 MSTORE SWAP1 PUSH1 0x1 ADD SWAP1 PUSH1 0x20 ADD DUP1 DUP4 GT PUSH2 0x2A7 JUMPI DUP3 SWAP1 SUB PUSH1 0x1F AND DUP3 ADD SWAP2 JUMPDEST POP POP POP POP POP DUP2 JUMP JUMPDEST PUSH1 0x1 DUP1 SLOAD PUSH2 0x24D SWAP1 PUSH2 0x72F JUMP JUMPDEST PUSH1 0x2 SLOAD PUSH5 0x100000000 SWAP1 DIV PUSH1 0xFF AND PUSH2 0x338 JUMPI PUSH1 0x40 MLOAD PUSH3 0x461BCD PUSH1 0xE5 SHL DUP2 MSTORE PUSH1 0x20 PUSH1 0x4 DUP3 ADD MSTORE PUSH1 0x1B PUSH1 0x24 DUP3 ADD MSTORE PUSH32 0x5468652043616D706169676E206973206E6F7420616374697665210000000000 PUSH1 0x44 DUP3 ADD MSTORE PUSH1 0x64 ADD JUMPDEST PUSH1 0x40 MLOAD DUP1 SWAP2 SUB SWAP1 REVERT JUMPDEST PUSH32 0x0 TIMESTAMP GT PUSH2 0x3B7 JUMPI PUSH1 0x40 MLOAD PUSH3 0x461BCD PUSH1 0xE5 SHL DUP2 MSTORE PUSH1 0x20 PUSH1 0x4 DUP3 ADD MSTORE PUSH1 0x27 PUSH1 0x24 DUP3 ADD MSTORE PUSH32 0x5468652043616D617069676E277320646561646C696E6520686173206E6F7420 PUSH1 0x44 DUP3 ADD MSTORE PUSH7 0x70617373656421 PUSH1 0xC8 SHL PUSH1 0x64 DUP3 ADD MSTORE PUSH1 0x84 ADD PUSH2 0x32F JUMP JUMPDEST PUSH1 0x2 SLOAD PUSH4 0xFFFFFFFF PUSH32 0x0 DUP2 AND SWAP2 AND GT ISZERO PUSH2 0x3F2 JUMPI PUSH2 0x3F2 PUSH2 0x54D JUMP JUMPDEST JUMP JUMPDEST PUSH1 0x2 SLOAD PUSH5 0x100000000 SWAP1 DIV PUSH1 0xFF AND PUSH2 0x44E JUMPI PUSH1 0x40 MLOAD PUSH3 0x461BCD PUSH1 0xE5 SHL DUP2 MSTORE PUSH1 0x20 PUSH1 0x4 DUP3 ADD MSTORE PUSH1 0x1B PUSH1 0x24 DUP3 ADD MSTORE PUSH32 0x5468652043616D706169676E206973206E6F7420616374697665210000000000 PUSH1 0x44 DUP3 ADD MSTORE PUSH1 0x64 ADD PUSH2 0x32F JUMP JUMPDEST CALLER PUSH0 DUP2 DUP2 MSTORE PUSH1 0x3 PUSH1 0x20 MSTORE PUSH1 0x40 DUP2 KECCAK256 DUP1 SLOAD CALLVALUE SWAP3 DUP4 SWAP3 SWAP2 PUSH2 0x474 SWAP1 DUP5 SWAP1 PUSH4 0xFFFFFFFF AND PUSH2 0x767 JUMP JUMPDEST SWAP3 POP PUSH2 0x100 EXP DUP2 SLOAD DUP2 PUSH4 0xFFFFFFFF MUL NOT AND SWAP1 DUP4 PUSH4 0xFFFFFFFF AND MUL OR SWAP1 SSTORE POP PUSH0 DUP2 PUSH1 0x2 PUSH0 SWAP1 SLOAD SWAP1 PUSH2 0x100 EXP SWAP1 DIV PUSH4 0xFFFFFFFF AND PUSH2 0x4B0 SWAP2 SWAP1 PUSH2 0x767 JUMP JUMPDEST PUSH1 0x2 DUP1 SLOAD PUSH4 0xFFFFFFFF NOT AND PUSH4 0xFFFFFFFF DUP4 DUP2 AND SWAP2 SWAP1 SWAP2 OR SWAP1 SWAP2 SSTORE PUSH1 0x40 MLOAD SWAP1 DUP5 AND DUP2 MSTORE SWAP1 SWAP2 POP PUSH1 0x1 PUSH1 0x1 PUSH1 0xA0 SHL SUB DUP5 AND SWAP1 PUSH32 0x1C839185B36728265E815FDEAD3A2012225928C409ED744579E8B61D174BDA21 SWAP1 PUSH1 0x20 ADD PUSH1 0x40 MLOAD DUP1 SWAP2 SUB SWAP1 LOG2 PUSH32 0x0 PUSH4 0xFFFFFFFF AND DUP2 PUSH4 0xFFFFFFFF AND LT PUSH2 0x548 JUMPI PUSH2 0x548 PUSH2 0x54D JUMP JUMPDEST POP POP POP JUMP JUMPDEST PUSH1 0x2 DUP1 SLOAD PUSH5 0xFFFFFFFFFF NOT DUP2 AND SWAP1 SWAP2 SSTORE PUSH1 0x40 MLOAD PUSH4 0xFFFFFFFF SWAP1 SWAP2 AND SWAP1 PUSH0 SWAP1 PUSH32 0x0 PUSH1 0x1 PUSH1 0x1 PUSH1 0xA0 SHL SUB AND SWAP1 DUP4 SWAP1 DUP4 DUP2 DUP2 DUP2 DUP6 DUP8 GAS CALL SWAP3 POP POP POP RETURNDATASIZE DUP1 PUSH0 DUP2 EQ PUSH2 0x5CE JUMPI PUSH1 0x40 MLOAD SWAP2 POP PUSH1 0x1F NOT PUSH1 0x3F RETURNDATASIZE ADD AND DUP3 ADD PUSH1 0x40 MSTORE RETURNDATASIZE DUP3 MSTORE RETURNDATASIZE PUSH0 PUSH1 0x20 DUP5 ADD RETURNDATACOPY PUSH2 0x5D3 JUMP JUMPDEST PUSH1 0x60 SWAP2 POP JUMPDEST POP POP SWAP1 POP DUP1 PUSH2 0x624 JUMPI PUSH1 0x40 MLOAD PUSH3 0x461BCD PUSH1 0xE5 SHL DUP2 MSTORE PUSH1 0x20 PUSH1 0x4 DUP3 ADD MSTORE PUSH1 0x18 PUSH1 0x24 DUP3 ADD MSTORE PUSH32 0x556E61626C6520746F2072656C656173652066756E6473210000000000000000 PUSH1 0x44 DUP3 ADD MSTORE PUSH1 0x64 ADD PUSH2 0x32F JUMP JUMPDEST PUSH1 0x40 MLOAD PUSH4 0xFFFFFFFF DUP4 AND DUP2 MSTORE PUSH1 0x1 PUSH1 0x1 PUSH1 0xA0 SHL SUB PUSH32 0x0 AND SWAP1 PUSH32 0x3DE67BB1992E4F254DE509DFD7561F97D65E2171867167FBFB7BC25DFA4B2284 SWAP1 PUSH1 0x20 ADD PUSH1 0x40 MLOAD DUP1 SWAP2 SUB SWAP1 LOG2 PUSH1 0x40 DUP1 MLOAD PUSH1 0x1 DUP2 MSTORE PUSH4 0xFFFFFFFF DUP5 AND PUSH1 0x20 DUP3 ADD MSTORE ADDRESS SWAP2 PUSH32 0x5BE9D52EB6D0B698732F8DD5B5F6AD6C44215F77691D4EA4AB0E04DED81E4E0C SWAP2 ADD PUSH1 0x40 MLOAD DUP1 SWAP2 SUB SWAP1 LOG2 POP POP JUMP JUMPDEST PUSH1 0x20 DUP2 MSTORE PUSH0 DUP3 MLOAD DUP1 PUSH1 0x20 DUP5 ADD MSTORE DUP1 PUSH1 0x20 DUP6 ADD PUSH1 0x40 DUP6 ADD MCOPY PUSH0 PUSH1 0x40 DUP3 DUP6 ADD ADD MSTORE PUSH1 0x40 PUSH1 0x1F NOT PUSH1 0x1F DUP4 ADD AND DUP5 ADD ADD SWAP2 POP POP SWAP3 SWAP2 POP POP JUMP JUMPDEST PUSH0 PUSH1 0x20 DUP3 DUP5 SUB SLT ISZERO PUSH2 0x712 JUMPI PUSH0 DUP1 REVERT JUMPDEST DUP2 CALLDATALOAD PUSH1 0x1 PUSH1 0x1 PUSH1 0xA0 SHL SUB DUP2 AND DUP2 EQ PUSH2 0x728 JUMPI PUSH0 DUP1 REVERT JUMPDEST SWAP4 SWAP3 POP POP POP JUMP JUMPDEST PUSH1 0x1 DUP2 DUP2 SHR SWAP1 DUP3 AND DUP1 PUSH2 0x743 JUMPI PUSH1 0x7F DUP3 AND SWAP2 POP JUMPDEST PUSH1 0x20 DUP3 LT DUP2 SUB PUSH2 0x761 JUMPI PUSH4 0x4E487B71 PUSH1 0xE0 SHL PUSH0 MSTORE PUSH1 0x22 PUSH1 0x4 MSTORE PUSH1 0x24 PUSH0 REVERT JUMPDEST POP SWAP2 SWAP1 POP JUMP JUMPDEST PUSH4 0xFFFFFFFF DUP2 DUP2 AND DUP4 DUP3 AND ADD SWAP1 DUP2 GT ISZERO PUSH2 0x78F JUMPI PUSH4 0x4E487B71 PUSH1 0xE0 SHL PUSH0 MSTORE PUSH1 0x11 PUSH1 0x4 MSTORE PUSH1 0x24 PUSH0 REVERT JUMPDEST SWAP3 SWAP2 POP POP JUMP INVALID LOG2 PUSH5 0x6970667358 0x22 SLT KECCAK256 PUSH29 0x50A2709D51A79E02990651C4E3572620BB75249EA88AD181BDDA928049 0xD8 0xB8 PUSH5 0x736F6C6343 STOP ADDMOD BYTE STOP CALLER "
				},
				"gasEstimates": {
					"creation": {
						"codeDepositCost": "399000",
						"executionCost": "infinite",
						"totalCost": "infinite"
					},
					"external": {
						"beneficiary()": "infinite",
						"deadline()": "infinite",
						"description()": "infinite",
						"donate()": "infinite",
						"donations(address)": "2562",
						"finalizeCampaign()": "infinite",
						"fundingGoal()": "infinite",
						"isActive()": "2343",
						"name()": "infinite",
						"totalFunds()": "2334"
					},
					"internal": {
						"refund(address)": "infinite",
						"releaseFunds()": "infinite"
					}
				},
				"methodIdentifiers": {
					"beneficiary()": "38af3eed",
					"deadline()": "29dcb0cf",
					"description()": "7284e416",
					"donate()": "ed88c68e",
					"donations(address)": "cc6cb19a",
					"finalizeCampaign()": "a1211bc0",
					"fundingGoal()": "7a3a0e84",
					"isActive()": "22f3e2d4",
					"name()": "06fdde03",
					"totalFunds()": "968ed600"
				}
			},
			"storageLayout": {
				"storage": [
					{
						"astId": 6,
						"contract": "backend/contracts/Campaign.sol:Campaign",
						"label": "name",
						"offset": 0,
						"slot": "0",
						"type": "t_string_storage"
					},
					{
						"astId": 8,
						"contract": "backend/contracts/Campaign.sol:Campaign",
						"label": "description",
						"offset": 0,
						"slot": "1",
						"type": "t_string_storage"
					},
					{
						"astId": 14,
						"contract": "backend/contracts/Campaign.sol:Campaign",
						"label": "totalFunds",
						"offset": 0,
						"slot": "2",
						"type": "t_uint32"
					},
					{
						"astId": 16,
						"contract": "backend/contracts/Campaign.sol:Campaign",
						"label": "isActive",
						"offset": 4,
						"slot": "2",
						"type": "t_bool"
					},
					{
						"astId": 20,
						"contract": "backend/contracts/Campaign.sol:Campaign",
						"label": "donations",
						"offset": 0,
						"slot": "3",
						"type": "t_mapping(t_address,t_uint32)"
					}
				],
				"types": {
					"t_address": {
						"encoding": "inplace",
						"label": "address",
						"numberOfBytes": "20"
					},
					"t_bool": {
						"encoding": "inplace",
						"label": "bool",
						"numberOfBytes": "1"
					},
					"t_mapping(t_address,t_uint32)": {
						"encoding": "mapping",
						"key": "t_address",
						"label": "mapping(address => uint32)",
						"numberOfBytes": "32",
						"value": "t_uint32"
					},
					"t_string_storage": {
						"encoding": "bytes",
						"label": "string",
						"numberOfBytes": "32"
					},
					"t_uint32": {
						"encoding": "inplace",
						"label": "uint32",
						"numberOfBytes": "4"
					}
				}
			},
			"userdoc": {
				"kind": "user",
				"methods": {},
				"version": 1
			}
		}
	}
}