{
	"backend/contracts/CampaignFactory.sol": {
		"CampaignFactory": {
			"abi": [
				{
					"anonymous": false,
					"inputs": [
						{
							"indexed": true,
							"internalType": "address",
							"name": "campaignAddress",
							"type": "address"
						},
						{
							"indexed": false,
							"internalType": "uint32",
							"name": "fundingGoal",
							"type": "uint32"
						},
						{
							"indexed": false,
							"internalType": "uint256",
							"name": "deadline",
							"type": "uint256"
						}
					],
					"name": "CampaignCreated",
					"type": "event"
				},
				{
					"inputs": [
						{
							"internalType": "string",
							"name": "_name",
							"type": "string"
						},
						{
							"internalType": "string",
							"name": "_description",
							"type": "string"
						},
						{
							"internalType": "uint32",
							"name": "_fundingGoal",
							"type": "uint32"
						},
						{
							"internalType": "uint256",
							"name": "_deadline",
							"type": "uint256"
						}
					],
					"name": "createCampaign",
					"outputs": [],
					"stateMutability": "nonpayable",
					"type": "function"
				}
			],
			"devdoc": {
				"details": "Creates and deploy a new Campaign smart contract whenever any beneficiary creates a campaign",
				"kind": "dev",
				"methods": {
					"createCampaign(string,string,uint32,uint256)": {
						"details": "Allows beneficiaries to create a Campaign with the required details",
						"params": {
							"_deadline": "Timestamp of when the Campaign should be fully funded before it becomes inactive",
							"_description": "Description of the Campaign",
							"_fundingGoal": "Funding Goal for the Campaign in cryptocurrency (SepoliaETH)",
							"_name": "Name of the Campaign"
						}
					}
				},
				"title": "CampaignFactory",
				"version": 1
			},
			"evm": {
				"assembly": "    /* \"backend/contracts/CampaignFactory.sol\":247:2243  contract CampaignFactory {... */\n  mstore(0x40, 0x80)\n  callvalue\n  dup1\n  iszero\n  tag_1\n  jumpi\n  0x00\n  dup1\n  revert\ntag_1:\n  pop\n  dataSize(sub_0)\n  dup1\n  dataOffset(sub_0)\n  0x00\n  codecopy\n  0x00\n  return\nstop\n\nsub_0: assembly {\n        /* \"backend/contracts/CampaignFactory.sol\":247:2243  contract CampaignFactory {... */\n      mstore(0x40, 0x80)\n      callvalue\n      dup1\n      iszero\n      tag_1\n      jumpi\n      0x00\n      dup1\n      revert\n    tag_1:\n      pop\n      jumpi(tag_2, lt(calldatasize, 0x04))\n      shr(0xe0, calldataload(0x00))\n      dup1\n      0x08cfd36e\n      eq\n      tag_3\n      jumpi\n    tag_2:\n      0x00\n      dup1\n      revert\n        /* \"backend/contracts/CampaignFactory.sol\":1044:1698  function createCampaign(... */\n    tag_3:\n      tag_4\n      tag_5\n      calldatasize\n      0x04\n      tag_6\n      jump\t// in\n    tag_5:\n      tag_7\n      jump\t// in\n    tag_4:\n      stop\n    tag_7:\n        /* \"backend/contracts/CampaignFactory.sol\":1266:1283  Campaign campaign */\n      0x00\n        /* \"backend/contracts/CampaignFactory.sol\":1312:1322  msg.sender */\n      caller\n        /* \"backend/contracts/CampaignFactory.sol\":1355:1365  msg.sender */\n      caller\n        /* \"backend/contracts/CampaignFactory.sol\":1379:1384  _name */\n      dup9\n      dup9\n        /* \"backend/contracts/CampaignFactory.sol\":1398:1410  _description */\n      dup9\n      dup9\n        /* \"backend/contracts/CampaignFactory.sol\":1424:1436  _fundingGoal */\n      dup9\n        /* \"backend/contracts/CampaignFactory.sol\":1450:1459  _deadline */\n      dup9\n        /* \"backend/contracts/CampaignFactory.sol\":1286:1469  new Campaign(... */\n      mload(0x40)\n      tag_9\n      swap1\n      tag_10\n      jump\t// in\n    tag_9:\n      tag_11\n      swap9\n      swap8\n      swap7\n      swap6\n      swap5\n      swap4\n      swap3\n      swap2\n      swap1\n      tag_12\n      jump\t// in\n    tag_11:\n      mload(0x40)\n      dup1\n      swap2\n      sub\n      swap1\n      0x00\n      create\n      dup1\n      iszero\n      dup1\n      iszero\n      tag_13\n      jumpi\n      returndatasize\n      0x00\n      dup1\n      returndatacopy\n      revert(0x00, returndatasize)\n    tag_13:\n      pop\n        /* \"backend/contracts/CampaignFactory.sol\":1632:1691  CampaignCreated(address(campaign), _fundingGoal, _deadline) */\n      0x40\n      dup1\n      mload\n        /* \"#utility.yul\":2592:2602   */\n      0xffffffff\n        /* \"#utility.yul\":2580:2603   */\n      dup7\n      and\n        /* \"#utility.yul\":2562:2604   */\n      dup2\n      mstore\n        /* \"#utility.yul\":2635:2637   */\n      0x20\n        /* \"#utility.yul\":2620:2638   */\n      dup2\n      add\n        /* \"#utility.yul\":2613:2647   */\n      dup6\n      swap1\n      mstore\n        /* \"backend/contracts/CampaignFactory.sol\":1266:1469  Campaign campaign = new Campaign(... */\n      swap2\n      swap3\n      pop\n      sub(shl(0xa0, 0x01), 0x01)\n        /* \"backend/contracts/CampaignFactory.sol\":1632:1691  CampaignCreated(address(campaign), _fundingGoal, _deadline) */\n      dup4\n      and\n      swap2\n      0x2a5c48dab8915658fb7bddd512a1f545eb5bff5d1c72cbf9611108d9ad48d48a\n      swap2\n        /* \"#utility.yul\":2535:2553   */\n      add\n        /* \"backend/contracts/CampaignFactory.sol\":1632:1691  CampaignCreated(address(campaign), _fundingGoal, _deadline) */\n      mload(0x40)\n      dup1\n      swap2\n      sub\n      swap1\n      log2\n        /* \"backend/contracts/CampaignFactory.sol\":1208:1698  {... */\n      pop\n        /* \"backend/contracts/CampaignFactory.sol\":1044:1698  function createCampaign(... */\n      pop\n      pop\n      pop\n      pop\n      pop\n      pop\n      jump\t// out\n    tag_10:\n      dataSize(sub_0)\n      dup1\n      dataOffset(sub_0)\n      dup4\n      codecopy\n      add\n      swap1\n      jump\t// out\n        /* \"#utility.yul\":14:362   */\n    tag_16:\n        /* \"#utility.yul\":66:74   */\n      0x00\n        /* \"#utility.yul\":76:82   */\n      dup1\n        /* \"#utility.yul\":130:133   */\n      dup4\n        /* \"#utility.yul\":123:127   */\n      0x1f\n        /* \"#utility.yul\":115:121   */\n      dup5\n        /* \"#utility.yul\":111:128   */\n      add\n        /* \"#utility.yul\":107:134   */\n      slt\n        /* \"#utility.yul\":97:152   */\n      tag_20\n      jumpi\n        /* \"#utility.yul\":148:149   */\n      0x00\n        /* \"#utility.yul\":145:146   */\n      dup1\n        /* \"#utility.yul\":138:150   */\n      revert\n        /* \"#utility.yul\":97:152   */\n    tag_20:\n      pop\n        /* \"#utility.yul\":171:191   */\n      dup2\n      calldataload\n        /* \"#utility.yul\":214:232   */\n      0xffffffffffffffff\n        /* \"#utility.yul\":203:233   */\n      dup2\n      gt\n        /* \"#utility.yul\":200:250   */\n      iszero\n      tag_21\n      jumpi\n        /* \"#utility.yul\":246:247   */\n      0x00\n        /* \"#utility.yul\":243:244   */\n      dup1\n        /* \"#utility.yul\":236:248   */\n      revert\n        /* \"#utility.yul\":200:250   */\n    tag_21:\n        /* \"#utility.yul\":283:287   */\n      0x20\n        /* \"#utility.yul\":275:281   */\n      dup4\n        /* \"#utility.yul\":271:288   */\n      add\n        /* \"#utility.yul\":259:288   */\n      swap2\n      pop\n        /* \"#utility.yul\":335:338   */\n      dup4\n        /* \"#utility.yul\":328:332   */\n      0x20\n        /* \"#utility.yul\":319:325   */\n      dup3\n        /* \"#utility.yul\":311:317   */\n      dup6\n        /* \"#utility.yul\":307:326   */\n      add\n        /* \"#utility.yul\":303:333   */\n      add\n        /* \"#utility.yul\":300:339   */\n      gt\n        /* \"#utility.yul\":297:356   */\n      iszero\n      tag_22\n      jumpi\n        /* \"#utility.yul\":352:353   */\n      0x00\n        /* \"#utility.yul\":349:350   */\n      dup1\n        /* \"#utility.yul\":342:354   */\n      revert\n        /* \"#utility.yul\":297:356   */\n    tag_22:\n        /* \"#utility.yul\":14:362   */\n      swap3\n      pop\n      swap3\n      swap1\n      pop\n      jump\t// out\n        /* \"#utility.yul\":367:1316   */\n    tag_6:\n        /* \"#utility.yul\":476:482   */\n      0x00\n        /* \"#utility.yul\":484:490   */\n      dup1\n        /* \"#utility.yul\":492:498   */\n      0x00\n        /* \"#utility.yul\":500:506   */\n      dup1\n        /* \"#utility.yul\":508:514   */\n      0x00\n        /* \"#utility.yul\":516:522   */\n      dup1\n        /* \"#utility.yul\":569:572   */\n      0x80\n        /* \"#utility.yul\":557:566   */\n      dup8\n        /* \"#utility.yul\":548:555   */\n      dup10\n        /* \"#utility.yul\":544:567   */\n      sub\n        /* \"#utility.yul\":540:573   */\n      slt\n        /* \"#utility.yul\":537:590   */\n      iszero\n      tag_24\n      jumpi\n        /* \"#utility.yul\":586:587   */\n      0x00\n        /* \"#utility.yul\":583:584   */\n      dup1\n        /* \"#utility.yul\":576:588   */\n      revert\n        /* \"#utility.yul\":537:590   */\n    tag_24:\n        /* \"#utility.yul\":626:635   */\n      dup7\n        /* \"#utility.yul\":613:636   */\n      calldataload\n        /* \"#utility.yul\":659:677   */\n      0xffffffffffffffff\n        /* \"#utility.yul\":651:657   */\n      dup2\n        /* \"#utility.yul\":648:678   */\n      gt\n        /* \"#utility.yul\":645:695   */\n      iszero\n      tag_25\n      jumpi\n        /* \"#utility.yul\":691:692   */\n      0x00\n        /* \"#utility.yul\":688:689   */\n      dup1\n        /* \"#utility.yul\":681:693   */\n      revert\n        /* \"#utility.yul\":645:695   */\n    tag_25:\n        /* \"#utility.yul\":730:789   */\n      tag_26\n        /* \"#utility.yul\":781:788   */\n      dup10\n        /* \"#utility.yul\":772:778   */\n      dup3\n        /* \"#utility.yul\":761:770   */\n      dup11\n        /* \"#utility.yul\":757:779   */\n      add\n        /* \"#utility.yul\":730:789   */\n      tag_16\n      jump\t// in\n    tag_26:\n        /* \"#utility.yul\":808:816   */\n      swap1\n      swap8\n      pop\n        /* \"#utility.yul\":704:789   */\n      swap6\n      pop\n      pop\n        /* \"#utility.yul\":896:898   */\n      0x20\n        /* \"#utility.yul\":881:899   */\n      dup8\n      add\n        /* \"#utility.yul\":868:900   */\n      calldataload\n        /* \"#utility.yul\":925:943   */\n      0xffffffffffffffff\n        /* \"#utility.yul\":912:944   */\n      dup2\n      gt\n        /* \"#utility.yul\":909:961   */\n      iszero\n      tag_27\n      jumpi\n        /* \"#utility.yul\":957:958   */\n      0x00\n        /* \"#utility.yul\":954:955   */\n      dup1\n        /* \"#utility.yul\":947:959   */\n      revert\n        /* \"#utility.yul\":909:961   */\n    tag_27:\n        /* \"#utility.yul\":996:1057   */\n      tag_28\n        /* \"#utility.yul\":1049:1056   */\n      dup10\n        /* \"#utility.yul\":1038:1046   */\n      dup3\n        /* \"#utility.yul\":1027:1036   */\n      dup11\n        /* \"#utility.yul\":1023:1047   */\n      add\n        /* \"#utility.yul\":996:1057   */\n      tag_16\n      jump\t// in\n    tag_28:\n        /* \"#utility.yul\":1076:1084   */\n      swap1\n      swap6\n      pop\n        /* \"#utility.yul\":970:1057   */\n      swap4\n      pop\n      pop\n        /* \"#utility.yul\":1161:1163   */\n      0x40\n        /* \"#utility.yul\":1146:1164   */\n      dup8\n      add\n        /* \"#utility.yul\":1133:1165   */\n      calldataload\n        /* \"#utility.yul\":1205:1215   */\n      0xffffffff\n        /* \"#utility.yul\":1194:1216   */\n      dup2\n      and\n        /* \"#utility.yul\":1184:1217   */\n      dup2\n      eq\n        /* \"#utility.yul\":1174:1235   */\n      tag_29\n      jumpi\n        /* \"#utility.yul\":1231:1232   */\n      0x00\n        /* \"#utility.yul\":1228:1229   */\n      dup1\n        /* \"#utility.yul\":1221:1233   */\n      revert\n        /* \"#utility.yul\":1174:1235   */\n    tag_29:\n        /* \"#utility.yul\":1254:1259   */\n      dup1\n        /* \"#utility.yul\":1244:1259   */\n      swap3\n      pop\n      pop\n        /* \"#utility.yul\":1306:1308   */\n      0x60\n        /* \"#utility.yul\":1295:1304   */\n      dup8\n        /* \"#utility.yul\":1291:1309   */\n      add\n        /* \"#utility.yul\":1278:1310   */\n      calldataload\n        /* \"#utility.yul\":1268:1310   */\n      swap1\n      pop\n        /* \"#utility.yul\":367:1316   */\n      swap3\n      swap6\n      pop\n      swap3\n      swap6\n      pop\n      swap3\n      swap6\n      jump\t// out\n        /* \"#utility.yul\":1321:1588   */\n    tag_17:\n        /* \"#utility.yul\":1410:1416   */\n      dup2\n        /* \"#utility.yul\":1405:1408   */\n      dup4\n        /* \"#utility.yul\":1398:1417   */\n      mstore\n        /* \"#utility.yul\":1462:1468   */\n      dup2\n        /* \"#utility.yul\":1455:1460   */\n      dup2\n        /* \"#utility.yul\":1448:1452   */\n      0x20\n        /* \"#utility.yul\":1443:1446   */\n      dup6\n        /* \"#utility.yul\":1439:1453   */\n      add\n        /* \"#utility.yul\":1426:1469   */\n      calldatacopy\n      pop\n        /* \"#utility.yul\":1514:1515   */\n      0x00\n        /* \"#utility.yul\":1489:1505   */\n      dup3\n      dup3\n      add\n        /* \"#utility.yul\":1507:1511   */\n      0x20\n        /* \"#utility.yul\":1485:1512   */\n      swap1\n      dup2\n      add\n        /* \"#utility.yul\":1478:1516   */\n      swap2\n      swap1\n      swap2\n      mstore\n        /* \"#utility.yul\":1570:1572   */\n      0x1f\n        /* \"#utility.yul\":1549:1564   */\n      swap1\n      swap2\n      add\n      not(0x1f)\n        /* \"#utility.yul\":1545:1574   */\n      and\n        /* \"#utility.yul\":1536:1575   */\n      swap1\n      swap2\n      add\n        /* \"#utility.yul\":1532:1582   */\n      add\n      swap1\n        /* \"#utility.yul\":1321:1588   */\n      jump\t// out\n        /* \"#utility.yul\":1593:2385   */\n    tag_12:\n      sub(shl(0xa0, 0x01), 0x01)\n        /* \"#utility.yul\":1920:1952   */\n      dup10\n      dup2\n      and\n        /* \"#utility.yul\":1902:1953   */\n      dup3\n      mstore\n        /* \"#utility.yul\":1989:2021   */\n      dup9\n      and\n        /* \"#utility.yul\":1984:1986   */\n      0x20\n        /* \"#utility.yul\":1969:1987   */\n      dup3\n      add\n        /* \"#utility.yul\":1962:2022   */\n      mstore\n        /* \"#utility.yul\":2058:2061   */\n      0xc0\n        /* \"#utility.yul\":2053:2055   */\n      0x40\n        /* \"#utility.yul\":2038:2056   */\n      dup3\n      add\n        /* \"#utility.yul\":2031:2062   */\n      dup2\n      swap1\n      mstore\n      0x00\n      swap1\n        /* \"#utility.yul\":2085:2148   */\n      tag_32\n      swap1\n        /* \"#utility.yul\":2128:2147   */\n      dup4\n      add\n        /* \"#utility.yul\":2120:2126   */\n      dup9\n        /* \"#utility.yul\":2112:2118   */\n      dup11\n        /* \"#utility.yul\":2085:2148   */\n      tag_17\n      jump\t// in\n    tag_32:\n        /* \"#utility.yul\":2196:2205   */\n      dup3\n        /* \"#utility.yul\":2188:2194   */\n      dup2\n        /* \"#utility.yul\":2184:2206   */\n      sub\n        /* \"#utility.yul\":2179:2181   */\n      0x60\n        /* \"#utility.yul\":2168:2177   */\n      dup5\n        /* \"#utility.yul\":2164:2182   */\n      add\n        /* \"#utility.yul\":2157:2207   */\n      mstore\n        /* \"#utility.yul\":2224:2274   */\n      tag_33\n        /* \"#utility.yul\":2267:2273   */\n      dup2\n        /* \"#utility.yul\":2259:2265   */\n      dup8\n        /* \"#utility.yul\":2251:2257   */\n      dup10\n        /* \"#utility.yul\":2224:2274   */\n      tag_17\n      jump\t// in\n    tag_33:\n        /* \"#utility.yul\":2323:2333   */\n      0xffffffff\n        /* \"#utility.yul\":2311:2334   */\n      swap6\n      swap1\n      swap6\n      and\n        /* \"#utility.yul\":2305:2308   */\n      0x80\n        /* \"#utility.yul\":2290:2309   */\n      dup5\n      add\n        /* \"#utility.yul\":2283:2335   */\n      mstore\n      pop\n      pop\n        /* \"#utility.yul\":2366:2369   */\n      0xa0\n        /* \"#utility.yul\":2351:2370   */\n      add\n        /* \"#utility.yul\":2344:2379   */\n      mstore\n        /* \"#utility.yul\":2216:2274   */\n      swap7\n        /* \"#utility.yul\":1593:2385   */\n      swap6\n      pop\n      pop\n      pop\n      pop\n      pop\n      pop\n      jump\t// out\n    stop\n\n    sub_0: assembly {\n            /* \"backend/contracts/Campaign.sol\":226:8942  contract Campaign {... */\n          mstore(0x40, 0xe0)\n            /* \"backend/contracts/Campaign.sol\":1245:1786  constructor(... */\n          callvalue\n          dup1\n          iszero\n          tag_1\n          jumpi\n          0x00\n          dup1\n          revert\n        tag_1:\n          pop\n          mload(0x40)\n          sub(codesize, bytecodeSize)\n          dup1\n          bytecodeSize\n          dup4\n          codecopy\n          dup2\n          add\n          0x40\n          dup2\n          swap1\n          mstore\n          tag_2\n          swap2\n          tag_3\n          jump\t// in\n        tag_2:\n          sub(shl(0xa0, 0x01), 0x01)\n            /* \"backend/contracts/Campaign.sol\":1539:1565  beneficiary = _beneficiary */\n          dup7\n          dup2\n          and\n          0x80\n          mstore\n            /* \"backend/contracts/Campaign.sol\":1575:1580  admin */\n          0x05\n            /* \"backend/contracts/Campaign.sol\":1575:1589  admin = _admin */\n          dup1\n          sload\n          not(sub(shl(0xa0, 0x01), 0x01))\n          and\n          swap2\n          dup8\n          and\n          swap2\n          swap1\n          swap2\n          or\n          swap1\n          sstore\n          0x00\n            /* \"backend/contracts/Campaign.sol\":1599:1611  name = _name */\n          tag_6\n            /* \"backend/contracts/Campaign.sol\":1606:1611  _name */\n          dup6\n          dup3\n            /* \"backend/contracts/Campaign.sol\":1599:1611  name = _name */\n          tag_7\n          jump\t// in\n        tag_6:\n          pop\n            /* \"backend/contracts/Campaign.sol\":1621:1632  description */\n          0x01\n            /* \"backend/contracts/Campaign.sol\":1621:1647  description = _description */\n          tag_8\n            /* \"backend/contracts/Campaign.sol\":1635:1647  _description */\n          dup5\n            /* \"backend/contracts/Campaign.sol\":1621:1632  description */\n          dup3\n            /* \"backend/contracts/Campaign.sol\":1621:1647  description = _description */\n          tag_7\n          jump\t// in\n        tag_8:\n          pop\n            /* \"backend/contracts/Campaign.sol\":1657:1683  fundingGoal = _fundingGoal */\n          0xffffffff\n          swap1\n          swap2\n          and\n          0xc0\n          mstore\n            /* \"backend/contracts/Campaign.sol\":1693:1713  deadline = _deadline */\n          0xa0\n          mstore\n          pop\n          pop\n            /* \"backend/contracts/Campaign.sol\":1723:1731  isActive */\n          0x02\n            /* \"backend/contracts/Campaign.sol\":1723:1738  isActive = true */\n          dup1\n          sload\n          not(shl(0x20, 0xff))\n          and\n          0x0100000000\n          or\n          swap1\n          sstore\n          pop\n            /* \"backend/contracts/Campaign.sol\":226:8942  contract Campaign {... */\n          tag_17\n          swap1\n          pop\n          jump\n            /* \"#utility.yul\":14:191   */\n        tag_10:\n            /* \"#utility.yul\":93:106   */\n          dup1\n          mload\n          sub(shl(0xa0, 0x01), 0x01)\n            /* \"#utility.yul\":135:166   */\n          dup2\n          and\n            /* \"#utility.yul\":125:167   */\n          dup2\n          eq\n            /* \"#utility.yul\":115:185   */\n          tag_19\n          jumpi\n            /* \"#utility.yul\":181:182   */\n          0x00\n            /* \"#utility.yul\":178:179   */\n          dup1\n            /* \"#utility.yul\":171:183   */\n          revert\n            /* \"#utility.yul\":115:185   */\n        tag_19:\n            /* \"#utility.yul\":14:191   */\n          swap2\n          swap1\n          pop\n          jump\t// out\n            /* \"#utility.yul\":196:323   */\n        tag_11:\n            /* \"#utility.yul\":257:267   */\n          0x4e487b71\n            /* \"#utility.yul\":252:255   */\n          0xe0\n            /* \"#utility.yul\":248:268   */\n          shl\n            /* \"#utility.yul\":245:246   */\n          0x00\n            /* \"#utility.yul\":238:269   */\n          mstore\n            /* \"#utility.yul\":288:292   */\n          0x41\n            /* \"#utility.yul\":285:286   */\n          0x04\n            /* \"#utility.yul\":278:293   */\n          mstore\n            /* \"#utility.yul\":312:316   */\n          0x24\n            /* \"#utility.yul\":309:310   */\n          0x00\n            /* \"#utility.yul\":302:317   */\n          revert\n            /* \"#utility.yul\":328:1051   */\n        tag_12:\n            /* \"#utility.yul\":382:387   */\n          0x00\n            /* \"#utility.yul\":435:438   */\n          dup3\n            /* \"#utility.yul\":428:432   */\n          0x1f\n            /* \"#utility.yul\":420:426   */\n          dup4\n            /* \"#utility.yul\":416:433   */\n          add\n            /* \"#utility.yul\":412:439   */\n          slt\n            /* \"#utility.yul\":402:457   */\n          tag_22\n          jumpi\n            /* \"#utility.yul\":453:454   */\n          0x00\n            /* \"#utility.yul\":450:451   */\n          dup1\n            /* \"#utility.yul\":443:455   */\n          revert\n            /* \"#utility.yul\":402:457   */\n        tag_22:\n            /* \"#utility.yul\":480:493   */\n          dup2\n          mload\n          sub(shl(0x40, 0x01), 0x01)\n            /* \"#utility.yul\":505:535   */\n          dup2\n          gt\n            /* \"#utility.yul\":502:558   */\n          iszero\n          tag_24\n          jumpi\n            /* \"#utility.yul\":538:556   */\n          tag_24\n          tag_11\n          jump\t// in\n        tag_24:\n            /* \"#utility.yul\":587:589   */\n          0x40\n            /* \"#utility.yul\":581:590   */\n          mload\n            /* \"#utility.yul\":679:681   */\n          0x1f\n            /* \"#utility.yul\":641:658   */\n          dup3\n          add\n          not(0x1f)\n            /* \"#utility.yul\":637:668   */\n          swap1\n          dup2\n          and\n            /* \"#utility.yul\":670:672   */\n          0x3f\n            /* \"#utility.yul\":633:673   */\n          add\n            /* \"#utility.yul\":629:683   */\n          and\n            /* \"#utility.yul\":617:684   */\n          dup2\n          add\n          sub(shl(0x40, 0x01), 0x01)\n            /* \"#utility.yul\":699:733   */\n          dup2\n          gt\n            /* \"#utility.yul\":735:757   */\n          dup3\n          dup3\n          lt\n            /* \"#utility.yul\":696:758   */\n          or\n            /* \"#utility.yul\":693:781   */\n          iszero\n          tag_26\n          jumpi\n            /* \"#utility.yul\":761:779   */\n          tag_26\n          tag_11\n          jump\t// in\n        tag_26:\n            /* \"#utility.yul\":797:799   */\n          0x40\n            /* \"#utility.yul\":790:812   */\n          mstore\n            /* \"#utility.yul\":821:843   */\n          dup2\n          dup2\n          mstore\n            /* \"#utility.yul\":862:881   */\n          dup4\n          dup3\n          add\n            /* \"#utility.yul\":883:887   */\n          0x20\n            /* \"#utility.yul\":858:888   */\n          add\n            /* \"#utility.yul\":855:894   */\n          dup6\n          lt\n            /* \"#utility.yul\":852:911   */\n          iszero\n          tag_27\n          jumpi\n            /* \"#utility.yul\":907:908   */\n          0x00\n            /* \"#utility.yul\":904:905   */\n          dup1\n            /* \"#utility.yul\":897:909   */\n          revert\n            /* \"#utility.yul\":852:911   */\n        tag_27:\n            /* \"#utility.yul\":964:970   */\n          dup2\n            /* \"#utility.yul\":957:961   */\n          0x20\n            /* \"#utility.yul\":949:955   */\n          dup6\n            /* \"#utility.yul\":945:962   */\n          add\n            /* \"#utility.yul\":938:942   */\n          0x20\n            /* \"#utility.yul\":930:936   */\n          dup4\n            /* \"#utility.yul\":926:943   */\n          add\n            /* \"#utility.yul\":920:971   */\n          mcopy\n            /* \"#utility.yul\":1019:1020   */\n          0x00\n            /* \"#utility.yul\":991:1010   */\n          swap2\n          dup2\n          add\n            /* \"#utility.yul\":1012:1016   */\n          0x20\n            /* \"#utility.yul\":987:1017   */\n          add\n            /* \"#utility.yul\":980:1021   */\n          swap2\n          swap1\n          swap2\n          mstore\n            /* \"#utility.yul\":995:1001   */\n          swap4\n            /* \"#utility.yul\":328:1051   */\n          swap3\n          pop\n          pop\n          pop\n          jump\t// out\n            /* \"#utility.yul\":1056:2004   */\n        tag_3:\n            /* \"#utility.yul\":1190:1196   */\n          0x00\n            /* \"#utility.yul\":1198:1204   */\n          dup1\n            /* \"#utility.yul\":1206:1212   */\n          0x00\n            /* \"#utility.yul\":1214:1220   */\n          dup1\n            /* \"#utility.yul\":1222:1228   */\n          0x00\n            /* \"#utility.yul\":1230:1236   */\n          dup1\n            /* \"#utility.yul\":1283:1286   */\n          0xc0\n            /* \"#utility.yul\":1271:1280   */\n          dup8\n            /* \"#utility.yul\":1262:1269   */\n          dup10\n            /* \"#utility.yul\":1258:1281   */\n          sub\n            /* \"#utility.yul\":1254:1287   */\n          slt\n            /* \"#utility.yul\":1251:1304   */\n          iszero\n          tag_29\n          jumpi\n            /* \"#utility.yul\":1300:1301   */\n          0x00\n            /* \"#utility.yul\":1297:1298   */\n          dup1\n            /* \"#utility.yul\":1290:1302   */\n          revert\n            /* \"#utility.yul\":1251:1304   */\n        tag_29:\n            /* \"#utility.yul\":1323:1363   */\n          tag_30\n            /* \"#utility.yul\":1353:1362   */\n          dup8\n            /* \"#utility.yul\":1323:1363   */\n          tag_10\n          jump\t// in\n        tag_30:\n            /* \"#utility.yul\":1313:1363   */\n          swap6\n          pop\n            /* \"#utility.yul\":1382:1431   */\n          tag_31\n            /* \"#utility.yul\":1427:1429   */\n          0x20\n            /* \"#utility.yul\":1416:1425   */\n          dup9\n            /* \"#utility.yul\":1412:1430   */\n          add\n            /* \"#utility.yul\":1382:1431   */\n          tag_10\n          jump\t// in\n        tag_31:\n            /* \"#utility.yul\":1475:1477   */\n          0x40\n            /* \"#utility.yul\":1460:1478   */\n          dup9\n          add\n            /* \"#utility.yul\":1454:1479   */\n          mload\n            /* \"#utility.yul\":1372:1431   */\n          swap1\n          swap6\n          pop\n          sub(shl(0x40, 0x01), 0x01)\n            /* \"#utility.yul\":1491:1521   */\n          dup2\n          gt\n            /* \"#utility.yul\":1488:1538   */\n          iszero\n          tag_32\n          jumpi\n            /* \"#utility.yul\":1534:1535   */\n          0x00\n            /* \"#utility.yul\":1531:1532   */\n          dup1\n            /* \"#utility.yul\":1524:1536   */\n          revert\n            /* \"#utility.yul\":1488:1538   */\n        tag_32:\n            /* \"#utility.yul\":1557:1618   */\n          tag_33\n            /* \"#utility.yul\":1610:1617   */\n          dup10\n            /* \"#utility.yul\":1601:1607   */\n          dup3\n            /* \"#utility.yul\":1590:1599   */\n          dup11\n            /* \"#utility.yul\":1586:1608   */\n          add\n            /* \"#utility.yul\":1557:1618   */\n          tag_12\n          jump\t// in\n        tag_33:\n            /* \"#utility.yul\":1664:1666   */\n          0x60\n            /* \"#utility.yul\":1649:1667   */\n          dup10\n          add\n            /* \"#utility.yul\":1643:1668   */\n          mload\n            /* \"#utility.yul\":1547:1618   */\n          swap1\n          swap6\n          pop\n            /* \"#utility.yul\":1643:1668   */\n          swap1\n          pop\n          sub(shl(0x40, 0x01), 0x01)\n            /* \"#utility.yul\":1680:1712   */\n          dup2\n          gt\n            /* \"#utility.yul\":1677:1729   */\n          iszero\n          tag_34\n          jumpi\n            /* \"#utility.yul\":1725:1726   */\n          0x00\n            /* \"#utility.yul\":1722:1723   */\n          dup1\n            /* \"#utility.yul\":1715:1727   */\n          revert\n            /* \"#utility.yul\":1677:1729   */\n        tag_34:\n            /* \"#utility.yul\":1748:1811   */\n          tag_35\n            /* \"#utility.yul\":1803:1810   */\n          dup10\n            /* \"#utility.yul\":1792:1800   */\n          dup3\n            /* \"#utility.yul\":1781:1790   */\n          dup11\n            /* \"#utility.yul\":1777:1801   */\n          add\n            /* \"#utility.yul\":1748:1811   */\n          tag_12\n          jump\t// in\n        tag_35:\n            /* \"#utility.yul\":1738:1811   */\n          swap4\n          pop\n          pop\n            /* \"#utility.yul\":1854:1857   */\n          0x80\n            /* \"#utility.yul\":1843:1852   */\n          dup8\n            /* \"#utility.yul\":1839:1858   */\n          add\n            /* \"#utility.yul\":1833:1859   */\n          mload\n            /* \"#utility.yul\":1899:1909   */\n          0xffffffff\n            /* \"#utility.yul\":1892:1897   */\n          dup2\n            /* \"#utility.yul\":1888:1910   */\n          and\n            /* \"#utility.yul\":1881:1886   */\n          dup2\n            /* \"#utility.yul\":1878:1911   */\n          eq\n            /* \"#utility.yul\":1868:1929   */\n          tag_36\n          jumpi\n            /* \"#utility.yul\":1925:1926   */\n          0x00\n            /* \"#utility.yul\":1922:1923   */\n          dup1\n            /* \"#utility.yul\":1915:1927   */\n          revert\n            /* \"#utility.yul\":1868:1929   */\n        tag_36:\n            /* \"#utility.yul\":1948:1953   */\n          dup1\n            /* \"#utility.yul\":1938:1953   */\n          swap3\n          pop\n          pop\n            /* \"#utility.yul\":1993:1996   */\n          0xa0\n            /* \"#utility.yul\":1982:1991   */\n          dup8\n            /* \"#utility.yul\":1978:1997   */\n          add\n            /* \"#utility.yul\":1972:1998   */\n          mload\n            /* \"#utility.yul\":1962:1998   */\n          swap1\n          pop\n            /* \"#utility.yul\":1056:2004   */\n          swap3\n          swap6\n          pop\n          swap3\n          swap6\n          pop\n          swap3\n          swap6\n          jump\t// out\n            /* \"#utility.yul\":2009:2389   */\n        tag_13:\n            /* \"#utility.yul\":2088:2089   */\n          0x01\n            /* \"#utility.yul\":2084:2096   */\n          dup2\n          dup2\n          shr\n          swap1\n            /* \"#utility.yul\":2131:2143   */\n          dup3\n          and\n          dup1\n            /* \"#utility.yul\":2152:2213   */\n          tag_38\n          jumpi\n            /* \"#utility.yul\":2206:2210   */\n          0x7f\n            /* \"#utility.yul\":2198:2204   */\n          dup3\n            /* \"#utility.yul\":2194:2211   */\n          and\n            /* \"#utility.yul\":2184:2211   */\n          swap2\n          pop\n            /* \"#utility.yul\":2152:2213   */\n        tag_38:\n            /* \"#utility.yul\":2259:2261   */\n          0x20\n            /* \"#utility.yul\":2251:2257   */\n          dup3\n            /* \"#utility.yul\":2248:2262   */\n          lt\n            /* \"#utility.yul\":2228:2246   */\n          dup2\n            /* \"#utility.yul\":2225:2263   */\n          sub\n            /* \"#utility.yul\":2222:2383   */\n          tag_39\n          jumpi\n            /* \"#utility.yul\":2305:2315   */\n          0x4e487b71\n            /* \"#utility.yul\":2300:2303   */\n          0xe0\n            /* \"#utility.yul\":2296:2316   */\n          shl\n            /* \"#utility.yul\":2293:2294   */\n          0x00\n            /* \"#utility.yul\":2286:2317   */\n          mstore\n            /* \"#utility.yul\":2340:2344   */\n          0x22\n            /* \"#utility.yul\":2337:2338   */\n          0x04\n            /* \"#utility.yul\":2330:2345   */\n          mstore\n            /* \"#utility.yul\":2368:2372   */\n          0x24\n            /* \"#utility.yul\":2365:2366   */\n          0x00\n            /* \"#utility.yul\":2358:2373   */\n          revert\n            /* \"#utility.yul\":2222:2383   */\n        tag_39:\n          pop\n            /* \"#utility.yul\":2009:2389   */\n          swap2\n          swap1\n          pop\n          jump\t// out\n            /* \"#utility.yul\":2520:3038   */\n        tag_15:\n            /* \"#utility.yul\":2622:2624   */\n          0x1f\n            /* \"#utility.yul\":2617:2620   */\n          dup3\n            /* \"#utility.yul\":2614:2625   */\n          gt\n            /* \"#utility.yul\":2611:3032   */\n          iszero\n          tag_42\n          jumpi\n            /* \"#utility.yul\":2658:2663   */\n          dup1\n            /* \"#utility.yul\":2655:2656   */\n          0x00\n            /* \"#utility.yul\":2648:2664   */\n          mstore\n            /* \"#utility.yul\":2702:2706   */\n          0x20\n            /* \"#utility.yul\":2699:2700   */\n          0x00\n            /* \"#utility.yul\":2689:2707   */\n          keccak256\n            /* \"#utility.yul\":2772:2774   */\n          0x1f\n            /* \"#utility.yul\":2760:2770   */\n          dup5\n            /* \"#utility.yul\":2756:2775   */\n          add\n            /* \"#utility.yul\":2753:2754   */\n          0x05\n            /* \"#utility.yul\":2749:2776   */\n          shr\n            /* \"#utility.yul\":2743:2747   */\n          dup2\n            /* \"#utility.yul\":2739:2777   */\n          add\n            /* \"#utility.yul\":2808:2812   */\n          0x20\n            /* \"#utility.yul\":2796:2806   */\n          dup6\n            /* \"#utility.yul\":2793:2813   */\n          lt\n            /* \"#utility.yul\":2790:2837   */\n          iszero\n          tag_43\n          jumpi\n          pop\n            /* \"#utility.yul\":2831:2835   */\n          dup1\n            /* \"#utility.yul\":2790:2837   */\n        tag_43:\n            /* \"#utility.yul\":2886:2888   */\n          0x1f\n            /* \"#utility.yul\":2881:2884   */\n          dup5\n            /* \"#utility.yul\":2877:2889   */\n          add\n            /* \"#utility.yul\":2874:2875   */\n          0x05\n            /* \"#utility.yul\":2870:2890   */\n          shr\n            /* \"#utility.yul\":2864:2868   */\n          dup3\n            /* \"#utility.yul\":2860:2891   */\n          add\n            /* \"#utility.yul\":2850:2891   */\n          swap2\n          pop\n            /* \"#utility.yul\":2941:3022   */\n        tag_44:\n            /* \"#utility.yul\":2959:2961   */\n          dup2\n            /* \"#utility.yul\":2952:2957   */\n          dup2\n            /* \"#utility.yul\":2949:2962   */\n          lt\n            /* \"#utility.yul\":2941:3022   */\n          iszero\n          tag_46\n          jumpi\n            /* \"#utility.yul\":3018:3019   */\n          0x00\n            /* \"#utility.yul\":3004:3020   */\n          dup2\n          sstore\n            /* \"#utility.yul\":2985:2986   */\n          0x01\n            /* \"#utility.yul\":2974:2987   */\n          add\n            /* \"#utility.yul\":2941:3022   */\n          jump(tag_44)\n        tag_46:\n            /* \"#utility.yul\":2945:2948   */\n          pop\n          pop\n            /* \"#utility.yul\":2611:3032   */\n        tag_42:\n            /* \"#utility.yul\":2520:3038   */\n          pop\n          pop\n          pop\n          jump\t// out\n            /* \"#utility.yul\":3214:4513   */\n        tag_7:\n            /* \"#utility.yul\":3334:3344   */\n          dup2\n          mload\n          sub(shl(0x40, 0x01), 0x01)\n            /* \"#utility.yul\":3356:3386   */\n          dup2\n          gt\n            /* \"#utility.yul\":3353:3409   */\n          iszero\n          tag_50\n          jumpi\n            /* \"#utility.yul\":3389:3407   */\n          tag_50\n          tag_11\n          jump\t// in\n        tag_50:\n            /* \"#utility.yul\":3418:3515   */\n          tag_51\n            /* \"#utility.yul\":3508:3514   */\n          dup2\n            /* \"#utility.yul\":3468:3506   */\n          tag_52\n            /* \"#utility.yul\":3500:3504   */\n          dup5\n            /* \"#utility.yul\":3494:3505   */\n          sload\n            /* \"#utility.yul\":3468:3506   */\n          tag_13\n          jump\t// in\n        tag_52:\n            /* \"#utility.yul\":3462:3466   */\n          dup5\n            /* \"#utility.yul\":3418:3515   */\n          tag_15\n          jump\t// in\n        tag_51:\n            /* \"#utility.yul\":3564:3568   */\n          0x20\n            /* \"#utility.yul\":3595:3597   */\n          0x1f\n            /* \"#utility.yul\":3584:3598   */\n          dup3\n          gt\n            /* \"#utility.yul\":3612:3613   */\n          0x01\n            /* \"#utility.yul\":3607:4256   */\n          dup2\n          eq\n          tag_54\n          jumpi\n            /* \"#utility.yul\":4300:4301   */\n          0x00\n            /* \"#utility.yul\":4317:4323   */\n          dup4\n            /* \"#utility.yul\":4314:4403   */\n          iszero\n          tag_55\n          jumpi\n          pop\n            /* \"#utility.yul\":4369:4388   */\n          dup5\n          dup3\n          add\n            /* \"#utility.yul\":4363:4389   */\n          mload\n            /* \"#utility.yul\":4314:4403   */\n        tag_55:\n          not(0x00)\n            /* \"#utility.yul\":3171:3172   */\n          0x03\n            /* \"#utility.yul\":3167:3178   */\n          dup6\n          swap1\n          shl\n            /* \"#utility.yul\":3163:3187   */\n          shr\n            /* \"#utility.yul\":3159:3188   */\n          not\n            /* \"#utility.yul\":3149:3189   */\n          and\n            /* \"#utility.yul\":3195:3196   */\n          0x01\n            /* \"#utility.yul\":3191:3202   */\n          dup5\n          swap1\n          shl\n            /* \"#utility.yul\":3146:3203   */\n          or\n            /* \"#utility.yul\":4416:4497   */\n          dup5\n          sstore\n            /* \"#utility.yul\":3577:4507   */\n          jump(tag_46)\n            /* \"#utility.yul\":3607:4256   */\n        tag_54:\n            /* \"#utility.yul\":2467:2468   */\n          0x00\n            /* \"#utility.yul\":2460:2474   */\n          dup5\n          dup2\n          mstore\n            /* \"#utility.yul\":2504:2508   */\n          0x20\n            /* \"#utility.yul\":2491:2509   */\n          dup2\n          keccak256\n          not(0x1f)\n            /* \"#utility.yul\":3643:3663   */\n          dup6\n          and\n          swap2\n            /* \"#utility.yul\":3761:3983   */\n        tag_58:\n            /* \"#utility.yul\":3775:3782   */\n          dup3\n            /* \"#utility.yul\":3772:3773   */\n          dup2\n            /* \"#utility.yul\":3769:3783   */\n          lt\n            /* \"#utility.yul\":3761:3983   */\n          iszero\n          tag_60\n          jumpi\n            /* \"#utility.yul\":3857:3876   */\n          dup8\n          dup6\n          add\n            /* \"#utility.yul\":3851:3877   */\n          mload\n            /* \"#utility.yul\":3836:3878   */\n          dup3\n          sstore\n            /* \"#utility.yul\":3964:3968   */\n          0x20\n            /* \"#utility.yul\":3949:3969   */\n          swap5\n          dup6\n          add\n          swap5\n            /* \"#utility.yul\":3917:3918   */\n          0x01\n            /* \"#utility.yul\":3905:3919   */\n          swap1\n          swap3\n          add\n          swap2\n            /* \"#utility.yul\":3791:3803   */\n          add\n            /* \"#utility.yul\":3761:3983   */\n          jump(tag_58)\n        tag_60:\n            /* \"#utility.yul\":3765:3768   */\n          pop\n            /* \"#utility.yul\":4011:4017   */\n          dup5\n            /* \"#utility.yul\":4002:4009   */\n          dup3\n            /* \"#utility.yul\":3999:4018   */\n          lt\n            /* \"#utility.yul\":3996:4197   */\n          iszero\n          tag_61\n          jumpi\n            /* \"#utility.yul\":4072:4091   */\n          dup7\n          dup5\n          add\n            /* \"#utility.yul\":4066:4092   */\n          mload\n          not(0x00)\n            /* \"#utility.yul\":4155:4156   */\n          0x03\n            /* \"#utility.yul\":4151:4165   */\n          dup8\n          swap1\n          shl\n            /* \"#utility.yul\":4167:4170   */\n          0xf8\n            /* \"#utility.yul\":4147:4171   */\n          and\n            /* \"#utility.yul\":4143:4180   */\n          shr\n            /* \"#utility.yul\":4139:4181   */\n          not\n            /* \"#utility.yul\":4124:4182   */\n          and\n            /* \"#utility.yul\":4109:4183   */\n          dup2\n          sstore\n            /* \"#utility.yul\":3996:4197   */\n        tag_61:\n          pop\n          pop\n          pop\n          pop\n            /* \"#utility.yul\":4243:4244   */\n          0x01\n            /* \"#utility.yul\":4227:4241   */\n          swap1\n          dup2\n          shl\n            /* \"#utility.yul\":4223:4245   */\n          add\n            /* \"#utility.yul\":4210:4246   */\n          swap1\n          sstore\n          pop\n            /* \"#utility.yul\":3214:4513   */\n          jump\t// out\n        tag_17:\n            /* \"backend/contracts/Campaign.sol\":226:8942  contract Campaign {... */\n          mload(0x80)\n          mload(0xa0)\n          mload(0xc0)\n          codecopy(0x00, dataOffset(sub_0), dataSize(sub_0))\n          0x00\n          assignImmutable(\"0x7f8b6b088b6d74c2852fc86c796dca07b44eed6fb3daf5e6b59f7c364db14528\")\n          0x00\n          assignImmutable(\"0x1a192fabce13988b84994d4296e6cdc418d55e2f1d7f942188d4040b94fc57ac\")\n          0x00\n          assignImmutable(\"0x13600b294191fc92924bb3ce4b969c1e7e2bab8f4c93c3fc6d0a51733df3c060\")\n          return(0x00, dataSize(sub_0))\n        stop\n\n        sub_0: assembly {\n                /* \"backend/contracts/Campaign.sol\":226:8942  contract Campaign {... */\n              mstore(0x40, 0x80)\n              jumpi(tag_1, lt(calldatasize, 0x04))\n              shr(0xe0, calldataload(0x00))\n              dup1\n              0x7a3a0e84\n              gt\n              tag_15\n              jumpi\n              dup1\n              0x96f300d4\n              gt\n              tag_16\n              jumpi\n              dup1\n              0x96f300d4\n              eq\n              tag_11\n              jumpi\n              dup1\n              0xa1211bc0\n              eq\n              tag_12\n              jumpi\n              dup1\n              0xed88c68e\n              eq\n              tag_13\n              jumpi\n              dup1\n              0xf851a440\n              eq\n              tag_14\n              jumpi\n              0x00\n              dup1\n              revert\n            tag_16:\n              dup1\n              0x7a3a0e84\n              eq\n              tag_8\n              jumpi\n              dup1\n              0x90e4a130\n              eq\n              tag_9\n              jumpi\n              dup1\n              0x968ed600\n              eq\n              tag_10\n              jumpi\n              0x00\n              dup1\n              revert\n            tag_15:\n              dup1\n              0x06fdde03\n              eq\n              tag_2\n              jumpi\n              dup1\n              0x0c611f24\n              eq\n              tag_3\n              jumpi\n              dup1\n              0x22f3e2d4\n              eq\n              tag_4\n              jumpi\n              dup1\n              0x29dcb0cf\n              eq\n              tag_5\n              jumpi\n              dup1\n              0x38af3eed\n              eq\n              tag_6\n              jumpi\n              dup1\n              0x7284e416\n              eq\n              tag_7\n              jumpi\n            tag_1:\n              0x00\n              dup1\n              revert\n                /* \"backend/contracts/Campaign.sol\":315:333  string public name */\n            tag_2:\n              callvalue\n              dup1\n              iszero\n              tag_17\n              jumpi\n              0x00\n              dup1\n              revert\n            tag_17:\n              pop\n              tag_18\n              tag_19\n              jump\t// in\n            tag_18:\n              mload(0x40)\n              tag_20\n              swap2\n              swap1\n              tag_21\n              jump\t// in\n            tag_20:\n              mload(0x40)\n              dup1\n              swap2\n              sub\n              swap1\n              return\n                /* \"backend/contracts/Campaign.sol\":7721:8372  function getCampaignDetails()... */\n            tag_3:\n              callvalue\n              dup1\n              iszero\n              tag_22\n              jumpi\n              0x00\n              dup1\n              revert\n            tag_22:\n              pop\n              tag_23\n              tag_24\n              jump\t// in\n            tag_23:\n              mload(0x40)\n              tag_20\n              swap8\n              swap7\n              swap6\n              swap5\n              swap4\n              swap3\n              swap2\n              swap1\n              tag_26\n              jump\t// in\n                /* \"backend/contracts/Campaign.sol\":501:521  bool public isActive */\n            tag_4:\n              callvalue\n              dup1\n              iszero\n              tag_27\n              jumpi\n              0x00\n              dup1\n              revert\n            tag_27:\n              pop\n              sload(0x02)\n              tag_28\n              swap1\n              0x0100000000\n              swap1\n              div\n              0xff\n              and\n              dup2\n              jump\n            tag_28:\n              mload(0x40)\n                /* \"#utility.yul\":1512:1526   */\n              swap1\n              iszero\n                /* \"#utility.yul\":1505:1527   */\n              iszero\n                /* \"#utility.yul\":1487:1528   */\n              dup2\n              mstore\n                /* \"#utility.yul\":1475:1477   */\n              0x20\n                /* \"#utility.yul\":1460:1478   */\n              add\n                /* \"backend/contracts/Campaign.sol\":501:521  bool public isActive */\n              tag_20\n                /* \"#utility.yul\":1347:1534   */\n              jump\n                /* \"backend/contracts/Campaign.sol\":370:403  uint256 public immutable deadline */\n            tag_5:\n              callvalue\n              dup1\n              iszero\n              tag_32\n              jumpi\n              0x00\n              dup1\n              revert\n            tag_32:\n              pop\n              tag_33\n              immutable(\"0x1a192fabce13988b84994d4296e6cdc418d55e2f1d7f942188d4040b94fc57ac\")\n              dup2\n              jump\n            tag_33:\n              mload(0x40)\n                /* \"#utility.yul\":1685:1710   */\n              swap1\n              dup2\n              mstore\n                /* \"#utility.yul\":1673:1675   */\n              0x20\n                /* \"#utility.yul\":1658:1676   */\n              add\n                /* \"backend/contracts/Campaign.sol\":370:403  uint256 public immutable deadline */\n              tag_20\n                /* \"#utility.yul\":1539:1716   */\n              jump\n                /* \"backend/contracts/Campaign.sol\":273:309  address public immutable beneficiary */\n            tag_6:\n              callvalue\n              dup1\n              iszero\n              tag_37\n              jumpi\n              0x00\n              dup1\n              revert\n            tag_37:\n              pop\n              tag_38\n              immutable(\"0x13600b294191fc92924bb3ce4b969c1e7e2bab8f4c93c3fc6d0a51733df3c060\")\n              dup2\n              jump\n            tag_38:\n              mload(0x40)\n              sub(shl(0xa0, 0x01), 0x01)\n                /* \"#utility.yul\":1885:1917   */\n              swap1\n              swap2\n              and\n                /* \"#utility.yul\":1867:1918   */\n              dup2\n              mstore\n                /* \"#utility.yul\":1855:1857   */\n              0x20\n                /* \"#utility.yul\":1840:1858   */\n              add\n                /* \"backend/contracts/Campaign.sol\":273:309  address public immutable beneficiary */\n              tag_20\n                /* \"#utility.yul\":1721:1924   */\n              jump\n                /* \"backend/contracts/Campaign.sol\":339:364  string public description */\n            tag_7:\n              callvalue\n              dup1\n              iszero\n              tag_42\n              jumpi\n              0x00\n              dup1\n              revert\n            tag_42:\n              pop\n              tag_18\n              tag_44\n              jump\t// in\n                /* \"backend/contracts/Campaign.sol\":409:444  uint32 public immutable fundingGoal */\n            tag_8:\n              callvalue\n              dup1\n              iszero\n              tag_46\n              jumpi\n              0x00\n              dup1\n              revert\n            tag_46:\n              pop\n              tag_47\n              immutable(\"0x7f8b6b088b6d74c2852fc86c796dca07b44eed6fb3daf5e6b59f7c364db14528\")\n              dup2\n              jump\n            tag_47:\n              mload(0x40)\n                /* \"#utility.yul\":2103:2113   */\n              0xffffffff\n                /* \"#utility.yul\":2091:2114   */\n              swap1\n              swap2\n              and\n                /* \"#utility.yul\":2073:2115   */\n              dup2\n              mstore\n                /* \"#utility.yul\":2061:2063   */\n              0x20\n                /* \"#utility.yul\":2046:2064   */\n              add\n                /* \"backend/contracts/Campaign.sol\":409:444  uint32 public immutable fundingGoal */\n              tag_20\n                /* \"#utility.yul\":1929:2121   */\n              jump\n                /* \"backend/contracts/Campaign.sol\":7534:7632  function getMyDonations() external view returns (uint32) {... */\n            tag_9:\n              callvalue\n              dup1\n              iszero\n              tag_51\n              jumpi\n              0x00\n              dup1\n              revert\n            tag_51:\n              pop\n                /* \"backend/contracts/Campaign.sol\":7614:7624  msg.sender */\n              caller\n                /* \"backend/contracts/Campaign.sol\":7583:7589  uint32 */\n              0x00\n                /* \"backend/contracts/Campaign.sol\":7604:7625  donations[msg.sender] */\n              swap1\n              dup2\n              mstore\n                /* \"backend/contracts/Campaign.sol\":7604:7613  donations */\n              0x03\n                /* \"backend/contracts/Campaign.sol\":7604:7625  donations[msg.sender] */\n              0x20\n              mstore\n              0x40\n              swap1\n              keccak256\n              sload\n              0xffffffff\n              and\n                /* \"backend/contracts/Campaign.sol\":7534:7632  function getMyDonations() external view returns (uint32) {... */\n              jump(tag_47)\n                /* \"backend/contracts/Campaign.sol\":450:474  uint32 public totalFunds */\n            tag_10:\n              callvalue\n              dup1\n              iszero\n              tag_55\n              jumpi\n              0x00\n              dup1\n              revert\n            tag_55:\n              pop\n              sload(0x02)\n              tag_47\n              swap1\n              0xffffffff\n              and\n              dup2\n              jump\n                /* \"backend/contracts/Campaign.sol\":7151:7243  function getDonors() external view returns (address[] memory) {... */\n            tag_11:\n              callvalue\n              dup1\n              iszero\n              tag_59\n              jumpi\n              0x00\n              dup1\n              revert\n            tag_59:\n              pop\n              tag_60\n              tag_61\n              jump\t// in\n            tag_60:\n              mload(0x40)\n              tag_20\n              swap2\n              swap1\n              tag_63\n              jump\t// in\n                /* \"backend/contracts/Campaign.sol\":5525:6958  function finalizeCampaign() external isActiveCampaign deadlineExceeded onlyAdmin{... */\n            tag_12:\n              callvalue\n              dup1\n              iszero\n              tag_64\n              jumpi\n              0x00\n              dup1\n              revert\n            tag_64:\n              pop\n              tag_65\n              tag_66\n              jump\t// in\n            tag_65:\n              stop\n                /* \"backend/contracts/Campaign.sol\":3625:4402  function donate() external payable isActiveCampaign {... */\n            tag_13:\n              tag_65\n              tag_68\n              jump\t// in\n                /* \"backend/contracts/Campaign.sol\":804:824  address public admin */\n            tag_14:\n              callvalue\n              dup1\n              iszero\n              tag_69\n              jumpi\n              0x00\n              dup1\n              revert\n            tag_69:\n              pop\n              sload(0x05)\n              tag_38\n              swap1\n              sub(shl(0xa0, 0x01), 0x01)\n              and\n              dup2\n              jump\n                /* \"backend/contracts/Campaign.sol\":315:333  string public name */\n            tag_19:\n              0x00\n              dup1\n              sload\n              tag_73\n              swap1\n              tag_74\n              jump\t// in\n            tag_73:\n              dup1\n              0x1f\n              add\n              0x20\n              dup1\n              swap2\n              div\n              mul\n              0x20\n              add\n              mload(0x40)\n              swap1\n              dup2\n              add\n              0x40\n              mstore\n              dup1\n              swap3\n              swap2\n              swap1\n              dup2\n              dup2\n              mstore\n              0x20\n              add\n              dup3\n              dup1\n              sload\n              tag_75\n              swap1\n              tag_74\n              jump\t// in\n            tag_75:\n              dup1\n              iszero\n              tag_76\n              jumpi\n              dup1\n              0x1f\n              lt\n              tag_77\n              jumpi\n              0x0100\n              dup1\n              dup4\n              sload\n              div\n              mul\n              dup4\n              mstore\n              swap2\n              0x20\n              add\n              swap2\n              jump(tag_76)\n            tag_77:\n              dup3\n              add\n              swap2\n              swap1\n              0x00\n              mstore\n              keccak256(0x00, 0x20)\n              swap1\n            tag_78:\n              dup2\n              sload\n              dup2\n              mstore\n              swap1\n              0x01\n              add\n              swap1\n              0x20\n              add\n              dup1\n              dup4\n              gt\n              tag_78\n              jumpi\n              dup3\n              swap1\n              sub\n              0x1f\n              and\n              dup3\n              add\n              swap2\n            tag_76:\n              pop\n              pop\n              pop\n              pop\n              pop\n              dup2\n              jump\t// out\n                /* \"backend/contracts/Campaign.sol\":7721:8372  function getCampaignDetails()... */\n            tag_24:\n                /* \"backend/contracts/Campaign.sol\":7811:7838  address campaignBeneficiary */\n              0x00\n                /* \"backend/contracts/Campaign.sol\":7852:7878  string memory campaignName */\n              0x60\n                /* \"backend/contracts/Campaign.sol\":7892:7925  string memory campaignDescription */\n              dup1\n                /* \"backend/contracts/Campaign.sol\":7939:7963  uint256 campaignDeadline */\n              0x00\n                /* \"backend/contracts/Campaign.sol\":7977:8003  uint32 campaignFundingGoal */\n              dup1\n                /* \"backend/contracts/Campaign.sol\":8017:8042  uint32 campaignTotalFunds */\n              0x00\n                /* \"backend/contracts/Campaign.sol\":8056:8077  bool campaignIsActive */\n              dup1\n                /* \"backend/contracts/Campaign.sol\":8124:8135  beneficiary */\n              immutable(\"0x13600b294191fc92924bb3ce4b969c1e7e2bab8f4c93c3fc6d0a51733df3c060\")\n                /* \"backend/contracts/Campaign.sol\":8102:8135  campaignBeneficiary = beneficiary */\n              swap7\n              pop\n                /* \"backend/contracts/Campaign.sol\":8160:8164  name */\n              0x00\n                /* \"backend/contracts/Campaign.sol\":8145:8164  campaignName = name */\n              dup1\n              sload\n              tag_80\n              swap1\n              tag_74\n              jump\t// in\n            tag_80:\n              dup1\n              0x1f\n              add\n              0x20\n              dup1\n              swap2\n              div\n              mul\n              0x20\n              add\n              mload(0x40)\n              swap1\n              dup2\n              add\n              0x40\n              mstore\n              dup1\n              swap3\n              swap2\n              swap1\n              dup2\n              dup2\n              mstore\n              0x20\n              add\n              dup3\n              dup1\n              sload\n              tag_81\n              swap1\n              tag_74\n              jump\t// in\n            tag_81:\n              dup1\n              iszero\n              tag_82\n              jumpi\n              dup1\n              0x1f\n              lt\n              tag_83\n              jumpi\n              0x0100\n              dup1\n              dup4\n              sload\n              div\n              mul\n              dup4\n              mstore\n              swap2\n              0x20\n              add\n              swap2\n              jump(tag_82)\n            tag_83:\n              dup3\n              add\n              swap2\n              swap1\n              0x00\n              mstore\n              keccak256(0x00, 0x20)\n              swap1\n            tag_84:\n              dup2\n              sload\n              dup2\n              mstore\n              swap1\n              0x01\n              add\n              swap1\n              0x20\n              add\n              dup1\n              dup4\n              gt\n              tag_84\n              jumpi\n              dup3\n              swap1\n              sub\n              0x1f\n              and\n              dup3\n              add\n              swap2\n            tag_82:\n              pop\n              pop\n              pop\n              pop\n              pop\n              swap6\n              pop\n                /* \"backend/contracts/Campaign.sol\":8196:8207  description */\n              0x01\n                /* \"backend/contracts/Campaign.sol\":8174:8207  campaignDescription = description */\n              dup1\n              sload\n              tag_85\n              swap1\n              tag_74\n              jump\t// in\n            tag_85:\n              dup1\n              0x1f\n              add\n              0x20\n              dup1\n              swap2\n              div\n              mul\n              0x20\n              add\n              mload(0x40)\n              swap1\n              dup2\n              add\n              0x40\n              mstore\n              dup1\n              swap3\n              swap2\n              swap1\n              dup2\n              dup2\n              mstore\n              0x20\n              add\n              dup3\n              dup1\n              sload\n              tag_86\n              swap1\n              tag_74\n              jump\t// in\n            tag_86:\n              dup1\n              iszero\n              tag_87\n              jumpi\n              dup1\n              0x1f\n              lt\n              tag_88\n              jumpi\n              0x0100\n              dup1\n              dup4\n              sload\n              div\n              mul\n              dup4\n              mstore\n              swap2\n              0x20\n              add\n              swap2\n              jump(tag_87)\n            tag_88:\n              dup3\n              add\n              swap2\n              swap1\n              0x00\n              mstore\n              keccak256(0x00, 0x20)\n              swap1\n            tag_89:\n              dup2\n              sload\n              dup2\n              mstore\n              swap1\n              0x01\n              add\n              swap1\n              0x20\n              add\n              dup1\n              dup4\n              gt\n              tag_89\n              jumpi\n              dup3\n              swap1\n              sub\n              0x1f\n              and\n              dup3\n              add\n              swap2\n            tag_87:\n              pop\n              pop\n                /* \"backend/contracts/Campaign.sol\":8318:8328  totalFunds */\n              sload(0x02)\n                /* \"backend/contracts/Campaign.sol\":7721:8372  function getCampaignDetails()... */\n              swap11\n              swap12\n              swap10\n              swap11\n                /* \"backend/contracts/Campaign.sol\":8174:8207  campaignDescription = description */\n              swap4\n              swap10\n                /* \"backend/contracts/Campaign.sol\":8236:8244  deadline */\n              immutable(\"0x1a192fabce13988b84994d4296e6cdc418d55e2f1d7f942188d4040b94fc57ac\")\n              swap10\n              pop\n                /* \"backend/contracts/Campaign.sol\":8276:8287  fundingGoal */\n              immutable(\"0x7f8b6b088b6d74c2852fc86c796dca07b44eed6fb3daf5e6b59f7c364db14528\")\n              swap9\n              pop\n                /* \"backend/contracts/Campaign.sol\":8318:8328  totalFunds */\n              0xffffffff\n              dup6\n              and\n              swap8\n              pop\n                /* \"backend/contracts/Campaign.sol\":8357:8365  isActive */\n              0x0100000000\n              swap1\n              swap5\n              div\n              0xff\n              and\n              swap6\n              pop\n                /* \"backend/contracts/Campaign.sol\":7721:8372  function getCampaignDetails()... */\n              swap3\n              swap4\n              pop\n              pop\n              pop\n              pop\n              jump\t// out\n                /* \"backend/contracts/Campaign.sol\":339:364  string public description */\n            tag_44:\n              0x01\n              dup1\n              sload\n              tag_73\n              swap1\n              tag_74\n              jump\t// in\n                /* \"backend/contracts/Campaign.sol\":7151:7243  function getDonors() external view returns (address[] memory) {... */\n            tag_61:\n                /* \"backend/contracts/Campaign.sol\":7195:7211  address[] memory */\n              0x60\n                /* \"backend/contracts/Campaign.sol\":7230:7236  donors */\n              0x04\n                /* \"backend/contracts/Campaign.sol\":7223:7236  return donors */\n              dup1\n              sload\n              dup1\n              0x20\n              mul\n              0x20\n              add\n              mload(0x40)\n              swap1\n              dup2\n              add\n              0x40\n              mstore\n              dup1\n              swap3\n              swap2\n              swap1\n              dup2\n              dup2\n              mstore\n              0x20\n              add\n              dup3\n              dup1\n              sload\n              dup1\n              iszero\n              tag_97\n              jumpi\n              0x20\n              mul\n              dup3\n              add\n              swap2\n              swap1\n              0x00\n              mstore\n              keccak256(0x00, 0x20)\n              swap1\n            tag_98:\n              dup2\n              sload\n              sub(shl(0xa0, 0x01), 0x01)\n              and\n              dup2\n              mstore\n              0x01\n              swap1\n              swap2\n              add\n              swap1\n              0x20\n              add\n              dup1\n              dup4\n              gt\n              tag_98\n              jumpi\n            tag_97:\n              pop\n              pop\n              pop\n              pop\n              pop\n              swap1\n              pop\n                /* \"backend/contracts/Campaign.sol\":7151:7243  function getDonors() external view returns (address[] memory) {... */\n              swap1\n              jump\t// out\n                /* \"backend/contracts/Campaign.sol\":5525:6958  function finalizeCampaign() external isActiveCampaign deadlineExceeded onlyAdmin{... */\n            tag_66:\n                /* \"backend/contracts/Campaign.sol\":3302:3310  isActive */\n              sload(0x02)\n              0x0100000000\n              swap1\n              div\n              0xff\n              and\n                /* \"backend/contracts/Campaign.sol\":3294:3342  require(isActive, \"The Campaign is not active!\") */\n              tag_100\n              jumpi\n              mload(0x40)\n              shl(0xe5, 0x461bcd)\n              dup2\n              mstore\n                /* \"#utility.yul\":3355:3357   */\n              0x20\n                /* \"backend/contracts/Campaign.sol\":3294:3342  require(isActive, \"The Campaign is not active!\") */\n              0x04\n              dup3\n              add\n                /* \"#utility.yul\":3337:3358   */\n              mstore\n                /* \"#utility.yul\":3394:3396   */\n              0x1b\n                /* \"#utility.yul\":3374:3392   */\n              0x24\n              dup3\n              add\n                /* \"#utility.yul\":3367:3397   */\n              mstore\n                /* \"#utility.yul\":3433:3462   */\n              0x5468652043616d706169676e206973206e6f7420616374697665210000000000\n                /* \"#utility.yul\":3413:3431   */\n              0x44\n              dup3\n              add\n                /* \"#utility.yul\":3406:3463   */\n              mstore\n                /* \"#utility.yul\":3480:3498   */\n              0x64\n              add\n                /* \"backend/contracts/Campaign.sol\":3294:3342  require(isActive, \"The Campaign is not active!\") */\n            tag_101:\n              mload(0x40)\n              dup1\n              swap2\n              sub\n              swap1\n              revert\n            tag_100:\n                /* \"backend/contracts/Campaign.sol\":3443:3451  deadline */\n              immutable(\"0x1a192fabce13988b84994d4296e6cdc418d55e2f1d7f942188d4040b94fc57ac\")\n                /* \"backend/contracts/Campaign.sol\":3425:3440  block.timestamp */\n              timestamp\n                /* \"backend/contracts/Campaign.sol\":3425:3451  block.timestamp > deadline */\n              gt\n                /* \"backend/contracts/Campaign.sol\":3404:3516  require(... */\n              tag_104\n              jumpi\n              mload(0x40)\n              shl(0xe5, 0x461bcd)\n              dup2\n              mstore\n                /* \"#utility.yul\":3711:3713   */\n              0x20\n                /* \"backend/contracts/Campaign.sol\":3404:3516  require(... */\n              0x04\n              dup3\n              add\n                /* \"#utility.yul\":3693:3714   */\n              mstore\n                /* \"#utility.yul\":3750:3752   */\n              0x27\n                /* \"#utility.yul\":3730:3748   */\n              0x24\n              dup3\n              add\n                /* \"#utility.yul\":3723:3753   */\n              mstore\n                /* \"#utility.yul\":3789:3823   */\n              0x5468652043616d706169676e277320646561646c696e6520686173206e6f7420\n                /* \"#utility.yul\":3769:3787   */\n              0x44\n              dup3\n              add\n                /* \"#utility.yul\":3762:3824   */\n              mstore\n              shl(0xc8, 0x70617373656421)\n                /* \"#utility.yul\":3840:3858   */\n              0x64\n              dup3\n              add\n                /* \"#utility.yul\":3833:3870   */\n              mstore\n                /* \"#utility.yul\":3887:3906   */\n              0x84\n              add\n                /* \"backend/contracts/Campaign.sol\":3404:3516  require(... */\n              tag_101\n                /* \"#utility.yul\":3509:3912   */\n              jump\n                /* \"backend/contracts/Campaign.sol\":3404:3516  require(... */\n            tag_104:\n                /* \"backend/contracts/Campaign.sol\":3196:3201  admin */\n              and(sub(shl(0xa0, 0x01), 0x01), sload(0x05))\n                /* \"backend/contracts/Campaign.sol\":3182:3192  msg.sender */\n              caller\n                /* \"backend/contracts/Campaign.sol\":3182:3201  msg.sender == admin */\n              eq\n                /* \"backend/contracts/Campaign.sol\":3174:3233  require(msg.sender == admin, \"Access restricted to admin!\") */\n              tag_108\n              jumpi\n              mload(0x40)\n              shl(0xe5, 0x461bcd)\n              dup2\n              mstore\n                /* \"#utility.yul\":4119:4121   */\n              0x20\n                /* \"backend/contracts/Campaign.sol\":3174:3233  require(msg.sender == admin, \"Access restricted to admin!\") */\n              0x04\n              dup3\n              add\n                /* \"#utility.yul\":4101:4122   */\n              mstore\n                /* \"#utility.yul\":4158:4160   */\n              0x1b\n                /* \"#utility.yul\":4138:4156   */\n              0x24\n              dup3\n              add\n                /* \"#utility.yul\":4131:4161   */\n              mstore\n                /* \"#utility.yul\":4197:4226   */\n              0x416363657373207265737472696374656420746f2061646d696e210000000000\n                /* \"#utility.yul\":4177:4195   */\n              0x44\n              dup3\n              add\n                /* \"#utility.yul\":4170:4227   */\n              mstore\n                /* \"#utility.yul\":4244:4262   */\n              0x64\n              add\n                /* \"backend/contracts/Campaign.sol\":3174:3233  require(msg.sender == admin, \"Access restricted to admin!\") */\n              tag_101\n                /* \"#utility.yul\":3917:4268   */\n              jump\n                /* \"backend/contracts/Campaign.sol\":3174:3233  require(msg.sender == admin, \"Access restricted to admin!\") */\n            tag_108:\n                /* \"backend/contracts/Campaign.sol\":5619:5629  totalFunds */\n              sload(0x02)\n                /* \"backend/contracts/Campaign.sol\":5619:5644  totalFunds >= fundingGoal */\n              0xffffffff\n                /* \"backend/contracts/Campaign.sol\":5633:5644  fundingGoal */\n              immutable(\"0x7f8b6b088b6d74c2852fc86c796dca07b44eed6fb3daf5e6b59f7c364db14528\")\n                /* \"backend/contracts/Campaign.sol\":5619:5644  totalFunds >= fundingGoal */\n              dup2\n              and\n                /* \"backend/contracts/Campaign.sol\":5619:5629  totalFunds */\n              swap2\n              and\n                /* \"backend/contracts/Campaign.sol\":5619:5644  totalFunds >= fundingGoal */\n              lt\n                /* \"backend/contracts/Campaign.sol\":5615:6952  if (totalFunds >= fundingGoal) {... */\n              tag_112\n              jumpi\n                /* \"backend/contracts/Campaign.sol\":5694:5708  releaseFunds() */\n              tag_113\n                /* \"backend/contracts/Campaign.sol\":5694:5706  releaseFunds */\n              tag_114\n                /* \"backend/contracts/Campaign.sol\":5694:5708  releaseFunds() */\n              jump\t// in\n            tag_113:\n                /* \"backend/contracts/Campaign.sol\":5525:6958  function finalizeCampaign() external isActiveCampaign deadlineExceeded onlyAdmin{... */\n              jump\t// out\n                /* \"backend/contracts/Campaign.sol\":5615:6952  if (totalFunds >= fundingGoal) {... */\n            tag_112:\n                /* \"backend/contracts/Campaign.sol\":5739:5747  isActive */\n              0x02\n                /* \"backend/contracts/Campaign.sol\":5739:5755  isActive = false */\n              dup1\n              sload\n              not(0xff00000000)\n              and\n              swap1\n              sstore\n                /* \"backend/contracts/Campaign.sol\":5739:5747  isActive */\n              0x04\n                /* \"backend/contracts/Campaign.sol\":5981:5994  donors.length */\n              sload\n                /* \"backend/contracts/Campaign.sol\":5750:5755  false */\n              0x00\n                /* \"backend/contracts/Campaign.sol\":6088:6667  for (uint256 i = 0; i < totalDonors; i++) {... */\n            tag_116:\n                /* \"backend/contracts/Campaign.sol\":6112:6123  totalDonors */\n              dup2\n                /* \"backend/contracts/Campaign.sol\":6108:6109  i */\n              dup2\n                /* \"backend/contracts/Campaign.sol\":6108:6123  i < totalDonors */\n              lt\n                /* \"backend/contracts/Campaign.sol\":6088:6667  for (uint256 i = 0; i < totalDonors; i++) {... */\n              iszero\n              tag_117\n              jumpi\n                /* \"backend/contracts/Campaign.sol\":6148:6161  address donor */\n              0x00\n                /* \"backend/contracts/Campaign.sol\":6164:6170  donors */\n              0x04\n                /* \"backend/contracts/Campaign.sol\":6171:6172  i */\n              dup3\n                /* \"backend/contracts/Campaign.sol\":6164:6173  donors[i] */\n              dup2\n              sload\n              dup2\n              lt\n              tag_120\n              jumpi\n              tag_120\n              tag_121\n              jump\t// in\n            tag_120:\n              0x00\n              swap2\n              dup3\n              mstore\n              0x20\n              dup1\n              dup4\n              keccak256\n              swap1\n              swap2\n              add\n              sload\n              sub(shl(0xa0, 0x01), 0x01)\n              and\n                /* \"backend/contracts/Campaign.sol\":6215:6231  donations[donor] */\n              dup1\n              dup4\n              mstore\n                /* \"backend/contracts/Campaign.sol\":6215:6224  donations */\n              0x03\n                /* \"backend/contracts/Campaign.sol\":6215:6231  donations[donor] */\n              swap1\n              swap2\n              mstore\n              0x40\n              swap1\n              swap2\n              keccak256\n              sload\n                /* \"backend/contracts/Campaign.sol\":6164:6173  donors[i] */\n              swap1\n              swap2\n              pop\n                /* \"backend/contracts/Campaign.sol\":6215:6231  donations[donor] */\n              0xffffffff\n              and\n                /* \"backend/contracts/Campaign.sol\":6433:6451  donationAmount > 0 */\n              dup1\n              iszero\n                /* \"backend/contracts/Campaign.sol\":6429:6653  if (donationAmount > 0) {... */\n              tag_123\n              jumpi\n              sub(shl(0xa0, 0x01), 0x01)\n                /* \"backend/contracts/Campaign.sol\":6475:6491  donations[donor] */\n              dup3\n              and\n                /* \"backend/contracts/Campaign.sol\":6494:6495  0 */\n              0x00\n                /* \"backend/contracts/Campaign.sol\":6475:6491  donations[donor] */\n              dup2\n              dup2\n              mstore\n                /* \"backend/contracts/Campaign.sol\":6475:6484  donations */\n              0x03\n                /* \"backend/contracts/Campaign.sol\":6475:6491  donations[donor] */\n              0x20\n              mstore\n              0x40\n              dup1\n              dup3\n              keccak256\n                /* \"backend/contracts/Campaign.sol\":6475:6495  donations[donor] = 0 */\n              dup1\n              sload\n              not(0xffffffff)\n              and\n              swap1\n              sstore\n                /* \"backend/contracts/Campaign.sol\":6517:6556  payable(donor).transfer(donationAmount) */\n              mload\n                /* \"backend/contracts/Campaign.sol\":6475:6495  donations[donor] = 0 */\n              0xffffffff\n                /* \"backend/contracts/Campaign.sol\":6517:6556  payable(donor).transfer(donationAmount) */\n              dup5\n              and\n              dup1\n              iszero\n              0x08fc\n              mul\n              swap3\n              swap1\n              swap2\n              swap1\n              dup2\n                /* \"backend/contracts/Campaign.sol\":6494:6495  0 */\n              dup2\n                /* \"backend/contracts/Campaign.sol\":6517:6556  payable(donor).transfer(donationAmount) */\n              dup2\n              dup6\n                /* \"backend/contracts/Campaign.sol\":6475:6491  donations[donor] */\n              dup9\n                /* \"backend/contracts/Campaign.sol\":6517:6556  payable(donor).transfer(donationAmount) */\n              dup9\n              call\n              swap4\n              pop\n              pop\n              pop\n              pop\n              iszero\n              dup1\n              iszero\n              tag_125\n              jumpi\n              returndatasize\n              0x00\n              dup1\n              returndatacopy\n              revert(0x00, returndatasize)\n            tag_125:\n              pop\n                /* \"backend/contracts/Campaign.sol\":6584:6634  RefundIssued(address(this), donor, donationAmount) */\n              mload(0x40)\n                /* \"#utility.yul\":2103:2113   */\n              0xffffffff\n                /* \"#utility.yul\":2091:2114   */\n              dup3\n              and\n                /* \"#utility.yul\":2073:2115   */\n              dup2\n              mstore\n              sub(shl(0xa0, 0x01), 0x01)\n                /* \"backend/contracts/Campaign.sol\":6584:6634  RefundIssued(address(this), donor, donationAmount) */\n              dup4\n              and\n              swap1\n                /* \"backend/contracts/Campaign.sol\":6605:6609  this */\n              address\n              swap1\n                /* \"backend/contracts/Campaign.sol\":6584:6634  RefundIssued(address(this), donor, donationAmount) */\n              0xcbaf39f3d8f9a55dbfd111d1803615438ca90cd340bf43a9b32af9967cb268b0\n              swap1\n                /* \"#utility.yul\":2061:2063   */\n              0x20\n                /* \"#utility.yul\":2046:2064   */\n              add\n                /* \"backend/contracts/Campaign.sol\":6584:6634  RefundIssued(address(this), donor, donationAmount) */\n              mload(0x40)\n              dup1\n              swap2\n              sub\n              swap1\n              log3\n                /* \"backend/contracts/Campaign.sol\":6429:6653  if (donationAmount > 0) {... */\n            tag_123:\n              pop\n              pop\n                /* \"backend/contracts/Campaign.sol\":6125:6128  i++ */\n              0x01\n              add\n                /* \"backend/contracts/Campaign.sol\":6088:6667  for (uint256 i = 0; i < totalDonors; i++) {... */\n              jump(tag_116)\n            tag_117:\n              pop\n                /* \"backend/contracts/Campaign.sol\":6681:6694  delete donors */\n              tag_127\n                /* \"backend/contracts/Campaign.sol\":6688:6694  donors */\n              0x04\n              0x00\n                /* \"backend/contracts/Campaign.sol\":6681:6694  delete donors */\n              tag_128\n              jump\t// in\n            tag_127:\n                /* \"backend/contracts/Campaign.sol\":6917:6927  totalFunds */\n              sload(0x02)\n                /* \"backend/contracts/Campaign.sol\":6799:6941  CampaignFinalized(... */\n              0x40\n              dup1\n              mload\n                /* \"backend/contracts/Campaign.sol\":6894:6899  false */\n              0x00\n                /* \"#utility.yul\":4571:4612   */\n              dup2\n              mstore\n                /* \"backend/contracts/Campaign.sol\":6917:6927  totalFunds */\n              0xffffffff\n              swap1\n              swap3\n              and\n                /* \"#utility.yul\":4643:4645   */\n              0x20\n                /* \"#utility.yul\":4628:4646   */\n              dup4\n              add\n                /* \"#utility.yul\":4621:4672   */\n              mstore\n                /* \"backend/contracts/Campaign.sol\":6865:6876  beneficiary */\n              immutable(\"0x13600b294191fc92924bb3ce4b969c1e7e2bab8f4c93c3fc6d0a51733df3c060\")\n              sub(shl(0xa0, 0x01), 0x01)\n                /* \"backend/contracts/Campaign.sol\":6799:6941  CampaignFinalized(... */\n              and\n              swap2\n                /* \"backend/contracts/Campaign.sol\":6842:6846  this */\n              address\n              swap2\n                /* \"backend/contracts/Campaign.sol\":6799:6941  CampaignFinalized(... */\n              0xf8b5bc9a22de51519f1a92f78276ca83d891d1edf8dd4263ccb6032594644b65\n              swap2\n                /* \"#utility.yul\":4544:4562   */\n              add\n                /* \"backend/contracts/Campaign.sol\":6799:6941  CampaignFinalized(... */\n              mload(0x40)\n              dup1\n              swap2\n              sub\n              swap1\n              log3\n                /* \"backend/contracts/Campaign.sol\":5725:6952  {... */\n              pop\n                /* \"backend/contracts/Campaign.sol\":5525:6958  function finalizeCampaign() external isActiveCampaign deadlineExceeded onlyAdmin{... */\n              jump\t// out\n                /* \"backend/contracts/Campaign.sol\":3625:4402  function donate() external payable isActiveCampaign {... */\n            tag_68:\n                /* \"backend/contracts/Campaign.sol\":3302:3310  isActive */\n              sload(0x02)\n              0x0100000000\n              swap1\n              div\n              0xff\n              and\n                /* \"backend/contracts/Campaign.sol\":3294:3342  require(isActive, \"The Campaign is not active!\") */\n              tag_132\n              jumpi\n              mload(0x40)\n              shl(0xe5, 0x461bcd)\n              dup2\n              mstore\n                /* \"#utility.yul\":3355:3357   */\n              0x20\n                /* \"backend/contracts/Campaign.sol\":3294:3342  require(isActive, \"The Campaign is not active!\") */\n              0x04\n              dup3\n              add\n                /* \"#utility.yul\":3337:3358   */\n              mstore\n                /* \"#utility.yul\":3394:3396   */\n              0x1b\n                /* \"#utility.yul\":3374:3392   */\n              0x24\n              dup3\n              add\n                /* \"#utility.yul\":3367:3397   */\n              mstore\n                /* \"#utility.yul\":3433:3462   */\n              0x5468652043616d706169676e206973206e6f7420616374697665210000000000\n                /* \"#utility.yul\":3413:3431   */\n              0x44\n              dup3\n              add\n                /* \"#utility.yul\":3406:3463   */\n              mstore\n                /* \"#utility.yul\":3480:3498   */\n              0x64\n              add\n                /* \"backend/contracts/Campaign.sol\":3294:3342  require(isActive, \"The Campaign is not active!\") */\n              tag_101\n                /* \"#utility.yul\":3153:3504   */\n              jump\n                /* \"backend/contracts/Campaign.sol\":3294:3342  require(isActive, \"The Campaign is not active!\") */\n            tag_132:\n                /* \"backend/contracts/Campaign.sol\":3703:3713  msg.sender */\n              caller\n                /* \"backend/contracts/Campaign.sol\":3687:3700  address donor */\n              0x00\n                /* \"backend/contracts/Campaign.sol\":3833:3849  donations[donor] */\n              dup2\n              dup2\n              mstore\n                /* \"backend/contracts/Campaign.sol\":3833:3842  donations */\n              0x03\n                /* \"backend/contracts/Campaign.sol\":3833:3849  donations[donor] */\n              0x20\n              mstore\n              0x40\n              dup2\n              keccak256\n              sload\n                /* \"backend/contracts/Campaign.sol\":3746:3755  msg.value */\n              callvalue\n              swap2\n                /* \"backend/contracts/Campaign.sol\":3833:3849  donations[donor] */\n              0xffffffff\n              swap1\n              swap2\n              and\n                /* \"backend/contracts/Campaign.sol\":3833:3854  donations[donor] == 0 */\n              swap1\n              sub\n                /* \"backend/contracts/Campaign.sol\":3829:3899  if (donations[donor] == 0) {... */\n              tag_135\n              jumpi\n                /* \"backend/contracts/Campaign.sol\":3870:3876  donors */\n              0x04\n                /* \"backend/contracts/Campaign.sol\":3870:3888  donors.push(donor) */\n              dup1\n              sload\n              0x01\n              dup2\n              add\n              dup3\n              sstore\n              0x00\n              swap2\n              swap1\n              swap2\n              mstore\n              0x8a35acfbc15ff81a39ae7d344fd709f28e8600b4aa8c65c6b64bfe7fe36bd19b\n              add\n              dup1\n              sload\n              not(sub(shl(0xa0, 0x01), 0x01))\n              and\n              sub(shl(0xa0, 0x01), 0x01)\n              dup5\n              and\n              or\n              swap1\n              sstore\n                /* \"backend/contracts/Campaign.sol\":3829:3899  if (donations[donor] == 0) {... */\n            tag_135:\n              sub(shl(0xa0, 0x01), 0x01)\n                /* \"backend/contracts/Campaign.sol\":3909:3925  donations[donor] */\n              dup3\n              and\n              0x00\n              swap1\n              dup2\n              mstore\n                /* \"backend/contracts/Campaign.sol\":3909:3918  donations */\n              0x03\n                /* \"backend/contracts/Campaign.sol\":3909:3925  donations[donor] */\n              0x20\n              mstore\n              0x40\n              dup2\n              keccak256\n                /* \"backend/contracts/Campaign.sol\":3909:3935  donations[donor] += amount */\n              dup1\n              sload\n                /* \"backend/contracts/Campaign.sol\":3929:3935  amount */\n              dup4\n              swap3\n                /* \"backend/contracts/Campaign.sol\":3909:3925  donations[donor] */\n              swap1\n                /* \"backend/contracts/Campaign.sol\":3909:3935  donations[donor] += amount */\n              tag_137\n              swap1\n                /* \"backend/contracts/Campaign.sol\":3929:3935  amount */\n              dup5\n              swap1\n                /* \"backend/contracts/Campaign.sol\":3909:3935  donations[donor] += amount */\n              0xffffffff\n              and\n              tag_138\n              jump\t// in\n            tag_137:\n              swap3\n              pop\n              0x0100\n              exp\n              dup2\n              sload\n              dup2\n              0xffffffff\n              mul\n              not\n              and\n              swap1\n              dup4\n              0xffffffff\n              and\n              mul\n              or\n              swap1\n              sstore\n              pop\n                /* \"backend/contracts/Campaign.sol\":4074:4094  uint32 newTotalFunds */\n              0x00\n                /* \"backend/contracts/Campaign.sol\":4110:4116  amount */\n              dup2\n                /* \"backend/contracts/Campaign.sol\":4097:4107  totalFunds */\n              0x02\n              0x00\n              swap1\n              sload\n              swap1\n              0x0100\n              exp\n              swap1\n              div\n              0xffffffff\n              and\n                /* \"backend/contracts/Campaign.sol\":4097:4116  totalFunds + amount */\n              tag_139\n              swap2\n              swap1\n              tag_138\n              jump\t// in\n            tag_139:\n                /* \"backend/contracts/Campaign.sol\":4126:4136  totalFunds */\n              0x02\n                /* \"backend/contracts/Campaign.sol\":4126:4152  totalFunds = newTotalFunds */\n              dup1\n              sload\n              not(0xffffffff)\n              and\n              0xffffffff\n              dup4\n              dup2\n              and\n              swap2\n              swap1\n              swap2\n              or\n              swap1\n              swap2\n              sstore\n                /* \"backend/contracts/Campaign.sol\":4168:4216  DonationMade(address(this), beneficiary, amount) */\n              mload(0x40)\n                /* \"#utility.yul\":2091:2114   */\n              swap1\n              dup5\n              and\n                /* \"#utility.yul\":2073:2115   */\n              dup2\n              mstore\n                /* \"backend/contracts/Campaign.sol\":4126:4152  totalFunds = newTotalFunds */\n              swap1\n              swap2\n              pop\n                /* \"backend/contracts/Campaign.sol\":4196:4207  beneficiary */\n              immutable(\"0x13600b294191fc92924bb3ce4b969c1e7e2bab8f4c93c3fc6d0a51733df3c060\")\n              sub(shl(0xa0, 0x01), 0x01)\n                /* \"backend/contracts/Campaign.sol\":4168:4216  DonationMade(address(this), beneficiary, amount) */\n              and\n              swap1\n                /* \"backend/contracts/Campaign.sol\":4189:4193  this */\n              address\n              swap1\n                /* \"backend/contracts/Campaign.sol\":4168:4216  DonationMade(address(this), beneficiary, amount) */\n              0x4bcad339364614747037d489debcab743e155b2486ad23759d702d48c30a7dc6\n              swap1\n                /* \"#utility.yul\":2061:2063   */\n              0x20\n                /* \"#utility.yul\":2046:2064   */\n              add\n                /* \"backend/contracts/Campaign.sol\":4168:4216  DonationMade(address(this), beneficiary, amount) */\n              mload(0x40)\n              dup1\n              swap2\n              sub\n              swap1\n              log3\n                /* \"backend/contracts/Campaign.sol\":4344:4355  fundingGoal */\n              immutable(\"0x7f8b6b088b6d74c2852fc86c796dca07b44eed6fb3daf5e6b59f7c364db14528\")\n                /* \"backend/contracts/Campaign.sol\":4327:4355  newTotalFunds >= fundingGoal */\n              0xffffffff\n              and\n                /* \"backend/contracts/Campaign.sol\":4327:4340  newTotalFunds */\n              dup2\n                /* \"backend/contracts/Campaign.sol\":4327:4355  newTotalFunds >= fundingGoal */\n              0xffffffff\n              and\n              lt\n                /* \"backend/contracts/Campaign.sol\":4323:4396  if (newTotalFunds >= fundingGoal) {... */\n              tag_142\n              jumpi\n                /* \"backend/contracts/Campaign.sol\":4371:4385  releaseFunds() */\n              tag_142\n                /* \"backend/contracts/Campaign.sol\":4371:4383  releaseFunds */\n              tag_114\n                /* \"backend/contracts/Campaign.sol\":4371:4385  releaseFunds() */\n              jump\t// in\n            tag_142:\n                /* \"backend/contracts/Campaign.sol\":3677:4402  {... */\n              pop\n              pop\n              pop\n                /* \"backend/contracts/Campaign.sol\":3625:4402  function donate() external payable isActiveCampaign {... */\n              jump\t// out\n                /* \"backend/contracts/Campaign.sol\":4626:5204  function releaseFunds() private {... */\n            tag_114:\n                /* \"backend/contracts/Campaign.sol\":4692:4702  totalFunds */\n              0x02\n              dup1\n              sload\n              not(0xffffffffff)\n                /* \"backend/contracts/Campaign.sol\":4781:4797  isActive = false */\n              dup2\n              and\n              swap1\n              swap2\n              sstore\n                /* \"backend/contracts/Campaign.sol\":4877:4929  payable(beneficiary).call{value: fundsToRelease}(\"\") */\n              mload(0x40)\n                /* \"backend/contracts/Campaign.sol\":4692:4702  totalFunds */\n              0xffffffff\n              swap1\n              swap2\n              and\n              swap1\n              0x00\n              swap1\n                /* \"backend/contracts/Campaign.sol\":4885:4896  beneficiary */\n              immutable(\"0x13600b294191fc92924bb3ce4b969c1e7e2bab8f4c93c3fc6d0a51733df3c060\")\n              sub(shl(0xa0, 0x01), 0x01)\n                /* \"backend/contracts/Campaign.sol\":4877:4902  payable(beneficiary).call */\n              and\n              swap1\n                /* \"backend/contracts/Campaign.sol\":4692:4702  totalFunds */\n              dup4\n              swap1\n              dup4\n                /* \"backend/contracts/Campaign.sol\":4877:4929  payable(beneficiary).call{value: fundsToRelease}(\"\") */\n              dup2\n              dup2\n              dup2\n                /* \"backend/contracts/Campaign.sol\":4692:4702  totalFunds */\n              dup6\n                /* \"backend/contracts/Campaign.sol\":4877:4902  payable(beneficiary).call */\n              dup8\n                /* \"backend/contracts/Campaign.sol\":4877:4929  payable(beneficiary).call{value: fundsToRelease}(\"\") */\n              gas\n              call\n              swap3\n              pop\n              pop\n              pop\n              returndatasize\n              dup1\n              0x00\n              dup2\n              eq\n              tag_148\n              jumpi\n              mload(0x40)\n              swap2\n              pop\n              and(add(returndatasize, 0x3f), not(0x1f))\n              dup3\n              add\n              0x40\n              mstore\n              returndatasize\n              dup3\n              mstore\n              returndatasize\n              0x00\n              0x20\n              dup5\n              add\n              returndatacopy\n              jump(tag_147)\n            tag_148:\n              0x60\n              swap2\n              pop\n            tag_147:\n              pop\n                /* \"backend/contracts/Campaign.sol\":4858:4929  (bool success, ) = payable(beneficiary).call{value: fundsToRelease}(\"\") */\n              pop\n              swap1\n              pop\n                /* \"backend/contracts/Campaign.sol\":4947:4954  success */\n              dup1\n                /* \"backend/contracts/Campaign.sol\":4939:4983  require(success, \"Unable to release funds!\") */\n              tag_149\n              jumpi\n              mload(0x40)\n              shl(0xe5, 0x461bcd)\n              dup2\n              mstore\n                /* \"#utility.yul\":5364:5366   */\n              0x20\n                /* \"backend/contracts/Campaign.sol\":4939:4983  require(success, \"Unable to release funds!\") */\n              0x04\n              dup3\n              add\n                /* \"#utility.yul\":5346:5367   */\n              mstore\n                /* \"#utility.yul\":5403:5405   */\n              0x18\n                /* \"#utility.yul\":5383:5401   */\n              0x24\n              dup3\n              add\n                /* \"#utility.yul\":5376:5406   */\n              mstore\n                /* \"#utility.yul\":5442:5468   */\n              0x556e61626c6520746f2072656c656173652066756e6473210000000000000000\n                /* \"#utility.yul\":5422:5440   */\n              0x44\n              dup3\n              add\n                /* \"#utility.yul\":5415:5469   */\n              mstore\n                /* \"#utility.yul\":5486:5504   */\n              0x64\n              add\n                /* \"backend/contracts/Campaign.sol\":4939:4983  require(success, \"Unable to release funds!\") */\n              tag_101\n                /* \"#utility.yul\":5162:5510   */\n              jump\n                /* \"backend/contracts/Campaign.sol\":4939:4983  require(success, \"Unable to release funds!\") */\n            tag_149:\n                /* \"backend/contracts/Campaign.sol\":4999:5057  FundsWithdrawn(address(this), beneficiary, fundsToRelease) */\n              mload(0x40)\n                /* \"#utility.yul\":2103:2113   */\n              0xffffffff\n                /* \"#utility.yul\":2091:2114   */\n              dup4\n              and\n                /* \"#utility.yul\":2073:2115   */\n              dup2\n              mstore\n              sub(shl(0xa0, 0x01), 0x01)\n                /* \"backend/contracts/Campaign.sol\":5029:5040  beneficiary */\n              immutable(\"0x13600b294191fc92924bb3ce4b969c1e7e2bab8f4c93c3fc6d0a51733df3c060\")\n                /* \"backend/contracts/Campaign.sol\":4999:5057  FundsWithdrawn(address(this), beneficiary, fundsToRelease) */\n              and\n              swap1\n                /* \"backend/contracts/Campaign.sol\":5022:5026  this */\n              address\n              swap1\n                /* \"backend/contracts/Campaign.sol\":4999:5057  FundsWithdrawn(address(this), beneficiary, fundsToRelease) */\n              0x9a2d22bdc446507e83df389ff5730c89bb47efe4486aa9fe07032b2b7339ee7f\n              swap1\n                /* \"#utility.yul\":2061:2063   */\n              0x20\n                /* \"#utility.yul\":2046:2064   */\n              add\n                /* \"backend/contracts/Campaign.sol\":4999:5057  FundsWithdrawn(address(this), beneficiary, fundsToRelease) */\n              mload(0x40)\n              dup1\n              swap2\n              sub\n              swap1\n              log3\n                /* \"backend/contracts/Campaign.sol\":5072:5197  CampaignFinalized(... */\n              0x40\n              dup1\n              mload\n                /* \"backend/contracts/Campaign.sol\":5155:5159  true */\n              0x01\n                /* \"#utility.yul\":4571:4612   */\n              dup2\n              mstore\n                /* \"#utility.yul\":4660:4670   */\n              0xffffffff\n                /* \"#utility.yul\":4648:4671   */\n              dup5\n              and\n                /* \"#utility.yul\":4643:4645   */\n              0x20\n                /* \"#utility.yul\":4628:4646   */\n              dup3\n              add\n                /* \"#utility.yul\":4621:4672   */\n              mstore\n              sub(shl(0xa0, 0x01), 0x01)\n                /* \"backend/contracts/Campaign.sol\":5130:5141  beneficiary */\n              immutable(\"0x13600b294191fc92924bb3ce4b969c1e7e2bab8f4c93c3fc6d0a51733df3c060\")\n                /* \"backend/contracts/Campaign.sol\":5072:5197  CampaignFinalized(... */\n              and\n              swap2\n                /* \"backend/contracts/Campaign.sol\":5111:5115  this */\n              address\n              swap2\n                /* \"backend/contracts/Campaign.sol\":5072:5197  CampaignFinalized(... */\n              0xf8b5bc9a22de51519f1a92f78276ca83d891d1edf8dd4263ccb6032594644b65\n              swap2\n                /* \"#utility.yul\":4544:4562   */\n              add\n                /* \"backend/contracts/Campaign.sol\":5072:5197  CampaignFinalized(... */\n              mload(0x40)\n              dup1\n              swap2\n              sub\n              swap1\n              log3\n                /* \"backend/contracts/Campaign.sol\":4658:5204  {... */\n              pop\n              pop\n                /* \"backend/contracts/Campaign.sol\":4626:5204  function releaseFunds() private {... */\n              jump\t// out\n            tag_128:\n              pop\n              dup1\n              sload\n              0x00\n              dup3\n              sstore\n              swap1\n              0x00\n              mstore\n              keccak256(0x00, 0x20)\n              swap1\n              dup2\n              add\n              swap1\n              tag_155\n              swap2\n              swap1\n              tag_156\n              jump\t// in\n            tag_155:\n              pop\n              jump\t// out\n            tag_156:\n            tag_157:\n              dup1\n              dup3\n              gt\n              iszero\n              tag_158\n              jumpi\n              0x00\n              dup2\n              sstore\n              0x01\n              add\n              jump(tag_157)\n            tag_158:\n              pop\n              swap1\n              jump\t// out\n                /* \"#utility.yul\":14:303   */\n            tag_159:\n                /* \"#utility.yul\":56:59   */\n              0x00\n                /* \"#utility.yul\":94:99   */\n              dup2\n                /* \"#utility.yul\":88:100   */\n              mload\n                /* \"#utility.yul\":121:127   */\n              dup1\n                /* \"#utility.yul\":116:119   */\n              dup5\n                /* \"#utility.yul\":109:128   */\n              mstore\n                /* \"#utility.yul\":177:183   */\n              dup1\n                /* \"#utility.yul\":170:174   */\n              0x20\n                /* \"#utility.yul\":163:168   */\n              dup5\n                /* \"#utility.yul\":159:175   */\n              add\n                /* \"#utility.yul\":152:156   */\n              0x20\n                /* \"#utility.yul\":147:150   */\n              dup7\n                /* \"#utility.yul\":143:157   */\n              add\n                /* \"#utility.yul\":137:184   */\n              mcopy\n                /* \"#utility.yul\":229:230   */\n              0x00\n                /* \"#utility.yul\":222:226   */\n              0x20\n                /* \"#utility.yul\":213:219   */\n              dup3\n                /* \"#utility.yul\":208:211   */\n              dup7\n                /* \"#utility.yul\":204:220   */\n              add\n                /* \"#utility.yul\":200:227   */\n              add\n                /* \"#utility.yul\":193:231   */\n              mstore\n                /* \"#utility.yul\":292:296   */\n              0x20\n                /* \"#utility.yul\":285:287   */\n              0x1f\n                /* \"#utility.yul\":281:288   */\n              not\n                /* \"#utility.yul\":276:278   */\n              0x1f\n                /* \"#utility.yul\":268:274   */\n              dup4\n                /* \"#utility.yul\":264:279   */\n              add\n                /* \"#utility.yul\":260:289   */\n              and\n                /* \"#utility.yul\":255:258   */\n              dup6\n                /* \"#utility.yul\":251:290   */\n              add\n                /* \"#utility.yul\":247:297   */\n              add\n                /* \"#utility.yul\":240:297   */\n              swap2\n              pop\n              pop\n                /* \"#utility.yul\":14:303   */\n              swap3\n              swap2\n              pop\n              pop\n              jump\t// out\n                /* \"#utility.yul\":308:528   */\n            tag_21:\n                /* \"#utility.yul\":457:459   */\n              0x20\n                /* \"#utility.yul\":446:455   */\n              dup2\n                /* \"#utility.yul\":439:460   */\n              mstore\n                /* \"#utility.yul\":420:424   */\n              0x00\n                /* \"#utility.yul\":477:522   */\n              tag_163\n                /* \"#utility.yul\":518:520   */\n              0x20\n                /* \"#utility.yul\":507:516   */\n              dup4\n                /* \"#utility.yul\":503:521   */\n              add\n                /* \"#utility.yul\":495:501   */\n              dup5\n                /* \"#utility.yul\":477:522   */\n              tag_159\n              jump\t// in\n            tag_163:\n                /* \"#utility.yul\":469:522   */\n              swap4\n                /* \"#utility.yul\":308:528   */\n              swap3\n              pop\n              pop\n              pop\n              jump\t// out\n                /* \"#utility.yul\":533:1342   */\n            tag_26:\n              sub(shl(0xa0, 0x01), 0x01)\n                /* \"#utility.yul\":860:892   */\n              dup9\n              and\n                /* \"#utility.yul\":842:893   */\n              dup2\n              mstore\n                /* \"#utility.yul\":929:932   */\n              0xe0\n                /* \"#utility.yul\":924:926   */\n              0x20\n                /* \"#utility.yul\":909:927   */\n              dup3\n              add\n                /* \"#utility.yul\":902:933   */\n              dup2\n              swap1\n              mstore\n              0x00\n              swap1\n                /* \"#utility.yul\":956:1002   */\n              tag_165\n              swap1\n                /* \"#utility.yul\":982:1001   */\n              dup4\n              add\n                /* \"#utility.yul\":974:980   */\n              dup10\n                /* \"#utility.yul\":956:1002   */\n              tag_159\n              jump\t// in\n            tag_165:\n                /* \"#utility.yul\":1050:1059   */\n              dup3\n                /* \"#utility.yul\":1042:1048   */\n              dup2\n                /* \"#utility.yul\":1038:1060   */\n              sub\n                /* \"#utility.yul\":1033:1035   */\n              0x40\n                /* \"#utility.yul\":1022:1031   */\n              dup5\n                /* \"#utility.yul\":1018:1036   */\n              add\n                /* \"#utility.yul\":1011:1061   */\n              mstore\n                /* \"#utility.yul\":1078:1111   */\n              tag_166\n                /* \"#utility.yul\":1104:1110   */\n              dup2\n                /* \"#utility.yul\":1096:1102   */\n              dup10\n                /* \"#utility.yul\":1078:1111   */\n              tag_159\n              jump\t// in\n            tag_166:\n                /* \"#utility.yul\":1142:1144   */\n              0x60\n                /* \"#utility.yul\":1127:1145   */\n              dup5\n              add\n                /* \"#utility.yul\":1120:1154   */\n              swap8\n              swap1\n              swap8\n              mstore\n              pop\n              pop\n                /* \"#utility.yul\":1203:1213   */\n              0xffffffff\n                /* \"#utility.yul\":1191:1214   */\n              swap4\n              dup5\n              and\n                /* \"#utility.yul\":1185:1188   */\n              0x80\n                /* \"#utility.yul\":1170:1189   */\n              dup3\n              add\n                /* \"#utility.yul\":1163:1215   */\n              mstore\n                /* \"#utility.yul\":1252:1275   */\n              swap2\n              swap1\n              swap3\n              and\n                /* \"#utility.yul\":1246:1249   */\n              0xa0\n                /* \"#utility.yul\":1231:1250   */\n              dup3\n              add\n                /* \"#utility.yul\":1224:1276   */\n              mstore\n                /* \"#utility.yul\":1320:1334   */\n              swap1\n              iszero\n                /* \"#utility.yul\":1313:1335   */\n              iszero\n                /* \"#utility.yul\":1307:1310   */\n              0xc0\n                /* \"#utility.yul\":1292:1311   */\n              swap1\n              swap2\n              add\n                /* \"#utility.yul\":1285:1336   */\n              mstore\n                /* \"#utility.yul\":1070:1111   */\n              swap4\n                /* \"#utility.yul\":533:1342   */\n              swap3\n              pop\n              pop\n              pop\n              jump\t// out\n                /* \"#utility.yul\":2126:2763   */\n            tag_63:\n                /* \"#utility.yul\":2316:2318   */\n              0x20\n                /* \"#utility.yul\":2328:2349   */\n              dup1\n              dup3\n              mstore\n                /* \"#utility.yul\":2398:2411   */\n              dup3\n              mload\n                /* \"#utility.yul\":2301:2319   */\n              dup3\n              dup3\n              add\n                /* \"#utility.yul\":2420:2442   */\n              dup2\n              swap1\n              mstore\n                /* \"#utility.yul\":2268:2272   */\n              0x00\n              swap2\n                /* \"#utility.yul\":2499:2514   */\n              dup5\n              add\n              swap1\n                /* \"#utility.yul\":2473:2475   */\n              0x40\n                /* \"#utility.yul\":2458:2476   */\n              dup5\n              add\n              swap1\n                /* \"#utility.yul\":2268:2272   */\n              dup4\n                /* \"#utility.yul\":2542:2737   */\n            tag_172:\n                /* \"#utility.yul\":2556:2562   */\n              dup2\n                /* \"#utility.yul\":2553:2554   */\n              dup2\n                /* \"#utility.yul\":2550:2563   */\n              lt\n                /* \"#utility.yul\":2542:2737   */\n              iszero\n              tag_174\n              jumpi\n                /* \"#utility.yul\":2621:2634   */\n              dup4\n              mload\n              sub(shl(0xa0, 0x01), 0x01)\n                /* \"#utility.yul\":2617:2656   */\n              and\n                /* \"#utility.yul\":2605:2657   */\n              dup4\n              mstore\n                /* \"#utility.yul\":2686:2688   */\n              0x20\n                /* \"#utility.yul\":2712:2727   */\n              swap4\n              dup5\n              add\n              swap4\n                /* \"#utility.yul\":2677:2689   */\n              swap1\n              swap3\n              add\n              swap2\n                /* \"#utility.yul\":2653:2654   */\n              0x01\n                /* \"#utility.yul\":2571:2580   */\n              add\n                /* \"#utility.yul\":2542:2737   */\n              jump(tag_172)\n            tag_174:\n              pop\n                /* \"#utility.yul\":2754:2757   */\n              swap1\n              swap6\n                /* \"#utility.yul\":2126:2763   */\n              swap5\n              pop\n              pop\n              pop\n              pop\n              pop\n              jump\t// out\n                /* \"#utility.yul\":2768:3148   */\n            tag_74:\n                /* \"#utility.yul\":2847:2848   */\n              0x01\n                /* \"#utility.yul\":2843:2855   */\n              dup2\n              dup2\n              shr\n              swap1\n                /* \"#utility.yul\":2890:2902   */\n              dup3\n              and\n              dup1\n                /* \"#utility.yul\":2911:2972   */\n              tag_176\n              jumpi\n                /* \"#utility.yul\":2965:2969   */\n              0x7f\n                /* \"#utility.yul\":2957:2963   */\n              dup3\n                /* \"#utility.yul\":2953:2970   */\n              and\n                /* \"#utility.yul\":2943:2970   */\n              swap2\n              pop\n                /* \"#utility.yul\":2911:2972   */\n            tag_176:\n                /* \"#utility.yul\":3018:3020   */\n              0x20\n                /* \"#utility.yul\":3010:3016   */\n              dup3\n                /* \"#utility.yul\":3007:3021   */\n              lt\n                /* \"#utility.yul\":2987:3005   */\n              dup2\n                /* \"#utility.yul\":2984:3022   */\n              sub\n                /* \"#utility.yul\":2981:3142   */\n              tag_177\n              jumpi\n                /* \"#utility.yul\":3064:3074   */\n              0x4e487b71\n                /* \"#utility.yul\":3059:3062   */\n              0xe0\n                /* \"#utility.yul\":3055:3075   */\n              shl\n                /* \"#utility.yul\":3052:3053   */\n              0x00\n                /* \"#utility.yul\":3045:3076   */\n              mstore\n                /* \"#utility.yul\":3099:3103   */\n              0x22\n                /* \"#utility.yul\":3096:3097   */\n              0x04\n                /* \"#utility.yul\":3089:3104   */\n              mstore\n                /* \"#utility.yul\":3127:3131   */\n              0x24\n                /* \"#utility.yul\":3124:3125   */\n              0x00\n                /* \"#utility.yul\":3117:3132   */\n              revert\n                /* \"#utility.yul\":2981:3142   */\n            tag_177:\n              pop\n                /* \"#utility.yul\":2768:3148   */\n              swap2\n              swap1\n              pop\n              jump\t// out\n                /* \"#utility.yul\":4273:4400   */\n            tag_121:\n                /* \"#utility.yul\":4334:4344   */\n              0x4e487b71\n                /* \"#utility.yul\":4329:4332   */\n              0xe0\n                /* \"#utility.yul\":4325:4345   */\n              shl\n                /* \"#utility.yul\":4322:4323   */\n              0x00\n                /* \"#utility.yul\":4315:4346   */\n              mstore\n                /* \"#utility.yul\":4365:4369   */\n              0x32\n                /* \"#utility.yul\":4362:4363   */\n              0x04\n                /* \"#utility.yul\":4355:4370   */\n              mstore\n                /* \"#utility.yul\":4389:4393   */\n              0x24\n                /* \"#utility.yul\":4386:4387   */\n              0x00\n                /* \"#utility.yul\":4379:4394   */\n              revert\n                /* \"#utility.yul\":4683:4947   */\n            tag_138:\n                /* \"#utility.yul\":4778:4788   */\n              0xffffffff\n                /* \"#utility.yul\":4751:4769   */\n              dup2\n              dup2\n              and\n                /* \"#utility.yul\":4771:4789   */\n              dup4\n              dup3\n              and\n                /* \"#utility.yul\":4747:4790   */\n              add\n              swap1\n                /* \"#utility.yul\":4802:4821   */\n              dup2\n              gt\n                /* \"#utility.yul\":4799:4941   */\n              iszero\n              tag_184\n              jumpi\n                /* \"#utility.yul\":4863:4873   */\n              0x4e487b71\n                /* \"#utility.yul\":4858:4861   */\n              0xe0\n                /* \"#utility.yul\":4854:4874   */\n              shl\n                /* \"#utility.yul\":4851:4852   */\n              0x00\n                /* \"#utility.yul\":4844:4875   */\n              mstore\n                /* \"#utility.yul\":4898:4902   */\n              0x11\n                /* \"#utility.yul\":4895:4896   */\n              0x04\n                /* \"#utility.yul\":4888:4903   */\n              mstore\n                /* \"#utility.yul\":4926:4930   */\n              0x24\n                /* \"#utility.yul\":4923:4924   */\n              0x00\n                /* \"#utility.yul\":4916:4931   */\n              revert\n                /* \"#utility.yul\":4799:4941   */\n            tag_184:\n                /* \"#utility.yul\":4683:4947   */\n              swap3\n              swap2\n              pop\n              pop\n              jump\t// out\n\n            auxdata: 0xa2646970667358221220acb248f3a0653037ac7f9f8deadd30027bc3e7788f8a1f1a314e85ae2f453d3264736f6c634300081a0033\n        }\n    }\n\n    auxdata: 0xa2646970667358221220e95af91dfc2d6c358d881731ba41f9f1bb2c6bbc91fed4be0636401c251456e964736f6c634300081a0033\n}\n",
				"bytecode": {
					"linkReferences": {},
					"object": "6080604052348015600e575f80fd5b506114018061001c5f395ff3fe608060405234801561000f575f80fd5b5060043610610029575f3560e01c806308cfd36e1461002d575b5f80fd5b61004061003b36600461012a565b610042565b005b5f3333888888888888604051610057906100d8565b6100689897969594939291906101e5565b604051809103905ff080158015610081573d5f803e3d5ffd5b506040805163ffffffff86168152602081018590529192506001600160a01b038316917f2a5c48dab8915658fb7bddd512a1f545eb5bff5d1c72cbf9611108d9ad48d48a910160405180910390a250505050505050565b6111898061024383390190565b5f8083601f8401126100f5575f80fd5b50813567ffffffffffffffff81111561010c575f80fd5b602083019150836020828501011115610123575f80fd5b9250929050565b5f805f805f806080878903121561013f575f80fd5b863567ffffffffffffffff811115610155575f80fd5b61016189828a016100e5565b909750955050602087013567ffffffffffffffff811115610180575f80fd5b61018c89828a016100e5565b909550935050604087013563ffffffff811681146101a8575f80fd5b80925050606087013590509295509295509295565b81835281816020850137505f828201602090810191909152601f909101601f19169091010190565b6001600160a01b0389811682528816602082015260c0604082018190525f90610211908301888a6101bd565b82810360608401526102248187896101bd565b63ffffffff959095166080840152505060a00152969550505050505056fe60e060405234801561000f575f80fd5b5060405161118938038061118983398101604081905261002e91610150565b6001600160a01b03868116608052600580546001600160a01b0319169187169190911790555f61005e858261027e565b50600161006b848261027e565b5063ffffffff90911660c05260a05250506002805460ff60201b1916640100000000179055506103389050565b80516001600160a01b03811681146100ae575f80fd5b919050565b634e487b7160e01b5f52604160045260245ffd5b5f82601f8301126100d6575f80fd5b81516001600160401b038111156100ef576100ef6100b3565b604051601f8201601f19908116603f011681016001600160401b038111828210171561011d5761011d6100b3565b604052818152838201602001851015610134575f80fd5b8160208501602083015e5f918101602001919091529392505050565b5f805f805f8060c08789031215610165575f80fd5b61016e87610098565b955061017c60208801610098565b60408801519095506001600160401b03811115610197575f80fd5b6101a389828a016100c7565b606089015190955090506001600160401b038111156101c0575f80fd5b6101cc89828a016100c7565b935050608087015163ffffffff811681146101e5575f80fd5b8092505060a087015190509295509295509295565b600181811c9082168061020e57607f821691505b60208210810361022c57634e487b7160e01b5f52602260045260245ffd5b50919050565b601f82111561027957805f5260205f20601f840160051c810160208510156102575750805b601f840160051c820191505b81811015610276575f8155600101610263565b50505b505050565b81516001600160401b03811115610297576102976100b3565b6102ab816102a584546101fa565b84610232565b6020601f8211600181146102dd575f83156102c65750848201515b5f19600385901b1c1916600184901b178455610276565b5f84815260208120601f198516915b8281101561030c57878501518255602094850194600190920191016102ec565b508482101561032957868401515f19600387901b60f8161c191681555b50505050600190811b01905550565b60805160a05160c051610dda6103af5f395f81816101f6015281816104c1015281816106b00152610a1201525f81816101560152818161049e01526105cf01525f8181610197015281816103620152818161080b015281816109b801528181610a7001528181610b3d0152610bab0152610dda5ff3fe6080604052600436106100bf575f3560e01c80637a3a0e841161007c57806396f300d41161005757806396f300d41461026f578063a1211bc014610290578063ed88c68e146102a6578063f851a440146102ae575f80fd5b80637a3a0e84146101e557806390e4a1301461022d578063968ed60014610253575f80fd5b806306fdde03146100c35780630c611f24146100ed57806322f3e2d41461011457806329dcb0cf1461014557806338af3eed146101865780637284e416146101d1575b5f80fd5b3480156100ce575f80fd5b506100d76102cd565b6040516100e49190610c61565b60405180910390f35b3480156100f8575f80fd5b50610101610358565b6040516100e49796959493929190610c7a565b34801561011f575f80fd5b5060025461013590640100000000900460ff1681565b60405190151581526020016100e4565b348015610150575f80fd5b506101787f000000000000000000000000000000000000000000000000000000000000000081565b6040519081526020016100e4565b348015610191575f80fd5b506101b97f000000000000000000000000000000000000000000000000000000000000000081565b6040516001600160a01b0390911681526020016100e4565b3480156101dc575f80fd5b506100d7610501565b3480156101f0575f80fd5b506102187f000000000000000000000000000000000000000000000000000000000000000081565b60405163ffffffff90911681526020016100e4565b348015610238575f80fd5b50335f9081526003602052604090205463ffffffff16610218565b34801561025e575f80fd5b506002546102189063ffffffff1681565b34801561027a575f80fd5b5061028361050e565b6040516100e49190610cdf565b34801561029b575f80fd5b506102a461056e565b005b6102a4610864565b3480156102b9575f80fd5b506005546101b9906001600160a01b031681565b5f80546102d990610d2a565b80601f016020809104026020016040519081016040528092919081815260200182805461030590610d2a565b80156103505780601f1061032757610100808354040283529160200191610350565b820191905f5260205f20905b81548152906001019060200180831161033357829003601f168201915b505050505081565b5f6060805f805f807f000000000000000000000000000000000000000000000000000000000000000096505f805461038f90610d2a565b80601f01602080910402602001604051908101604052809291908181526020018280546103bb90610d2a565b80156104065780601f106103dd57610100808354040283529160200191610406565b820191905f5260205f20905b8154815290600101906020018083116103e957829003601f168201915b505050505095506001805461041a90610d2a565b80601f016020809104026020016040519081016040528092919081815260200182805461044690610d2a565b80156104915780601f1061046857610100808354040283529160200191610491565b820191905f5260205f20905b81548152906001019060200180831161047457829003601f168201915b50506002549a9b999a93997f000000000000000000000000000000000000000000000000000000000000000099507f0000000000000000000000000000000000000000000000000000000000000000985063ffffffff8516975064010000000090940460ff169550929350505050565b600180546102d990610d2a565b6060600480548060200260200160405190810160405280929190818152602001828054801561056457602002820191905f5260205f20905b81546001600160a01b03168152600190910190602001808311610546575b5050505050905090565b600254640100000000900460ff166105cd5760405162461bcd60e51b815260206004820152601b60248201527f5468652043616d706169676e206973206e6f742061637469766521000000000060448201526064015b60405180910390fd5b7f0000000000000000000000000000000000000000000000000000000000000000421161064c5760405162461bcd60e51b815260206004820152602760248201527f5468652043616d706169676e277320646561646c696e6520686173206e6f74206044820152667061737365642160c81b60648201526084016105c4565b6005546001600160a01b031633146106a65760405162461bcd60e51b815260206004820152601b60248201527f416363657373207265737472696374656420746f2061646d696e21000000000060448201526064016105c4565b60025463ffffffff7f000000000000000000000000000000000000000000000000000000000000000081169116106106e2576106e0610a50565b565b6002805464ff00000000191690556004545f5b818110156107e6575f6004828154811061071157610711610d62565b5f9182526020808320909101546001600160a01b0316808352600390915260409091205490915063ffffffff1680156107dc576001600160a01b0382165f81815260036020526040808220805463ffffffff191690555163ffffffff841680156108fc0292909190818181858888f19350505050158015610794573d5f803e3d5ffd5b5060405163ffffffff821681526001600160a01b0383169030907fcbaf39f3d8f9a55dbfd111d1803615438ca90cd340bf43a9b32af9967cb268b09060200160405180910390a35b50506001016106f5565b506107f260045f610bfd565b600254604080515f815263ffffffff90921660208301527f00000000000000000000000000000000000000000000000000000000000000006001600160a01b03169130917ff8b5bc9a22de51519f1a92f78276ca83d891d1edf8dd4263ccb6032594644b65910160405180910390a350565b600254640100000000900460ff166108be5760405162461bcd60e51b815260206004820152601b60248201527f5468652043616d706169676e206973206e6f742061637469766521000000000060448201526064016105c4565b335f81815260036020526040812054349163ffffffff909116900361092857600480546001810182555f919091527f8a35acfbc15ff81a39ae7d344fd709f28e8600b4aa8c65c6b64bfe7fe36bd19b0180546001600160a01b0319166001600160a01b0384161790555b6001600160a01b0382165f908152600360205260408120805483929061095590849063ffffffff16610d76565b92506101000a81548163ffffffff021916908363ffffffff1602179055505f8160025f9054906101000a900463ffffffff166109919190610d76565b6002805463ffffffff191663ffffffff8381169190911790915560405190841681529091507f00000000000000000000000000000000000000000000000000000000000000006001600160a01b03169030907f4bcad339364614747037d489debcab743e155b2486ad23759d702d48c30a7dc69060200160405180910390a37f000000000000000000000000000000000000000000000000000000000000000063ffffffff168163ffffffff1610610a4b57610a4b610a50565b505050565b6002805464ffffffffff19811690915560405163ffffffff909116905f907f00000000000000000000000000000000000000000000000000000000000000006001600160a01b03169083908381818185875af1925050503d805f8114610ad1576040519150601f19603f3d011682016040523d82523d5f602084013e610ad6565b606091505b5050905080610b275760405162461bcd60e51b815260206004820152601860248201527f556e61626c6520746f2072656c656173652066756e647321000000000000000060448201526064016105c4565b60405163ffffffff831681526001600160a01b037f0000000000000000000000000000000000000000000000000000000000000000169030907f9a2d22bdc446507e83df389ff5730c89bb47efe4486aa9fe07032b2b7339ee7f9060200160405180910390a3604080516001815263ffffffff841660208201526001600160a01b037f0000000000000000000000000000000000000000000000000000000000000000169130917ff8b5bc9a22de51519f1a92f78276ca83d891d1edf8dd4263ccb6032594644b65910160405180910390a35050565b5080545f8255905f5260205f2090810190610c189190610c1b565b50565b5b80821115610c2f575f8155600101610c1c565b5090565b5f81518084528060208401602086015e5f602082860101526020601f19601f83011685010191505092915050565b602081525f610c736020830184610c33565b9392505050565b6001600160a01b038816815260e0602082018190525f90610c9d90830189610c33565b8281036040840152610caf8189610c33565b6060840197909752505063ffffffff93841660808201529190921660a082015290151560c0909101529392505050565b602080825282518282018190525f918401906040840190835b81811015610d1f5783516001600160a01b0316835260209384019390920191600101610cf8565b509095945050505050565b600181811c90821680610d3e57607f821691505b602082108103610d5c57634e487b7160e01b5f52602260045260245ffd5b50919050565b634e487b7160e01b5f52603260045260245ffd5b63ffffffff8181168382160190811115610d9e57634e487b7160e01b5f52601160045260245ffd5b9291505056fea2646970667358221220acb248f3a0653037ac7f9f8deadd30027bc3e7788f8a1f1a314e85ae2f453d3264736f6c634300081a0033a2646970667358221220e95af91dfc2d6c358d881731ba41f9f1bb2c6bbc91fed4be0636401c251456e964736f6c634300081a0033",
					"opcodes": "PUSH1 0x80 PUSH1 0x40 MSTORE CALLVALUE DUP1 ISZERO PUSH1 0xE JUMPI PUSH0 DUP1 REVERT JUMPDEST POP PUSH2 0x1401 DUP1 PUSH2 0x1C PUSH0 CODECOPY PUSH0 RETURN INVALID PUSH1 0x80 PUSH1 0x40 MSTORE CALLVALUE DUP1 ISZERO PUSH2 0xF JUMPI PUSH0 DUP1 REVERT JUMPDEST POP PUSH1 0x4 CALLDATASIZE LT PUSH2 0x29 JUMPI PUSH0 CALLDATALOAD PUSH1 0xE0 SHR DUP1 PUSH4 0x8CFD36E EQ PUSH2 0x2D JUMPI JUMPDEST PUSH0 DUP1 REVERT JUMPDEST PUSH2 0x40 PUSH2 0x3B CALLDATASIZE PUSH1 0x4 PUSH2 0x12A JUMP JUMPDEST PUSH2 0x42 JUMP JUMPDEST STOP JUMPDEST PUSH0 CALLER CALLER DUP9 DUP9 DUP9 DUP9 DUP9 DUP9 PUSH1 0x40 MLOAD PUSH2 0x57 SWAP1 PUSH2 0xD8 JUMP JUMPDEST PUSH2 0x68 SWAP9 SWAP8 SWAP7 SWAP6 SWAP5 SWAP4 SWAP3 SWAP2 SWAP1 PUSH2 0x1E5 JUMP JUMPDEST PUSH1 0x40 MLOAD DUP1 SWAP2 SUB SWAP1 PUSH0 CREATE DUP1 ISZERO DUP1 ISZERO PUSH2 0x81 JUMPI RETURNDATASIZE PUSH0 DUP1 RETURNDATACOPY RETURNDATASIZE PUSH0 REVERT JUMPDEST POP PUSH1 0x40 DUP1 MLOAD PUSH4 0xFFFFFFFF DUP7 AND DUP2 MSTORE PUSH1 0x20 DUP2 ADD DUP6 SWAP1 MSTORE SWAP2 SWAP3 POP PUSH1 0x1 PUSH1 0x1 PUSH1 0xA0 SHL SUB DUP4 AND SWAP2 PUSH32 0x2A5C48DAB8915658FB7BDDD512A1F545EB5BFF5D1C72CBF9611108D9AD48D48A SWAP2 ADD PUSH1 0x40 MLOAD DUP1 SWAP2 SUB SWAP1 LOG2 POP POP POP POP POP POP POP JUMP JUMPDEST PUSH2 0x1189 DUP1 PUSH2 0x243 DUP4 CODECOPY ADD SWAP1 JUMP JUMPDEST PUSH0 DUP1 DUP4 PUSH1 0x1F DUP5 ADD SLT PUSH2 0xF5 JUMPI PUSH0 DUP1 REVERT JUMPDEST POP DUP2 CALLDATALOAD PUSH8 0xFFFFFFFFFFFFFFFF DUP2 GT ISZERO PUSH2 0x10C JUMPI PUSH0 DUP1 REVERT JUMPDEST PUSH1 0x20 DUP4 ADD SWAP2 POP DUP4 PUSH1 0x20 DUP3 DUP6 ADD ADD GT ISZERO PUSH2 0x123 JUMPI PUSH0 DUP1 REVERT JUMPDEST SWAP3 POP SWAP3 SWAP1 POP JUMP JUMPDEST PUSH0 DUP1 PUSH0 DUP1 PUSH0 DUP1 PUSH1 0x80 DUP8 DUP10 SUB SLT ISZERO PUSH2 0x13F JUMPI PUSH0 DUP1 REVERT JUMPDEST DUP7 CALLDATALOAD PUSH8 0xFFFFFFFFFFFFFFFF DUP2 GT ISZERO PUSH2 0x155 JUMPI PUSH0 DUP1 REVERT JUMPDEST PUSH2 0x161 DUP10 DUP3 DUP11 ADD PUSH2 0xE5 JUMP JUMPDEST SWAP1 SWAP8 POP SWAP6 POP POP PUSH1 0x20 DUP8 ADD CALLDATALOAD PUSH8 0xFFFFFFFFFFFFFFFF DUP2 GT ISZERO PUSH2 0x180 JUMPI PUSH0 DUP1 REVERT JUMPDEST PUSH2 0x18C DUP10 DUP3 DUP11 ADD PUSH2 0xE5 JUMP JUMPDEST SWAP1 SWAP6 POP SWAP4 POP POP PUSH1 0x40 DUP8 ADD CALLDATALOAD PUSH4 0xFFFFFFFF DUP2 AND DUP2 EQ PUSH2 0x1A8 JUMPI PUSH0 DUP1 REVERT JUMPDEST DUP1 SWAP3 POP POP PUSH1 0x60 DUP8 ADD CALLDATALOAD SWAP1 POP SWAP3 SWAP6 POP SWAP3 SWAP6 POP SWAP3 SWAP6 JUMP JUMPDEST DUP2 DUP4 MSTORE DUP2 DUP2 PUSH1 0x20 DUP6 ADD CALLDATACOPY POP PUSH0 DUP3 DUP3 ADD PUSH1 0x20 SWAP1 DUP2 ADD SWAP2 SWAP1 SWAP2 MSTORE PUSH1 0x1F SWAP1 SWAP2 ADD PUSH1 0x1F NOT AND SWAP1 SWAP2 ADD ADD SWAP1 JUMP JUMPDEST PUSH1 0x1 PUSH1 0x1 PUSH1 0xA0 SHL SUB DUP10 DUP2 AND DUP3 MSTORE DUP9 AND PUSH1 0x20 DUP3 ADD MSTORE PUSH1 0xC0 PUSH1 0x40 DUP3 ADD DUP2 SWAP1 MSTORE PUSH0 SWAP1 PUSH2 0x211 SWAP1 DUP4 ADD DUP9 DUP11 PUSH2 0x1BD JUMP JUMPDEST DUP3 DUP2 SUB PUSH1 0x60 DUP5 ADD MSTORE PUSH2 0x224 DUP2 DUP8 DUP10 PUSH2 0x1BD JUMP JUMPDEST PUSH4 0xFFFFFFFF SWAP6 SWAP1 SWAP6 AND PUSH1 0x80 DUP5 ADD MSTORE POP POP PUSH1 0xA0 ADD MSTORE SWAP7 SWAP6 POP POP POP POP POP POP JUMP INVALID PUSH1 0xE0 PUSH1 0x40 MSTORE CALLVALUE DUP1 ISZERO PUSH2 0xF JUMPI PUSH0 DUP1 REVERT JUMPDEST POP PUSH1 0x40 MLOAD PUSH2 0x1189 CODESIZE SUB DUP1 PUSH2 0x1189 DUP4 CODECOPY DUP2 ADD PUSH1 0x40 DUP2 SWAP1 MSTORE PUSH2 0x2E SWAP2 PUSH2 0x150 JUMP JUMPDEST PUSH1 0x1 PUSH1 0x1 PUSH1 0xA0 SHL SUB DUP7 DUP2 AND PUSH1 0x80 MSTORE PUSH1 0x5 DUP1 SLOAD PUSH1 0x1 PUSH1 0x1 PUSH1 0xA0 SHL SUB NOT AND SWAP2 DUP8 AND SWAP2 SWAP1 SWAP2 OR SWAP1 SSTORE PUSH0 PUSH2 0x5E DUP6 DUP3 PUSH2 0x27E JUMP JUMPDEST POP PUSH1 0x1 PUSH2 0x6B DUP5 DUP3 PUSH2 0x27E JUMP JUMPDEST POP PUSH4 0xFFFFFFFF SWAP1 SWAP2 AND PUSH1 0xC0 MSTORE PUSH1 0xA0 MSTORE POP POP PUSH1 0x2 DUP1 SLOAD PUSH1 0xFF PUSH1 0x20 SHL NOT AND PUSH5 0x100000000 OR SWAP1 SSTORE POP PUSH2 0x338 SWAP1 POP JUMP JUMPDEST DUP1 MLOAD PUSH1 0x1 PUSH1 0x1 PUSH1 0xA0 SHL SUB DUP2 AND DUP2 EQ PUSH2 0xAE JUMPI PUSH0 DUP1 REVERT JUMPDEST SWAP2 SWAP1 POP JUMP JUMPDEST PUSH4 0x4E487B71 PUSH1 0xE0 SHL PUSH0 MSTORE PUSH1 0x41 PUSH1 0x4 MSTORE PUSH1 0x24 PUSH0 REVERT JUMPDEST PUSH0 DUP3 PUSH1 0x1F DUP4 ADD SLT PUSH2 0xD6 JUMPI PUSH0 DUP1 REVERT JUMPDEST DUP2 MLOAD PUSH1 0x1 PUSH1 0x1 PUSH1 0x40 SHL SUB DUP2 GT ISZERO PUSH2 0xEF JUMPI PUSH2 0xEF PUSH2 0xB3 JUMP JUMPDEST PUSH1 0x40 MLOAD PUSH1 0x1F DUP3 ADD PUSH1 0x1F NOT SWAP1 DUP2 AND PUSH1 0x3F ADD AND DUP2 ADD PUSH1 0x1 PUSH1 0x1 PUSH1 0x40 SHL SUB DUP2 GT DUP3 DUP3 LT OR ISZERO PUSH2 0x11D JUMPI PUSH2 0x11D PUSH2 0xB3 JUMP JUMPDEST PUSH1 0x40 MSTORE DUP2 DUP2 MSTORE DUP4 DUP3 ADD PUSH1 0x20 ADD DUP6 LT ISZERO PUSH2 0x134 JUMPI PUSH0 DUP1 REVERT JUMPDEST DUP2 PUSH1 0x20 DUP6 ADD PUSH1 0x20 DUP4 ADD MCOPY PUSH0 SWAP2 DUP2 ADD PUSH1 0x20 ADD SWAP2 SWAP1 SWAP2 MSTORE SWAP4 SWAP3 POP POP POP JUMP JUMPDEST PUSH0 DUP1 PUSH0 DUP1 PUSH0 DUP1 PUSH1 0xC0 DUP8 DUP10 SUB SLT ISZERO PUSH2 0x165 JUMPI PUSH0 DUP1 REVERT JUMPDEST PUSH2 0x16E DUP8 PUSH2 0x98 JUMP JUMPDEST SWAP6 POP PUSH2 0x17C PUSH1 0x20 DUP9 ADD PUSH2 0x98 JUMP JUMPDEST PUSH1 0x40 DUP9 ADD MLOAD SWAP1 SWAP6 POP PUSH1 0x1 PUSH1 0x1 PUSH1 0x40 SHL SUB DUP2 GT ISZERO PUSH2 0x197 JUMPI PUSH0 DUP1 REVERT JUMPDEST PUSH2 0x1A3 DUP10 DUP3 DUP11 ADD PUSH2 0xC7 JUMP JUMPDEST PUSH1 0x60 DUP10 ADD MLOAD SWAP1 SWAP6 POP SWAP1 POP PUSH1 0x1 PUSH1 0x1 PUSH1 0x40 SHL SUB DUP2 GT ISZERO PUSH2 0x1C0 JUMPI PUSH0 DUP1 REVERT JUMPDEST PUSH2 0x1CC DUP10 DUP3 DUP11 ADD PUSH2 0xC7 JUMP JUMPDEST SWAP4 POP POP PUSH1 0x80 DUP8 ADD MLOAD PUSH4 0xFFFFFFFF DUP2 AND DUP2 EQ PUSH2 0x1E5 JUMPI PUSH0 DUP1 REVERT JUMPDEST DUP1 SWAP3 POP POP PUSH1 0xA0 DUP8 ADD MLOAD SWAP1 POP SWAP3 SWAP6 POP SWAP3 SWAP6 POP SWAP3 SWAP6 JUMP JUMPDEST PUSH1 0x1 DUP2 DUP2 SHR SWAP1 DUP3 AND DUP1 PUSH2 0x20E JUMPI PUSH1 0x7F DUP3 AND SWAP2 POP JUMPDEST PUSH1 0x20 DUP3 LT DUP2 SUB PUSH2 0x22C JUMPI PUSH4 0x4E487B71 PUSH1 0xE0 SHL PUSH0 MSTORE PUSH1 0x22 PUSH1 0x4 MSTORE PUSH1 0x24 PUSH0 REVERT JUMPDEST POP SWAP2 SWAP1 POP JUMP JUMPDEST PUSH1 0x1F DUP3 GT ISZERO PUSH2 0x279 JUMPI DUP1 PUSH0 MSTORE PUSH1 0x20 PUSH0 KECCAK256 PUSH1 0x1F DUP5 ADD PUSH1 0x5 SHR DUP2 ADD PUSH1 0x20 DUP6 LT ISZERO PUSH2 0x257 JUMPI POP DUP1 JUMPDEST PUSH1 0x1F DUP5 ADD PUSH1 0x5 SHR DUP3 ADD SWAP2 POP JUMPDEST DUP2 DUP2 LT ISZERO PUSH2 0x276 JUMPI PUSH0 DUP2 SSTORE PUSH1 0x1 ADD PUSH2 0x263 JUMP JUMPDEST POP POP JUMPDEST POP POP POP JUMP JUMPDEST DUP2 MLOAD PUSH1 0x1 PUSH1 0x1 PUSH1 0x40 SHL SUB DUP2 GT ISZERO PUSH2 0x297 JUMPI PUSH2 0x297 PUSH2 0xB3 JUMP JUMPDEST PUSH2 0x2AB DUP2 PUSH2 0x2A5 DUP5 SLOAD PUSH2 0x1FA JUMP JUMPDEST DUP5 PUSH2 0x232 JUMP JUMPDEST PUSH1 0x20 PUSH1 0x1F DUP3 GT PUSH1 0x1 DUP2 EQ PUSH2 0x2DD JUMPI PUSH0 DUP4 ISZERO PUSH2 0x2C6 JUMPI POP DUP5 DUP3 ADD MLOAD JUMPDEST PUSH0 NOT PUSH1 0x3 DUP6 SWAP1 SHL SHR NOT AND PUSH1 0x1 DUP5 SWAP1 SHL OR DUP5 SSTORE PUSH2 0x276 JUMP JUMPDEST PUSH0 DUP5 DUP2 MSTORE PUSH1 0x20 DUP2 KECCAK256 PUSH1 0x1F NOT DUP6 AND SWAP2 JUMPDEST DUP3 DUP2 LT ISZERO PUSH2 0x30C JUMPI DUP8 DUP6 ADD MLOAD DUP3 SSTORE PUSH1 0x20 SWAP5 DUP6 ADD SWAP5 PUSH1 0x1 SWAP1 SWAP3 ADD SWAP2 ADD PUSH2 0x2EC JUMP JUMPDEST POP DUP5 DUP3 LT ISZERO PUSH2 0x329 JUMPI DUP7 DUP5 ADD MLOAD PUSH0 NOT PUSH1 0x3 DUP8 SWAP1 SHL PUSH1 0xF8 AND SHR NOT AND DUP2 SSTORE JUMPDEST POP POP POP POP PUSH1 0x1 SWAP1 DUP2 SHL ADD SWAP1 SSTORE POP JUMP JUMPDEST PUSH1 0x80 MLOAD PUSH1 0xA0 MLOAD PUSH1 0xC0 MLOAD PUSH2 0xDDA PUSH2 0x3AF PUSH0 CODECOPY PUSH0 DUP2 DUP2 PUSH2 0x1F6 ADD MSTORE DUP2 DUP2 PUSH2 0x4C1 ADD MSTORE DUP2 DUP2 PUSH2 0x6B0 ADD MSTORE PUSH2 0xA12 ADD MSTORE PUSH0 DUP2 DUP2 PUSH2 0x156 ADD MSTORE DUP2 DUP2 PUSH2 0x49E ADD MSTORE PUSH2 0x5CF ADD MSTORE PUSH0 DUP2 DUP2 PUSH2 0x197 ADD MSTORE DUP2 DUP2 PUSH2 0x362 ADD MSTORE DUP2 DUP2 PUSH2 0x80B ADD MSTORE DUP2 DUP2 PUSH2 0x9B8 ADD MSTORE DUP2 DUP2 PUSH2 0xA70 ADD MSTORE DUP2 DUP2 PUSH2 0xB3D ADD MSTORE PUSH2 0xBAB ADD MSTORE PUSH2 0xDDA PUSH0 RETURN INVALID PUSH1 0x80 PUSH1 0x40 MSTORE PUSH1 0x4 CALLDATASIZE LT PUSH2 0xBF JUMPI PUSH0 CALLDATALOAD PUSH1 0xE0 SHR DUP1 PUSH4 0x7A3A0E84 GT PUSH2 0x7C JUMPI DUP1 PUSH4 0x96F300D4 GT PUSH2 0x57 JUMPI DUP1 PUSH4 0x96F300D4 EQ PUSH2 0x26F JUMPI DUP1 PUSH4 0xA1211BC0 EQ PUSH2 0x290 JUMPI DUP1 PUSH4 0xED88C68E EQ PUSH2 0x2A6 JUMPI DUP1 PUSH4 0xF851A440 EQ PUSH2 0x2AE JUMPI PUSH0 DUP1 REVERT JUMPDEST DUP1 PUSH4 0x7A3A0E84 EQ PUSH2 0x1E5 JUMPI DUP1 PUSH4 0x90E4A130 EQ PUSH2 0x22D JUMPI DUP1 PUSH4 0x968ED600 EQ PUSH2 0x253 JUMPI PUSH0 DUP1 REVERT JUMPDEST DUP1 PUSH4 0x6FDDE03 EQ PUSH2 0xC3 JUMPI DUP1 PUSH4 0xC611F24 EQ PUSH2 0xED JUMPI DUP1 PUSH4 0x22F3E2D4 EQ PUSH2 0x114 JUMPI DUP1 PUSH4 0x29DCB0CF EQ PUSH2 0x145 JUMPI DUP1 PUSH4 0x38AF3EED EQ PUSH2 0x186 JUMPI DUP1 PUSH4 0x7284E416 EQ PUSH2 0x1D1 JUMPI JUMPDEST PUSH0 DUP1 REVERT JUMPDEST CALLVALUE DUP1 ISZERO PUSH2 0xCE JUMPI PUSH0 DUP1 REVERT JUMPDEST POP PUSH2 0xD7 PUSH2 0x2CD JUMP JUMPDEST PUSH1 0x40 MLOAD PUSH2 0xE4 SWAP2 SWAP1 PUSH2 0xC61 JUMP JUMPDEST PUSH1 0x40 MLOAD DUP1 SWAP2 SUB SWAP1 RETURN JUMPDEST CALLVALUE DUP1 ISZERO PUSH2 0xF8 JUMPI PUSH0 DUP1 REVERT JUMPDEST POP PUSH2 0x101 PUSH2 0x358 JUMP JUMPDEST PUSH1 0x40 MLOAD PUSH2 0xE4 SWAP8 SWAP7 SWAP6 SWAP5 SWAP4 SWAP3 SWAP2 SWAP1 PUSH2 0xC7A JUMP JUMPDEST CALLVALUE DUP1 ISZERO PUSH2 0x11F JUMPI PUSH0 DUP1 REVERT JUMPDEST POP PUSH1 0x2 SLOAD PUSH2 0x135 SWAP1 PUSH5 0x100000000 SWAP1 DIV PUSH1 0xFF AND DUP2 JUMP JUMPDEST PUSH1 0x40 MLOAD SWAP1 ISZERO ISZERO DUP2 MSTORE PUSH1 0x20 ADD PUSH2 0xE4 JUMP JUMPDEST CALLVALUE DUP1 ISZERO PUSH2 0x150 JUMPI PUSH0 DUP1 REVERT JUMPDEST POP PUSH2 0x178 PUSH32 0x0 DUP2 JUMP JUMPDEST PUSH1 0x40 MLOAD SWAP1 DUP2 MSTORE PUSH1 0x20 ADD PUSH2 0xE4 JUMP JUMPDEST CALLVALUE DUP1 ISZERO PUSH2 0x191 JUMPI PUSH0 DUP1 REVERT JUMPDEST POP PUSH2 0x1B9 PUSH32 0x0 DUP2 JUMP JUMPDEST PUSH1 0x40 MLOAD PUSH1 0x1 PUSH1 0x1 PUSH1 0xA0 SHL SUB SWAP1 SWAP2 AND DUP2 MSTORE PUSH1 0x20 ADD PUSH2 0xE4 JUMP JUMPDEST CALLVALUE DUP1 ISZERO PUSH2 0x1DC JUMPI PUSH0 DUP1 REVERT JUMPDEST POP PUSH2 0xD7 PUSH2 0x501 JUMP JUMPDEST CALLVALUE DUP1 ISZERO PUSH2 0x1F0 JUMPI PUSH0 DUP1 REVERT JUMPDEST POP PUSH2 0x218 PUSH32 0x0 DUP2 JUMP JUMPDEST PUSH1 0x40 MLOAD PUSH4 0xFFFFFFFF SWAP1 SWAP2 AND DUP2 MSTORE PUSH1 0x20 ADD PUSH2 0xE4 JUMP JUMPDEST CALLVALUE DUP1 ISZERO PUSH2 0x238 JUMPI PUSH0 DUP1 REVERT JUMPDEST POP CALLER PUSH0 SWAP1 DUP2 MSTORE PUSH1 0x3 PUSH1 0x20 MSTORE PUSH1 0x40 SWAP1 KECCAK256 SLOAD PUSH4 0xFFFFFFFF AND PUSH2 0x218 JUMP JUMPDEST CALLVALUE DUP1 ISZERO PUSH2 0x25E JUMPI PUSH0 DUP1 REVERT JUMPDEST POP PUSH1 0x2 SLOAD PUSH2 0x218 SWAP1 PUSH4 0xFFFFFFFF AND DUP2 JUMP JUMPDEST CALLVALUE DUP1 ISZERO PUSH2 0x27A JUMPI PUSH0 DUP1 REVERT JUMPDEST POP PUSH2 0x283 PUSH2 0x50E JUMP JUMPDEST PUSH1 0x40 MLOAD PUSH2 0xE4 SWAP2 SWAP1 PUSH2 0xCDF JUMP JUMPDEST CALLVALUE DUP1 ISZERO PUSH2 0x29B JUMPI PUSH0 DUP1 REVERT JUMPDEST POP PUSH2 0x2A4 PUSH2 0x56E JUMP JUMPDEST STOP JUMPDEST PUSH2 0x2A4 PUSH2 0x864 JUMP JUMPDEST CALLVALUE DUP1 ISZERO PUSH2 0x2B9 JUMPI PUSH0 DUP1 REVERT JUMPDEST POP PUSH1 0x5 SLOAD PUSH2 0x1B9 SWAP1 PUSH1 0x1 PUSH1 0x1 PUSH1 0xA0 SHL SUB AND DUP2 JUMP JUMPDEST PUSH0 DUP1 SLOAD PUSH2 0x2D9 SWAP1 PUSH2 0xD2A JUMP JUMPDEST DUP1 PUSH1 0x1F ADD PUSH1 0x20 DUP1 SWAP2 DIV MUL PUSH1 0x20 ADD PUSH1 0x40 MLOAD SWAP1 DUP2 ADD PUSH1 0x40 MSTORE DUP1 SWAP3 SWAP2 SWAP1 DUP2 DUP2 MSTORE PUSH1 0x20 ADD DUP3 DUP1 SLOAD PUSH2 0x305 SWAP1 PUSH2 0xD2A JUMP JUMPDEST DUP1 ISZERO PUSH2 0x350 JUMPI DUP1 PUSH1 0x1F LT PUSH2 0x327 JUMPI PUSH2 0x100 DUP1 DUP4 SLOAD DIV MUL DUP4 MSTORE SWAP2 PUSH1 0x20 ADD SWAP2 PUSH2 0x350 JUMP JUMPDEST DUP3 ADD SWAP2 SWAP1 PUSH0 MSTORE PUSH1 0x20 PUSH0 KECCAK256 SWAP1 JUMPDEST DUP2 SLOAD DUP2 MSTORE SWAP1 PUSH1 0x1 ADD SWAP1 PUSH1 0x20 ADD DUP1 DUP4 GT PUSH2 0x333 JUMPI DUP3 SWAP1 SUB PUSH1 0x1F AND DUP3 ADD SWAP2 JUMPDEST POP POP POP POP POP DUP2 JUMP JUMPDEST PUSH0 PUSH1 0x60 DUP1 PUSH0 DUP1 PUSH0 DUP1 PUSH32 0x0 SWAP7 POP PUSH0 DUP1 SLOAD PUSH2 0x38F SWAP1 PUSH2 0xD2A JUMP JUMPDEST DUP1 PUSH1 0x1F ADD PUSH1 0x20 DUP1 SWAP2 DIV MUL PUSH1 0x20 ADD PUSH1 0x40 MLOAD SWAP1 DUP2 ADD PUSH1 0x40 MSTORE DUP1 SWAP3 SWAP2 SWAP1 DUP2 DUP2 MSTORE PUSH1 0x20 ADD DUP3 DUP1 SLOAD PUSH2 0x3BB SWAP1 PUSH2 0xD2A JUMP JUMPDEST DUP1 ISZERO PUSH2 0x406 JUMPI DUP1 PUSH1 0x1F LT PUSH2 0x3DD JUMPI PUSH2 0x100 DUP1 DUP4 SLOAD DIV MUL DUP4 MSTORE SWAP2 PUSH1 0x20 ADD SWAP2 PUSH2 0x406 JUMP JUMPDEST DUP3 ADD SWAP2 SWAP1 PUSH0 MSTORE PUSH1 0x20 PUSH0 KECCAK256 SWAP1 JUMPDEST DUP2 SLOAD DUP2 MSTORE SWAP1 PUSH1 0x1 ADD SWAP1 PUSH1 0x20 ADD DUP1 DUP4 GT PUSH2 0x3E9 JUMPI DUP3 SWAP1 SUB PUSH1 0x1F AND DUP3 ADD SWAP2 JUMPDEST POP POP POP POP POP SWAP6 POP PUSH1 0x1 DUP1 SLOAD PUSH2 0x41A SWAP1 PUSH2 0xD2A JUMP JUMPDEST DUP1 PUSH1 0x1F ADD PUSH1 0x20 DUP1 SWAP2 DIV MUL PUSH1 0x20 ADD PUSH1 0x40 MLOAD SWAP1 DUP2 ADD PUSH1 0x40 MSTORE DUP1 SWAP3 SWAP2 SWAP1 DUP2 DUP2 MSTORE PUSH1 0x20 ADD DUP3 DUP1 SLOAD PUSH2 0x446 SWAP1 PUSH2 0xD2A JUMP JUMPDEST DUP1 ISZERO PUSH2 0x491 JUMPI DUP1 PUSH1 0x1F LT PUSH2 0x468 JUMPI PUSH2 0x100 DUP1 DUP4 SLOAD DIV MUL DUP4 MSTORE SWAP2 PUSH1 0x20 ADD SWAP2 PUSH2 0x491 JUMP JUMPDEST DUP3 ADD SWAP2 SWAP1 PUSH0 MSTORE PUSH1 0x20 PUSH0 KECCAK256 SWAP1 JUMPDEST DUP2 SLOAD DUP2 MSTORE SWAP1 PUSH1 0x1 ADD SWAP1 PUSH1 0x20 ADD DUP1 DUP4 GT PUSH2 0x474 JUMPI DUP3 SWAP1 SUB PUSH1 0x1F AND DUP3 ADD SWAP2 JUMPDEST POP POP PUSH1 0x2 SLOAD SWAP11 SWAP12 SWAP10 SWAP11 SWAP4 SWAP10 PUSH32 0x0 SWAP10 POP PUSH32 0x0 SWAP9 POP PUSH4 0xFFFFFFFF DUP6 AND SWAP8 POP PUSH5 0x100000000 SWAP1 SWAP5 DIV PUSH1 0xFF AND SWAP6 POP SWAP3 SWAP4 POP POP POP POP JUMP JUMPDEST PUSH1 0x1 DUP1 SLOAD PUSH2 0x2D9 SWAP1 PUSH2 0xD2A JUMP JUMPDEST PUSH1 0x60 PUSH1 0x4 DUP1 SLOAD DUP1 PUSH1 0x20 MUL PUSH1 0x20 ADD PUSH1 0x40 MLOAD SWAP1 DUP2 ADD PUSH1 0x40 MSTORE DUP1 SWAP3 SWAP2 SWAP1 DUP2 DUP2 MSTORE PUSH1 0x20 ADD DUP3 DUP1 SLOAD DUP1 ISZERO PUSH2 0x564 JUMPI PUSH1 0x20 MUL DUP3 ADD SWAP2 SWAP1 PUSH0 MSTORE PUSH1 0x20 PUSH0 KECCAK256 SWAP1 JUMPDEST DUP2 SLOAD PUSH1 0x1 PUSH1 0x1 PUSH1 0xA0 SHL SUB AND DUP2 MSTORE PUSH1 0x1 SWAP1 SWAP2 ADD SWAP1 PUSH1 0x20 ADD DUP1 DUP4 GT PUSH2 0x546 JUMPI JUMPDEST POP POP POP POP POP SWAP1 POP SWAP1 JUMP JUMPDEST PUSH1 0x2 SLOAD PUSH5 0x100000000 SWAP1 DIV PUSH1 0xFF AND PUSH2 0x5CD JUMPI PUSH1 0x40 MLOAD PUSH3 0x461BCD PUSH1 0xE5 SHL DUP2 MSTORE PUSH1 0x20 PUSH1 0x4 DUP3 ADD MSTORE PUSH1 0x1B PUSH1 0x24 DUP3 ADD MSTORE PUSH32 0x5468652043616D706169676E206973206E6F7420616374697665210000000000 PUSH1 0x44 DUP3 ADD MSTORE PUSH1 0x64 ADD JUMPDEST PUSH1 0x40 MLOAD DUP1 SWAP2 SUB SWAP1 REVERT JUMPDEST PUSH32 0x0 TIMESTAMP GT PUSH2 0x64C JUMPI PUSH1 0x40 MLOAD PUSH3 0x461BCD PUSH1 0xE5 SHL DUP2 MSTORE PUSH1 0x20 PUSH1 0x4 DUP3 ADD MSTORE PUSH1 0x27 PUSH1 0x24 DUP3 ADD MSTORE PUSH32 0x5468652043616D706169676E277320646561646C696E6520686173206E6F7420 PUSH1 0x44 DUP3 ADD MSTORE PUSH7 0x70617373656421 PUSH1 0xC8 SHL PUSH1 0x64 DUP3 ADD MSTORE PUSH1 0x84 ADD PUSH2 0x5C4 JUMP JUMPDEST PUSH1 0x5 SLOAD PUSH1 0x1 PUSH1 0x1 PUSH1 0xA0 SHL SUB AND CALLER EQ PUSH2 0x6A6 JUMPI PUSH1 0x40 MLOAD PUSH3 0x461BCD PUSH1 0xE5 SHL DUP2 MSTORE PUSH1 0x20 PUSH1 0x4 DUP3 ADD MSTORE PUSH1 0x1B PUSH1 0x24 DUP3 ADD MSTORE PUSH32 0x416363657373207265737472696374656420746F2061646D696E210000000000 PUSH1 0x44 DUP3 ADD MSTORE PUSH1 0x64 ADD PUSH2 0x5C4 JUMP JUMPDEST PUSH1 0x2 SLOAD PUSH4 0xFFFFFFFF PUSH32 0x0 DUP2 AND SWAP2 AND LT PUSH2 0x6E2 JUMPI PUSH2 0x6E0 PUSH2 0xA50 JUMP JUMPDEST JUMP JUMPDEST PUSH1 0x2 DUP1 SLOAD PUSH5 0xFF00000000 NOT AND SWAP1 SSTORE PUSH1 0x4 SLOAD PUSH0 JUMPDEST DUP2 DUP2 LT ISZERO PUSH2 0x7E6 JUMPI PUSH0 PUSH1 0x4 DUP3 DUP2 SLOAD DUP2 LT PUSH2 0x711 JUMPI PUSH2 0x711 PUSH2 0xD62 JUMP JUMPDEST PUSH0 SWAP2 DUP3 MSTORE PUSH1 0x20 DUP1 DUP4 KECCAK256 SWAP1 SWAP2 ADD SLOAD PUSH1 0x1 PUSH1 0x1 PUSH1 0xA0 SHL SUB AND DUP1 DUP4 MSTORE PUSH1 0x3 SWAP1 SWAP2 MSTORE PUSH1 0x40 SWAP1 SWAP2 KECCAK256 SLOAD SWAP1 SWAP2 POP PUSH4 0xFFFFFFFF AND DUP1 ISZERO PUSH2 0x7DC JUMPI PUSH1 0x1 PUSH1 0x1 PUSH1 0xA0 SHL SUB DUP3 AND PUSH0 DUP2 DUP2 MSTORE PUSH1 0x3 PUSH1 0x20 MSTORE PUSH1 0x40 DUP1 DUP3 KECCAK256 DUP1 SLOAD PUSH4 0xFFFFFFFF NOT AND SWAP1 SSTORE MLOAD PUSH4 0xFFFFFFFF DUP5 AND DUP1 ISZERO PUSH2 0x8FC MUL SWAP3 SWAP1 SWAP2 SWAP1 DUP2 DUP2 DUP2 DUP6 DUP9 DUP9 CALL SWAP4 POP POP POP POP ISZERO DUP1 ISZERO PUSH2 0x794 JUMPI RETURNDATASIZE PUSH0 DUP1 RETURNDATACOPY RETURNDATASIZE PUSH0 REVERT JUMPDEST POP PUSH1 0x40 MLOAD PUSH4 0xFFFFFFFF DUP3 AND DUP2 MSTORE PUSH1 0x1 PUSH1 0x1 PUSH1 0xA0 SHL SUB DUP4 AND SWAP1 ADDRESS SWAP1 PUSH32 0xCBAF39F3D8F9A55DBFD111D1803615438CA90CD340BF43A9B32AF9967CB268B0 SWAP1 PUSH1 0x20 ADD PUSH1 0x40 MLOAD DUP1 SWAP2 SUB SWAP1 LOG3 JUMPDEST POP POP PUSH1 0x1 ADD PUSH2 0x6F5 JUMP JUMPDEST POP PUSH2 0x7F2 PUSH1 0x4 PUSH0 PUSH2 0xBFD JUMP JUMPDEST PUSH1 0x2 SLOAD PUSH1 0x40 DUP1 MLOAD PUSH0 DUP2 MSTORE PUSH4 0xFFFFFFFF SWAP1 SWAP3 AND PUSH1 0x20 DUP4 ADD MSTORE PUSH32 0x0 PUSH1 0x1 PUSH1 0x1 PUSH1 0xA0 SHL SUB AND SWAP2 ADDRESS SWAP2 PUSH32 0xF8B5BC9A22DE51519F1A92F78276CA83D891D1EDF8DD4263CCB6032594644B65 SWAP2 ADD PUSH1 0x40 MLOAD DUP1 SWAP2 SUB SWAP1 LOG3 POP JUMP JUMPDEST PUSH1 0x2 SLOAD PUSH5 0x100000000 SWAP1 DIV PUSH1 0xFF AND PUSH2 0x8BE JUMPI PUSH1 0x40 MLOAD PUSH3 0x461BCD PUSH1 0xE5 SHL DUP2 MSTORE PUSH1 0x20 PUSH1 0x4 DUP3 ADD MSTORE PUSH1 0x1B PUSH1 0x24 DUP3 ADD MSTORE PUSH32 0x5468652043616D706169676E206973206E6F7420616374697665210000000000 PUSH1 0x44 DUP3 ADD MSTORE PUSH1 0x64 ADD PUSH2 0x5C4 JUMP JUMPDEST CALLER PUSH0 DUP2 DUP2 MSTORE PUSH1 0x3 PUSH1 0x20 MSTORE PUSH1 0x40 DUP2 KECCAK256 SLOAD CALLVALUE SWAP2 PUSH4 0xFFFFFFFF SWAP1 SWAP2 AND SWAP1 SUB PUSH2 0x928 JUMPI PUSH1 0x4 DUP1 SLOAD PUSH1 0x1 DUP2 ADD DUP3 SSTORE PUSH0 SWAP2 SWAP1 SWAP2 MSTORE PUSH32 0x8A35ACFBC15FF81A39AE7D344FD709F28E8600B4AA8C65C6B64BFE7FE36BD19B ADD DUP1 SLOAD PUSH1 0x1 PUSH1 0x1 PUSH1 0xA0 SHL SUB NOT AND PUSH1 0x1 PUSH1 0x1 PUSH1 0xA0 SHL SUB DUP5 AND OR SWAP1 SSTORE JUMPDEST PUSH1 0x1 PUSH1 0x1 PUSH1 0xA0 SHL SUB DUP3 AND PUSH0 SWAP1 DUP2 MSTORE PUSH1 0x3 PUSH1 0x20 MSTORE PUSH1 0x40 DUP2 KECCAK256 DUP1 SLOAD DUP4 SWAP3 SWAP1 PUSH2 0x955 SWAP1 DUP5 SWAP1 PUSH4 0xFFFFFFFF AND PUSH2 0xD76 JUMP JUMPDEST SWAP3 POP PUSH2 0x100 EXP DUP2 SLOAD DUP2 PUSH4 0xFFFFFFFF MUL NOT AND SWAP1 DUP4 PUSH4 0xFFFFFFFF AND MUL OR SWAP1 SSTORE POP PUSH0 DUP2 PUSH1 0x2 PUSH0 SWAP1 SLOAD SWAP1 PUSH2 0x100 EXP SWAP1 DIV PUSH4 0xFFFFFFFF AND PUSH2 0x991 SWAP2 SWAP1 PUSH2 0xD76 JUMP JUMPDEST PUSH1 0x2 DUP1 SLOAD PUSH4 0xFFFFFFFF NOT AND PUSH4 0xFFFFFFFF DUP4 DUP2 AND SWAP2 SWAP1 SWAP2 OR SWAP1 SWAP2 SSTORE PUSH1 0x40 MLOAD SWAP1 DUP5 AND DUP2 MSTORE SWAP1 SWAP2 POP PUSH32 0x0 PUSH1 0x1 PUSH1 0x1 PUSH1 0xA0 SHL SUB AND SWAP1 ADDRESS SWAP1 PUSH32 0x4BCAD339364614747037D489DEBCAB743E155B2486AD23759D702D48C30A7DC6 SWAP1 PUSH1 0x20 ADD PUSH1 0x40 MLOAD DUP1 SWAP2 SUB SWAP1 LOG3 PUSH32 0x0 PUSH4 0xFFFFFFFF AND DUP2 PUSH4 0xFFFFFFFF AND LT PUSH2 0xA4B JUMPI PUSH2 0xA4B PUSH2 0xA50 JUMP JUMPDEST POP POP POP JUMP JUMPDEST PUSH1 0x2 DUP1 SLOAD PUSH5 0xFFFFFFFFFF NOT DUP2 AND SWAP1 SWAP2 SSTORE PUSH1 0x40 MLOAD PUSH4 0xFFFFFFFF SWAP1 SWAP2 AND SWAP1 PUSH0 SWAP1 PUSH32 0x0 PUSH1 0x1 PUSH1 0x1 PUSH1 0xA0 SHL SUB AND SWAP1 DUP4 SWAP1 DUP4 DUP2 DUP2 DUP2 DUP6 DUP8 GAS CALL SWAP3 POP POP POP RETURNDATASIZE DUP1 PUSH0 DUP2 EQ PUSH2 0xAD1 JUMPI PUSH1 0x40 MLOAD SWAP2 POP PUSH1 0x1F NOT PUSH1 0x3F RETURNDATASIZE ADD AND DUP3 ADD PUSH1 0x40 MSTORE RETURNDATASIZE DUP3 MSTORE RETURNDATASIZE PUSH0 PUSH1 0x20 DUP5 ADD RETURNDATACOPY PUSH2 0xAD6 JUMP JUMPDEST PUSH1 0x60 SWAP2 POP JUMPDEST POP POP SWAP1 POP DUP1 PUSH2 0xB27 JUMPI PUSH1 0x40 MLOAD PUSH3 0x461BCD PUSH1 0xE5 SHL DUP2 MSTORE PUSH1 0x20 PUSH1 0x4 DUP3 ADD MSTORE PUSH1 0x18 PUSH1 0x24 DUP3 ADD MSTORE PUSH32 0x556E61626C6520746F2072656C656173652066756E6473210000000000000000 PUSH1 0x44 DUP3 ADD MSTORE PUSH1 0x64 ADD PUSH2 0x5C4 JUMP JUMPDEST PUSH1 0x40 MLOAD PUSH4 0xFFFFFFFF DUP4 AND DUP2 MSTORE PUSH1 0x1 PUSH1 0x1 PUSH1 0xA0 SHL SUB PUSH32 0x0 AND SWAP1 ADDRESS SWAP1 PUSH32 0x9A2D22BDC446507E83DF389FF5730C89BB47EFE4486AA9FE07032B2B7339EE7F SWAP1 PUSH1 0x20 ADD PUSH1 0x40 MLOAD DUP1 SWAP2 SUB SWAP1 LOG3 PUSH1 0x40 DUP1 MLOAD PUSH1 0x1 DUP2 MSTORE PUSH4 0xFFFFFFFF DUP5 AND PUSH1 0x20 DUP3 ADD MSTORE PUSH1 0x1 PUSH1 0x1 PUSH1 0xA0 SHL SUB PUSH32 0x0 AND SWAP2 ADDRESS SWAP2 PUSH32 0xF8B5BC9A22DE51519F1A92F78276CA83D891D1EDF8DD4263CCB6032594644B65 SWAP2 ADD PUSH1 0x40 MLOAD DUP1 SWAP2 SUB SWAP1 LOG3 POP POP JUMP JUMPDEST POP DUP1 SLOAD PUSH0 DUP3 SSTORE SWAP1 PUSH0 MSTORE PUSH1 0x20 PUSH0 KECCAK256 SWAP1 DUP2 ADD SWAP1 PUSH2 0xC18 SWAP2 SWAP1 PUSH2 0xC1B JUMP JUMPDEST POP JUMP JUMPDEST JUMPDEST DUP1 DUP3 GT ISZERO PUSH2 0xC2F JUMPI PUSH0 DUP2 SSTORE PUSH1 0x1 ADD PUSH2 0xC1C JUMP JUMPDEST POP SWAP1 JUMP JUMPDEST PUSH0 DUP2 MLOAD DUP1 DUP5 MSTORE DUP1 PUSH1 0x20 DUP5 ADD PUSH1 0x20 DUP7 ADD MCOPY PUSH0 PUSH1 0x20 DUP3 DUP7 ADD ADD MSTORE PUSH1 0x20 PUSH1 0x1F NOT PUSH1 0x1F DUP4 ADD AND DUP6 ADD ADD SWAP2 POP POP SWAP3 SWAP2 POP POP JUMP JUMPDEST PUSH1 0x20 DUP2 MSTORE PUSH0 PUSH2 0xC73 PUSH1 0x20 DUP4 ADD DUP5 PUSH2 0xC33 JUMP JUMPDEST SWAP4 SWAP3 POP POP POP JUMP JUMPDEST PUSH1 0x1 PUSH1 0x1 PUSH1 0xA0 SHL SUB DUP9 AND DUP2 MSTORE PUSH1 0xE0 PUSH1 0x20 DUP3 ADD DUP2 SWAP1 MSTORE PUSH0 SWAP1 PUSH2 0xC9D SWAP1 DUP4 ADD DUP10 PUSH2 0xC33 JUMP JUMPDEST DUP3 DUP2 SUB PUSH1 0x40 DUP5 ADD MSTORE PUSH2 0xCAF DUP2 DUP10 PUSH2 0xC33 JUMP JUMPDEST PUSH1 0x60 DUP5 ADD SWAP8 SWAP1 SWAP8 MSTORE POP POP PUSH4 0xFFFFFFFF SWAP4 DUP5 AND PUSH1 0x80 DUP3 ADD MSTORE SWAP2 SWAP1 SWAP3 AND PUSH1 0xA0 DUP3 ADD MSTORE SWAP1 ISZERO ISZERO PUSH1 0xC0 SWAP1 SWAP2 ADD MSTORE SWAP4 SWAP3 POP POP POP JUMP JUMPDEST PUSH1 0x20 DUP1 DUP3 MSTORE DUP3 MLOAD DUP3 DUP3 ADD DUP2 SWAP1 MSTORE PUSH0 SWAP2 DUP5 ADD SWAP1 PUSH1 0x40 DUP5 ADD SWAP1 DUP4 JUMPDEST DUP2 DUP2 LT ISZERO PUSH2 0xD1F JUMPI DUP4 MLOAD PUSH1 0x1 PUSH1 0x1 PUSH1 0xA0 SHL SUB AND DUP4 MSTORE PUSH1 0x20 SWAP4 DUP5 ADD SWAP4 SWAP1 SWAP3 ADD SWAP2 PUSH1 0x1 ADD PUSH2 0xCF8 JUMP JUMPDEST POP SWAP1 SWAP6 SWAP5 POP POP POP POP POP JUMP JUMPDEST PUSH1 0x1 DUP2 DUP2 SHR SWAP1 DUP3 AND DUP1 PUSH2 0xD3E JUMPI PUSH1 0x7F DUP3 AND SWAP2 POP JUMPDEST PUSH1 0x20 DUP3 LT DUP2 SUB PUSH2 0xD5C JUMPI PUSH4 0x4E487B71 PUSH1 0xE0 SHL PUSH0 MSTORE PUSH1 0x22 PUSH1 0x4 MSTORE PUSH1 0x24 PUSH0 REVERT JUMPDEST POP SWAP2 SWAP1 POP JUMP JUMPDEST PUSH4 0x4E487B71 PUSH1 0xE0 SHL PUSH0 MSTORE PUSH1 0x32 PUSH1 0x4 MSTORE PUSH1 0x24 PUSH0 REVERT JUMPDEST PUSH4 0xFFFFFFFF DUP2 DUP2 AND DUP4 DUP3 AND ADD SWAP1 DUP2 GT ISZERO PUSH2 0xD9E JUMPI PUSH4 0x4E487B71 PUSH1 0xE0 SHL PUSH0 MSTORE PUSH1 0x11 PUSH1 0x4 MSTORE PUSH1 0x24 PUSH0 REVERT JUMPDEST SWAP3 SWAP2 POP POP JUMP INVALID LOG2 PUSH5 0x6970667358 0x22 SLT KECCAK256 0xAC 0xB2 BASEFEE RETURN LOG0 PUSH6 0x3037AC7F9F8D 0xEA 0xDD ADDRESS MUL PUSH28 0xC3E7788F8A1F1A314E85AE2F453D3264736F6C634300081A0033A264 PUSH10 0x70667358221220E95AF9 SAR 0xFC 0x2D PUSH13 0x358D881731BA41F9F1BB2C6BBC SWAP2 INVALID 0xD4 0xBE MOD CALLDATASIZE BLOCKHASH SHR 0x25 EQ JUMP 0xE9 PUSH5 0x736F6C6343 STOP ADDMOD BYTE STOP CALLER "
				},
				"gasEstimates": {
					"creation": {
						"codeDepositCost": "1024200",
						"executionCost": "1065",
						"totalCost": "1025265"
					},
					"external": {
						"createCampaign(string,string,uint32,uint256)": "infinite"
					}
				},
				"methodIdentifiers": {
					"createCampaign(string,string,uint32,uint256)": "08cfd36e"
				}
			},
			"storageLayout": {
				"storage": [],
				"types": null
			},
			"userdoc": {
				"kind": "user",
				"methods": {},
				"version": 1
			}
		}
	}
}