{
	"backend/contracts/Campaign.sol": {
		"Campaign": {
			"abi": [
				{
					"inputs": [
						{
							"internalType": "address",
							"name": "_beneficiary",
							"type": "address"
						},
						{
							"internalType": "address",
							"name": "_admin",
							"type": "address"
						},
						{
							"internalType": "string",
							"name": "_name",
							"type": "string"
						},
						{
							"internalType": "string",
							"name": "_description",
							"type": "string"
						},
						{
							"internalType": "uint256",
							"name": "_fundingGoal",
							"type": "uint256"
						},
						{
							"internalType": "uint48",
							"name": "_deadline",
							"type": "uint48"
						}
					],
					"stateMutability": "nonpayable",
					"type": "constructor"
				},
				{
					"anonymous": false,
					"inputs": [
						{
							"indexed": true,
							"internalType": "address",
							"name": "campaignAddress",
							"type": "address"
						},
						{
							"indexed": true,
							"internalType": "address",
							"name": "beneficiary",
							"type": "address"
						},
						{
							"indexed": false,
							"internalType": "bool",
							"name": "success",
							"type": "bool"
						},
						{
							"indexed": false,
							"internalType": "uint256",
							"name": "totalFunds",
							"type": "uint256"
						}
					],
					"name": "CampaignFinalized",
					"type": "event"
				},
				{
					"anonymous": false,
					"inputs": [
						{
							"indexed": true,
							"internalType": "address",
							"name": "campaignAddress",
							"type": "address"
						},
						{
							"indexed": true,
							"internalType": "address",
							"name": "beneficiary",
							"type": "address"
						},
						{
							"indexed": false,
							"internalType": "uint256",
							"name": "amount",
							"type": "uint256"
						}
					],
					"name": "DonationMade",
					"type": "event"
				},
				{
					"anonymous": false,
					"inputs": [
						{
							"indexed": true,
							"internalType": "address",
							"name": "campaignAddress",
							"type": "address"
						},
						{
							"indexed": true,
							"internalType": "address",
							"name": "beneficiary",
							"type": "address"
						},
						{
							"indexed": false,
							"internalType": "uint256",
							"name": "amount",
							"type": "uint256"
						}
					],
					"name": "FundsWithdrawn",
					"type": "event"
				},
				{
					"anonymous": false,
					"inputs": [
						{
							"indexed": true,
							"internalType": "address",
							"name": "campaignAddress",
							"type": "address"
						},
						{
							"indexed": true,
							"internalType": "address",
							"name": "donor",
							"type": "address"
						},
						{
							"indexed": false,
							"internalType": "uint256",
							"name": "amount",
							"type": "uint256"
						}
					],
					"name": "RefundIssued",
					"type": "event"
				},
				{
					"inputs": [],
					"name": "admin",
					"outputs": [
						{
							"internalType": "address",
							"name": "",
							"type": "address"
						}
					],
					"stateMutability": "view",
					"type": "function"
				},
				{
					"inputs": [],
					"name": "beneficiary",
					"outputs": [
						{
							"internalType": "address",
							"name": "",
							"type": "address"
						}
					],
					"stateMutability": "view",
					"type": "function"
				},
				{
					"inputs": [],
					"name": "deadline",
					"outputs": [
						{
							"internalType": "uint48",
							"name": "",
							"type": "uint48"
						}
					],
					"stateMutability": "view",
					"type": "function"
				},
				{
					"inputs": [],
					"name": "description",
					"outputs": [
						{
							"internalType": "string",
							"name": "",
							"type": "string"
						}
					],
					"stateMutability": "view",
					"type": "function"
				},
				{
					"inputs": [],
					"name": "donate",
					"outputs": [],
					"stateMutability": "payable",
					"type": "function"
				},
				{
					"inputs": [],
					"name": "finalizeCampaign",
					"outputs": [],
					"stateMutability": "nonpayable",
					"type": "function"
				},
				{
					"inputs": [],
					"name": "fundingGoal",
					"outputs": [
						{
							"internalType": "uint256",
							"name": "",
							"type": "uint256"
						}
					],
					"stateMutability": "view",
					"type": "function"
				},
				{
					"inputs": [],
					"name": "getCampaignDetails",
					"outputs": [
						{
							"internalType": "address",
							"name": "campaignBeneficiary",
							"type": "address"
						},
						{
							"internalType": "string",
							"name": "campaignName",
							"type": "string"
						},
						{
							"internalType": "string",
							"name": "campaignDescription",
							"type": "string"
						},
						{
							"internalType": "uint48",
							"name": "campaignDeadline",
							"type": "uint48"
						},
						{
							"internalType": "uint256",
							"name": "campaignFundingGoal",
							"type": "uint256"
						},
						{
							"internalType": "uint256",
							"name": "campaignTotalFunds",
							"type": "uint256"
						},
						{
							"internalType": "bool",
							"name": "campaignIsActive",
							"type": "bool"
						}
					],
					"stateMutability": "view",
					"type": "function"
				},
				{
					"inputs": [],
					"name": "getDonors",
					"outputs": [
						{
							"internalType": "address[]",
							"name": "",
							"type": "address[]"
						}
					],
					"stateMutability": "view",
					"type": "function"
				},
				{
					"inputs": [],
					"name": "getMyDonations",
					"outputs": [
						{
							"internalType": "uint256",
							"name": "",
							"type": "uint256"
						}
					],
					"stateMutability": "view",
					"type": "function"
				},
				{
					"inputs": [],
					"name": "isActive",
					"outputs": [
						{
							"internalType": "bool",
							"name": "",
							"type": "bool"
						}
					],
					"stateMutability": "view",
					"type": "function"
				},
				{
					"inputs": [],
					"name": "name",
					"outputs": [
						{
							"internalType": "string",
							"name": "",
							"type": "string"
						}
					],
					"stateMutability": "view",
					"type": "function"
				},
				{
					"inputs": [],
					"name": "totalFunds",
					"outputs": [
						{
							"internalType": "uint256",
							"name": "",
							"type": "uint256"
						}
					],
					"stateMutability": "view",
					"type": "function"
				}
			],
			"devdoc": {
				"details": "The smart contract for the created Campaign. It handles everything related to a specific Campaign that has been deployed",
				"kind": "dev",
				"methods": {
					"constructor": {
						"details": "Creates the Campaign smart contract",
						"params": {
							"_beneficiary": "The wallet address of the beneficiary that is creating this Campaign",
							"_deadline": "Timestamp of when the Campaign should be fully funded before it becomes inactive",
							"_description": "The description of this Campaign",
							"_fundingGoal": "Funding Goal for the Campaign in cryptocurrency (SepoliaETH)"
						}
					},
					"donate()": {
						"details": "Allows donors to donate to the Campaign"
					},
					"finalizeCampaign()": {
						"details": "Called when the Campaign's deadline has passed, and also handles the refund to all donors if the fundingGoal is not met by thenLikely needs to be called from the frontend"
					},
					"getCampaignDetails()": {
						"details": "Get all the Campaign details from its state variables"
					},
					"getDonors()": {
						"details": "Get all the donors of this CampaignLikely to be used by the frontend to notify just donors on events such as FundsWithdrawn and CampaignFinalized"
					},
					"getMyDonations()": {
						"details": "Get the total donation amount contributed by the caller to this CampaignThis function allows donors to privately check how much they have donated to the Campaign",
						"returns": {
							"_0": "The total donation amount (in cryptocurrency) contributed by the caller"
						}
					}
				},
				"title": "Campaign",
				"version": 1
			},
			"evm": {
				"assembly": "    /* \"backend/contracts/Campaign.sol\":226:9134  contract Campaign {... */\n  mstore(0x40, 0xe0)\n    /* \"backend/contracts/Campaign.sol\":1302:1843  constructor(... */\n  callvalue\n  dup1\n  iszero\n  tag_1\n  jumpi\n  0x00\n  dup1\n  revert\ntag_1:\n  pop\n  mload(0x40)\n  sub(codesize, bytecodeSize)\n  dup1\n  bytecodeSize\n  dup4\n  codecopy\n  dup2\n  add\n  0x40\n  dup2\n  swap1\n  mstore\n  tag_2\n  swap2\n  tag_3\n  jump\t// in\ntag_2:\n  sub(shl(0xa0, 0x01), 0x01)\n    /* \"backend/contracts/Campaign.sol\":1596:1622  beneficiary = _beneficiary */\n  dup7\n  dup2\n  and\n  0x80\n  mstore\n    /* \"backend/contracts/Campaign.sol\":1632:1637  admin */\n  0x06\n    /* \"backend/contracts/Campaign.sol\":1632:1646  admin = _admin */\n  dup1\n  sload\n  not(sub(shl(0xa0, 0x01), 0x01))\n  and\n  swap2\n  dup8\n  and\n  swap2\n  swap1\n  swap2\n  or\n  swap1\n  sstore\n  0x00\n    /* \"backend/contracts/Campaign.sol\":1656:1668  name = _name */\n  tag_6\n    /* \"backend/contracts/Campaign.sol\":1663:1668  _name */\n  dup6\n  dup3\n    /* \"backend/contracts/Campaign.sol\":1656:1668  name = _name */\n  tag_7\n  jump\t// in\ntag_6:\n  pop\n    /* \"backend/contracts/Campaign.sol\":1678:1689  description */\n  0x01\n    /* \"backend/contracts/Campaign.sol\":1678:1704  description = _description */\n  tag_8\n    /* \"backend/contracts/Campaign.sol\":1692:1704  _description */\n  dup5\n    /* \"backend/contracts/Campaign.sol\":1678:1689  description */\n  dup3\n    /* \"backend/contracts/Campaign.sol\":1678:1704  description = _description */\n  tag_7\n  jump\t// in\ntag_8:\n  pop\n    /* \"backend/contracts/Campaign.sol\":1714:1740  fundingGoal = _fundingGoal */\n  0xc0\n  swap2\n  swap1\n  swap2\n  mstore\n    /* \"backend/contracts/Campaign.sol\":1750:1770  deadline = _deadline */\n  0xffffffffffff\n  and\n  0xa0\n  mstore\n  pop\n  pop\n    /* \"backend/contracts/Campaign.sol\":1780:1788  isActive */\n  0x03\n    /* \"backend/contracts/Campaign.sol\":1780:1795  isActive = true */\n  dup1\n  sload\n  not(0xff)\n  and\n    /* \"backend/contracts/Campaign.sol\":1791:1795  true */\n  0x01\n    /* \"backend/contracts/Campaign.sol\":1780:1795  isActive = true */\n  or\n  swap1\n  sstore\n  pop\n    /* \"backend/contracts/Campaign.sol\":226:9134  contract Campaign {... */\n  tag_17\n  swap1\n  pop\n  jump\n    /* \"#utility.yul\":14:191   */\ntag_10:\n    /* \"#utility.yul\":93:106   */\n  dup1\n  mload\n  sub(shl(0xa0, 0x01), 0x01)\n    /* \"#utility.yul\":135:166   */\n  dup2\n  and\n    /* \"#utility.yul\":125:167   */\n  dup2\n  eq\n    /* \"#utility.yul\":115:185   */\n  tag_19\n  jumpi\n    /* \"#utility.yul\":181:182   */\n  0x00\n    /* \"#utility.yul\":178:179   */\n  dup1\n    /* \"#utility.yul\":171:183   */\n  revert\n    /* \"#utility.yul\":115:185   */\ntag_19:\n    /* \"#utility.yul\":14:191   */\n  swap2\n  swap1\n  pop\n  jump\t// out\n    /* \"#utility.yul\":196:323   */\ntag_11:\n    /* \"#utility.yul\":257:267   */\n  0x4e487b71\n    /* \"#utility.yul\":252:255   */\n  0xe0\n    /* \"#utility.yul\":248:268   */\n  shl\n    /* \"#utility.yul\":245:246   */\n  0x00\n    /* \"#utility.yul\":238:269   */\n  mstore\n    /* \"#utility.yul\":288:292   */\n  0x41\n    /* \"#utility.yul\":285:286   */\n  0x04\n    /* \"#utility.yul\":278:293   */\n  mstore\n    /* \"#utility.yul\":312:316   */\n  0x24\n    /* \"#utility.yul\":309:310   */\n  0x00\n    /* \"#utility.yul\":302:317   */\n  revert\n    /* \"#utility.yul\":328:1051   */\ntag_12:\n    /* \"#utility.yul\":382:387   */\n  0x00\n    /* \"#utility.yul\":435:438   */\n  dup3\n    /* \"#utility.yul\":428:432   */\n  0x1f\n    /* \"#utility.yul\":420:426   */\n  dup4\n    /* \"#utility.yul\":416:433   */\n  add\n    /* \"#utility.yul\":412:439   */\n  slt\n    /* \"#utility.yul\":402:457   */\n  tag_22\n  jumpi\n    /* \"#utility.yul\":453:454   */\n  0x00\n    /* \"#utility.yul\":450:451   */\n  dup1\n    /* \"#utility.yul\":443:455   */\n  revert\n    /* \"#utility.yul\":402:457   */\ntag_22:\n    /* \"#utility.yul\":480:493   */\n  dup2\n  mload\n  sub(shl(0x40, 0x01), 0x01)\n    /* \"#utility.yul\":505:535   */\n  dup2\n  gt\n    /* \"#utility.yul\":502:558   */\n  iszero\n  tag_24\n  jumpi\n    /* \"#utility.yul\":538:556   */\n  tag_24\n  tag_11\n  jump\t// in\ntag_24:\n    /* \"#utility.yul\":587:589   */\n  0x40\n    /* \"#utility.yul\":581:590   */\n  mload\n    /* \"#utility.yul\":679:681   */\n  0x1f\n    /* \"#utility.yul\":641:658   */\n  dup3\n  add\n  not(0x1f)\n    /* \"#utility.yul\":637:668   */\n  swap1\n  dup2\n  and\n    /* \"#utility.yul\":670:672   */\n  0x3f\n    /* \"#utility.yul\":633:673   */\n  add\n    /* \"#utility.yul\":629:683   */\n  and\n    /* \"#utility.yul\":617:684   */\n  dup2\n  add\n  sub(shl(0x40, 0x01), 0x01)\n    /* \"#utility.yul\":699:733   */\n  dup2\n  gt\n    /* \"#utility.yul\":735:757   */\n  dup3\n  dup3\n  lt\n    /* \"#utility.yul\":696:758   */\n  or\n    /* \"#utility.yul\":693:781   */\n  iszero\n  tag_26\n  jumpi\n    /* \"#utility.yul\":761:779   */\n  tag_26\n  tag_11\n  jump\t// in\ntag_26:\n    /* \"#utility.yul\":797:799   */\n  0x40\n    /* \"#utility.yul\":790:812   */\n  mstore\n    /* \"#utility.yul\":821:843   */\n  dup2\n  dup2\n  mstore\n    /* \"#utility.yul\":862:881   */\n  dup4\n  dup3\n  add\n    /* \"#utility.yul\":883:887   */\n  0x20\n    /* \"#utility.yul\":858:888   */\n  add\n    /* \"#utility.yul\":855:894   */\n  dup6\n  lt\n    /* \"#utility.yul\":852:911   */\n  iszero\n  tag_27\n  jumpi\n    /* \"#utility.yul\":907:908   */\n  0x00\n    /* \"#utility.yul\":904:905   */\n  dup1\n    /* \"#utility.yul\":897:909   */\n  revert\n    /* \"#utility.yul\":852:911   */\ntag_27:\n    /* \"#utility.yul\":964:970   */\n  dup2\n    /* \"#utility.yul\":957:961   */\n  0x20\n    /* \"#utility.yul\":949:955   */\n  dup6\n    /* \"#utility.yul\":945:962   */\n  add\n    /* \"#utility.yul\":938:942   */\n  0x20\n    /* \"#utility.yul\":930:936   */\n  dup4\n    /* \"#utility.yul\":926:943   */\n  add\n    /* \"#utility.yul\":920:971   */\n  mcopy\n    /* \"#utility.yul\":1019:1020   */\n  0x00\n    /* \"#utility.yul\":991:1010   */\n  swap2\n  dup2\n  add\n    /* \"#utility.yul\":1012:1016   */\n  0x20\n    /* \"#utility.yul\":987:1017   */\n  add\n    /* \"#utility.yul\":980:1021   */\n  swap2\n  swap1\n  swap2\n  mstore\n    /* \"#utility.yul\":995:1001   */\n  swap4\n    /* \"#utility.yul\":328:1051   */\n  swap3\n  pop\n  pop\n  pop\n  jump\t// out\n    /* \"#utility.yul\":1056:2008   */\ntag_3:\n    /* \"#utility.yul\":1190:1196   */\n  0x00\n    /* \"#utility.yul\":1198:1204   */\n  dup1\n    /* \"#utility.yul\":1206:1212   */\n  0x00\n    /* \"#utility.yul\":1214:1220   */\n  dup1\n    /* \"#utility.yul\":1222:1228   */\n  0x00\n    /* \"#utility.yul\":1230:1236   */\n  dup1\n    /* \"#utility.yul\":1283:1286   */\n  0xc0\n    /* \"#utility.yul\":1271:1280   */\n  dup8\n    /* \"#utility.yul\":1262:1269   */\n  dup10\n    /* \"#utility.yul\":1258:1281   */\n  sub\n    /* \"#utility.yul\":1254:1287   */\n  slt\n    /* \"#utility.yul\":1251:1304   */\n  iszero\n  tag_29\n  jumpi\n    /* \"#utility.yul\":1300:1301   */\n  0x00\n    /* \"#utility.yul\":1297:1298   */\n  dup1\n    /* \"#utility.yul\":1290:1302   */\n  revert\n    /* \"#utility.yul\":1251:1304   */\ntag_29:\n    /* \"#utility.yul\":1323:1363   */\n  tag_30\n    /* \"#utility.yul\":1353:1362   */\n  dup8\n    /* \"#utility.yul\":1323:1363   */\n  tag_10\n  jump\t// in\ntag_30:\n    /* \"#utility.yul\":1313:1363   */\n  swap6\n  pop\n    /* \"#utility.yul\":1382:1431   */\n  tag_31\n    /* \"#utility.yul\":1427:1429   */\n  0x20\n    /* \"#utility.yul\":1416:1425   */\n  dup9\n    /* \"#utility.yul\":1412:1430   */\n  add\n    /* \"#utility.yul\":1382:1431   */\n  tag_10\n  jump\t// in\ntag_31:\n    /* \"#utility.yul\":1475:1477   */\n  0x40\n    /* \"#utility.yul\":1460:1478   */\n  dup9\n  add\n    /* \"#utility.yul\":1454:1479   */\n  mload\n    /* \"#utility.yul\":1372:1431   */\n  swap1\n  swap6\n  pop\n  sub(shl(0x40, 0x01), 0x01)\n    /* \"#utility.yul\":1491:1521   */\n  dup2\n  gt\n    /* \"#utility.yul\":1488:1538   */\n  iszero\n  tag_32\n  jumpi\n    /* \"#utility.yul\":1534:1535   */\n  0x00\n    /* \"#utility.yul\":1531:1532   */\n  dup1\n    /* \"#utility.yul\":1524:1536   */\n  revert\n    /* \"#utility.yul\":1488:1538   */\ntag_32:\n    /* \"#utility.yul\":1557:1618   */\n  tag_33\n    /* \"#utility.yul\":1610:1617   */\n  dup10\n    /* \"#utility.yul\":1601:1607   */\n  dup3\n    /* \"#utility.yul\":1590:1599   */\n  dup11\n    /* \"#utility.yul\":1586:1608   */\n  add\n    /* \"#utility.yul\":1557:1618   */\n  tag_12\n  jump\t// in\ntag_33:\n    /* \"#utility.yul\":1664:1666   */\n  0x60\n    /* \"#utility.yul\":1649:1667   */\n  dup10\n  add\n    /* \"#utility.yul\":1643:1668   */\n  mload\n    /* \"#utility.yul\":1547:1618   */\n  swap1\n  swap6\n  pop\n    /* \"#utility.yul\":1643:1668   */\n  swap1\n  pop\n  sub(shl(0x40, 0x01), 0x01)\n    /* \"#utility.yul\":1680:1712   */\n  dup2\n  gt\n    /* \"#utility.yul\":1677:1729   */\n  iszero\n  tag_34\n  jumpi\n    /* \"#utility.yul\":1725:1726   */\n  0x00\n    /* \"#utility.yul\":1722:1723   */\n  dup1\n    /* \"#utility.yul\":1715:1727   */\n  revert\n    /* \"#utility.yul\":1677:1729   */\ntag_34:\n    /* \"#utility.yul\":1748:1811   */\n  tag_35\n    /* \"#utility.yul\":1803:1810   */\n  dup10\n    /* \"#utility.yul\":1792:1800   */\n  dup3\n    /* \"#utility.yul\":1781:1790   */\n  dup11\n    /* \"#utility.yul\":1777:1801   */\n  add\n    /* \"#utility.yul\":1748:1811   */\n  tag_12\n  jump\t// in\ntag_35:\n    /* \"#utility.yul\":1738:1811   */\n  swap4\n  pop\n  pop\n    /* \"#utility.yul\":1851:1854   */\n  0x80\n    /* \"#utility.yul\":1840:1849   */\n  dup8\n    /* \"#utility.yul\":1836:1855   */\n  add\n    /* \"#utility.yul\":1830:1856   */\n  mload\n    /* \"#utility.yul\":1820:1856   */\n  swap2\n  pop\n    /* \"#utility.yul\":1899:1902   */\n  0xa0\n    /* \"#utility.yul\":1888:1897   */\n  dup8\n    /* \"#utility.yul\":1884:1903   */\n  add\n    /* \"#utility.yul\":1878:1904   */\n  mload\n    /* \"#utility.yul\":1944:1958   */\n  0xffffffffffff\n    /* \"#utility.yul\":1937:1942   */\n  dup2\n    /* \"#utility.yul\":1933:1959   */\n  and\n    /* \"#utility.yul\":1926:1931   */\n  dup2\n    /* \"#utility.yul\":1923:1960   */\n  eq\n    /* \"#utility.yul\":1913:1978   */\n  tag_36\n  jumpi\n    /* \"#utility.yul\":1974:1975   */\n  0x00\n    /* \"#utility.yul\":1971:1972   */\n  dup1\n    /* \"#utility.yul\":1964:1976   */\n  revert\n    /* \"#utility.yul\":1913:1978   */\ntag_36:\n    /* \"#utility.yul\":1997:2002   */\n  dup1\n    /* \"#utility.yul\":1987:2002   */\n  swap2\n  pop\n  pop\n    /* \"#utility.yul\":1056:2008   */\n  swap3\n  swap6\n  pop\n  swap3\n  swap6\n  pop\n  swap3\n  swap6\n  jump\t// out\n    /* \"#utility.yul\":2013:2393   */\ntag_13:\n    /* \"#utility.yul\":2092:2093   */\n  0x01\n    /* \"#utility.yul\":2088:2100   */\n  dup2\n  dup2\n  shr\n  swap1\n    /* \"#utility.yul\":2135:2147   */\n  dup3\n  and\n  dup1\n    /* \"#utility.yul\":2156:2217   */\n  tag_38\n  jumpi\n    /* \"#utility.yul\":2210:2214   */\n  0x7f\n    /* \"#utility.yul\":2202:2208   */\n  dup3\n    /* \"#utility.yul\":2198:2215   */\n  and\n    /* \"#utility.yul\":2188:2215   */\n  swap2\n  pop\n    /* \"#utility.yul\":2156:2217   */\ntag_38:\n    /* \"#utility.yul\":2263:2265   */\n  0x20\n    /* \"#utility.yul\":2255:2261   */\n  dup3\n    /* \"#utility.yul\":2252:2266   */\n  lt\n    /* \"#utility.yul\":2232:2250   */\n  dup2\n    /* \"#utility.yul\":2229:2267   */\n  sub\n    /* \"#utility.yul\":2226:2387   */\n  tag_39\n  jumpi\n    /* \"#utility.yul\":2309:2319   */\n  0x4e487b71\n    /* \"#utility.yul\":2304:2307   */\n  0xe0\n    /* \"#utility.yul\":2300:2320   */\n  shl\n    /* \"#utility.yul\":2297:2298   */\n  0x00\n    /* \"#utility.yul\":2290:2321   */\n  mstore\n    /* \"#utility.yul\":2344:2348   */\n  0x22\n    /* \"#utility.yul\":2341:2342   */\n  0x04\n    /* \"#utility.yul\":2334:2349   */\n  mstore\n    /* \"#utility.yul\":2372:2376   */\n  0x24\n    /* \"#utility.yul\":2369:2370   */\n  0x00\n    /* \"#utility.yul\":2362:2377   */\n  revert\n    /* \"#utility.yul\":2226:2387   */\ntag_39:\n  pop\n    /* \"#utility.yul\":2013:2393   */\n  swap2\n  swap1\n  pop\n  jump\t// out\n    /* \"#utility.yul\":2524:3042   */\ntag_15:\n    /* \"#utility.yul\":2626:2628   */\n  0x1f\n    /* \"#utility.yul\":2621:2624   */\n  dup3\n    /* \"#utility.yul\":2618:2629   */\n  gt\n    /* \"#utility.yul\":2615:3036   */\n  iszero\n  tag_42\n  jumpi\n    /* \"#utility.yul\":2662:2667   */\n  dup1\n    /* \"#utility.yul\":2659:2660   */\n  0x00\n    /* \"#utility.yul\":2652:2668   */\n  mstore\n    /* \"#utility.yul\":2706:2710   */\n  0x20\n    /* \"#utility.yul\":2703:2704   */\n  0x00\n    /* \"#utility.yul\":2693:2711   */\n  keccak256\n    /* \"#utility.yul\":2776:2778   */\n  0x1f\n    /* \"#utility.yul\":2764:2774   */\n  dup5\n    /* \"#utility.yul\":2760:2779   */\n  add\n    /* \"#utility.yul\":2757:2758   */\n  0x05\n    /* \"#utility.yul\":2753:2780   */\n  shr\n    /* \"#utility.yul\":2747:2751   */\n  dup2\n    /* \"#utility.yul\":2743:2781   */\n  add\n    /* \"#utility.yul\":2812:2816   */\n  0x20\n    /* \"#utility.yul\":2800:2810   */\n  dup6\n    /* \"#utility.yul\":2797:2817   */\n  lt\n    /* \"#utility.yul\":2794:2841   */\n  iszero\n  tag_43\n  jumpi\n  pop\n    /* \"#utility.yul\":2835:2839   */\n  dup1\n    /* \"#utility.yul\":2794:2841   */\ntag_43:\n    /* \"#utility.yul\":2890:2892   */\n  0x1f\n    /* \"#utility.yul\":2885:2888   */\n  dup5\n    /* \"#utility.yul\":2881:2893   */\n  add\n    /* \"#utility.yul\":2878:2879   */\n  0x05\n    /* \"#utility.yul\":2874:2894   */\n  shr\n    /* \"#utility.yul\":2868:2872   */\n  dup3\n    /* \"#utility.yul\":2864:2895   */\n  add\n    /* \"#utility.yul\":2854:2895   */\n  swap2\n  pop\n    /* \"#utility.yul\":2945:3026   */\ntag_44:\n    /* \"#utility.yul\":2963:2965   */\n  dup2\n    /* \"#utility.yul\":2956:2961   */\n  dup2\n    /* \"#utility.yul\":2953:2966   */\n  lt\n    /* \"#utility.yul\":2945:3026   */\n  iszero\n  tag_46\n  jumpi\n    /* \"#utility.yul\":3022:3023   */\n  0x00\n    /* \"#utility.yul\":3008:3024   */\n  dup2\n  sstore\n    /* \"#utility.yul\":2989:2990   */\n  0x01\n    /* \"#utility.yul\":2978:2991   */\n  add\n    /* \"#utility.yul\":2945:3026   */\n  jump(tag_44)\ntag_46:\n    /* \"#utility.yul\":2949:2952   */\n  pop\n  pop\n    /* \"#utility.yul\":2615:3036   */\ntag_42:\n    /* \"#utility.yul\":2524:3042   */\n  pop\n  pop\n  pop\n  jump\t// out\n    /* \"#utility.yul\":3218:4517   */\ntag_7:\n    /* \"#utility.yul\":3338:3348   */\n  dup2\n  mload\n  sub(shl(0x40, 0x01), 0x01)\n    /* \"#utility.yul\":3360:3390   */\n  dup2\n  gt\n    /* \"#utility.yul\":3357:3413   */\n  iszero\n  tag_50\n  jumpi\n    /* \"#utility.yul\":3393:3411   */\n  tag_50\n  tag_11\n  jump\t// in\ntag_50:\n    /* \"#utility.yul\":3422:3519   */\n  tag_51\n    /* \"#utility.yul\":3512:3518   */\n  dup2\n    /* \"#utility.yul\":3472:3510   */\n  tag_52\n    /* \"#utility.yul\":3504:3508   */\n  dup5\n    /* \"#utility.yul\":3498:3509   */\n  sload\n    /* \"#utility.yul\":3472:3510   */\n  tag_13\n  jump\t// in\ntag_52:\n    /* \"#utility.yul\":3466:3470   */\n  dup5\n    /* \"#utility.yul\":3422:3519   */\n  tag_15\n  jump\t// in\ntag_51:\n    /* \"#utility.yul\":3568:3572   */\n  0x20\n    /* \"#utility.yul\":3599:3601   */\n  0x1f\n    /* \"#utility.yul\":3588:3602   */\n  dup3\n  gt\n    /* \"#utility.yul\":3616:3617   */\n  0x01\n    /* \"#utility.yul\":3611:4260   */\n  dup2\n  eq\n  tag_54\n  jumpi\n    /* \"#utility.yul\":4304:4305   */\n  0x00\n    /* \"#utility.yul\":4321:4327   */\n  dup4\n    /* \"#utility.yul\":4318:4407   */\n  iszero\n  tag_55\n  jumpi\n  pop\n    /* \"#utility.yul\":4373:4392   */\n  dup5\n  dup3\n  add\n    /* \"#utility.yul\":4367:4393   */\n  mload\n    /* \"#utility.yul\":4318:4407   */\ntag_55:\n  not(0x00)\n    /* \"#utility.yul\":3175:3176   */\n  0x03\n    /* \"#utility.yul\":3171:3182   */\n  dup6\n  swap1\n  shl\n    /* \"#utility.yul\":3167:3191   */\n  shr\n    /* \"#utility.yul\":3163:3192   */\n  not\n    /* \"#utility.yul\":3153:3193   */\n  and\n    /* \"#utility.yul\":3199:3200   */\n  0x01\n    /* \"#utility.yul\":3195:3206   */\n  dup5\n  swap1\n  shl\n    /* \"#utility.yul\":3150:3207   */\n  or\n    /* \"#utility.yul\":4420:4501   */\n  dup5\n  sstore\n    /* \"#utility.yul\":3581:4511   */\n  jump(tag_46)\n    /* \"#utility.yul\":3611:4260   */\ntag_54:\n    /* \"#utility.yul\":2471:2472   */\n  0x00\n    /* \"#utility.yul\":2464:2478   */\n  dup5\n  dup2\n  mstore\n    /* \"#utility.yul\":2508:2512   */\n  0x20\n    /* \"#utility.yul\":2495:2513   */\n  dup2\n  keccak256\n  not(0x1f)\n    /* \"#utility.yul\":3647:3667   */\n  dup6\n  and\n  swap2\n    /* \"#utility.yul\":3765:3987   */\ntag_58:\n    /* \"#utility.yul\":3779:3786   */\n  dup3\n    /* \"#utility.yul\":3776:3777   */\n  dup2\n    /* \"#utility.yul\":3773:3787   */\n  lt\n    /* \"#utility.yul\":3765:3987   */\n  iszero\n  tag_60\n  jumpi\n    /* \"#utility.yul\":3861:3880   */\n  dup8\n  dup6\n  add\n    /* \"#utility.yul\":3855:3881   */\n  mload\n    /* \"#utility.yul\":3840:3882   */\n  dup3\n  sstore\n    /* \"#utility.yul\":3968:3972   */\n  0x20\n    /* \"#utility.yul\":3953:3973   */\n  swap5\n  dup6\n  add\n  swap5\n    /* \"#utility.yul\":3921:3922   */\n  0x01\n    /* \"#utility.yul\":3909:3923   */\n  swap1\n  swap3\n  add\n  swap2\n    /* \"#utility.yul\":3795:3807   */\n  add\n    /* \"#utility.yul\":3765:3987   */\n  jump(tag_58)\ntag_60:\n    /* \"#utility.yul\":3769:3772   */\n  pop\n    /* \"#utility.yul\":4015:4021   */\n  dup5\n    /* \"#utility.yul\":4006:4013   */\n  dup3\n    /* \"#utility.yul\":4003:4022   */\n  lt\n    /* \"#utility.yul\":4000:4201   */\n  iszero\n  tag_61\n  jumpi\n    /* \"#utility.yul\":4076:4095   */\n  dup7\n  dup5\n  add\n    /* \"#utility.yul\":4070:4096   */\n  mload\n  not(0x00)\n    /* \"#utility.yul\":4159:4160   */\n  0x03\n    /* \"#utility.yul\":4155:4169   */\n  dup8\n  swap1\n  shl\n    /* \"#utility.yul\":4171:4174   */\n  0xf8\n    /* \"#utility.yul\":4151:4175   */\n  and\n    /* \"#utility.yul\":4147:4184   */\n  shr\n    /* \"#utility.yul\":4143:4185   */\n  not\n    /* \"#utility.yul\":4128:4186   */\n  and\n    /* \"#utility.yul\":4113:4187   */\n  dup2\n  sstore\n    /* \"#utility.yul\":4000:4201   */\ntag_61:\n  pop\n  pop\n  pop\n  pop\n    /* \"#utility.yul\":4247:4248   */\n  0x01\n    /* \"#utility.yul\":4231:4245   */\n  swap1\n  dup2\n  shl\n    /* \"#utility.yul\":4227:4249   */\n  add\n    /* \"#utility.yul\":4214:4250   */\n  swap1\n  sstore\n  pop\n    /* \"#utility.yul\":3218:4517   */\n  jump\t// out\ntag_17:\n    /* \"backend/contracts/Campaign.sol\":226:9134  contract Campaign {... */\n  mload(0x80)\n  mload(0xa0)\n  mload(0xc0)\n  codecopy(0x00, dataOffset(sub_0), dataSize(sub_0))\n  0x00\n  assignImmutable(\"0x7f8b6b088b6d74c2852fc86c796dca07b44eed6fb3daf5e6b59f7c364db14528\")\n  0x00\n  assignImmutable(\"0x1a192fabce13988b84994d4296e6cdc418d55e2f1d7f942188d4040b94fc57ac\")\n  0x00\n  assignImmutable(\"0x13600b294191fc92924bb3ce4b969c1e7e2bab8f4c93c3fc6d0a51733df3c060\")\n  return(0x00, dataSize(sub_0))\nstop\n\nsub_0: assembly {\n        /* \"backend/contracts/Campaign.sol\":226:9134  contract Campaign {... */\n      mstore(0x40, 0x80)\n      jumpi(tag_1, lt(calldatasize, 0x04))\n      shr(0xe0, calldataload(0x00))\n      dup1\n      0x7a3a0e84\n      gt\n      tag_15\n      jumpi\n      dup1\n      0x96f300d4\n      gt\n      tag_16\n      jumpi\n      dup1\n      0x96f300d4\n      eq\n      tag_11\n      jumpi\n      dup1\n      0xa1211bc0\n      eq\n      tag_12\n      jumpi\n      dup1\n      0xed88c68e\n      eq\n      tag_13\n      jumpi\n      dup1\n      0xf851a440\n      eq\n      tag_14\n      jumpi\n      0x00\n      dup1\n      revert\n    tag_16:\n      dup1\n      0x7a3a0e84\n      eq\n      tag_8\n      jumpi\n      dup1\n      0x90e4a130\n      eq\n      tag_9\n      jumpi\n      dup1\n      0x968ed600\n      eq\n      tag_10\n      jumpi\n      0x00\n      dup1\n      revert\n    tag_15:\n      dup1\n      0x06fdde03\n      eq\n      tag_2\n      jumpi\n      dup1\n      0x0c611f24\n      eq\n      tag_3\n      jumpi\n      dup1\n      0x22f3e2d4\n      eq\n      tag_4\n      jumpi\n      dup1\n      0x29dcb0cf\n      eq\n      tag_5\n      jumpi\n      dup1\n      0x38af3eed\n      eq\n      tag_6\n      jumpi\n      dup1\n      0x7284e416\n      eq\n      tag_7\n      jumpi\n    tag_1:\n      0x00\n      dup1\n      revert\n        /* \"backend/contracts/Campaign.sol\":315:333  string public name */\n    tag_2:\n      callvalue\n      dup1\n      iszero\n      tag_17\n      jumpi\n      0x00\n      dup1\n      revert\n    tag_17:\n      pop\n      tag_18\n      tag_19\n      jump\t// in\n    tag_18:\n      mload(0x40)\n      tag_20\n      swap2\n      swap1\n      tag_21\n      jump\t// in\n    tag_20:\n      mload(0x40)\n      dup1\n      swap2\n      sub\n      swap1\n      return\n        /* \"backend/contracts/Campaign.sol\":7912:8564  function getCampaignDetails()... */\n    tag_3:\n      callvalue\n      dup1\n      iszero\n      tag_22\n      jumpi\n      0x00\n      dup1\n      revert\n    tag_22:\n      pop\n      tag_23\n      tag_24\n      jump\t// in\n    tag_23:\n      mload(0x40)\n      tag_20\n      swap8\n      swap7\n      swap6\n      swap5\n      swap4\n      swap3\n      swap2\n      swap1\n      tag_26\n      jump\t// in\n        /* \"backend/contracts/Campaign.sol\":526:546  bool public isActive */\n    tag_4:\n      callvalue\n      dup1\n      iszero\n      tag_27\n      jumpi\n      0x00\n      dup1\n      revert\n    tag_27:\n      pop\n      sload(0x03)\n      tag_28\n      swap1\n      0xff\n      and\n      dup2\n      jump\n    tag_28:\n      mload(0x40)\n        /* \"#utility.yul\":1501:1515   */\n      swap1\n      iszero\n        /* \"#utility.yul\":1494:1516   */\n      iszero\n        /* \"#utility.yul\":1476:1517   */\n      dup2\n      mstore\n        /* \"#utility.yul\":1464:1466   */\n      0x20\n        /* \"#utility.yul\":1449:1467   */\n      add\n        /* \"backend/contracts/Campaign.sol\":526:546  bool public isActive */\n      tag_20\n        /* \"#utility.yul\":1336:1523   */\n      jump\n        /* \"backend/contracts/Campaign.sol\":370:402  uint48 public immutable deadline */\n    tag_5:\n      callvalue\n      dup1\n      iszero\n      tag_32\n      jumpi\n      0x00\n      dup1\n      revert\n    tag_32:\n      pop\n      tag_33\n      immutable(\"0x1a192fabce13988b84994d4296e6cdc418d55e2f1d7f942188d4040b94fc57ac\")\n      dup2\n      jump\n    tag_33:\n      mload(0x40)\n        /* \"#utility.yul\":1702:1716   */\n      0xffffffffffff\n        /* \"#utility.yul\":1690:1717   */\n      swap1\n      swap2\n      and\n        /* \"#utility.yul\":1672:1718   */\n      dup2\n      mstore\n        /* \"#utility.yul\":1660:1662   */\n      0x20\n        /* \"#utility.yul\":1645:1663   */\n      add\n        /* \"backend/contracts/Campaign.sol\":370:402  uint48 public immutable deadline */\n      tag_20\n        /* \"#utility.yul\":1528:1724   */\n      jump\n        /* \"backend/contracts/Campaign.sol\":273:309  address public immutable beneficiary */\n    tag_6:\n      callvalue\n      dup1\n      iszero\n      tag_37\n      jumpi\n      0x00\n      dup1\n      revert\n    tag_37:\n      pop\n      tag_38\n      immutable(\"0x13600b294191fc92924bb3ce4b969c1e7e2bab8f4c93c3fc6d0a51733df3c060\")\n      dup2\n      jump\n    tag_38:\n      mload(0x40)\n      sub(shl(0xa0, 0x01), 0x01)\n        /* \"#utility.yul\":1893:1925   */\n      swap1\n      swap2\n      and\n        /* \"#utility.yul\":1875:1926   */\n      dup2\n      mstore\n        /* \"#utility.yul\":1863:1865   */\n      0x20\n        /* \"#utility.yul\":1848:1866   */\n      add\n        /* \"backend/contracts/Campaign.sol\":273:309  address public immutable beneficiary */\n      tag_20\n        /* \"#utility.yul\":1729:1932   */\n      jump\n        /* \"backend/contracts/Campaign.sol\":339:364  string public description */\n    tag_7:\n      callvalue\n      dup1\n      iszero\n      tag_42\n      jumpi\n      0x00\n      dup1\n      revert\n    tag_42:\n      pop\n      tag_18\n      tag_44\n      jump\t// in\n        /* \"backend/contracts/Campaign.sol\":408:444  uint256 public immutable fundingGoal */\n    tag_8:\n      callvalue\n      dup1\n      iszero\n      tag_46\n      jumpi\n      0x00\n      dup1\n      revert\n    tag_46:\n      pop\n      tag_47\n      immutable(\"0x7f8b6b088b6d74c2852fc86c796dca07b44eed6fb3daf5e6b59f7c364db14528\")\n      dup2\n      jump\n    tag_47:\n      mload(0x40)\n        /* \"#utility.yul\":2083:2108   */\n      swap1\n      dup2\n      mstore\n        /* \"#utility.yul\":2071:2073   */\n      0x20\n        /* \"#utility.yul\":2056:2074   */\n      add\n        /* \"backend/contracts/Campaign.sol\":408:444  uint256 public immutable fundingGoal */\n      tag_20\n        /* \"#utility.yul\":1937:2114   */\n      jump\n        /* \"backend/contracts/Campaign.sol\":7721:7824  function getMyDonations() external view returns (uint256) {... */\n    tag_9:\n      callvalue\n      dup1\n      iszero\n      tag_51\n      jumpi\n      0x00\n      dup1\n      revert\n    tag_51:\n      pop\n        /* \"backend/contracts/Campaign.sol\":7806:7816  msg.sender */\n      caller\n        /* \"backend/contracts/Campaign.sol\":7770:7777  uint256 */\n      0x00\n        /* \"backend/contracts/Campaign.sol\":7796:7817  donations[msg.sender] */\n      swap1\n      dup2\n      mstore\n        /* \"backend/contracts/Campaign.sol\":7796:7805  donations */\n      0x04\n        /* \"backend/contracts/Campaign.sol\":7796:7817  donations[msg.sender] */\n      0x20\n      mstore\n      0x40\n      swap1\n      keccak256\n      sload\n        /* \"backend/contracts/Campaign.sol\":7721:7824  function getMyDonations() external view returns (uint256) {... */\n      jump(tag_47)\n        /* \"backend/contracts/Campaign.sol\":467:492  uint256 public totalFunds */\n    tag_10:\n      callvalue\n      dup1\n      iszero\n      tag_55\n      jumpi\n      0x00\n      dup1\n      revert\n    tag_55:\n      pop\n      tag_47\n      sload(0x02)\n      dup2\n      jump\n        /* \"backend/contracts/Campaign.sol\":7333:7425  function getDonors() external view returns (address[] memory) {... */\n    tag_11:\n      callvalue\n      dup1\n      iszero\n      tag_59\n      jumpi\n      0x00\n      dup1\n      revert\n    tag_59:\n      pop\n      tag_60\n      tag_61\n      jump\t// in\n    tag_60:\n      mload(0x40)\n      tag_20\n      swap2\n      swap1\n      tag_63\n      jump\t// in\n        /* \"backend/contracts/Campaign.sol\":5782:7140  function finalizeCampaign()... */\n    tag_12:\n      callvalue\n      dup1\n      iszero\n      tag_64\n      jumpi\n      0x00\n      dup1\n      revert\n    tag_64:\n      pop\n      tag_65\n      tag_66\n      jump\t// in\n    tag_65:\n      stop\n        /* \"backend/contracts/Campaign.sol\":3863:4658  function donate() external payable beforeDeadline isActiveCampaign {... */\n    tag_13:\n      tag_65\n      tag_68\n      jump\t// in\n        /* \"backend/contracts/Campaign.sol\":861:881  address public admin */\n    tag_14:\n      callvalue\n      dup1\n      iszero\n      tag_69\n      jumpi\n      0x00\n      dup1\n      revert\n    tag_69:\n      pop\n      sload(0x06)\n      tag_38\n      swap1\n      sub(shl(0xa0, 0x01), 0x01)\n      and\n      dup2\n      jump\n        /* \"backend/contracts/Campaign.sol\":315:333  string public name */\n    tag_19:\n      0x00\n      dup1\n      sload\n      tag_73\n      swap1\n      tag_74\n      jump\t// in\n    tag_73:\n      dup1\n      0x1f\n      add\n      0x20\n      dup1\n      swap2\n      div\n      mul\n      0x20\n      add\n      mload(0x40)\n      swap1\n      dup2\n      add\n      0x40\n      mstore\n      dup1\n      swap3\n      swap2\n      swap1\n      dup2\n      dup2\n      mstore\n      0x20\n      add\n      dup3\n      dup1\n      sload\n      tag_75\n      swap1\n      tag_74\n      jump\t// in\n    tag_75:\n      dup1\n      iszero\n      tag_76\n      jumpi\n      dup1\n      0x1f\n      lt\n      tag_77\n      jumpi\n      0x0100\n      dup1\n      dup4\n      sload\n      div\n      mul\n      dup4\n      mstore\n      swap2\n      0x20\n      add\n      swap2\n      jump(tag_76)\n    tag_77:\n      dup3\n      add\n      swap2\n      swap1\n      0x00\n      mstore\n      keccak256(0x00, 0x20)\n      swap1\n    tag_78:\n      dup2\n      sload\n      dup2\n      mstore\n      swap1\n      0x01\n      add\n      swap1\n      0x20\n      add\n      dup1\n      dup4\n      gt\n      tag_78\n      jumpi\n      dup3\n      swap1\n      sub\n      0x1f\n      and\n      dup3\n      add\n      swap2\n    tag_76:\n      pop\n      pop\n      pop\n      pop\n      pop\n      dup2\n      jump\t// out\n        /* \"backend/contracts/Campaign.sol\":7912:8564  function getCampaignDetails()... */\n    tag_24:\n        /* \"backend/contracts/Campaign.sol\":8002:8029  address campaignBeneficiary */\n      0x00\n        /* \"backend/contracts/Campaign.sol\":8043:8069  string memory campaignName */\n      0x60\n        /* \"backend/contracts/Campaign.sol\":8083:8116  string memory campaignDescription */\n      dup1\n        /* \"backend/contracts/Campaign.sol\":8130:8153  uint48 campaignDeadline */\n      0x00\n        /* \"backend/contracts/Campaign.sol\":8167:8194  uint256 campaignFundingGoal */\n      dup1\n        /* \"backend/contracts/Campaign.sol\":8208:8234  uint256 campaignTotalFunds */\n      0x00\n        /* \"backend/contracts/Campaign.sol\":8248:8269  bool campaignIsActive */\n      dup1\n        /* \"backend/contracts/Campaign.sol\":8316:8327  beneficiary */\n      immutable(\"0x13600b294191fc92924bb3ce4b969c1e7e2bab8f4c93c3fc6d0a51733df3c060\")\n        /* \"backend/contracts/Campaign.sol\":8294:8327  campaignBeneficiary = beneficiary */\n      swap7\n      pop\n        /* \"backend/contracts/Campaign.sol\":8352:8356  name */\n      0x00\n        /* \"backend/contracts/Campaign.sol\":8337:8356  campaignName = name */\n      dup1\n      sload\n      tag_80\n      swap1\n      tag_74\n      jump\t// in\n    tag_80:\n      dup1\n      0x1f\n      add\n      0x20\n      dup1\n      swap2\n      div\n      mul\n      0x20\n      add\n      mload(0x40)\n      swap1\n      dup2\n      add\n      0x40\n      mstore\n      dup1\n      swap3\n      swap2\n      swap1\n      dup2\n      dup2\n      mstore\n      0x20\n      add\n      dup3\n      dup1\n      sload\n      tag_81\n      swap1\n      tag_74\n      jump\t// in\n    tag_81:\n      dup1\n      iszero\n      tag_82\n      jumpi\n      dup1\n      0x1f\n      lt\n      tag_83\n      jumpi\n      0x0100\n      dup1\n      dup4\n      sload\n      div\n      mul\n      dup4\n      mstore\n      swap2\n      0x20\n      add\n      swap2\n      jump(tag_82)\n    tag_83:\n      dup3\n      add\n      swap2\n      swap1\n      0x00\n      mstore\n      keccak256(0x00, 0x20)\n      swap1\n    tag_84:\n      dup2\n      sload\n      dup2\n      mstore\n      swap1\n      0x01\n      add\n      swap1\n      0x20\n      add\n      dup1\n      dup4\n      gt\n      tag_84\n      jumpi\n      dup3\n      swap1\n      sub\n      0x1f\n      and\n      dup3\n      add\n      swap2\n    tag_82:\n      pop\n      pop\n      pop\n      pop\n      pop\n      swap6\n      pop\n        /* \"backend/contracts/Campaign.sol\":8388:8399  description */\n      0x01\n        /* \"backend/contracts/Campaign.sol\":8366:8399  campaignDescription = description */\n      dup1\n      sload\n      tag_85\n      swap1\n      tag_74\n      jump\t// in\n    tag_85:\n      dup1\n      0x1f\n      add\n      0x20\n      dup1\n      swap2\n      div\n      mul\n      0x20\n      add\n      mload(0x40)\n      swap1\n      dup2\n      add\n      0x40\n      mstore\n      dup1\n      swap3\n      swap2\n      swap1\n      dup2\n      dup2\n      mstore\n      0x20\n      add\n      dup3\n      dup1\n      sload\n      tag_86\n      swap1\n      tag_74\n      jump\t// in\n    tag_86:\n      dup1\n      iszero\n      tag_87\n      jumpi\n      dup1\n      0x1f\n      lt\n      tag_88\n      jumpi\n      0x0100\n      dup1\n      dup4\n      sload\n      div\n      mul\n      dup4\n      mstore\n      swap2\n      0x20\n      add\n      swap2\n      jump(tag_87)\n    tag_88:\n      dup3\n      add\n      swap2\n      swap1\n      0x00\n      mstore\n      keccak256(0x00, 0x20)\n      swap1\n    tag_89:\n      dup2\n      sload\n      dup2\n      mstore\n      swap1\n      0x01\n      add\n      swap1\n      0x20\n      add\n      dup1\n      dup4\n      gt\n      tag_89\n      jumpi\n      dup3\n      swap1\n      sub\n      0x1f\n      and\n      dup3\n      add\n      swap2\n    tag_87:\n      pop\n      pop\n        /* \"backend/contracts/Campaign.sol\":8510:8520  totalFunds */\n      sload(0x02)\n        /* \"backend/contracts/Campaign.sol\":8549:8557  isActive */\n      sload(0x03)\n        /* \"backend/contracts/Campaign.sol\":7912:8564  function getCampaignDetails()... */\n      swap12\n      swap13\n      swap11\n      swap12\n        /* \"backend/contracts/Campaign.sol\":8366:8399  campaignDescription = description */\n      swap5\n      swap11\n        /* \"backend/contracts/Campaign.sol\":8428:8436  deadline */\n      immutable(\"0x1a192fabce13988b84994d4296e6cdc418d55e2f1d7f942188d4040b94fc57ac\")\n      swap11\n      pop\n        /* \"backend/contracts/Campaign.sol\":8468:8479  fundingGoal */\n      immutable(\"0x7f8b6b088b6d74c2852fc86c796dca07b44eed6fb3daf5e6b59f7c364db14528\")\n      swap10\n      pop\n        /* \"backend/contracts/Campaign.sol\":8510:8520  totalFunds */\n      swap1\n      swap8\n      pop\n        /* \"backend/contracts/Campaign.sol\":8549:8557  isActive */\n      0xff\n      swap1\n      swap5\n      and\n      swap6\n      pop\n        /* \"backend/contracts/Campaign.sol\":7912:8564  function getCampaignDetails()... */\n      swap3\n      swap4\n      pop\n      pop\n      pop\n      pop\n      jump\t// out\n        /* \"backend/contracts/Campaign.sol\":339:364  string public description */\n    tag_44:\n      0x01\n      dup1\n      sload\n      tag_73\n      swap1\n      tag_74\n      jump\t// in\n        /* \"backend/contracts/Campaign.sol\":7333:7425  function getDonors() external view returns (address[] memory) {... */\n    tag_61:\n        /* \"backend/contracts/Campaign.sol\":7377:7393  address[] memory */\n      0x60\n        /* \"backend/contracts/Campaign.sol\":7412:7418  donors */\n      0x05\n        /* \"backend/contracts/Campaign.sol\":7405:7418  return donors */\n      dup1\n      sload\n      dup1\n      0x20\n      mul\n      0x20\n      add\n      mload(0x40)\n      swap1\n      dup2\n      add\n      0x40\n      mstore\n      dup1\n      swap3\n      swap2\n      swap1\n      dup2\n      dup2\n      mstore\n      0x20\n      add\n      dup3\n      dup1\n      sload\n      dup1\n      iszero\n      tag_97\n      jumpi\n      0x20\n      mul\n      dup3\n      add\n      swap2\n      swap1\n      0x00\n      mstore\n      keccak256(0x00, 0x20)\n      swap1\n    tag_98:\n      dup2\n      sload\n      sub(shl(0xa0, 0x01), 0x01)\n      and\n      dup2\n      mstore\n      0x01\n      swap1\n      swap2\n      add\n      swap1\n      0x20\n      add\n      dup1\n      dup4\n      gt\n      tag_98\n      jumpi\n    tag_97:\n      pop\n      pop\n      pop\n      pop\n      pop\n      swap1\n      pop\n        /* \"backend/contracts/Campaign.sol\":7333:7425  function getDonors() external view returns (address[] memory) {... */\n      swap1\n      jump\t// out\n        /* \"backend/contracts/Campaign.sol\":5782:7140  function finalizeCampaign()... */\n    tag_66:\n        /* \"backend/contracts/Campaign.sol\":3363:3371  isActive */\n      and(0xff, sload(0x03))\n        /* \"backend/contracts/Campaign.sol\":3355:3403  require(isActive, \"The Campaign is not active!\") */\n      tag_100\n      jumpi\n      mload(0x40)\n      shl(0xe5, 0x461bcd)\n      dup2\n      mstore\n        /* \"#utility.yul\":3348:3350   */\n      0x20\n        /* \"backend/contracts/Campaign.sol\":3355:3403  require(isActive, \"The Campaign is not active!\") */\n      0x04\n      dup3\n      add\n        /* \"#utility.yul\":3330:3351   */\n      mstore\n        /* \"#utility.yul\":3387:3389   */\n      0x1b\n        /* \"#utility.yul\":3367:3385   */\n      0x24\n      dup3\n      add\n        /* \"#utility.yul\":3360:3390   */\n      mstore\n        /* \"#utility.yul\":3426:3455   */\n      0x5468652043616d706169676e206973206e6f7420616374697665210000000000\n        /* \"#utility.yul\":3406:3424   */\n      0x44\n      dup3\n      add\n        /* \"#utility.yul\":3399:3456   */\n      mstore\n        /* \"#utility.yul\":3473:3491   */\n      0x64\n      add\n        /* \"backend/contracts/Campaign.sol\":3355:3403  require(isActive, \"The Campaign is not active!\") */\n    tag_101:\n      mload(0x40)\n      dup1\n      swap2\n      sub\n      swap1\n      revert\n    tag_100:\n        /* \"backend/contracts/Campaign.sol\":3504:3512  deadline */\n      immutable(\"0x1a192fabce13988b84994d4296e6cdc418d55e2f1d7f942188d4040b94fc57ac\")\n        /* \"backend/contracts/Campaign.sol\":3486:3512  block.timestamp > deadline */\n      0xffffffffffff\n      and\n        /* \"backend/contracts/Campaign.sol\":3486:3501  block.timestamp */\n      timestamp\n        /* \"backend/contracts/Campaign.sol\":3486:3512  block.timestamp > deadline */\n      gt\n        /* \"backend/contracts/Campaign.sol\":3465:3577  require(... */\n      tag_104\n      jumpi\n      mload(0x40)\n      shl(0xe5, 0x461bcd)\n      dup2\n      mstore\n        /* \"#utility.yul\":3704:3706   */\n      0x20\n        /* \"backend/contracts/Campaign.sol\":3465:3577  require(... */\n      0x04\n      dup3\n      add\n        /* \"#utility.yul\":3686:3707   */\n      mstore\n        /* \"#utility.yul\":3743:3745   */\n      0x27\n        /* \"#utility.yul\":3723:3741   */\n      0x24\n      dup3\n      add\n        /* \"#utility.yul\":3716:3746   */\n      mstore\n        /* \"#utility.yul\":3782:3816   */\n      0x5468652043616d706169676e277320646561646c696e6520686173206e6f7420\n        /* \"#utility.yul\":3762:3780   */\n      0x44\n      dup3\n      add\n        /* \"#utility.yul\":3755:3817   */\n      mstore\n      shl(0xc8, 0x70617373656421)\n        /* \"#utility.yul\":3833:3851   */\n      0x64\n      dup3\n      add\n        /* \"#utility.yul\":3826:3863   */\n      mstore\n        /* \"#utility.yul\":3880:3899   */\n      0x84\n      add\n        /* \"backend/contracts/Campaign.sol\":3465:3577  require(... */\n      tag_101\n        /* \"#utility.yul\":3502:3905   */\n      jump\n        /* \"backend/contracts/Campaign.sol\":3465:3577  require(... */\n    tag_104:\n        /* \"backend/contracts/Campaign.sol\":3257:3262  admin */\n      and(sub(shl(0xa0, 0x01), 0x01), sload(0x06))\n        /* \"backend/contracts/Campaign.sol\":3243:3253  msg.sender */\n      caller\n        /* \"backend/contracts/Campaign.sol\":3243:3262  msg.sender == admin */\n      eq\n        /* \"backend/contracts/Campaign.sol\":3235:3294  require(msg.sender == admin, \"Access restricted to admin!\") */\n      tag_108\n      jumpi\n      mload(0x40)\n      shl(0xe5, 0x461bcd)\n      dup2\n      mstore\n        /* \"#utility.yul\":4112:4114   */\n      0x20\n        /* \"backend/contracts/Campaign.sol\":3235:3294  require(msg.sender == admin, \"Access restricted to admin!\") */\n      0x04\n      dup3\n      add\n        /* \"#utility.yul\":4094:4115   */\n      mstore\n        /* \"#utility.yul\":4151:4153   */\n      0x1b\n        /* \"#utility.yul\":4131:4149   */\n      0x24\n      dup3\n      add\n        /* \"#utility.yul\":4124:4154   */\n      mstore\n        /* \"#utility.yul\":4190:4219   */\n      0x416363657373207265737472696374656420746f2061646d696e210000000000\n        /* \"#utility.yul\":4170:4188   */\n      0x44\n      dup3\n      add\n        /* \"#utility.yul\":4163:4220   */\n      mstore\n        /* \"#utility.yul\":4237:4255   */\n      0x64\n      add\n        /* \"backend/contracts/Campaign.sol\":3235:3294  require(msg.sender == admin, \"Access restricted to admin!\") */\n      tag_101\n        /* \"#utility.yul\":3910:4261   */\n      jump\n        /* \"backend/contracts/Campaign.sol\":3235:3294  require(msg.sender == admin, \"Access restricted to admin!\") */\n    tag_108:\n        /* \"backend/contracts/Campaign.sol\":5927:5938  fundingGoal */\n      immutable(\"0x7f8b6b088b6d74c2852fc86c796dca07b44eed6fb3daf5e6b59f7c364db14528\")\n        /* \"backend/contracts/Campaign.sol\":5913:5923  totalFunds */\n      sload(0x02)\n        /* \"backend/contracts/Campaign.sol\":5913:5938  totalFunds >= fundingGoal */\n      lt\n        /* \"backend/contracts/Campaign.sol\":5909:7134  if (totalFunds >= fundingGoal) {... */\n      tag_112\n      jumpi\n        /* \"backend/contracts/Campaign.sol\":5988:6002  releaseFunds() */\n      tag_113\n        /* \"backend/contracts/Campaign.sol\":5988:6000  releaseFunds */\n      tag_114\n        /* \"backend/contracts/Campaign.sol\":5988:6002  releaseFunds() */\n      jump\t// in\n    tag_113:\n        /* \"backend/contracts/Campaign.sol\":5782:7140  function finalizeCampaign()... */\n      jump\t// out\n        /* \"backend/contracts/Campaign.sol\":5909:7134  if (totalFunds >= fundingGoal) {... */\n    tag_112:\n        /* \"backend/contracts/Campaign.sol\":6033:6041  isActive */\n      0x03\n        /* \"backend/contracts/Campaign.sol\":6033:6049  isActive = false */\n      dup1\n      sload\n      not(0xff)\n      and\n      swap1\n      sstore\n        /* \"backend/contracts/Campaign.sol\":6275:6281  donors */\n      0x05\n        /* \"backend/contracts/Campaign.sol\":6275:6288  donors.length */\n      sload\n        /* \"backend/contracts/Campaign.sol\":6044:6049  false */\n      0x00\n        /* \"backend/contracts/Campaign.sol\":6382:6962  for (uint256 i = 0; i < totalDonors; i++) {... */\n    tag_116:\n        /* \"backend/contracts/Campaign.sol\":6406:6417  totalDonors */\n      dup2\n        /* \"backend/contracts/Campaign.sol\":6402:6403  i */\n      dup2\n        /* \"backend/contracts/Campaign.sol\":6402:6417  i < totalDonors */\n      lt\n        /* \"backend/contracts/Campaign.sol\":6382:6962  for (uint256 i = 0; i < totalDonors; i++) {... */\n      iszero\n      tag_117\n      jumpi\n        /* \"backend/contracts/Campaign.sol\":6442:6455  address donor */\n      0x00\n        /* \"backend/contracts/Campaign.sol\":6458:6464  donors */\n      0x05\n        /* \"backend/contracts/Campaign.sol\":6465:6466  i */\n      dup3\n        /* \"backend/contracts/Campaign.sol\":6458:6467  donors[i] */\n      dup2\n      sload\n      dup2\n      lt\n      tag_120\n      jumpi\n      tag_120\n      tag_121\n      jump\t// in\n    tag_120:\n      0x00\n      swap2\n      dup3\n      mstore\n      0x20\n      dup1\n      dup4\n      keccak256\n      swap1\n      swap2\n      add\n      sload\n      sub(shl(0xa0, 0x01), 0x01)\n      and\n        /* \"backend/contracts/Campaign.sol\":6510:6526  donations[donor] */\n      dup1\n      dup4\n      mstore\n        /* \"backend/contracts/Campaign.sol\":6510:6519  donations */\n      0x04\n        /* \"backend/contracts/Campaign.sol\":6510:6526  donations[donor] */\n      swap1\n      swap2\n      mstore\n      0x40\n      swap1\n      swap2\n      keccak256\n      sload\n        /* \"backend/contracts/Campaign.sol\":6458:6467  donors[i] */\n      swap1\n      swap2\n      pop\n        /* \"backend/contracts/Campaign.sol\":6728:6746  donationAmount > 0 */\n      dup1\n      iszero\n        /* \"backend/contracts/Campaign.sol\":6724:6948  if (donationAmount > 0) {... */\n      tag_123\n      jumpi\n      sub(shl(0xa0, 0x01), 0x01)\n        /* \"backend/contracts/Campaign.sol\":6770:6786  donations[donor] */\n      dup3\n      and\n        /* \"backend/contracts/Campaign.sol\":6789:6790  0 */\n      0x00\n        /* \"backend/contracts/Campaign.sol\":6770:6786  donations[donor] */\n      dup2\n      dup2\n      mstore\n        /* \"backend/contracts/Campaign.sol\":6770:6779  donations */\n      0x04\n        /* \"backend/contracts/Campaign.sol\":6770:6786  donations[donor] */\n      0x20\n      mstore\n      0x40\n      dup1\n      dup3\n      keccak256\n        /* \"backend/contracts/Campaign.sol\":6770:6790  donations[donor] = 0 */\n      dup3\n      swap1\n      sstore\n        /* \"backend/contracts/Campaign.sol\":6812:6851  payable(donor).transfer(donationAmount) */\n      mload\n      dup4\n      iszero\n      0x08fc\n      mul\n      swap2\n        /* \"backend/contracts/Campaign.sol\":6836:6850  donationAmount */\n      dup5\n      swap2\n        /* \"backend/contracts/Campaign.sol\":6812:6851  payable(donor).transfer(donationAmount) */\n      swap1\n      dup2\n        /* \"backend/contracts/Campaign.sol\":6789:6790  0 */\n      dup2\n        /* \"backend/contracts/Campaign.sol\":6812:6851  payable(donor).transfer(donationAmount) */\n      dup2\n        /* \"backend/contracts/Campaign.sol\":6836:6850  donationAmount */\n      dup6\n        /* \"backend/contracts/Campaign.sol\":6770:6786  donations[donor] */\n      dup9\n        /* \"backend/contracts/Campaign.sol\":6812:6851  payable(donor).transfer(donationAmount) */\n      dup9\n      call\n      swap4\n      pop\n      pop\n      pop\n      pop\n      iszero\n      dup1\n      iszero\n      tag_125\n      jumpi\n      returndatasize\n      0x00\n      dup1\n      returndatacopy\n      revert(0x00, returndatasize)\n    tag_125:\n      pop\n        /* \"backend/contracts/Campaign.sol\":6879:6929  RefundIssued(address(this), donor, donationAmount) */\n      mload(0x40)\n        /* \"#utility.yul\":2083:2108   */\n      dup2\n      dup2\n      mstore\n      sub(shl(0xa0, 0x01), 0x01)\n        /* \"backend/contracts/Campaign.sol\":6879:6929  RefundIssued(address(this), donor, donationAmount) */\n      dup4\n      and\n      swap1\n        /* \"backend/contracts/Campaign.sol\":6900:6904  this */\n      address\n      swap1\n        /* \"backend/contracts/Campaign.sol\":6879:6929  RefundIssued(address(this), donor, donationAmount) */\n      0x97ded04b4dd3dab6c02011a161d44b56a32fc8dac48ee2a011bc2beed61b16e0\n      swap1\n        /* \"#utility.yul\":2071:2073   */\n      0x20\n        /* \"#utility.yul\":2056:2074   */\n      add\n        /* \"backend/contracts/Campaign.sol\":6879:6929  RefundIssued(address(this), donor, donationAmount) */\n      mload(0x40)\n      dup1\n      swap2\n      sub\n      swap1\n      log3\n        /* \"backend/contracts/Campaign.sol\":6724:6948  if (donationAmount > 0) {... */\n    tag_123:\n      pop\n      pop\n        /* \"backend/contracts/Campaign.sol\":6419:6422  i++ */\n      0x01\n      add\n        /* \"backend/contracts/Campaign.sol\":6382:6962  for (uint256 i = 0; i < totalDonors; i++) {... */\n      jump(tag_116)\n    tag_117:\n      pop\n        /* \"backend/contracts/Campaign.sol\":7099:7109  totalFunds */\n      sload(0x02)\n        /* \"backend/contracts/Campaign.sol\":6981:7123  CampaignFinalized(... */\n      0x40\n      dup1\n      mload\n        /* \"backend/contracts/Campaign.sol\":7076:7081  false */\n      0x00\n        /* \"#utility.yul\":4566:4607   */\n      dup2\n      mstore\n        /* \"#utility.yul\":4638:4640   */\n      0x20\n        /* \"#utility.yul\":4623:4641   */\n      dup2\n      add\n        /* \"#utility.yul\":4616:4650   */\n      swap3\n      swap1\n      swap3\n      mstore\n      sub(shl(0xa0, 0x01), 0x01)\n        /* \"backend/contracts/Campaign.sol\":7047:7058  beneficiary */\n      immutable(\"0x13600b294191fc92924bb3ce4b969c1e7e2bab8f4c93c3fc6d0a51733df3c060\")\n        /* \"backend/contracts/Campaign.sol\":6981:7123  CampaignFinalized(... */\n      and\n      swap2\n        /* \"backend/contracts/Campaign.sol\":7024:7028  this */\n      address\n      swap2\n        /* \"backend/contracts/Campaign.sol\":6981:7123  CampaignFinalized(... */\n      0xf8ed233c0a8b0e10069233fce1475c7e44b21d443210c576412d7f1191d22457\n      swap2\n        /* \"#utility.yul\":4539:4557   */\n      add\n        /* \"backend/contracts/Campaign.sol\":6981:7123  CampaignFinalized(... */\n      mload(0x40)\n      dup1\n      swap2\n      sub\n      swap1\n      log3\n        /* \"backend/contracts/Campaign.sol\":6019:7134  {... */\n      pop\n        /* \"backend/contracts/Campaign.sol\":5782:7140  function finalizeCampaign()... */\n      jump\t// out\n        /* \"backend/contracts/Campaign.sol\":3863:4658  function donate() external payable beforeDeadline isActiveCampaign {... */\n    tag_68:\n        /* \"backend/contracts/Campaign.sol\":3677:3685  deadline */\n      immutable(\"0x1a192fabce13988b84994d4296e6cdc418d55e2f1d7f942188d4040b94fc57ac\")\n        /* \"backend/contracts/Campaign.sol\":3658:3685  block.timestamp <= deadline */\n      0xffffffffffff\n      and\n        /* \"backend/contracts/Campaign.sol\":3658:3673  block.timestamp */\n      timestamp\n        /* \"backend/contracts/Campaign.sol\":3658:3685  block.timestamp <= deadline */\n      gt\n      iszero\n        /* \"backend/contracts/Campaign.sol\":3637:3754  require(... */\n      tag_130\n      jumpi\n      mload(0x40)\n      shl(0xe5, 0x461bcd)\n      dup2\n      mstore\n        /* \"#utility.yul\":4863:4865   */\n      0x20\n        /* \"backend/contracts/Campaign.sol\":3637:3754  require(... */\n      0x04\n      dup3\n      add\n        /* \"#utility.yul\":4845:4866   */\n      mstore\n        /* \"#utility.yul\":4902:4904   */\n      0x2b\n        /* \"#utility.yul\":4882:4900   */\n      0x24\n      dup3\n      add\n        /* \"#utility.yul\":4875:4905   */\n      mstore\n        /* \"#utility.yul\":4941:4975   */\n      0x5468652043616d706169676e277320646561646c696e652068617320616c7265\n        /* \"#utility.yul\":4921:4939   */\n      0x44\n      dup3\n      add\n        /* \"#utility.yul\":4914:4976   */\n      mstore\n      shl(0xa8, 0x6164792070617373656421)\n        /* \"#utility.yul\":4992:5010   */\n      0x64\n      dup3\n      add\n        /* \"#utility.yul\":4985:5026   */\n      mstore\n        /* \"#utility.yul\":5043:5062   */\n      0x84\n      add\n        /* \"backend/contracts/Campaign.sol\":3637:3754  require(... */\n      tag_101\n        /* \"#utility.yul\":4661:5068   */\n      jump\n        /* \"backend/contracts/Campaign.sol\":3637:3754  require(... */\n    tag_130:\n        /* \"backend/contracts/Campaign.sol\":3363:3371  isActive */\n      and(0xff, sload(0x03))\n        /* \"backend/contracts/Campaign.sol\":3355:3403  require(isActive, \"The Campaign is not active!\") */\n      tag_134\n      jumpi\n      mload(0x40)\n      shl(0xe5, 0x461bcd)\n      dup2\n      mstore\n        /* \"#utility.yul\":3348:3350   */\n      0x20\n        /* \"backend/contracts/Campaign.sol\":3355:3403  require(isActive, \"The Campaign is not active!\") */\n      0x04\n      dup3\n      add\n        /* \"#utility.yul\":3330:3351   */\n      mstore\n        /* \"#utility.yul\":3387:3389   */\n      0x1b\n        /* \"#utility.yul\":3367:3385   */\n      0x24\n      dup3\n      add\n        /* \"#utility.yul\":3360:3390   */\n      mstore\n        /* \"#utility.yul\":3426:3455   */\n      0x5468652043616d706169676e206973206e6f7420616374697665210000000000\n        /* \"#utility.yul\":3406:3424   */\n      0x44\n      dup3\n      add\n        /* \"#utility.yul\":3399:3456   */\n      mstore\n        /* \"#utility.yul\":3473:3491   */\n      0x64\n      add\n        /* \"backend/contracts/Campaign.sol\":3355:3403  require(isActive, \"The Campaign is not active!\") */\n      tag_101\n        /* \"#utility.yul\":3146:3497   */\n      jump\n        /* \"backend/contracts/Campaign.sol\":3355:3403  require(isActive, \"The Campaign is not active!\") */\n    tag_134:\n        /* \"backend/contracts/Campaign.sol\":3956:3966  msg.sender */\n      caller\n        /* \"backend/contracts/Campaign.sol\":3940:3953  address donor */\n      0x00\n        /* \"backend/contracts/Campaign.sol\":4088:4104  donations[donor] */\n      dup2\n      dup2\n      mstore\n        /* \"backend/contracts/Campaign.sol\":4088:4097  donations */\n      0x04\n        /* \"backend/contracts/Campaign.sol\":4088:4104  donations[donor] */\n      0x20\n      mstore\n      0x40\n      dup2\n      keccak256\n      sload\n        /* \"backend/contracts/Campaign.sol\":4001:4010  msg.value */\n      callvalue\n      swap2\n        /* \"backend/contracts/Campaign.sol\":4088:4109  donations[donor] == 0 */\n      sub\n        /* \"backend/contracts/Campaign.sol\":4084:4154  if (donations[donor] == 0) {... */\n      tag_137\n      jumpi\n        /* \"backend/contracts/Campaign.sol\":4125:4131  donors */\n      0x05\n        /* \"backend/contracts/Campaign.sol\":4125:4143  donors.push(donor) */\n      dup1\n      sload\n      0x01\n      dup2\n      add\n      dup3\n      sstore\n      0x00\n      swap2\n      swap1\n      swap2\n      mstore\n      0x036b6384b5eca791c62761152d0c79bb0604c104a5fb6f4eb0703f3154bb3db0\n      add\n      dup1\n      sload\n      not(sub(shl(0xa0, 0x01), 0x01))\n      and\n      sub(shl(0xa0, 0x01), 0x01)\n      dup5\n      and\n      or\n      swap1\n      sstore\n        /* \"backend/contracts/Campaign.sol\":4084:4154  if (donations[donor] == 0) {... */\n    tag_137:\n      sub(shl(0xa0, 0x01), 0x01)\n        /* \"backend/contracts/Campaign.sol\":4164:4180  donations[donor] */\n      dup3\n      and\n      0x00\n      swap1\n      dup2\n      mstore\n        /* \"backend/contracts/Campaign.sol\":4164:4173  donations */\n      0x04\n        /* \"backend/contracts/Campaign.sol\":4164:4180  donations[donor] */\n      0x20\n      mstore\n      0x40\n      dup2\n      keccak256\n        /* \"backend/contracts/Campaign.sol\":4164:4190  donations[donor] += amount */\n      dup1\n      sload\n        /* \"backend/contracts/Campaign.sol\":4184:4190  amount */\n      dup4\n      swap3\n        /* \"backend/contracts/Campaign.sol\":4164:4180  donations[donor] */\n      swap1\n        /* \"backend/contracts/Campaign.sol\":4164:4190  donations[donor] += amount */\n      tag_139\n      swap1\n        /* \"backend/contracts/Campaign.sol\":4184:4190  amount */\n      dup5\n      swap1\n        /* \"backend/contracts/Campaign.sol\":4164:4190  donations[donor] += amount */\n      tag_140\n      jump\t// in\n    tag_139:\n      swap1\n      swap2\n      sstore\n      pop\n      pop\n        /* \"backend/contracts/Campaign.sol\":4353:4363  totalFunds */\n      sload(0x02)\n        /* \"backend/contracts/Campaign.sol\":4329:4350  uint256 newTotalFunds */\n      0x00\n      swap1\n        /* \"backend/contracts/Campaign.sol\":4353:4372  totalFunds + amount */\n      tag_141\n      swap1\n        /* \"backend/contracts/Campaign.sol\":4366:4372  amount */\n      dup4\n      swap1\n        /* \"backend/contracts/Campaign.sol\":4353:4372  totalFunds + amount */\n      tag_140\n      jump\t// in\n    tag_141:\n        /* \"backend/contracts/Campaign.sol\":4382:4392  totalFunds */\n      0x02\n        /* \"backend/contracts/Campaign.sol\":4382:4408  totalFunds = newTotalFunds */\n      dup2\n      swap1\n      sstore\n        /* \"backend/contracts/Campaign.sol\":4424:4472  DonationMade(address(this), beneficiary, amount) */\n      mload(0x40)\n        /* \"#utility.yul\":2083:2108   */\n      dup4\n      dup2\n      mstore\n        /* \"backend/contracts/Campaign.sol\":4329:4372  uint256 newTotalFunds = totalFunds + amount */\n      swap1\n      swap2\n      pop\n      sub(shl(0xa0, 0x01), 0x01)\n        /* \"backend/contracts/Campaign.sol\":4452:4463  beneficiary */\n      immutable(\"0x13600b294191fc92924bb3ce4b969c1e7e2bab8f4c93c3fc6d0a51733df3c060\")\n        /* \"backend/contracts/Campaign.sol\":4424:4472  DonationMade(address(this), beneficiary, amount) */\n      and\n      swap1\n        /* \"backend/contracts/Campaign.sol\":4445:4449  this */\n      address\n      swap1\n        /* \"backend/contracts/Campaign.sol\":4424:4472  DonationMade(address(this), beneficiary, amount) */\n      0x70c6bc6cf53707fb5561feef795d557f7e46f57bd4f1a13ce36e9ffdf58d38bb\n      swap1\n        /* \"#utility.yul\":2071:2073   */\n      0x20\n        /* \"#utility.yul\":2056:2074   */\n      add\n        /* \"backend/contracts/Campaign.sol\":4424:4472  DonationMade(address(this), beneficiary, amount) */\n      mload(0x40)\n      dup1\n      swap2\n      sub\n      swap1\n      log3\n        /* \"backend/contracts/Campaign.sol\":4600:4611  fundingGoal */\n      immutable(\"0x7f8b6b088b6d74c2852fc86c796dca07b44eed6fb3daf5e6b59f7c364db14528\")\n        /* \"backend/contracts/Campaign.sol\":4583:4596  newTotalFunds */\n      dup2\n        /* \"backend/contracts/Campaign.sol\":4583:4611  newTotalFunds >= fundingGoal */\n      lt\n        /* \"backend/contracts/Campaign.sol\":4579:4652  if (newTotalFunds >= fundingGoal) {... */\n      tag_144\n      jumpi\n        /* \"backend/contracts/Campaign.sol\":4627:4641  releaseFunds() */\n      tag_144\n        /* \"backend/contracts/Campaign.sol\":4627:4639  releaseFunds */\n      tag_114\n        /* \"backend/contracts/Campaign.sol\":4627:4641  releaseFunds() */\n      jump\t// in\n    tag_144:\n        /* \"backend/contracts/Campaign.sol\":3930:4658  {... */\n      pop\n      pop\n      pop\n        /* \"backend/contracts/Campaign.sol\":3863:4658  function donate() external payable beforeDeadline isActiveCampaign {... */\n      jump\t// out\n        /* \"backend/contracts/Campaign.sol\":4882:5461  function releaseFunds() private {... */\n    tag_114:\n        /* \"backend/contracts/Campaign.sol\":4949:4959  totalFunds */\n      0x02\n      dup1\n      sload\n        /* \"backend/contracts/Campaign.sol\":4924:4946  uint256 fundsToRelease */\n      0x00\n        /* \"backend/contracts/Campaign.sol\":4969:4986  delete totalFunds */\n      swap2\n      dup3\n      swap1\n      sstore\n        /* \"backend/contracts/Campaign.sol\":5038:5046  isActive */\n      0x03\n        /* \"backend/contracts/Campaign.sol\":5038:5054  isActive = false */\n      dup1\n      sload\n      not(0xff)\n      and\n      swap1\n      sstore\n        /* \"backend/contracts/Campaign.sol\":5134:5186  payable(beneficiary).call{value: fundsToRelease}(\"\") */\n      mload(0x40)\n        /* \"backend/contracts/Campaign.sol\":4949:4959  totalFunds */\n      swap1\n      swap2\n        /* \"backend/contracts/Campaign.sol\":4924:4946  uint256 fundsToRelease */\n      swap1\n        /* \"backend/contracts/Campaign.sol\":5142:5153  beneficiary */\n      immutable(\"0x13600b294191fc92924bb3ce4b969c1e7e2bab8f4c93c3fc6d0a51733df3c060\")\n      sub(shl(0xa0, 0x01), 0x01)\n        /* \"backend/contracts/Campaign.sol\":5134:5159  payable(beneficiary).call */\n      and\n      swap1\n        /* \"backend/contracts/Campaign.sol\":4949:4959  totalFunds */\n      dup4\n      swap1\n        /* \"backend/contracts/Campaign.sol\":4924:4946  uint256 fundsToRelease */\n      dup4\n        /* \"backend/contracts/Campaign.sol\":5134:5186  payable(beneficiary).call{value: fundsToRelease}(\"\") */\n      dup2\n        /* \"backend/contracts/Campaign.sol\":4924:4946  uint256 fundsToRelease */\n      dup2\n        /* \"backend/contracts/Campaign.sol\":5134:5186  payable(beneficiary).call{value: fundsToRelease}(\"\") */\n      dup2\n        /* \"backend/contracts/Campaign.sol\":4949:4959  totalFunds */\n      dup6\n        /* \"backend/contracts/Campaign.sol\":5134:5159  payable(beneficiary).call */\n      dup8\n        /* \"backend/contracts/Campaign.sol\":5134:5186  payable(beneficiary).call{value: fundsToRelease}(\"\") */\n      gas\n      call\n      swap3\n      pop\n      pop\n      pop\n      returndatasize\n      dup1\n      0x00\n      dup2\n      eq\n      tag_150\n      jumpi\n      mload(0x40)\n      swap2\n      pop\n      and(add(returndatasize, 0x3f), not(0x1f))\n      dup3\n      add\n      0x40\n      mstore\n      returndatasize\n      dup3\n      mstore\n      returndatasize\n      0x00\n      0x20\n      dup5\n      add\n      returndatacopy\n      jump(tag_149)\n    tag_150:\n      0x60\n      swap2\n      pop\n    tag_149:\n      pop\n        /* \"backend/contracts/Campaign.sol\":5115:5186  (bool success, ) = payable(beneficiary).call{value: fundsToRelease}(\"\") */\n      pop\n      swap1\n      pop\n        /* \"backend/contracts/Campaign.sol\":5204:5211  success */\n      dup1\n        /* \"backend/contracts/Campaign.sol\":5196:5240  require(success, \"Unable to release funds!\") */\n      tag_151\n      jumpi\n      mload(0x40)\n      shl(0xe5, 0x461bcd)\n      dup2\n      mstore\n        /* \"#utility.yul\":5712:5714   */\n      0x20\n        /* \"backend/contracts/Campaign.sol\":5196:5240  require(success, \"Unable to release funds!\") */\n      0x04\n      dup3\n      add\n        /* \"#utility.yul\":5694:5715   */\n      mstore\n        /* \"#utility.yul\":5751:5753   */\n      0x18\n        /* \"#utility.yul\":5731:5749   */\n      0x24\n      dup3\n      add\n        /* \"#utility.yul\":5724:5754   */\n      mstore\n        /* \"#utility.yul\":5790:5816   */\n      0x556e61626c6520746f2072656c656173652066756e6473210000000000000000\n        /* \"#utility.yul\":5770:5788   */\n      0x44\n      dup3\n      add\n        /* \"#utility.yul\":5763:5817   */\n      mstore\n        /* \"#utility.yul\":5834:5852   */\n      0x64\n      add\n        /* \"backend/contracts/Campaign.sol\":5196:5240  require(success, \"Unable to release funds!\") */\n      tag_101\n        /* \"#utility.yul\":5510:5858   */\n      jump\n        /* \"backend/contracts/Campaign.sol\":5196:5240  require(success, \"Unable to release funds!\") */\n    tag_151:\n        /* \"backend/contracts/Campaign.sol\":5256:5314  FundsWithdrawn(address(this), beneficiary, fundsToRelease) */\n      mload(0x40)\n        /* \"#utility.yul\":2083:2108   */\n      dup3\n      dup2\n      mstore\n      sub(shl(0xa0, 0x01), 0x01)\n        /* \"backend/contracts/Campaign.sol\":5286:5297  beneficiary */\n      immutable(\"0x13600b294191fc92924bb3ce4b969c1e7e2bab8f4c93c3fc6d0a51733df3c060\")\n        /* \"backend/contracts/Campaign.sol\":5256:5314  FundsWithdrawn(address(this), beneficiary, fundsToRelease) */\n      and\n      swap1\n        /* \"backend/contracts/Campaign.sol\":5279:5283  this */\n      address\n      swap1\n        /* \"backend/contracts/Campaign.sol\":5256:5314  FundsWithdrawn(address(this), beneficiary, fundsToRelease) */\n      0xa92ff919b850e4909ab2261d907ef955f11bc1716733a6cbece38d163a69af8a\n      swap1\n        /* \"#utility.yul\":2071:2073   */\n      0x20\n        /* \"#utility.yul\":2056:2074   */\n      add\n        /* \"backend/contracts/Campaign.sol\":5256:5314  FundsWithdrawn(address(this), beneficiary, fundsToRelease) */\n      mload(0x40)\n      dup1\n      swap2\n      sub\n      swap1\n      log3\n        /* \"backend/contracts/Campaign.sol\":5329:5454  CampaignFinalized(... */\n      0x40\n      dup1\n      mload\n        /* \"backend/contracts/Campaign.sol\":5412:5416  true */\n      0x01\n        /* \"#utility.yul\":4566:4607   */\n      dup2\n      mstore\n        /* \"#utility.yul\":4638:4640   */\n      0x20\n        /* \"#utility.yul\":4623:4641   */\n      dup2\n      add\n        /* \"#utility.yul\":4616:4650   */\n      dup5\n      swap1\n      mstore\n      sub(shl(0xa0, 0x01), 0x01)\n        /* \"backend/contracts/Campaign.sol\":5387:5398  beneficiary */\n      immutable(\"0x13600b294191fc92924bb3ce4b969c1e7e2bab8f4c93c3fc6d0a51733df3c060\")\n        /* \"backend/contracts/Campaign.sol\":5329:5454  CampaignFinalized(... */\n      and\n      swap2\n        /* \"backend/contracts/Campaign.sol\":5368:5372  this */\n      address\n      swap2\n        /* \"backend/contracts/Campaign.sol\":5329:5454  CampaignFinalized(... */\n      0xf8ed233c0a8b0e10069233fce1475c7e44b21d443210c576412d7f1191d22457\n      swap2\n        /* \"#utility.yul\":4539:4557   */\n      add\n        /* \"backend/contracts/Campaign.sol\":5329:5454  CampaignFinalized(... */\n      mload(0x40)\n      dup1\n      swap2\n      sub\n      swap1\n      log3\n        /* \"backend/contracts/Campaign.sol\":4914:5461  {... */\n      pop\n      pop\n        /* \"backend/contracts/Campaign.sol\":4882:5461  function releaseFunds() private {... */\n      jump\t// out\n        /* \"#utility.yul\":14:303   */\n    tag_156:\n        /* \"#utility.yul\":56:59   */\n      0x00\n        /* \"#utility.yul\":94:99   */\n      dup2\n        /* \"#utility.yul\":88:100   */\n      mload\n        /* \"#utility.yul\":121:127   */\n      dup1\n        /* \"#utility.yul\":116:119   */\n      dup5\n        /* \"#utility.yul\":109:128   */\n      mstore\n        /* \"#utility.yul\":177:183   */\n      dup1\n        /* \"#utility.yul\":170:174   */\n      0x20\n        /* \"#utility.yul\":163:168   */\n      dup5\n        /* \"#utility.yul\":159:175   */\n      add\n        /* \"#utility.yul\":152:156   */\n      0x20\n        /* \"#utility.yul\":147:150   */\n      dup7\n        /* \"#utility.yul\":143:157   */\n      add\n        /* \"#utility.yul\":137:184   */\n      mcopy\n        /* \"#utility.yul\":229:230   */\n      0x00\n        /* \"#utility.yul\":222:226   */\n      0x20\n        /* \"#utility.yul\":213:219   */\n      dup3\n        /* \"#utility.yul\":208:211   */\n      dup7\n        /* \"#utility.yul\":204:220   */\n      add\n        /* \"#utility.yul\":200:227   */\n      add\n        /* \"#utility.yul\":193:231   */\n      mstore\n        /* \"#utility.yul\":292:296   */\n      0x20\n        /* \"#utility.yul\":285:287   */\n      0x1f\n        /* \"#utility.yul\":281:288   */\n      not\n        /* \"#utility.yul\":276:278   */\n      0x1f\n        /* \"#utility.yul\":268:274   */\n      dup4\n        /* \"#utility.yul\":264:279   */\n      add\n        /* \"#utility.yul\":260:289   */\n      and\n        /* \"#utility.yul\":255:258   */\n      dup6\n        /* \"#utility.yul\":251:290   */\n      add\n        /* \"#utility.yul\":247:297   */\n      add\n        /* \"#utility.yul\":240:297   */\n      swap2\n      pop\n      pop\n        /* \"#utility.yul\":14:303   */\n      swap3\n      swap2\n      pop\n      pop\n      jump\t// out\n        /* \"#utility.yul\":308:528   */\n    tag_21:\n        /* \"#utility.yul\":457:459   */\n      0x20\n        /* \"#utility.yul\":446:455   */\n      dup2\n        /* \"#utility.yul\":439:460   */\n      mstore\n        /* \"#utility.yul\":420:424   */\n      0x00\n        /* \"#utility.yul\":477:522   */\n      tag_160\n        /* \"#utility.yul\":518:520   */\n      0x20\n        /* \"#utility.yul\":507:516   */\n      dup4\n        /* \"#utility.yul\":503:521   */\n      add\n        /* \"#utility.yul\":495:501   */\n      dup5\n        /* \"#utility.yul\":477:522   */\n      tag_156\n      jump\t// in\n    tag_160:\n        /* \"#utility.yul\":469:522   */\n      swap4\n        /* \"#utility.yul\":308:528   */\n      swap3\n      pop\n      pop\n      pop\n      jump\t// out\n        /* \"#utility.yul\":533:1331   */\n    tag_26:\n      sub(shl(0xa0, 0x01), 0x01)\n        /* \"#utility.yul\":862:894   */\n      dup9\n      and\n        /* \"#utility.yul\":844:895   */\n      dup2\n      mstore\n        /* \"#utility.yul\":931:934   */\n      0xe0\n        /* \"#utility.yul\":926:928   */\n      0x20\n        /* \"#utility.yul\":911:929   */\n      dup3\n      add\n        /* \"#utility.yul\":904:935   */\n      dup2\n      swap1\n      mstore\n      0x00\n      swap1\n        /* \"#utility.yul\":958:1004   */\n      tag_162\n      swap1\n        /* \"#utility.yul\":984:1003   */\n      dup4\n      add\n        /* \"#utility.yul\":976:982   */\n      dup10\n        /* \"#utility.yul\":958:1004   */\n      tag_156\n      jump\t// in\n    tag_162:\n        /* \"#utility.yul\":1052:1061   */\n      dup3\n        /* \"#utility.yul\":1044:1050   */\n      dup2\n        /* \"#utility.yul\":1040:1062   */\n      sub\n        /* \"#utility.yul\":1035:1037   */\n      0x40\n        /* \"#utility.yul\":1024:1033   */\n      dup5\n        /* \"#utility.yul\":1020:1038   */\n      add\n        /* \"#utility.yul\":1013:1063   */\n      mstore\n        /* \"#utility.yul\":1080:1113   */\n      tag_163\n        /* \"#utility.yul\":1106:1112   */\n      dup2\n        /* \"#utility.yul\":1098:1104   */\n      dup10\n        /* \"#utility.yul\":1080:1113   */\n      tag_156\n      jump\t// in\n    tag_163:\n        /* \"#utility.yul\":1072:1113   */\n      swap2\n      pop\n      pop\n        /* \"#utility.yul\":1161:1175   */\n      0xffffffffffff\n        /* \"#utility.yul\":1153:1159   */\n      dup7\n        /* \"#utility.yul\":1149:1176   */\n      and\n        /* \"#utility.yul\":1144:1146   */\n      0x60\n        /* \"#utility.yul\":1133:1142   */\n      dup4\n        /* \"#utility.yul\":1129:1147   */\n      add\n        /* \"#utility.yul\":1122:1177   */\n      mstore\n        /* \"#utility.yul\":1214:1220   */\n      dup5\n        /* \"#utility.yul\":1208:1211   */\n      0x80\n        /* \"#utility.yul\":1197:1206   */\n      dup4\n        /* \"#utility.yul\":1193:1212   */\n      add\n        /* \"#utility.yul\":1186:1221   */\n      mstore\n        /* \"#utility.yul\":1258:1264   */\n      dup4\n        /* \"#utility.yul\":1252:1255   */\n      0xa0\n        /* \"#utility.yul\":1241:1250   */\n      dup4\n        /* \"#utility.yul\":1237:1256   */\n      add\n        /* \"#utility.yul\":1230:1265   */\n      mstore\n        /* \"#utility.yul\":1316:1322   */\n      dup3\n        /* \"#utility.yul\":1309:1323   */\n      iszero\n        /* \"#utility.yul\":1302:1324   */\n      iszero\n        /* \"#utility.yul\":1296:1299   */\n      0xc0\n        /* \"#utility.yul\":1285:1294   */\n      dup4\n        /* \"#utility.yul\":1281:1300   */\n      add\n        /* \"#utility.yul\":1274:1325   */\n      mstore\n        /* \"#utility.yul\":533:1331   */\n      swap9\n      swap8\n      pop\n      pop\n      pop\n      pop\n      pop\n      pop\n      pop\n      pop\n      jump\t// out\n        /* \"#utility.yul\":2119:2756   */\n    tag_63:\n        /* \"#utility.yul\":2309:2311   */\n      0x20\n        /* \"#utility.yul\":2321:2342   */\n      dup1\n      dup3\n      mstore\n        /* \"#utility.yul\":2391:2404   */\n      dup3\n      mload\n        /* \"#utility.yul\":2294:2312   */\n      dup3\n      dup3\n      add\n        /* \"#utility.yul\":2413:2435   */\n      dup2\n      swap1\n      mstore\n        /* \"#utility.yul\":2261:2265   */\n      0x00\n      swap2\n        /* \"#utility.yul\":2492:2507   */\n      dup5\n      add\n      swap1\n        /* \"#utility.yul\":2466:2468   */\n      0x40\n        /* \"#utility.yul\":2451:2469   */\n      dup5\n      add\n      swap1\n        /* \"#utility.yul\":2261:2265   */\n      dup4\n        /* \"#utility.yul\":2535:2730   */\n    tag_169:\n        /* \"#utility.yul\":2549:2555   */\n      dup2\n        /* \"#utility.yul\":2546:2547   */\n      dup2\n        /* \"#utility.yul\":2543:2556   */\n      lt\n        /* \"#utility.yul\":2535:2730   */\n      iszero\n      tag_171\n      jumpi\n        /* \"#utility.yul\":2614:2627   */\n      dup4\n      mload\n      sub(shl(0xa0, 0x01), 0x01)\n        /* \"#utility.yul\":2610:2649   */\n      and\n        /* \"#utility.yul\":2598:2650   */\n      dup4\n      mstore\n        /* \"#utility.yul\":2679:2681   */\n      0x20\n        /* \"#utility.yul\":2705:2720   */\n      swap4\n      dup5\n      add\n      swap4\n        /* \"#utility.yul\":2670:2682   */\n      swap1\n      swap3\n      add\n      swap2\n        /* \"#utility.yul\":2646:2647   */\n      0x01\n        /* \"#utility.yul\":2564:2573   */\n      add\n        /* \"#utility.yul\":2535:2730   */\n      jump(tag_169)\n    tag_171:\n      pop\n        /* \"#utility.yul\":2747:2750   */\n      swap1\n      swap6\n        /* \"#utility.yul\":2119:2756   */\n      swap5\n      pop\n      pop\n      pop\n      pop\n      pop\n      jump\t// out\n        /* \"#utility.yul\":2761:3141   */\n    tag_74:\n        /* \"#utility.yul\":2840:2841   */\n      0x01\n        /* \"#utility.yul\":2836:2848   */\n      dup2\n      dup2\n      shr\n      swap1\n        /* \"#utility.yul\":2883:2895   */\n      dup3\n      and\n      dup1\n        /* \"#utility.yul\":2904:2965   */\n      tag_173\n      jumpi\n        /* \"#utility.yul\":2958:2962   */\n      0x7f\n        /* \"#utility.yul\":2950:2956   */\n      dup3\n        /* \"#utility.yul\":2946:2963   */\n      and\n        /* \"#utility.yul\":2936:2963   */\n      swap2\n      pop\n        /* \"#utility.yul\":2904:2965   */\n    tag_173:\n        /* \"#utility.yul\":3011:3013   */\n      0x20\n        /* \"#utility.yul\":3003:3009   */\n      dup3\n        /* \"#utility.yul\":3000:3014   */\n      lt\n        /* \"#utility.yul\":2980:2998   */\n      dup2\n        /* \"#utility.yul\":2977:3015   */\n      sub\n        /* \"#utility.yul\":2974:3135   */\n      tag_174\n      jumpi\n        /* \"#utility.yul\":3057:3067   */\n      0x4e487b71\n        /* \"#utility.yul\":3052:3055   */\n      0xe0\n        /* \"#utility.yul\":3048:3068   */\n      shl\n        /* \"#utility.yul\":3045:3046   */\n      0x00\n        /* \"#utility.yul\":3038:3069   */\n      mstore\n        /* \"#utility.yul\":3092:3096   */\n      0x22\n        /* \"#utility.yul\":3089:3090   */\n      0x04\n        /* \"#utility.yul\":3082:3097   */\n      mstore\n        /* \"#utility.yul\":3120:3124   */\n      0x24\n        /* \"#utility.yul\":3117:3118   */\n      0x00\n        /* \"#utility.yul\":3110:3125   */\n      revert\n        /* \"#utility.yul\":2974:3135   */\n    tag_174:\n      pop\n        /* \"#utility.yul\":2761:3141   */\n      swap2\n      swap1\n      pop\n      jump\t// out\n        /* \"#utility.yul\":4266:4393   */\n    tag_121:\n        /* \"#utility.yul\":4327:4337   */\n      0x4e487b71\n        /* \"#utility.yul\":4322:4325   */\n      0xe0\n        /* \"#utility.yul\":4318:4338   */\n      shl\n        /* \"#utility.yul\":4315:4316   */\n      0x00\n        /* \"#utility.yul\":4308:4339   */\n      mstore\n        /* \"#utility.yul\":4358:4362   */\n      0x32\n        /* \"#utility.yul\":4355:4356   */\n      0x04\n        /* \"#utility.yul\":4348:4363   */\n      mstore\n        /* \"#utility.yul\":4382:4386   */\n      0x24\n        /* \"#utility.yul\":4379:4380   */\n      0x00\n        /* \"#utility.yul\":4372:4387   */\n      revert\n        /* \"#utility.yul\":5073:5295   */\n    tag_140:\n        /* \"#utility.yul\":5138:5147   */\n      dup1\n      dup3\n      add\n        /* \"#utility.yul\":5159:5169   */\n      dup1\n      dup3\n      gt\n        /* \"#utility.yul\":5156:5289   */\n      iszero\n      tag_182\n      jumpi\n        /* \"#utility.yul\":5211:5221   */\n      0x4e487b71\n        /* \"#utility.yul\":5206:5209   */\n      0xe0\n        /* \"#utility.yul\":5202:5222   */\n      shl\n        /* \"#utility.yul\":5199:5200   */\n      0x00\n        /* \"#utility.yul\":5192:5223   */\n      mstore\n        /* \"#utility.yul\":5246:5250   */\n      0x11\n        /* \"#utility.yul\":5243:5244   */\n      0x04\n        /* \"#utility.yul\":5236:5251   */\n      mstore\n        /* \"#utility.yul\":5274:5278   */\n      0x24\n        /* \"#utility.yul\":5271:5272   */\n      0x00\n        /* \"#utility.yul\":5264:5279   */\n      revert\n        /* \"#utility.yul\":5156:5289   */\n    tag_182:\n        /* \"#utility.yul\":5073:5295   */\n      swap3\n      swap2\n      pop\n      pop\n      jump\t// out\n\n    auxdata: 0xa26469706673582212206c423f08690a5f5be72fd3cc951170232e24047a4630db5a74e146ab604fa2e964736f6c634300081a0033\n}\n",
				"bytecode": {
					"linkReferences": {},
					"object": "60e060405234801561000f575f80fd5b5060405161111638038061111683398101604081905261002e9161014c565b6001600160a01b03868116608052600680546001600160a01b0319169187169190911790555f61005e858261027c565b50600161006b848261027c565b5060c09190915265ffffffffffff1660a05250506003805460ff19166001179055506103369050565b80516001600160a01b03811681146100aa575f80fd5b919050565b634e487b7160e01b5f52604160045260245ffd5b5f82601f8301126100d2575f80fd5b81516001600160401b038111156100eb576100eb6100af565b604051601f8201601f19908116603f011681016001600160401b0381118282101715610119576101196100af565b604052818152838201602001851015610130575f80fd5b8160208501602083015e5f918101602001919091529392505050565b5f805f805f8060c08789031215610161575f80fd5b61016a87610094565b955061017860208801610094565b60408801519095506001600160401b03811115610193575f80fd5b61019f89828a016100c3565b606089015190955090506001600160401b038111156101bc575f80fd5b6101c889828a016100c3565b9350506080870151915060a087015165ffffffffffff811681146101ea575f80fd5b809150509295509295509295565b600181811c9082168061020c57607f821691505b60208210810361022a57634e487b7160e01b5f52602260045260245ffd5b50919050565b601f82111561027757805f5260205f20601f840160051c810160208510156102555750805b601f840160051c820191505b81811015610274575f8155600101610261565b50505b505050565b81516001600160401b03811115610295576102956100af565b6102a9816102a384546101f8565b84610230565b6020601f8211600181146102db575f83156102c45750848201515b5f19600385901b1c1916600184901b178455610274565b5f84815260208120601f198516915b8281101561030a57878501518255602094850194600190920191016102ea565b508482101561032757868401515f19600387901b60f8161c191681555b50505050600190811b01905550565b60805160a05160c051610d626103b45f395f81816101f7015281816104b10152818161068b01526109f401525f818161014e0152818161048e015281816105aa015261081101525f81816101980152818161034f015281816107be015281816109a201528181610a4101528181610b080152610b710152610d625ff3fe6080604052600436106100bf575f3560e01c80637a3a0e841161007c57806396f300d41161005757806396f300d41461025c578063a1211bc01461027d578063ed88c68e14610293578063f851a4401461029b575f80fd5b80637a3a0e84146101e657806390e4a13014610227578063968ed60014610247575f80fd5b806306fdde03146100c35780630c611f24146100ed57806322f3e2d41461011457806329dcb0cf1461013d57806338af3eed146101875780637284e416146101d2575b5f80fd5b3480156100ce575f80fd5b506100d76102ba565b6040516100e49190610bf1565b60405180910390f35b3480156100f8575f80fd5b50610101610345565b6040516100e49796959493929190610c0a565b34801561011f575f80fd5b5060035461012d9060ff1681565b60405190151581526020016100e4565b348015610148575f80fd5b506101707f000000000000000000000000000000000000000000000000000000000000000081565b60405165ffffffffffff90911681526020016100e4565b348015610192575f80fd5b506101ba7f000000000000000000000000000000000000000000000000000000000000000081565b6040516001600160a01b0390911681526020016100e4565b3480156101dd575f80fd5b506100d76104e4565b3480156101f1575f80fd5b506102197f000000000000000000000000000000000000000000000000000000000000000081565b6040519081526020016100e4565b348015610232575f80fd5b50335f90815260046020526040902054610219565b348015610252575f80fd5b5061021960025481565b348015610267575f80fd5b506102706104f1565b6040516100e49190610c70565b348015610288575f80fd5b50610291610551565b005b61029161080f565b3480156102a6575f80fd5b506006546101ba906001600160a01b031681565b5f80546102c690610cbb565b80601f01602080910402602001604051908101604052809291908181526020018280546102f290610cbb565b801561033d5780601f106103145761010080835404028352916020019161033d565b820191905f5260205f20905b81548152906001019060200180831161032057829003601f168201915b505050505081565b5f6060805f805f807f000000000000000000000000000000000000000000000000000000000000000096505f805461037c90610cbb565b80601f01602080910402602001604051908101604052809291908181526020018280546103a890610cbb565b80156103f35780601f106103ca576101008083540402835291602001916103f3565b820191905f5260205f20905b8154815290600101906020018083116103d657829003601f168201915b505050505095506001805461040790610cbb565b80601f016020809104026020016040519081016040528092919081815260200182805461043390610cbb565b801561047e5780601f106104555761010080835404028352916020019161047e565b820191905f5260205f20905b81548152906001019060200180831161046157829003601f168201915b50506002546003549b9c9a9b949a7f00000000000000000000000000000000000000000000000000000000000000009a507f0000000000000000000000000000000000000000000000000000000000000000995090975060ff9094169550929350505050565b600180546102c690610cbb565b6060600580548060200260200160405190810160405280929190818152602001828054801561054757602002820191905f5260205f20905b81546001600160a01b03168152600190910190602001808311610529575b5050505050905090565b60035460ff166105a85760405162461bcd60e51b815260206004820152601b60248201527f5468652043616d706169676e206973206e6f742061637469766521000000000060448201526064015b60405180910390fd5b7f000000000000000000000000000000000000000000000000000000000000000065ffffffffffff16421161062f5760405162461bcd60e51b815260206004820152602760248201527f5468652043616d706169676e277320646561646c696e6520686173206e6f74206044820152667061737365642160c81b606482015260840161059f565b6006546001600160a01b031633146106895760405162461bcd60e51b815260206004820152601b60248201527f416363657373207265737472696374656420746f2061646d696e210000000000604482015260640161059f565b7f0000000000000000000000000000000000000000000000000000000000000000600254106106bc576106ba610a26565b565b6003805460ff191690556005545f5b818110156107a1575f600582815481106106e7576106e7610cf3565b5f9182526020808320909101546001600160a01b031680835260049091526040909120549091508015610797576001600160a01b0382165f818152600460205260408082208290555183156108fc0291849190818181858888f19350505050158015610755573d5f803e3d5ffd5b506040518181526001600160a01b0383169030907f97ded04b4dd3dab6c02011a161d44b56a32fc8dac48ee2a011bc2beed61b16e09060200160405180910390a35b50506001016106cb565b50600254604080515f815260208101929092526001600160a01b037f0000000000000000000000000000000000000000000000000000000000000000169130917ff8ed233c0a8b0e10069233fce1475c7e44b21d443210c576412d7f1191d22457910160405180910390a350565b7f000000000000000000000000000000000000000000000000000000000000000065ffffffffffff1642111561089b5760405162461bcd60e51b815260206004820152602b60248201527f5468652043616d706169676e277320646561646c696e652068617320616c726560448201526a616479207061737365642160a81b606482015260840161059f565b60035460ff166108ed5760405162461bcd60e51b815260206004820152601b60248201527f5468652043616d706169676e206973206e6f7420616374697665210000000000604482015260640161059f565b335f8181526004602052604081205434910361094e57600580546001810182555f919091527f036b6384b5eca791c62761152d0c79bb0604c104a5fb6f4eb0703f3154bb3db00180546001600160a01b0319166001600160a01b0384161790555b6001600160a01b0382165f9081526004602052604081208054839290610975908490610d07565b90915550506002545f9061098a908390610d07565b60028190556040518381529091506001600160a01b037f0000000000000000000000000000000000000000000000000000000000000000169030907f70c6bc6cf53707fb5561feef795d557f7e46f57bd4f1a13ce36e9ffdf58d38bb9060200160405180910390a37f00000000000000000000000000000000000000000000000000000000000000008110610a2157610a21610a26565b505050565b600280545f918290556003805460ff191690556040519091907f00000000000000000000000000000000000000000000000000000000000000006001600160a01b03169083908381818185875af1925050503d805f8114610aa2576040519150601f19603f3d011682016040523d82523d5f602084013e610aa7565b606091505b5050905080610af85760405162461bcd60e51b815260206004820152601860248201527f556e61626c6520746f2072656c656173652066756e6473210000000000000000604482015260640161059f565b6040518281526001600160a01b037f0000000000000000000000000000000000000000000000000000000000000000169030907fa92ff919b850e4909ab2261d907ef955f11bc1716733a6cbece38d163a69af8a9060200160405180910390a36040805160018152602081018490526001600160a01b037f0000000000000000000000000000000000000000000000000000000000000000169130917ff8ed233c0a8b0e10069233fce1475c7e44b21d443210c576412d7f1191d22457910160405180910390a35050565b5f81518084528060208401602086015e5f602082860101526020601f19601f83011685010191505092915050565b602081525f610c036020830184610bc3565b9392505050565b6001600160a01b038816815260e0602082018190525f90610c2d90830189610bc3565b8281036040840152610c3f8189610bc3565b91505065ffffffffffff861660608301528460808301528360a083015282151560c083015298975050505050505050565b602080825282518282018190525f918401906040840190835b81811015610cb05783516001600160a01b0316835260209384019390920191600101610c89565b509095945050505050565b600181811c90821680610ccf57607f821691505b602082108103610ced57634e487b7160e01b5f52602260045260245ffd5b50919050565b634e487b7160e01b5f52603260045260245ffd5b80820180821115610d2657634e487b7160e01b5f52601160045260245ffd5b9291505056fea26469706673582212206c423f08690a5f5be72fd3cc951170232e24047a4630db5a74e146ab604fa2e964736f6c634300081a0033",
					"opcodes": "PUSH1 0xE0 PUSH1 0x40 MSTORE CALLVALUE DUP1 ISZERO PUSH2 0xF JUMPI PUSH0 DUP1 REVERT JUMPDEST POP PUSH1 0x40 MLOAD PUSH2 0x1116 CODESIZE SUB DUP1 PUSH2 0x1116 DUP4 CODECOPY DUP2 ADD PUSH1 0x40 DUP2 SWAP1 MSTORE PUSH2 0x2E SWAP2 PUSH2 0x14C JUMP JUMPDEST PUSH1 0x1 PUSH1 0x1 PUSH1 0xA0 SHL SUB DUP7 DUP2 AND PUSH1 0x80 MSTORE PUSH1 0x6 DUP1 SLOAD PUSH1 0x1 PUSH1 0x1 PUSH1 0xA0 SHL SUB NOT AND SWAP2 DUP8 AND SWAP2 SWAP1 SWAP2 OR SWAP1 SSTORE PUSH0 PUSH2 0x5E DUP6 DUP3 PUSH2 0x27C JUMP JUMPDEST POP PUSH1 0x1 PUSH2 0x6B DUP5 DUP3 PUSH2 0x27C JUMP JUMPDEST POP PUSH1 0xC0 SWAP2 SWAP1 SWAP2 MSTORE PUSH6 0xFFFFFFFFFFFF AND PUSH1 0xA0 MSTORE POP POP PUSH1 0x3 DUP1 SLOAD PUSH1 0xFF NOT AND PUSH1 0x1 OR SWAP1 SSTORE POP PUSH2 0x336 SWAP1 POP JUMP JUMPDEST DUP1 MLOAD PUSH1 0x1 PUSH1 0x1 PUSH1 0xA0 SHL SUB DUP2 AND DUP2 EQ PUSH2 0xAA JUMPI PUSH0 DUP1 REVERT JUMPDEST SWAP2 SWAP1 POP JUMP JUMPDEST PUSH4 0x4E487B71 PUSH1 0xE0 SHL PUSH0 MSTORE PUSH1 0x41 PUSH1 0x4 MSTORE PUSH1 0x24 PUSH0 REVERT JUMPDEST PUSH0 DUP3 PUSH1 0x1F DUP4 ADD SLT PUSH2 0xD2 JUMPI PUSH0 DUP1 REVERT JUMPDEST DUP2 MLOAD PUSH1 0x1 PUSH1 0x1 PUSH1 0x40 SHL SUB DUP2 GT ISZERO PUSH2 0xEB JUMPI PUSH2 0xEB PUSH2 0xAF JUMP JUMPDEST PUSH1 0x40 MLOAD PUSH1 0x1F DUP3 ADD PUSH1 0x1F NOT SWAP1 DUP2 AND PUSH1 0x3F ADD AND DUP2 ADD PUSH1 0x1 PUSH1 0x1 PUSH1 0x40 SHL SUB DUP2 GT DUP3 DUP3 LT OR ISZERO PUSH2 0x119 JUMPI PUSH2 0x119 PUSH2 0xAF JUMP JUMPDEST PUSH1 0x40 MSTORE DUP2 DUP2 MSTORE DUP4 DUP3 ADD PUSH1 0x20 ADD DUP6 LT ISZERO PUSH2 0x130 JUMPI PUSH0 DUP1 REVERT JUMPDEST DUP2 PUSH1 0x20 DUP6 ADD PUSH1 0x20 DUP4 ADD MCOPY PUSH0 SWAP2 DUP2 ADD PUSH1 0x20 ADD SWAP2 SWAP1 SWAP2 MSTORE SWAP4 SWAP3 POP POP POP JUMP JUMPDEST PUSH0 DUP1 PUSH0 DUP1 PUSH0 DUP1 PUSH1 0xC0 DUP8 DUP10 SUB SLT ISZERO PUSH2 0x161 JUMPI PUSH0 DUP1 REVERT JUMPDEST PUSH2 0x16A DUP8 PUSH2 0x94 JUMP JUMPDEST SWAP6 POP PUSH2 0x178 PUSH1 0x20 DUP9 ADD PUSH2 0x94 JUMP JUMPDEST PUSH1 0x40 DUP9 ADD MLOAD SWAP1 SWAP6 POP PUSH1 0x1 PUSH1 0x1 PUSH1 0x40 SHL SUB DUP2 GT ISZERO PUSH2 0x193 JUMPI PUSH0 DUP1 REVERT JUMPDEST PUSH2 0x19F DUP10 DUP3 DUP11 ADD PUSH2 0xC3 JUMP JUMPDEST PUSH1 0x60 DUP10 ADD MLOAD SWAP1 SWAP6 POP SWAP1 POP PUSH1 0x1 PUSH1 0x1 PUSH1 0x40 SHL SUB DUP2 GT ISZERO PUSH2 0x1BC JUMPI PUSH0 DUP1 REVERT JUMPDEST PUSH2 0x1C8 DUP10 DUP3 DUP11 ADD PUSH2 0xC3 JUMP JUMPDEST SWAP4 POP POP PUSH1 0x80 DUP8 ADD MLOAD SWAP2 POP PUSH1 0xA0 DUP8 ADD MLOAD PUSH6 0xFFFFFFFFFFFF DUP2 AND DUP2 EQ PUSH2 0x1EA JUMPI PUSH0 DUP1 REVERT JUMPDEST DUP1 SWAP2 POP POP SWAP3 SWAP6 POP SWAP3 SWAP6 POP SWAP3 SWAP6 JUMP JUMPDEST PUSH1 0x1 DUP2 DUP2 SHR SWAP1 DUP3 AND DUP1 PUSH2 0x20C JUMPI PUSH1 0x7F DUP3 AND SWAP2 POP JUMPDEST PUSH1 0x20 DUP3 LT DUP2 SUB PUSH2 0x22A JUMPI PUSH4 0x4E487B71 PUSH1 0xE0 SHL PUSH0 MSTORE PUSH1 0x22 PUSH1 0x4 MSTORE PUSH1 0x24 PUSH0 REVERT JUMPDEST POP SWAP2 SWAP1 POP JUMP JUMPDEST PUSH1 0x1F DUP3 GT ISZERO PUSH2 0x277 JUMPI DUP1 PUSH0 MSTORE PUSH1 0x20 PUSH0 KECCAK256 PUSH1 0x1F DUP5 ADD PUSH1 0x5 SHR DUP2 ADD PUSH1 0x20 DUP6 LT ISZERO PUSH2 0x255 JUMPI POP DUP1 JUMPDEST PUSH1 0x1F DUP5 ADD PUSH1 0x5 SHR DUP3 ADD SWAP2 POP JUMPDEST DUP2 DUP2 LT ISZERO PUSH2 0x274 JUMPI PUSH0 DUP2 SSTORE PUSH1 0x1 ADD PUSH2 0x261 JUMP JUMPDEST POP POP JUMPDEST POP POP POP JUMP JUMPDEST DUP2 MLOAD PUSH1 0x1 PUSH1 0x1 PUSH1 0x40 SHL SUB DUP2 GT ISZERO PUSH2 0x295 JUMPI PUSH2 0x295 PUSH2 0xAF JUMP JUMPDEST PUSH2 0x2A9 DUP2 PUSH2 0x2A3 DUP5 SLOAD PUSH2 0x1F8 JUMP JUMPDEST DUP5 PUSH2 0x230 JUMP JUMPDEST PUSH1 0x20 PUSH1 0x1F DUP3 GT PUSH1 0x1 DUP2 EQ PUSH2 0x2DB JUMPI PUSH0 DUP4 ISZERO PUSH2 0x2C4 JUMPI POP DUP5 DUP3 ADD MLOAD JUMPDEST PUSH0 NOT PUSH1 0x3 DUP6 SWAP1 SHL SHR NOT AND PUSH1 0x1 DUP5 SWAP1 SHL OR DUP5 SSTORE PUSH2 0x274 JUMP JUMPDEST PUSH0 DUP5 DUP2 MSTORE PUSH1 0x20 DUP2 KECCAK256 PUSH1 0x1F NOT DUP6 AND SWAP2 JUMPDEST DUP3 DUP2 LT ISZERO PUSH2 0x30A JUMPI DUP8 DUP6 ADD MLOAD DUP3 SSTORE PUSH1 0x20 SWAP5 DUP6 ADD SWAP5 PUSH1 0x1 SWAP1 SWAP3 ADD SWAP2 ADD PUSH2 0x2EA JUMP JUMPDEST POP DUP5 DUP3 LT ISZERO PUSH2 0x327 JUMPI DUP7 DUP5 ADD MLOAD PUSH0 NOT PUSH1 0x3 DUP8 SWAP1 SHL PUSH1 0xF8 AND SHR NOT AND DUP2 SSTORE JUMPDEST POP POP POP POP PUSH1 0x1 SWAP1 DUP2 SHL ADD SWAP1 SSTORE POP JUMP JUMPDEST PUSH1 0x80 MLOAD PUSH1 0xA0 MLOAD PUSH1 0xC0 MLOAD PUSH2 0xD62 PUSH2 0x3B4 PUSH0 CODECOPY PUSH0 DUP2 DUP2 PUSH2 0x1F7 ADD MSTORE DUP2 DUP2 PUSH2 0x4B1 ADD MSTORE DUP2 DUP2 PUSH2 0x68B ADD MSTORE PUSH2 0x9F4 ADD MSTORE PUSH0 DUP2 DUP2 PUSH2 0x14E ADD MSTORE DUP2 DUP2 PUSH2 0x48E ADD MSTORE DUP2 DUP2 PUSH2 0x5AA ADD MSTORE PUSH2 0x811 ADD MSTORE PUSH0 DUP2 DUP2 PUSH2 0x198 ADD MSTORE DUP2 DUP2 PUSH2 0x34F ADD MSTORE DUP2 DUP2 PUSH2 0x7BE ADD MSTORE DUP2 DUP2 PUSH2 0x9A2 ADD MSTORE DUP2 DUP2 PUSH2 0xA41 ADD MSTORE DUP2 DUP2 PUSH2 0xB08 ADD MSTORE PUSH2 0xB71 ADD MSTORE PUSH2 0xD62 PUSH0 RETURN INVALID PUSH1 0x80 PUSH1 0x40 MSTORE PUSH1 0x4 CALLDATASIZE LT PUSH2 0xBF JUMPI PUSH0 CALLDATALOAD PUSH1 0xE0 SHR DUP1 PUSH4 0x7A3A0E84 GT PUSH2 0x7C JUMPI DUP1 PUSH4 0x96F300D4 GT PUSH2 0x57 JUMPI DUP1 PUSH4 0x96F300D4 EQ PUSH2 0x25C JUMPI DUP1 PUSH4 0xA1211BC0 EQ PUSH2 0x27D JUMPI DUP1 PUSH4 0xED88C68E EQ PUSH2 0x293 JUMPI DUP1 PUSH4 0xF851A440 EQ PUSH2 0x29B JUMPI PUSH0 DUP1 REVERT JUMPDEST DUP1 PUSH4 0x7A3A0E84 EQ PUSH2 0x1E6 JUMPI DUP1 PUSH4 0x90E4A130 EQ PUSH2 0x227 JUMPI DUP1 PUSH4 0x968ED600 EQ PUSH2 0x247 JUMPI PUSH0 DUP1 REVERT JUMPDEST DUP1 PUSH4 0x6FDDE03 EQ PUSH2 0xC3 JUMPI DUP1 PUSH4 0xC611F24 EQ PUSH2 0xED JUMPI DUP1 PUSH4 0x22F3E2D4 EQ PUSH2 0x114 JUMPI DUP1 PUSH4 0x29DCB0CF EQ PUSH2 0x13D JUMPI DUP1 PUSH4 0x38AF3EED EQ PUSH2 0x187 JUMPI DUP1 PUSH4 0x7284E416 EQ PUSH2 0x1D2 JUMPI JUMPDEST PUSH0 DUP1 REVERT JUMPDEST CALLVALUE DUP1 ISZERO PUSH2 0xCE JUMPI PUSH0 DUP1 REVERT JUMPDEST POP PUSH2 0xD7 PUSH2 0x2BA JUMP JUMPDEST PUSH1 0x40 MLOAD PUSH2 0xE4 SWAP2 SWAP1 PUSH2 0xBF1 JUMP JUMPDEST PUSH1 0x40 MLOAD DUP1 SWAP2 SUB SWAP1 RETURN JUMPDEST CALLVALUE DUP1 ISZERO PUSH2 0xF8 JUMPI PUSH0 DUP1 REVERT JUMPDEST POP PUSH2 0x101 PUSH2 0x345 JUMP JUMPDEST PUSH1 0x40 MLOAD PUSH2 0xE4 SWAP8 SWAP7 SWAP6 SWAP5 SWAP4 SWAP3 SWAP2 SWAP1 PUSH2 0xC0A JUMP JUMPDEST CALLVALUE DUP1 ISZERO PUSH2 0x11F JUMPI PUSH0 DUP1 REVERT JUMPDEST POP PUSH1 0x3 SLOAD PUSH2 0x12D SWAP1 PUSH1 0xFF AND DUP2 JUMP JUMPDEST PUSH1 0x40 MLOAD SWAP1 ISZERO ISZERO DUP2 MSTORE PUSH1 0x20 ADD PUSH2 0xE4 JUMP JUMPDEST CALLVALUE DUP1 ISZERO PUSH2 0x148 JUMPI PUSH0 DUP1 REVERT JUMPDEST POP PUSH2 0x170 PUSH32 0x0 DUP2 JUMP JUMPDEST PUSH1 0x40 MLOAD PUSH6 0xFFFFFFFFFFFF SWAP1 SWAP2 AND DUP2 MSTORE PUSH1 0x20 ADD PUSH2 0xE4 JUMP JUMPDEST CALLVALUE DUP1 ISZERO PUSH2 0x192 JUMPI PUSH0 DUP1 REVERT JUMPDEST POP PUSH2 0x1BA PUSH32 0x0 DUP2 JUMP JUMPDEST PUSH1 0x40 MLOAD PUSH1 0x1 PUSH1 0x1 PUSH1 0xA0 SHL SUB SWAP1 SWAP2 AND DUP2 MSTORE PUSH1 0x20 ADD PUSH2 0xE4 JUMP JUMPDEST CALLVALUE DUP1 ISZERO PUSH2 0x1DD JUMPI PUSH0 DUP1 REVERT JUMPDEST POP PUSH2 0xD7 PUSH2 0x4E4 JUMP JUMPDEST CALLVALUE DUP1 ISZERO PUSH2 0x1F1 JUMPI PUSH0 DUP1 REVERT JUMPDEST POP PUSH2 0x219 PUSH32 0x0 DUP2 JUMP JUMPDEST PUSH1 0x40 MLOAD SWAP1 DUP2 MSTORE PUSH1 0x20 ADD PUSH2 0xE4 JUMP JUMPDEST CALLVALUE DUP1 ISZERO PUSH2 0x232 JUMPI PUSH0 DUP1 REVERT JUMPDEST POP CALLER PUSH0 SWAP1 DUP2 MSTORE PUSH1 0x4 PUSH1 0x20 MSTORE PUSH1 0x40 SWAP1 KECCAK256 SLOAD PUSH2 0x219 JUMP JUMPDEST CALLVALUE DUP1 ISZERO PUSH2 0x252 JUMPI PUSH0 DUP1 REVERT JUMPDEST POP PUSH2 0x219 PUSH1 0x2 SLOAD DUP2 JUMP JUMPDEST CALLVALUE DUP1 ISZERO PUSH2 0x267 JUMPI PUSH0 DUP1 REVERT JUMPDEST POP PUSH2 0x270 PUSH2 0x4F1 JUMP JUMPDEST PUSH1 0x40 MLOAD PUSH2 0xE4 SWAP2 SWAP1 PUSH2 0xC70 JUMP JUMPDEST CALLVALUE DUP1 ISZERO PUSH2 0x288 JUMPI PUSH0 DUP1 REVERT JUMPDEST POP PUSH2 0x291 PUSH2 0x551 JUMP JUMPDEST STOP JUMPDEST PUSH2 0x291 PUSH2 0x80F JUMP JUMPDEST CALLVALUE DUP1 ISZERO PUSH2 0x2A6 JUMPI PUSH0 DUP1 REVERT JUMPDEST POP PUSH1 0x6 SLOAD PUSH2 0x1BA SWAP1 PUSH1 0x1 PUSH1 0x1 PUSH1 0xA0 SHL SUB AND DUP2 JUMP JUMPDEST PUSH0 DUP1 SLOAD PUSH2 0x2C6 SWAP1 PUSH2 0xCBB JUMP JUMPDEST DUP1 PUSH1 0x1F ADD PUSH1 0x20 DUP1 SWAP2 DIV MUL PUSH1 0x20 ADD PUSH1 0x40 MLOAD SWAP1 DUP2 ADD PUSH1 0x40 MSTORE DUP1 SWAP3 SWAP2 SWAP1 DUP2 DUP2 MSTORE PUSH1 0x20 ADD DUP3 DUP1 SLOAD PUSH2 0x2F2 SWAP1 PUSH2 0xCBB JUMP JUMPDEST DUP1 ISZERO PUSH2 0x33D JUMPI DUP1 PUSH1 0x1F LT PUSH2 0x314 JUMPI PUSH2 0x100 DUP1 DUP4 SLOAD DIV MUL DUP4 MSTORE SWAP2 PUSH1 0x20 ADD SWAP2 PUSH2 0x33D JUMP JUMPDEST DUP3 ADD SWAP2 SWAP1 PUSH0 MSTORE PUSH1 0x20 PUSH0 KECCAK256 SWAP1 JUMPDEST DUP2 SLOAD DUP2 MSTORE SWAP1 PUSH1 0x1 ADD SWAP1 PUSH1 0x20 ADD DUP1 DUP4 GT PUSH2 0x320 JUMPI DUP3 SWAP1 SUB PUSH1 0x1F AND DUP3 ADD SWAP2 JUMPDEST POP POP POP POP POP DUP2 JUMP JUMPDEST PUSH0 PUSH1 0x60 DUP1 PUSH0 DUP1 PUSH0 DUP1 PUSH32 0x0 SWAP7 POP PUSH0 DUP1 SLOAD PUSH2 0x37C SWAP1 PUSH2 0xCBB JUMP JUMPDEST DUP1 PUSH1 0x1F ADD PUSH1 0x20 DUP1 SWAP2 DIV MUL PUSH1 0x20 ADD PUSH1 0x40 MLOAD SWAP1 DUP2 ADD PUSH1 0x40 MSTORE DUP1 SWAP3 SWAP2 SWAP1 DUP2 DUP2 MSTORE PUSH1 0x20 ADD DUP3 DUP1 SLOAD PUSH2 0x3A8 SWAP1 PUSH2 0xCBB JUMP JUMPDEST DUP1 ISZERO PUSH2 0x3F3 JUMPI DUP1 PUSH1 0x1F LT PUSH2 0x3CA JUMPI PUSH2 0x100 DUP1 DUP4 SLOAD DIV MUL DUP4 MSTORE SWAP2 PUSH1 0x20 ADD SWAP2 PUSH2 0x3F3 JUMP JUMPDEST DUP3 ADD SWAP2 SWAP1 PUSH0 MSTORE PUSH1 0x20 PUSH0 KECCAK256 SWAP1 JUMPDEST DUP2 SLOAD DUP2 MSTORE SWAP1 PUSH1 0x1 ADD SWAP1 PUSH1 0x20 ADD DUP1 DUP4 GT PUSH2 0x3D6 JUMPI DUP3 SWAP1 SUB PUSH1 0x1F AND DUP3 ADD SWAP2 JUMPDEST POP POP POP POP POP SWAP6 POP PUSH1 0x1 DUP1 SLOAD PUSH2 0x407 SWAP1 PUSH2 0xCBB JUMP JUMPDEST DUP1 PUSH1 0x1F ADD PUSH1 0x20 DUP1 SWAP2 DIV MUL PUSH1 0x20 ADD PUSH1 0x40 MLOAD SWAP1 DUP2 ADD PUSH1 0x40 MSTORE DUP1 SWAP3 SWAP2 SWAP1 DUP2 DUP2 MSTORE PUSH1 0x20 ADD DUP3 DUP1 SLOAD PUSH2 0x433 SWAP1 PUSH2 0xCBB JUMP JUMPDEST DUP1 ISZERO PUSH2 0x47E JUMPI DUP1 PUSH1 0x1F LT PUSH2 0x455 JUMPI PUSH2 0x100 DUP1 DUP4 SLOAD DIV MUL DUP4 MSTORE SWAP2 PUSH1 0x20 ADD SWAP2 PUSH2 0x47E JUMP JUMPDEST DUP3 ADD SWAP2 SWAP1 PUSH0 MSTORE PUSH1 0x20 PUSH0 KECCAK256 SWAP1 JUMPDEST DUP2 SLOAD DUP2 MSTORE SWAP1 PUSH1 0x1 ADD SWAP1 PUSH1 0x20 ADD DUP1 DUP4 GT PUSH2 0x461 JUMPI DUP3 SWAP1 SUB PUSH1 0x1F AND DUP3 ADD SWAP2 JUMPDEST POP POP PUSH1 0x2 SLOAD PUSH1 0x3 SLOAD SWAP12 SWAP13 SWAP11 SWAP12 SWAP5 SWAP11 PUSH32 0x0 SWAP11 POP PUSH32 0x0 SWAP10 POP SWAP1 SWAP8 POP PUSH1 0xFF SWAP1 SWAP5 AND SWAP6 POP SWAP3 SWAP4 POP POP POP POP JUMP JUMPDEST PUSH1 0x1 DUP1 SLOAD PUSH2 0x2C6 SWAP1 PUSH2 0xCBB JUMP JUMPDEST PUSH1 0x60 PUSH1 0x5 DUP1 SLOAD DUP1 PUSH1 0x20 MUL PUSH1 0x20 ADD PUSH1 0x40 MLOAD SWAP1 DUP2 ADD PUSH1 0x40 MSTORE DUP1 SWAP3 SWAP2 SWAP1 DUP2 DUP2 MSTORE PUSH1 0x20 ADD DUP3 DUP1 SLOAD DUP1 ISZERO PUSH2 0x547 JUMPI PUSH1 0x20 MUL DUP3 ADD SWAP2 SWAP1 PUSH0 MSTORE PUSH1 0x20 PUSH0 KECCAK256 SWAP1 JUMPDEST DUP2 SLOAD PUSH1 0x1 PUSH1 0x1 PUSH1 0xA0 SHL SUB AND DUP2 MSTORE PUSH1 0x1 SWAP1 SWAP2 ADD SWAP1 PUSH1 0x20 ADD DUP1 DUP4 GT PUSH2 0x529 JUMPI JUMPDEST POP POP POP POP POP SWAP1 POP SWAP1 JUMP JUMPDEST PUSH1 0x3 SLOAD PUSH1 0xFF AND PUSH2 0x5A8 JUMPI PUSH1 0x40 MLOAD PUSH3 0x461BCD PUSH1 0xE5 SHL DUP2 MSTORE PUSH1 0x20 PUSH1 0x4 DUP3 ADD MSTORE PUSH1 0x1B PUSH1 0x24 DUP3 ADD MSTORE PUSH32 0x5468652043616D706169676E206973206E6F7420616374697665210000000000 PUSH1 0x44 DUP3 ADD MSTORE PUSH1 0x64 ADD JUMPDEST PUSH1 0x40 MLOAD DUP1 SWAP2 SUB SWAP1 REVERT JUMPDEST PUSH32 0x0 PUSH6 0xFFFFFFFFFFFF AND TIMESTAMP GT PUSH2 0x62F JUMPI PUSH1 0x40 MLOAD PUSH3 0x461BCD PUSH1 0xE5 SHL DUP2 MSTORE PUSH1 0x20 PUSH1 0x4 DUP3 ADD MSTORE PUSH1 0x27 PUSH1 0x24 DUP3 ADD MSTORE PUSH32 0x5468652043616D706169676E277320646561646C696E6520686173206E6F7420 PUSH1 0x44 DUP3 ADD MSTORE PUSH7 0x70617373656421 PUSH1 0xC8 SHL PUSH1 0x64 DUP3 ADD MSTORE PUSH1 0x84 ADD PUSH2 0x59F JUMP JUMPDEST PUSH1 0x6 SLOAD PUSH1 0x1 PUSH1 0x1 PUSH1 0xA0 SHL SUB AND CALLER EQ PUSH2 0x689 JUMPI PUSH1 0x40 MLOAD PUSH3 0x461BCD PUSH1 0xE5 SHL DUP2 MSTORE PUSH1 0x20 PUSH1 0x4 DUP3 ADD MSTORE PUSH1 0x1B PUSH1 0x24 DUP3 ADD MSTORE PUSH32 0x416363657373207265737472696374656420746F2061646D696E210000000000 PUSH1 0x44 DUP3 ADD MSTORE PUSH1 0x64 ADD PUSH2 0x59F JUMP JUMPDEST PUSH32 0x0 PUSH1 0x2 SLOAD LT PUSH2 0x6BC JUMPI PUSH2 0x6BA PUSH2 0xA26 JUMP JUMPDEST JUMP JUMPDEST PUSH1 0x3 DUP1 SLOAD PUSH1 0xFF NOT AND SWAP1 SSTORE PUSH1 0x5 SLOAD PUSH0 JUMPDEST DUP2 DUP2 LT ISZERO PUSH2 0x7A1 JUMPI PUSH0 PUSH1 0x5 DUP3 DUP2 SLOAD DUP2 LT PUSH2 0x6E7 JUMPI PUSH2 0x6E7 PUSH2 0xCF3 JUMP JUMPDEST PUSH0 SWAP2 DUP3 MSTORE PUSH1 0x20 DUP1 DUP4 KECCAK256 SWAP1 SWAP2 ADD SLOAD PUSH1 0x1 PUSH1 0x1 PUSH1 0xA0 SHL SUB AND DUP1 DUP4 MSTORE PUSH1 0x4 SWAP1 SWAP2 MSTORE PUSH1 0x40 SWAP1 SWAP2 KECCAK256 SLOAD SWAP1 SWAP2 POP DUP1 ISZERO PUSH2 0x797 JUMPI PUSH1 0x1 PUSH1 0x1 PUSH1 0xA0 SHL SUB DUP3 AND PUSH0 DUP2 DUP2 MSTORE PUSH1 0x4 PUSH1 0x20 MSTORE PUSH1 0x40 DUP1 DUP3 KECCAK256 DUP3 SWAP1 SSTORE MLOAD DUP4 ISZERO PUSH2 0x8FC MUL SWAP2 DUP5 SWAP2 SWAP1 DUP2 DUP2 DUP2 DUP6 DUP9 DUP9 CALL SWAP4 POP POP POP POP ISZERO DUP1 ISZERO PUSH2 0x755 JUMPI RETURNDATASIZE PUSH0 DUP1 RETURNDATACOPY RETURNDATASIZE PUSH0 REVERT JUMPDEST POP PUSH1 0x40 MLOAD DUP2 DUP2 MSTORE PUSH1 0x1 PUSH1 0x1 PUSH1 0xA0 SHL SUB DUP4 AND SWAP1 ADDRESS SWAP1 PUSH32 0x97DED04B4DD3DAB6C02011A161D44B56A32FC8DAC48EE2A011BC2BEED61B16E0 SWAP1 PUSH1 0x20 ADD PUSH1 0x40 MLOAD DUP1 SWAP2 SUB SWAP1 LOG3 JUMPDEST POP POP PUSH1 0x1 ADD PUSH2 0x6CB JUMP JUMPDEST POP PUSH1 0x2 SLOAD PUSH1 0x40 DUP1 MLOAD PUSH0 DUP2 MSTORE PUSH1 0x20 DUP2 ADD SWAP3 SWAP1 SWAP3 MSTORE PUSH1 0x1 PUSH1 0x1 PUSH1 0xA0 SHL SUB PUSH32 0x0 AND SWAP2 ADDRESS SWAP2 PUSH32 0xF8ED233C0A8B0E10069233FCE1475C7E44B21D443210C576412D7F1191D22457 SWAP2 ADD PUSH1 0x40 MLOAD DUP1 SWAP2 SUB SWAP1 LOG3 POP JUMP JUMPDEST PUSH32 0x0 PUSH6 0xFFFFFFFFFFFF AND TIMESTAMP GT ISZERO PUSH2 0x89B JUMPI PUSH1 0x40 MLOAD PUSH3 0x461BCD PUSH1 0xE5 SHL DUP2 MSTORE PUSH1 0x20 PUSH1 0x4 DUP3 ADD MSTORE PUSH1 0x2B PUSH1 0x24 DUP3 ADD MSTORE PUSH32 0x5468652043616D706169676E277320646561646C696E652068617320616C7265 PUSH1 0x44 DUP3 ADD MSTORE PUSH11 0x6164792070617373656421 PUSH1 0xA8 SHL PUSH1 0x64 DUP3 ADD MSTORE PUSH1 0x84 ADD PUSH2 0x59F JUMP JUMPDEST PUSH1 0x3 SLOAD PUSH1 0xFF AND PUSH2 0x8ED JUMPI PUSH1 0x40 MLOAD PUSH3 0x461BCD PUSH1 0xE5 SHL DUP2 MSTORE PUSH1 0x20 PUSH1 0x4 DUP3 ADD MSTORE PUSH1 0x1B PUSH1 0x24 DUP3 ADD MSTORE PUSH32 0x5468652043616D706169676E206973206E6F7420616374697665210000000000 PUSH1 0x44 DUP3 ADD MSTORE PUSH1 0x64 ADD PUSH2 0x59F JUMP JUMPDEST CALLER PUSH0 DUP2 DUP2 MSTORE PUSH1 0x4 PUSH1 0x20 MSTORE PUSH1 0x40 DUP2 KECCAK256 SLOAD CALLVALUE SWAP2 SUB PUSH2 0x94E JUMPI PUSH1 0x5 DUP1 SLOAD PUSH1 0x1 DUP2 ADD DUP3 SSTORE PUSH0 SWAP2 SWAP1 SWAP2 MSTORE PUSH32 0x36B6384B5ECA791C62761152D0C79BB0604C104A5FB6F4EB0703F3154BB3DB0 ADD DUP1 SLOAD PUSH1 0x1 PUSH1 0x1 PUSH1 0xA0 SHL SUB NOT AND PUSH1 0x1 PUSH1 0x1 PUSH1 0xA0 SHL SUB DUP5 AND OR SWAP1 SSTORE JUMPDEST PUSH1 0x1 PUSH1 0x1 PUSH1 0xA0 SHL SUB DUP3 AND PUSH0 SWAP1 DUP2 MSTORE PUSH1 0x4 PUSH1 0x20 MSTORE PUSH1 0x40 DUP2 KECCAK256 DUP1 SLOAD DUP4 SWAP3 SWAP1 PUSH2 0x975 SWAP1 DUP5 SWAP1 PUSH2 0xD07 JUMP JUMPDEST SWAP1 SWAP2 SSTORE POP POP PUSH1 0x2 SLOAD PUSH0 SWAP1 PUSH2 0x98A SWAP1 DUP4 SWAP1 PUSH2 0xD07 JUMP JUMPDEST PUSH1 0x2 DUP2 SWAP1 SSTORE PUSH1 0x40 MLOAD DUP4 DUP2 MSTORE SWAP1 SWAP2 POP PUSH1 0x1 PUSH1 0x1 PUSH1 0xA0 SHL SUB PUSH32 0x0 AND SWAP1 ADDRESS SWAP1 PUSH32 0x70C6BC6CF53707FB5561FEEF795D557F7E46F57BD4F1A13CE36E9FFDF58D38BB SWAP1 PUSH1 0x20 ADD PUSH1 0x40 MLOAD DUP1 SWAP2 SUB SWAP1 LOG3 PUSH32 0x0 DUP2 LT PUSH2 0xA21 JUMPI PUSH2 0xA21 PUSH2 0xA26 JUMP JUMPDEST POP POP POP JUMP JUMPDEST PUSH1 0x2 DUP1 SLOAD PUSH0 SWAP2 DUP3 SWAP1 SSTORE PUSH1 0x3 DUP1 SLOAD PUSH1 0xFF NOT AND SWAP1 SSTORE PUSH1 0x40 MLOAD SWAP1 SWAP2 SWAP1 PUSH32 0x0 PUSH1 0x1 PUSH1 0x1 PUSH1 0xA0 SHL SUB AND SWAP1 DUP4 SWAP1 DUP4 DUP2 DUP2 DUP2 DUP6 DUP8 GAS CALL SWAP3 POP POP POP RETURNDATASIZE DUP1 PUSH0 DUP2 EQ PUSH2 0xAA2 JUMPI PUSH1 0x40 MLOAD SWAP2 POP PUSH1 0x1F NOT PUSH1 0x3F RETURNDATASIZE ADD AND DUP3 ADD PUSH1 0x40 MSTORE RETURNDATASIZE DUP3 MSTORE RETURNDATASIZE PUSH0 PUSH1 0x20 DUP5 ADD RETURNDATACOPY PUSH2 0xAA7 JUMP JUMPDEST PUSH1 0x60 SWAP2 POP JUMPDEST POP POP SWAP1 POP DUP1 PUSH2 0xAF8 JUMPI PUSH1 0x40 MLOAD PUSH3 0x461BCD PUSH1 0xE5 SHL DUP2 MSTORE PUSH1 0x20 PUSH1 0x4 DUP3 ADD MSTORE PUSH1 0x18 PUSH1 0x24 DUP3 ADD MSTORE PUSH32 0x556E61626C6520746F2072656C656173652066756E6473210000000000000000 PUSH1 0x44 DUP3 ADD MSTORE PUSH1 0x64 ADD PUSH2 0x59F JUMP JUMPDEST PUSH1 0x40 MLOAD DUP3 DUP2 MSTORE PUSH1 0x1 PUSH1 0x1 PUSH1 0xA0 SHL SUB PUSH32 0x0 AND SWAP1 ADDRESS SWAP1 PUSH32 0xA92FF919B850E4909AB2261D907EF955F11BC1716733A6CBECE38D163A69AF8A SWAP1 PUSH1 0x20 ADD PUSH1 0x40 MLOAD DUP1 SWAP2 SUB SWAP1 LOG3 PUSH1 0x40 DUP1 MLOAD PUSH1 0x1 DUP2 MSTORE PUSH1 0x20 DUP2 ADD DUP5 SWAP1 MSTORE PUSH1 0x1 PUSH1 0x1 PUSH1 0xA0 SHL SUB PUSH32 0x0 AND SWAP2 ADDRESS SWAP2 PUSH32 0xF8ED233C0A8B0E10069233FCE1475C7E44B21D443210C576412D7F1191D22457 SWAP2 ADD PUSH1 0x40 MLOAD DUP1 SWAP2 SUB SWAP1 LOG3 POP POP JUMP JUMPDEST PUSH0 DUP2 MLOAD DUP1 DUP5 MSTORE DUP1 PUSH1 0x20 DUP5 ADD PUSH1 0x20 DUP7 ADD MCOPY PUSH0 PUSH1 0x20 DUP3 DUP7 ADD ADD MSTORE PUSH1 0x20 PUSH1 0x1F NOT PUSH1 0x1F DUP4 ADD AND DUP6 ADD ADD SWAP2 POP POP SWAP3 SWAP2 POP POP JUMP JUMPDEST PUSH1 0x20 DUP2 MSTORE PUSH0 PUSH2 0xC03 PUSH1 0x20 DUP4 ADD DUP5 PUSH2 0xBC3 JUMP JUMPDEST SWAP4 SWAP3 POP POP POP JUMP JUMPDEST PUSH1 0x1 PUSH1 0x1 PUSH1 0xA0 SHL SUB DUP9 AND DUP2 MSTORE PUSH1 0xE0 PUSH1 0x20 DUP3 ADD DUP2 SWAP1 MSTORE PUSH0 SWAP1 PUSH2 0xC2D SWAP1 DUP4 ADD DUP10 PUSH2 0xBC3 JUMP JUMPDEST DUP3 DUP2 SUB PUSH1 0x40 DUP5 ADD MSTORE PUSH2 0xC3F DUP2 DUP10 PUSH2 0xBC3 JUMP JUMPDEST SWAP2 POP POP PUSH6 0xFFFFFFFFFFFF DUP7 AND PUSH1 0x60 DUP4 ADD MSTORE DUP5 PUSH1 0x80 DUP4 ADD MSTORE DUP4 PUSH1 0xA0 DUP4 ADD MSTORE DUP3 ISZERO ISZERO PUSH1 0xC0 DUP4 ADD MSTORE SWAP9 SWAP8 POP POP POP POP POP POP POP POP JUMP JUMPDEST PUSH1 0x20 DUP1 DUP3 MSTORE DUP3 MLOAD DUP3 DUP3 ADD DUP2 SWAP1 MSTORE PUSH0 SWAP2 DUP5 ADD SWAP1 PUSH1 0x40 DUP5 ADD SWAP1 DUP4 JUMPDEST DUP2 DUP2 LT ISZERO PUSH2 0xCB0 JUMPI DUP4 MLOAD PUSH1 0x1 PUSH1 0x1 PUSH1 0xA0 SHL SUB AND DUP4 MSTORE PUSH1 0x20 SWAP4 DUP5 ADD SWAP4 SWAP1 SWAP3 ADD SWAP2 PUSH1 0x1 ADD PUSH2 0xC89 JUMP JUMPDEST POP SWAP1 SWAP6 SWAP5 POP POP POP POP POP JUMP JUMPDEST PUSH1 0x1 DUP2 DUP2 SHR SWAP1 DUP3 AND DUP1 PUSH2 0xCCF JUMPI PUSH1 0x7F DUP3 AND SWAP2 POP JUMPDEST PUSH1 0x20 DUP3 LT DUP2 SUB PUSH2 0xCED JUMPI PUSH4 0x4E487B71 PUSH1 0xE0 SHL PUSH0 MSTORE PUSH1 0x22 PUSH1 0x4 MSTORE PUSH1 0x24 PUSH0 REVERT JUMPDEST POP SWAP2 SWAP1 POP JUMP JUMPDEST PUSH4 0x4E487B71 PUSH1 0xE0 SHL PUSH0 MSTORE PUSH1 0x32 PUSH1 0x4 MSTORE PUSH1 0x24 PUSH0 REVERT JUMPDEST DUP1 DUP3 ADD DUP1 DUP3 GT ISZERO PUSH2 0xD26 JUMPI PUSH4 0x4E487B71 PUSH1 0xE0 SHL PUSH0 MSTORE PUSH1 0x11 PUSH1 0x4 MSTORE PUSH1 0x24 PUSH0 REVERT JUMPDEST SWAP3 SWAP2 POP POP JUMP INVALID LOG2 PUSH5 0x6970667358 0x22 SLT KECCAK256 PUSH13 0x423F08690A5F5BE72FD3CC9511 PUSH17 0x232E24047A4630DB5A74E146AB604FA2E9 PUSH5 0x736F6C6343 STOP ADDMOD BYTE STOP CALLER "
				},
				"gasEstimates": {
					"creation": {
						"codeDepositCost": "685200",
						"executionCost": "infinite",
						"totalCost": "infinite"
					},
					"external": {
						"admin()": "2424",
						"beneficiary()": "infinite",
						"deadline()": "infinite",
						"description()": "infinite",
						"donate()": "infinite",
						"finalizeCampaign()": "infinite",
						"fundingGoal()": "infinite",
						"getCampaignDetails()": "infinite",
						"getDonors()": "infinite",
						"getMyDonations()": "2403",
						"isActive()": "2354",
						"name()": "infinite",
						"totalFunds()": "2361"
					},
					"internal": {
						"releaseFunds()": "infinite"
					}
				},
				"methodIdentifiers": {
					"admin()": "f851a440",
					"beneficiary()": "38af3eed",
					"deadline()": "29dcb0cf",
					"description()": "7284e416",
					"donate()": "ed88c68e",
					"finalizeCampaign()": "a1211bc0",
					"fundingGoal()": "7a3a0e84",
					"getCampaignDetails()": "0c611f24",
					"getDonors()": "96f300d4",
					"getMyDonations()": "90e4a130",
					"isActive()": "22f3e2d4",
					"name()": "06fdde03",
					"totalFunds()": "968ed600"
				}
			},
			"storageLayout": {
				"storage": [
					{
						"astId": 6,
						"contract": "backend/contracts/Campaign.sol:Campaign",
						"label": "name",
						"offset": 0,
						"slot": "0",
						"type": "t_string_storage"
					},
					{
						"astId": 8,
						"contract": "backend/contracts/Campaign.sol:Campaign",
						"label": "description",
						"offset": 0,
						"slot": "1",
						"type": "t_string_storage"
					},
					{
						"astId": 14,
						"contract": "backend/contracts/Campaign.sol:Campaign",
						"label": "totalFunds",
						"offset": 0,
						"slot": "2",
						"type": "t_uint256"
					},
					{
						"astId": 16,
						"contract": "backend/contracts/Campaign.sol:Campaign",
						"label": "isActive",
						"offset": 0,
						"slot": "3",
						"type": "t_bool"
					},
					{
						"astId": 20,
						"contract": "backend/contracts/Campaign.sol:Campaign",
						"label": "donations",
						"offset": 0,
						"slot": "4",
						"type": "t_mapping(t_address,t_uint256)"
					},
					{
						"astId": 23,
						"contract": "backend/contracts/Campaign.sol:Campaign",
						"label": "donors",
						"offset": 0,
						"slot": "5",
						"type": "t_array(t_address)dyn_storage"
					},
					{
						"astId": 25,
						"contract": "backend/contracts/Campaign.sol:Campaign",
						"label": "admin",
						"offset": 0,
						"slot": "6",
						"type": "t_address"
					}
				],
				"types": {
					"t_address": {
						"encoding": "inplace",
						"label": "address",
						"numberOfBytes": "20"
					},
					"t_array(t_address)dyn_storage": {
						"base": "t_address",
						"encoding": "dynamic_array",
						"label": "address[]",
						"numberOfBytes": "32"
					},
					"t_bool": {
						"encoding": "inplace",
						"label": "bool",
						"numberOfBytes": "1"
					},
					"t_mapping(t_address,t_uint256)": {
						"encoding": "mapping",
						"key": "t_address",
						"label": "mapping(address => uint256)",
						"numberOfBytes": "32",
						"value": "t_uint256"
					},
					"t_string_storage": {
						"encoding": "bytes",
						"label": "string",
						"numberOfBytes": "32"
					},
					"t_uint256": {
						"encoding": "inplace",
						"label": "uint256",
						"numberOfBytes": "32"
					}
				}
			},
			"userdoc": {
				"kind": "user",
				"methods": {},
				"version": 1
			}
		}
	}
}