{
	"backend/contracts/Campaign.sol": {
		"Campaign": {
			"abi": [
				{
					"inputs": [
						{
							"internalType": "address",
							"name": "_beneficiary",
							"type": "address"
						},
						{
							"internalType": "string",
							"name": "_name",
							"type": "string"
						},
						{
							"internalType": "string",
							"name": "_description",
							"type": "string"
						},
						{
							"internalType": "uint32",
							"name": "_fundingGoal",
							"type": "uint32"
						},
						{
							"internalType": "uint256",
							"name": "_deadline",
							"type": "uint256"
						}
					],
					"stateMutability": "nonpayable",
					"type": "constructor"
				},
				{
					"anonymous": false,
					"inputs": [
						{
							"indexed": true,
							"internalType": "address",
							"name": "campaignAddress",
							"type": "address"
						},
						{
							"indexed": false,
							"internalType": "bool",
							"name": "success",
							"type": "bool"
						},
						{
							"indexed": false,
							"internalType": "uint32",
							"name": "totalFunds",
							"type": "uint32"
						}
					],
					"name": "CampaignFinalized",
					"type": "event"
				},
				{
					"anonymous": false,
					"inputs": [
						{
							"indexed": true,
							"internalType": "address",
							"name": "donor",
							"type": "address"
						},
						{
							"indexed": false,
							"internalType": "uint32",
							"name": "amount",
							"type": "uint32"
						}
					],
					"name": "DonationMade",
					"type": "event"
				},
				{
					"anonymous": false,
					"inputs": [
						{
							"indexed": true,
							"internalType": "address",
							"name": "beneficiary",
							"type": "address"
						},
						{
							"indexed": false,
							"internalType": "uint32",
							"name": "amount",
							"type": "uint32"
						}
					],
					"name": "FundsWithdrawn",
					"type": "event"
				},
				{
					"anonymous": false,
					"inputs": [
						{
							"indexed": true,
							"internalType": "address",
							"name": "donor",
							"type": "address"
						},
						{
							"indexed": false,
							"internalType": "uint32",
							"name": "amount",
							"type": "uint32"
						}
					],
					"name": "RefundIssued",
					"type": "event"
				},
				{
					"inputs": [],
					"name": "beneficiary",
					"outputs": [
						{
							"internalType": "address",
							"name": "",
							"type": "address"
						}
					],
					"stateMutability": "view",
					"type": "function"
				},
				{
					"inputs": [],
					"name": "deadline",
					"outputs": [
						{
							"internalType": "uint256",
							"name": "",
							"type": "uint256"
						}
					],
					"stateMutability": "view",
					"type": "function"
				},
				{
					"inputs": [],
					"name": "description",
					"outputs": [
						{
							"internalType": "string",
							"name": "",
							"type": "string"
						}
					],
					"stateMutability": "view",
					"type": "function"
				},
				{
					"inputs": [],
					"name": "donate",
					"outputs": [],
					"stateMutability": "payable",
					"type": "function"
				},
				{
					"inputs": [
						{
							"internalType": "address",
							"name": "",
							"type": "address"
						}
					],
					"name": "donations",
					"outputs": [
						{
							"internalType": "uint32",
							"name": "",
							"type": "uint32"
						}
					],
					"stateMutability": "view",
					"type": "function"
				},
				{
					"inputs": [
						{
							"internalType": "uint256",
							"name": "",
							"type": "uint256"
						}
					],
					"name": "donors",
					"outputs": [
						{
							"internalType": "address",
							"name": "",
							"type": "address"
						}
					],
					"stateMutability": "view",
					"type": "function"
				},
				{
					"inputs": [],
					"name": "finalizeCampaign",
					"outputs": [],
					"stateMutability": "nonpayable",
					"type": "function"
				},
				{
					"inputs": [],
					"name": "fundingGoal",
					"outputs": [
						{
							"internalType": "uint32",
							"name": "",
							"type": "uint32"
						}
					],
					"stateMutability": "view",
					"type": "function"
				},
				{
					"inputs": [],
					"name": "isActive",
					"outputs": [
						{
							"internalType": "bool",
							"name": "",
							"type": "bool"
						}
					],
					"stateMutability": "view",
					"type": "function"
				},
				{
					"inputs": [],
					"name": "name",
					"outputs": [
						{
							"internalType": "string",
							"name": "",
							"type": "string"
						}
					],
					"stateMutability": "view",
					"type": "function"
				},
				{
					"inputs": [],
					"name": "totalFunds",
					"outputs": [
						{
							"internalType": "uint32",
							"name": "",
							"type": "uint32"
						}
					],
					"stateMutability": "view",
					"type": "function"
				}
			],
			"devdoc": {
				"details": "The smart contract for the created Campaign. It handles everything related to a specific Campaign that has been deployed",
				"kind": "dev",
				"methods": {
					"constructor": {
						"details": "Creates the Campaign smart contract",
						"params": {
							"_beneficiary": "The wallet address of the beneficiary that is creating this Campaign",
							"_deadline": "Timestamp of when the Campaign should be fully funded before it becomes inactive",
							"_description": "The description of this Campaign",
							"_fundingGoal": "Funding Goal for the Campaign in cryptocurrency (SepoliaETH)"
						}
					},
					"donate()": {
						"details": "Allows donors to donate to the Campaign"
					},
					"finalizeCampaign()": {
						"details": "Called when the Campaign's deadline has passed, and also handles the refund to all donors if the fundingGoal is not met by thenLikely needs to be called from the frontend"
					}
				},
				"title": "Campaign",
				"version": 1
			},
			"evm": {
				"assembly": "    /* \"backend/contracts/Campaign.sol\":227:5893  contract Campaign {... */\n  mstore(0x40, 0xe0)\n    /* \"backend/contracts/Campaign.sol\":1226:1625  constructor(... */\n  callvalue\n  dup1\n  iszero\n  tag_1\n  jumpi\n  0x00\n  dup1\n  revert\ntag_1:\n  pop\n  mload(0x40)\n  sub(codesize, bytecodeSize)\n  dup1\n  bytecodeSize\n  dup4\n  codecopy\n  dup2\n  dup2\n  add\n  0x40\n  mstore\n  dup2\n  add\n  swap1\n  tag_2\n  swap2\n  swap1\n  tag_3\n  jump\t// in\ntag_2:\n    /* \"backend/contracts/Campaign.sol\":1416:1428  _beneficiary */\n  dup5\n    /* \"backend/contracts/Campaign.sol\":1402:1428  beneficiary = _beneficiary */\n  0xffffffffffffffffffffffffffffffffffffffff\n  and\n  0x80\n  dup2\n  0xffffffffffffffffffffffffffffffffffffffff\n  and\n  0x60\n  shl\n  dup2\n  mstore\n  pop\n  pop\n    /* \"backend/contracts/Campaign.sol\":1445:1450  _name */\n  dup4\n    /* \"backend/contracts/Campaign.sol\":1438:1442  name */\n  0x00\n    /* \"backend/contracts/Campaign.sol\":1438:1450  name = _name */\n  swap1\n  dup1\n  mload\n  swap1\n  0x20\n  add\n  swap1\n  tag_6\n  swap3\n  swap2\n  swap1\n  tag_7\n  jump\t// in\ntag_6:\n  pop\n    /* \"backend/contracts/Campaign.sol\":1474:1486  _description */\n  dup3\n    /* \"backend/contracts/Campaign.sol\":1460:1471  description */\n  0x01\n    /* \"backend/contracts/Campaign.sol\":1460:1486  description = _description */\n  swap1\n  dup1\n  mload\n  swap1\n  0x20\n  add\n  swap1\n  tag_8\n  swap3\n  swap2\n  swap1\n  tag_7\n  jump\t// in\ntag_8:\n  pop\n    /* \"backend/contracts/Campaign.sol\":1510:1522  _fundingGoal */\n  dup2\n    /* \"backend/contracts/Campaign.sol\":1496:1522  fundingGoal = _fundingGoal */\n  0xffffffff\n  and\n  0xc0\n  dup2\n  0xffffffff\n  and\n  0xe0\n  shl\n  dup2\n  mstore\n  pop\n  pop\n    /* \"backend/contracts/Campaign.sol\":1543:1552  _deadline */\n  dup1\n    /* \"backend/contracts/Campaign.sol\":1532:1552  deadline = _deadline */\n  0xa0\n  dup2\n  dup2\n  mstore\n  pop\n  pop\n    /* \"backend/contracts/Campaign.sol\":1573:1577  true */\n  0x01\n    /* \"backend/contracts/Campaign.sol\":1562:1570  isActive */\n  0x02\n  0x04\n    /* \"backend/contracts/Campaign.sol\":1562:1577  isActive = true */\n  0x0100\n  exp\n  dup2\n  sload\n  dup2\n  0xff\n  mul\n  not\n  and\n  swap1\n  dup4\n  iszero\n  iszero\n  mul\n  or\n  swap1\n  sstore\n  pop\n    /* \"backend/contracts/Campaign.sol\":1226:1625  constructor(... */\n  pop\n  pop\n  pop\n  pop\n  pop\n    /* \"backend/contracts/Campaign.sol\":227:5893  contract Campaign {... */\n  jump(tag_9)\ntag_7:\n  dup3\n  dup1\n  sload\n  tag_10\n  swap1\n  tag_11\n  jump\t// in\ntag_10:\n  swap1\n  0x00\n  mstore\n  keccak256(0x00, 0x20)\n  swap1\n  0x1f\n  add\n  0x20\n  swap1\n  div\n  dup2\n  add\n  swap3\n  dup3\n  tag_13\n  jumpi\n  0x00\n  dup6\n  sstore\n  jump(tag_12)\ntag_13:\n  dup3\n  0x1f\n  lt\n  tag_14\n  jumpi\n  dup1\n  mload\n  not(0xff)\n  and\n  dup4\n  dup1\n  add\n  or\n  dup6\n  sstore\n  jump(tag_12)\ntag_14:\n  dup3\n  dup1\n  add\n  0x01\n  add\n  dup6\n  sstore\n  dup3\n  iszero\n  tag_12\n  jumpi\n  swap2\n  dup3\n  add\ntag_15:\n  dup3\n  dup2\n  gt\n  iszero\n  tag_16\n  jumpi\n  dup3\n  mload\n  dup3\n  sstore\n  swap2\n  0x20\n  add\n  swap2\n  swap1\n  0x01\n  add\n  swap1\n  jump(tag_15)\ntag_16:\ntag_12:\n  pop\n  swap1\n  pop\n  tag_17\n  swap2\n  swap1\n  tag_18\n  jump\t// in\ntag_17:\n  pop\n  swap1\n  jump\t// out\ntag_18:\ntag_19:\n  dup1\n  dup3\n  gt\n  iszero\n  tag_20\n  jumpi\n  0x00\n  dup2\n  0x00\n  swap1\n  sstore\n  pop\n  0x01\n  add\n  jump(tag_19)\ntag_20:\n  pop\n  swap1\n  jump\t// out\n    /* \"#utility.yul\":7:428   */\ntag_22:\n    /* \"#utility.yul\":96:101   */\n  0x00\n    /* \"#utility.yul\":121:187   */\n  tag_24\n    /* \"#utility.yul\":137:186   */\n  tag_25\n    /* \"#utility.yul\":179:185   */\n  dup5\n    /* \"#utility.yul\":137:186   */\n  tag_26\n  jump\t// in\ntag_25:\n    /* \"#utility.yul\":121:187   */\n  tag_27\n  jump\t// in\ntag_24:\n    /* \"#utility.yul\":112:187   */\n  swap1\n  pop\n    /* \"#utility.yul\":210:216   */\n  dup3\n    /* \"#utility.yul\":203:208   */\n  dup2\n    /* \"#utility.yul\":196:217   */\n  mstore\n    /* \"#utility.yul\":248:252   */\n  0x20\n    /* \"#utility.yul\":241:246   */\n  dup2\n    /* \"#utility.yul\":237:253   */\n  add\n    /* \"#utility.yul\":286:289   */\n  dup5\n    /* \"#utility.yul\":277:283   */\n  dup5\n    /* \"#utility.yul\":272:275   */\n  dup5\n    /* \"#utility.yul\":268:284   */\n  add\n    /* \"#utility.yul\":265:290   */\n  gt\n    /* \"#utility.yul\":262:374   */\n  iszero\n  tag_28\n  jumpi\n    /* \"#utility.yul\":293:372   */\n  tag_29\n  tag_30\n  jump\t// in\ntag_29:\n    /* \"#utility.yul\":262:374   */\ntag_28:\n    /* \"#utility.yul\":383:422   */\n  tag_31\n    /* \"#utility.yul\":415:421   */\n  dup5\n    /* \"#utility.yul\":410:413   */\n  dup3\n    /* \"#utility.yul\":405:408   */\n  dup6\n    /* \"#utility.yul\":383:422   */\n  tag_32\n  jump\t// in\ntag_31:\n    /* \"#utility.yul\":102:428   */\n  pop\n    /* \"#utility.yul\":7:428   */\n  swap4\n  swap3\n  pop\n  pop\n  pop\n  jump\t// out\n    /* \"#utility.yul\":434:577   */\ntag_33:\n    /* \"#utility.yul\":491:496   */\n  0x00\n    /* \"#utility.yul\":522:528   */\n  dup2\n    /* \"#utility.yul\":516:529   */\n  mload\n    /* \"#utility.yul\":507:529   */\n  swap1\n  pop\n    /* \"#utility.yul\":538:571   */\n  tag_35\n    /* \"#utility.yul\":565:570   */\n  dup2\n    /* \"#utility.yul\":538:571   */\n  tag_36\n  jump\t// in\ntag_35:\n    /* \"#utility.yul\":434:577   */\n  swap3\n  swap2\n  pop\n  pop\n  jump\t// out\n    /* \"#utility.yul\":597:952   */\ntag_37:\n    /* \"#utility.yul\":664:669   */\n  0x00\n    /* \"#utility.yul\":713:716   */\n  dup3\n    /* \"#utility.yul\":706:710   */\n  0x1f\n    /* \"#utility.yul\":698:704   */\n  dup4\n    /* \"#utility.yul\":694:711   */\n  add\n    /* \"#utility.yul\":690:717   */\n  slt\n    /* \"#utility.yul\":680:802   */\n  tag_39\n  jumpi\n    /* \"#utility.yul\":721:800   */\n  tag_40\n  tag_41\n  jump\t// in\ntag_40:\n    /* \"#utility.yul\":680:802   */\ntag_39:\n    /* \"#utility.yul\":831:837   */\n  dup2\n    /* \"#utility.yul\":825:838   */\n  mload\n    /* \"#utility.yul\":856:946   */\n  tag_42\n    /* \"#utility.yul\":942:945   */\n  dup5\n    /* \"#utility.yul\":934:940   */\n  dup3\n    /* \"#utility.yul\":927:931   */\n  0x20\n    /* \"#utility.yul\":919:925   */\n  dup7\n    /* \"#utility.yul\":915:932   */\n  add\n    /* \"#utility.yul\":856:946   */\n  tag_22\n  jump\t// in\ntag_42:\n    /* \"#utility.yul\":847:946   */\n  swap2\n  pop\n    /* \"#utility.yul\":670:952   */\n  pop\n    /* \"#utility.yul\":597:952   */\n  swap3\n  swap2\n  pop\n  pop\n  jump\t// out\n    /* \"#utility.yul\":958:1101   */\ntag_43:\n    /* \"#utility.yul\":1015:1020   */\n  0x00\n    /* \"#utility.yul\":1046:1052   */\n  dup2\n    /* \"#utility.yul\":1040:1053   */\n  mload\n    /* \"#utility.yul\":1031:1053   */\n  swap1\n  pop\n    /* \"#utility.yul\":1062:1095   */\n  tag_45\n    /* \"#utility.yul\":1089:1094   */\n  dup2\n    /* \"#utility.yul\":1062:1095   */\n  tag_46\n  jump\t// in\ntag_45:\n    /* \"#utility.yul\":958:1101   */\n  swap3\n  swap2\n  pop\n  pop\n  jump\t// out\n    /* \"#utility.yul\":1107:1248   */\ntag_47:\n    /* \"#utility.yul\":1163:1168   */\n  0x00\n    /* \"#utility.yul\":1194:1200   */\n  dup2\n    /* \"#utility.yul\":1188:1201   */\n  mload\n    /* \"#utility.yul\":1179:1201   */\n  swap1\n  pop\n    /* \"#utility.yul\":1210:1242   */\n  tag_49\n    /* \"#utility.yul\":1236:1241   */\n  dup2\n    /* \"#utility.yul\":1210:1242   */\n  tag_50\n  jump\t// in\ntag_49:\n    /* \"#utility.yul\":1107:1248   */\n  swap3\n  swap2\n  pop\n  pop\n  jump\t// out\n    /* \"#utility.yul\":1254:2575   */\ntag_3:\n    /* \"#utility.yul\":1379:1385   */\n  0x00\n    /* \"#utility.yul\":1387:1393   */\n  dup1\n    /* \"#utility.yul\":1395:1401   */\n  0x00\n    /* \"#utility.yul\":1403:1409   */\n  dup1\n    /* \"#utility.yul\":1411:1417   */\n  0x00\n    /* \"#utility.yul\":1460:1463   */\n  0xa0\n    /* \"#utility.yul\":1448:1457   */\n  dup7\n    /* \"#utility.yul\":1439:1446   */\n  dup9\n    /* \"#utility.yul\":1435:1458   */\n  sub\n    /* \"#utility.yul\":1431:1464   */\n  slt\n    /* \"#utility.yul\":1428:1548   */\n  iszero\n  tag_52\n  jumpi\n    /* \"#utility.yul\":1467:1546   */\n  tag_53\n  tag_54\n  jump\t// in\ntag_53:\n    /* \"#utility.yul\":1428:1548   */\ntag_52:\n    /* \"#utility.yul\":1587:1588   */\n  0x00\n    /* \"#utility.yul\":1612:1676   */\n  tag_55\n    /* \"#utility.yul\":1668:1675   */\n  dup9\n    /* \"#utility.yul\":1659:1665   */\n  dup3\n    /* \"#utility.yul\":1648:1657   */\n  dup10\n    /* \"#utility.yul\":1644:1666   */\n  add\n    /* \"#utility.yul\":1612:1676   */\n  tag_33\n  jump\t// in\ntag_55:\n    /* \"#utility.yul\":1602:1676   */\n  swap6\n  pop\n    /* \"#utility.yul\":1558:1686   */\n  pop\n    /* \"#utility.yul\":1746:1748   */\n  0x20\n    /* \"#utility.yul\":1735:1744   */\n  dup7\n    /* \"#utility.yul\":1731:1749   */\n  add\n    /* \"#utility.yul\":1725:1750   */\n  mload\n    /* \"#utility.yul\":1777:1795   */\n  0xffffffffffffffff\n    /* \"#utility.yul\":1769:1775   */\n  dup2\n    /* \"#utility.yul\":1766:1796   */\n  gt\n    /* \"#utility.yul\":1763:1880   */\n  iszero\n  tag_56\n  jumpi\n    /* \"#utility.yul\":1799:1878   */\n  tag_57\n  tag_58\n  jump\t// in\ntag_57:\n    /* \"#utility.yul\":1763:1880   */\ntag_56:\n    /* \"#utility.yul\":1904:1978   */\n  tag_59\n    /* \"#utility.yul\":1970:1977   */\n  dup9\n    /* \"#utility.yul\":1961:1967   */\n  dup3\n    /* \"#utility.yul\":1950:1959   */\n  dup10\n    /* \"#utility.yul\":1946:1968   */\n  add\n    /* \"#utility.yul\":1904:1978   */\n  tag_37\n  jump\t// in\ntag_59:\n    /* \"#utility.yul\":1894:1978   */\n  swap5\n  pop\n    /* \"#utility.yul\":1696:1988   */\n  pop\n    /* \"#utility.yul\":2048:2050   */\n  0x40\n    /* \"#utility.yul\":2037:2046   */\n  dup7\n    /* \"#utility.yul\":2033:2051   */\n  add\n    /* \"#utility.yul\":2027:2052   */\n  mload\n    /* \"#utility.yul\":2079:2097   */\n  0xffffffffffffffff\n    /* \"#utility.yul\":2071:2077   */\n  dup2\n    /* \"#utility.yul\":2068:2098   */\n  gt\n    /* \"#utility.yul\":2065:2182   */\n  iszero\n  tag_60\n  jumpi\n    /* \"#utility.yul\":2101:2180   */\n  tag_61\n  tag_58\n  jump\t// in\ntag_61:\n    /* \"#utility.yul\":2065:2182   */\ntag_60:\n    /* \"#utility.yul\":2206:2280   */\n  tag_62\n    /* \"#utility.yul\":2272:2279   */\n  dup9\n    /* \"#utility.yul\":2263:2269   */\n  dup3\n    /* \"#utility.yul\":2252:2261   */\n  dup10\n    /* \"#utility.yul\":2248:2270   */\n  add\n    /* \"#utility.yul\":2206:2280   */\n  tag_37\n  jump\t// in\ntag_62:\n    /* \"#utility.yul\":2196:2280   */\n  swap4\n  pop\n    /* \"#utility.yul\":1998:2290   */\n  pop\n    /* \"#utility.yul\":2329:2331   */\n  0x60\n    /* \"#utility.yul\":2355:2418   */\n  tag_63\n    /* \"#utility.yul\":2410:2417   */\n  dup9\n    /* \"#utility.yul\":2401:2407   */\n  dup3\n    /* \"#utility.yul\":2390:2399   */\n  dup10\n    /* \"#utility.yul\":2386:2408   */\n  add\n    /* \"#utility.yul\":2355:2418   */\n  tag_47\n  jump\t// in\ntag_63:\n    /* \"#utility.yul\":2345:2418   */\n  swap3\n  pop\n    /* \"#utility.yul\":2300:2428   */\n  pop\n    /* \"#utility.yul\":2467:2470   */\n  0x80\n    /* \"#utility.yul\":2494:2558   */\n  tag_64\n    /* \"#utility.yul\":2550:2557   */\n  dup9\n    /* \"#utility.yul\":2541:2547   */\n  dup3\n    /* \"#utility.yul\":2530:2539   */\n  dup10\n    /* \"#utility.yul\":2526:2548   */\n  add\n    /* \"#utility.yul\":2494:2558   */\n  tag_43\n  jump\t// in\ntag_64:\n    /* \"#utility.yul\":2484:2558   */\n  swap2\n  pop\n    /* \"#utility.yul\":2438:2568   */\n  pop\n    /* \"#utility.yul\":1254:2575   */\n  swap3\n  swap6\n  pop\n  swap3\n  swap6\n  swap1\n  swap4\n  pop\n  jump\t// out\n    /* \"#utility.yul\":2581:2710   */\ntag_27:\n    /* \"#utility.yul\":2615:2621   */\n  0x00\n    /* \"#utility.yul\":2642:2662   */\n  tag_66\n  tag_67\n  jump\t// in\ntag_66:\n    /* \"#utility.yul\":2632:2662   */\n  swap1\n  pop\n    /* \"#utility.yul\":2671:2704   */\n  tag_68\n    /* \"#utility.yul\":2699:2703   */\n  dup3\n    /* \"#utility.yul\":2691:2697   */\n  dup3\n    /* \"#utility.yul\":2671:2704   */\n  tag_69\n  jump\t// in\ntag_68:\n    /* \"#utility.yul\":2581:2710   */\n  swap2\n  swap1\n  pop\n  jump\t// out\n    /* \"#utility.yul\":2716:2791   */\ntag_67:\n    /* \"#utility.yul\":2749:2755   */\n  0x00\n    /* \"#utility.yul\":2782:2784   */\n  0x40\n    /* \"#utility.yul\":2776:2785   */\n  mload\n    /* \"#utility.yul\":2766:2785   */\n  swap1\n  pop\n    /* \"#utility.yul\":2716:2791   */\n  swap1\n  jump\t// out\n    /* \"#utility.yul\":2797:3105   */\ntag_26:\n    /* \"#utility.yul\":2859:2863   */\n  0x00\n    /* \"#utility.yul\":2949:2967   */\n  0xffffffffffffffff\n    /* \"#utility.yul\":2941:2947   */\n  dup3\n    /* \"#utility.yul\":2938:2968   */\n  gt\n    /* \"#utility.yul\":2935:2991   */\n  iszero\n  tag_72\n  jumpi\n    /* \"#utility.yul\":2971:2989   */\n  tag_73\n  tag_74\n  jump\t// in\ntag_73:\n    /* \"#utility.yul\":2935:2991   */\ntag_72:\n    /* \"#utility.yul\":3009:3038   */\n  tag_75\n    /* \"#utility.yul\":3031:3037   */\n  dup3\n    /* \"#utility.yul\":3009:3038   */\n  tag_76\n  jump\t// in\ntag_75:\n    /* \"#utility.yul\":3001:3038   */\n  swap1\n  pop\n    /* \"#utility.yul\":3093:3097   */\n  0x20\n    /* \"#utility.yul\":3087:3091   */\n  dup2\n    /* \"#utility.yul\":3083:3098   */\n  add\n    /* \"#utility.yul\":3075:3098   */\n  swap1\n  pop\n    /* \"#utility.yul\":2797:3105   */\n  swap2\n  swap1\n  pop\n  jump\t// out\n    /* \"#utility.yul\":3111:3207   */\ntag_77:\n    /* \"#utility.yul\":3148:3155   */\n  0x00\n    /* \"#utility.yul\":3177:3201   */\n  tag_79\n    /* \"#utility.yul\":3195:3200   */\n  dup3\n    /* \"#utility.yul\":3177:3201   */\n  tag_80\n  jump\t// in\ntag_79:\n    /* \"#utility.yul\":3166:3201   */\n  swap1\n  pop\n    /* \"#utility.yul\":3111:3207   */\n  swap2\n  swap1\n  pop\n  jump\t// out\n    /* \"#utility.yul\":3213:3339   */\ntag_80:\n    /* \"#utility.yul\":3250:3257   */\n  0x00\n    /* \"#utility.yul\":3290:3332   */\n  0xffffffffffffffffffffffffffffffffffffffff\n    /* \"#utility.yul\":3283:3288   */\n  dup3\n    /* \"#utility.yul\":3279:3333   */\n  and\n    /* \"#utility.yul\":3268:3333   */\n  swap1\n  pop\n    /* \"#utility.yul\":3213:3339   */\n  swap2\n  swap1\n  pop\n  jump\t// out\n    /* \"#utility.yul\":3345:3422   */\ntag_82:\n    /* \"#utility.yul\":3382:3389   */\n  0x00\n    /* \"#utility.yul\":3411:3416   */\n  dup2\n    /* \"#utility.yul\":3400:3416   */\n  swap1\n  pop\n    /* \"#utility.yul\":3345:3422   */\n  swap2\n  swap1\n  pop\n  jump\t// out\n    /* \"#utility.yul\":3428:3521   */\ntag_84:\n    /* \"#utility.yul\":3464:3471   */\n  0x00\n    /* \"#utility.yul\":3504:3514   */\n  0xffffffff\n    /* \"#utility.yul\":3497:3502   */\n  dup3\n    /* \"#utility.yul\":3493:3515   */\n  and\n    /* \"#utility.yul\":3482:3515   */\n  swap1\n  pop\n    /* \"#utility.yul\":3428:3521   */\n  swap2\n  swap1\n  pop\n  jump\t// out\n    /* \"#utility.yul\":3527:3834   */\ntag_32:\n    /* \"#utility.yul\":3595:3596   */\n  0x00\n    /* \"#utility.yul\":3605:3718   */\ntag_87:\n    /* \"#utility.yul\":3619:3625   */\n  dup4\n    /* \"#utility.yul\":3616:3617   */\n  dup2\n    /* \"#utility.yul\":3613:3626   */\n  lt\n    /* \"#utility.yul\":3605:3718   */\n  iszero\n  tag_89\n  jumpi\n    /* \"#utility.yul\":3704:3705   */\n  dup1\n    /* \"#utility.yul\":3699:3702   */\n  dup3\n    /* \"#utility.yul\":3695:3706   */\n  add\n    /* \"#utility.yul\":3689:3707   */\n  mload\n    /* \"#utility.yul\":3685:3686   */\n  dup2\n    /* \"#utility.yul\":3680:3683   */\n  dup5\n    /* \"#utility.yul\":3676:3687   */\n  add\n    /* \"#utility.yul\":3669:3708   */\n  mstore\n    /* \"#utility.yul\":3641:3643   */\n  0x20\n    /* \"#utility.yul\":3638:3639   */\n  dup2\n    /* \"#utility.yul\":3634:3644   */\n  add\n    /* \"#utility.yul\":3629:3644   */\n  swap1\n  pop\n    /* \"#utility.yul\":3605:3718   */\n  jump(tag_87)\ntag_89:\n    /* \"#utility.yul\":3736:3742   */\n  dup4\n    /* \"#utility.yul\":3733:3734   */\n  dup2\n    /* \"#utility.yul\":3730:3743   */\n  gt\n    /* \"#utility.yul\":3727:3828   */\n  iszero\n  tag_90\n  jumpi\n    /* \"#utility.yul\":3816:3817   */\n  0x00\n    /* \"#utility.yul\":3807:3813   */\n  dup5\n    /* \"#utility.yul\":3802:3805   */\n  dup5\n    /* \"#utility.yul\":3798:3814   */\n  add\n    /* \"#utility.yul\":3791:3818   */\n  mstore\n    /* \"#utility.yul\":3727:3828   */\ntag_90:\n    /* \"#utility.yul\":3576:3834   */\n  pop\n    /* \"#utility.yul\":3527:3834   */\n  pop\n  pop\n  pop\n  jump\t// out\n    /* \"#utility.yul\":3840:4160   */\ntag_11:\n    /* \"#utility.yul\":3884:3890   */\n  0x00\n    /* \"#utility.yul\":3921:3922   */\n  0x02\n    /* \"#utility.yul\":3915:3919   */\n  dup3\n    /* \"#utility.yul\":3911:3923   */\n  div\n    /* \"#utility.yul\":3901:3923   */\n  swap1\n  pop\n    /* \"#utility.yul\":3968:3969   */\n  0x01\n    /* \"#utility.yul\":3962:3966   */\n  dup3\n    /* \"#utility.yul\":3958:3970   */\n  and\n    /* \"#utility.yul\":3989:4007   */\n  dup1\n    /* \"#utility.yul\":3979:4060   */\n  tag_92\n  jumpi\n    /* \"#utility.yul\":4045:4049   */\n  0x7f\n    /* \"#utility.yul\":4037:4043   */\n  dup3\n    /* \"#utility.yul\":4033:4050   */\n  and\n    /* \"#utility.yul\":4023:4050   */\n  swap2\n  pop\n    /* \"#utility.yul\":3979:4060   */\ntag_92:\n    /* \"#utility.yul\":4107:4109   */\n  0x20\n    /* \"#utility.yul\":4099:4105   */\n  dup3\n    /* \"#utility.yul\":4096:4110   */\n  lt\n    /* \"#utility.yul\":4076:4094   */\n  dup2\n    /* \"#utility.yul\":4073:4111   */\n  eq\n    /* \"#utility.yul\":4070:4154   */\n  iszero\n  tag_93\n  jumpi\n    /* \"#utility.yul\":4126:4144   */\n  tag_94\n  tag_95\n  jump\t// in\ntag_94:\n    /* \"#utility.yul\":4070:4154   */\ntag_93:\n    /* \"#utility.yul\":3891:4160   */\n  pop\n    /* \"#utility.yul\":3840:4160   */\n  swap2\n  swap1\n  pop\n  jump\t// out\n    /* \"#utility.yul\":4166:4447   */\ntag_69:\n    /* \"#utility.yul\":4249:4276   */\n  tag_97\n    /* \"#utility.yul\":4271:4275   */\n  dup3\n    /* \"#utility.yul\":4249:4276   */\n  tag_76\n  jump\t// in\ntag_97:\n    /* \"#utility.yul\":4241:4247   */\n  dup2\n    /* \"#utility.yul\":4237:4277   */\n  add\n    /* \"#utility.yul\":4379:4385   */\n  dup2\n    /* \"#utility.yul\":4367:4377   */\n  dup2\n    /* \"#utility.yul\":4364:4386   */\n  lt\n    /* \"#utility.yul\":4343:4361   */\n  0xffffffffffffffff\n    /* \"#utility.yul\":4331:4341   */\n  dup3\n    /* \"#utility.yul\":4328:4362   */\n  gt\n    /* \"#utility.yul\":4325:4387   */\n  or\n    /* \"#utility.yul\":4322:4410   */\n  iszero\n  tag_98\n  jumpi\n    /* \"#utility.yul\":4390:4408   */\n  tag_99\n  tag_74\n  jump\t// in\ntag_99:\n    /* \"#utility.yul\":4322:4410   */\ntag_98:\n    /* \"#utility.yul\":4430:4440   */\n  dup1\n    /* \"#utility.yul\":4426:4428   */\n  0x40\n    /* \"#utility.yul\":4419:4441   */\n  mstore\n    /* \"#utility.yul\":4209:4447   */\n  pop\n    /* \"#utility.yul\":4166:4447   */\n  pop\n  pop\n  jump\t// out\n    /* \"#utility.yul\":4453:4633   */\ntag_95:\n    /* \"#utility.yul\":4501:4578   */\n  0x4e487b7100000000000000000000000000000000000000000000000000000000\n    /* \"#utility.yul\":4498:4499   */\n  0x00\n    /* \"#utility.yul\":4491:4579   */\n  mstore\n    /* \"#utility.yul\":4598:4602   */\n  0x22\n    /* \"#utility.yul\":4595:4596   */\n  0x04\n    /* \"#utility.yul\":4588:4603   */\n  mstore\n    /* \"#utility.yul\":4622:4626   */\n  0x24\n    /* \"#utility.yul\":4619:4620   */\n  0x00\n    /* \"#utility.yul\":4612:4627   */\n  revert\n    /* \"#utility.yul\":4639:4819   */\ntag_74:\n    /* \"#utility.yul\":4687:4764   */\n  0x4e487b7100000000000000000000000000000000000000000000000000000000\n    /* \"#utility.yul\":4684:4685   */\n  0x00\n    /* \"#utility.yul\":4677:4765   */\n  mstore\n    /* \"#utility.yul\":4784:4788   */\n  0x41\n    /* \"#utility.yul\":4781:4782   */\n  0x04\n    /* \"#utility.yul\":4774:4789   */\n  mstore\n    /* \"#utility.yul\":4808:4812   */\n  0x24\n    /* \"#utility.yul\":4805:4806   */\n  0x00\n    /* \"#utility.yul\":4798:4813   */\n  revert\n    /* \"#utility.yul\":4825:4942   */\ntag_41:\n    /* \"#utility.yul\":4934:4935   */\n  0x00\n    /* \"#utility.yul\":4931:4932   */\n  dup1\n    /* \"#utility.yul\":4924:4936   */\n  revert\n    /* \"#utility.yul\":4948:5065   */\ntag_30:\n    /* \"#utility.yul\":5057:5058   */\n  0x00\n    /* \"#utility.yul\":5054:5055   */\n  dup1\n    /* \"#utility.yul\":5047:5059   */\n  revert\n    /* \"#utility.yul\":5071:5188   */\ntag_58:\n    /* \"#utility.yul\":5180:5181   */\n  0x00\n    /* \"#utility.yul\":5177:5178   */\n  dup1\n    /* \"#utility.yul\":5170:5182   */\n  revert\n    /* \"#utility.yul\":5194:5311   */\ntag_54:\n    /* \"#utility.yul\":5303:5304   */\n  0x00\n    /* \"#utility.yul\":5300:5301   */\n  dup1\n    /* \"#utility.yul\":5293:5305   */\n  revert\n    /* \"#utility.yul\":5317:5419   */\ntag_76:\n    /* \"#utility.yul\":5358:5364   */\n  0x00\n    /* \"#utility.yul\":5409:5411   */\n  0x1f\n    /* \"#utility.yul\":5405:5412   */\n  not\n    /* \"#utility.yul\":5400:5402   */\n  0x1f\n    /* \"#utility.yul\":5393:5398   */\n  dup4\n    /* \"#utility.yul\":5389:5403   */\n  add\n    /* \"#utility.yul\":5385:5413   */\n  and\n    /* \"#utility.yul\":5375:5413   */\n  swap1\n  pop\n    /* \"#utility.yul\":5317:5419   */\n  swap2\n  swap1\n  pop\n  jump\t// out\n    /* \"#utility.yul\":5425:5547   */\ntag_36:\n    /* \"#utility.yul\":5498:5522   */\n  tag_108\n    /* \"#utility.yul\":5516:5521   */\n  dup2\n    /* \"#utility.yul\":5498:5522   */\n  tag_77\n  jump\t// in\ntag_108:\n    /* \"#utility.yul\":5491:5496   */\n  dup2\n    /* \"#utility.yul\":5488:5523   */\n  eq\n    /* \"#utility.yul\":5478:5541   */\n  tag_109\n  jumpi\n    /* \"#utility.yul\":5537:5538   */\n  0x00\n    /* \"#utility.yul\":5534:5535   */\n  dup1\n    /* \"#utility.yul\":5527:5539   */\n  revert\n    /* \"#utility.yul\":5478:5541   */\ntag_109:\n    /* \"#utility.yul\":5425:5547   */\n  pop\n  jump\t// out\n    /* \"#utility.yul\":5553:5675   */\ntag_46:\n    /* \"#utility.yul\":5626:5650   */\n  tag_111\n    /* \"#utility.yul\":5644:5649   */\n  dup2\n    /* \"#utility.yul\":5626:5650   */\n  tag_82\n  jump\t// in\ntag_111:\n    /* \"#utility.yul\":5619:5624   */\n  dup2\n    /* \"#utility.yul\":5616:5651   */\n  eq\n    /* \"#utility.yul\":5606:5669   */\n  tag_112\n  jumpi\n    /* \"#utility.yul\":5665:5666   */\n  0x00\n    /* \"#utility.yul\":5662:5663   */\n  dup1\n    /* \"#utility.yul\":5655:5667   */\n  revert\n    /* \"#utility.yul\":5606:5669   */\ntag_112:\n    /* \"#utility.yul\":5553:5675   */\n  pop\n  jump\t// out\n    /* \"#utility.yul\":5681:5801   */\ntag_50:\n    /* \"#utility.yul\":5753:5776   */\n  tag_114\n    /* \"#utility.yul\":5770:5775   */\n  dup2\n    /* \"#utility.yul\":5753:5776   */\n  tag_84\n  jump\t// in\ntag_114:\n    /* \"#utility.yul\":5746:5751   */\n  dup2\n    /* \"#utility.yul\":5743:5777   */\n  eq\n    /* \"#utility.yul\":5733:5795   */\n  tag_115\n  jumpi\n    /* \"#utility.yul\":5791:5792   */\n  0x00\n    /* \"#utility.yul\":5788:5789   */\n  dup1\n    /* \"#utility.yul\":5781:5793   */\n  revert\n    /* \"#utility.yul\":5733:5795   */\ntag_115:\n    /* \"#utility.yul\":5681:5801   */\n  pop\n  jump\t// out\n    /* \"backend/contracts/Campaign.sol\":227:5893  contract Campaign {... */\ntag_9:\n  shr(0x60, mload(0x80))\n  mload(0xa0)\n  shr(0xe0, mload(0xc0))\n  codecopy(0x00, dataOffset(sub_0), dataSize(sub_0))\n  0x00\n  assignImmutable(\"0x7f8b6b088b6d74c2852fc86c796dca07b44eed6fb3daf5e6b59f7c364db14528\")\n  0x00\n  assignImmutable(\"0x1a192fabce13988b84994d4296e6cdc418d55e2f1d7f942188d4040b94fc57ac\")\n  0x00\n  assignImmutable(\"0x13600b294191fc92924bb3ce4b969c1e7e2bab8f4c93c3fc6d0a51733df3c060\")\n  return(0x00, dataSize(sub_0))\nstop\n\nsub_0: assembly {\n        /* \"backend/contracts/Campaign.sol\":227:5893  contract Campaign {... */\n      mstore(0x40, 0x80)\n      jumpi(tag_1, lt(calldatasize, 0x04))\n      shr(0xe0, calldataload(0x00))\n      dup1\n      0x7284e416\n      gt\n      tag_13\n      jumpi\n      dup1\n      0x7284e416\n      eq\n      tag_7\n      jumpi\n      dup1\n      0x7a3a0e84\n      eq\n      tag_8\n      jumpi\n      dup1\n      0x968ed600\n      eq\n      tag_9\n      jumpi\n      dup1\n      0xa1211bc0\n      eq\n      tag_10\n      jumpi\n      dup1\n      0xcc6cb19a\n      eq\n      tag_11\n      jumpi\n      dup1\n      0xed88c68e\n      eq\n      tag_12\n      jumpi\n      jump(tag_1)\n    tag_13:\n      dup1\n      0x06fdde03\n      eq\n      tag_2\n      jumpi\n      dup1\n      0x22f3e2d4\n      eq\n      tag_3\n      jumpi\n      dup1\n      0x29dcb0cf\n      eq\n      tag_4\n      jumpi\n      dup1\n      0x38af3eed\n      eq\n      tag_5\n      jumpi\n      dup1\n      0x4abfa163\n      eq\n      tag_6\n      jumpi\n    tag_1:\n      0x00\n      dup1\n      revert\n        /* \"backend/contracts/Campaign.sol\":316:334  string public name */\n    tag_2:\n      callvalue\n      dup1\n      iszero\n      tag_14\n      jumpi\n      0x00\n      dup1\n      revert\n    tag_14:\n      pop\n      tag_15\n      tag_16\n      jump\t// in\n    tag_15:\n      mload(0x40)\n      tag_17\n      swap2\n      swap1\n      tag_18\n      jump\t// in\n    tag_17:\n      mload(0x40)\n      dup1\n      swap2\n      sub\n      swap1\n      return\n        /* \"backend/contracts/Campaign.sol\":499:519  bool public isActive */\n    tag_3:\n      callvalue\n      dup1\n      iszero\n      tag_19\n      jumpi\n      0x00\n      dup1\n      revert\n    tag_19:\n      pop\n      tag_20\n      tag_21\n      jump\t// in\n    tag_20:\n      mload(0x40)\n      tag_22\n      swap2\n      swap1\n      tag_23\n      jump\t// in\n    tag_22:\n      mload(0x40)\n      dup1\n      swap2\n      sub\n      swap1\n      return\n        /* \"backend/contracts/Campaign.sol\":371:401  uint public immutable deadline */\n    tag_4:\n      callvalue\n      dup1\n      iszero\n      tag_24\n      jumpi\n      0x00\n      dup1\n      revert\n    tag_24:\n      pop\n      tag_25\n      tag_26\n      jump\t// in\n    tag_25:\n      mload(0x40)\n      tag_27\n      swap2\n      swap1\n      tag_28\n      jump\t// in\n    tag_27:\n      mload(0x40)\n      dup1\n      swap2\n      sub\n      swap1\n      return\n        /* \"backend/contracts/Campaign.sol\":274:310  address public immutable beneficiary */\n    tag_5:\n      callvalue\n      dup1\n      iszero\n      tag_29\n      jumpi\n      0x00\n      dup1\n      revert\n    tag_29:\n      pop\n      tag_30\n      tag_31\n      jump\t// in\n    tag_30:\n      mload(0x40)\n      tag_32\n      swap2\n      swap1\n      tag_33\n      jump\t// in\n    tag_32:\n      mload(0x40)\n      dup1\n      swap2\n      sub\n      swap1\n      return\n        /* \"backend/contracts/Campaign.sol\":725:748  address[] public donors */\n    tag_6:\n      callvalue\n      dup1\n      iszero\n      tag_34\n      jumpi\n      0x00\n      dup1\n      revert\n    tag_34:\n      pop\n      tag_35\n      0x04\n      dup1\n      calldatasize\n      sub\n      dup2\n      add\n      swap1\n      tag_36\n      swap2\n      swap1\n      tag_37\n      jump\t// in\n    tag_36:\n      tag_38\n      jump\t// in\n    tag_35:\n      mload(0x40)\n      tag_39\n      swap2\n      swap1\n      tag_33\n      jump\t// in\n    tag_39:\n      mload(0x40)\n      dup1\n      swap2\n      sub\n      swap1\n      return\n        /* \"backend/contracts/Campaign.sol\":340:365  string public description */\n    tag_7:\n      callvalue\n      dup1\n      iszero\n      tag_40\n      jumpi\n      0x00\n      dup1\n      revert\n    tag_40:\n      pop\n      tag_41\n      tag_42\n      jump\t// in\n    tag_41:\n      mload(0x40)\n      tag_43\n      swap2\n      swap1\n      tag_18\n      jump\t// in\n    tag_43:\n      mload(0x40)\n      dup1\n      swap2\n      sub\n      swap1\n      return\n        /* \"backend/contracts/Campaign.sol\":407:442  uint32 public immutable fundingGoal */\n    tag_8:\n      callvalue\n      dup1\n      iszero\n      tag_44\n      jumpi\n      0x00\n      dup1\n      revert\n    tag_44:\n      pop\n      tag_45\n      tag_46\n      jump\t// in\n    tag_45:\n      mload(0x40)\n      tag_47\n      swap2\n      swap1\n      tag_48\n      jump\t// in\n    tag_47:\n      mload(0x40)\n      dup1\n      swap2\n      sub\n      swap1\n      return\n        /* \"backend/contracts/Campaign.sol\":448:472  uint32 public totalFunds */\n    tag_9:\n      callvalue\n      dup1\n      iszero\n      tag_49\n      jumpi\n      0x00\n      dup1\n      revert\n    tag_49:\n      pop\n      tag_50\n      tag_51\n      jump\t// in\n    tag_50:\n      mload(0x40)\n      tag_52\n      swap2\n      swap1\n      tag_48\n      jump\t// in\n    tag_52:\n      mload(0x40)\n      dup1\n      swap2\n      sub\n      swap1\n      return\n        /* \"backend/contracts/Campaign.sol\":4639:5358  function finalizeCampaign() external isActiveCampaign deadlineExceeded {... */\n    tag_10:\n      callvalue\n      dup1\n      iszero\n      tag_53\n      jumpi\n      0x00\n      dup1\n      revert\n    tag_53:\n      pop\n      tag_54\n      tag_55\n      jump\t// in\n    tag_54:\n      stop\n        /* \"backend/contracts/Campaign.sol\":676:719  mapping(address => uint32) public donations */\n    tag_11:\n      callvalue\n      dup1\n      iszero\n      tag_56\n      jumpi\n      0x00\n      dup1\n      revert\n    tag_56:\n      pop\n      tag_57\n      0x04\n      dup1\n      calldatasize\n      sub\n      dup2\n      add\n      swap1\n      tag_58\n      swap2\n      swap1\n      tag_59\n      jump\t// in\n    tag_58:\n      tag_60\n      jump\t// in\n    tag_57:\n      mload(0x40)\n      tag_61\n      swap2\n      swap1\n      tag_48\n      jump\t// in\n    tag_61:\n      mload(0x40)\n      dup1\n      swap2\n      sub\n      swap1\n      return\n        /* \"backend/contracts/Campaign.sol\":2705:3519  function donate() external payable isActiveCampaign {... */\n    tag_12:\n      tag_62\n      tag_63\n      jump\t// in\n    tag_62:\n      stop\n        /* \"backend/contracts/Campaign.sol\":316:334  string public name */\n    tag_16:\n      0x00\n      dup1\n      sload\n      tag_64\n      swap1\n      tag_65\n      jump\t// in\n    tag_64:\n      dup1\n      0x1f\n      add\n      0x20\n      dup1\n      swap2\n      div\n      mul\n      0x20\n      add\n      mload(0x40)\n      swap1\n      dup2\n      add\n      0x40\n      mstore\n      dup1\n      swap3\n      swap2\n      swap1\n      dup2\n      dup2\n      mstore\n      0x20\n      add\n      dup3\n      dup1\n      sload\n      tag_66\n      swap1\n      tag_65\n      jump\t// in\n    tag_66:\n      dup1\n      iszero\n      tag_67\n      jumpi\n      dup1\n      0x1f\n      lt\n      tag_68\n      jumpi\n      0x0100\n      dup1\n      dup4\n      sload\n      div\n      mul\n      dup4\n      mstore\n      swap2\n      0x20\n      add\n      swap2\n      jump(tag_67)\n    tag_68:\n      dup3\n      add\n      swap2\n      swap1\n      0x00\n      mstore\n      keccak256(0x00, 0x20)\n      swap1\n    tag_69:\n      dup2\n      sload\n      dup2\n      mstore\n      swap1\n      0x01\n      add\n      swap1\n      0x20\n      add\n      dup1\n      dup4\n      gt\n      tag_69\n      jumpi\n      dup3\n      swap1\n      sub\n      0x1f\n      and\n      dup3\n      add\n      swap2\n    tag_67:\n      pop\n      pop\n      pop\n      pop\n      pop\n      dup2\n      jump\t// out\n        /* \"backend/contracts/Campaign.sol\":499:519  bool public isActive */\n    tag_21:\n      0x02\n      0x04\n      swap1\n      sload\n      swap1\n      0x0100\n      exp\n      swap1\n      div\n      0xff\n      and\n      dup2\n      jump\t// out\n        /* \"backend/contracts/Campaign.sol\":371:401  uint public immutable deadline */\n    tag_26:\n      immutable(\"0x1a192fabce13988b84994d4296e6cdc418d55e2f1d7f942188d4040b94fc57ac\")\n      dup2\n      jump\t// out\n        /* \"backend/contracts/Campaign.sol\":274:310  address public immutable beneficiary */\n    tag_31:\n      immutable(\"0x13600b294191fc92924bb3ce4b969c1e7e2bab8f4c93c3fc6d0a51733df3c060\")\n      dup2\n      jump\t// out\n        /* \"backend/contracts/Campaign.sol\":725:748  address[] public donors */\n    tag_38:\n      0x04\n      dup2\n      dup2\n      sload\n      dup2\n      lt\n      tag_70\n      jumpi\n      0x00\n      dup1\n      revert\n    tag_70:\n      swap1\n      0x00\n      mstore\n      keccak256(0x00, 0x20)\n      add\n      0x00\n      swap2\n      pop\n      sload\n      swap1\n      0x0100\n      exp\n      swap1\n      div\n      0xffffffffffffffffffffffffffffffffffffffff\n      and\n      dup2\n      jump\t// out\n        /* \"backend/contracts/Campaign.sol\":340:365  string public description */\n    tag_42:\n      0x01\n      dup1\n      sload\n      tag_72\n      swap1\n      tag_65\n      jump\t// in\n    tag_72:\n      dup1\n      0x1f\n      add\n      0x20\n      dup1\n      swap2\n      div\n      mul\n      0x20\n      add\n      mload(0x40)\n      swap1\n      dup2\n      add\n      0x40\n      mstore\n      dup1\n      swap3\n      swap2\n      swap1\n      dup2\n      dup2\n      mstore\n      0x20\n      add\n      dup3\n      dup1\n      sload\n      tag_73\n      swap1\n      tag_65\n      jump\t// in\n    tag_73:\n      dup1\n      iszero\n      tag_74\n      jumpi\n      dup1\n      0x1f\n      lt\n      tag_75\n      jumpi\n      0x0100\n      dup1\n      dup4\n      sload\n      div\n      mul\n      dup4\n      mstore\n      swap2\n      0x20\n      add\n      swap2\n      jump(tag_74)\n    tag_75:\n      dup3\n      add\n      swap2\n      swap1\n      0x00\n      mstore\n      keccak256(0x00, 0x20)\n      swap1\n    tag_76:\n      dup2\n      sload\n      dup2\n      mstore\n      swap1\n      0x01\n      add\n      swap1\n      0x20\n      add\n      dup1\n      dup4\n      gt\n      tag_76\n      jumpi\n      dup3\n      swap1\n      sub\n      0x1f\n      and\n      dup3\n      add\n      swap2\n    tag_74:\n      pop\n      pop\n      pop\n      pop\n      pop\n      dup2\n      jump\t// out\n        /* \"backend/contracts/Campaign.sol\":407:442  uint32 public immutable fundingGoal */\n    tag_46:\n      immutable(\"0x7f8b6b088b6d74c2852fc86c796dca07b44eed6fb3daf5e6b59f7c364db14528\")\n      dup2\n      jump\t// out\n        /* \"backend/contracts/Campaign.sol\":448:472  uint32 public totalFunds */\n    tag_51:\n      0x02\n      0x00\n      swap1\n      sload\n      swap1\n      0x0100\n      exp\n      swap1\n      div\n      0xffffffff\n      and\n      dup2\n      jump\t// out\n        /* \"backend/contracts/Campaign.sol\":4639:5358  function finalizeCampaign() external isActiveCampaign deadlineExceeded {... */\n    tag_55:\n        /* \"backend/contracts/Campaign.sol\":2316:2324  isActive */\n      0x02\n      0x04\n      swap1\n      sload\n      swap1\n      0x0100\n      exp\n      swap1\n      div\n      0xff\n      and\n        /* \"backend/contracts/Campaign.sol\":2308:2356  require(isActive, \"The Campaign is not active!\") */\n      tag_78\n      jumpi\n      mload(0x40)\n      0x08c379a000000000000000000000000000000000000000000000000000000000\n      dup2\n      mstore\n      0x04\n      add\n      tag_79\n      swap1\n      tag_80\n      jump\t// in\n    tag_79:\n      mload(0x40)\n      dup1\n      swap2\n      sub\n      swap1\n      revert\n    tag_78:\n        /* \"backend/contracts/Campaign.sol\":2444:2452  deadline */\n      immutable(\"0x1a192fabce13988b84994d4296e6cdc418d55e2f1d7f942188d4040b94fc57ac\")\n        /* \"backend/contracts/Campaign.sol\":2426:2441  block.timestamp */\n      timestamp\n        /* \"backend/contracts/Campaign.sol\":2426:2452  block.timestamp > deadline */\n      gt\n        /* \"backend/contracts/Campaign.sol\":2418:2496  require(block.timestamp > deadline, \"The Camapign's deadline has not passed!\") */\n      tag_82\n      jumpi\n      mload(0x40)\n      0x08c379a000000000000000000000000000000000000000000000000000000000\n      dup2\n      mstore\n      0x04\n      add\n      tag_83\n      swap1\n      tag_84\n      jump\t// in\n    tag_83:\n      mload(0x40)\n      dup1\n      swap2\n      sub\n      swap1\n      revert\n    tag_82:\n        /* \"backend/contracts/Campaign.sol\":4738:4749  fundingGoal */\n      immutable(\"0x7f8b6b088b6d74c2852fc86c796dca07b44eed6fb3daf5e6b59f7c364db14528\")\n        /* \"backend/contracts/Campaign.sol\":4724:4749  totalFunds >= fundingGoal */\n      0xffffffff\n      and\n        /* \"backend/contracts/Campaign.sol\":4724:4734  totalFunds */\n      0x02\n      0x00\n      swap1\n      sload\n      swap1\n      0x0100\n      exp\n      swap1\n      div\n      0xffffffff\n      and\n        /* \"backend/contracts/Campaign.sol\":4724:4749  totalFunds >= fundingGoal */\n      0xffffffff\n      and\n      lt\n        /* \"backend/contracts/Campaign.sol\":4720:5352  if (totalFunds >= fundingGoal) { //SX: Changed > to >=... */\n      tag_86\n      jumpi\n        /* \"backend/contracts/Campaign.sol\":4787:4801  releaseFunds() */\n      tag_87\n        /* \"backend/contracts/Campaign.sol\":4787:4799  releaseFunds */\n      tag_88\n        /* \"backend/contracts/Campaign.sol\":4787:4801  releaseFunds() */\n      jump\t// in\n    tag_87:\n        /* \"backend/contracts/Campaign.sol\":4720:5352  if (totalFunds >= fundingGoal) { //SX: Changed > to >=... */\n      jump(tag_89)\n    tag_86:\n        /* \"backend/contracts/Campaign.sol\":4843:4848  false */\n      0x00\n        /* \"backend/contracts/Campaign.sol\":4832:4840  isActive */\n      0x02\n      0x04\n        /* \"backend/contracts/Campaign.sol\":4832:4848  isActive = false */\n      0x0100\n      exp\n      dup2\n      sload\n      dup2\n      0xff\n      mul\n      not\n      and\n      swap1\n      dup4\n      iszero\n      iszero\n      mul\n      or\n      swap1\n      sstore\n      pop\n        /* \"backend/contracts/Campaign.sol\":5069:5075  uint i */\n      0x00\n        /* \"backend/contracts/Campaign.sol\":5064:5194  for (uint i = 0; i < donors.length; i++) {... */\n    tag_90:\n        /* \"backend/contracts/Campaign.sol\":5085:5091  donors */\n      0x04\n        /* \"backend/contracts/Campaign.sol\":5085:5098  donors.length */\n      dup1\n      sload\n      swap1\n      pop\n        /* \"backend/contracts/Campaign.sol\":5081:5082  i */\n      dup2\n        /* \"backend/contracts/Campaign.sol\":5081:5098  i < donors.length */\n      lt\n        /* \"backend/contracts/Campaign.sol\":5064:5194  for (uint i = 0; i < donors.length; i++) {... */\n      iszero\n      tag_91\n      jumpi\n        /* \"backend/contracts/Campaign.sol\":5123:5136  address donor */\n      0x00\n        /* \"backend/contracts/Campaign.sol\":5139:5145  donors */\n      0x04\n        /* \"backend/contracts/Campaign.sol\":5146:5147  i */\n      dup3\n        /* \"backend/contracts/Campaign.sol\":5139:5148  donors[i] */\n      dup2\n      sload\n      dup2\n      lt\n      tag_93\n      jumpi\n      tag_94\n      tag_95\n      jump\t// in\n    tag_94:\n    tag_93:\n      swap1\n      0x00\n      mstore\n      keccak256(0x00, 0x20)\n      add\n      0x00\n      swap1\n      sload\n      swap1\n      0x0100\n      exp\n      swap1\n      div\n      0xffffffffffffffffffffffffffffffffffffffff\n      and\n        /* \"backend/contracts/Campaign.sol\":5123:5148  address donor = donors[i] */\n      swap1\n      pop\n        /* \"backend/contracts/Campaign.sol\":5166:5179  refund(donor) */\n      tag_97\n        /* \"backend/contracts/Campaign.sol\":5173:5178  donor */\n      dup2\n        /* \"backend/contracts/Campaign.sol\":5166:5172  refund */\n      tag_98\n        /* \"backend/contracts/Campaign.sol\":5166:5179  refund(donor) */\n      jump\t// in\n    tag_97:\n        /* \"backend/contracts/Campaign.sol\":5105:5194  {... */\n      pop\n        /* \"backend/contracts/Campaign.sol\":5100:5103  i++ */\n      dup1\n      dup1\n      tag_99\n      swap1\n      tag_100\n      jump\t// in\n    tag_99:\n      swap2\n      pop\n      pop\n        /* \"backend/contracts/Campaign.sol\":5064:5194  for (uint i = 0; i < donors.length; i++) {... */\n      jump(tag_90)\n    tag_91:\n      pop\n        /* \"backend/contracts/Campaign.sol\":5268:5272  this */\n      address\n        /* \"backend/contracts/Campaign.sol\":5225:5340  CampaignFinalized(... */\n      0xffffffffffffffffffffffffffffffffffffffff\n      and\n      0x5be9d52eb6d0b698732f8dd5b5f6ad6c44215f77691d4ea4ab0e04ded81e4e0c\n        /* \"backend/contracts/Campaign.sol\":5292:5297  false */\n      0x00\n        /* \"backend/contracts/Campaign.sol\":5316:5326  totalFunds */\n      0x02\n      0x00\n      swap1\n      sload\n      swap1\n      0x0100\n      exp\n      swap1\n      div\n      0xffffffff\n      and\n        /* \"backend/contracts/Campaign.sol\":5225:5340  CampaignFinalized(... */\n      mload(0x40)\n      tag_101\n      swap3\n      swap2\n      swap1\n      tag_102\n      jump\t// in\n    tag_101:\n      mload(0x40)\n      dup1\n      swap2\n      sub\n      swap1\n      log2\n        /* \"backend/contracts/Campaign.sol\":4720:5352  if (totalFunds >= fundingGoal) { //SX: Changed > to >=... */\n    tag_89:\n        /* \"backend/contracts/Campaign.sol\":4639:5358  function finalizeCampaign() external isActiveCampaign deadlineExceeded {... */\n      jump\t// out\n        /* \"backend/contracts/Campaign.sol\":676:719  mapping(address => uint32) public donations */\n    tag_60:\n      mstore(0x20, 0x03)\n      dup1\n      0x00\n      mstore\n      keccak256(0x00, 0x40)\n      0x00\n      swap2\n      pop\n      sload\n      swap1\n      0x0100\n      exp\n      swap1\n      div\n      0xffffffff\n      and\n      dup2\n      jump\t// out\n        /* \"backend/contracts/Campaign.sol\":2705:3519  function donate() external payable isActiveCampaign {... */\n    tag_63:\n        /* \"backend/contracts/Campaign.sol\":2316:2324  isActive */\n      0x02\n      0x04\n      swap1\n      sload\n      swap1\n      0x0100\n      exp\n      swap1\n      div\n      0xff\n      and\n        /* \"backend/contracts/Campaign.sol\":2308:2356  require(isActive, \"The Campaign is not active!\") */\n      tag_104\n      jumpi\n      mload(0x40)\n      0x08c379a000000000000000000000000000000000000000000000000000000000\n      dup2\n      mstore\n      0x04\n      add\n      tag_105\n      swap1\n      tag_80\n      jump\t// in\n    tag_105:\n      mload(0x40)\n      dup1\n      swap2\n      sub\n      swap1\n      revert\n    tag_104:\n        /* \"backend/contracts/Campaign.sol\":2767:2780  address donor */\n      0x00\n        /* \"backend/contracts/Campaign.sol\":2783:2793  msg.sender */\n      caller\n        /* \"backend/contracts/Campaign.sol\":2767:2793  address donor = msg.sender */\n      swap1\n      pop\n        /* \"backend/contracts/Campaign.sol\":2803:2816  uint32 amount */\n      0x00\n        /* \"backend/contracts/Campaign.sol\":2826:2835  msg.value */\n      callvalue\n        /* \"backend/contracts/Campaign.sol\":2803:2836  uint32 amount = uint32(msg.value) */\n      swap1\n      pop\n        /* \"backend/contracts/Campaign.sol\":2941:2942  0 */\n      0x00\n        /* \"backend/contracts/Campaign.sol\":2921:2930  donations */\n      0x03\n        /* \"backend/contracts/Campaign.sol\":2921:2937  donations[donor] */\n      0x00\n        /* \"backend/contracts/Campaign.sol\":2931:2936  donor */\n      dup5\n        /* \"backend/contracts/Campaign.sol\":2921:2937  donations[donor] */\n      0xffffffffffffffffffffffffffffffffffffffff\n      and\n      0xffffffffffffffffffffffffffffffffffffffff\n      and\n      dup2\n      mstore\n      0x20\n      add\n      swap1\n      dup2\n      mstore\n      0x20\n      add\n      0x00\n      keccak256\n      0x00\n      swap1\n      sload\n      swap1\n      0x0100\n      exp\n      swap1\n      div\n      0xffffffff\n      and\n        /* \"backend/contracts/Campaign.sol\":2921:2942  donations[donor] == 0 */\n      0xffffffff\n      and\n      eq\n        /* \"backend/contracts/Campaign.sol\":2917:2987  if (donations[donor] == 0) {... */\n      iszero\n      tag_107\n      jumpi\n        /* \"backend/contracts/Campaign.sol\":2958:2964  donors */\n      0x04\n        /* \"backend/contracts/Campaign.sol\":2970:2975  donor */\n      dup3\n        /* \"backend/contracts/Campaign.sol\":2958:2976  donors.push(donor) */\n      swap1\n      dup1\n      0x01\n      dup2\n      sload\n      add\n      dup1\n      dup3\n      sstore\n      dup1\n      swap2\n      pop\n      pop\n      0x01\n      swap1\n      sub\n      swap1\n      0x00\n      mstore\n      keccak256(0x00, 0x20)\n      add\n      0x00\n      swap1\n      swap2\n      swap1\n      swap2\n      swap1\n      swap2\n      0x0100\n      exp\n      dup2\n      sload\n      dup2\n      0xffffffffffffffffffffffffffffffffffffffff\n      mul\n      not\n      and\n      swap1\n      dup4\n      0xffffffffffffffffffffffffffffffffffffffff\n      and\n      mul\n      or\n      swap1\n      sstore\n      pop\n        /* \"backend/contracts/Campaign.sol\":2917:2987  if (donations[donor] == 0) {... */\n    tag_107:\n        /* \"backend/contracts/Campaign.sol\":3025:3031  amount */\n      dup1\n        /* \"backend/contracts/Campaign.sol\":3005:3014  donations */\n      0x03\n        /* \"backend/contracts/Campaign.sol\":3005:3021  donations[donor] */\n      0x00\n        /* \"backend/contracts/Campaign.sol\":3015:3020  donor */\n      dup5\n        /* \"backend/contracts/Campaign.sol\":3005:3021  donations[donor] */\n      0xffffffffffffffffffffffffffffffffffffffff\n      and\n      0xffffffffffffffffffffffffffffffffffffffff\n      and\n      dup2\n      mstore\n      0x20\n      add\n      swap1\n      dup2\n      mstore\n      0x20\n      add\n      0x00\n      keccak256\n      0x00\n        /* \"backend/contracts/Campaign.sol\":3005:3031  donations[donor] += amount */\n      dup3\n      dup3\n      dup3\n      swap1\n      sload\n      swap1\n      0x0100\n      exp\n      swap1\n      div\n      0xffffffff\n      and\n      tag_109\n      swap2\n      swap1\n      tag_110\n      jump\t// in\n    tag_109:\n      swap3\n      pop\n      0x0100\n      exp\n      dup2\n      sload\n      dup2\n      0xffffffff\n      mul\n      not\n      and\n      swap1\n      dup4\n      0xffffffff\n      and\n      mul\n      or\n      swap1\n      sstore\n      pop\n        /* \"backend/contracts/Campaign.sol\":3178:3198  uint32 newTotalFunds */\n      0x00\n        /* \"backend/contracts/Campaign.sol\":3214:3220  amount */\n      dup2\n        /* \"backend/contracts/Campaign.sol\":3201:3211  totalFunds */\n      0x02\n      0x00\n      swap1\n      sload\n      swap1\n      0x0100\n      exp\n      swap1\n      div\n      0xffffffff\n      and\n        /* \"backend/contracts/Campaign.sol\":3201:3220  totalFunds + amount */\n      tag_111\n      swap2\n      swap1\n      tag_110\n      jump\t// in\n    tag_111:\n        /* \"backend/contracts/Campaign.sol\":3178:3220  uint32 newTotalFunds = totalFunds + amount */\n      swap1\n      pop\n        /* \"backend/contracts/Campaign.sol\":3243:3256  newTotalFunds */\n      dup1\n        /* \"backend/contracts/Campaign.sol\":3230:3240  totalFunds */\n      0x02\n      0x00\n        /* \"backend/contracts/Campaign.sol\":3230:3256  totalFunds = newTotalFunds */\n      0x0100\n      exp\n      dup2\n      sload\n      dup2\n      0xffffffff\n      mul\n      not\n      and\n      swap1\n      dup4\n      0xffffffff\n      and\n      mul\n      or\n      swap1\n      sstore\n      pop\n        /* \"backend/contracts/Campaign.sol\":3297:3302  donor */\n      dup3\n        /* \"backend/contracts/Campaign.sol\":3271:3333  DonationMade(... */\n      0xffffffffffffffffffffffffffffffffffffffff\n      and\n      0x1c839185b36728265e815fdead3a2012225928c409ed744579e8b61d174bda21\n        /* \"backend/contracts/Campaign.sol\":3317:3323  amount */\n      dup4\n        /* \"backend/contracts/Campaign.sol\":3271:3333  DonationMade(... */\n      mload(0x40)\n      tag_112\n      swap2\n      swap1\n      tag_48\n      jump\t// in\n    tag_112:\n      mload(0x40)\n      dup1\n      swap2\n      sub\n      swap1\n      log2\n        /* \"backend/contracts/Campaign.sol\":3461:3472  fundingGoal */\n      immutable(\"0x7f8b6b088b6d74c2852fc86c796dca07b44eed6fb3daf5e6b59f7c364db14528\")\n        /* \"backend/contracts/Campaign.sol\":3444:3472  newTotalFunds >= fundingGoal */\n      0xffffffff\n      and\n        /* \"backend/contracts/Campaign.sol\":3444:3457  newTotalFunds */\n      dup2\n        /* \"backend/contracts/Campaign.sol\":3444:3472  newTotalFunds >= fundingGoal */\n      0xffffffff\n      and\n      lt\n        /* \"backend/contracts/Campaign.sol\":3440:3513  if (newTotalFunds >= fundingGoal) {... */\n      tag_113\n      jumpi\n        /* \"backend/contracts/Campaign.sol\":3488:3502  releaseFunds() */\n      tag_114\n        /* \"backend/contracts/Campaign.sol\":3488:3500  releaseFunds */\n      tag_88\n        /* \"backend/contracts/Campaign.sol\":3488:3502  releaseFunds() */\n      jump\t// in\n    tag_114:\n        /* \"backend/contracts/Campaign.sol\":3440:3513  if (newTotalFunds >= fundingGoal) {... */\n    tag_113:\n        /* \"backend/contracts/Campaign.sol\":2757:3519  {... */\n      pop\n      pop\n      pop\n        /* \"backend/contracts/Campaign.sol\":2705:3519  function donate() external payable isActiveCampaign {... */\n      jump\t// out\n        /* \"backend/contracts/Campaign.sol\":3744:4317  function releaseFunds() private {... */\n    tag_88:\n        /* \"backend/contracts/Campaign.sol\":3786:3807  uint32 fundsToRelease */\n      0x00\n        /* \"backend/contracts/Campaign.sol\":3810:3820  totalFunds */\n      0x02\n      0x00\n      swap1\n      sload\n      swap1\n      0x0100\n      exp\n      swap1\n      div\n      0xffffffff\n      and\n        /* \"backend/contracts/Campaign.sol\":3786:3820  uint32 fundsToRelease = totalFunds */\n      swap1\n      pop\n        /* \"backend/contracts/Campaign.sol\":3837:3847  totalFunds */\n      0x02\n      0x00\n        /* \"backend/contracts/Campaign.sol\":3830:3847  delete totalFunds */\n      0x0100\n      exp\n      dup2\n      sload\n      swap1\n      0xffffffff\n      mul\n      not\n      and\n      swap1\n      sstore\n        /* \"backend/contracts/Campaign.sol\":3910:3915  false */\n      0x00\n        /* \"backend/contracts/Campaign.sol\":3899:3907  isActive */\n      0x02\n      0x04\n        /* \"backend/contracts/Campaign.sol\":3899:3915  isActive = false */\n      0x0100\n      exp\n      dup2\n      sload\n      dup2\n      0xff\n      mul\n      not\n      and\n      swap1\n      dup4\n      iszero\n      iszero\n      mul\n      or\n      swap1\n      sstore\n      pop\n        /* \"backend/contracts/Campaign.sol\":3977:3989  bool success */\n      0x00\n        /* \"backend/contracts/Campaign.sol\":4002:4013  beneficiary */\n      immutable(\"0x13600b294191fc92924bb3ce4b969c1e7e2bab8f4c93c3fc6d0a51733df3c060\")\n        /* \"backend/contracts/Campaign.sol\":3994:4019  payable(beneficiary).call */\n      0xffffffffffffffffffffffffffffffffffffffff\n      and\n        /* \"backend/contracts/Campaign.sol\":4027:4041  fundsToRelease */\n      dup3\n        /* \"backend/contracts/Campaign.sol\":3994:4046  payable(beneficiary).call{value: fundsToRelease}(\"\") */\n      0xffffffff\n      and\n      mload(0x40)\n      tag_116\n      swap1\n      tag_117\n      jump\t// in\n    tag_116:\n      0x00\n      mload(0x40)\n      dup1\n      dup4\n      sub\n      dup2\n      dup6\n      dup8\n      gas\n      call\n      swap3\n      pop\n      pop\n      pop\n      returndatasize\n      dup1\n      0x00\n      dup2\n      eq\n      tag_120\n      jumpi\n      mload(0x40)\n      swap2\n      pop\n      and(add(returndatasize, 0x3f), not(0x1f))\n      dup3\n      add\n      0x40\n      mstore\n      returndatasize\n      dup3\n      mstore\n      returndatasize\n      0x00\n      0x20\n      dup5\n      add\n      returndatacopy\n      jump(tag_119)\n    tag_120:\n      0x60\n      swap2\n      pop\n    tag_119:\n      pop\n        /* \"backend/contracts/Campaign.sol\":3976:4046  (bool success,) = payable(beneficiary).call{value: fundsToRelease}(\"\") */\n      pop\n      swap1\n      pop\n        /* \"backend/contracts/Campaign.sol\":4064:4071  success */\n      dup1\n        /* \"backend/contracts/Campaign.sol\":4056:4100  require(success, \"Unable to release funds!\") */\n      tag_121\n      jumpi\n      mload(0x40)\n      0x08c379a000000000000000000000000000000000000000000000000000000000\n      dup2\n      mstore\n      0x04\n      add\n      tag_122\n      swap1\n      tag_123\n      jump\t// in\n    tag_122:\n      mload(0x40)\n      dup1\n      swap2\n      sub\n      swap1\n      revert\n    tag_121:\n        /* \"backend/contracts/Campaign.sol\":4144:4155  beneficiary */\n      immutable(\"0x13600b294191fc92924bb3ce4b969c1e7e2bab8f4c93c3fc6d0a51733df3c060\")\n        /* \"backend/contracts/Campaign.sol\":4116:4193  FundsWithdrawn(... */\n      0xffffffffffffffffffffffffffffffffffffffff\n      and\n      0x3de67bb1992e4f254de509dfd7561f97d65e2171867167fbfb7bc25dfa4b2284\n        /* \"backend/contracts/Campaign.sol\":4169:4183  fundsToRelease */\n      dup4\n        /* \"backend/contracts/Campaign.sol\":4116:4193  FundsWithdrawn(... */\n      mload(0x40)\n      tag_124\n      swap2\n      swap1\n      tag_48\n      jump\t// in\n    tag_124:\n      mload(0x40)\n      dup1\n      swap2\n      sub\n      swap1\n      log2\n        /* \"backend/contracts/Campaign.sol\":4247:4251  this */\n      address\n        /* \"backend/contracts/Campaign.sol\":4208:4310  CampaignFinalized(... */\n      0xffffffffffffffffffffffffffffffffffffffff\n      and\n      0x5be9d52eb6d0b698732f8dd5b5f6ad6c44215f77691d4ea4ab0e04ded81e4e0c\n        /* \"backend/contracts/Campaign.sol\":4267:4271  true */\n      0x01\n        /* \"backend/contracts/Campaign.sol\":4286:4300  fundsToRelease */\n      dup5\n        /* \"backend/contracts/Campaign.sol\":4208:4310  CampaignFinalized(... */\n      mload(0x40)\n      tag_125\n      swap3\n      swap2\n      swap1\n      tag_102\n      jump\t// in\n    tag_125:\n      mload(0x40)\n      dup1\n      swap2\n      sub\n      swap1\n      log2\n        /* \"backend/contracts/Campaign.sol\":3776:4317  {... */\n      pop\n      pop\n        /* \"backend/contracts/Campaign.sol\":3744:4317  function releaseFunds() private {... */\n      jump\t// out\n        /* \"backend/contracts/Campaign.sol\":5539:5891  function refund(address donor) private {... */\n    tag_98:\n        /* \"backend/contracts/Campaign.sol\":5588:5609  uint32 donationAmount */\n      0x00\n        /* \"backend/contracts/Campaign.sol\":5612:5621  donations */\n      0x03\n        /* \"backend/contracts/Campaign.sol\":5612:5628  donations[donor] */\n      0x00\n        /* \"backend/contracts/Campaign.sol\":5622:5627  donor */\n      dup4\n        /* \"backend/contracts/Campaign.sol\":5612:5628  donations[donor] */\n      0xffffffffffffffffffffffffffffffffffffffff\n      and\n      0xffffffffffffffffffffffffffffffffffffffff\n      and\n      dup2\n      mstore\n      0x20\n      add\n      swap1\n      dup2\n      mstore\n      0x20\n      add\n      0x00\n      keccak256\n      0x00\n      swap1\n      sload\n      swap1\n      0x0100\n      exp\n      swap1\n      div\n      0xffffffff\n      and\n        /* \"backend/contracts/Campaign.sol\":5588:5628  uint32 donationAmount = donations[donor] */\n      swap1\n      pop\n        /* \"backend/contracts/Campaign.sol\":5645:5654  donations */\n      0x03\n        /* \"backend/contracts/Campaign.sol\":5645:5661  donations[donor] */\n      0x00\n        /* \"backend/contracts/Campaign.sol\":5655:5660  donor */\n      dup4\n        /* \"backend/contracts/Campaign.sol\":5645:5661  donations[donor] */\n      0xffffffffffffffffffffffffffffffffffffffff\n      and\n      0xffffffffffffffffffffffffffffffffffffffff\n      and\n      dup2\n      mstore\n      0x20\n      add\n      swap1\n      dup2\n      mstore\n      0x20\n      add\n      0x00\n      keccak256\n      0x00\n        /* \"backend/contracts/Campaign.sol\":5638:5661  delete donations[donor] */\n      0x0100\n      exp\n      dup2\n      sload\n      swap1\n      0xffffffff\n      mul\n      not\n      and\n      swap1\n      sstore\n        /* \"backend/contracts/Campaign.sol\":5767:5772  donor */\n      dup2\n        /* \"backend/contracts/Campaign.sol\":5759:5782  payable(donor).transfer */\n      0xffffffffffffffffffffffffffffffffffffffff\n      and\n        /* \"backend/contracts/Campaign.sol\":5759:5798  payable(donor).transfer(donationAmount) */\n      0x08fc\n        /* \"backend/contracts/Campaign.sol\":5783:5797  donationAmount */\n      dup3\n        /* \"backend/contracts/Campaign.sol\":5759:5798  payable(donor).transfer(donationAmount) */\n      0xffffffff\n      and\n      swap1\n      dup2\n      iszero\n      mul\n      swap1\n      mload(0x40)\n      0x00\n      mload(0x40)\n      dup1\n      dup4\n      sub\n      dup2\n      dup6\n      dup9\n      dup9\n      call\n      swap4\n      pop\n      pop\n      pop\n      pop\n      iszero\n      dup1\n      iszero\n      tag_128\n      jumpi\n      returndatasize\n      0x00\n      dup1\n      returndatacopy\n      revert(0x00, returndatasize)\n    tag_128:\n      pop\n        /* \"backend/contracts/Campaign.sol\":5840:5845  donor */\n      dup2\n        /* \"backend/contracts/Campaign.sol\":5814:5884  RefundIssued(... */\n      0xffffffffffffffffffffffffffffffffffffffff\n      and\n      0x877e2ec1ec7e8ca17f5b4ff704deaa59c7a56addd4bed9c0bdd38a20afb6d33e\n        /* \"backend/contracts/Campaign.sol\":5860:5874  donationAmount */\n      dup3\n        /* \"backend/contracts/Campaign.sol\":5814:5884  RefundIssued(... */\n      mload(0x40)\n      tag_129\n      swap2\n      swap1\n      tag_48\n      jump\t// in\n    tag_129:\n      mload(0x40)\n      dup1\n      swap2\n      sub\n      swap1\n      log2\n        /* \"backend/contracts/Campaign.sol\":5578:5891  {... */\n      pop\n        /* \"backend/contracts/Campaign.sol\":5539:5891  function refund(address donor) private {... */\n      pop\n      jump\t// out\n        /* \"#utility.yul\":7:146   */\n    tag_131:\n        /* \"#utility.yul\":53:58   */\n      0x00\n        /* \"#utility.yul\":91:97   */\n      dup2\n        /* \"#utility.yul\":78:98   */\n      calldataload\n        /* \"#utility.yul\":69:98   */\n      swap1\n      pop\n        /* \"#utility.yul\":107:140   */\n      tag_133\n        /* \"#utility.yul\":134:139   */\n      dup2\n        /* \"#utility.yul\":107:140   */\n      tag_134\n      jump\t// in\n    tag_133:\n        /* \"#utility.yul\":7:146   */\n      swap3\n      swap2\n      pop\n      pop\n      jump\t// out\n        /* \"#utility.yul\":152:291   */\n    tag_135:\n        /* \"#utility.yul\":198:203   */\n      0x00\n        /* \"#utility.yul\":236:242   */\n      dup2\n        /* \"#utility.yul\":223:243   */\n      calldataload\n        /* \"#utility.yul\":214:243   */\n      swap1\n      pop\n        /* \"#utility.yul\":252:285   */\n      tag_137\n        /* \"#utility.yul\":279:284   */\n      dup2\n        /* \"#utility.yul\":252:285   */\n      tag_138\n      jump\t// in\n    tag_137:\n        /* \"#utility.yul\":152:291   */\n      swap3\n      swap2\n      pop\n      pop\n      jump\t// out\n        /* \"#utility.yul\":297:626   */\n    tag_59:\n        /* \"#utility.yul\":356:362   */\n      0x00\n        /* \"#utility.yul\":405:407   */\n      0x20\n        /* \"#utility.yul\":393:402   */\n      dup3\n        /* \"#utility.yul\":384:391   */\n      dup5\n        /* \"#utility.yul\":380:403   */\n      sub\n        /* \"#utility.yul\":376:408   */\n      slt\n        /* \"#utility.yul\":373:492   */\n      iszero\n      tag_140\n      jumpi\n        /* \"#utility.yul\":411:490   */\n      tag_141\n      tag_142\n      jump\t// in\n    tag_141:\n        /* \"#utility.yul\":373:492   */\n    tag_140:\n        /* \"#utility.yul\":531:532   */\n      0x00\n        /* \"#utility.yul\":556:609   */\n      tag_143\n        /* \"#utility.yul\":601:608   */\n      dup5\n        /* \"#utility.yul\":592:598   */\n      dup3\n        /* \"#utility.yul\":581:590   */\n      dup6\n        /* \"#utility.yul\":577:599   */\n      add\n        /* \"#utility.yul\":556:609   */\n      tag_131\n      jump\t// in\n    tag_143:\n        /* \"#utility.yul\":546:609   */\n      swap2\n      pop\n        /* \"#utility.yul\":502:619   */\n      pop\n        /* \"#utility.yul\":297:626   */\n      swap3\n      swap2\n      pop\n      pop\n      jump\t// out\n        /* \"#utility.yul\":632:961   */\n    tag_37:\n        /* \"#utility.yul\":691:697   */\n      0x00\n        /* \"#utility.yul\":740:742   */\n      0x20\n        /* \"#utility.yul\":728:737   */\n      dup3\n        /* \"#utility.yul\":719:726   */\n      dup5\n        /* \"#utility.yul\":715:738   */\n      sub\n        /* \"#utility.yul\":711:743   */\n      slt\n        /* \"#utility.yul\":708:827   */\n      iszero\n      tag_145\n      jumpi\n        /* \"#utility.yul\":746:825   */\n      tag_146\n      tag_142\n      jump\t// in\n    tag_146:\n        /* \"#utility.yul\":708:827   */\n    tag_145:\n        /* \"#utility.yul\":866:867   */\n      0x00\n        /* \"#utility.yul\":891:944   */\n      tag_147\n        /* \"#utility.yul\":936:943   */\n      dup5\n        /* \"#utility.yul\":927:933   */\n      dup3\n        /* \"#utility.yul\":916:925   */\n      dup6\n        /* \"#utility.yul\":912:934   */\n      add\n        /* \"#utility.yul\":891:944   */\n      tag_135\n      jump\t// in\n    tag_147:\n        /* \"#utility.yul\":881:944   */\n      swap2\n      pop\n        /* \"#utility.yul\":837:954   */\n      pop\n        /* \"#utility.yul\":632:961   */\n      swap3\n      swap2\n      pop\n      pop\n      jump\t// out\n        /* \"#utility.yul\":967:1085   */\n    tag_148:\n        /* \"#utility.yul\":1054:1078   */\n      tag_150\n        /* \"#utility.yul\":1072:1077   */\n      dup2\n        /* \"#utility.yul\":1054:1078   */\n      tag_151\n      jump\t// in\n    tag_150:\n        /* \"#utility.yul\":1049:1052   */\n      dup3\n        /* \"#utility.yul\":1042:1079   */\n      mstore\n        /* \"#utility.yul\":967:1085   */\n      pop\n      pop\n      jump\t// out\n        /* \"#utility.yul\":1091:1200   */\n    tag_152:\n        /* \"#utility.yul\":1172:1193   */\n      tag_154\n        /* \"#utility.yul\":1187:1192   */\n      dup2\n        /* \"#utility.yul\":1172:1193   */\n      tag_155\n      jump\t// in\n    tag_154:\n        /* \"#utility.yul\":1167:1170   */\n      dup3\n        /* \"#utility.yul\":1160:1194   */\n      mstore\n        /* \"#utility.yul\":1091:1200   */\n      pop\n      pop\n      jump\t// out\n        /* \"#utility.yul\":1206:1570   */\n    tag_156:\n        /* \"#utility.yul\":1294:1297   */\n      0x00\n        /* \"#utility.yul\":1322:1361   */\n      tag_158\n        /* \"#utility.yul\":1355:1360   */\n      dup3\n        /* \"#utility.yul\":1322:1361   */\n      tag_159\n      jump\t// in\n    tag_158:\n        /* \"#utility.yul\":1377:1448   */\n      tag_160\n        /* \"#utility.yul\":1441:1447   */\n      dup2\n        /* \"#utility.yul\":1436:1439   */\n      dup6\n        /* \"#utility.yul\":1377:1448   */\n      tag_161\n      jump\t// in\n    tag_160:\n        /* \"#utility.yul\":1370:1448   */\n      swap4\n      pop\n        /* \"#utility.yul\":1457:1509   */\n      tag_162\n        /* \"#utility.yul\":1502:1508   */\n      dup2\n        /* \"#utility.yul\":1497:1500   */\n      dup6\n        /* \"#utility.yul\":1490:1494   */\n      0x20\n        /* \"#utility.yul\":1483:1488   */\n      dup7\n        /* \"#utility.yul\":1479:1495   */\n      add\n        /* \"#utility.yul\":1457:1509   */\n      tag_163\n      jump\t// in\n    tag_162:\n        /* \"#utility.yul\":1534:1563   */\n      tag_164\n        /* \"#utility.yul\":1556:1562   */\n      dup2\n        /* \"#utility.yul\":1534:1563   */\n      tag_165\n      jump\t// in\n    tag_164:\n        /* \"#utility.yul\":1529:1532   */\n      dup5\n        /* \"#utility.yul\":1525:1564   */\n      add\n        /* \"#utility.yul\":1518:1564   */\n      swap2\n      pop\n        /* \"#utility.yul\":1298:1570   */\n      pop\n        /* \"#utility.yul\":1206:1570   */\n      swap3\n      swap2\n      pop\n      pop\n      jump\t// out\n        /* \"#utility.yul\":1576:1942   */\n    tag_166:\n        /* \"#utility.yul\":1718:1721   */\n      0x00\n        /* \"#utility.yul\":1739:1806   */\n      tag_168\n        /* \"#utility.yul\":1803:1805   */\n      0x18\n        /* \"#utility.yul\":1798:1801   */\n      dup4\n        /* \"#utility.yul\":1739:1806   */\n      tag_161\n      jump\t// in\n    tag_168:\n        /* \"#utility.yul\":1732:1806   */\n      swap2\n      pop\n        /* \"#utility.yul\":1815:1908   */\n      tag_169\n        /* \"#utility.yul\":1904:1907   */\n      dup3\n        /* \"#utility.yul\":1815:1908   */\n      tag_170\n      jump\t// in\n    tag_169:\n        /* \"#utility.yul\":1933:1935   */\n      0x20\n        /* \"#utility.yul\":1928:1931   */\n      dup3\n        /* \"#utility.yul\":1924:1936   */\n      add\n        /* \"#utility.yul\":1917:1936   */\n      swap1\n      pop\n        /* \"#utility.yul\":1576:1942   */\n      swap2\n      swap1\n      pop\n      jump\t// out\n        /* \"#utility.yul\":1948:2314   */\n    tag_171:\n        /* \"#utility.yul\":2090:2093   */\n      0x00\n        /* \"#utility.yul\":2111:2178   */\n      tag_173\n        /* \"#utility.yul\":2175:2177   */\n      0x1b\n        /* \"#utility.yul\":2170:2173   */\n      dup4\n        /* \"#utility.yul\":2111:2178   */\n      tag_161\n      jump\t// in\n    tag_173:\n        /* \"#utility.yul\":2104:2178   */\n      swap2\n      pop\n        /* \"#utility.yul\":2187:2280   */\n      tag_174\n        /* \"#utility.yul\":2276:2279   */\n      dup3\n        /* \"#utility.yul\":2187:2280   */\n      tag_175\n      jump\t// in\n    tag_174:\n        /* \"#utility.yul\":2305:2307   */\n      0x20\n        /* \"#utility.yul\":2300:2303   */\n      dup3\n        /* \"#utility.yul\":2296:2308   */\n      add\n        /* \"#utility.yul\":2289:2308   */\n      swap1\n      pop\n        /* \"#utility.yul\":1948:2314   */\n      swap2\n      swap1\n      pop\n      jump\t// out\n        /* \"#utility.yul\":2320:2686   */\n    tag_176:\n        /* \"#utility.yul\":2462:2465   */\n      0x00\n        /* \"#utility.yul\":2483:2550   */\n      tag_178\n        /* \"#utility.yul\":2547:2549   */\n      0x27\n        /* \"#utility.yul\":2542:2545   */\n      dup4\n        /* \"#utility.yul\":2483:2550   */\n      tag_161\n      jump\t// in\n    tag_178:\n        /* \"#utility.yul\":2476:2550   */\n      swap2\n      pop\n        /* \"#utility.yul\":2559:2652   */\n      tag_179\n        /* \"#utility.yul\":2648:2651   */\n      dup3\n        /* \"#utility.yul\":2559:2652   */\n      tag_180\n      jump\t// in\n    tag_179:\n        /* \"#utility.yul\":2677:2679   */\n      0x40\n        /* \"#utility.yul\":2672:2675   */\n      dup3\n        /* \"#utility.yul\":2668:2680   */\n      add\n        /* \"#utility.yul\":2661:2680   */\n      swap1\n      pop\n        /* \"#utility.yul\":2320:2686   */\n      swap2\n      swap1\n      pop\n      jump\t// out\n        /* \"#utility.yul\":2692:3090   */\n    tag_181:\n        /* \"#utility.yul\":2851:2854   */\n      0x00\n        /* \"#utility.yul\":2872:2955   */\n      tag_183\n        /* \"#utility.yul\":2953:2954   */\n      0x00\n        /* \"#utility.yul\":2948:2951   */\n      dup4\n        /* \"#utility.yul\":2872:2955   */\n      tag_184\n      jump\t// in\n    tag_183:\n        /* \"#utility.yul\":2865:2955   */\n      swap2\n      pop\n        /* \"#utility.yul\":2964:3057   */\n      tag_185\n        /* \"#utility.yul\":3053:3056   */\n      dup3\n        /* \"#utility.yul\":2964:3057   */\n      tag_186\n      jump\t// in\n    tag_185:\n        /* \"#utility.yul\":3082:3083   */\n      0x00\n        /* \"#utility.yul\":3077:3080   */\n      dup3\n        /* \"#utility.yul\":3073:3084   */\n      add\n        /* \"#utility.yul\":3066:3084   */\n      swap1\n      pop\n        /* \"#utility.yul\":2692:3090   */\n      swap2\n      swap1\n      pop\n      jump\t// out\n        /* \"#utility.yul\":3096:3214   */\n    tag_187:\n        /* \"#utility.yul\":3183:3207   */\n      tag_189\n        /* \"#utility.yul\":3201:3206   */\n      dup2\n        /* \"#utility.yul\":3183:3207   */\n      tag_190\n      jump\t// in\n    tag_189:\n        /* \"#utility.yul\":3178:3181   */\n      dup3\n        /* \"#utility.yul\":3171:3208   */\n      mstore\n        /* \"#utility.yul\":3096:3214   */\n      pop\n      pop\n      jump\t// out\n        /* \"#utility.yul\":3220:3335   */\n    tag_191:\n        /* \"#utility.yul\":3305:3328   */\n      tag_193\n        /* \"#utility.yul\":3322:3327   */\n      dup2\n        /* \"#utility.yul\":3305:3328   */\n      tag_194\n      jump\t// in\n    tag_193:\n        /* \"#utility.yul\":3300:3303   */\n      dup3\n        /* \"#utility.yul\":3293:3329   */\n      mstore\n        /* \"#utility.yul\":3220:3335   */\n      pop\n      pop\n      jump\t// out\n        /* \"#utility.yul\":3341:3720   */\n    tag_117:\n        /* \"#utility.yul\":3525:3528   */\n      0x00\n        /* \"#utility.yul\":3547:3694   */\n      tag_196\n        /* \"#utility.yul\":3690:3693   */\n      dup3\n        /* \"#utility.yul\":3547:3694   */\n      tag_181\n      jump\t// in\n    tag_196:\n        /* \"#utility.yul\":3540:3694   */\n      swap2\n      pop\n        /* \"#utility.yul\":3711:3714   */\n      dup2\n        /* \"#utility.yul\":3704:3714   */\n      swap1\n      pop\n        /* \"#utility.yul\":3341:3720   */\n      swap2\n      swap1\n      pop\n      jump\t// out\n        /* \"#utility.yul\":3726:3948   */\n    tag_33:\n        /* \"#utility.yul\":3819:3823   */\n      0x00\n        /* \"#utility.yul\":3857:3859   */\n      0x20\n        /* \"#utility.yul\":3846:3855   */\n      dup3\n        /* \"#utility.yul\":3842:3860   */\n      add\n        /* \"#utility.yul\":3834:3860   */\n      swap1\n      pop\n        /* \"#utility.yul\":3870:3941   */\n      tag_198\n        /* \"#utility.yul\":3938:3939   */\n      0x00\n        /* \"#utility.yul\":3927:3936   */\n      dup4\n        /* \"#utility.yul\":3923:3940   */\n      add\n        /* \"#utility.yul\":3914:3920   */\n      dup5\n        /* \"#utility.yul\":3870:3941   */\n      tag_148\n      jump\t// in\n    tag_198:\n        /* \"#utility.yul\":3726:3948   */\n      swap3\n      swap2\n      pop\n      pop\n      jump\t// out\n        /* \"#utility.yul\":3954:4164   */\n    tag_23:\n        /* \"#utility.yul\":4041:4045   */\n      0x00\n        /* \"#utility.yul\":4079:4081   */\n      0x20\n        /* \"#utility.yul\":4068:4077   */\n      dup3\n        /* \"#utility.yul\":4064:4082   */\n      add\n        /* \"#utility.yul\":4056:4082   */\n      swap1\n      pop\n        /* \"#utility.yul\":4092:4157   */\n      tag_200\n        /* \"#utility.yul\":4154:4155   */\n      0x00\n        /* \"#utility.yul\":4143:4152   */\n      dup4\n        /* \"#utility.yul\":4139:4156   */\n      add\n        /* \"#utility.yul\":4130:4136   */\n      dup5\n        /* \"#utility.yul\":4092:4157   */\n      tag_152\n      jump\t// in\n    tag_200:\n        /* \"#utility.yul\":3954:4164   */\n      swap3\n      swap2\n      pop\n      pop\n      jump\t// out\n        /* \"#utility.yul\":4170:4486   */\n    tag_102:\n        /* \"#utility.yul\":4283:4287   */\n      0x00\n        /* \"#utility.yul\":4321:4323   */\n      0x40\n        /* \"#utility.yul\":4310:4319   */\n      dup3\n        /* \"#utility.yul\":4306:4324   */\n      add\n        /* \"#utility.yul\":4298:4324   */\n      swap1\n      pop\n        /* \"#utility.yul\":4334:4399   */\n      tag_202\n        /* \"#utility.yul\":4396:4397   */\n      0x00\n        /* \"#utility.yul\":4385:4394   */\n      dup4\n        /* \"#utility.yul\":4381:4398   */\n      add\n        /* \"#utility.yul\":4372:4378   */\n      dup6\n        /* \"#utility.yul\":4334:4399   */\n      tag_152\n      jump\t// in\n    tag_202:\n        /* \"#utility.yul\":4409:4479   */\n      tag_203\n        /* \"#utility.yul\":4475:4477   */\n      0x20\n        /* \"#utility.yul\":4464:4473   */\n      dup4\n        /* \"#utility.yul\":4460:4478   */\n      add\n        /* \"#utility.yul\":4451:4457   */\n      dup5\n        /* \"#utility.yul\":4409:4479   */\n      tag_191\n      jump\t// in\n    tag_203:\n        /* \"#utility.yul\":4170:4486   */\n      swap4\n      swap3\n      pop\n      pop\n      pop\n      jump\t// out\n        /* \"#utility.yul\":4492:4805   */\n    tag_18:\n        /* \"#utility.yul\":4605:4609   */\n      0x00\n        /* \"#utility.yul\":4643:4645   */\n      0x20\n        /* \"#utility.yul\":4632:4641   */\n      dup3\n        /* \"#utility.yul\":4628:4646   */\n      add\n        /* \"#utility.yul\":4620:4646   */\n      swap1\n      pop\n        /* \"#utility.yul\":4692:4701   */\n      dup2\n        /* \"#utility.yul\":4686:4690   */\n      dup2\n        /* \"#utility.yul\":4682:4702   */\n      sub\n        /* \"#utility.yul\":4678:4679   */\n      0x00\n        /* \"#utility.yul\":4667:4676   */\n      dup4\n        /* \"#utility.yul\":4663:4680   */\n      add\n        /* \"#utility.yul\":4656:4703   */\n      mstore\n        /* \"#utility.yul\":4720:4798   */\n      tag_205\n        /* \"#utility.yul\":4793:4797   */\n      dup2\n        /* \"#utility.yul\":4784:4790   */\n      dup5\n        /* \"#utility.yul\":4720:4798   */\n      tag_156\n      jump\t// in\n    tag_205:\n        /* \"#utility.yul\":4712:4798   */\n      swap1\n      pop\n        /* \"#utility.yul\":4492:4805   */\n      swap3\n      swap2\n      pop\n      pop\n      jump\t// out\n        /* \"#utility.yul\":4811:5230   */\n    tag_123:\n        /* \"#utility.yul\":4977:4981   */\n      0x00\n        /* \"#utility.yul\":5015:5017   */\n      0x20\n        /* \"#utility.yul\":5004:5013   */\n      dup3\n        /* \"#utility.yul\":5000:5018   */\n      add\n        /* \"#utility.yul\":4992:5018   */\n      swap1\n      pop\n        /* \"#utility.yul\":5064:5073   */\n      dup2\n        /* \"#utility.yul\":5058:5062   */\n      dup2\n        /* \"#utility.yul\":5054:5074   */\n      sub\n        /* \"#utility.yul\":5050:5051   */\n      0x00\n        /* \"#utility.yul\":5039:5048   */\n      dup4\n        /* \"#utility.yul\":5035:5052   */\n      add\n        /* \"#utility.yul\":5028:5075   */\n      mstore\n        /* \"#utility.yul\":5092:5223   */\n      tag_207\n        /* \"#utility.yul\":5218:5222   */\n      dup2\n        /* \"#utility.yul\":5092:5223   */\n      tag_166\n      jump\t// in\n    tag_207:\n        /* \"#utility.yul\":5084:5223   */\n      swap1\n      pop\n        /* \"#utility.yul\":4811:5230   */\n      swap2\n      swap1\n      pop\n      jump\t// out\n        /* \"#utility.yul\":5236:5655   */\n    tag_80:\n        /* \"#utility.yul\":5402:5406   */\n      0x00\n        /* \"#utility.yul\":5440:5442   */\n      0x20\n        /* \"#utility.yul\":5429:5438   */\n      dup3\n        /* \"#utility.yul\":5425:5443   */\n      add\n        /* \"#utility.yul\":5417:5443   */\n      swap1\n      pop\n        /* \"#utility.yul\":5489:5498   */\n      dup2\n        /* \"#utility.yul\":5483:5487   */\n      dup2\n        /* \"#utility.yul\":5479:5499   */\n      sub\n        /* \"#utility.yul\":5475:5476   */\n      0x00\n        /* \"#utility.yul\":5464:5473   */\n      dup4\n        /* \"#utility.yul\":5460:5477   */\n      add\n        /* \"#utility.yul\":5453:5500   */\n      mstore\n        /* \"#utility.yul\":5517:5648   */\n      tag_209\n        /* \"#utility.yul\":5643:5647   */\n      dup2\n        /* \"#utility.yul\":5517:5648   */\n      tag_171\n      jump\t// in\n    tag_209:\n        /* \"#utility.yul\":5509:5648   */\n      swap1\n      pop\n        /* \"#utility.yul\":5236:5655   */\n      swap2\n      swap1\n      pop\n      jump\t// out\n        /* \"#utility.yul\":5661:6080   */\n    tag_84:\n        /* \"#utility.yul\":5827:5831   */\n      0x00\n        /* \"#utility.yul\":5865:5867   */\n      0x20\n        /* \"#utility.yul\":5854:5863   */\n      dup3\n        /* \"#utility.yul\":5850:5868   */\n      add\n        /* \"#utility.yul\":5842:5868   */\n      swap1\n      pop\n        /* \"#utility.yul\":5914:5923   */\n      dup2\n        /* \"#utility.yul\":5908:5912   */\n      dup2\n        /* \"#utility.yul\":5904:5924   */\n      sub\n        /* \"#utility.yul\":5900:5901   */\n      0x00\n        /* \"#utility.yul\":5889:5898   */\n      dup4\n        /* \"#utility.yul\":5885:5902   */\n      add\n        /* \"#utility.yul\":5878:5925   */\n      mstore\n        /* \"#utility.yul\":5942:6073   */\n      tag_211\n        /* \"#utility.yul\":6068:6072   */\n      dup2\n        /* \"#utility.yul\":5942:6073   */\n      tag_176\n      jump\t// in\n    tag_211:\n        /* \"#utility.yul\":5934:6073   */\n      swap1\n      pop\n        /* \"#utility.yul\":5661:6080   */\n      swap2\n      swap1\n      pop\n      jump\t// out\n        /* \"#utility.yul\":6086:6308   */\n    tag_28:\n        /* \"#utility.yul\":6179:6183   */\n      0x00\n        /* \"#utility.yul\":6217:6219   */\n      0x20\n        /* \"#utility.yul\":6206:6215   */\n      dup3\n        /* \"#utility.yul\":6202:6220   */\n      add\n        /* \"#utility.yul\":6194:6220   */\n      swap1\n      pop\n        /* \"#utility.yul\":6230:6301   */\n      tag_213\n        /* \"#utility.yul\":6298:6299   */\n      0x00\n        /* \"#utility.yul\":6287:6296   */\n      dup4\n        /* \"#utility.yul\":6283:6300   */\n      add\n        /* \"#utility.yul\":6274:6280   */\n      dup5\n        /* \"#utility.yul\":6230:6301   */\n      tag_187\n      jump\t// in\n    tag_213:\n        /* \"#utility.yul\":6086:6308   */\n      swap3\n      swap2\n      pop\n      pop\n      jump\t// out\n        /* \"#utility.yul\":6314:6532   */\n    tag_48:\n        /* \"#utility.yul\":6405:6409   */\n      0x00\n        /* \"#utility.yul\":6443:6445   */\n      0x20\n        /* \"#utility.yul\":6432:6441   */\n      dup3\n        /* \"#utility.yul\":6428:6446   */\n      add\n        /* \"#utility.yul\":6420:6446   */\n      swap1\n      pop\n        /* \"#utility.yul\":6456:6525   */\n      tag_215\n        /* \"#utility.yul\":6522:6523   */\n      0x00\n        /* \"#utility.yul\":6511:6520   */\n      dup4\n        /* \"#utility.yul\":6507:6524   */\n      add\n        /* \"#utility.yul\":6498:6504   */\n      dup5\n        /* \"#utility.yul\":6456:6525   */\n      tag_191\n      jump\t// in\n    tag_215:\n        /* \"#utility.yul\":6314:6532   */\n      swap3\n      swap2\n      pop\n      pop\n      jump\t// out\n        /* \"#utility.yul\":6619:6718   */\n    tag_159:\n        /* \"#utility.yul\":6671:6677   */\n      0x00\n        /* \"#utility.yul\":6705:6710   */\n      dup2\n        /* \"#utility.yul\":6699:6711   */\n      mload\n        /* \"#utility.yul\":6689:6711   */\n      swap1\n      pop\n        /* \"#utility.yul\":6619:6718   */\n      swap2\n      swap1\n      pop\n      jump\t// out\n        /* \"#utility.yul\":6724:6871   */\n    tag_184:\n        /* \"#utility.yul\":6825:6836   */\n      0x00\n        /* \"#utility.yul\":6862:6865   */\n      dup2\n        /* \"#utility.yul\":6847:6865   */\n      swap1\n      pop\n        /* \"#utility.yul\":6724:6871   */\n      swap3\n      swap2\n      pop\n      pop\n      jump\t// out\n        /* \"#utility.yul\":6877:7046   */\n    tag_161:\n        /* \"#utility.yul\":6961:6972   */\n      0x00\n        /* \"#utility.yul\":6995:7001   */\n      dup3\n        /* \"#utility.yul\":6990:6993   */\n      dup3\n        /* \"#utility.yul\":6983:7002   */\n      mstore\n        /* \"#utility.yul\":7035:7039   */\n      0x20\n        /* \"#utility.yul\":7030:7033   */\n      dup3\n        /* \"#utility.yul\":7026:7040   */\n      add\n        /* \"#utility.yul\":7011:7040   */\n      swap1\n      pop\n        /* \"#utility.yul\":6877:7046   */\n      swap3\n      swap2\n      pop\n      pop\n      jump\t// out\n        /* \"#utility.yul\":7052:7298   */\n    tag_110:\n        /* \"#utility.yul\":7091:7094   */\n      0x00\n        /* \"#utility.yul\":7110:7129   */\n      tag_222\n        /* \"#utility.yul\":7127:7128   */\n      dup3\n        /* \"#utility.yul\":7110:7129   */\n      tag_194\n      jump\t// in\n    tag_222:\n        /* \"#utility.yul\":7105:7129   */\n      swap2\n      pop\n        /* \"#utility.yul\":7143:7162   */\n      tag_223\n        /* \"#utility.yul\":7160:7161   */\n      dup4\n        /* \"#utility.yul\":7143:7162   */\n      tag_194\n      jump\t// in\n    tag_223:\n        /* \"#utility.yul\":7138:7162   */\n      swap3\n      pop\n        /* \"#utility.yul\":7240:7241   */\n      dup3\n        /* \"#utility.yul\":7228:7238   */\n      0xffffffff\n        /* \"#utility.yul\":7224:7242   */\n      sub\n        /* \"#utility.yul\":7221:7222   */\n      dup3\n        /* \"#utility.yul\":7218:7243   */\n      gt\n        /* \"#utility.yul\":7215:7266   */\n      iszero\n      tag_224\n      jumpi\n        /* \"#utility.yul\":7246:7264   */\n      tag_225\n      tag_226\n      jump\t// in\n    tag_225:\n        /* \"#utility.yul\":7215:7266   */\n    tag_224:\n        /* \"#utility.yul\":7290:7291   */\n      dup3\n        /* \"#utility.yul\":7287:7288   */\n      dup3\n        /* \"#utility.yul\":7283:7292   */\n      add\n        /* \"#utility.yul\":7276:7292   */\n      swap1\n      pop\n        /* \"#utility.yul\":7052:7298   */\n      swap3\n      swap2\n      pop\n      pop\n      jump\t// out\n        /* \"#utility.yul\":7304:7400   */\n    tag_151:\n        /* \"#utility.yul\":7341:7348   */\n      0x00\n        /* \"#utility.yul\":7370:7394   */\n      tag_228\n        /* \"#utility.yul\":7388:7393   */\n      dup3\n        /* \"#utility.yul\":7370:7394   */\n      tag_229\n      jump\t// in\n    tag_228:\n        /* \"#utility.yul\":7359:7394   */\n      swap1\n      pop\n        /* \"#utility.yul\":7304:7400   */\n      swap2\n      swap1\n      pop\n      jump\t// out\n        /* \"#utility.yul\":7406:7496   */\n    tag_155:\n        /* \"#utility.yul\":7440:7447   */\n      0x00\n        /* \"#utility.yul\":7483:7488   */\n      dup2\n        /* \"#utility.yul\":7476:7489   */\n      iszero\n        /* \"#utility.yul\":7469:7490   */\n      iszero\n        /* \"#utility.yul\":7458:7490   */\n      swap1\n      pop\n        /* \"#utility.yul\":7406:7496   */\n      swap2\n      swap1\n      pop\n      jump\t// out\n        /* \"#utility.yul\":7502:7628   */\n    tag_229:\n        /* \"#utility.yul\":7539:7546   */\n      0x00\n        /* \"#utility.yul\":7579:7621   */\n      0xffffffffffffffffffffffffffffffffffffffff\n        /* \"#utility.yul\":7572:7577   */\n      dup3\n        /* \"#utility.yul\":7568:7622   */\n      and\n        /* \"#utility.yul\":7557:7622   */\n      swap1\n      pop\n        /* \"#utility.yul\":7502:7628   */\n      swap2\n      swap1\n      pop\n      jump\t// out\n        /* \"#utility.yul\":7634:7711   */\n    tag_190:\n        /* \"#utility.yul\":7671:7678   */\n      0x00\n        /* \"#utility.yul\":7700:7705   */\n      dup2\n        /* \"#utility.yul\":7689:7705   */\n      swap1\n      pop\n        /* \"#utility.yul\":7634:7711   */\n      swap2\n      swap1\n      pop\n      jump\t// out\n        /* \"#utility.yul\":7717:7810   */\n    tag_194:\n        /* \"#utility.yul\":7753:7760   */\n      0x00\n        /* \"#utility.yul\":7793:7803   */\n      0xffffffff\n        /* \"#utility.yul\":7786:7791   */\n      dup3\n        /* \"#utility.yul\":7782:7804   */\n      and\n        /* \"#utility.yul\":7771:7804   */\n      swap1\n      pop\n        /* \"#utility.yul\":7717:7810   */\n      swap2\n      swap1\n      pop\n      jump\t// out\n        /* \"#utility.yul\":7816:8123   */\n    tag_163:\n        /* \"#utility.yul\":7884:7885   */\n      0x00\n        /* \"#utility.yul\":7894:8007   */\n    tag_235:\n        /* \"#utility.yul\":7908:7914   */\n      dup4\n        /* \"#utility.yul\":7905:7906   */\n      dup2\n        /* \"#utility.yul\":7902:7915   */\n      lt\n        /* \"#utility.yul\":7894:8007   */\n      iszero\n      tag_237\n      jumpi\n        /* \"#utility.yul\":7993:7994   */\n      dup1\n        /* \"#utility.yul\":7988:7991   */\n      dup3\n        /* \"#utility.yul\":7984:7995   */\n      add\n        /* \"#utility.yul\":7978:7996   */\n      mload\n        /* \"#utility.yul\":7974:7975   */\n      dup2\n        /* \"#utility.yul\":7969:7972   */\n      dup5\n        /* \"#utility.yul\":7965:7976   */\n      add\n        /* \"#utility.yul\":7958:7997   */\n      mstore\n        /* \"#utility.yul\":7930:7932   */\n      0x20\n        /* \"#utility.yul\":7927:7928   */\n      dup2\n        /* \"#utility.yul\":7923:7933   */\n      add\n        /* \"#utility.yul\":7918:7933   */\n      swap1\n      pop\n        /* \"#utility.yul\":7894:8007   */\n      jump(tag_235)\n    tag_237:\n        /* \"#utility.yul\":8025:8031   */\n      dup4\n        /* \"#utility.yul\":8022:8023   */\n      dup2\n        /* \"#utility.yul\":8019:8032   */\n      gt\n        /* \"#utility.yul\":8016:8117   */\n      iszero\n      tag_238\n      jumpi\n        /* \"#utility.yul\":8105:8106   */\n      0x00\n        /* \"#utility.yul\":8096:8102   */\n      dup5\n        /* \"#utility.yul\":8091:8094   */\n      dup5\n        /* \"#utility.yul\":8087:8103   */\n      add\n        /* \"#utility.yul\":8080:8107   */\n      mstore\n        /* \"#utility.yul\":8016:8117   */\n    tag_238:\n        /* \"#utility.yul\":7865:8123   */\n      pop\n        /* \"#utility.yul\":7816:8123   */\n      pop\n      pop\n      pop\n      jump\t// out\n        /* \"#utility.yul\":8129:8449   */\n    tag_65:\n        /* \"#utility.yul\":8173:8179   */\n      0x00\n        /* \"#utility.yul\":8210:8211   */\n      0x02\n        /* \"#utility.yul\":8204:8208   */\n      dup3\n        /* \"#utility.yul\":8200:8212   */\n      div\n        /* \"#utility.yul\":8190:8212   */\n      swap1\n      pop\n        /* \"#utility.yul\":8257:8258   */\n      0x01\n        /* \"#utility.yul\":8251:8255   */\n      dup3\n        /* \"#utility.yul\":8247:8259   */\n      and\n        /* \"#utility.yul\":8278:8296   */\n      dup1\n        /* \"#utility.yul\":8268:8349   */\n      tag_240\n      jumpi\n        /* \"#utility.yul\":8334:8338   */\n      0x7f\n        /* \"#utility.yul\":8326:8332   */\n      dup3\n        /* \"#utility.yul\":8322:8339   */\n      and\n        /* \"#utility.yul\":8312:8339   */\n      swap2\n      pop\n        /* \"#utility.yul\":8268:8349   */\n    tag_240:\n        /* \"#utility.yul\":8396:8398   */\n      0x20\n        /* \"#utility.yul\":8388:8394   */\n      dup3\n        /* \"#utility.yul\":8385:8399   */\n      lt\n        /* \"#utility.yul\":8365:8383   */\n      dup2\n        /* \"#utility.yul\":8362:8400   */\n      eq\n        /* \"#utility.yul\":8359:8443   */\n      iszero\n      tag_241\n      jumpi\n        /* \"#utility.yul\":8415:8433   */\n      tag_242\n      tag_243\n      jump\t// in\n    tag_242:\n        /* \"#utility.yul\":8359:8443   */\n    tag_241:\n        /* \"#utility.yul\":8180:8449   */\n      pop\n        /* \"#utility.yul\":8129:8449   */\n      swap2\n      swap1\n      pop\n      jump\t// out\n        /* \"#utility.yul\":8455:8688   */\n    tag_100:\n        /* \"#utility.yul\":8494:8497   */\n      0x00\n        /* \"#utility.yul\":8517:8541   */\n      tag_245\n        /* \"#utility.yul\":8535:8540   */\n      dup3\n        /* \"#utility.yul\":8517:8541   */\n      tag_190\n      jump\t// in\n    tag_245:\n        /* \"#utility.yul\":8508:8541   */\n      swap2\n      pop\n        /* \"#utility.yul\":8563:8629   */\n      0xffffffffffffffffffffffffffffffffffffffffffffffffffffffffffffffff\n        /* \"#utility.yul\":8556:8561   */\n      dup3\n        /* \"#utility.yul\":8553:8630   */\n      eq\n        /* \"#utility.yul\":8550:8653   */\n      iszero\n      tag_246\n      jumpi\n        /* \"#utility.yul\":8633:8651   */\n      tag_247\n      tag_226\n      jump\t// in\n    tag_247:\n        /* \"#utility.yul\":8550:8653   */\n    tag_246:\n        /* \"#utility.yul\":8680:8681   */\n      0x01\n        /* \"#utility.yul\":8673:8678   */\n      dup3\n        /* \"#utility.yul\":8669:8682   */\n      add\n        /* \"#utility.yul\":8662:8682   */\n      swap1\n      pop\n        /* \"#utility.yul\":8455:8688   */\n      swap2\n      swap1\n      pop\n      jump\t// out\n        /* \"#utility.yul\":8694:8874   */\n    tag_226:\n        /* \"#utility.yul\":8742:8819   */\n      0x4e487b7100000000000000000000000000000000000000000000000000000000\n        /* \"#utility.yul\":8739:8740   */\n      0x00\n        /* \"#utility.yul\":8732:8820   */\n      mstore\n        /* \"#utility.yul\":8839:8843   */\n      0x11\n        /* \"#utility.yul\":8836:8837   */\n      0x04\n        /* \"#utility.yul\":8829:8844   */\n      mstore\n        /* \"#utility.yul\":8863:8867   */\n      0x24\n        /* \"#utility.yul\":8860:8861   */\n      0x00\n        /* \"#utility.yul\":8853:8868   */\n      revert\n        /* \"#utility.yul\":8880:9060   */\n    tag_243:\n        /* \"#utility.yul\":8928:9005   */\n      0x4e487b7100000000000000000000000000000000000000000000000000000000\n        /* \"#utility.yul\":8925:8926   */\n      0x00\n        /* \"#utility.yul\":8918:9006   */\n      mstore\n        /* \"#utility.yul\":9025:9029   */\n      0x22\n        /* \"#utility.yul\":9022:9023   */\n      0x04\n        /* \"#utility.yul\":9015:9030   */\n      mstore\n        /* \"#utility.yul\":9049:9053   */\n      0x24\n        /* \"#utility.yul\":9046:9047   */\n      0x00\n        /* \"#utility.yul\":9039:9054   */\n      revert\n        /* \"#utility.yul\":9066:9246   */\n    tag_95:\n        /* \"#utility.yul\":9114:9191   */\n      0x4e487b7100000000000000000000000000000000000000000000000000000000\n        /* \"#utility.yul\":9111:9112   */\n      0x00\n        /* \"#utility.yul\":9104:9192   */\n      mstore\n        /* \"#utility.yul\":9211:9215   */\n      0x32\n        /* \"#utility.yul\":9208:9209   */\n      0x04\n        /* \"#utility.yul\":9201:9216   */\n      mstore\n        /* \"#utility.yul\":9235:9239   */\n      0x24\n        /* \"#utility.yul\":9232:9233   */\n      0x00\n        /* \"#utility.yul\":9225:9240   */\n      revert\n        /* \"#utility.yul\":9375:9492   */\n    tag_142:\n        /* \"#utility.yul\":9484:9485   */\n      0x00\n        /* \"#utility.yul\":9481:9482   */\n      dup1\n        /* \"#utility.yul\":9474:9486   */\n      revert\n        /* \"#utility.yul\":9498:9600   */\n    tag_165:\n        /* \"#utility.yul\":9539:9545   */\n      0x00\n        /* \"#utility.yul\":9590:9592   */\n      0x1f\n        /* \"#utility.yul\":9586:9593   */\n      not\n        /* \"#utility.yul\":9581:9583   */\n      0x1f\n        /* \"#utility.yul\":9574:9579   */\n      dup4\n        /* \"#utility.yul\":9570:9584   */\n      add\n        /* \"#utility.yul\":9566:9594   */\n      and\n        /* \"#utility.yul\":9556:9594   */\n      swap1\n      pop\n        /* \"#utility.yul\":9498:9600   */\n      swap2\n      swap1\n      pop\n      jump\t// out\n        /* \"#utility.yul\":9606:9780   */\n    tag_170:\n        /* \"#utility.yul\":9746:9772   */\n      0x556e61626c6520746f2072656c656173652066756e6473210000000000000000\n        /* \"#utility.yul\":9742:9743   */\n      0x00\n        /* \"#utility.yul\":9734:9740   */\n      dup3\n        /* \"#utility.yul\":9730:9744   */\n      add\n        /* \"#utility.yul\":9723:9773   */\n      mstore\n        /* \"#utility.yul\":9606:9780   */\n      pop\n      jump\t// out\n        /* \"#utility.yul\":9786:9963   */\n    tag_175:\n        /* \"#utility.yul\":9926:9955   */\n      0x5468652043616d706169676e206973206e6f7420616374697665210000000000\n        /* \"#utility.yul\":9922:9923   */\n      0x00\n        /* \"#utility.yul\":9914:9920   */\n      dup3\n        /* \"#utility.yul\":9910:9924   */\n      add\n        /* \"#utility.yul\":9903:9956   */\n      mstore\n        /* \"#utility.yul\":9786:9963   */\n      pop\n      jump\t// out\n        /* \"#utility.yul\":9969:10195   */\n    tag_180:\n        /* \"#utility.yul\":10109:10143   */\n      0x5468652043616d617069676e277320646561646c696e6520686173206e6f7420\n        /* \"#utility.yul\":10105:10106   */\n      0x00\n        /* \"#utility.yul\":10097:10103   */\n      dup3\n        /* \"#utility.yul\":10093:10107   */\n      add\n        /* \"#utility.yul\":10086:10144   */\n      mstore\n        /* \"#utility.yul\":10178:10187   */\n      0x7061737365642100000000000000000000000000000000000000000000000000\n        /* \"#utility.yul\":10173:10175   */\n      0x20\n        /* \"#utility.yul\":10165:10171   */\n      dup3\n        /* \"#utility.yul\":10161:10176   */\n      add\n        /* \"#utility.yul\":10154:10188   */\n      mstore\n        /* \"#utility.yul\":9969:10195   */\n      pop\n      jump\t// out\n        /* \"#utility.yul\":10201:10315   */\n    tag_186:\n      pop\n      jump\t// out\n        /* \"#utility.yul\":10321:10443   */\n    tag_134:\n        /* \"#utility.yul\":10394:10418   */\n      tag_260\n        /* \"#utility.yul\":10412:10417   */\n      dup2\n        /* \"#utility.yul\":10394:10418   */\n      tag_151\n      jump\t// in\n    tag_260:\n        /* \"#utility.yul\":10387:10392   */\n      dup2\n        /* \"#utility.yul\":10384:10419   */\n      eq\n        /* \"#utility.yul\":10374:10437   */\n      tag_261\n      jumpi\n        /* \"#utility.yul\":10433:10434   */\n      0x00\n        /* \"#utility.yul\":10430:10431   */\n      dup1\n        /* \"#utility.yul\":10423:10435   */\n      revert\n        /* \"#utility.yul\":10374:10437   */\n    tag_261:\n        /* \"#utility.yul\":10321:10443   */\n      pop\n      jump\t// out\n        /* \"#utility.yul\":10449:10571   */\n    tag_138:\n        /* \"#utility.yul\":10522:10546   */\n      tag_263\n        /* \"#utility.yul\":10540:10545   */\n      dup2\n        /* \"#utility.yul\":10522:10546   */\n      tag_190\n      jump\t// in\n    tag_263:\n        /* \"#utility.yul\":10515:10520   */\n      dup2\n        /* \"#utility.yul\":10512:10547   */\n      eq\n        /* \"#utility.yul\":10502:10565   */\n      tag_264\n      jumpi\n        /* \"#utility.yul\":10561:10562   */\n      0x00\n        /* \"#utility.yul\":10558:10559   */\n      dup1\n        /* \"#utility.yul\":10551:10563   */\n      revert\n        /* \"#utility.yul\":10502:10565   */\n    tag_264:\n        /* \"#utility.yul\":10449:10571   */\n      pop\n      jump\t// out\n\n    auxdata: 0xa2646970667358221220fd23cd1fa5cafa7e4d89d2bbfb6d391a0aba18d950020343b44dee6124398e5a64736f6c63430008070033\n}\n",
				"bytecode": {
					"linkReferences": {},
					"object": "60e06040523480156200001157600080fd5b506040516200175538038062001755833981810160405281019062000037919062000258565b8473ffffffffffffffffffffffffffffffffffffffff1660808173ffffffffffffffffffffffffffffffffffffffff1660601b81525050836000908051906020019062000086929190620000e5565b5082600190805190602001906200009f929190620000e5565b508163ffffffff1660c08163ffffffff1660e01b815250508060a081815250506001600260046101000a81548160ff02191690831515021790555050505050506200053e565b828054620000f39062000401565b90600052602060002090601f01602090048101928262000117576000855562000163565b82601f106200013257805160ff191683800117855562000163565b8280016001018555821562000163579182015b828111156200016257825182559160200191906001019062000145565b5b50905062000172919062000176565b5090565b5b808211156200019157600081600090555060010162000177565b5090565b6000620001ac620001a68462000347565b6200031e565b905082815260208101848484011115620001cb57620001ca620004d0565b5b620001d8848285620003cb565b509392505050565b600081519050620001f181620004f0565b92915050565b600082601f8301126200020f576200020e620004cb565b5b81516200022184826020860162000195565b91505092915050565b6000815190506200023b816200050a565b92915050565b600081519050620002528162000524565b92915050565b600080600080600060a08688031215620002775762000276620004da565b5b60006200028788828901620001e0565b955050602086015167ffffffffffffffff811115620002ab57620002aa620004d5565b5b620002b988828901620001f7565b945050604086015167ffffffffffffffff811115620002dd57620002dc620004d5565b5b620002eb88828901620001f7565b9350506060620002fe8882890162000241565b925050608062000311888289016200022a565b9150509295509295909350565b60006200032a6200033d565b905062000338828262000437565b919050565b6000604051905090565b600067ffffffffffffffff8211156200036557620003646200049c565b5b6200037082620004df565b9050602081019050919050565b60006200038a8262000391565b9050919050565b600073ffffffffffffffffffffffffffffffffffffffff82169050919050565b6000819050919050565b600063ffffffff82169050919050565b60005b83811015620003eb578082015181840152602081019050620003ce565b83811115620003fb576000848401525b50505050565b600060028204905060018216806200041a57607f821691505b602082108114156200043157620004306200046d565b5b50919050565b6200044282620004df565b810181811067ffffffffffffffff821117156200046457620004636200049c565b5b80604052505050565b7f4e487b7100000000000000000000000000000000000000000000000000000000600052602260045260246000fd5b7f4e487b7100000000000000000000000000000000000000000000000000000000600052604160045260246000fd5b600080fd5b600080fd5b600080fd5b600080fd5b6000601f19601f8301169050919050565b620004fb816200037d565b81146200050757600080fd5b50565b6200051581620003b1565b81146200052157600080fd5b50565b6200052f81620003bb565b81146200053b57600080fd5b50565b60805160601c60a05160c05160e01c6111be62000597600039600081816104210152818161050c015261089b01526000818161030c01526104aa0152600081816103300152818161092501526109f501526111be6000f3fe60806040526004361061009c5760003560e01c80637284e416116100645780637284e4161461018a5780637a3a0e84146101b5578063968ed600146101e0578063a1211bc01461020b578063cc6cb19a14610222578063ed88c68e1461025f5761009c565b806306fdde03146100a157806322f3e2d4146100cc57806329dcb0cf146100f757806338af3eed146101225780634abfa1631461014d575b600080fd5b3480156100ad57600080fd5b506100b6610269565b6040516100c39190610df4565b60405180910390f35b3480156100d857600080fd5b506100e16102f7565b6040516100ee9190610db0565b60405180910390f35b34801561010357600080fd5b5061010c61030a565b6040516101199190610e76565b60405180910390f35b34801561012e57600080fd5b5061013761032e565b6040516101449190610d95565b60405180910390f35b34801561015957600080fd5b50610174600480360381019061016f9190610c52565b610352565b6040516101819190610d95565b60405180910390f35b34801561019657600080fd5b5061019f610391565b6040516101ac9190610df4565b60405180910390f35b3480156101c157600080fd5b506101ca61041f565b6040516101d79190610e91565b60405180910390f35b3480156101ec57600080fd5b506101f5610443565b6040516102029190610e91565b60405180910390f35b34801561021757600080fd5b50610220610459565b005b34801561022e57600080fd5b5061024960048036038101906102449190610c25565b61064e565b6040516102569190610e91565b60405180910390f35b610267610671565b005b6000805461027690610f98565b80601f01602080910402602001604051908101604052809291908181526020018280546102a290610f98565b80156102ef5780601f106102c4576101008083540402835291602001916102ef565b820191906000526020600020905b8154815290600101906020018083116102d257829003601f168201915b505050505081565b600260049054906101000a900460ff1681565b7f000000000000000000000000000000000000000000000000000000000000000081565b7f000000000000000000000000000000000000000000000000000000000000000081565b6004818154811061036257600080fd5b906000526020600020016000915054906101000a900473ffffffffffffffffffffffffffffffffffffffff1681565b6001805461039e90610f98565b80601f01602080910402602001604051908101604052809291908181526020018280546103ca90610f98565b80156104175780601f106103ec57610100808354040283529160200191610417565b820191906000526020600020905b8154815290600101906020018083116103fa57829003601f168201915b505050505081565b7f000000000000000000000000000000000000000000000000000000000000000081565b600260009054906101000a900463ffffffff1681565b600260049054906101000a900460ff166104a8576040517f08c379a000000000000000000000000000000000000000000000000000000000815260040161049f90610e36565b60405180910390fd5b7f0000000000000000000000000000000000000000000000000000000000000000421161050a576040517f08c379a000000000000000000000000000000000000000000000000000000000815260040161050190610e56565b60405180910390fd5b7f000000000000000000000000000000000000000000000000000000000000000063ffffffff16600260009054906101000a900463ffffffff1663ffffffff161061055c576105576108da565b61064c565b6000600260046101000a81548160ff02191690831515021790555060005b6004805490508110156105e75760006004828154811061059d5761059c611071565b5b9060005260206000200160009054906101000a900473ffffffffffffffffffffffffffffffffffffffff1690506105d381610ab6565b5080806105df90610fca565b91505061057a565b503073ffffffffffffffffffffffffffffffffffffffff167f5be9d52eb6d0b698732f8dd5b5f6ad6c44215f77691d4ea4ab0e04ded81e4e0c6000600260009054906101000a900463ffffffff16604051610643929190610dcb565b60405180910390a25b565b60036020528060005260406000206000915054906101000a900463ffffffff1681565b600260049054906101000a900460ff166106c0576040517f08c379a00000000000000000000000000000000000000000000000000000000081526004016106b790610e36565b60405180910390fd5b600033905060003490506000600360008473ffffffffffffffffffffffffffffffffffffffff1673ffffffffffffffffffffffffffffffffffffffff16815260200190815260200160002060009054906101000a900463ffffffff1663ffffffff16141561078c576004829080600181540180825580915050600190039060005260206000200160009091909190916101000a81548173ffffffffffffffffffffffffffffffffffffffff021916908373ffffffffffffffffffffffffffffffffffffffff1602179055505b80600360008473ffffffffffffffffffffffffffffffffffffffff1673ffffffffffffffffffffffffffffffffffffffff16815260200190815260200160002060008282829054906101000a900463ffffffff166107ea9190610ed3565b92506101000a81548163ffffffff021916908363ffffffff160217905550600081600260009054906101000a900463ffffffff166108289190610ed3565b905080600260006101000a81548163ffffffff021916908363ffffffff1602179055508273ffffffffffffffffffffffffffffffffffffffff167f1c839185b36728265e815fdead3a2012225928c409ed744579e8b61d174bda21836040516108919190610e91565b60405180910390a27f000000000000000000000000000000000000000000000000000000000000000063ffffffff168163ffffffff16106108d5576108d46108da565b5b505050565b6000600260009054906101000a900463ffffffff169050600260006101000a81549063ffffffff02191690556000600260046101000a81548160ff02191690831515021790555060007f000000000000000000000000000000000000000000000000000000000000000073ffffffffffffffffffffffffffffffffffffffff168263ffffffff1660405161096d90610d80565b60006040518083038185875af1925050503d80600081146109aa576040519150601f19603f3d011682016040523d82523d6000602084013e6109af565b606091505b50509050806109f3576040517f08c379a00000000000000000000000000000000000000000000000000000000081526004016109ea90610e16565b60405180910390fd5b7f000000000000000000000000000000000000000000000000000000000000000073ffffffffffffffffffffffffffffffffffffffff167f3de67bb1992e4f254de509dfd7561f97d65e2171867167fbfb7bc25dfa4b228483604051610a599190610e91565b60405180910390a23073ffffffffffffffffffffffffffffffffffffffff167f5be9d52eb6d0b698732f8dd5b5f6ad6c44215f77691d4ea4ab0e04ded81e4e0c600184604051610aaa929190610dcb565b60405180910390a25050565b6000600360008373ffffffffffffffffffffffffffffffffffffffff1673ffffffffffffffffffffffffffffffffffffffff16815260200190815260200160002060009054906101000a900463ffffffff169050600360008373ffffffffffffffffffffffffffffffffffffffff1673ffffffffffffffffffffffffffffffffffffffff16815260200190815260200160002060006101000a81549063ffffffff02191690558173ffffffffffffffffffffffffffffffffffffffff166108fc8263ffffffff169081150290604051600060405180830381858888f19350505050158015610ba8573d6000803e3d6000fd5b508173ffffffffffffffffffffffffffffffffffffffff167f877e2ec1ec7e8ca17f5b4ff704deaa59c7a56addd4bed9c0bdd38a20afb6d33e82604051610bef9190610e91565b60405180910390a25050565b600081359050610c0a8161115a565b92915050565b600081359050610c1f81611171565b92915050565b600060208284031215610c3b57610c3a6110a0565b5b6000610c4984828501610bfb565b91505092915050565b600060208284031215610c6857610c676110a0565b5b6000610c7684828501610c10565b91505092915050565b610c8881610f0d565b82525050565b610c9781610f1f565b82525050565b6000610ca882610eac565b610cb28185610ec2565b9350610cc2818560208601610f65565b610ccb816110a5565b840191505092915050565b6000610ce3601883610ec2565b9150610cee826110b6565b602082019050919050565b6000610d06601b83610ec2565b9150610d11826110df565b602082019050919050565b6000610d29602783610ec2565b9150610d3482611108565b604082019050919050565b6000610d4c600083610eb7565b9150610d5782611157565b600082019050919050565b610d6b81610f4b565b82525050565b610d7a81610f55565b82525050565b6000610d8b82610d3f565b9150819050919050565b6000602082019050610daa6000830184610c7f565b92915050565b6000602082019050610dc56000830184610c8e565b92915050565b6000604082019050610de06000830185610c8e565b610ded6020830184610d71565b9392505050565b60006020820190508181036000830152610e0e8184610c9d565b905092915050565b60006020820190508181036000830152610e2f81610cd6565b9050919050565b60006020820190508181036000830152610e4f81610cf9565b9050919050565b60006020820190508181036000830152610e6f81610d1c565b9050919050565b6000602082019050610e8b6000830184610d62565b92915050565b6000602082019050610ea66000830184610d71565b92915050565b600081519050919050565b600081905092915050565b600082825260208201905092915050565b6000610ede82610f55565b9150610ee983610f55565b92508263ffffffff03821115610f0257610f01611013565b5b828201905092915050565b6000610f1882610f2b565b9050919050565b60008115159050919050565b600073ffffffffffffffffffffffffffffffffffffffff82169050919050565b6000819050919050565b600063ffffffff82169050919050565b60005b83811015610f83578082015181840152602081019050610f68565b83811115610f92576000848401525b50505050565b60006002820490506001821680610fb057607f821691505b60208210811415610fc457610fc3611042565b5b50919050565b6000610fd582610f4b565b91507fffffffffffffffffffffffffffffffffffffffffffffffffffffffffffffffff82141561100857611007611013565b5b600182019050919050565b7f4e487b7100000000000000000000000000000000000000000000000000000000600052601160045260246000fd5b7f4e487b7100000000000000000000000000000000000000000000000000000000600052602260045260246000fd5b7f4e487b7100000000000000000000000000000000000000000000000000000000600052603260045260246000fd5b600080fd5b6000601f19601f8301169050919050565b7f556e61626c6520746f2072656c656173652066756e6473210000000000000000600082015250565b7f5468652043616d706169676e206973206e6f7420616374697665210000000000600082015250565b7f5468652043616d617069676e277320646561646c696e6520686173206e6f742060008201527f7061737365642100000000000000000000000000000000000000000000000000602082015250565b50565b61116381610f0d565b811461116e57600080fd5b50565b61117a81610f4b565b811461118557600080fd5b5056fea2646970667358221220fd23cd1fa5cafa7e4d89d2bbfb6d391a0aba18d950020343b44dee6124398e5a64736f6c63430008070033",
					"opcodes": "PUSH1 0xE0 PUSH1 0x40 MSTORE CALLVALUE DUP1 ISZERO PUSH3 0x11 JUMPI PUSH1 0x0 DUP1 REVERT JUMPDEST POP PUSH1 0x40 MLOAD PUSH3 0x1755 CODESIZE SUB DUP1 PUSH3 0x1755 DUP4 CODECOPY DUP2 DUP2 ADD PUSH1 0x40 MSTORE DUP2 ADD SWAP1 PUSH3 0x37 SWAP2 SWAP1 PUSH3 0x258 JUMP JUMPDEST DUP5 PUSH20 0xFFFFFFFFFFFFFFFFFFFFFFFFFFFFFFFFFFFFFFFF AND PUSH1 0x80 DUP2 PUSH20 0xFFFFFFFFFFFFFFFFFFFFFFFFFFFFFFFFFFFFFFFF AND PUSH1 0x60 SHL DUP2 MSTORE POP POP DUP4 PUSH1 0x0 SWAP1 DUP1 MLOAD SWAP1 PUSH1 0x20 ADD SWAP1 PUSH3 0x86 SWAP3 SWAP2 SWAP1 PUSH3 0xE5 JUMP JUMPDEST POP DUP3 PUSH1 0x1 SWAP1 DUP1 MLOAD SWAP1 PUSH1 0x20 ADD SWAP1 PUSH3 0x9F SWAP3 SWAP2 SWAP1 PUSH3 0xE5 JUMP JUMPDEST POP DUP2 PUSH4 0xFFFFFFFF AND PUSH1 0xC0 DUP2 PUSH4 0xFFFFFFFF AND PUSH1 0xE0 SHL DUP2 MSTORE POP POP DUP1 PUSH1 0xA0 DUP2 DUP2 MSTORE POP POP PUSH1 0x1 PUSH1 0x2 PUSH1 0x4 PUSH2 0x100 EXP DUP2 SLOAD DUP2 PUSH1 0xFF MUL NOT AND SWAP1 DUP4 ISZERO ISZERO MUL OR SWAP1 SSTORE POP POP POP POP POP POP PUSH3 0x53E JUMP JUMPDEST DUP3 DUP1 SLOAD PUSH3 0xF3 SWAP1 PUSH3 0x401 JUMP JUMPDEST SWAP1 PUSH1 0x0 MSTORE PUSH1 0x20 PUSH1 0x0 KECCAK256 SWAP1 PUSH1 0x1F ADD PUSH1 0x20 SWAP1 DIV DUP2 ADD SWAP3 DUP3 PUSH3 0x117 JUMPI PUSH1 0x0 DUP6 SSTORE PUSH3 0x163 JUMP JUMPDEST DUP3 PUSH1 0x1F LT PUSH3 0x132 JUMPI DUP1 MLOAD PUSH1 0xFF NOT AND DUP4 DUP1 ADD OR DUP6 SSTORE PUSH3 0x163 JUMP JUMPDEST DUP3 DUP1 ADD PUSH1 0x1 ADD DUP6 SSTORE DUP3 ISZERO PUSH3 0x163 JUMPI SWAP2 DUP3 ADD JUMPDEST DUP3 DUP2 GT ISZERO PUSH3 0x162 JUMPI DUP3 MLOAD DUP3 SSTORE SWAP2 PUSH1 0x20 ADD SWAP2 SWAP1 PUSH1 0x1 ADD SWAP1 PUSH3 0x145 JUMP JUMPDEST JUMPDEST POP SWAP1 POP PUSH3 0x172 SWAP2 SWAP1 PUSH3 0x176 JUMP JUMPDEST POP SWAP1 JUMP JUMPDEST JUMPDEST DUP1 DUP3 GT ISZERO PUSH3 0x191 JUMPI PUSH1 0x0 DUP2 PUSH1 0x0 SWAP1 SSTORE POP PUSH1 0x1 ADD PUSH3 0x177 JUMP JUMPDEST POP SWAP1 JUMP JUMPDEST PUSH1 0x0 PUSH3 0x1AC PUSH3 0x1A6 DUP5 PUSH3 0x347 JUMP JUMPDEST PUSH3 0x31E JUMP JUMPDEST SWAP1 POP DUP3 DUP2 MSTORE PUSH1 0x20 DUP2 ADD DUP5 DUP5 DUP5 ADD GT ISZERO PUSH3 0x1CB JUMPI PUSH3 0x1CA PUSH3 0x4D0 JUMP JUMPDEST JUMPDEST PUSH3 0x1D8 DUP5 DUP3 DUP6 PUSH3 0x3CB JUMP JUMPDEST POP SWAP4 SWAP3 POP POP POP JUMP JUMPDEST PUSH1 0x0 DUP2 MLOAD SWAP1 POP PUSH3 0x1F1 DUP2 PUSH3 0x4F0 JUMP JUMPDEST SWAP3 SWAP2 POP POP JUMP JUMPDEST PUSH1 0x0 DUP3 PUSH1 0x1F DUP4 ADD SLT PUSH3 0x20F JUMPI PUSH3 0x20E PUSH3 0x4CB JUMP JUMPDEST JUMPDEST DUP2 MLOAD PUSH3 0x221 DUP5 DUP3 PUSH1 0x20 DUP7 ADD PUSH3 0x195 JUMP JUMPDEST SWAP2 POP POP SWAP3 SWAP2 POP POP JUMP JUMPDEST PUSH1 0x0 DUP2 MLOAD SWAP1 POP PUSH3 0x23B DUP2 PUSH3 0x50A JUMP JUMPDEST SWAP3 SWAP2 POP POP JUMP JUMPDEST PUSH1 0x0 DUP2 MLOAD SWAP1 POP PUSH3 0x252 DUP2 PUSH3 0x524 JUMP JUMPDEST SWAP3 SWAP2 POP POP JUMP JUMPDEST PUSH1 0x0 DUP1 PUSH1 0x0 DUP1 PUSH1 0x0 PUSH1 0xA0 DUP7 DUP9 SUB SLT ISZERO PUSH3 0x277 JUMPI PUSH3 0x276 PUSH3 0x4DA JUMP JUMPDEST JUMPDEST PUSH1 0x0 PUSH3 0x287 DUP9 DUP3 DUP10 ADD PUSH3 0x1E0 JUMP JUMPDEST SWAP6 POP POP PUSH1 0x20 DUP7 ADD MLOAD PUSH8 0xFFFFFFFFFFFFFFFF DUP2 GT ISZERO PUSH3 0x2AB JUMPI PUSH3 0x2AA PUSH3 0x4D5 JUMP JUMPDEST JUMPDEST PUSH3 0x2B9 DUP9 DUP3 DUP10 ADD PUSH3 0x1F7 JUMP JUMPDEST SWAP5 POP POP PUSH1 0x40 DUP7 ADD MLOAD PUSH8 0xFFFFFFFFFFFFFFFF DUP2 GT ISZERO PUSH3 0x2DD JUMPI PUSH3 0x2DC PUSH3 0x4D5 JUMP JUMPDEST JUMPDEST PUSH3 0x2EB DUP9 DUP3 DUP10 ADD PUSH3 0x1F7 JUMP JUMPDEST SWAP4 POP POP PUSH1 0x60 PUSH3 0x2FE DUP9 DUP3 DUP10 ADD PUSH3 0x241 JUMP JUMPDEST SWAP3 POP POP PUSH1 0x80 PUSH3 0x311 DUP9 DUP3 DUP10 ADD PUSH3 0x22A JUMP JUMPDEST SWAP2 POP POP SWAP3 SWAP6 POP SWAP3 SWAP6 SWAP1 SWAP4 POP JUMP JUMPDEST PUSH1 0x0 PUSH3 0x32A PUSH3 0x33D JUMP JUMPDEST SWAP1 POP PUSH3 0x338 DUP3 DUP3 PUSH3 0x437 JUMP JUMPDEST SWAP2 SWAP1 POP JUMP JUMPDEST PUSH1 0x0 PUSH1 0x40 MLOAD SWAP1 POP SWAP1 JUMP JUMPDEST PUSH1 0x0 PUSH8 0xFFFFFFFFFFFFFFFF DUP3 GT ISZERO PUSH3 0x365 JUMPI PUSH3 0x364 PUSH3 0x49C JUMP JUMPDEST JUMPDEST PUSH3 0x370 DUP3 PUSH3 0x4DF JUMP JUMPDEST SWAP1 POP PUSH1 0x20 DUP2 ADD SWAP1 POP SWAP2 SWAP1 POP JUMP JUMPDEST PUSH1 0x0 PUSH3 0x38A DUP3 PUSH3 0x391 JUMP JUMPDEST SWAP1 POP SWAP2 SWAP1 POP JUMP JUMPDEST PUSH1 0x0 PUSH20 0xFFFFFFFFFFFFFFFFFFFFFFFFFFFFFFFFFFFFFFFF DUP3 AND SWAP1 POP SWAP2 SWAP1 POP JUMP JUMPDEST PUSH1 0x0 DUP2 SWAP1 POP SWAP2 SWAP1 POP JUMP JUMPDEST PUSH1 0x0 PUSH4 0xFFFFFFFF DUP3 AND SWAP1 POP SWAP2 SWAP1 POP JUMP JUMPDEST PUSH1 0x0 JUMPDEST DUP4 DUP2 LT ISZERO PUSH3 0x3EB JUMPI DUP1 DUP3 ADD MLOAD DUP2 DUP5 ADD MSTORE PUSH1 0x20 DUP2 ADD SWAP1 POP PUSH3 0x3CE JUMP JUMPDEST DUP4 DUP2 GT ISZERO PUSH3 0x3FB JUMPI PUSH1 0x0 DUP5 DUP5 ADD MSTORE JUMPDEST POP POP POP POP JUMP JUMPDEST PUSH1 0x0 PUSH1 0x2 DUP3 DIV SWAP1 POP PUSH1 0x1 DUP3 AND DUP1 PUSH3 0x41A JUMPI PUSH1 0x7F DUP3 AND SWAP2 POP JUMPDEST PUSH1 0x20 DUP3 LT DUP2 EQ ISZERO PUSH3 0x431 JUMPI PUSH3 0x430 PUSH3 0x46D JUMP JUMPDEST JUMPDEST POP SWAP2 SWAP1 POP JUMP JUMPDEST PUSH3 0x442 DUP3 PUSH3 0x4DF JUMP JUMPDEST DUP2 ADD DUP2 DUP2 LT PUSH8 0xFFFFFFFFFFFFFFFF DUP3 GT OR ISZERO PUSH3 0x464 JUMPI PUSH3 0x463 PUSH3 0x49C JUMP JUMPDEST JUMPDEST DUP1 PUSH1 0x40 MSTORE POP POP POP JUMP JUMPDEST PUSH32 0x4E487B7100000000000000000000000000000000000000000000000000000000 PUSH1 0x0 MSTORE PUSH1 0x22 PUSH1 0x4 MSTORE PUSH1 0x24 PUSH1 0x0 REVERT JUMPDEST PUSH32 0x4E487B7100000000000000000000000000000000000000000000000000000000 PUSH1 0x0 MSTORE PUSH1 0x41 PUSH1 0x4 MSTORE PUSH1 0x24 PUSH1 0x0 REVERT JUMPDEST PUSH1 0x0 DUP1 REVERT JUMPDEST PUSH1 0x0 DUP1 REVERT JUMPDEST PUSH1 0x0 DUP1 REVERT JUMPDEST PUSH1 0x0 DUP1 REVERT JUMPDEST PUSH1 0x0 PUSH1 0x1F NOT PUSH1 0x1F DUP4 ADD AND SWAP1 POP SWAP2 SWAP1 POP JUMP JUMPDEST PUSH3 0x4FB DUP2 PUSH3 0x37D JUMP JUMPDEST DUP2 EQ PUSH3 0x507 JUMPI PUSH1 0x0 DUP1 REVERT JUMPDEST POP JUMP JUMPDEST PUSH3 0x515 DUP2 PUSH3 0x3B1 JUMP JUMPDEST DUP2 EQ PUSH3 0x521 JUMPI PUSH1 0x0 DUP1 REVERT JUMPDEST POP JUMP JUMPDEST PUSH3 0x52F DUP2 PUSH3 0x3BB JUMP JUMPDEST DUP2 EQ PUSH3 0x53B JUMPI PUSH1 0x0 DUP1 REVERT JUMPDEST POP JUMP JUMPDEST PUSH1 0x80 MLOAD PUSH1 0x60 SHR PUSH1 0xA0 MLOAD PUSH1 0xC0 MLOAD PUSH1 0xE0 SHR PUSH2 0x11BE PUSH3 0x597 PUSH1 0x0 CODECOPY PUSH1 0x0 DUP2 DUP2 PUSH2 0x421 ADD MSTORE DUP2 DUP2 PUSH2 0x50C ADD MSTORE PUSH2 0x89B ADD MSTORE PUSH1 0x0 DUP2 DUP2 PUSH2 0x30C ADD MSTORE PUSH2 0x4AA ADD MSTORE PUSH1 0x0 DUP2 DUP2 PUSH2 0x330 ADD MSTORE DUP2 DUP2 PUSH2 0x925 ADD MSTORE PUSH2 0x9F5 ADD MSTORE PUSH2 0x11BE PUSH1 0x0 RETURN INVALID PUSH1 0x80 PUSH1 0x40 MSTORE PUSH1 0x4 CALLDATASIZE LT PUSH2 0x9C JUMPI PUSH1 0x0 CALLDATALOAD PUSH1 0xE0 SHR DUP1 PUSH4 0x7284E416 GT PUSH2 0x64 JUMPI DUP1 PUSH4 0x7284E416 EQ PUSH2 0x18A JUMPI DUP1 PUSH4 0x7A3A0E84 EQ PUSH2 0x1B5 JUMPI DUP1 PUSH4 0x968ED600 EQ PUSH2 0x1E0 JUMPI DUP1 PUSH4 0xA1211BC0 EQ PUSH2 0x20B JUMPI DUP1 PUSH4 0xCC6CB19A EQ PUSH2 0x222 JUMPI DUP1 PUSH4 0xED88C68E EQ PUSH2 0x25F JUMPI PUSH2 0x9C JUMP JUMPDEST DUP1 PUSH4 0x6FDDE03 EQ PUSH2 0xA1 JUMPI DUP1 PUSH4 0x22F3E2D4 EQ PUSH2 0xCC JUMPI DUP1 PUSH4 0x29DCB0CF EQ PUSH2 0xF7 JUMPI DUP1 PUSH4 0x38AF3EED EQ PUSH2 0x122 JUMPI DUP1 PUSH4 0x4ABFA163 EQ PUSH2 0x14D JUMPI JUMPDEST PUSH1 0x0 DUP1 REVERT JUMPDEST CALLVALUE DUP1 ISZERO PUSH2 0xAD JUMPI PUSH1 0x0 DUP1 REVERT JUMPDEST POP PUSH2 0xB6 PUSH2 0x269 JUMP JUMPDEST PUSH1 0x40 MLOAD PUSH2 0xC3 SWAP2 SWAP1 PUSH2 0xDF4 JUMP JUMPDEST PUSH1 0x40 MLOAD DUP1 SWAP2 SUB SWAP1 RETURN JUMPDEST CALLVALUE DUP1 ISZERO PUSH2 0xD8 JUMPI PUSH1 0x0 DUP1 REVERT JUMPDEST POP PUSH2 0xE1 PUSH2 0x2F7 JUMP JUMPDEST PUSH1 0x40 MLOAD PUSH2 0xEE SWAP2 SWAP1 PUSH2 0xDB0 JUMP JUMPDEST PUSH1 0x40 MLOAD DUP1 SWAP2 SUB SWAP1 RETURN JUMPDEST CALLVALUE DUP1 ISZERO PUSH2 0x103 JUMPI PUSH1 0x0 DUP1 REVERT JUMPDEST POP PUSH2 0x10C PUSH2 0x30A JUMP JUMPDEST PUSH1 0x40 MLOAD PUSH2 0x119 SWAP2 SWAP1 PUSH2 0xE76 JUMP JUMPDEST PUSH1 0x40 MLOAD DUP1 SWAP2 SUB SWAP1 RETURN JUMPDEST CALLVALUE DUP1 ISZERO PUSH2 0x12E JUMPI PUSH1 0x0 DUP1 REVERT JUMPDEST POP PUSH2 0x137 PUSH2 0x32E JUMP JUMPDEST PUSH1 0x40 MLOAD PUSH2 0x144 SWAP2 SWAP1 PUSH2 0xD95 JUMP JUMPDEST PUSH1 0x40 MLOAD DUP1 SWAP2 SUB SWAP1 RETURN JUMPDEST CALLVALUE DUP1 ISZERO PUSH2 0x159 JUMPI PUSH1 0x0 DUP1 REVERT JUMPDEST POP PUSH2 0x174 PUSH1 0x4 DUP1 CALLDATASIZE SUB DUP2 ADD SWAP1 PUSH2 0x16F SWAP2 SWAP1 PUSH2 0xC52 JUMP JUMPDEST PUSH2 0x352 JUMP JUMPDEST PUSH1 0x40 MLOAD PUSH2 0x181 SWAP2 SWAP1 PUSH2 0xD95 JUMP JUMPDEST PUSH1 0x40 MLOAD DUP1 SWAP2 SUB SWAP1 RETURN JUMPDEST CALLVALUE DUP1 ISZERO PUSH2 0x196 JUMPI PUSH1 0x0 DUP1 REVERT JUMPDEST POP PUSH2 0x19F PUSH2 0x391 JUMP JUMPDEST PUSH1 0x40 MLOAD PUSH2 0x1AC SWAP2 SWAP1 PUSH2 0xDF4 JUMP JUMPDEST PUSH1 0x40 MLOAD DUP1 SWAP2 SUB SWAP1 RETURN JUMPDEST CALLVALUE DUP1 ISZERO PUSH2 0x1C1 JUMPI PUSH1 0x0 DUP1 REVERT JUMPDEST POP PUSH2 0x1CA PUSH2 0x41F JUMP JUMPDEST PUSH1 0x40 MLOAD PUSH2 0x1D7 SWAP2 SWAP1 PUSH2 0xE91 JUMP JUMPDEST PUSH1 0x40 MLOAD DUP1 SWAP2 SUB SWAP1 RETURN JUMPDEST CALLVALUE DUP1 ISZERO PUSH2 0x1EC JUMPI PUSH1 0x0 DUP1 REVERT JUMPDEST POP PUSH2 0x1F5 PUSH2 0x443 JUMP JUMPDEST PUSH1 0x40 MLOAD PUSH2 0x202 SWAP2 SWAP1 PUSH2 0xE91 JUMP JUMPDEST PUSH1 0x40 MLOAD DUP1 SWAP2 SUB SWAP1 RETURN JUMPDEST CALLVALUE DUP1 ISZERO PUSH2 0x217 JUMPI PUSH1 0x0 DUP1 REVERT JUMPDEST POP PUSH2 0x220 PUSH2 0x459 JUMP JUMPDEST STOP JUMPDEST CALLVALUE DUP1 ISZERO PUSH2 0x22E JUMPI PUSH1 0x0 DUP1 REVERT JUMPDEST POP PUSH2 0x249 PUSH1 0x4 DUP1 CALLDATASIZE SUB DUP2 ADD SWAP1 PUSH2 0x244 SWAP2 SWAP1 PUSH2 0xC25 JUMP JUMPDEST PUSH2 0x64E JUMP JUMPDEST PUSH1 0x40 MLOAD PUSH2 0x256 SWAP2 SWAP1 PUSH2 0xE91 JUMP JUMPDEST PUSH1 0x40 MLOAD DUP1 SWAP2 SUB SWAP1 RETURN JUMPDEST PUSH2 0x267 PUSH2 0x671 JUMP JUMPDEST STOP JUMPDEST PUSH1 0x0 DUP1 SLOAD PUSH2 0x276 SWAP1 PUSH2 0xF98 JUMP JUMPDEST DUP1 PUSH1 0x1F ADD PUSH1 0x20 DUP1 SWAP2 DIV MUL PUSH1 0x20 ADD PUSH1 0x40 MLOAD SWAP1 DUP2 ADD PUSH1 0x40 MSTORE DUP1 SWAP3 SWAP2 SWAP1 DUP2 DUP2 MSTORE PUSH1 0x20 ADD DUP3 DUP1 SLOAD PUSH2 0x2A2 SWAP1 PUSH2 0xF98 JUMP JUMPDEST DUP1 ISZERO PUSH2 0x2EF JUMPI DUP1 PUSH1 0x1F LT PUSH2 0x2C4 JUMPI PUSH2 0x100 DUP1 DUP4 SLOAD DIV MUL DUP4 MSTORE SWAP2 PUSH1 0x20 ADD SWAP2 PUSH2 0x2EF JUMP JUMPDEST DUP3 ADD SWAP2 SWAP1 PUSH1 0x0 MSTORE PUSH1 0x20 PUSH1 0x0 KECCAK256 SWAP1 JUMPDEST DUP2 SLOAD DUP2 MSTORE SWAP1 PUSH1 0x1 ADD SWAP1 PUSH1 0x20 ADD DUP1 DUP4 GT PUSH2 0x2D2 JUMPI DUP3 SWAP1 SUB PUSH1 0x1F AND DUP3 ADD SWAP2 JUMPDEST POP POP POP POP POP DUP2 JUMP JUMPDEST PUSH1 0x2 PUSH1 0x4 SWAP1 SLOAD SWAP1 PUSH2 0x100 EXP SWAP1 DIV PUSH1 0xFF AND DUP2 JUMP JUMPDEST PUSH32 0x0 DUP2 JUMP JUMPDEST PUSH32 0x0 DUP2 JUMP JUMPDEST PUSH1 0x4 DUP2 DUP2 SLOAD DUP2 LT PUSH2 0x362 JUMPI PUSH1 0x0 DUP1 REVERT JUMPDEST SWAP1 PUSH1 0x0 MSTORE PUSH1 0x20 PUSH1 0x0 KECCAK256 ADD PUSH1 0x0 SWAP2 POP SLOAD SWAP1 PUSH2 0x100 EXP SWAP1 DIV PUSH20 0xFFFFFFFFFFFFFFFFFFFFFFFFFFFFFFFFFFFFFFFF AND DUP2 JUMP JUMPDEST PUSH1 0x1 DUP1 SLOAD PUSH2 0x39E SWAP1 PUSH2 0xF98 JUMP JUMPDEST DUP1 PUSH1 0x1F ADD PUSH1 0x20 DUP1 SWAP2 DIV MUL PUSH1 0x20 ADD PUSH1 0x40 MLOAD SWAP1 DUP2 ADD PUSH1 0x40 MSTORE DUP1 SWAP3 SWAP2 SWAP1 DUP2 DUP2 MSTORE PUSH1 0x20 ADD DUP3 DUP1 SLOAD PUSH2 0x3CA SWAP1 PUSH2 0xF98 JUMP JUMPDEST DUP1 ISZERO PUSH2 0x417 JUMPI DUP1 PUSH1 0x1F LT PUSH2 0x3EC JUMPI PUSH2 0x100 DUP1 DUP4 SLOAD DIV MUL DUP4 MSTORE SWAP2 PUSH1 0x20 ADD SWAP2 PUSH2 0x417 JUMP JUMPDEST DUP3 ADD SWAP2 SWAP1 PUSH1 0x0 MSTORE PUSH1 0x20 PUSH1 0x0 KECCAK256 SWAP1 JUMPDEST DUP2 SLOAD DUP2 MSTORE SWAP1 PUSH1 0x1 ADD SWAP1 PUSH1 0x20 ADD DUP1 DUP4 GT PUSH2 0x3FA JUMPI DUP3 SWAP1 SUB PUSH1 0x1F AND DUP3 ADD SWAP2 JUMPDEST POP POP POP POP POP DUP2 JUMP JUMPDEST PUSH32 0x0 DUP2 JUMP JUMPDEST PUSH1 0x2 PUSH1 0x0 SWAP1 SLOAD SWAP1 PUSH2 0x100 EXP SWAP1 DIV PUSH4 0xFFFFFFFF AND DUP2 JUMP JUMPDEST PUSH1 0x2 PUSH1 0x4 SWAP1 SLOAD SWAP1 PUSH2 0x100 EXP SWAP1 DIV PUSH1 0xFF AND PUSH2 0x4A8 JUMPI PUSH1 0x40 MLOAD PUSH32 0x8C379A000000000000000000000000000000000000000000000000000000000 DUP2 MSTORE PUSH1 0x4 ADD PUSH2 0x49F SWAP1 PUSH2 0xE36 JUMP JUMPDEST PUSH1 0x40 MLOAD DUP1 SWAP2 SUB SWAP1 REVERT JUMPDEST PUSH32 0x0 TIMESTAMP GT PUSH2 0x50A JUMPI PUSH1 0x40 MLOAD PUSH32 0x8C379A000000000000000000000000000000000000000000000000000000000 DUP2 MSTORE PUSH1 0x4 ADD PUSH2 0x501 SWAP1 PUSH2 0xE56 JUMP JUMPDEST PUSH1 0x40 MLOAD DUP1 SWAP2 SUB SWAP1 REVERT JUMPDEST PUSH32 0x0 PUSH4 0xFFFFFFFF AND PUSH1 0x2 PUSH1 0x0 SWAP1 SLOAD SWAP1 PUSH2 0x100 EXP SWAP1 DIV PUSH4 0xFFFFFFFF AND PUSH4 0xFFFFFFFF AND LT PUSH2 0x55C JUMPI PUSH2 0x557 PUSH2 0x8DA JUMP JUMPDEST PUSH2 0x64C JUMP JUMPDEST PUSH1 0x0 PUSH1 0x2 PUSH1 0x4 PUSH2 0x100 EXP DUP2 SLOAD DUP2 PUSH1 0xFF MUL NOT AND SWAP1 DUP4 ISZERO ISZERO MUL OR SWAP1 SSTORE POP PUSH1 0x0 JUMPDEST PUSH1 0x4 DUP1 SLOAD SWAP1 POP DUP2 LT ISZERO PUSH2 0x5E7 JUMPI PUSH1 0x0 PUSH1 0x4 DUP3 DUP2 SLOAD DUP2 LT PUSH2 0x59D JUMPI PUSH2 0x59C PUSH2 0x1071 JUMP JUMPDEST JUMPDEST SWAP1 PUSH1 0x0 MSTORE PUSH1 0x20 PUSH1 0x0 KECCAK256 ADD PUSH1 0x0 SWAP1 SLOAD SWAP1 PUSH2 0x100 EXP SWAP1 DIV PUSH20 0xFFFFFFFFFFFFFFFFFFFFFFFFFFFFFFFFFFFFFFFF AND SWAP1 POP PUSH2 0x5D3 DUP2 PUSH2 0xAB6 JUMP JUMPDEST POP DUP1 DUP1 PUSH2 0x5DF SWAP1 PUSH2 0xFCA JUMP JUMPDEST SWAP2 POP POP PUSH2 0x57A JUMP JUMPDEST POP ADDRESS PUSH20 0xFFFFFFFFFFFFFFFFFFFFFFFFFFFFFFFFFFFFFFFF AND PUSH32 0x5BE9D52EB6D0B698732F8DD5B5F6AD6C44215F77691D4EA4AB0E04DED81E4E0C PUSH1 0x0 PUSH1 0x2 PUSH1 0x0 SWAP1 SLOAD SWAP1 PUSH2 0x100 EXP SWAP1 DIV PUSH4 0xFFFFFFFF AND PUSH1 0x40 MLOAD PUSH2 0x643 SWAP3 SWAP2 SWAP1 PUSH2 0xDCB JUMP JUMPDEST PUSH1 0x40 MLOAD DUP1 SWAP2 SUB SWAP1 LOG2 JUMPDEST JUMP JUMPDEST PUSH1 0x3 PUSH1 0x20 MSTORE DUP1 PUSH1 0x0 MSTORE PUSH1 0x40 PUSH1 0x0 KECCAK256 PUSH1 0x0 SWAP2 POP SLOAD SWAP1 PUSH2 0x100 EXP SWAP1 DIV PUSH4 0xFFFFFFFF AND DUP2 JUMP JUMPDEST PUSH1 0x2 PUSH1 0x4 SWAP1 SLOAD SWAP1 PUSH2 0x100 EXP SWAP1 DIV PUSH1 0xFF AND PUSH2 0x6C0 JUMPI PUSH1 0x40 MLOAD PUSH32 0x8C379A000000000000000000000000000000000000000000000000000000000 DUP2 MSTORE PUSH1 0x4 ADD PUSH2 0x6B7 SWAP1 PUSH2 0xE36 JUMP JUMPDEST PUSH1 0x40 MLOAD DUP1 SWAP2 SUB SWAP1 REVERT JUMPDEST PUSH1 0x0 CALLER SWAP1 POP PUSH1 0x0 CALLVALUE SWAP1 POP PUSH1 0x0 PUSH1 0x3 PUSH1 0x0 DUP5 PUSH20 0xFFFFFFFFFFFFFFFFFFFFFFFFFFFFFFFFFFFFFFFF AND PUSH20 0xFFFFFFFFFFFFFFFFFFFFFFFFFFFFFFFFFFFFFFFF AND DUP2 MSTORE PUSH1 0x20 ADD SWAP1 DUP2 MSTORE PUSH1 0x20 ADD PUSH1 0x0 KECCAK256 PUSH1 0x0 SWAP1 SLOAD SWAP1 PUSH2 0x100 EXP SWAP1 DIV PUSH4 0xFFFFFFFF AND PUSH4 0xFFFFFFFF AND EQ ISZERO PUSH2 0x78C JUMPI PUSH1 0x4 DUP3 SWAP1 DUP1 PUSH1 0x1 DUP2 SLOAD ADD DUP1 DUP3 SSTORE DUP1 SWAP2 POP POP PUSH1 0x1 SWAP1 SUB SWAP1 PUSH1 0x0 MSTORE PUSH1 0x20 PUSH1 0x0 KECCAK256 ADD PUSH1 0x0 SWAP1 SWAP2 SWAP1 SWAP2 SWAP1 SWAP2 PUSH2 0x100 EXP DUP2 SLOAD DUP2 PUSH20 0xFFFFFFFFFFFFFFFFFFFFFFFFFFFFFFFFFFFFFFFF MUL NOT AND SWAP1 DUP4 PUSH20 0xFFFFFFFFFFFFFFFFFFFFFFFFFFFFFFFFFFFFFFFF AND MUL OR SWAP1 SSTORE POP JUMPDEST DUP1 PUSH1 0x3 PUSH1 0x0 DUP5 PUSH20 0xFFFFFFFFFFFFFFFFFFFFFFFFFFFFFFFFFFFFFFFF AND PUSH20 0xFFFFFFFFFFFFFFFFFFFFFFFFFFFFFFFFFFFFFFFF AND DUP2 MSTORE PUSH1 0x20 ADD SWAP1 DUP2 MSTORE PUSH1 0x20 ADD PUSH1 0x0 KECCAK256 PUSH1 0x0 DUP3 DUP3 DUP3 SWAP1 SLOAD SWAP1 PUSH2 0x100 EXP SWAP1 DIV PUSH4 0xFFFFFFFF AND PUSH2 0x7EA SWAP2 SWAP1 PUSH2 0xED3 JUMP JUMPDEST SWAP3 POP PUSH2 0x100 EXP DUP2 SLOAD DUP2 PUSH4 0xFFFFFFFF MUL NOT AND SWAP1 DUP4 PUSH4 0xFFFFFFFF AND MUL OR SWAP1 SSTORE POP PUSH1 0x0 DUP2 PUSH1 0x2 PUSH1 0x0 SWAP1 SLOAD SWAP1 PUSH2 0x100 EXP SWAP1 DIV PUSH4 0xFFFFFFFF AND PUSH2 0x828 SWAP2 SWAP1 PUSH2 0xED3 JUMP JUMPDEST SWAP1 POP DUP1 PUSH1 0x2 PUSH1 0x0 PUSH2 0x100 EXP DUP2 SLOAD DUP2 PUSH4 0xFFFFFFFF MUL NOT AND SWAP1 DUP4 PUSH4 0xFFFFFFFF AND MUL OR SWAP1 SSTORE POP DUP3 PUSH20 0xFFFFFFFFFFFFFFFFFFFFFFFFFFFFFFFFFFFFFFFF AND PUSH32 0x1C839185B36728265E815FDEAD3A2012225928C409ED744579E8B61D174BDA21 DUP4 PUSH1 0x40 MLOAD PUSH2 0x891 SWAP2 SWAP1 PUSH2 0xE91 JUMP JUMPDEST PUSH1 0x40 MLOAD DUP1 SWAP2 SUB SWAP1 LOG2 PUSH32 0x0 PUSH4 0xFFFFFFFF AND DUP2 PUSH4 0xFFFFFFFF AND LT PUSH2 0x8D5 JUMPI PUSH2 0x8D4 PUSH2 0x8DA JUMP JUMPDEST JUMPDEST POP POP POP JUMP JUMPDEST PUSH1 0x0 PUSH1 0x2 PUSH1 0x0 SWAP1 SLOAD SWAP1 PUSH2 0x100 EXP SWAP1 DIV PUSH4 0xFFFFFFFF AND SWAP1 POP PUSH1 0x2 PUSH1 0x0 PUSH2 0x100 EXP DUP2 SLOAD SWAP1 PUSH4 0xFFFFFFFF MUL NOT AND SWAP1 SSTORE PUSH1 0x0 PUSH1 0x2 PUSH1 0x4 PUSH2 0x100 EXP DUP2 SLOAD DUP2 PUSH1 0xFF MUL NOT AND SWAP1 DUP4 ISZERO ISZERO MUL OR SWAP1 SSTORE POP PUSH1 0x0 PUSH32 0x0 PUSH20 0xFFFFFFFFFFFFFFFFFFFFFFFFFFFFFFFFFFFFFFFF AND DUP3 PUSH4 0xFFFFFFFF AND PUSH1 0x40 MLOAD PUSH2 0x96D SWAP1 PUSH2 0xD80 JUMP JUMPDEST PUSH1 0x0 PUSH1 0x40 MLOAD DUP1 DUP4 SUB DUP2 DUP6 DUP8 GAS CALL SWAP3 POP POP POP RETURNDATASIZE DUP1 PUSH1 0x0 DUP2 EQ PUSH2 0x9AA JUMPI PUSH1 0x40 MLOAD SWAP2 POP PUSH1 0x1F NOT PUSH1 0x3F RETURNDATASIZE ADD AND DUP3 ADD PUSH1 0x40 MSTORE RETURNDATASIZE DUP3 MSTORE RETURNDATASIZE PUSH1 0x0 PUSH1 0x20 DUP5 ADD RETURNDATACOPY PUSH2 0x9AF JUMP JUMPDEST PUSH1 0x60 SWAP2 POP JUMPDEST POP POP SWAP1 POP DUP1 PUSH2 0x9F3 JUMPI PUSH1 0x40 MLOAD PUSH32 0x8C379A000000000000000000000000000000000000000000000000000000000 DUP2 MSTORE PUSH1 0x4 ADD PUSH2 0x9EA SWAP1 PUSH2 0xE16 JUMP JUMPDEST PUSH1 0x40 MLOAD DUP1 SWAP2 SUB SWAP1 REVERT JUMPDEST PUSH32 0x0 PUSH20 0xFFFFFFFFFFFFFFFFFFFFFFFFFFFFFFFFFFFFFFFF AND PUSH32 0x3DE67BB1992E4F254DE509DFD7561F97D65E2171867167FBFB7BC25DFA4B2284 DUP4 PUSH1 0x40 MLOAD PUSH2 0xA59 SWAP2 SWAP1 PUSH2 0xE91 JUMP JUMPDEST PUSH1 0x40 MLOAD DUP1 SWAP2 SUB SWAP1 LOG2 ADDRESS PUSH20 0xFFFFFFFFFFFFFFFFFFFFFFFFFFFFFFFFFFFFFFFF AND PUSH32 0x5BE9D52EB6D0B698732F8DD5B5F6AD6C44215F77691D4EA4AB0E04DED81E4E0C PUSH1 0x1 DUP5 PUSH1 0x40 MLOAD PUSH2 0xAAA SWAP3 SWAP2 SWAP1 PUSH2 0xDCB JUMP JUMPDEST PUSH1 0x40 MLOAD DUP1 SWAP2 SUB SWAP1 LOG2 POP POP JUMP JUMPDEST PUSH1 0x0 PUSH1 0x3 PUSH1 0x0 DUP4 PUSH20 0xFFFFFFFFFFFFFFFFFFFFFFFFFFFFFFFFFFFFFFFF AND PUSH20 0xFFFFFFFFFFFFFFFFFFFFFFFFFFFFFFFFFFFFFFFF AND DUP2 MSTORE PUSH1 0x20 ADD SWAP1 DUP2 MSTORE PUSH1 0x20 ADD PUSH1 0x0 KECCAK256 PUSH1 0x0 SWAP1 SLOAD SWAP1 PUSH2 0x100 EXP SWAP1 DIV PUSH4 0xFFFFFFFF AND SWAP1 POP PUSH1 0x3 PUSH1 0x0 DUP4 PUSH20 0xFFFFFFFFFFFFFFFFFFFFFFFFFFFFFFFFFFFFFFFF AND PUSH20 0xFFFFFFFFFFFFFFFFFFFFFFFFFFFFFFFFFFFFFFFF AND DUP2 MSTORE PUSH1 0x20 ADD SWAP1 DUP2 MSTORE PUSH1 0x20 ADD PUSH1 0x0 KECCAK256 PUSH1 0x0 PUSH2 0x100 EXP DUP2 SLOAD SWAP1 PUSH4 0xFFFFFFFF MUL NOT AND SWAP1 SSTORE DUP2 PUSH20 0xFFFFFFFFFFFFFFFFFFFFFFFFFFFFFFFFFFFFFFFF AND PUSH2 0x8FC DUP3 PUSH4 0xFFFFFFFF AND SWAP1 DUP2 ISZERO MUL SWAP1 PUSH1 0x40 MLOAD PUSH1 0x0 PUSH1 0x40 MLOAD DUP1 DUP4 SUB DUP2 DUP6 DUP9 DUP9 CALL SWAP4 POP POP POP POP ISZERO DUP1 ISZERO PUSH2 0xBA8 JUMPI RETURNDATASIZE PUSH1 0x0 DUP1 RETURNDATACOPY RETURNDATASIZE PUSH1 0x0 REVERT JUMPDEST POP DUP2 PUSH20 0xFFFFFFFFFFFFFFFFFFFFFFFFFFFFFFFFFFFFFFFF AND PUSH32 0x877E2EC1EC7E8CA17F5B4FF704DEAA59C7A56ADDD4BED9C0BDD38A20AFB6D33E DUP3 PUSH1 0x40 MLOAD PUSH2 0xBEF SWAP2 SWAP1 PUSH2 0xE91 JUMP JUMPDEST PUSH1 0x40 MLOAD DUP1 SWAP2 SUB SWAP1 LOG2 POP POP JUMP JUMPDEST PUSH1 0x0 DUP2 CALLDATALOAD SWAP1 POP PUSH2 0xC0A DUP2 PUSH2 0x115A JUMP JUMPDEST SWAP3 SWAP2 POP POP JUMP JUMPDEST PUSH1 0x0 DUP2 CALLDATALOAD SWAP1 POP PUSH2 0xC1F DUP2 PUSH2 0x1171 JUMP JUMPDEST SWAP3 SWAP2 POP POP JUMP JUMPDEST PUSH1 0x0 PUSH1 0x20 DUP3 DUP5 SUB SLT ISZERO PUSH2 0xC3B JUMPI PUSH2 0xC3A PUSH2 0x10A0 JUMP JUMPDEST JUMPDEST PUSH1 0x0 PUSH2 0xC49 DUP5 DUP3 DUP6 ADD PUSH2 0xBFB JUMP JUMPDEST SWAP2 POP POP SWAP3 SWAP2 POP POP JUMP JUMPDEST PUSH1 0x0 PUSH1 0x20 DUP3 DUP5 SUB SLT ISZERO PUSH2 0xC68 JUMPI PUSH2 0xC67 PUSH2 0x10A0 JUMP JUMPDEST JUMPDEST PUSH1 0x0 PUSH2 0xC76 DUP5 DUP3 DUP6 ADD PUSH2 0xC10 JUMP JUMPDEST SWAP2 POP POP SWAP3 SWAP2 POP POP JUMP JUMPDEST PUSH2 0xC88 DUP2 PUSH2 0xF0D JUMP JUMPDEST DUP3 MSTORE POP POP JUMP JUMPDEST PUSH2 0xC97 DUP2 PUSH2 0xF1F JUMP JUMPDEST DUP3 MSTORE POP POP JUMP JUMPDEST PUSH1 0x0 PUSH2 0xCA8 DUP3 PUSH2 0xEAC JUMP JUMPDEST PUSH2 0xCB2 DUP2 DUP6 PUSH2 0xEC2 JUMP JUMPDEST SWAP4 POP PUSH2 0xCC2 DUP2 DUP6 PUSH1 0x20 DUP7 ADD PUSH2 0xF65 JUMP JUMPDEST PUSH2 0xCCB DUP2 PUSH2 0x10A5 JUMP JUMPDEST DUP5 ADD SWAP2 POP POP SWAP3 SWAP2 POP POP JUMP JUMPDEST PUSH1 0x0 PUSH2 0xCE3 PUSH1 0x18 DUP4 PUSH2 0xEC2 JUMP JUMPDEST SWAP2 POP PUSH2 0xCEE DUP3 PUSH2 0x10B6 JUMP JUMPDEST PUSH1 0x20 DUP3 ADD SWAP1 POP SWAP2 SWAP1 POP JUMP JUMPDEST PUSH1 0x0 PUSH2 0xD06 PUSH1 0x1B DUP4 PUSH2 0xEC2 JUMP JUMPDEST SWAP2 POP PUSH2 0xD11 DUP3 PUSH2 0x10DF JUMP JUMPDEST PUSH1 0x20 DUP3 ADD SWAP1 POP SWAP2 SWAP1 POP JUMP JUMPDEST PUSH1 0x0 PUSH2 0xD29 PUSH1 0x27 DUP4 PUSH2 0xEC2 JUMP JUMPDEST SWAP2 POP PUSH2 0xD34 DUP3 PUSH2 0x1108 JUMP JUMPDEST PUSH1 0x40 DUP3 ADD SWAP1 POP SWAP2 SWAP1 POP JUMP JUMPDEST PUSH1 0x0 PUSH2 0xD4C PUSH1 0x0 DUP4 PUSH2 0xEB7 JUMP JUMPDEST SWAP2 POP PUSH2 0xD57 DUP3 PUSH2 0x1157 JUMP JUMPDEST PUSH1 0x0 DUP3 ADD SWAP1 POP SWAP2 SWAP1 POP JUMP JUMPDEST PUSH2 0xD6B DUP2 PUSH2 0xF4B JUMP JUMPDEST DUP3 MSTORE POP POP JUMP JUMPDEST PUSH2 0xD7A DUP2 PUSH2 0xF55 JUMP JUMPDEST DUP3 MSTORE POP POP JUMP JUMPDEST PUSH1 0x0 PUSH2 0xD8B DUP3 PUSH2 0xD3F JUMP JUMPDEST SWAP2 POP DUP2 SWAP1 POP SWAP2 SWAP1 POP JUMP JUMPDEST PUSH1 0x0 PUSH1 0x20 DUP3 ADD SWAP1 POP PUSH2 0xDAA PUSH1 0x0 DUP4 ADD DUP5 PUSH2 0xC7F JUMP JUMPDEST SWAP3 SWAP2 POP POP JUMP JUMPDEST PUSH1 0x0 PUSH1 0x20 DUP3 ADD SWAP1 POP PUSH2 0xDC5 PUSH1 0x0 DUP4 ADD DUP5 PUSH2 0xC8E JUMP JUMPDEST SWAP3 SWAP2 POP POP JUMP JUMPDEST PUSH1 0x0 PUSH1 0x40 DUP3 ADD SWAP1 POP PUSH2 0xDE0 PUSH1 0x0 DUP4 ADD DUP6 PUSH2 0xC8E JUMP JUMPDEST PUSH2 0xDED PUSH1 0x20 DUP4 ADD DUP5 PUSH2 0xD71 JUMP JUMPDEST SWAP4 SWAP3 POP POP POP JUMP JUMPDEST PUSH1 0x0 PUSH1 0x20 DUP3 ADD SWAP1 POP DUP2 DUP2 SUB PUSH1 0x0 DUP4 ADD MSTORE PUSH2 0xE0E DUP2 DUP5 PUSH2 0xC9D JUMP JUMPDEST SWAP1 POP SWAP3 SWAP2 POP POP JUMP JUMPDEST PUSH1 0x0 PUSH1 0x20 DUP3 ADD SWAP1 POP DUP2 DUP2 SUB PUSH1 0x0 DUP4 ADD MSTORE PUSH2 0xE2F DUP2 PUSH2 0xCD6 JUMP JUMPDEST SWAP1 POP SWAP2 SWAP1 POP JUMP JUMPDEST PUSH1 0x0 PUSH1 0x20 DUP3 ADD SWAP1 POP DUP2 DUP2 SUB PUSH1 0x0 DUP4 ADD MSTORE PUSH2 0xE4F DUP2 PUSH2 0xCF9 JUMP JUMPDEST SWAP1 POP SWAP2 SWAP1 POP JUMP JUMPDEST PUSH1 0x0 PUSH1 0x20 DUP3 ADD SWAP1 POP DUP2 DUP2 SUB PUSH1 0x0 DUP4 ADD MSTORE PUSH2 0xE6F DUP2 PUSH2 0xD1C JUMP JUMPDEST SWAP1 POP SWAP2 SWAP1 POP JUMP JUMPDEST PUSH1 0x0 PUSH1 0x20 DUP3 ADD SWAP1 POP PUSH2 0xE8B PUSH1 0x0 DUP4 ADD DUP5 PUSH2 0xD62 JUMP JUMPDEST SWAP3 SWAP2 POP POP JUMP JUMPDEST PUSH1 0x0 PUSH1 0x20 DUP3 ADD SWAP1 POP PUSH2 0xEA6 PUSH1 0x0 DUP4 ADD DUP5 PUSH2 0xD71 JUMP JUMPDEST SWAP3 SWAP2 POP POP JUMP JUMPDEST PUSH1 0x0 DUP2 MLOAD SWAP1 POP SWAP2 SWAP1 POP JUMP JUMPDEST PUSH1 0x0 DUP2 SWAP1 POP SWAP3 SWAP2 POP POP JUMP JUMPDEST PUSH1 0x0 DUP3 DUP3 MSTORE PUSH1 0x20 DUP3 ADD SWAP1 POP SWAP3 SWAP2 POP POP JUMP JUMPDEST PUSH1 0x0 PUSH2 0xEDE DUP3 PUSH2 0xF55 JUMP JUMPDEST SWAP2 POP PUSH2 0xEE9 DUP4 PUSH2 0xF55 JUMP JUMPDEST SWAP3 POP DUP3 PUSH4 0xFFFFFFFF SUB DUP3 GT ISZERO PUSH2 0xF02 JUMPI PUSH2 0xF01 PUSH2 0x1013 JUMP JUMPDEST JUMPDEST DUP3 DUP3 ADD SWAP1 POP SWAP3 SWAP2 POP POP JUMP JUMPDEST PUSH1 0x0 PUSH2 0xF18 DUP3 PUSH2 0xF2B JUMP JUMPDEST SWAP1 POP SWAP2 SWAP1 POP JUMP JUMPDEST PUSH1 0x0 DUP2 ISZERO ISZERO SWAP1 POP SWAP2 SWAP1 POP JUMP JUMPDEST PUSH1 0x0 PUSH20 0xFFFFFFFFFFFFFFFFFFFFFFFFFFFFFFFFFFFFFFFF DUP3 AND SWAP1 POP SWAP2 SWAP1 POP JUMP JUMPDEST PUSH1 0x0 DUP2 SWAP1 POP SWAP2 SWAP1 POP JUMP JUMPDEST PUSH1 0x0 PUSH4 0xFFFFFFFF DUP3 AND SWAP1 POP SWAP2 SWAP1 POP JUMP JUMPDEST PUSH1 0x0 JUMPDEST DUP4 DUP2 LT ISZERO PUSH2 0xF83 JUMPI DUP1 DUP3 ADD MLOAD DUP2 DUP5 ADD MSTORE PUSH1 0x20 DUP2 ADD SWAP1 POP PUSH2 0xF68 JUMP JUMPDEST DUP4 DUP2 GT ISZERO PUSH2 0xF92 JUMPI PUSH1 0x0 DUP5 DUP5 ADD MSTORE JUMPDEST POP POP POP POP JUMP JUMPDEST PUSH1 0x0 PUSH1 0x2 DUP3 DIV SWAP1 POP PUSH1 0x1 DUP3 AND DUP1 PUSH2 0xFB0 JUMPI PUSH1 0x7F DUP3 AND SWAP2 POP JUMPDEST PUSH1 0x20 DUP3 LT DUP2 EQ ISZERO PUSH2 0xFC4 JUMPI PUSH2 0xFC3 PUSH2 0x1042 JUMP JUMPDEST JUMPDEST POP SWAP2 SWAP1 POP JUMP JUMPDEST PUSH1 0x0 PUSH2 0xFD5 DUP3 PUSH2 0xF4B JUMP JUMPDEST SWAP2 POP PUSH32 0xFFFFFFFFFFFFFFFFFFFFFFFFFFFFFFFFFFFFFFFFFFFFFFFFFFFFFFFFFFFFFFFF DUP3 EQ ISZERO PUSH2 0x1008 JUMPI PUSH2 0x1007 PUSH2 0x1013 JUMP JUMPDEST JUMPDEST PUSH1 0x1 DUP3 ADD SWAP1 POP SWAP2 SWAP1 POP JUMP JUMPDEST PUSH32 0x4E487B7100000000000000000000000000000000000000000000000000000000 PUSH1 0x0 MSTORE PUSH1 0x11 PUSH1 0x4 MSTORE PUSH1 0x24 PUSH1 0x0 REVERT JUMPDEST PUSH32 0x4E487B7100000000000000000000000000000000000000000000000000000000 PUSH1 0x0 MSTORE PUSH1 0x22 PUSH1 0x4 MSTORE PUSH1 0x24 PUSH1 0x0 REVERT JUMPDEST PUSH32 0x4E487B7100000000000000000000000000000000000000000000000000000000 PUSH1 0x0 MSTORE PUSH1 0x32 PUSH1 0x4 MSTORE PUSH1 0x24 PUSH1 0x0 REVERT JUMPDEST PUSH1 0x0 DUP1 REVERT JUMPDEST PUSH1 0x0 PUSH1 0x1F NOT PUSH1 0x1F DUP4 ADD AND SWAP1 POP SWAP2 SWAP1 POP JUMP JUMPDEST PUSH32 0x556E61626C6520746F2072656C656173652066756E6473210000000000000000 PUSH1 0x0 DUP3 ADD MSTORE POP JUMP JUMPDEST PUSH32 0x5468652043616D706169676E206973206E6F7420616374697665210000000000 PUSH1 0x0 DUP3 ADD MSTORE POP JUMP JUMPDEST PUSH32 0x5468652043616D617069676E277320646561646C696E6520686173206E6F7420 PUSH1 0x0 DUP3 ADD MSTORE PUSH32 0x7061737365642100000000000000000000000000000000000000000000000000 PUSH1 0x20 DUP3 ADD MSTORE POP JUMP JUMPDEST POP JUMP JUMPDEST PUSH2 0x1163 DUP2 PUSH2 0xF0D JUMP JUMPDEST DUP2 EQ PUSH2 0x116E JUMPI PUSH1 0x0 DUP1 REVERT JUMPDEST POP JUMP JUMPDEST PUSH2 0x117A DUP2 PUSH2 0xF4B JUMP JUMPDEST DUP2 EQ PUSH2 0x1185 JUMPI PUSH1 0x0 DUP1 REVERT JUMPDEST POP JUMP INVALID LOG2 PUSH5 0x6970667358 0x22 SLT KECCAK256 REVERT 0x23 0xCD 0x1F 0xA5 0xCA STATICCALL PUSH31 0x4D89D2BBFB6D391A0ABA18D950020343B44DEE6124398E5A64736F6C634300 ADDMOD SMOD STOP CALLER "
				},
				"gasEstimates": {
					"creation": {
						"codeDepositCost": "908400",
						"executionCost": "infinite",
						"totalCost": "infinite"
					},
					"external": {
						"beneficiary()": "infinite",
						"deadline()": "infinite",
						"description()": "infinite",
						"donate()": "infinite",
						"donations(address)": "2933",
						"donors(uint256)": "5045",
						"finalizeCampaign()": "infinite",
						"fundingGoal()": "infinite",
						"isActive()": "2544",
						"name()": "infinite",
						"totalFunds()": "2515"
					},
					"internal": {
						"refund(address)": "infinite",
						"releaseFunds()": "infinite"
					}
				},
				"methodIdentifiers": {
					"beneficiary()": "38af3eed",
					"deadline()": "29dcb0cf",
					"description()": "7284e416",
					"donate()": "ed88c68e",
					"donations(address)": "cc6cb19a",
					"donors(uint256)": "4abfa163",
					"finalizeCampaign()": "a1211bc0",
					"fundingGoal()": "7a3a0e84",
					"isActive()": "22f3e2d4",
					"name()": "06fdde03",
					"totalFunds()": "968ed600"
				}
			},
			"storageLayout": {
				"storage": [
					{
						"astId": 6,
						"contract": "backend/contracts/Campaign.sol:Campaign",
						"label": "name",
						"offset": 0,
						"slot": "0",
						"type": "t_string_storage"
					},
					{
						"astId": 8,
						"contract": "backend/contracts/Campaign.sol:Campaign",
						"label": "description",
						"offset": 0,
						"slot": "1",
						"type": "t_string_storage"
					},
					{
						"astId": 14,
						"contract": "backend/contracts/Campaign.sol:Campaign",
						"label": "totalFunds",
						"offset": 0,
						"slot": "2",
						"type": "t_uint32"
					},
					{
						"astId": 16,
						"contract": "backend/contracts/Campaign.sol:Campaign",
						"label": "isActive",
						"offset": 4,
						"slot": "2",
						"type": "t_bool"
					},
					{
						"astId": 20,
						"contract": "backend/contracts/Campaign.sol:Campaign",
						"label": "donations",
						"offset": 0,
						"slot": "3",
						"type": "t_mapping(t_address,t_uint32)"
					},
					{
						"astId": 23,
						"contract": "backend/contracts/Campaign.sol:Campaign",
						"label": "donors",
						"offset": 0,
						"slot": "4",
						"type": "t_array(t_address)dyn_storage"
					}
				],
				"types": {
					"t_address": {
						"encoding": "inplace",
						"label": "address",
						"numberOfBytes": "20"
					},
					"t_array(t_address)dyn_storage": {
						"base": "t_address",
						"encoding": "dynamic_array",
						"label": "address[]",
						"numberOfBytes": "32"
					},
					"t_bool": {
						"encoding": "inplace",
						"label": "bool",
						"numberOfBytes": "1"
					},
					"t_mapping(t_address,t_uint32)": {
						"encoding": "mapping",
						"key": "t_address",
						"label": "mapping(address => uint32)",
						"numberOfBytes": "32",
						"value": "t_uint32"
					},
					"t_string_storage": {
						"encoding": "bytes",
						"label": "string",
						"numberOfBytes": "32"
					},
					"t_uint32": {
						"encoding": "inplace",
						"label": "uint32",
						"numberOfBytes": "4"
					}
				}
			},
			"userdoc": {
				"kind": "user",
				"methods": {},
				"version": 1
			}
		}
	}
}