{
	"backend/contracts/Campaign.sol": {
		"Campaign": {
			"abi": [
				{
					"inputs": [
						{
							"internalType": "uint256",
							"name": "_campaignId",
							"type": "uint256"
						},
						{
							"internalType": "address",
							"name": "_beneficiary",
							"type": "address"
						},
						{
							"internalType": "string",
							"name": "_name",
							"type": "string"
						},
						{
							"internalType": "string",
							"name": "_purpose",
							"type": "string"
						},
						{
							"internalType": "string",
							"name": "_description",
							"type": "string"
						},
						{
							"internalType": "uint256",
							"name": "_fundingGoal",
							"type": "uint256"
						},
						{
							"internalType": "uint256",
							"name": "_deadline",
							"type": "uint256"
						}
					],
					"stateMutability": "nonpayable",
					"type": "constructor"
				},
				{
					"anonymous": false,
					"inputs": [
						{
							"indexed": false,
							"internalType": "bool",
							"name": "success",
							"type": "bool"
						},
						{
							"indexed": false,
							"internalType": "uint256",
							"name": "totalFunds",
							"type": "uint256"
						},
						{
							"indexed": false,
							"internalType": "uint256",
							"name": "timestamp",
							"type": "uint256"
						}
					],
					"name": "CampaignFinalized",
					"type": "event"
				},
				{
					"anonymous": false,
					"inputs": [
						{
							"indexed": false,
							"internalType": "address",
							"name": "donor",
							"type": "address"
						},
						{
							"indexed": false,
							"internalType": "uint256",
							"name": "amount",
							"type": "uint256"
						},
						{
							"indexed": false,
							"internalType": "uint256",
							"name": "timestamp",
							"type": "uint256"
						}
					],
					"name": "DonationMade",
					"type": "event"
				},
				{
					"anonymous": false,
					"inputs": [
						{
							"indexed": false,
							"internalType": "uint256",
							"name": "amount",
							"type": "uint256"
						},
						{
							"indexed": false,
							"internalType": "uint256",
							"name": "timestamp",
							"type": "uint256"
						}
					],
					"name": "FundsWithdrawn",
					"type": "event"
				},
				{
					"anonymous": false,
					"inputs": [
						{
							"indexed": false,
							"internalType": "address",
							"name": "donor",
							"type": "address"
						},
						{
							"indexed": false,
							"internalType": "uint256",
							"name": "amount",
							"type": "uint256"
						},
						{
							"indexed": false,
							"internalType": "uint256",
							"name": "timestamp",
							"type": "uint256"
						}
					],
					"name": "RefundIssued",
					"type": "event"
				},
				{
					"inputs": [],
					"name": "beneficiary",
					"outputs": [
						{
							"internalType": "address",
							"name": "",
							"type": "address"
						}
					],
					"stateMutability": "view",
					"type": "function"
				},
				{
					"inputs": [],
					"name": "campaignId",
					"outputs": [
						{
							"internalType": "uint256",
							"name": "",
							"type": "uint256"
						}
					],
					"stateMutability": "view",
					"type": "function"
				},
				{
					"inputs": [],
					"name": "deadline",
					"outputs": [
						{
							"internalType": "uint256",
							"name": "",
							"type": "uint256"
						}
					],
					"stateMutability": "view",
					"type": "function"
				},
				{
					"inputs": [],
					"name": "description",
					"outputs": [
						{
							"internalType": "string",
							"name": "",
							"type": "string"
						}
					],
					"stateMutability": "view",
					"type": "function"
				},
				{
					"inputs": [],
					"name": "donate",
					"outputs": [],
					"stateMutability": "nonpayable",
					"type": "function"
				},
				{
					"inputs": [
						{
							"internalType": "address",
							"name": "",
							"type": "address"
						}
					],
					"name": "donations",
					"outputs": [
						{
							"internalType": "uint256",
							"name": "",
							"type": "uint256"
						}
					],
					"stateMutability": "view",
					"type": "function"
				},
				{
					"inputs": [],
					"name": "finalizeCampaign",
					"outputs": [],
					"stateMutability": "nonpayable",
					"type": "function"
				},
				{
					"inputs": [],
					"name": "fundingGoal",
					"outputs": [
						{
							"internalType": "uint256",
							"name": "",
							"type": "uint256"
						}
					],
					"stateMutability": "view",
					"type": "function"
				},
				{
					"inputs": [],
					"name": "isActive",
					"outputs": [
						{
							"internalType": "bool",
							"name": "",
							"type": "bool"
						}
					],
					"stateMutability": "view",
					"type": "function"
				},
				{
					"inputs": [],
					"name": "name",
					"outputs": [
						{
							"internalType": "string",
							"name": "",
							"type": "string"
						}
					],
					"stateMutability": "view",
					"type": "function"
				},
				{
					"inputs": [],
					"name": "purpose",
					"outputs": [
						{
							"internalType": "string",
							"name": "",
							"type": "string"
						}
					],
					"stateMutability": "view",
					"type": "function"
				},
				{
					"inputs": [],
					"name": "totalFunds",
					"outputs": [
						{
							"internalType": "uint256",
							"name": "",
							"type": "uint256"
						}
					],
					"stateMutability": "view",
					"type": "function"
				}
			],
			"devdoc": {
				"kind": "dev",
				"methods": {},
				"version": 1
			},
			"evm": {
				"assembly": "    /* \"backend/contracts/Campaign.sol\":70:2259  contract Campaign {... */\n  mstore(0x40, 0x80)\n    /* \"backend/contracts/Campaign.sol\":716:1233  constructor(... */\n  callvalue\n  dup1\n  iszero\n  tag_1\n  jumpi\n  0x00\n  dup1\n  revert\ntag_1:\n  pop\n  mload(0x40)\n  sub(codesize, bytecodeSize)\n  dup1\n  bytecodeSize\n  dup4\n  codecopy\n  dup2\n  dup2\n  add\n  0x40\n  mstore\n  dup2\n  add\n  swap1\n  tag_2\n  swap2\n  swap1\n  tag_3\n  jump\t// in\ntag_2:\n    /* \"backend/contracts/Campaign.sol\":961:972  _campaignId */\n  dup7\n    /* \"backend/contracts/Campaign.sol\":948:958  campaignId */\n  0x00\n    /* \"backend/contracts/Campaign.sol\":948:972  campaignId = _campaignId */\n  dup2\n  swap1\n  sstore\n  pop\n    /* \"backend/contracts/Campaign.sol\":996:1008  _beneficiary */\n  dup6\n    /* \"backend/contracts/Campaign.sol\":982:993  beneficiary */\n  0x01\n  0x00\n    /* \"backend/contracts/Campaign.sol\":982:1008  beneficiary = _beneficiary */\n  0x0100\n  exp\n  dup2\n  sload\n  dup2\n  0xffffffffffffffffffffffffffffffffffffffff\n  mul\n  not\n  and\n  swap1\n  dup4\n  0xffffffffffffffffffffffffffffffffffffffff\n  and\n  mul\n  or\n  swap1\n  sstore\n  pop\n    /* \"backend/contracts/Campaign.sol\":1025:1030  _name */\n  dup5\n    /* \"backend/contracts/Campaign.sol\":1018:1022  name */\n  0x02\n    /* \"backend/contracts/Campaign.sol\":1018:1030  name = _name */\n  swap1\n  dup2\n  tag_6\n  swap2\n  swap1\n  tag_7\n  jump\t// in\ntag_6:\n  pop\n    /* \"backend/contracts/Campaign.sol\":1050:1058  _purpose */\n  dup4\n    /* \"backend/contracts/Campaign.sol\":1040:1047  purpose */\n  0x03\n    /* \"backend/contracts/Campaign.sol\":1040:1058  purpose = _purpose */\n  swap1\n  dup2\n  tag_8\n  swap2\n  swap1\n  tag_7\n  jump\t// in\ntag_8:\n  pop\n    /* \"backend/contracts/Campaign.sol\":1082:1094  _description */\n  dup3\n    /* \"backend/contracts/Campaign.sol\":1068:1079  description */\n  0x04\n    /* \"backend/contracts/Campaign.sol\":1068:1094  description = _description */\n  swap1\n  dup2\n  tag_9\n  swap2\n  swap1\n  tag_7\n  jump\t// in\ntag_9:\n  pop\n    /* \"backend/contracts/Campaign.sol\":1118:1130  _fundingGoal */\n  dup2\n    /* \"backend/contracts/Campaign.sol\":1104:1115  fundingGoal */\n  0x05\n    /* \"backend/contracts/Campaign.sol\":1104:1130  fundingGoal = _fundingGoal */\n  dup2\n  swap1\n  sstore\n  pop\n    /* \"backend/contracts/Campaign.sol\":1151:1160  _deadline */\n  dup1\n    /* \"backend/contracts/Campaign.sol\":1140:1148  deadline */\n  0x06\n    /* \"backend/contracts/Campaign.sol\":1140:1160  deadline = _deadline */\n  dup2\n  swap1\n  sstore\n  pop\n    /* \"backend/contracts/Campaign.sol\":1181:1185  true */\n  0x01\n    /* \"backend/contracts/Campaign.sol\":1170:1178  isActive */\n  0x08\n  0x00\n    /* \"backend/contracts/Campaign.sol\":1170:1185  isActive = true */\n  0x0100\n  exp\n  dup2\n  sload\n  dup2\n  0xff\n  mul\n  not\n  and\n  swap1\n  dup4\n  iszero\n  iszero\n  mul\n  or\n  swap1\n  sstore\n  pop\n    /* \"backend/contracts/Campaign.sol\":716:1233  constructor(... */\n  pop\n  pop\n  pop\n  pop\n  pop\n  pop\n  pop\n    /* \"backend/contracts/Campaign.sol\":70:2259  contract Campaign {... */\n  jump(tag_10)\n    /* \"#utility.yul\":7:82   */\ntag_11:\n    /* \"#utility.yul\":40:46   */\n  0x00\n    /* \"#utility.yul\":73:75   */\n  0x40\n    /* \"#utility.yul\":67:76   */\n  mload\n    /* \"#utility.yul\":57:76   */\n  swap1\n  pop\n    /* \"#utility.yul\":7:82   */\n  swap1\n  jump\t// out\n    /* \"#utility.yul\":88:205   */\ntag_12:\n    /* \"#utility.yul\":197:198   */\n  0x00\n    /* \"#utility.yul\":194:195   */\n  dup1\n    /* \"#utility.yul\":187:199   */\n  revert\n    /* \"#utility.yul\":211:328   */\ntag_13:\n    /* \"#utility.yul\":320:321   */\n  0x00\n    /* \"#utility.yul\":317:318   */\n  dup1\n    /* \"#utility.yul\":310:322   */\n  revert\n    /* \"#utility.yul\":334:411   */\ntag_14:\n    /* \"#utility.yul\":371:378   */\n  0x00\n    /* \"#utility.yul\":400:405   */\n  dup2\n    /* \"#utility.yul\":389:405   */\n  swap1\n  pop\n    /* \"#utility.yul\":334:411   */\n  swap2\n  swap1\n  pop\n  jump\t// out\n    /* \"#utility.yul\":417:539   */\ntag_15:\n    /* \"#utility.yul\":490:514   */\n  tag_55\n    /* \"#utility.yul\":508:513   */\n  dup2\n    /* \"#utility.yul\":490:514   */\n  tag_14\n  jump\t// in\ntag_55:\n    /* \"#utility.yul\":483:488   */\n  dup2\n    /* \"#utility.yul\":480:515   */\n  eq\n    /* \"#utility.yul\":470:533   */\n  tag_56\n  jumpi\n    /* \"#utility.yul\":529:530   */\n  0x00\n    /* \"#utility.yul\":526:527   */\n  dup1\n    /* \"#utility.yul\":519:531   */\n  revert\n    /* \"#utility.yul\":470:533   */\ntag_56:\n    /* \"#utility.yul\":417:539   */\n  pop\n  jump\t// out\n    /* \"#utility.yul\":545:688   */\ntag_16:\n    /* \"#utility.yul\":602:607   */\n  0x00\n    /* \"#utility.yul\":633:639   */\n  dup2\n    /* \"#utility.yul\":627:640   */\n  mload\n    /* \"#utility.yul\":618:640   */\n  swap1\n  pop\n    /* \"#utility.yul\":649:682   */\n  tag_58\n    /* \"#utility.yul\":676:681   */\n  dup2\n    /* \"#utility.yul\":649:682   */\n  tag_15\n  jump\t// in\ntag_58:\n    /* \"#utility.yul\":545:688   */\n  swap3\n  swap2\n  pop\n  pop\n  jump\t// out\n    /* \"#utility.yul\":694:820   */\ntag_17:\n    /* \"#utility.yul\":731:738   */\n  0x00\n    /* \"#utility.yul\":771:813   */\n  0xffffffffffffffffffffffffffffffffffffffff\n    /* \"#utility.yul\":764:769   */\n  dup3\n    /* \"#utility.yul\":760:814   */\n  and\n    /* \"#utility.yul\":749:814   */\n  swap1\n  pop\n    /* \"#utility.yul\":694:820   */\n  swap2\n  swap1\n  pop\n  jump\t// out\n    /* \"#utility.yul\":826:922   */\ntag_18:\n    /* \"#utility.yul\":863:870   */\n  0x00\n    /* \"#utility.yul\":892:916   */\n  tag_61\n    /* \"#utility.yul\":910:915   */\n  dup3\n    /* \"#utility.yul\":892:916   */\n  tag_17\n  jump\t// in\ntag_61:\n    /* \"#utility.yul\":881:916   */\n  swap1\n  pop\n    /* \"#utility.yul\":826:922   */\n  swap2\n  swap1\n  pop\n  jump\t// out\n    /* \"#utility.yul\":928:1050   */\ntag_19:\n    /* \"#utility.yul\":1001:1025   */\n  tag_63\n    /* \"#utility.yul\":1019:1024   */\n  dup2\n    /* \"#utility.yul\":1001:1025   */\n  tag_18\n  jump\t// in\ntag_63:\n    /* \"#utility.yul\":994:999   */\n  dup2\n    /* \"#utility.yul\":991:1026   */\n  eq\n    /* \"#utility.yul\":981:1044   */\n  tag_64\n  jumpi\n    /* \"#utility.yul\":1040:1041   */\n  0x00\n    /* \"#utility.yul\":1037:1038   */\n  dup1\n    /* \"#utility.yul\":1030:1042   */\n  revert\n    /* \"#utility.yul\":981:1044   */\ntag_64:\n    /* \"#utility.yul\":928:1050   */\n  pop\n  jump\t// out\n    /* \"#utility.yul\":1056:1199   */\ntag_20:\n    /* \"#utility.yul\":1113:1118   */\n  0x00\n    /* \"#utility.yul\":1144:1150   */\n  dup2\n    /* \"#utility.yul\":1138:1151   */\n  mload\n    /* \"#utility.yul\":1129:1151   */\n  swap1\n  pop\n    /* \"#utility.yul\":1160:1193   */\n  tag_66\n    /* \"#utility.yul\":1187:1192   */\n  dup2\n    /* \"#utility.yul\":1160:1193   */\n  tag_19\n  jump\t// in\ntag_66:\n    /* \"#utility.yul\":1056:1199   */\n  swap3\n  swap2\n  pop\n  pop\n  jump\t// out\n    /* \"#utility.yul\":1205:1322   */\ntag_21:\n    /* \"#utility.yul\":1314:1315   */\n  0x00\n    /* \"#utility.yul\":1311:1312   */\n  dup1\n    /* \"#utility.yul\":1304:1316   */\n  revert\n    /* \"#utility.yul\":1328:1445   */\ntag_22:\n    /* \"#utility.yul\":1437:1438   */\n  0x00\n    /* \"#utility.yul\":1434:1435   */\n  dup1\n    /* \"#utility.yul\":1427:1439   */\n  revert\n    /* \"#utility.yul\":1451:1553   */\ntag_23:\n    /* \"#utility.yul\":1492:1498   */\n  0x00\n    /* \"#utility.yul\":1543:1545   */\n  0x1f\n    /* \"#utility.yul\":1539:1546   */\n  not\n    /* \"#utility.yul\":1534:1536   */\n  0x1f\n    /* \"#utility.yul\":1527:1532   */\n  dup4\n    /* \"#utility.yul\":1523:1537   */\n  add\n    /* \"#utility.yul\":1519:1547   */\n  and\n    /* \"#utility.yul\":1509:1547   */\n  swap1\n  pop\n    /* \"#utility.yul\":1451:1553   */\n  swap2\n  swap1\n  pop\n  jump\t// out\n    /* \"#utility.yul\":1559:1739   */\ntag_24:\n    /* \"#utility.yul\":1607:1684   */\n  0x4e487b7100000000000000000000000000000000000000000000000000000000\n    /* \"#utility.yul\":1604:1605   */\n  0x00\n    /* \"#utility.yul\":1597:1685   */\n  mstore\n    /* \"#utility.yul\":1704:1708   */\n  0x41\n    /* \"#utility.yul\":1701:1702   */\n  0x04\n    /* \"#utility.yul\":1694:1709   */\n  mstore\n    /* \"#utility.yul\":1728:1732   */\n  0x24\n    /* \"#utility.yul\":1725:1726   */\n  0x00\n    /* \"#utility.yul\":1718:1733   */\n  revert\n    /* \"#utility.yul\":1745:2026   */\ntag_25:\n    /* \"#utility.yul\":1828:1855   */\n  tag_72\n    /* \"#utility.yul\":1850:1854   */\n  dup3\n    /* \"#utility.yul\":1828:1855   */\n  tag_23\n  jump\t// in\ntag_72:\n    /* \"#utility.yul\":1820:1826   */\n  dup2\n    /* \"#utility.yul\":1816:1856   */\n  add\n    /* \"#utility.yul\":1958:1964   */\n  dup2\n    /* \"#utility.yul\":1946:1956   */\n  dup2\n    /* \"#utility.yul\":1943:1965   */\n  lt\n    /* \"#utility.yul\":1922:1940   */\n  0xffffffffffffffff\n    /* \"#utility.yul\":1910:1920   */\n  dup3\n    /* \"#utility.yul\":1907:1941   */\n  gt\n    /* \"#utility.yul\":1904:1966   */\n  or\n    /* \"#utility.yul\":1901:1989   */\n  iszero\n  tag_73\n  jumpi\n    /* \"#utility.yul\":1969:1987   */\n  tag_74\n  tag_24\n  jump\t// in\ntag_74:\n    /* \"#utility.yul\":1901:1989   */\ntag_73:\n    /* \"#utility.yul\":2009:2019   */\n  dup1\n    /* \"#utility.yul\":2005:2007   */\n  0x40\n    /* \"#utility.yul\":1998:2020   */\n  mstore\n    /* \"#utility.yul\":1788:2026   */\n  pop\n    /* \"#utility.yul\":1745:2026   */\n  pop\n  pop\n  jump\t// out\n    /* \"#utility.yul\":2032:2161   */\ntag_26:\n    /* \"#utility.yul\":2066:2072   */\n  0x00\n    /* \"#utility.yul\":2093:2113   */\n  tag_76\n  tag_11\n  jump\t// in\ntag_76:\n    /* \"#utility.yul\":2083:2113   */\n  swap1\n  pop\n    /* \"#utility.yul\":2122:2155   */\n  tag_77\n    /* \"#utility.yul\":2150:2154   */\n  dup3\n    /* \"#utility.yul\":2142:2148   */\n  dup3\n    /* \"#utility.yul\":2122:2155   */\n  tag_25\n  jump\t// in\ntag_77:\n    /* \"#utility.yul\":2032:2161   */\n  swap2\n  swap1\n  pop\n  jump\t// out\n    /* \"#utility.yul\":2167:2475   */\ntag_27:\n    /* \"#utility.yul\":2229:2233   */\n  0x00\n    /* \"#utility.yul\":2319:2337   */\n  0xffffffffffffffff\n    /* \"#utility.yul\":2311:2317   */\n  dup3\n    /* \"#utility.yul\":2308:2338   */\n  gt\n    /* \"#utility.yul\":2305:2361   */\n  iszero\n  tag_79\n  jumpi\n    /* \"#utility.yul\":2341:2359   */\n  tag_80\n  tag_24\n  jump\t// in\ntag_80:\n    /* \"#utility.yul\":2305:2361   */\ntag_79:\n    /* \"#utility.yul\":2379:2408   */\n  tag_81\n    /* \"#utility.yul\":2401:2407   */\n  dup3\n    /* \"#utility.yul\":2379:2408   */\n  tag_23\n  jump\t// in\ntag_81:\n    /* \"#utility.yul\":2371:2408   */\n  swap1\n  pop\n    /* \"#utility.yul\":2463:2467   */\n  0x20\n    /* \"#utility.yul\":2457:2461   */\n  dup2\n    /* \"#utility.yul\":2453:2468   */\n  add\n    /* \"#utility.yul\":2445:2468   */\n  swap1\n  pop\n    /* \"#utility.yul\":2167:2475   */\n  swap2\n  swap1\n  pop\n  jump\t// out\n    /* \"#utility.yul\":2481:2620   */\ntag_28:\n    /* \"#utility.yul\":2570:2576   */\n  dup3\n    /* \"#utility.yul\":2565:2568   */\n  dup2\n    /* \"#utility.yul\":2560:2563   */\n  dup4\n    /* \"#utility.yul\":2554:2577   */\n  mcopy\n    /* \"#utility.yul\":2611:2612   */\n  0x00\n    /* \"#utility.yul\":2602:2608   */\n  dup4\n    /* \"#utility.yul\":2597:2600   */\n  dup4\n    /* \"#utility.yul\":2593:2609   */\n  add\n    /* \"#utility.yul\":2586:2613   */\n  mstore\n    /* \"#utility.yul\":2481:2620   */\n  pop\n  pop\n  pop\n  jump\t// out\n    /* \"#utility.yul\":2626:3060   */\ntag_29:\n    /* \"#utility.yul\":2715:2720   */\n  0x00\n    /* \"#utility.yul\":2740:2806   */\n  tag_84\n    /* \"#utility.yul\":2756:2805   */\n  tag_85\n    /* \"#utility.yul\":2798:2804   */\n  dup5\n    /* \"#utility.yul\":2756:2805   */\n  tag_27\n  jump\t// in\ntag_85:\n    /* \"#utility.yul\":2740:2806   */\n  tag_26\n  jump\t// in\ntag_84:\n    /* \"#utility.yul\":2731:2806   */\n  swap1\n  pop\n    /* \"#utility.yul\":2829:2835   */\n  dup3\n    /* \"#utility.yul\":2822:2827   */\n  dup2\n    /* \"#utility.yul\":2815:2836   */\n  mstore\n    /* \"#utility.yul\":2867:2871   */\n  0x20\n    /* \"#utility.yul\":2860:2865   */\n  dup2\n    /* \"#utility.yul\":2856:2872   */\n  add\n    /* \"#utility.yul\":2905:2908   */\n  dup5\n    /* \"#utility.yul\":2896:2902   */\n  dup5\n    /* \"#utility.yul\":2891:2894   */\n  dup5\n    /* \"#utility.yul\":2887:2903   */\n  add\n    /* \"#utility.yul\":2884:2909   */\n  gt\n    /* \"#utility.yul\":2881:2993   */\n  iszero\n  tag_86\n  jumpi\n    /* \"#utility.yul\":2912:2991   */\n  tag_87\n  tag_22\n  jump\t// in\ntag_87:\n    /* \"#utility.yul\":2881:2993   */\ntag_86:\n    /* \"#utility.yul\":3002:3054   */\n  tag_88\n    /* \"#utility.yul\":3047:3053   */\n  dup5\n    /* \"#utility.yul\":3042:3045   */\n  dup3\n    /* \"#utility.yul\":3037:3040   */\n  dup6\n    /* \"#utility.yul\":3002:3054   */\n  tag_28\n  jump\t// in\ntag_88:\n    /* \"#utility.yul\":2721:3060   */\n  pop\n    /* \"#utility.yul\":2626:3060   */\n  swap4\n  swap3\n  pop\n  pop\n  pop\n  jump\t// out\n    /* \"#utility.yul\":3080:3435   */\ntag_30:\n    /* \"#utility.yul\":3147:3152   */\n  0x00\n    /* \"#utility.yul\":3196:3199   */\n  dup3\n    /* \"#utility.yul\":3189:3193   */\n  0x1f\n    /* \"#utility.yul\":3181:3187   */\n  dup4\n    /* \"#utility.yul\":3177:3194   */\n  add\n    /* \"#utility.yul\":3173:3200   */\n  slt\n    /* \"#utility.yul\":3163:3285   */\n  tag_90\n  jumpi\n    /* \"#utility.yul\":3204:3283   */\n  tag_91\n  tag_21\n  jump\t// in\ntag_91:\n    /* \"#utility.yul\":3163:3285   */\ntag_90:\n    /* \"#utility.yul\":3314:3320   */\n  dup2\n    /* \"#utility.yul\":3308:3321   */\n  mload\n    /* \"#utility.yul\":3339:3429   */\n  tag_92\n    /* \"#utility.yul\":3425:3428   */\n  dup5\n    /* \"#utility.yul\":3417:3423   */\n  dup3\n    /* \"#utility.yul\":3410:3414   */\n  0x20\n    /* \"#utility.yul\":3402:3408   */\n  dup7\n    /* \"#utility.yul\":3398:3415   */\n  add\n    /* \"#utility.yul\":3339:3429   */\n  tag_29\n  jump\t// in\ntag_92:\n    /* \"#utility.yul\":3330:3429   */\n  swap2\n  pop\n    /* \"#utility.yul\":3153:3435   */\n  pop\n    /* \"#utility.yul\":3080:3435   */\n  swap3\n  swap2\n  pop\n  pop\n  jump\t// out\n    /* \"#utility.yul\":3441:5251   */\ntag_3:\n    /* \"#utility.yul\":3595:3601   */\n  0x00\n    /* \"#utility.yul\":3603:3609   */\n  dup1\n    /* \"#utility.yul\":3611:3617   */\n  0x00\n    /* \"#utility.yul\":3619:3625   */\n  dup1\n    /* \"#utility.yul\":3627:3633   */\n  0x00\n    /* \"#utility.yul\":3635:3641   */\n  dup1\n    /* \"#utility.yul\":3643:3649   */\n  0x00\n    /* \"#utility.yul\":3692:3695   */\n  0xe0\n    /* \"#utility.yul\":3680:3689   */\n  dup9\n    /* \"#utility.yul\":3671:3678   */\n  dup11\n    /* \"#utility.yul\":3667:3690   */\n  sub\n    /* \"#utility.yul\":3663:3696   */\n  slt\n    /* \"#utility.yul\":3660:3780   */\n  iszero\n  tag_94\n  jumpi\n    /* \"#utility.yul\":3699:3778   */\n  tag_95\n  tag_12\n  jump\t// in\ntag_95:\n    /* \"#utility.yul\":3660:3780   */\ntag_94:\n    /* \"#utility.yul\":3819:3820   */\n  0x00\n    /* \"#utility.yul\":3844:3908   */\n  tag_96\n    /* \"#utility.yul\":3900:3907   */\n  dup11\n    /* \"#utility.yul\":3891:3897   */\n  dup3\n    /* \"#utility.yul\":3880:3889   */\n  dup12\n    /* \"#utility.yul\":3876:3898   */\n  add\n    /* \"#utility.yul\":3844:3908   */\n  tag_16\n  jump\t// in\ntag_96:\n    /* \"#utility.yul\":3834:3908   */\n  swap8\n  pop\n    /* \"#utility.yul\":3790:3918   */\n  pop\n    /* \"#utility.yul\":3957:3959   */\n  0x20\n    /* \"#utility.yul\":3983:4047   */\n  tag_97\n    /* \"#utility.yul\":4039:4046   */\n  dup11\n    /* \"#utility.yul\":4030:4036   */\n  dup3\n    /* \"#utility.yul\":4019:4028   */\n  dup12\n    /* \"#utility.yul\":4015:4037   */\n  add\n    /* \"#utility.yul\":3983:4047   */\n  tag_20\n  jump\t// in\ntag_97:\n    /* \"#utility.yul\":3973:4047   */\n  swap7\n  pop\n    /* \"#utility.yul\":3928:4057   */\n  pop\n    /* \"#utility.yul\":4117:4119   */\n  0x40\n    /* \"#utility.yul\":4106:4115   */\n  dup9\n    /* \"#utility.yul\":4102:4120   */\n  add\n    /* \"#utility.yul\":4096:4121   */\n  mload\n    /* \"#utility.yul\":4148:4166   */\n  0xffffffffffffffff\n    /* \"#utility.yul\":4140:4146   */\n  dup2\n    /* \"#utility.yul\":4137:4167   */\n  gt\n    /* \"#utility.yul\":4134:4251   */\n  iszero\n  tag_98\n  jumpi\n    /* \"#utility.yul\":4170:4249   */\n  tag_99\n  tag_13\n  jump\t// in\ntag_99:\n    /* \"#utility.yul\":4134:4251   */\ntag_98:\n    /* \"#utility.yul\":4275:4349   */\n  tag_100\n    /* \"#utility.yul\":4341:4348   */\n  dup11\n    /* \"#utility.yul\":4332:4338   */\n  dup3\n    /* \"#utility.yul\":4321:4330   */\n  dup12\n    /* \"#utility.yul\":4317:4339   */\n  add\n    /* \"#utility.yul\":4275:4349   */\n  tag_30\n  jump\t// in\ntag_100:\n    /* \"#utility.yul\":4265:4349   */\n  swap6\n  pop\n    /* \"#utility.yul\":4067:4359   */\n  pop\n    /* \"#utility.yul\":4419:4421   */\n  0x60\n    /* \"#utility.yul\":4408:4417   */\n  dup9\n    /* \"#utility.yul\":4404:4422   */\n  add\n    /* \"#utility.yul\":4398:4423   */\n  mload\n    /* \"#utility.yul\":4450:4468   */\n  0xffffffffffffffff\n    /* \"#utility.yul\":4442:4448   */\n  dup2\n    /* \"#utility.yul\":4439:4469   */\n  gt\n    /* \"#utility.yul\":4436:4553   */\n  iszero\n  tag_101\n  jumpi\n    /* \"#utility.yul\":4472:4551   */\n  tag_102\n  tag_13\n  jump\t// in\ntag_102:\n    /* \"#utility.yul\":4436:4553   */\ntag_101:\n    /* \"#utility.yul\":4577:4651   */\n  tag_103\n    /* \"#utility.yul\":4643:4650   */\n  dup11\n    /* \"#utility.yul\":4634:4640   */\n  dup3\n    /* \"#utility.yul\":4623:4632   */\n  dup12\n    /* \"#utility.yul\":4619:4641   */\n  add\n    /* \"#utility.yul\":4577:4651   */\n  tag_30\n  jump\t// in\ntag_103:\n    /* \"#utility.yul\":4567:4651   */\n  swap5\n  pop\n    /* \"#utility.yul\":4369:4661   */\n  pop\n    /* \"#utility.yul\":4721:4724   */\n  0x80\n    /* \"#utility.yul\":4710:4719   */\n  dup9\n    /* \"#utility.yul\":4706:4725   */\n  add\n    /* \"#utility.yul\":4700:4726   */\n  mload\n    /* \"#utility.yul\":4753:4771   */\n  0xffffffffffffffff\n    /* \"#utility.yul\":4745:4751   */\n  dup2\n    /* \"#utility.yul\":4742:4772   */\n  gt\n    /* \"#utility.yul\":4739:4856   */\n  iszero\n  tag_104\n  jumpi\n    /* \"#utility.yul\":4775:4854   */\n  tag_105\n  tag_13\n  jump\t// in\ntag_105:\n    /* \"#utility.yul\":4739:4856   */\ntag_104:\n    /* \"#utility.yul\":4880:4954   */\n  tag_106\n    /* \"#utility.yul\":4946:4953   */\n  dup11\n    /* \"#utility.yul\":4937:4943   */\n  dup3\n    /* \"#utility.yul\":4926:4935   */\n  dup12\n    /* \"#utility.yul\":4922:4944   */\n  add\n    /* \"#utility.yul\":4880:4954   */\n  tag_30\n  jump\t// in\ntag_106:\n    /* \"#utility.yul\":4870:4954   */\n  swap4\n  pop\n    /* \"#utility.yul\":4671:4964   */\n  pop\n    /* \"#utility.yul\":5003:5006   */\n  0xa0\n    /* \"#utility.yul\":5030:5094   */\n  tag_107\n    /* \"#utility.yul\":5086:5093   */\n  dup11\n    /* \"#utility.yul\":5077:5083   */\n  dup3\n    /* \"#utility.yul\":5066:5075   */\n  dup12\n    /* \"#utility.yul\":5062:5084   */\n  add\n    /* \"#utility.yul\":5030:5094   */\n  tag_16\n  jump\t// in\ntag_107:\n    /* \"#utility.yul\":5020:5094   */\n  swap3\n  pop\n    /* \"#utility.yul\":4974:5104   */\n  pop\n    /* \"#utility.yul\":5143:5146   */\n  0xc0\n    /* \"#utility.yul\":5170:5234   */\n  tag_108\n    /* \"#utility.yul\":5226:5233   */\n  dup11\n    /* \"#utility.yul\":5217:5223   */\n  dup3\n    /* \"#utility.yul\":5206:5215   */\n  dup12\n    /* \"#utility.yul\":5202:5224   */\n  add\n    /* \"#utility.yul\":5170:5234   */\n  tag_16\n  jump\t// in\ntag_108:\n    /* \"#utility.yul\":5160:5234   */\n  swap2\n  pop\n    /* \"#utility.yul\":5114:5244   */\n  pop\n    /* \"#utility.yul\":3441:5251   */\n  swap3\n  swap6\n  swap9\n  swap2\n  swap5\n  swap8\n  pop\n  swap3\n  swap6\n  pop\n  jump\t// out\n    /* \"#utility.yul\":5257:5356   */\ntag_31:\n    /* \"#utility.yul\":5309:5315   */\n  0x00\n    /* \"#utility.yul\":5343:5348   */\n  dup2\n    /* \"#utility.yul\":5337:5349   */\n  mload\n    /* \"#utility.yul\":5327:5349   */\n  swap1\n  pop\n    /* \"#utility.yul\":5257:5356   */\n  swap2\n  swap1\n  pop\n  jump\t// out\n    /* \"#utility.yul\":5362:5542   */\ntag_32:\n    /* \"#utility.yul\":5410:5487   */\n  0x4e487b7100000000000000000000000000000000000000000000000000000000\n    /* \"#utility.yul\":5407:5408   */\n  0x00\n    /* \"#utility.yul\":5400:5488   */\n  mstore\n    /* \"#utility.yul\":5507:5511   */\n  0x22\n    /* \"#utility.yul\":5504:5505   */\n  0x04\n    /* \"#utility.yul\":5497:5512   */\n  mstore\n    /* \"#utility.yul\":5531:5535   */\n  0x24\n    /* \"#utility.yul\":5528:5529   */\n  0x00\n    /* \"#utility.yul\":5521:5536   */\n  revert\n    /* \"#utility.yul\":5548:5868   */\ntag_33:\n    /* \"#utility.yul\":5592:5598   */\n  0x00\n    /* \"#utility.yul\":5629:5630   */\n  0x02\n    /* \"#utility.yul\":5623:5627   */\n  dup3\n    /* \"#utility.yul\":5619:5631   */\n  div\n    /* \"#utility.yul\":5609:5631   */\n  swap1\n  pop\n    /* \"#utility.yul\":5676:5677   */\n  0x01\n    /* \"#utility.yul\":5670:5674   */\n  dup3\n    /* \"#utility.yul\":5666:5678   */\n  and\n    /* \"#utility.yul\":5697:5715   */\n  dup1\n    /* \"#utility.yul\":5687:5768   */\n  tag_112\n  jumpi\n    /* \"#utility.yul\":5753:5757   */\n  0x7f\n    /* \"#utility.yul\":5745:5751   */\n  dup3\n    /* \"#utility.yul\":5741:5758   */\n  and\n    /* \"#utility.yul\":5731:5758   */\n  swap2\n  pop\n    /* \"#utility.yul\":5687:5768   */\ntag_112:\n    /* \"#utility.yul\":5815:5817   */\n  0x20\n    /* \"#utility.yul\":5807:5813   */\n  dup3\n    /* \"#utility.yul\":5804:5818   */\n  lt\n    /* \"#utility.yul\":5784:5802   */\n  dup2\n    /* \"#utility.yul\":5781:5819   */\n  sub\n    /* \"#utility.yul\":5778:5862   */\n  tag_113\n  jumpi\n    /* \"#utility.yul\":5834:5852   */\n  tag_114\n  tag_32\n  jump\t// in\ntag_114:\n    /* \"#utility.yul\":5778:5862   */\ntag_113:\n    /* \"#utility.yul\":5599:5868   */\n  pop\n    /* \"#utility.yul\":5548:5868   */\n  swap2\n  swap1\n  pop\n  jump\t// out\n    /* \"#utility.yul\":5874:6015   */\ntag_34:\n    /* \"#utility.yul\":5923:5927   */\n  0x00\n    /* \"#utility.yul\":5946:5949   */\n  dup2\n    /* \"#utility.yul\":5938:5949   */\n  swap1\n  pop\n    /* \"#utility.yul\":5969:5972   */\n  dup2\n    /* \"#utility.yul\":5966:5967   */\n  0x00\n    /* \"#utility.yul\":5959:5973   */\n  mstore\n    /* \"#utility.yul\":6003:6007   */\n  0x20\n    /* \"#utility.yul\":6000:6001   */\n  0x00\n    /* \"#utility.yul\":5990:6008   */\n  keccak256\n    /* \"#utility.yul\":5982:6008   */\n  swap1\n  pop\n    /* \"#utility.yul\":5874:6015   */\n  swap2\n  swap1\n  pop\n  jump\t// out\n    /* \"#utility.yul\":6021:6114   */\ntag_35:\n    /* \"#utility.yul\":6058:6064   */\n  0x00\n    /* \"#utility.yul\":6105:6107   */\n  0x20\n    /* \"#utility.yul\":6100:6102   */\n  0x1f\n    /* \"#utility.yul\":6093:6098   */\n  dup4\n    /* \"#utility.yul\":6089:6103   */\n  add\n    /* \"#utility.yul\":6085:6108   */\n  div\n    /* \"#utility.yul\":6075:6108   */\n  swap1\n  pop\n    /* \"#utility.yul\":6021:6114   */\n  swap2\n  swap1\n  pop\n  jump\t// out\n    /* \"#utility.yul\":6120:6227   */\ntag_36:\n    /* \"#utility.yul\":6164:6172   */\n  0x00\n    /* \"#utility.yul\":6214:6219   */\n  dup3\n    /* \"#utility.yul\":6208:6212   */\n  dup3\n    /* \"#utility.yul\":6204:6220   */\n  shl\n    /* \"#utility.yul\":6183:6220   */\n  swap1\n  pop\n    /* \"#utility.yul\":6120:6227   */\n  swap3\n  swap2\n  pop\n  pop\n  jump\t// out\n    /* \"#utility.yul\":6233:6626   */\ntag_37:\n    /* \"#utility.yul\":6302:6308   */\n  0x00\n    /* \"#utility.yul\":6352:6353   */\n  0x08\n    /* \"#utility.yul\":6340:6350   */\n  dup4\n    /* \"#utility.yul\":6336:6354   */\n  mul\n    /* \"#utility.yul\":6375:6472   */\n  tag_119\n    /* \"#utility.yul\":6405:6471   */\n  0xffffffffffffffffffffffffffffffffffffffffffffffffffffffffffffffff\n    /* \"#utility.yul\":6394:6403   */\n  dup3\n    /* \"#utility.yul\":6375:6472   */\n  tag_36\n  jump\t// in\ntag_119:\n    /* \"#utility.yul\":6493:6532   */\n  tag_120\n    /* \"#utility.yul\":6523:6531   */\n  dup7\n    /* \"#utility.yul\":6512:6521   */\n  dup4\n    /* \"#utility.yul\":6493:6532   */\n  tag_36\n  jump\t// in\ntag_120:\n    /* \"#utility.yul\":6481:6532   */\n  swap6\n  pop\n    /* \"#utility.yul\":6565:6569   */\n  dup1\n    /* \"#utility.yul\":6561:6570   */\n  not\n    /* \"#utility.yul\":6554:6559   */\n  dup5\n    /* \"#utility.yul\":6550:6571   */\n  and\n    /* \"#utility.yul\":6541:6571   */\n  swap4\n  pop\n    /* \"#utility.yul\":6614:6618   */\n  dup1\n    /* \"#utility.yul\":6604:6612   */\n  dup7\n    /* \"#utility.yul\":6600:6619   */\n  and\n    /* \"#utility.yul\":6593:6598   */\n  dup5\n    /* \"#utility.yul\":6590:6620   */\n  or\n    /* \"#utility.yul\":6580:6620   */\n  swap3\n  pop\n    /* \"#utility.yul\":6309:6626   */\n  pop\n  pop\n    /* \"#utility.yul\":6233:6626   */\n  swap4\n  swap3\n  pop\n  pop\n  pop\n  jump\t// out\n    /* \"#utility.yul\":6632:6692   */\ntag_38:\n    /* \"#utility.yul\":6660:6663   */\n  0x00\n    /* \"#utility.yul\":6681:6686   */\n  dup2\n    /* \"#utility.yul\":6674:6686   */\n  swap1\n  pop\n    /* \"#utility.yul\":6632:6692   */\n  swap2\n  swap1\n  pop\n  jump\t// out\n    /* \"#utility.yul\":6698:6840   */\ntag_39:\n    /* \"#utility.yul\":6748:6757   */\n  0x00\n    /* \"#utility.yul\":6781:6834   */\n  tag_123\n    /* \"#utility.yul\":6799:6833   */\n  tag_124\n    /* \"#utility.yul\":6808:6832   */\n  tag_125\n    /* \"#utility.yul\":6826:6831   */\n  dup5\n    /* \"#utility.yul\":6808:6832   */\n  tag_14\n  jump\t// in\ntag_125:\n    /* \"#utility.yul\":6799:6833   */\n  tag_38\n  jump\t// in\ntag_124:\n    /* \"#utility.yul\":6781:6834   */\n  tag_14\n  jump\t// in\ntag_123:\n    /* \"#utility.yul\":6768:6834   */\n  swap1\n  pop\n    /* \"#utility.yul\":6698:6840   */\n  swap2\n  swap1\n  pop\n  jump\t// out\n    /* \"#utility.yul\":6846:6921   */\ntag_40:\n    /* \"#utility.yul\":6889:6892   */\n  0x00\n    /* \"#utility.yul\":6910:6915   */\n  dup2\n    /* \"#utility.yul\":6903:6915   */\n  swap1\n  pop\n    /* \"#utility.yul\":6846:6921   */\n  swap2\n  swap1\n  pop\n  jump\t// out\n    /* \"#utility.yul\":6927:7196   */\ntag_41:\n    /* \"#utility.yul\":7037:7076   */\n  tag_128\n    /* \"#utility.yul\":7068:7075   */\n  dup4\n    /* \"#utility.yul\":7037:7076   */\n  tag_39\n  jump\t// in\ntag_128:\n    /* \"#utility.yul\":7098:7189   */\n  tag_129\n    /* \"#utility.yul\":7147:7188   */\n  tag_130\n    /* \"#utility.yul\":7171:7187   */\n  dup3\n    /* \"#utility.yul\":7147:7188   */\n  tag_40\n  jump\t// in\ntag_130:\n    /* \"#utility.yul\":7139:7145   */\n  dup5\n    /* \"#utility.yul\":7132:7136   */\n  dup5\n    /* \"#utility.yul\":7126:7137   */\n  sload\n    /* \"#utility.yul\":7098:7189   */\n  tag_37\n  jump\t// in\ntag_129:\n    /* \"#utility.yul\":7092:7096   */\n  dup3\n    /* \"#utility.yul\":7085:7190   */\n  sstore\n    /* \"#utility.yul\":7003:7196   */\n  pop\n    /* \"#utility.yul\":6927:7196   */\n  pop\n  pop\n  pop\n  jump\t// out\n    /* \"#utility.yul\":7202:7275   */\ntag_42:\n    /* \"#utility.yul\":7247:7250   */\n  0x00\n    /* \"#utility.yul\":7202:7275   */\n  swap1\n  jump\t// out\n    /* \"#utility.yul\":7281:7470   */\ntag_43:\n    /* \"#utility.yul\":7358:7390   */\n  tag_133\n  tag_42\n  jump\t// in\ntag_133:\n    /* \"#utility.yul\":7399:7464   */\n  tag_134\n    /* \"#utility.yul\":7457:7463   */\n  dup2\n    /* \"#utility.yul\":7449:7455   */\n  dup5\n    /* \"#utility.yul\":7443:7447   */\n  dup5\n    /* \"#utility.yul\":7399:7464   */\n  tag_41\n  jump\t// in\ntag_134:\n    /* \"#utility.yul\":7334:7470   */\n  pop\n    /* \"#utility.yul\":7281:7470   */\n  pop\n  pop\n  jump\t// out\n    /* \"#utility.yul\":7476:7662   */\ntag_44:\n    /* \"#utility.yul\":7536:7656   */\ntag_136:\n    /* \"#utility.yul\":7553:7556   */\n  dup2\n    /* \"#utility.yul\":7546:7551   */\n  dup2\n    /* \"#utility.yul\":7543:7557   */\n  lt\n    /* \"#utility.yul\":7536:7656   */\n  iszero\n  tag_138\n  jumpi\n    /* \"#utility.yul\":7607:7646   */\n  tag_139\n    /* \"#utility.yul\":7644:7645   */\n  0x00\n    /* \"#utility.yul\":7637:7642   */\n  dup3\n    /* \"#utility.yul\":7607:7646   */\n  tag_43\n  jump\t// in\ntag_139:\n    /* \"#utility.yul\":7580:7581   */\n  0x01\n    /* \"#utility.yul\":7573:7578   */\n  dup2\n    /* \"#utility.yul\":7569:7582   */\n  add\n    /* \"#utility.yul\":7560:7582   */\n  swap1\n  pop\n    /* \"#utility.yul\":7536:7656   */\n  jump(tag_136)\ntag_138:\n    /* \"#utility.yul\":7476:7662   */\n  pop\n  pop\n  jump\t// out\n    /* \"#utility.yul\":7668:8211   */\ntag_45:\n    /* \"#utility.yul\":7769:7771   */\n  0x1f\n    /* \"#utility.yul\":7764:7767   */\n  dup3\n    /* \"#utility.yul\":7761:7772   */\n  gt\n    /* \"#utility.yul\":7758:8204   */\n  iszero\n  tag_141\n  jumpi\n    /* \"#utility.yul\":7803:7841   */\n  tag_142\n    /* \"#utility.yul\":7835:7840   */\n  dup2\n    /* \"#utility.yul\":7803:7841   */\n  tag_34\n  jump\t// in\ntag_142:\n    /* \"#utility.yul\":7887:7916   */\n  tag_143\n    /* \"#utility.yul\":7905:7915   */\n  dup5\n    /* \"#utility.yul\":7887:7916   */\n  tag_35\n  jump\t// in\ntag_143:\n    /* \"#utility.yul\":7877:7885   */\n  dup2\n    /* \"#utility.yul\":7873:7917   */\n  add\n    /* \"#utility.yul\":8070:8072   */\n  0x20\n    /* \"#utility.yul\":8058:8068   */\n  dup6\n    /* \"#utility.yul\":8055:8073   */\n  lt\n    /* \"#utility.yul\":8052:8101   */\n  iszero\n  tag_144\n  jumpi\n    /* \"#utility.yul\":8091:8099   */\n  dup2\n    /* \"#utility.yul\":8076:8099   */\n  swap1\n  pop\n    /* \"#utility.yul\":8052:8101   */\ntag_144:\n    /* \"#utility.yul\":8114:8194   */\n  tag_145\n    /* \"#utility.yul\":8170:8192   */\n  tag_146\n    /* \"#utility.yul\":8188:8191   */\n  dup6\n    /* \"#utility.yul\":8170:8192   */\n  tag_35\n  jump\t// in\ntag_146:\n    /* \"#utility.yul\":8160:8168   */\n  dup4\n    /* \"#utility.yul\":8156:8193   */\n  add\n    /* \"#utility.yul\":8143:8154   */\n  dup3\n    /* \"#utility.yul\":8114:8194   */\n  tag_44\n  jump\t// in\ntag_145:\n    /* \"#utility.yul\":7773:8204   */\n  pop\n  pop\n    /* \"#utility.yul\":7758:8204   */\ntag_141:\n    /* \"#utility.yul\":7668:8211   */\n  pop\n  pop\n  pop\n  jump\t// out\n    /* \"#utility.yul\":8217:8334   */\ntag_46:\n    /* \"#utility.yul\":8271:8279   */\n  0x00\n    /* \"#utility.yul\":8321:8326   */\n  dup3\n    /* \"#utility.yul\":8315:8319   */\n  dup3\n    /* \"#utility.yul\":8311:8327   */\n  shr\n    /* \"#utility.yul\":8290:8327   */\n  swap1\n  pop\n    /* \"#utility.yul\":8217:8334   */\n  swap3\n  swap2\n  pop\n  pop\n  jump\t// out\n    /* \"#utility.yul\":8340:8509   */\ntag_47:\n    /* \"#utility.yul\":8384:8390   */\n  0x00\n    /* \"#utility.yul\":8417:8468   */\n  tag_149\n    /* \"#utility.yul\":8465:8466   */\n  0x00\n    /* \"#utility.yul\":8461:8467   */\n  not\n    /* \"#utility.yul\":8453:8458   */\n  dup5\n    /* \"#utility.yul\":8450:8451   */\n  0x08\n    /* \"#utility.yul\":8446:8459   */\n  mul\n    /* \"#utility.yul\":8417:8468   */\n  tag_46\n  jump\t// in\ntag_149:\n    /* \"#utility.yul\":8413:8469   */\n  not\n    /* \"#utility.yul\":8498:8502   */\n  dup1\n    /* \"#utility.yul\":8492:8496   */\n  dup4\n    /* \"#utility.yul\":8488:8503   */\n  and\n    /* \"#utility.yul\":8478:8503   */\n  swap2\n  pop\n    /* \"#utility.yul\":8391:8509   */\n  pop\n    /* \"#utility.yul\":8340:8509   */\n  swap3\n  swap2\n  pop\n  pop\n  jump\t// out\n    /* \"#utility.yul\":8514:8809   */\ntag_48:\n    /* \"#utility.yul\":8590:8594   */\n  0x00\n    /* \"#utility.yul\":8736:8765   */\n  tag_151\n    /* \"#utility.yul\":8761:8764   */\n  dup4\n    /* \"#utility.yul\":8755:8759   */\n  dup4\n    /* \"#utility.yul\":8736:8765   */\n  tag_47\n  jump\t// in\ntag_151:\n    /* \"#utility.yul\":8728:8765   */\n  swap2\n  pop\n    /* \"#utility.yul\":8798:8801   */\n  dup3\n    /* \"#utility.yul\":8795:8796   */\n  0x02\n    /* \"#utility.yul\":8791:8802   */\n  mul\n    /* \"#utility.yul\":8785:8789   */\n  dup3\n    /* \"#utility.yul\":8782:8803   */\n  or\n    /* \"#utility.yul\":8774:8803   */\n  swap1\n  pop\n    /* \"#utility.yul\":8514:8809   */\n  swap3\n  swap2\n  pop\n  pop\n  jump\t// out\n    /* \"#utility.yul\":8814:10209   */\ntag_7:\n    /* \"#utility.yul\":8931:8968   */\n  tag_153\n    /* \"#utility.yul\":8964:8967   */\n  dup3\n    /* \"#utility.yul\":8931:8968   */\n  tag_31\n  jump\t// in\ntag_153:\n    /* \"#utility.yul\":9033:9051   */\n  0xffffffffffffffff\n    /* \"#utility.yul\":9025:9031   */\n  dup2\n    /* \"#utility.yul\":9022:9052   */\n  gt\n    /* \"#utility.yul\":9019:9075   */\n  iszero\n  tag_154\n  jumpi\n    /* \"#utility.yul\":9055:9073   */\n  tag_155\n  tag_24\n  jump\t// in\ntag_155:\n    /* \"#utility.yul\":9019:9075   */\ntag_154:\n    /* \"#utility.yul\":9099:9137   */\n  tag_156\n    /* \"#utility.yul\":9131:9135   */\n  dup3\n    /* \"#utility.yul\":9125:9136   */\n  sload\n    /* \"#utility.yul\":9099:9137   */\n  tag_33\n  jump\t// in\ntag_156:\n    /* \"#utility.yul\":9184:9251   */\n  tag_157\n    /* \"#utility.yul\":9244:9250   */\n  dup3\n    /* \"#utility.yul\":9236:9242   */\n  dup3\n    /* \"#utility.yul\":9230:9234   */\n  dup6\n    /* \"#utility.yul\":9184:9251   */\n  tag_45\n  jump\t// in\ntag_157:\n    /* \"#utility.yul\":9278:9279   */\n  0x00\n    /* \"#utility.yul\":9302:9306   */\n  0x20\n    /* \"#utility.yul\":9289:9306   */\n  swap1\n  pop\n    /* \"#utility.yul\":9334:9336   */\n  0x1f\n    /* \"#utility.yul\":9326:9332   */\n  dup4\n    /* \"#utility.yul\":9323:9337   */\n  gt\n    /* \"#utility.yul\":9351:9352   */\n  0x01\n    /* \"#utility.yul\":9346:9964   */\n  dup2\n  eq\n  tag_159\n  jumpi\n    /* \"#utility.yul\":10008:10009   */\n  0x00\n    /* \"#utility.yul\":10025:10031   */\n  dup5\n    /* \"#utility.yul\":10022:10099   */\n  iszero\n  tag_160\n  jumpi\n    /* \"#utility.yul\":10074:10083   */\n  dup3\n    /* \"#utility.yul\":10069:10072   */\n  dup8\n    /* \"#utility.yul\":10065:10084   */\n  add\n    /* \"#utility.yul\":10059:10085   */\n  mload\n    /* \"#utility.yul\":10050:10085   */\n  swap1\n  pop\n    /* \"#utility.yul\":10022:10099   */\ntag_160:\n    /* \"#utility.yul\":10125:10192   */\n  tag_161\n    /* \"#utility.yul\":10185:10191   */\n  dup6\n    /* \"#utility.yul\":10178:10183   */\n  dup3\n    /* \"#utility.yul\":10125:10192   */\n  tag_48\n  jump\t// in\ntag_161:\n    /* \"#utility.yul\":10119:10123   */\n  dup7\n    /* \"#utility.yul\":10112:10193   */\n  sstore\n    /* \"#utility.yul\":9981:10203   */\n  pop\n    /* \"#utility.yul\":9316:10203   */\n  jump(tag_158)\n    /* \"#utility.yul\":9346:9964   */\ntag_159:\n    /* \"#utility.yul\":9398:9402   */\n  0x1f\n    /* \"#utility.yul\":9394:9403   */\n  not\n    /* \"#utility.yul\":9386:9392   */\n  dup5\n    /* \"#utility.yul\":9382:9404   */\n  and\n    /* \"#utility.yul\":9432:9469   */\n  tag_162\n    /* \"#utility.yul\":9464:9468   */\n  dup7\n    /* \"#utility.yul\":9432:9469   */\n  tag_34\n  jump\t// in\ntag_162:\n    /* \"#utility.yul\":9491:9492   */\n  0x00\n    /* \"#utility.yul\":9505:9713   */\ntag_163:\n    /* \"#utility.yul\":9519:9526   */\n  dup3\n    /* \"#utility.yul\":9516:9517   */\n  dup2\n    /* \"#utility.yul\":9513:9527   */\n  lt\n    /* \"#utility.yul\":9505:9713   */\n  iszero\n  tag_165\n  jumpi\n    /* \"#utility.yul\":9598:9607   */\n  dup5\n    /* \"#utility.yul\":9593:9596   */\n  dup10\n    /* \"#utility.yul\":9589:9608   */\n  add\n    /* \"#utility.yul\":9583:9609   */\n  mload\n    /* \"#utility.yul\":9575:9581   */\n  dup3\n    /* \"#utility.yul\":9568:9610   */\n  sstore\n    /* \"#utility.yul\":9649:9650   */\n  0x01\n    /* \"#utility.yul\":9641:9647   */\n  dup3\n    /* \"#utility.yul\":9637:9651   */\n  add\n    /* \"#utility.yul\":9627:9651   */\n  swap2\n  pop\n    /* \"#utility.yul\":9696:9698   */\n  0x20\n    /* \"#utility.yul\":9685:9694   */\n  dup6\n    /* \"#utility.yul\":9681:9699   */\n  add\n    /* \"#utility.yul\":9668:9699   */\n  swap5\n  pop\n    /* \"#utility.yul\":9542:9546   */\n  0x20\n    /* \"#utility.yul\":9539:9540   */\n  dup2\n    /* \"#utility.yul\":9535:9547   */\n  add\n    /* \"#utility.yul\":9530:9547   */\n  swap1\n  pop\n    /* \"#utility.yul\":9505:9713   */\n  jump(tag_163)\ntag_165:\n    /* \"#utility.yul\":9741:9747   */\n  dup7\n    /* \"#utility.yul\":9732:9739   */\n  dup4\n    /* \"#utility.yul\":9729:9748   */\n  lt\n    /* \"#utility.yul\":9726:9905   */\n  iszero\n  tag_166\n  jumpi\n    /* \"#utility.yul\":9799:9808   */\n  dup5\n    /* \"#utility.yul\":9794:9797   */\n  dup10\n    /* \"#utility.yul\":9790:9809   */\n  add\n    /* \"#utility.yul\":9784:9810   */\n  mload\n    /* \"#utility.yul\":9842:9890   */\n  tag_167\n    /* \"#utility.yul\":9884:9888   */\n  0x1f\n    /* \"#utility.yul\":9876:9882   */\n  dup10\n    /* \"#utility.yul\":9872:9889   */\n  and\n    /* \"#utility.yul\":9861:9870   */\n  dup3\n    /* \"#utility.yul\":9842:9890   */\n  tag_47\n  jump\t// in\ntag_167:\n    /* \"#utility.yul\":9834:9840   */\n  dup4\n    /* \"#utility.yul\":9827:9891   */\n  sstore\n    /* \"#utility.yul\":9749:9905   */\n  pop\n    /* \"#utility.yul\":9726:9905   */\ntag_166:\n    /* \"#utility.yul\":9951:9952   */\n  0x01\n    /* \"#utility.yul\":9947:9948   */\n  0x02\n    /* \"#utility.yul\":9939:9945   */\n  dup9\n    /* \"#utility.yul\":9935:9949   */\n  mul\n    /* \"#utility.yul\":9931:9953   */\n  add\n    /* \"#utility.yul\":9925:9929   */\n  dup9\n    /* \"#utility.yul\":9918:9954   */\n  sstore\n    /* \"#utility.yul\":9353:9964   */\n  pop\n  pop\n  pop\n    /* \"#utility.yul\":9316:10203   */\ntag_158:\n  pop\n    /* \"#utility.yul\":8906:10209   */\n  pop\n  pop\n  pop\n    /* \"#utility.yul\":8814:10209   */\n  pop\n  pop\n  jump\t// out\n    /* \"backend/contracts/Campaign.sol\":70:2259  contract Campaign {... */\ntag_10:\n  dataSize(sub_0)\n  dup1\n  dataOffset(sub_0)\n  0x00\n  codecopy\n  0x00\n  return\nstop\n\nsub_0: assembly {\n        /* \"backend/contracts/Campaign.sol\":70:2259  contract Campaign {... */\n      mstore(0x40, 0x80)\n      callvalue\n      dup1\n      iszero\n      tag_1\n      jumpi\n      0x00\n      dup1\n      revert\n    tag_1:\n      pop\n      jumpi(tag_2, lt(calldatasize, 0x04))\n      shr(0xe0, calldataload(0x00))\n      dup1\n      0x7a3a0e84\n      gt\n      tag_15\n      jumpi\n      dup1\n      0x7a3a0e84\n      eq\n      tag_9\n      jumpi\n      dup1\n      0x8ed5b0fc\n      eq\n      tag_10\n      jumpi\n      dup1\n      0x968ed600\n      eq\n      tag_11\n      jumpi\n      dup1\n      0xa1211bc0\n      eq\n      tag_12\n      jumpi\n      dup1\n      0xcc6cb19a\n      eq\n      tag_13\n      jumpi\n      dup1\n      0xed88c68e\n      eq\n      tag_14\n      jumpi\n      jump(tag_2)\n    tag_15:\n      dup1\n      0x06fdde03\n      eq\n      tag_3\n      jumpi\n      dup1\n      0x22f3e2d4\n      eq\n      tag_4\n      jumpi\n      dup1\n      0x29dcb0cf\n      eq\n      tag_5\n      jumpi\n      dup1\n      0x38af3eed\n      eq\n      tag_6\n      jumpi\n      dup1\n      0x70740aab\n      eq\n      tag_7\n      jumpi\n      dup1\n      0x7284e416\n      eq\n      tag_8\n      jumpi\n    tag_2:\n      0x00\n      dup1\n      revert\n        /* \"backend/contracts/Campaign.sol\":305:323  string public name */\n    tag_3:\n      tag_16\n      tag_17\n      jump\t// in\n    tag_16:\n      mload(0x40)\n      tag_18\n      swap2\n      swap1\n      tag_19\n      jump\t// in\n    tag_18:\n      mload(0x40)\n      dup1\n      swap2\n      sub\n      swap1\n      return\n        /* \"backend/contracts/Campaign.sol\":491:511  bool public isActive */\n    tag_4:\n      tag_20\n      tag_21\n      jump\t// in\n    tag_20:\n      mload(0x40)\n      tag_22\n      swap2\n      swap1\n      tag_23\n      jump\t// in\n    tag_22:\n      mload(0x40)\n      dup1\n      swap2\n      sub\n      swap1\n      return\n        /* \"backend/contracts/Campaign.sol\":416:436  uint public deadline */\n    tag_5:\n      tag_24\n      tag_25\n      jump\t// in\n    tag_24:\n      mload(0x40)\n      tag_26\n      swap2\n      swap1\n      tag_27\n      jump\t// in\n    tag_26:\n      mload(0x40)\n      dup1\n      swap2\n      sub\n      swap1\n      return\n        /* \"backend/contracts/Campaign.sol\":273:299  address public beneficiary */\n    tag_6:\n      tag_28\n      tag_29\n      jump\t// in\n    tag_28:\n      mload(0x40)\n      tag_30\n      swap2\n      swap1\n      tag_31\n      jump\t// in\n    tag_30:\n      mload(0x40)\n      dup1\n      swap2\n      sub\n      swap1\n      return\n        /* \"backend/contracts/Campaign.sol\":329:350  string public purpose */\n    tag_7:\n      tag_32\n      tag_33\n      jump\t// in\n    tag_32:\n      mload(0x40)\n      tag_34\n      swap2\n      swap1\n      tag_19\n      jump\t// in\n    tag_34:\n      mload(0x40)\n      dup1\n      swap2\n      sub\n      swap1\n      return\n        /* \"backend/contracts/Campaign.sol\":356:381  string public description */\n    tag_8:\n      tag_35\n      tag_36\n      jump\t// in\n    tag_35:\n      mload(0x40)\n      tag_37\n      swap2\n      swap1\n      tag_19\n      jump\t// in\n    tag_37:\n      mload(0x40)\n      dup1\n      swap2\n      sub\n      swap1\n      return\n        /* \"backend/contracts/Campaign.sol\":387:410  uint public fundingGoal */\n    tag_9:\n      tag_38\n      tag_39\n      jump\t// in\n    tag_38:\n      mload(0x40)\n      tag_40\n      swap2\n      swap1\n      tag_27\n      jump\t// in\n    tag_40:\n      mload(0x40)\n      dup1\n      swap2\n      sub\n      swap1\n      return\n        /* \"backend/contracts/Campaign.sol\":245:267  uint public campaignId */\n    tag_10:\n      tag_41\n      tag_42\n      jump\t// in\n    tag_41:\n      mload(0x40)\n      tag_43\n      swap2\n      swap1\n      tag_27\n      jump\t// in\n    tag_43:\n      mload(0x40)\n      dup1\n      swap2\n      sub\n      swap1\n      return\n        /* \"backend/contracts/Campaign.sol\":442:464  uint public totalFunds */\n    tag_11:\n      tag_44\n      tag_45\n      jump\t// in\n    tag_44:\n      mload(0x40)\n      tag_46\n      swap2\n      swap1\n      tag_27\n      jump\t// in\n    tag_46:\n      mload(0x40)\n      dup1\n      swap2\n      sub\n      swap1\n      return\n        /* \"backend/contracts/Campaign.sol\":2099:2136  function finalizeCampaign() public {} */\n    tag_12:\n      tag_47\n      tag_48\n      jump\t// in\n    tag_47:\n      stop\n        /* \"backend/contracts/Campaign.sol\":668:709  mapping(address => uint) public donations */\n    tag_13:\n      tag_49\n      0x04\n      dup1\n      calldatasize\n      sub\n      dup2\n      add\n      swap1\n      tag_50\n      swap2\n      swap1\n      tag_51\n      jump\t// in\n    tag_50:\n      tag_52\n      jump\t// in\n    tag_49:\n      mload(0x40)\n      tag_53\n      swap2\n      swap1\n      tag_27\n      jump\t// in\n    tag_53:\n      mload(0x40)\n      dup1\n      swap2\n      sub\n      swap1\n      return\n        /* \"backend/contracts/Campaign.sol\":1679:1706  function donate() public {} */\n    tag_14:\n      tag_54\n      tag_55\n      jump\t// in\n    tag_54:\n      stop\n        /* \"backend/contracts/Campaign.sol\":305:323  string public name */\n    tag_17:\n      0x02\n      dup1\n      sload\n      tag_56\n      swap1\n      tag_57\n      jump\t// in\n    tag_56:\n      dup1\n      0x1f\n      add\n      0x20\n      dup1\n      swap2\n      div\n      mul\n      0x20\n      add\n      mload(0x40)\n      swap1\n      dup2\n      add\n      0x40\n      mstore\n      dup1\n      swap3\n      swap2\n      swap1\n      dup2\n      dup2\n      mstore\n      0x20\n      add\n      dup3\n      dup1\n      sload\n      tag_58\n      swap1\n      tag_57\n      jump\t// in\n    tag_58:\n      dup1\n      iszero\n      tag_59\n      jumpi\n      dup1\n      0x1f\n      lt\n      tag_60\n      jumpi\n      0x0100\n      dup1\n      dup4\n      sload\n      div\n      mul\n      dup4\n      mstore\n      swap2\n      0x20\n      add\n      swap2\n      jump(tag_59)\n    tag_60:\n      dup3\n      add\n      swap2\n      swap1\n      0x00\n      mstore\n      keccak256(0x00, 0x20)\n      swap1\n    tag_61:\n      dup2\n      sload\n      dup2\n      mstore\n      swap1\n      0x01\n      add\n      swap1\n      0x20\n      add\n      dup1\n      dup4\n      gt\n      tag_61\n      jumpi\n      dup3\n      swap1\n      sub\n      0x1f\n      and\n      dup3\n      add\n      swap2\n    tag_59:\n      pop\n      pop\n      pop\n      pop\n      pop\n      dup2\n      jump\t// out\n        /* \"backend/contracts/Campaign.sol\":491:511  bool public isActive */\n    tag_21:\n      0x08\n      0x00\n      swap1\n      sload\n      swap1\n      0x0100\n      exp\n      swap1\n      div\n      0xff\n      and\n      dup2\n      jump\t// out\n        /* \"backend/contracts/Campaign.sol\":416:436  uint public deadline */\n    tag_25:\n      sload(0x06)\n      dup2\n      jump\t// out\n        /* \"backend/contracts/Campaign.sol\":273:299  address public beneficiary */\n    tag_29:\n      0x01\n      0x00\n      swap1\n      sload\n      swap1\n      0x0100\n      exp\n      swap1\n      div\n      0xffffffffffffffffffffffffffffffffffffffff\n      and\n      dup2\n      jump\t// out\n        /* \"backend/contracts/Campaign.sol\":329:350  string public purpose */\n    tag_33:\n      0x03\n      dup1\n      sload\n      tag_62\n      swap1\n      tag_57\n      jump\t// in\n    tag_62:\n      dup1\n      0x1f\n      add\n      0x20\n      dup1\n      swap2\n      div\n      mul\n      0x20\n      add\n      mload(0x40)\n      swap1\n      dup2\n      add\n      0x40\n      mstore\n      dup1\n      swap3\n      swap2\n      swap1\n      dup2\n      dup2\n      mstore\n      0x20\n      add\n      dup3\n      dup1\n      sload\n      tag_63\n      swap1\n      tag_57\n      jump\t// in\n    tag_63:\n      dup1\n      iszero\n      tag_64\n      jumpi\n      dup1\n      0x1f\n      lt\n      tag_65\n      jumpi\n      0x0100\n      dup1\n      dup4\n      sload\n      div\n      mul\n      dup4\n      mstore\n      swap2\n      0x20\n      add\n      swap2\n      jump(tag_64)\n    tag_65:\n      dup3\n      add\n      swap2\n      swap1\n      0x00\n      mstore\n      keccak256(0x00, 0x20)\n      swap1\n    tag_66:\n      dup2\n      sload\n      dup2\n      mstore\n      swap1\n      0x01\n      add\n      swap1\n      0x20\n      add\n      dup1\n      dup4\n      gt\n      tag_66\n      jumpi\n      dup3\n      swap1\n      sub\n      0x1f\n      and\n      dup3\n      add\n      swap2\n    tag_64:\n      pop\n      pop\n      pop\n      pop\n      pop\n      dup2\n      jump\t// out\n        /* \"backend/contracts/Campaign.sol\":356:381  string public description */\n    tag_36:\n      0x04\n      dup1\n      sload\n      tag_67\n      swap1\n      tag_57\n      jump\t// in\n    tag_67:\n      dup1\n      0x1f\n      add\n      0x20\n      dup1\n      swap2\n      div\n      mul\n      0x20\n      add\n      mload(0x40)\n      swap1\n      dup2\n      add\n      0x40\n      mstore\n      dup1\n      swap3\n      swap2\n      swap1\n      dup2\n      dup2\n      mstore\n      0x20\n      add\n      dup3\n      dup1\n      sload\n      tag_68\n      swap1\n      tag_57\n      jump\t// in\n    tag_68:\n      dup1\n      iszero\n      tag_69\n      jumpi\n      dup1\n      0x1f\n      lt\n      tag_70\n      jumpi\n      0x0100\n      dup1\n      dup4\n      sload\n      div\n      mul\n      dup4\n      mstore\n      swap2\n      0x20\n      add\n      swap2\n      jump(tag_69)\n    tag_70:\n      dup3\n      add\n      swap2\n      swap1\n      0x00\n      mstore\n      keccak256(0x00, 0x20)\n      swap1\n    tag_71:\n      dup2\n      sload\n      dup2\n      mstore\n      swap1\n      0x01\n      add\n      swap1\n      0x20\n      add\n      dup1\n      dup4\n      gt\n      tag_71\n      jumpi\n      dup3\n      swap1\n      sub\n      0x1f\n      and\n      dup3\n      add\n      swap2\n    tag_69:\n      pop\n      pop\n      pop\n      pop\n      pop\n      dup2\n      jump\t// out\n        /* \"backend/contracts/Campaign.sol\":387:410  uint public fundingGoal */\n    tag_39:\n      sload(0x05)\n      dup2\n      jump\t// out\n        /* \"backend/contracts/Campaign.sol\":245:267  uint public campaignId */\n    tag_42:\n      sload(0x00)\n      dup2\n      jump\t// out\n        /* \"backend/contracts/Campaign.sol\":442:464  uint public totalFunds */\n    tag_45:\n      sload(0x07)\n      dup2\n      jump\t// out\n        /* \"backend/contracts/Campaign.sol\":2099:2136  function finalizeCampaign() public {} */\n    tag_48:\n      jump\t// out\n        /* \"backend/contracts/Campaign.sol\":668:709  mapping(address => uint) public donations */\n    tag_52:\n      mstore(0x20, 0x09)\n      dup1\n      0x00\n      mstore\n      keccak256(0x00, 0x40)\n      0x00\n      swap2\n      pop\n      swap1\n      pop\n      sload\n      dup2\n      jump\t// out\n        /* \"backend/contracts/Campaign.sol\":1679:1706  function donate() public {} */\n    tag_55:\n      jump\t// out\n        /* \"#utility.yul\":7:106   */\n    tag_74:\n        /* \"#utility.yul\":59:65   */\n      0x00\n        /* \"#utility.yul\":93:98   */\n      dup2\n        /* \"#utility.yul\":87:99   */\n      mload\n        /* \"#utility.yul\":77:99   */\n      swap1\n      pop\n        /* \"#utility.yul\":7:106   */\n      swap2\n      swap1\n      pop\n      jump\t// out\n        /* \"#utility.yul\":112:281   */\n    tag_75:\n        /* \"#utility.yul\":196:207   */\n      0x00\n        /* \"#utility.yul\":230:236   */\n      dup3\n        /* \"#utility.yul\":225:228   */\n      dup3\n        /* \"#utility.yul\":218:237   */\n      mstore\n        /* \"#utility.yul\":270:274   */\n      0x20\n        /* \"#utility.yul\":265:268   */\n      dup3\n        /* \"#utility.yul\":261:275   */\n      add\n        /* \"#utility.yul\":246:275   */\n      swap1\n      pop\n        /* \"#utility.yul\":112:281   */\n      swap3\n      swap2\n      pop\n      pop\n      jump\t// out\n        /* \"#utility.yul\":287:426   */\n    tag_76:\n        /* \"#utility.yul\":376:382   */\n      dup3\n        /* \"#utility.yul\":371:374   */\n      dup2\n        /* \"#utility.yul\":366:369   */\n      dup4\n        /* \"#utility.yul\":360:383   */\n      mcopy\n        /* \"#utility.yul\":417:418   */\n      0x00\n        /* \"#utility.yul\":408:414   */\n      dup4\n        /* \"#utility.yul\":403:406   */\n      dup4\n        /* \"#utility.yul\":399:415   */\n      add\n        /* \"#utility.yul\":392:419   */\n      mstore\n        /* \"#utility.yul\":287:426   */\n      pop\n      pop\n      pop\n      jump\t// out\n        /* \"#utility.yul\":432:534   */\n    tag_77:\n        /* \"#utility.yul\":473:479   */\n      0x00\n        /* \"#utility.yul\":524:526   */\n      0x1f\n        /* \"#utility.yul\":520:527   */\n      not\n        /* \"#utility.yul\":515:517   */\n      0x1f\n        /* \"#utility.yul\":508:513   */\n      dup4\n        /* \"#utility.yul\":504:518   */\n      add\n        /* \"#utility.yul\":500:528   */\n      and\n        /* \"#utility.yul\":490:528   */\n      swap1\n      pop\n        /* \"#utility.yul\":432:534   */\n      swap2\n      swap1\n      pop\n      jump\t// out\n        /* \"#utility.yul\":540:917   */\n    tag_78:\n        /* \"#utility.yul\":628:631   */\n      0x00\n        /* \"#utility.yul\":656:695   */\n      tag_98\n        /* \"#utility.yul\":689:694   */\n      dup3\n        /* \"#utility.yul\":656:695   */\n      tag_74\n      jump\t// in\n    tag_98:\n        /* \"#utility.yul\":711:782   */\n      tag_99\n        /* \"#utility.yul\":775:781   */\n      dup2\n        /* \"#utility.yul\":770:773   */\n      dup6\n        /* \"#utility.yul\":711:782   */\n      tag_75\n      jump\t// in\n    tag_99:\n        /* \"#utility.yul\":704:782   */\n      swap4\n      pop\n        /* \"#utility.yul\":791:856   */\n      tag_100\n        /* \"#utility.yul\":849:855   */\n      dup2\n        /* \"#utility.yul\":844:847   */\n      dup6\n        /* \"#utility.yul\":837:841   */\n      0x20\n        /* \"#utility.yul\":830:835   */\n      dup7\n        /* \"#utility.yul\":826:842   */\n      add\n        /* \"#utility.yul\":791:856   */\n      tag_76\n      jump\t// in\n    tag_100:\n        /* \"#utility.yul\":881:910   */\n      tag_101\n        /* \"#utility.yul\":903:909   */\n      dup2\n        /* \"#utility.yul\":881:910   */\n      tag_77\n      jump\t// in\n    tag_101:\n        /* \"#utility.yul\":876:879   */\n      dup5\n        /* \"#utility.yul\":872:911   */\n      add\n        /* \"#utility.yul\":865:911   */\n      swap2\n      pop\n        /* \"#utility.yul\":632:917   */\n      pop\n        /* \"#utility.yul\":540:917   */\n      swap3\n      swap2\n      pop\n      pop\n      jump\t// out\n        /* \"#utility.yul\":923:1236   */\n    tag_19:\n        /* \"#utility.yul\":1036:1040   */\n      0x00\n        /* \"#utility.yul\":1074:1076   */\n      0x20\n        /* \"#utility.yul\":1063:1072   */\n      dup3\n        /* \"#utility.yul\":1059:1077   */\n      add\n        /* \"#utility.yul\":1051:1077   */\n      swap1\n      pop\n        /* \"#utility.yul\":1123:1132   */\n      dup2\n        /* \"#utility.yul\":1117:1121   */\n      dup2\n        /* \"#utility.yul\":1113:1133   */\n      sub\n        /* \"#utility.yul\":1109:1110   */\n      0x00\n        /* \"#utility.yul\":1098:1107   */\n      dup4\n        /* \"#utility.yul\":1094:1111   */\n      add\n        /* \"#utility.yul\":1087:1134   */\n      mstore\n        /* \"#utility.yul\":1151:1229   */\n      tag_103\n        /* \"#utility.yul\":1224:1228   */\n      dup2\n        /* \"#utility.yul\":1215:1221   */\n      dup5\n        /* \"#utility.yul\":1151:1229   */\n      tag_78\n      jump\t// in\n    tag_103:\n        /* \"#utility.yul\":1143:1229   */\n      swap1\n      pop\n        /* \"#utility.yul\":923:1236   */\n      swap3\n      swap2\n      pop\n      pop\n      jump\t// out\n        /* \"#utility.yul\":1242:1332   */\n    tag_79:\n        /* \"#utility.yul\":1276:1283   */\n      0x00\n        /* \"#utility.yul\":1319:1324   */\n      dup2\n        /* \"#utility.yul\":1312:1325   */\n      iszero\n        /* \"#utility.yul\":1305:1326   */\n      iszero\n        /* \"#utility.yul\":1294:1326   */\n      swap1\n      pop\n        /* \"#utility.yul\":1242:1332   */\n      swap2\n      swap1\n      pop\n      jump\t// out\n        /* \"#utility.yul\":1338:1447   */\n    tag_80:\n        /* \"#utility.yul\":1419:1440   */\n      tag_106\n        /* \"#utility.yul\":1434:1439   */\n      dup2\n        /* \"#utility.yul\":1419:1440   */\n      tag_79\n      jump\t// in\n    tag_106:\n        /* \"#utility.yul\":1414:1417   */\n      dup3\n        /* \"#utility.yul\":1407:1441   */\n      mstore\n        /* \"#utility.yul\":1338:1447   */\n      pop\n      pop\n      jump\t// out\n        /* \"#utility.yul\":1453:1663   */\n    tag_23:\n        /* \"#utility.yul\":1540:1544   */\n      0x00\n        /* \"#utility.yul\":1578:1580   */\n      0x20\n        /* \"#utility.yul\":1567:1576   */\n      dup3\n        /* \"#utility.yul\":1563:1581   */\n      add\n        /* \"#utility.yul\":1555:1581   */\n      swap1\n      pop\n        /* \"#utility.yul\":1591:1656   */\n      tag_108\n        /* \"#utility.yul\":1653:1654   */\n      0x00\n        /* \"#utility.yul\":1642:1651   */\n      dup4\n        /* \"#utility.yul\":1638:1655   */\n      add\n        /* \"#utility.yul\":1629:1635   */\n      dup5\n        /* \"#utility.yul\":1591:1656   */\n      tag_80\n      jump\t// in\n    tag_108:\n        /* \"#utility.yul\":1453:1663   */\n      swap3\n      swap2\n      pop\n      pop\n      jump\t// out\n        /* \"#utility.yul\":1669:1746   */\n    tag_81:\n        /* \"#utility.yul\":1706:1713   */\n      0x00\n        /* \"#utility.yul\":1735:1740   */\n      dup2\n        /* \"#utility.yul\":1724:1740   */\n      swap1\n      pop\n        /* \"#utility.yul\":1669:1746   */\n      swap2\n      swap1\n      pop\n      jump\t// out\n        /* \"#utility.yul\":1752:1870   */\n    tag_82:\n        /* \"#utility.yul\":1839:1863   */\n      tag_111\n        /* \"#utility.yul\":1857:1862   */\n      dup2\n        /* \"#utility.yul\":1839:1863   */\n      tag_81\n      jump\t// in\n    tag_111:\n        /* \"#utility.yul\":1834:1837   */\n      dup3\n        /* \"#utility.yul\":1827:1864   */\n      mstore\n        /* \"#utility.yul\":1752:1870   */\n      pop\n      pop\n      jump\t// out\n        /* \"#utility.yul\":1876:2098   */\n    tag_27:\n        /* \"#utility.yul\":1969:1973   */\n      0x00\n        /* \"#utility.yul\":2007:2009   */\n      0x20\n        /* \"#utility.yul\":1996:2005   */\n      dup3\n        /* \"#utility.yul\":1992:2010   */\n      add\n        /* \"#utility.yul\":1984:2010   */\n      swap1\n      pop\n        /* \"#utility.yul\":2020:2091   */\n      tag_113\n        /* \"#utility.yul\":2088:2089   */\n      0x00\n        /* \"#utility.yul\":2077:2086   */\n      dup4\n        /* \"#utility.yul\":2073:2090   */\n      add\n        /* \"#utility.yul\":2064:2070   */\n      dup5\n        /* \"#utility.yul\":2020:2091   */\n      tag_82\n      jump\t// in\n    tag_113:\n        /* \"#utility.yul\":1876:2098   */\n      swap3\n      swap2\n      pop\n      pop\n      jump\t// out\n        /* \"#utility.yul\":2104:2230   */\n    tag_83:\n        /* \"#utility.yul\":2141:2148   */\n      0x00\n        /* \"#utility.yul\":2181:2223   */\n      0xffffffffffffffffffffffffffffffffffffffff\n        /* \"#utility.yul\":2174:2179   */\n      dup3\n        /* \"#utility.yul\":2170:2224   */\n      and\n        /* \"#utility.yul\":2159:2224   */\n      swap1\n      pop\n        /* \"#utility.yul\":2104:2230   */\n      swap2\n      swap1\n      pop\n      jump\t// out\n        /* \"#utility.yul\":2236:2332   */\n    tag_84:\n        /* \"#utility.yul\":2273:2280   */\n      0x00\n        /* \"#utility.yul\":2302:2326   */\n      tag_116\n        /* \"#utility.yul\":2320:2325   */\n      dup3\n        /* \"#utility.yul\":2302:2326   */\n      tag_83\n      jump\t// in\n    tag_116:\n        /* \"#utility.yul\":2291:2326   */\n      swap1\n      pop\n        /* \"#utility.yul\":2236:2332   */\n      swap2\n      swap1\n      pop\n      jump\t// out\n        /* \"#utility.yul\":2338:2456   */\n    tag_85:\n        /* \"#utility.yul\":2425:2449   */\n      tag_118\n        /* \"#utility.yul\":2443:2448   */\n      dup2\n        /* \"#utility.yul\":2425:2449   */\n      tag_84\n      jump\t// in\n    tag_118:\n        /* \"#utility.yul\":2420:2423   */\n      dup3\n        /* \"#utility.yul\":2413:2450   */\n      mstore\n        /* \"#utility.yul\":2338:2456   */\n      pop\n      pop\n      jump\t// out\n        /* \"#utility.yul\":2462:2684   */\n    tag_31:\n        /* \"#utility.yul\":2555:2559   */\n      0x00\n        /* \"#utility.yul\":2593:2595   */\n      0x20\n        /* \"#utility.yul\":2582:2591   */\n      dup3\n        /* \"#utility.yul\":2578:2596   */\n      add\n        /* \"#utility.yul\":2570:2596   */\n      swap1\n      pop\n        /* \"#utility.yul\":2606:2677   */\n      tag_120\n        /* \"#utility.yul\":2674:2675   */\n      0x00\n        /* \"#utility.yul\":2663:2672   */\n      dup4\n        /* \"#utility.yul\":2659:2676   */\n      add\n        /* \"#utility.yul\":2650:2656   */\n      dup5\n        /* \"#utility.yul\":2606:2677   */\n      tag_85\n      jump\t// in\n    tag_120:\n        /* \"#utility.yul\":2462:2684   */\n      swap3\n      swap2\n      pop\n      pop\n      jump\t// out\n        /* \"#utility.yul\":2771:2888   */\n    tag_87:\n        /* \"#utility.yul\":2880:2881   */\n      0x00\n        /* \"#utility.yul\":2877:2878   */\n      dup1\n        /* \"#utility.yul\":2870:2882   */\n      revert\n        /* \"#utility.yul\":3017:3139   */\n    tag_89:\n        /* \"#utility.yul\":3090:3114   */\n      tag_125\n        /* \"#utility.yul\":3108:3113   */\n      dup2\n        /* \"#utility.yul\":3090:3114   */\n      tag_84\n      jump\t// in\n    tag_125:\n        /* \"#utility.yul\":3083:3088   */\n      dup2\n        /* \"#utility.yul\":3080:3115   */\n      eq\n        /* \"#utility.yul\":3070:3133   */\n      tag_126\n      jumpi\n        /* \"#utility.yul\":3129:3130   */\n      0x00\n        /* \"#utility.yul\":3126:3127   */\n      dup1\n        /* \"#utility.yul\":3119:3131   */\n      revert\n        /* \"#utility.yul\":3070:3133   */\n    tag_126:\n        /* \"#utility.yul\":3017:3139   */\n      pop\n      jump\t// out\n        /* \"#utility.yul\":3145:3284   */\n    tag_90:\n        /* \"#utility.yul\":3191:3196   */\n      0x00\n        /* \"#utility.yul\":3229:3235   */\n      dup2\n        /* \"#utility.yul\":3216:3236   */\n      calldataload\n        /* \"#utility.yul\":3207:3236   */\n      swap1\n      pop\n        /* \"#utility.yul\":3245:3278   */\n      tag_128\n        /* \"#utility.yul\":3272:3277   */\n      dup2\n        /* \"#utility.yul\":3245:3278   */\n      tag_89\n      jump\t// in\n    tag_128:\n        /* \"#utility.yul\":3145:3284   */\n      swap3\n      swap2\n      pop\n      pop\n      jump\t// out\n        /* \"#utility.yul\":3290:3619   */\n    tag_51:\n        /* \"#utility.yul\":3349:3355   */\n      0x00\n        /* \"#utility.yul\":3398:3400   */\n      0x20\n        /* \"#utility.yul\":3386:3395   */\n      dup3\n        /* \"#utility.yul\":3377:3384   */\n      dup5\n        /* \"#utility.yul\":3373:3396   */\n      sub\n        /* \"#utility.yul\":3369:3401   */\n      slt\n        /* \"#utility.yul\":3366:3485   */\n      iszero\n      tag_130\n      jumpi\n        /* \"#utility.yul\":3404:3483   */\n      tag_131\n      tag_87\n      jump\t// in\n    tag_131:\n        /* \"#utility.yul\":3366:3485   */\n    tag_130:\n        /* \"#utility.yul\":3524:3525   */\n      0x00\n        /* \"#utility.yul\":3549:3602   */\n      tag_132\n        /* \"#utility.yul\":3594:3601   */\n      dup5\n        /* \"#utility.yul\":3585:3591   */\n      dup3\n        /* \"#utility.yul\":3574:3583   */\n      dup6\n        /* \"#utility.yul\":3570:3592   */\n      add\n        /* \"#utility.yul\":3549:3602   */\n      tag_90\n      jump\t// in\n    tag_132:\n        /* \"#utility.yul\":3539:3602   */\n      swap2\n      pop\n        /* \"#utility.yul\":3495:3612   */\n      pop\n        /* \"#utility.yul\":3290:3619   */\n      swap3\n      swap2\n      pop\n      pop\n      jump\t// out\n        /* \"#utility.yul\":3625:3805   */\n    tag_91:\n        /* \"#utility.yul\":3673:3750   */\n      0x4e487b7100000000000000000000000000000000000000000000000000000000\n        /* \"#utility.yul\":3670:3671   */\n      0x00\n        /* \"#utility.yul\":3663:3751   */\n      mstore\n        /* \"#utility.yul\":3770:3774   */\n      0x22\n        /* \"#utility.yul\":3767:3768   */\n      0x04\n        /* \"#utility.yul\":3760:3775   */\n      mstore\n        /* \"#utility.yul\":3794:3798   */\n      0x24\n        /* \"#utility.yul\":3791:3792   */\n      0x00\n        /* \"#utility.yul\":3784:3799   */\n      revert\n        /* \"#utility.yul\":3811:4131   */\n    tag_57:\n        /* \"#utility.yul\":3855:3861   */\n      0x00\n        /* \"#utility.yul\":3892:3893   */\n      0x02\n        /* \"#utility.yul\":3886:3890   */\n      dup3\n        /* \"#utility.yul\":3882:3894   */\n      div\n        /* \"#utility.yul\":3872:3894   */\n      swap1\n      pop\n        /* \"#utility.yul\":3939:3940   */\n      0x01\n        /* \"#utility.yul\":3933:3937   */\n      dup3\n        /* \"#utility.yul\":3929:3941   */\n      and\n        /* \"#utility.yul\":3960:3978   */\n      dup1\n        /* \"#utility.yul\":3950:4031   */\n      tag_135\n      jumpi\n        /* \"#utility.yul\":4016:4020   */\n      0x7f\n        /* \"#utility.yul\":4008:4014   */\n      dup3\n        /* \"#utility.yul\":4004:4021   */\n      and\n        /* \"#utility.yul\":3994:4021   */\n      swap2\n      pop\n        /* \"#utility.yul\":3950:4031   */\n    tag_135:\n        /* \"#utility.yul\":4078:4080   */\n      0x20\n        /* \"#utility.yul\":4070:4076   */\n      dup3\n        /* \"#utility.yul\":4067:4081   */\n      lt\n        /* \"#utility.yul\":4047:4065   */\n      dup2\n        /* \"#utility.yul\":4044:4082   */\n      sub\n        /* \"#utility.yul\":4041:4125   */\n      tag_136\n      jumpi\n        /* \"#utility.yul\":4097:4115   */\n      tag_137\n      tag_91\n      jump\t// in\n    tag_137:\n        /* \"#utility.yul\":4041:4125   */\n    tag_136:\n        /* \"#utility.yul\":3862:4131   */\n      pop\n        /* \"#utility.yul\":3811:4131   */\n      swap2\n      swap1\n      pop\n      jump\t// out\n\n    auxdata: 0xa2646970667358221220c51cc4577c8246385c817118f706219c804d00efd505d09b850e9a59bfec4ed164736f6c634300081a0033\n}\n",
				"bytecode": {
					"linkReferences": {},
					"object": "608060405234801561000f575f80fd5b50604051610cd1380380610cd1833981810160405281019061003191906102b5565b865f819055508560015f6101000a81548173ffffffffffffffffffffffffffffffffffffffff021916908373ffffffffffffffffffffffffffffffffffffffff160217905550846002908161008691906105aa565b50836003908161009691906105aa565b5082600490816100a691906105aa565b508160058190555080600681905550600160085f6101000a81548160ff02191690831515021790555050505050505050610679565b5f604051905090565b5f80fd5b5f80fd5b5f819050919050565b6100fe816100ec565b8114610108575f80fd5b50565b5f81519050610119816100f5565b92915050565b5f73ffffffffffffffffffffffffffffffffffffffff82169050919050565b5f6101488261011f565b9050919050565b6101588161013e565b8114610162575f80fd5b50565b5f815190506101738161014f565b92915050565b5f80fd5b5f80fd5b5f601f19601f8301169050919050565b7f4e487b71000000000000000000000000000000000000000000000000000000005f52604160045260245ffd5b6101c782610181565b810181811067ffffffffffffffff821117156101e6576101e5610191565b5b80604052505050565b5f6101f86100db565b905061020482826101be565b919050565b5f67ffffffffffffffff82111561022357610222610191565b5b61022c82610181565b9050602081019050919050565b8281835e5f83830152505050565b5f61025961025484610209565b6101ef565b9050828152602081018484840111156102755761027461017d565b5b610280848285610239565b509392505050565b5f82601f83011261029c5761029b610179565b5b81516102ac848260208601610247565b91505092915050565b5f805f805f805f60e0888a0312156102d0576102cf6100e4565b5b5f6102dd8a828b0161010b565b97505060206102ee8a828b01610165565b965050604088015167ffffffffffffffff81111561030f5761030e6100e8565b5b61031b8a828b01610288565b955050606088015167ffffffffffffffff81111561033c5761033b6100e8565b5b6103488a828b01610288565b945050608088015167ffffffffffffffff811115610369576103686100e8565b5b6103758a828b01610288565b93505060a06103868a828b0161010b565b92505060c06103978a828b0161010b565b91505092959891949750929550565b5f81519050919050565b7f4e487b71000000000000000000000000000000000000000000000000000000005f52602260045260245ffd5b5f60028204905060018216806103f457607f821691505b602082108103610407576104066103b0565b5b50919050565b5f819050815f5260205f209050919050565b5f6020601f8301049050919050565b5f82821b905092915050565b5f600883026104697fffffffffffffffffffffffffffffffffffffffffffffffffffffffffffffffff8261042e565b610473868361042e565b95508019841693508086168417925050509392505050565b5f819050919050565b5f6104ae6104a96104a4846100ec565b61048b565b6100ec565b9050919050565b5f819050919050565b6104c783610494565b6104db6104d3826104b5565b84845461043a565b825550505050565b5f90565b6104ef6104e3565b6104fa8184846104be565b505050565b5b8181101561051d576105125f826104e7565b600181019050610500565b5050565b601f821115610562576105338161040d565b61053c8461041f565b8101602085101561054b578190505b61055f6105578561041f565b8301826104ff565b50505b505050565b5f82821c905092915050565b5f6105825f1984600802610567565b1980831691505092915050565b5f61059a8383610573565b9150826002028217905092915050565b6105b3826103a6565b67ffffffffffffffff8111156105cc576105cb610191565b5b6105d682546103dd565b6105e1828285610521565b5f60209050601f831160018114610612575f8415610600578287015190505b61060a858261058f565b865550610671565b601f1984166106208661040d565b5f5b8281101561064757848901518255600182019150602085019450602081019050610622565b868310156106645784890151610660601f891682610573565b8355505b6001600288020188555050505b505050505050565b61064b806106865f395ff3fe608060405234801561000f575f80fd5b50600436106100b2575f3560e01c80637a3a0e841161006f5780637a3a0e841461016a5780638ed5b0fc14610188578063968ed600146101a6578063a1211bc0146101c4578063cc6cb19a146101ce578063ed88c68e146101fe576100b2565b806306fdde03146100b657806322f3e2d4146100d457806329dcb0cf146100f257806338af3eed1461011057806370740aab1461012e5780637284e4161461014c575b5f80fd5b6100be610208565b6040516100cb9190610483565b60405180910390f35b6100dc610294565b6040516100e991906104bd565b60405180910390f35b6100fa6102a6565b60405161010791906104ee565b60405180910390f35b6101186102ac565b6040516101259190610546565b60405180910390f35b6101366102d1565b6040516101439190610483565b60405180910390f35b61015461035d565b6040516101619190610483565b60405180910390f35b6101726103e9565b60405161017f91906104ee565b60405180910390f35b6101906103ef565b60405161019d91906104ee565b60405180910390f35b6101ae6103f4565b6040516101bb91906104ee565b60405180910390f35b6101cc6103fa565b005b6101e860048036038101906101e3919061058d565b6103fc565b6040516101f591906104ee565b60405180910390f35b610206610411565b005b60028054610215906105e5565b80601f0160208091040260200160405190810160405280929190818152602001828054610241906105e5565b801561028c5780601f106102635761010080835404028352916020019161028c565b820191905f5260205f20905b81548152906001019060200180831161026f57829003601f168201915b505050505081565b60085f9054906101000a900460ff1681565b60065481565b60015f9054906101000a900473ffffffffffffffffffffffffffffffffffffffff1681565b600380546102de906105e5565b80601f016020809104026020016040519081016040528092919081815260200182805461030a906105e5565b80156103555780601f1061032c57610100808354040283529160200191610355565b820191905f5260205f20905b81548152906001019060200180831161033857829003601f168201915b505050505081565b6004805461036a906105e5565b80601f0160208091040260200160405190810160405280929190818152602001828054610396906105e5565b80156103e15780601f106103b8576101008083540402835291602001916103e1565b820191905f5260205f20905b8154815290600101906020018083116103c457829003601f168201915b505050505081565b60055481565b5f5481565b60075481565b565b6009602052805f5260405f205f915090505481565b565b5f81519050919050565b5f82825260208201905092915050565b8281835e5f83830152505050565b5f601f19601f8301169050919050565b5f61045582610413565b61045f818561041d565b935061046f81856020860161042d565b6104788161043b565b840191505092915050565b5f6020820190508181035f83015261049b818461044b565b905092915050565b5f8115159050919050565b6104b7816104a3565b82525050565b5f6020820190506104d05f8301846104ae565b92915050565b5f819050919050565b6104e8816104d6565b82525050565b5f6020820190506105015f8301846104df565b92915050565b5f73ffffffffffffffffffffffffffffffffffffffff82169050919050565b5f61053082610507565b9050919050565b61054081610526565b82525050565b5f6020820190506105595f830184610537565b92915050565b5f80fd5b61056c81610526565b8114610576575f80fd5b50565b5f8135905061058781610563565b92915050565b5f602082840312156105a2576105a161055f565b5b5f6105af84828501610579565b91505092915050565b7f4e487b71000000000000000000000000000000000000000000000000000000005f52602260045260245ffd5b5f60028204905060018216806105fc57607f821691505b60208210810361060f5761060e6105b8565b5b5091905056fea2646970667358221220c51cc4577c8246385c817118f706219c804d00efd505d09b850e9a59bfec4ed164736f6c634300081a0033",
					"opcodes": "PUSH1 0x80 PUSH1 0x40 MSTORE CALLVALUE DUP1 ISZERO PUSH2 0xF JUMPI PUSH0 DUP1 REVERT JUMPDEST POP PUSH1 0x40 MLOAD PUSH2 0xCD1 CODESIZE SUB DUP1 PUSH2 0xCD1 DUP4 CODECOPY DUP2 DUP2 ADD PUSH1 0x40 MSTORE DUP2 ADD SWAP1 PUSH2 0x31 SWAP2 SWAP1 PUSH2 0x2B5 JUMP JUMPDEST DUP7 PUSH0 DUP2 SWAP1 SSTORE POP DUP6 PUSH1 0x1 PUSH0 PUSH2 0x100 EXP DUP2 SLOAD DUP2 PUSH20 0xFFFFFFFFFFFFFFFFFFFFFFFFFFFFFFFFFFFFFFFF MUL NOT AND SWAP1 DUP4 PUSH20 0xFFFFFFFFFFFFFFFFFFFFFFFFFFFFFFFFFFFFFFFF AND MUL OR SWAP1 SSTORE POP DUP5 PUSH1 0x2 SWAP1 DUP2 PUSH2 0x86 SWAP2 SWAP1 PUSH2 0x5AA JUMP JUMPDEST POP DUP4 PUSH1 0x3 SWAP1 DUP2 PUSH2 0x96 SWAP2 SWAP1 PUSH2 0x5AA JUMP JUMPDEST POP DUP3 PUSH1 0x4 SWAP1 DUP2 PUSH2 0xA6 SWAP2 SWAP1 PUSH2 0x5AA JUMP JUMPDEST POP DUP2 PUSH1 0x5 DUP2 SWAP1 SSTORE POP DUP1 PUSH1 0x6 DUP2 SWAP1 SSTORE POP PUSH1 0x1 PUSH1 0x8 PUSH0 PUSH2 0x100 EXP DUP2 SLOAD DUP2 PUSH1 0xFF MUL NOT AND SWAP1 DUP4 ISZERO ISZERO MUL OR SWAP1 SSTORE POP POP POP POP POP POP POP POP PUSH2 0x679 JUMP JUMPDEST PUSH0 PUSH1 0x40 MLOAD SWAP1 POP SWAP1 JUMP JUMPDEST PUSH0 DUP1 REVERT JUMPDEST PUSH0 DUP1 REVERT JUMPDEST PUSH0 DUP2 SWAP1 POP SWAP2 SWAP1 POP JUMP JUMPDEST PUSH2 0xFE DUP2 PUSH2 0xEC JUMP JUMPDEST DUP2 EQ PUSH2 0x108 JUMPI PUSH0 DUP1 REVERT JUMPDEST POP JUMP JUMPDEST PUSH0 DUP2 MLOAD SWAP1 POP PUSH2 0x119 DUP2 PUSH2 0xF5 JUMP JUMPDEST SWAP3 SWAP2 POP POP JUMP JUMPDEST PUSH0 PUSH20 0xFFFFFFFFFFFFFFFFFFFFFFFFFFFFFFFFFFFFFFFF DUP3 AND SWAP1 POP SWAP2 SWAP1 POP JUMP JUMPDEST PUSH0 PUSH2 0x148 DUP3 PUSH2 0x11F JUMP JUMPDEST SWAP1 POP SWAP2 SWAP1 POP JUMP JUMPDEST PUSH2 0x158 DUP2 PUSH2 0x13E JUMP JUMPDEST DUP2 EQ PUSH2 0x162 JUMPI PUSH0 DUP1 REVERT JUMPDEST POP JUMP JUMPDEST PUSH0 DUP2 MLOAD SWAP1 POP PUSH2 0x173 DUP2 PUSH2 0x14F JUMP JUMPDEST SWAP3 SWAP2 POP POP JUMP JUMPDEST PUSH0 DUP1 REVERT JUMPDEST PUSH0 DUP1 REVERT JUMPDEST PUSH0 PUSH1 0x1F NOT PUSH1 0x1F DUP4 ADD AND SWAP1 POP SWAP2 SWAP1 POP JUMP JUMPDEST PUSH32 0x4E487B7100000000000000000000000000000000000000000000000000000000 PUSH0 MSTORE PUSH1 0x41 PUSH1 0x4 MSTORE PUSH1 0x24 PUSH0 REVERT JUMPDEST PUSH2 0x1C7 DUP3 PUSH2 0x181 JUMP JUMPDEST DUP2 ADD DUP2 DUP2 LT PUSH8 0xFFFFFFFFFFFFFFFF DUP3 GT OR ISZERO PUSH2 0x1E6 JUMPI PUSH2 0x1E5 PUSH2 0x191 JUMP JUMPDEST JUMPDEST DUP1 PUSH1 0x40 MSTORE POP POP POP JUMP JUMPDEST PUSH0 PUSH2 0x1F8 PUSH2 0xDB JUMP JUMPDEST SWAP1 POP PUSH2 0x204 DUP3 DUP3 PUSH2 0x1BE JUMP JUMPDEST SWAP2 SWAP1 POP JUMP JUMPDEST PUSH0 PUSH8 0xFFFFFFFFFFFFFFFF DUP3 GT ISZERO PUSH2 0x223 JUMPI PUSH2 0x222 PUSH2 0x191 JUMP JUMPDEST JUMPDEST PUSH2 0x22C DUP3 PUSH2 0x181 JUMP JUMPDEST SWAP1 POP PUSH1 0x20 DUP2 ADD SWAP1 POP SWAP2 SWAP1 POP JUMP JUMPDEST DUP3 DUP2 DUP4 MCOPY PUSH0 DUP4 DUP4 ADD MSTORE POP POP POP JUMP JUMPDEST PUSH0 PUSH2 0x259 PUSH2 0x254 DUP5 PUSH2 0x209 JUMP JUMPDEST PUSH2 0x1EF JUMP JUMPDEST SWAP1 POP DUP3 DUP2 MSTORE PUSH1 0x20 DUP2 ADD DUP5 DUP5 DUP5 ADD GT ISZERO PUSH2 0x275 JUMPI PUSH2 0x274 PUSH2 0x17D JUMP JUMPDEST JUMPDEST PUSH2 0x280 DUP5 DUP3 DUP6 PUSH2 0x239 JUMP JUMPDEST POP SWAP4 SWAP3 POP POP POP JUMP JUMPDEST PUSH0 DUP3 PUSH1 0x1F DUP4 ADD SLT PUSH2 0x29C JUMPI PUSH2 0x29B PUSH2 0x179 JUMP JUMPDEST JUMPDEST DUP2 MLOAD PUSH2 0x2AC DUP5 DUP3 PUSH1 0x20 DUP7 ADD PUSH2 0x247 JUMP JUMPDEST SWAP2 POP POP SWAP3 SWAP2 POP POP JUMP JUMPDEST PUSH0 DUP1 PUSH0 DUP1 PUSH0 DUP1 PUSH0 PUSH1 0xE0 DUP9 DUP11 SUB SLT ISZERO PUSH2 0x2D0 JUMPI PUSH2 0x2CF PUSH2 0xE4 JUMP JUMPDEST JUMPDEST PUSH0 PUSH2 0x2DD DUP11 DUP3 DUP12 ADD PUSH2 0x10B JUMP JUMPDEST SWAP8 POP POP PUSH1 0x20 PUSH2 0x2EE DUP11 DUP3 DUP12 ADD PUSH2 0x165 JUMP JUMPDEST SWAP7 POP POP PUSH1 0x40 DUP9 ADD MLOAD PUSH8 0xFFFFFFFFFFFFFFFF DUP2 GT ISZERO PUSH2 0x30F JUMPI PUSH2 0x30E PUSH2 0xE8 JUMP JUMPDEST JUMPDEST PUSH2 0x31B DUP11 DUP3 DUP12 ADD PUSH2 0x288 JUMP JUMPDEST SWAP6 POP POP PUSH1 0x60 DUP9 ADD MLOAD PUSH8 0xFFFFFFFFFFFFFFFF DUP2 GT ISZERO PUSH2 0x33C JUMPI PUSH2 0x33B PUSH2 0xE8 JUMP JUMPDEST JUMPDEST PUSH2 0x348 DUP11 DUP3 DUP12 ADD PUSH2 0x288 JUMP JUMPDEST SWAP5 POP POP PUSH1 0x80 DUP9 ADD MLOAD PUSH8 0xFFFFFFFFFFFFFFFF DUP2 GT ISZERO PUSH2 0x369 JUMPI PUSH2 0x368 PUSH2 0xE8 JUMP JUMPDEST JUMPDEST PUSH2 0x375 DUP11 DUP3 DUP12 ADD PUSH2 0x288 JUMP JUMPDEST SWAP4 POP POP PUSH1 0xA0 PUSH2 0x386 DUP11 DUP3 DUP12 ADD PUSH2 0x10B JUMP JUMPDEST SWAP3 POP POP PUSH1 0xC0 PUSH2 0x397 DUP11 DUP3 DUP12 ADD PUSH2 0x10B JUMP JUMPDEST SWAP2 POP POP SWAP3 SWAP6 SWAP9 SWAP2 SWAP5 SWAP8 POP SWAP3 SWAP6 POP JUMP JUMPDEST PUSH0 DUP2 MLOAD SWAP1 POP SWAP2 SWAP1 POP JUMP JUMPDEST PUSH32 0x4E487B7100000000000000000000000000000000000000000000000000000000 PUSH0 MSTORE PUSH1 0x22 PUSH1 0x4 MSTORE PUSH1 0x24 PUSH0 REVERT JUMPDEST PUSH0 PUSH1 0x2 DUP3 DIV SWAP1 POP PUSH1 0x1 DUP3 AND DUP1 PUSH2 0x3F4 JUMPI PUSH1 0x7F DUP3 AND SWAP2 POP JUMPDEST PUSH1 0x20 DUP3 LT DUP2 SUB PUSH2 0x407 JUMPI PUSH2 0x406 PUSH2 0x3B0 JUMP JUMPDEST JUMPDEST POP SWAP2 SWAP1 POP JUMP JUMPDEST PUSH0 DUP2 SWAP1 POP DUP2 PUSH0 MSTORE PUSH1 0x20 PUSH0 KECCAK256 SWAP1 POP SWAP2 SWAP1 POP JUMP JUMPDEST PUSH0 PUSH1 0x20 PUSH1 0x1F DUP4 ADD DIV SWAP1 POP SWAP2 SWAP1 POP JUMP JUMPDEST PUSH0 DUP3 DUP3 SHL SWAP1 POP SWAP3 SWAP2 POP POP JUMP JUMPDEST PUSH0 PUSH1 0x8 DUP4 MUL PUSH2 0x469 PUSH32 0xFFFFFFFFFFFFFFFFFFFFFFFFFFFFFFFFFFFFFFFFFFFFFFFFFFFFFFFFFFFFFFFF DUP3 PUSH2 0x42E JUMP JUMPDEST PUSH2 0x473 DUP7 DUP4 PUSH2 0x42E JUMP JUMPDEST SWAP6 POP DUP1 NOT DUP5 AND SWAP4 POP DUP1 DUP7 AND DUP5 OR SWAP3 POP POP POP SWAP4 SWAP3 POP POP POP JUMP JUMPDEST PUSH0 DUP2 SWAP1 POP SWAP2 SWAP1 POP JUMP JUMPDEST PUSH0 PUSH2 0x4AE PUSH2 0x4A9 PUSH2 0x4A4 DUP5 PUSH2 0xEC JUMP JUMPDEST PUSH2 0x48B JUMP JUMPDEST PUSH2 0xEC JUMP JUMPDEST SWAP1 POP SWAP2 SWAP1 POP JUMP JUMPDEST PUSH0 DUP2 SWAP1 POP SWAP2 SWAP1 POP JUMP JUMPDEST PUSH2 0x4C7 DUP4 PUSH2 0x494 JUMP JUMPDEST PUSH2 0x4DB PUSH2 0x4D3 DUP3 PUSH2 0x4B5 JUMP JUMPDEST DUP5 DUP5 SLOAD PUSH2 0x43A JUMP JUMPDEST DUP3 SSTORE POP POP POP POP JUMP JUMPDEST PUSH0 SWAP1 JUMP JUMPDEST PUSH2 0x4EF PUSH2 0x4E3 JUMP JUMPDEST PUSH2 0x4FA DUP2 DUP5 DUP5 PUSH2 0x4BE JUMP JUMPDEST POP POP POP JUMP JUMPDEST JUMPDEST DUP2 DUP2 LT ISZERO PUSH2 0x51D JUMPI PUSH2 0x512 PUSH0 DUP3 PUSH2 0x4E7 JUMP JUMPDEST PUSH1 0x1 DUP2 ADD SWAP1 POP PUSH2 0x500 JUMP JUMPDEST POP POP JUMP JUMPDEST PUSH1 0x1F DUP3 GT ISZERO PUSH2 0x562 JUMPI PUSH2 0x533 DUP2 PUSH2 0x40D JUMP JUMPDEST PUSH2 0x53C DUP5 PUSH2 0x41F JUMP JUMPDEST DUP2 ADD PUSH1 0x20 DUP6 LT ISZERO PUSH2 0x54B JUMPI DUP2 SWAP1 POP JUMPDEST PUSH2 0x55F PUSH2 0x557 DUP6 PUSH2 0x41F JUMP JUMPDEST DUP4 ADD DUP3 PUSH2 0x4FF JUMP JUMPDEST POP POP JUMPDEST POP POP POP JUMP JUMPDEST PUSH0 DUP3 DUP3 SHR SWAP1 POP SWAP3 SWAP2 POP POP JUMP JUMPDEST PUSH0 PUSH2 0x582 PUSH0 NOT DUP5 PUSH1 0x8 MUL PUSH2 0x567 JUMP JUMPDEST NOT DUP1 DUP4 AND SWAP2 POP POP SWAP3 SWAP2 POP POP JUMP JUMPDEST PUSH0 PUSH2 0x59A DUP4 DUP4 PUSH2 0x573 JUMP JUMPDEST SWAP2 POP DUP3 PUSH1 0x2 MUL DUP3 OR SWAP1 POP SWAP3 SWAP2 POP POP JUMP JUMPDEST PUSH2 0x5B3 DUP3 PUSH2 0x3A6 JUMP JUMPDEST PUSH8 0xFFFFFFFFFFFFFFFF DUP2 GT ISZERO PUSH2 0x5CC JUMPI PUSH2 0x5CB PUSH2 0x191 JUMP JUMPDEST JUMPDEST PUSH2 0x5D6 DUP3 SLOAD PUSH2 0x3DD JUMP JUMPDEST PUSH2 0x5E1 DUP3 DUP3 DUP6 PUSH2 0x521 JUMP JUMPDEST PUSH0 PUSH1 0x20 SWAP1 POP PUSH1 0x1F DUP4 GT PUSH1 0x1 DUP2 EQ PUSH2 0x612 JUMPI PUSH0 DUP5 ISZERO PUSH2 0x600 JUMPI DUP3 DUP8 ADD MLOAD SWAP1 POP JUMPDEST PUSH2 0x60A DUP6 DUP3 PUSH2 0x58F JUMP JUMPDEST DUP7 SSTORE POP PUSH2 0x671 JUMP JUMPDEST PUSH1 0x1F NOT DUP5 AND PUSH2 0x620 DUP7 PUSH2 0x40D JUMP JUMPDEST PUSH0 JUMPDEST DUP3 DUP2 LT ISZERO PUSH2 0x647 JUMPI DUP5 DUP10 ADD MLOAD DUP3 SSTORE PUSH1 0x1 DUP3 ADD SWAP2 POP PUSH1 0x20 DUP6 ADD SWAP5 POP PUSH1 0x20 DUP2 ADD SWAP1 POP PUSH2 0x622 JUMP JUMPDEST DUP7 DUP4 LT ISZERO PUSH2 0x664 JUMPI DUP5 DUP10 ADD MLOAD PUSH2 0x660 PUSH1 0x1F DUP10 AND DUP3 PUSH2 0x573 JUMP JUMPDEST DUP4 SSTORE POP JUMPDEST PUSH1 0x1 PUSH1 0x2 DUP9 MUL ADD DUP9 SSTORE POP POP POP JUMPDEST POP POP POP POP POP POP JUMP JUMPDEST PUSH2 0x64B DUP1 PUSH2 0x686 PUSH0 CODECOPY PUSH0 RETURN INVALID PUSH1 0x80 PUSH1 0x40 MSTORE CALLVALUE DUP1 ISZERO PUSH2 0xF JUMPI PUSH0 DUP1 REVERT JUMPDEST POP PUSH1 0x4 CALLDATASIZE LT PUSH2 0xB2 JUMPI PUSH0 CALLDATALOAD PUSH1 0xE0 SHR DUP1 PUSH4 0x7A3A0E84 GT PUSH2 0x6F JUMPI DUP1 PUSH4 0x7A3A0E84 EQ PUSH2 0x16A JUMPI DUP1 PUSH4 0x8ED5B0FC EQ PUSH2 0x188 JUMPI DUP1 PUSH4 0x968ED600 EQ PUSH2 0x1A6 JUMPI DUP1 PUSH4 0xA1211BC0 EQ PUSH2 0x1C4 JUMPI DUP1 PUSH4 0xCC6CB19A EQ PUSH2 0x1CE JUMPI DUP1 PUSH4 0xED88C68E EQ PUSH2 0x1FE JUMPI PUSH2 0xB2 JUMP JUMPDEST DUP1 PUSH4 0x6FDDE03 EQ PUSH2 0xB6 JUMPI DUP1 PUSH4 0x22F3E2D4 EQ PUSH2 0xD4 JUMPI DUP1 PUSH4 0x29DCB0CF EQ PUSH2 0xF2 JUMPI DUP1 PUSH4 0x38AF3EED EQ PUSH2 0x110 JUMPI DUP1 PUSH4 0x70740AAB EQ PUSH2 0x12E JUMPI DUP1 PUSH4 0x7284E416 EQ PUSH2 0x14C JUMPI JUMPDEST PUSH0 DUP1 REVERT JUMPDEST PUSH2 0xBE PUSH2 0x208 JUMP JUMPDEST PUSH1 0x40 MLOAD PUSH2 0xCB SWAP2 SWAP1 PUSH2 0x483 JUMP JUMPDEST PUSH1 0x40 MLOAD DUP1 SWAP2 SUB SWAP1 RETURN JUMPDEST PUSH2 0xDC PUSH2 0x294 JUMP JUMPDEST PUSH1 0x40 MLOAD PUSH2 0xE9 SWAP2 SWAP1 PUSH2 0x4BD JUMP JUMPDEST PUSH1 0x40 MLOAD DUP1 SWAP2 SUB SWAP1 RETURN JUMPDEST PUSH2 0xFA PUSH2 0x2A6 JUMP JUMPDEST PUSH1 0x40 MLOAD PUSH2 0x107 SWAP2 SWAP1 PUSH2 0x4EE JUMP JUMPDEST PUSH1 0x40 MLOAD DUP1 SWAP2 SUB SWAP1 RETURN JUMPDEST PUSH2 0x118 PUSH2 0x2AC JUMP JUMPDEST PUSH1 0x40 MLOAD PUSH2 0x125 SWAP2 SWAP1 PUSH2 0x546 JUMP JUMPDEST PUSH1 0x40 MLOAD DUP1 SWAP2 SUB SWAP1 RETURN JUMPDEST PUSH2 0x136 PUSH2 0x2D1 JUMP JUMPDEST PUSH1 0x40 MLOAD PUSH2 0x143 SWAP2 SWAP1 PUSH2 0x483 JUMP JUMPDEST PUSH1 0x40 MLOAD DUP1 SWAP2 SUB SWAP1 RETURN JUMPDEST PUSH2 0x154 PUSH2 0x35D JUMP JUMPDEST PUSH1 0x40 MLOAD PUSH2 0x161 SWAP2 SWAP1 PUSH2 0x483 JUMP JUMPDEST PUSH1 0x40 MLOAD DUP1 SWAP2 SUB SWAP1 RETURN JUMPDEST PUSH2 0x172 PUSH2 0x3E9 JUMP JUMPDEST PUSH1 0x40 MLOAD PUSH2 0x17F SWAP2 SWAP1 PUSH2 0x4EE JUMP JUMPDEST PUSH1 0x40 MLOAD DUP1 SWAP2 SUB SWAP1 RETURN JUMPDEST PUSH2 0x190 PUSH2 0x3EF JUMP JUMPDEST PUSH1 0x40 MLOAD PUSH2 0x19D SWAP2 SWAP1 PUSH2 0x4EE JUMP JUMPDEST PUSH1 0x40 MLOAD DUP1 SWAP2 SUB SWAP1 RETURN JUMPDEST PUSH2 0x1AE PUSH2 0x3F4 JUMP JUMPDEST PUSH1 0x40 MLOAD PUSH2 0x1BB SWAP2 SWAP1 PUSH2 0x4EE JUMP JUMPDEST PUSH1 0x40 MLOAD DUP1 SWAP2 SUB SWAP1 RETURN JUMPDEST PUSH2 0x1CC PUSH2 0x3FA JUMP JUMPDEST STOP JUMPDEST PUSH2 0x1E8 PUSH1 0x4 DUP1 CALLDATASIZE SUB DUP2 ADD SWAP1 PUSH2 0x1E3 SWAP2 SWAP1 PUSH2 0x58D JUMP JUMPDEST PUSH2 0x3FC JUMP JUMPDEST PUSH1 0x40 MLOAD PUSH2 0x1F5 SWAP2 SWAP1 PUSH2 0x4EE JUMP JUMPDEST PUSH1 0x40 MLOAD DUP1 SWAP2 SUB SWAP1 RETURN JUMPDEST PUSH2 0x206 PUSH2 0x411 JUMP JUMPDEST STOP JUMPDEST PUSH1 0x2 DUP1 SLOAD PUSH2 0x215 SWAP1 PUSH2 0x5E5 JUMP JUMPDEST DUP1 PUSH1 0x1F ADD PUSH1 0x20 DUP1 SWAP2 DIV MUL PUSH1 0x20 ADD PUSH1 0x40 MLOAD SWAP1 DUP2 ADD PUSH1 0x40 MSTORE DUP1 SWAP3 SWAP2 SWAP1 DUP2 DUP2 MSTORE PUSH1 0x20 ADD DUP3 DUP1 SLOAD PUSH2 0x241 SWAP1 PUSH2 0x5E5 JUMP JUMPDEST DUP1 ISZERO PUSH2 0x28C JUMPI DUP1 PUSH1 0x1F LT PUSH2 0x263 JUMPI PUSH2 0x100 DUP1 DUP4 SLOAD DIV MUL DUP4 MSTORE SWAP2 PUSH1 0x20 ADD SWAP2 PUSH2 0x28C JUMP JUMPDEST DUP3 ADD SWAP2 SWAP1 PUSH0 MSTORE PUSH1 0x20 PUSH0 KECCAK256 SWAP1 JUMPDEST DUP2 SLOAD DUP2 MSTORE SWAP1 PUSH1 0x1 ADD SWAP1 PUSH1 0x20 ADD DUP1 DUP4 GT PUSH2 0x26F JUMPI DUP3 SWAP1 SUB PUSH1 0x1F AND DUP3 ADD SWAP2 JUMPDEST POP POP POP POP POP DUP2 JUMP JUMPDEST PUSH1 0x8 PUSH0 SWAP1 SLOAD SWAP1 PUSH2 0x100 EXP SWAP1 DIV PUSH1 0xFF AND DUP2 JUMP JUMPDEST PUSH1 0x6 SLOAD DUP2 JUMP JUMPDEST PUSH1 0x1 PUSH0 SWAP1 SLOAD SWAP1 PUSH2 0x100 EXP SWAP1 DIV PUSH20 0xFFFFFFFFFFFFFFFFFFFFFFFFFFFFFFFFFFFFFFFF AND DUP2 JUMP JUMPDEST PUSH1 0x3 DUP1 SLOAD PUSH2 0x2DE SWAP1 PUSH2 0x5E5 JUMP JUMPDEST DUP1 PUSH1 0x1F ADD PUSH1 0x20 DUP1 SWAP2 DIV MUL PUSH1 0x20 ADD PUSH1 0x40 MLOAD SWAP1 DUP2 ADD PUSH1 0x40 MSTORE DUP1 SWAP3 SWAP2 SWAP1 DUP2 DUP2 MSTORE PUSH1 0x20 ADD DUP3 DUP1 SLOAD PUSH2 0x30A SWAP1 PUSH2 0x5E5 JUMP JUMPDEST DUP1 ISZERO PUSH2 0x355 JUMPI DUP1 PUSH1 0x1F LT PUSH2 0x32C JUMPI PUSH2 0x100 DUP1 DUP4 SLOAD DIV MUL DUP4 MSTORE SWAP2 PUSH1 0x20 ADD SWAP2 PUSH2 0x355 JUMP JUMPDEST DUP3 ADD SWAP2 SWAP1 PUSH0 MSTORE PUSH1 0x20 PUSH0 KECCAK256 SWAP1 JUMPDEST DUP2 SLOAD DUP2 MSTORE SWAP1 PUSH1 0x1 ADD SWAP1 PUSH1 0x20 ADD DUP1 DUP4 GT PUSH2 0x338 JUMPI DUP3 SWAP1 SUB PUSH1 0x1F AND DUP3 ADD SWAP2 JUMPDEST POP POP POP POP POP DUP2 JUMP JUMPDEST PUSH1 0x4 DUP1 SLOAD PUSH2 0x36A SWAP1 PUSH2 0x5E5 JUMP JUMPDEST DUP1 PUSH1 0x1F ADD PUSH1 0x20 DUP1 SWAP2 DIV MUL PUSH1 0x20 ADD PUSH1 0x40 MLOAD SWAP1 DUP2 ADD PUSH1 0x40 MSTORE DUP1 SWAP3 SWAP2 SWAP1 DUP2 DUP2 MSTORE PUSH1 0x20 ADD DUP3 DUP1 SLOAD PUSH2 0x396 SWAP1 PUSH2 0x5E5 JUMP JUMPDEST DUP1 ISZERO PUSH2 0x3E1 JUMPI DUP1 PUSH1 0x1F LT PUSH2 0x3B8 JUMPI PUSH2 0x100 DUP1 DUP4 SLOAD DIV MUL DUP4 MSTORE SWAP2 PUSH1 0x20 ADD SWAP2 PUSH2 0x3E1 JUMP JUMPDEST DUP3 ADD SWAP2 SWAP1 PUSH0 MSTORE PUSH1 0x20 PUSH0 KECCAK256 SWAP1 JUMPDEST DUP2 SLOAD DUP2 MSTORE SWAP1 PUSH1 0x1 ADD SWAP1 PUSH1 0x20 ADD DUP1 DUP4 GT PUSH2 0x3C4 JUMPI DUP3 SWAP1 SUB PUSH1 0x1F AND DUP3 ADD SWAP2 JUMPDEST POP POP POP POP POP DUP2 JUMP JUMPDEST PUSH1 0x5 SLOAD DUP2 JUMP JUMPDEST PUSH0 SLOAD DUP2 JUMP JUMPDEST PUSH1 0x7 SLOAD DUP2 JUMP JUMPDEST JUMP JUMPDEST PUSH1 0x9 PUSH1 0x20 MSTORE DUP1 PUSH0 MSTORE PUSH1 0x40 PUSH0 KECCAK256 PUSH0 SWAP2 POP SWAP1 POP SLOAD DUP2 JUMP JUMPDEST JUMP JUMPDEST PUSH0 DUP2 MLOAD SWAP1 POP SWAP2 SWAP1 POP JUMP JUMPDEST PUSH0 DUP3 DUP3 MSTORE PUSH1 0x20 DUP3 ADD SWAP1 POP SWAP3 SWAP2 POP POP JUMP JUMPDEST DUP3 DUP2 DUP4 MCOPY PUSH0 DUP4 DUP4 ADD MSTORE POP POP POP JUMP JUMPDEST PUSH0 PUSH1 0x1F NOT PUSH1 0x1F DUP4 ADD AND SWAP1 POP SWAP2 SWAP1 POP JUMP JUMPDEST PUSH0 PUSH2 0x455 DUP3 PUSH2 0x413 JUMP JUMPDEST PUSH2 0x45F DUP2 DUP6 PUSH2 0x41D JUMP JUMPDEST SWAP4 POP PUSH2 0x46F DUP2 DUP6 PUSH1 0x20 DUP7 ADD PUSH2 0x42D JUMP JUMPDEST PUSH2 0x478 DUP2 PUSH2 0x43B JUMP JUMPDEST DUP5 ADD SWAP2 POP POP SWAP3 SWAP2 POP POP JUMP JUMPDEST PUSH0 PUSH1 0x20 DUP3 ADD SWAP1 POP DUP2 DUP2 SUB PUSH0 DUP4 ADD MSTORE PUSH2 0x49B DUP2 DUP5 PUSH2 0x44B JUMP JUMPDEST SWAP1 POP SWAP3 SWAP2 POP POP JUMP JUMPDEST PUSH0 DUP2 ISZERO ISZERO SWAP1 POP SWAP2 SWAP1 POP JUMP JUMPDEST PUSH2 0x4B7 DUP2 PUSH2 0x4A3 JUMP JUMPDEST DUP3 MSTORE POP POP JUMP JUMPDEST PUSH0 PUSH1 0x20 DUP3 ADD SWAP1 POP PUSH2 0x4D0 PUSH0 DUP4 ADD DUP5 PUSH2 0x4AE JUMP JUMPDEST SWAP3 SWAP2 POP POP JUMP JUMPDEST PUSH0 DUP2 SWAP1 POP SWAP2 SWAP1 POP JUMP JUMPDEST PUSH2 0x4E8 DUP2 PUSH2 0x4D6 JUMP JUMPDEST DUP3 MSTORE POP POP JUMP JUMPDEST PUSH0 PUSH1 0x20 DUP3 ADD SWAP1 POP PUSH2 0x501 PUSH0 DUP4 ADD DUP5 PUSH2 0x4DF JUMP JUMPDEST SWAP3 SWAP2 POP POP JUMP JUMPDEST PUSH0 PUSH20 0xFFFFFFFFFFFFFFFFFFFFFFFFFFFFFFFFFFFFFFFF DUP3 AND SWAP1 POP SWAP2 SWAP1 POP JUMP JUMPDEST PUSH0 PUSH2 0x530 DUP3 PUSH2 0x507 JUMP JUMPDEST SWAP1 POP SWAP2 SWAP1 POP JUMP JUMPDEST PUSH2 0x540 DUP2 PUSH2 0x526 JUMP JUMPDEST DUP3 MSTORE POP POP JUMP JUMPDEST PUSH0 PUSH1 0x20 DUP3 ADD SWAP1 POP PUSH2 0x559 PUSH0 DUP4 ADD DUP5 PUSH2 0x537 JUMP JUMPDEST SWAP3 SWAP2 POP POP JUMP JUMPDEST PUSH0 DUP1 REVERT JUMPDEST PUSH2 0x56C DUP2 PUSH2 0x526 JUMP JUMPDEST DUP2 EQ PUSH2 0x576 JUMPI PUSH0 DUP1 REVERT JUMPDEST POP JUMP JUMPDEST PUSH0 DUP2 CALLDATALOAD SWAP1 POP PUSH2 0x587 DUP2 PUSH2 0x563 JUMP JUMPDEST SWAP3 SWAP2 POP POP JUMP JUMPDEST PUSH0 PUSH1 0x20 DUP3 DUP5 SUB SLT ISZERO PUSH2 0x5A2 JUMPI PUSH2 0x5A1 PUSH2 0x55F JUMP JUMPDEST JUMPDEST PUSH0 PUSH2 0x5AF DUP5 DUP3 DUP6 ADD PUSH2 0x579 JUMP JUMPDEST SWAP2 POP POP SWAP3 SWAP2 POP POP JUMP JUMPDEST PUSH32 0x4E487B7100000000000000000000000000000000000000000000000000000000 PUSH0 MSTORE PUSH1 0x22 PUSH1 0x4 MSTORE PUSH1 0x24 PUSH0 REVERT JUMPDEST PUSH0 PUSH1 0x2 DUP3 DIV SWAP1 POP PUSH1 0x1 DUP3 AND DUP1 PUSH2 0x5FC JUMPI PUSH1 0x7F DUP3 AND SWAP2 POP JUMPDEST PUSH1 0x20 DUP3 LT DUP2 SUB PUSH2 0x60F JUMPI PUSH2 0x60E PUSH2 0x5B8 JUMP JUMPDEST JUMPDEST POP SWAP2 SWAP1 POP JUMP INVALID LOG2 PUSH5 0x6970667358 0x22 SLT KECCAK256 0xC5 SHR 0xC4 JUMPI PUSH29 0x8246385C817118F706219C804D00EFD505D09B850E9A59BFEC4ED16473 PUSH16 0x6C634300081A00330000000000000000 "
				},
				"gasEstimates": {
					"creation": {
						"codeDepositCost": "322200",
						"executionCost": "infinite",
						"totalCost": "infinite"
					},
					"external": {
						"beneficiary()": "2575",
						"campaignId()": "2446",
						"deadline()": "2470",
						"description()": "infinite",
						"donate()": "253",
						"donations(address)": "2890",
						"finalizeCampaign()": "209",
						"fundingGoal()": "2425",
						"isActive()": "2489",
						"name()": "infinite",
						"purpose()": "infinite",
						"totalFunds()": "2469"
					},
					"internal": {
						"refund(address)": "infinite",
						"releaseFunds()": "infinite"
					}
				},
				"methodIdentifiers": {
					"beneficiary()": "38af3eed",
					"campaignId()": "8ed5b0fc",
					"deadline()": "29dcb0cf",
					"description()": "7284e416",
					"donate()": "ed88c68e",
					"donations(address)": "cc6cb19a",
					"finalizeCampaign()": "a1211bc0",
					"fundingGoal()": "7a3a0e84",
					"isActive()": "22f3e2d4",
					"name()": "06fdde03",
					"purpose()": "70740aab",
					"totalFunds()": "968ed600"
				}
			},
			"storageLayout": {
				"storage": [
					{
						"astId": 3,
						"contract": "backend/contracts/Campaign.sol:Campaign",
						"label": "campaignId",
						"offset": 0,
						"slot": "0",
						"type": "t_uint256"
					},
					{
						"astId": 5,
						"contract": "backend/contracts/Campaign.sol:Campaign",
						"label": "beneficiary",
						"offset": 0,
						"slot": "1",
						"type": "t_address"
					},
					{
						"astId": 7,
						"contract": "backend/contracts/Campaign.sol:Campaign",
						"label": "name",
						"offset": 0,
						"slot": "2",
						"type": "t_string_storage"
					},
					{
						"astId": 9,
						"contract": "backend/contracts/Campaign.sol:Campaign",
						"label": "purpose",
						"offset": 0,
						"slot": "3",
						"type": "t_string_storage"
					},
					{
						"astId": 11,
						"contract": "backend/contracts/Campaign.sol:Campaign",
						"label": "description",
						"offset": 0,
						"slot": "4",
						"type": "t_string_storage"
					},
					{
						"astId": 13,
						"contract": "backend/contracts/Campaign.sol:Campaign",
						"label": "fundingGoal",
						"offset": 0,
						"slot": "5",
						"type": "t_uint256"
					},
					{
						"astId": 15,
						"contract": "backend/contracts/Campaign.sol:Campaign",
						"label": "deadline",
						"offset": 0,
						"slot": "6",
						"type": "t_uint256"
					},
					{
						"astId": 17,
						"contract": "backend/contracts/Campaign.sol:Campaign",
						"label": "totalFunds",
						"offset": 0,
						"slot": "7",
						"type": "t_uint256"
					},
					{
						"astId": 19,
						"contract": "backend/contracts/Campaign.sol:Campaign",
						"label": "isActive",
						"offset": 0,
						"slot": "8",
						"type": "t_bool"
					},
					{
						"astId": 23,
						"contract": "backend/contracts/Campaign.sol:Campaign",
						"label": "donations",
						"offset": 0,
						"slot": "9",
						"type": "t_mapping(t_address,t_uint256)"
					}
				],
				"types": {
					"t_address": {
						"encoding": "inplace",
						"label": "address",
						"numberOfBytes": "20"
					},
					"t_bool": {
						"encoding": "inplace",
						"label": "bool",
						"numberOfBytes": "1"
					},
					"t_mapping(t_address,t_uint256)": {
						"encoding": "mapping",
						"key": "t_address",
						"label": "mapping(address => uint256)",
						"numberOfBytes": "32",
						"value": "t_uint256"
					},
					"t_string_storage": {
						"encoding": "bytes",
						"label": "string",
						"numberOfBytes": "32"
					},
					"t_uint256": {
						"encoding": "inplace",
						"label": "uint256",
						"numberOfBytes": "32"
					}
				}
			},
			"userdoc": {
				"kind": "user",
				"methods": {},
				"version": 1
			}
		}
	}
}