{
	"backend/contracts/Campaign.sol": {
		"Campaign": {
			"abi": [
				{
					"inputs": [
						{
							"internalType": "address",
							"name": "_beneficiary",
							"type": "address"
						},
						{
							"internalType": "string",
							"name": "_name",
							"type": "string"
						},
						{
							"internalType": "string",
							"name": "_description",
							"type": "string"
						},
						{
							"internalType": "uint256",
							"name": "_fundingGoal",
							"type": "uint256"
						},
						{
							"internalType": "uint48",
							"name": "_deadline",
							"type": "uint48"
						}
					],
					"stateMutability": "nonpayable",
					"type": "constructor"
				},
				{
					"anonymous": false,
					"inputs": [
						{
							"indexed": true,
							"internalType": "address",
							"name": "beneficiary",
							"type": "address"
						},
						{
							"indexed": false,
							"internalType": "bool",
							"name": "success",
							"type": "bool"
						},
						{
							"indexed": false,
							"internalType": "uint256",
							"name": "totalFunds",
							"type": "uint256"
						}
					],
					"name": "CampaignFinalized",
					"type": "event"
				},
				{
					"anonymous": false,
					"inputs": [
						{
							"indexed": false,
							"internalType": "uint256",
							"name": "amount",
							"type": "uint256"
						}
					],
					"name": "DonationMade",
					"type": "event"
				},
				{
					"anonymous": false,
					"inputs": [],
					"name": "FundingGoalMet",
					"type": "event"
				},
				{
					"anonymous": false,
					"inputs": [
						{
							"indexed": true,
							"internalType": "address",
							"name": "donor",
							"type": "address"
						},
						{
							"indexed": false,
							"internalType": "uint256",
							"name": "amount",
							"type": "uint256"
						}
					],
					"name": "RefundIssued",
					"type": "event"
				},
				{
					"inputs": [],
					"name": "beneficiary",
					"outputs": [
						{
							"internalType": "address",
							"name": "",
							"type": "address"
						}
					],
					"stateMutability": "view",
					"type": "function"
				},
				{
					"inputs": [],
					"name": "deadline",
					"outputs": [
						{
							"internalType": "uint48",
							"name": "",
							"type": "uint48"
						}
					],
					"stateMutability": "view",
					"type": "function"
				},
				{
					"inputs": [],
					"name": "description",
					"outputs": [
						{
							"internalType": "string",
							"name": "",
							"type": "string"
						}
					],
					"stateMutability": "view",
					"type": "function"
				},
				{
					"inputs": [],
					"name": "donate",
					"outputs": [],
					"stateMutability": "payable",
					"type": "function"
				},
				{
					"inputs": [],
					"name": "finalizeCampaign",
					"outputs": [],
					"stateMutability": "nonpayable",
					"type": "function"
				},
				{
					"inputs": [],
					"name": "fundingGoal",
					"outputs": [
						{
							"internalType": "uint256",
							"name": "",
							"type": "uint256"
						}
					],
					"stateMutability": "view",
					"type": "function"
				},
				{
					"inputs": [],
					"name": "getCampaignDetails",
					"outputs": [
						{
							"internalType": "address",
							"name": "campaignBeneficiary",
							"type": "address"
						},
						{
							"internalType": "string",
							"name": "campaignName",
							"type": "string"
						},
						{
							"internalType": "string",
							"name": "campaignDescription",
							"type": "string"
						},
						{
							"internalType": "uint48",
							"name": "campaignDeadline",
							"type": "uint48"
						},
						{
							"internalType": "uint256",
							"name": "campaignFundingGoal",
							"type": "uint256"
						},
						{
							"internalType": "uint256",
							"name": "campaignTotalFunds",
							"type": "uint256"
						},
						{
							"internalType": "bool",
							"name": "campaignIsActive",
							"type": "bool"
						}
					],
					"stateMutability": "view",
					"type": "function"
				},
				{
					"inputs": [],
					"name": "getDonors",
					"outputs": [
						{
							"internalType": "address[]",
							"name": "",
							"type": "address[]"
						}
					],
					"stateMutability": "view",
					"type": "function"
				},
				{
					"inputs": [],
					"name": "getMyDonations",
					"outputs": [
						{
							"internalType": "uint256",
							"name": "",
							"type": "uint256"
						}
					],
					"stateMutability": "view",
					"type": "function"
				},
				{
					"inputs": [],
					"name": "isActive",
					"outputs": [
						{
							"internalType": "bool",
							"name": "",
							"type": "bool"
						}
					],
					"stateMutability": "view",
					"type": "function"
				},
				{
					"inputs": [],
					"name": "name",
					"outputs": [
						{
							"internalType": "string",
							"name": "",
							"type": "string"
						}
					],
					"stateMutability": "view",
					"type": "function"
				},
				{
					"inputs": [
						{
							"internalType": "uint256",
							"name": "start",
							"type": "uint256"
						},
						{
							"internalType": "uint256",
							"name": "end",
							"type": "uint256"
						}
					],
					"name": "processRefundsBatch",
					"outputs": [],
					"stateMutability": "nonpayable",
					"type": "function"
				},
				{
					"inputs": [],
					"name": "totalFunds",
					"outputs": [
						{
							"internalType": "uint256",
							"name": "",
							"type": "uint256"
						}
					],
					"stateMutability": "view",
					"type": "function"
				}
			],
			"devdoc": {
				"details": "The smart contract for the created Campaign. It handles everything related to a specific Campaign that has been deployed",
				"kind": "dev",
				"methods": {
					"constructor": {
						"details": "Creates the Campaign smart contract",
						"params": {
							"_beneficiary": "The wallet address of the beneficiary that is creating this Campaign",
							"_deadline": "Timestamp of when the Campaign should be fully funded before it becomes inactive",
							"_description": "The description of this Campaign",
							"_fundingGoal": "Funding Goal for the Campaign in cryptocurrency (SepoliaETH)"
						}
					},
					"donate()": {
						"details": "Allows donors to donate to the Campaign"
					},
					"finalizeCampaign()": {
						"details": "Called when the Campaign's deadline has passed, and also handles the refund to all donors if the fundingGoal is not met by thenLikely needs to be called from the frontend"
					},
					"getCampaignDetails()": {
						"details": "Get all the Campaign details from its state variables"
					},
					"getDonors()": {
						"details": "Get all the donors of this CampaignLikely to be used by the frontend to notify just donors on events such as FundsWithdrawn and CampaignFinalized"
					},
					"getMyDonations()": {
						"details": "Get the total donation amount contributed by the caller to this CampaignThis function allows donors to privately check how much they have donated to the Campaign",
						"returns": {
							"_0": "The total donation amount (in cryptocurrency) contributed by the caller"
						}
					},
					"processRefundsBatch(uint256,uint256)": {
						"details": "Called by the beneficiary from the frontend when the Campaign is finalized but did not meet its fundingGoalRefunds all the donors in batches"
					}
				},
				"title": "Campaign",
				"version": 1
			},
			"evm": {
				"assembly": "    /* \"backend/contracts/Campaign.sol\":226:7784  contract Campaign {... */\n  mstore(0x40, 0xe0)\n    /* \"backend/contracts/Campaign.sol\":1275:1677  constructor(... */\n  callvalue\n  dup1\n  iszero\n  tag_1\n  jumpi\n  0x00\n  dup1\n  revert\ntag_1:\n  pop\n  mload(0x40)\n  sub(codesize, bytecodeSize)\n  dup1\n  bytecodeSize\n  dup4\n  codecopy\n  dup2\n  add\n  0x40\n  dup2\n  swap1\n  mstore\n  tag_2\n  swap2\n  tag_3\n  jump\t// in\ntag_2:\n  sub(shl(0xa0, 0x01), 0x01)\n    /* \"backend/contracts/Campaign.sol\":1454:1480  beneficiary = _beneficiary */\n  dup6\n  and\n  0x80\n  mstore\n    /* \"backend/contracts/Campaign.sol\":1490:1494  name */\n  0x00\n    /* \"backend/contracts/Campaign.sol\":1490:1502  name = _name */\n  tag_6\n    /* \"backend/contracts/Campaign.sol\":1497:1502  _name */\n  dup6\n    /* \"backend/contracts/Campaign.sol\":1490:1494  name */\n  dup3\n    /* \"backend/contracts/Campaign.sol\":1490:1502  name = _name */\n  tag_7\n  jump\t// in\ntag_6:\n  pop\n    /* \"backend/contracts/Campaign.sol\":1512:1523  description */\n  0x01\n    /* \"backend/contracts/Campaign.sol\":1512:1538  description = _description */\n  tag_8\n    /* \"backend/contracts/Campaign.sol\":1526:1538  _description */\n  dup5\n    /* \"backend/contracts/Campaign.sol\":1512:1523  description */\n  dup3\n    /* \"backend/contracts/Campaign.sol\":1512:1538  description = _description */\n  tag_7\n  jump\t// in\ntag_8:\n  pop\n    /* \"backend/contracts/Campaign.sol\":1548:1574  fundingGoal = _fundingGoal */\n  0xc0\n  swap2\n  swap1\n  swap2\n  mstore\n    /* \"backend/contracts/Campaign.sol\":1584:1604  deadline = _deadline */\n  0xffffffffffff\n  and\n  0xa0\n  mstore\n  pop\n  pop\n    /* \"backend/contracts/Campaign.sol\":1614:1622  isActive */\n  0x03\n    /* \"backend/contracts/Campaign.sol\":1614:1629  isActive = true */\n  dup1\n  sload\n  not(0xff)\n  and\n    /* \"backend/contracts/Campaign.sol\":1625:1629  true */\n  0x01\n    /* \"backend/contracts/Campaign.sol\":1614:1629  isActive = true */\n  or\n  swap1\n  sstore\n  pop\n    /* \"backend/contracts/Campaign.sol\":226:7784  contract Campaign {... */\n  jump(tag_16)\n    /* \"#utility.yul\":14:141   */\ntag_10:\n    /* \"#utility.yul\":75:85   */\n  0x4e487b71\n    /* \"#utility.yul\":70:73   */\n  0xe0\n    /* \"#utility.yul\":66:86   */\n  shl\n    /* \"#utility.yul\":63:64   */\n  0x00\n    /* \"#utility.yul\":56:87   */\n  mstore\n    /* \"#utility.yul\":106:110   */\n  0x41\n    /* \"#utility.yul\":103:104   */\n  0x04\n    /* \"#utility.yul\":96:111   */\n  mstore\n    /* \"#utility.yul\":130:134   */\n  0x24\n    /* \"#utility.yul\":127:128   */\n  0x00\n    /* \"#utility.yul\":120:135   */\n  revert\n    /* \"#utility.yul\":146:869   */\ntag_11:\n    /* \"#utility.yul\":200:205   */\n  0x00\n    /* \"#utility.yul\":253:256   */\n  dup3\n    /* \"#utility.yul\":246:250   */\n  0x1f\n    /* \"#utility.yul\":238:244   */\n  dup4\n    /* \"#utility.yul\":234:251   */\n  add\n    /* \"#utility.yul\":230:257   */\n  slt\n    /* \"#utility.yul\":220:275   */\n  tag_19\n  jumpi\n    /* \"#utility.yul\":271:272   */\n  0x00\n    /* \"#utility.yul\":268:269   */\n  dup1\n    /* \"#utility.yul\":261:273   */\n  revert\n    /* \"#utility.yul\":220:275   */\ntag_19:\n    /* \"#utility.yul\":298:311   */\n  dup2\n  mload\n  sub(shl(0x40, 0x01), 0x01)\n    /* \"#utility.yul\":323:353   */\n  dup2\n  gt\n    /* \"#utility.yul\":320:376   */\n  iszero\n  tag_21\n  jumpi\n    /* \"#utility.yul\":356:374   */\n  tag_21\n  tag_10\n  jump\t// in\ntag_21:\n    /* \"#utility.yul\":405:407   */\n  0x40\n    /* \"#utility.yul\":399:408   */\n  mload\n    /* \"#utility.yul\":497:499   */\n  0x1f\n    /* \"#utility.yul\":459:476   */\n  dup3\n  add\n  not(0x1f)\n    /* \"#utility.yul\":455:486   */\n  swap1\n  dup2\n  and\n    /* \"#utility.yul\":488:490   */\n  0x3f\n    /* \"#utility.yul\":451:491   */\n  add\n    /* \"#utility.yul\":447:501   */\n  and\n    /* \"#utility.yul\":435:502   */\n  dup2\n  add\n  sub(shl(0x40, 0x01), 0x01)\n    /* \"#utility.yul\":517:551   */\n  dup2\n  gt\n    /* \"#utility.yul\":553:575   */\n  dup3\n  dup3\n  lt\n    /* \"#utility.yul\":514:576   */\n  or\n    /* \"#utility.yul\":511:599   */\n  iszero\n  tag_23\n  jumpi\n    /* \"#utility.yul\":579:597   */\n  tag_23\n  tag_10\n  jump\t// in\ntag_23:\n    /* \"#utility.yul\":615:617   */\n  0x40\n    /* \"#utility.yul\":608:630   */\n  mstore\n    /* \"#utility.yul\":639:661   */\n  dup2\n  dup2\n  mstore\n    /* \"#utility.yul\":680:699   */\n  dup4\n  dup3\n  add\n    /* \"#utility.yul\":701:705   */\n  0x20\n    /* \"#utility.yul\":676:706   */\n  add\n    /* \"#utility.yul\":673:712   */\n  dup6\n  lt\n    /* \"#utility.yul\":670:729   */\n  iszero\n  tag_24\n  jumpi\n    /* \"#utility.yul\":725:726   */\n  0x00\n    /* \"#utility.yul\":722:723   */\n  dup1\n    /* \"#utility.yul\":715:727   */\n  revert\n    /* \"#utility.yul\":670:729   */\ntag_24:\n    /* \"#utility.yul\":782:788   */\n  dup2\n    /* \"#utility.yul\":775:779   */\n  0x20\n    /* \"#utility.yul\":767:773   */\n  dup6\n    /* \"#utility.yul\":763:780   */\n  add\n    /* \"#utility.yul\":756:760   */\n  0x20\n    /* \"#utility.yul\":748:754   */\n  dup4\n    /* \"#utility.yul\":744:761   */\n  add\n    /* \"#utility.yul\":738:789   */\n  mcopy\n    /* \"#utility.yul\":837:838   */\n  0x00\n    /* \"#utility.yul\":809:828   */\n  swap2\n  dup2\n  add\n    /* \"#utility.yul\":830:834   */\n  0x20\n    /* \"#utility.yul\":805:835   */\n  add\n    /* \"#utility.yul\":798:839   */\n  swap2\n  swap1\n  swap2\n  mstore\n    /* \"#utility.yul\":813:819   */\n  swap4\n    /* \"#utility.yul\":146:869   */\n  swap3\n  pop\n  pop\n  pop\n  jump\t// out\n    /* \"#utility.yul\":874:1851   */\ntag_3:\n    /* \"#utility.yul\":999:1005   */\n  0x00\n    /* \"#utility.yul\":1007:1013   */\n  dup1\n    /* \"#utility.yul\":1015:1021   */\n  0x00\n    /* \"#utility.yul\":1023:1029   */\n  dup1\n    /* \"#utility.yul\":1031:1037   */\n  0x00\n    /* \"#utility.yul\":1084:1087   */\n  0xa0\n    /* \"#utility.yul\":1072:1081   */\n  dup7\n    /* \"#utility.yul\":1063:1070   */\n  dup9\n    /* \"#utility.yul\":1059:1082   */\n  sub\n    /* \"#utility.yul\":1055:1088   */\n  slt\n    /* \"#utility.yul\":1052:1105   */\n  iszero\n  tag_26\n  jumpi\n    /* \"#utility.yul\":1101:1102   */\n  0x00\n    /* \"#utility.yul\":1098:1099   */\n  dup1\n    /* \"#utility.yul\":1091:1103   */\n  revert\n    /* \"#utility.yul\":1052:1105   */\ntag_26:\n    /* \"#utility.yul\":1127:1143   */\n  dup6\n  mload\n  sub(shl(0xa0, 0x01), 0x01)\n    /* \"#utility.yul\":1172:1203   */\n  dup2\n  and\n    /* \"#utility.yul\":1162:1204   */\n  dup2\n  eq\n    /* \"#utility.yul\":1152:1222   */\n  tag_27\n  jumpi\n    /* \"#utility.yul\":1218:1219   */\n  0x00\n    /* \"#utility.yul\":1215:1216   */\n  dup1\n    /* \"#utility.yul\":1208:1220   */\n  revert\n    /* \"#utility.yul\":1152:1222   */\ntag_27:\n    /* \"#utility.yul\":1290:1292   */\n  0x20\n    /* \"#utility.yul\":1275:1293   */\n  dup8\n  add\n    /* \"#utility.yul\":1269:1294   */\n  mload\n    /* \"#utility.yul\":1241:1246   */\n  swap1\n  swap6\n  pop\n  sub(shl(0x40, 0x01), 0x01)\n    /* \"#utility.yul\":1306:1336   */\n  dup2\n  gt\n    /* \"#utility.yul\":1303:1353   */\n  iszero\n  tag_28\n  jumpi\n    /* \"#utility.yul\":1349:1350   */\n  0x00\n    /* \"#utility.yul\":1346:1347   */\n  dup1\n    /* \"#utility.yul\":1339:1351   */\n  revert\n    /* \"#utility.yul\":1303:1353   */\ntag_28:\n    /* \"#utility.yul\":1372:1433   */\n  tag_29\n    /* \"#utility.yul\":1425:1432   */\n  dup9\n    /* \"#utility.yul\":1416:1422   */\n  dup3\n    /* \"#utility.yul\":1405:1414   */\n  dup10\n    /* \"#utility.yul\":1401:1423   */\n  add\n    /* \"#utility.yul\":1372:1433   */\n  tag_11\n  jump\t// in\ntag_29:\n    /* \"#utility.yul\":1479:1481   */\n  0x40\n    /* \"#utility.yul\":1464:1482   */\n  dup9\n  add\n    /* \"#utility.yul\":1458:1483   */\n  mload\n    /* \"#utility.yul\":1362:1433   */\n  swap1\n  swap6\n  pop\n    /* \"#utility.yul\":1458:1483   */\n  swap1\n  pop\n  sub(shl(0x40, 0x01), 0x01)\n    /* \"#utility.yul\":1495:1527   */\n  dup2\n  gt\n    /* \"#utility.yul\":1492:1544   */\n  iszero\n  tag_30\n  jumpi\n    /* \"#utility.yul\":1540:1541   */\n  0x00\n    /* \"#utility.yul\":1537:1538   */\n  dup1\n    /* \"#utility.yul\":1530:1542   */\n  revert\n    /* \"#utility.yul\":1492:1544   */\ntag_30:\n    /* \"#utility.yul\":1563:1626   */\n  tag_31\n    /* \"#utility.yul\":1618:1625   */\n  dup9\n    /* \"#utility.yul\":1607:1615   */\n  dup3\n    /* \"#utility.yul\":1596:1605   */\n  dup10\n    /* \"#utility.yul\":1592:1616   */\n  add\n    /* \"#utility.yul\":1563:1626   */\n  tag_11\n  jump\t// in\ntag_31:\n    /* \"#utility.yul\":1666:1668   */\n  0x60\n    /* \"#utility.yul\":1651:1669   */\n  dup9\n  add\n    /* \"#utility.yul\":1645:1670   */\n  mload\n    /* \"#utility.yul\":1736:1739   */\n  0x80\n    /* \"#utility.yul\":1721:1740   */\n  dup10\n  add\n    /* \"#utility.yul\":1715:1741   */\n  mload\n    /* \"#utility.yul\":1553:1626   */\n  swap2\n  swap6\n  pop\n    /* \"#utility.yul\":1645:1670   */\n  swap4\n  pop\n    /* \"#utility.yul\":1715:1741   */\n  swap1\n  pop\n    /* \"#utility.yul\":1785:1799   */\n  0xffffffffffff\n    /* \"#utility.yul\":1772:1800   */\n  dup2\n  and\n    /* \"#utility.yul\":1760:1801   */\n  dup2\n  eq\n    /* \"#utility.yul\":1750:1819   */\n  tag_32\n  jumpi\n    /* \"#utility.yul\":1815:1816   */\n  0x00\n    /* \"#utility.yul\":1812:1813   */\n  dup1\n    /* \"#utility.yul\":1805:1817   */\n  revert\n    /* \"#utility.yul\":1750:1819   */\ntag_32:\n    /* \"#utility.yul\":1838:1845   */\n  dup1\n    /* \"#utility.yul\":1828:1845   */\n  swap2\n  pop\n  pop\n    /* \"#utility.yul\":874:1851   */\n  swap3\n  swap6\n  pop\n  swap3\n  swap6\n  swap1\n  swap4\n  pop\n  jump\t// out\n    /* \"#utility.yul\":1856:2236   */\ntag_12:\n    /* \"#utility.yul\":1935:1936   */\n  0x01\n    /* \"#utility.yul\":1931:1943   */\n  dup2\n  dup2\n  shr\n  swap1\n    /* \"#utility.yul\":1978:1990   */\n  dup3\n  and\n  dup1\n    /* \"#utility.yul\":1999:2060   */\n  tag_34\n  jumpi\n    /* \"#utility.yul\":2053:2057   */\n  0x7f\n    /* \"#utility.yul\":2045:2051   */\n  dup3\n    /* \"#utility.yul\":2041:2058   */\n  and\n    /* \"#utility.yul\":2031:2058   */\n  swap2\n  pop\n    /* \"#utility.yul\":1999:2060   */\ntag_34:\n    /* \"#utility.yul\":2106:2108   */\n  0x20\n    /* \"#utility.yul\":2098:2104   */\n  dup3\n    /* \"#utility.yul\":2095:2109   */\n  lt\n    /* \"#utility.yul\":2075:2093   */\n  dup2\n    /* \"#utility.yul\":2072:2110   */\n  sub\n    /* \"#utility.yul\":2069:2230   */\n  tag_35\n  jumpi\n    /* \"#utility.yul\":2152:2162   */\n  0x4e487b71\n    /* \"#utility.yul\":2147:2150   */\n  0xe0\n    /* \"#utility.yul\":2143:2163   */\n  shl\n    /* \"#utility.yul\":2140:2141   */\n  0x00\n    /* \"#utility.yul\":2133:2164   */\n  mstore\n    /* \"#utility.yul\":2187:2191   */\n  0x22\n    /* \"#utility.yul\":2184:2185   */\n  0x04\n    /* \"#utility.yul\":2177:2192   */\n  mstore\n    /* \"#utility.yul\":2215:2219   */\n  0x24\n    /* \"#utility.yul\":2212:2213   */\n  0x00\n    /* \"#utility.yul\":2205:2220   */\n  revert\n    /* \"#utility.yul\":2069:2230   */\ntag_35:\n  pop\n    /* \"#utility.yul\":1856:2236   */\n  swap2\n  swap1\n  pop\n  jump\t// out\n    /* \"#utility.yul\":2367:2885   */\ntag_14:\n    /* \"#utility.yul\":2469:2471   */\n  0x1f\n    /* \"#utility.yul\":2464:2467   */\n  dup3\n    /* \"#utility.yul\":2461:2472   */\n  gt\n    /* \"#utility.yul\":2458:2879   */\n  iszero\n  tag_38\n  jumpi\n    /* \"#utility.yul\":2505:2510   */\n  dup1\n    /* \"#utility.yul\":2502:2503   */\n  0x00\n    /* \"#utility.yul\":2495:2511   */\n  mstore\n    /* \"#utility.yul\":2549:2553   */\n  0x20\n    /* \"#utility.yul\":2546:2547   */\n  0x00\n    /* \"#utility.yul\":2536:2554   */\n  keccak256\n    /* \"#utility.yul\":2619:2621   */\n  0x1f\n    /* \"#utility.yul\":2607:2617   */\n  dup5\n    /* \"#utility.yul\":2603:2622   */\n  add\n    /* \"#utility.yul\":2600:2601   */\n  0x05\n    /* \"#utility.yul\":2596:2623   */\n  shr\n    /* \"#utility.yul\":2590:2594   */\n  dup2\n    /* \"#utility.yul\":2586:2624   */\n  add\n    /* \"#utility.yul\":2655:2659   */\n  0x20\n    /* \"#utility.yul\":2643:2653   */\n  dup6\n    /* \"#utility.yul\":2640:2660   */\n  lt\n    /* \"#utility.yul\":2637:2684   */\n  iszero\n  tag_39\n  jumpi\n  pop\n    /* \"#utility.yul\":2678:2682   */\n  dup1\n    /* \"#utility.yul\":2637:2684   */\ntag_39:\n    /* \"#utility.yul\":2733:2735   */\n  0x1f\n    /* \"#utility.yul\":2728:2731   */\n  dup5\n    /* \"#utility.yul\":2724:2736   */\n  add\n    /* \"#utility.yul\":2721:2722   */\n  0x05\n    /* \"#utility.yul\":2717:2737   */\n  shr\n    /* \"#utility.yul\":2711:2715   */\n  dup3\n    /* \"#utility.yul\":2707:2738   */\n  add\n    /* \"#utility.yul\":2697:2738   */\n  swap2\n  pop\n    /* \"#utility.yul\":2788:2869   */\ntag_40:\n    /* \"#utility.yul\":2806:2808   */\n  dup2\n    /* \"#utility.yul\":2799:2804   */\n  dup2\n    /* \"#utility.yul\":2796:2809   */\n  lt\n    /* \"#utility.yul\":2788:2869   */\n  iszero\n  tag_42\n  jumpi\n    /* \"#utility.yul\":2865:2866   */\n  0x00\n    /* \"#utility.yul\":2851:2867   */\n  dup2\n  sstore\n    /* \"#utility.yul\":2832:2833   */\n  0x01\n    /* \"#utility.yul\":2821:2834   */\n  add\n    /* \"#utility.yul\":2788:2869   */\n  jump(tag_40)\ntag_42:\n    /* \"#utility.yul\":2792:2795   */\n  pop\n  pop\n    /* \"#utility.yul\":2458:2879   */\ntag_38:\n    /* \"#utility.yul\":2367:2885   */\n  pop\n  pop\n  pop\n  jump\t// out\n    /* \"#utility.yul\":3061:4360   */\ntag_7:\n    /* \"#utility.yul\":3181:3191   */\n  dup2\n  mload\n  sub(shl(0x40, 0x01), 0x01)\n    /* \"#utility.yul\":3203:3233   */\n  dup2\n  gt\n    /* \"#utility.yul\":3200:3256   */\n  iszero\n  tag_46\n  jumpi\n    /* \"#utility.yul\":3236:3254   */\n  tag_46\n  tag_10\n  jump\t// in\ntag_46:\n    /* \"#utility.yul\":3265:3362   */\n  tag_47\n    /* \"#utility.yul\":3355:3361   */\n  dup2\n    /* \"#utility.yul\":3315:3353   */\n  tag_48\n    /* \"#utility.yul\":3347:3351   */\n  dup5\n    /* \"#utility.yul\":3341:3352   */\n  sload\n    /* \"#utility.yul\":3315:3353   */\n  tag_12\n  jump\t// in\ntag_48:\n    /* \"#utility.yul\":3309:3313   */\n  dup5\n    /* \"#utility.yul\":3265:3362   */\n  tag_14\n  jump\t// in\ntag_47:\n    /* \"#utility.yul\":3411:3415   */\n  0x20\n    /* \"#utility.yul\":3442:3444   */\n  0x1f\n    /* \"#utility.yul\":3431:3445   */\n  dup3\n  gt\n    /* \"#utility.yul\":3459:3460   */\n  0x01\n    /* \"#utility.yul\":3454:4103   */\n  dup2\n  eq\n  tag_50\n  jumpi\n    /* \"#utility.yul\":4147:4148   */\n  0x00\n    /* \"#utility.yul\":4164:4170   */\n  dup4\n    /* \"#utility.yul\":4161:4250   */\n  iszero\n  tag_51\n  jumpi\n  pop\n    /* \"#utility.yul\":4216:4235   */\n  dup5\n  dup3\n  add\n    /* \"#utility.yul\":4210:4236   */\n  mload\n    /* \"#utility.yul\":4161:4250   */\ntag_51:\n  not(0x00)\n    /* \"#utility.yul\":3018:3019   */\n  0x03\n    /* \"#utility.yul\":3014:3025   */\n  dup6\n  swap1\n  shl\n    /* \"#utility.yul\":3010:3034   */\n  shr\n    /* \"#utility.yul\":3006:3035   */\n  not\n    /* \"#utility.yul\":2996:3036   */\n  and\n    /* \"#utility.yul\":3042:3043   */\n  0x01\n    /* \"#utility.yul\":3038:3049   */\n  dup5\n  swap1\n  shl\n    /* \"#utility.yul\":2993:3050   */\n  or\n    /* \"#utility.yul\":4263:4344   */\n  dup5\n  sstore\n    /* \"#utility.yul\":3424:4354   */\n  jump(tag_42)\n    /* \"#utility.yul\":3454:4103   */\ntag_50:\n    /* \"#utility.yul\":2314:2315   */\n  0x00\n    /* \"#utility.yul\":2307:2321   */\n  dup5\n  dup2\n  mstore\n    /* \"#utility.yul\":2351:2355   */\n  0x20\n    /* \"#utility.yul\":2338:2356   */\n  dup2\n  keccak256\n  not(0x1f)\n    /* \"#utility.yul\":3490:3510   */\n  dup6\n  and\n  swap2\n    /* \"#utility.yul\":3608:3830   */\ntag_54:\n    /* \"#utility.yul\":3622:3629   */\n  dup3\n    /* \"#utility.yul\":3619:3620   */\n  dup2\n    /* \"#utility.yul\":3616:3630   */\n  lt\n    /* \"#utility.yul\":3608:3830   */\n  iszero\n  tag_56\n  jumpi\n    /* \"#utility.yul\":3704:3723   */\n  dup8\n  dup6\n  add\n    /* \"#utility.yul\":3698:3724   */\n  mload\n    /* \"#utility.yul\":3683:3725   */\n  dup3\n  sstore\n    /* \"#utility.yul\":3811:3815   */\n  0x20\n    /* \"#utility.yul\":3796:3816   */\n  swap5\n  dup6\n  add\n  swap5\n    /* \"#utility.yul\":3764:3765   */\n  0x01\n    /* \"#utility.yul\":3752:3766   */\n  swap1\n  swap3\n  add\n  swap2\n    /* \"#utility.yul\":3638:3650   */\n  add\n    /* \"#utility.yul\":3608:3830   */\n  jump(tag_54)\ntag_56:\n    /* \"#utility.yul\":3612:3615   */\n  pop\n    /* \"#utility.yul\":3858:3864   */\n  dup5\n    /* \"#utility.yul\":3849:3856   */\n  dup3\n    /* \"#utility.yul\":3846:3865   */\n  lt\n    /* \"#utility.yul\":3843:4044   */\n  iszero\n  tag_57\n  jumpi\n    /* \"#utility.yul\":3919:3938   */\n  dup7\n  dup5\n  add\n    /* \"#utility.yul\":3913:3939   */\n  mload\n  not(0x00)\n    /* \"#utility.yul\":4002:4003   */\n  0x03\n    /* \"#utility.yul\":3998:4012   */\n  dup8\n  swap1\n  shl\n    /* \"#utility.yul\":4014:4017   */\n  0xf8\n    /* \"#utility.yul\":3994:4018   */\n  and\n    /* \"#utility.yul\":3990:4027   */\n  shr\n    /* \"#utility.yul\":3986:4028   */\n  not\n    /* \"#utility.yul\":3971:4029   */\n  and\n    /* \"#utility.yul\":3956:4030   */\n  dup2\n  sstore\n    /* \"#utility.yul\":3843:4044   */\ntag_57:\n  pop\n  pop\n  pop\n  pop\n    /* \"#utility.yul\":4090:4091   */\n  0x01\n    /* \"#utility.yul\":4074:4088   */\n  swap1\n  dup2\n  shl\n    /* \"#utility.yul\":4070:4092   */\n  add\n    /* \"#utility.yul\":4057:4093   */\n  swap1\n  sstore\n  pop\n    /* \"#utility.yul\":3061:4360   */\n  jump\t// out\ntag_16:\n    /* \"backend/contracts/Campaign.sol\":226:7784  contract Campaign {... */\n  mload(0x80)\n  mload(0xa0)\n  mload(0xc0)\n  codecopy(0x00, dataOffset(sub_0), dataSize(sub_0))\n  0x00\n  assignImmutable(\"0x7f8b6b088b6d74c2852fc86c796dca07b44eed6fb3daf5e6b59f7c364db14528\")\n  0x00\n  assignImmutable(\"0x1a192fabce13988b84994d4296e6cdc418d55e2f1d7f942188d4040b94fc57ac\")\n  0x00\n  assignImmutable(\"0x13600b294191fc92924bb3ce4b969c1e7e2bab8f4c93c3fc6d0a51733df3c060\")\n  return(0x00, dataSize(sub_0))\nstop\n\nsub_0: assembly {\n        /* \"backend/contracts/Campaign.sol\":226:7784  contract Campaign {... */\n      mstore(0x40, 0x80)\n      jumpi(tag_1, lt(calldatasize, 0x04))\n      shr(0xe0, calldataload(0x00))\n      dup1\n      0x7a3a0e84\n      gt\n      tag_15\n      jumpi\n      dup1\n      0x96f300d4\n      gt\n      tag_16\n      jumpi\n      dup1\n      0x96f300d4\n      eq\n      tag_11\n      jumpi\n      dup1\n      0xa1211bc0\n      eq\n      tag_12\n      jumpi\n      dup1\n      0xd506b8b5\n      eq\n      tag_13\n      jumpi\n      dup1\n      0xed88c68e\n      eq\n      tag_14\n      jumpi\n      0x00\n      dup1\n      revert\n    tag_16:\n      dup1\n      0x7a3a0e84\n      eq\n      tag_8\n      jumpi\n      dup1\n      0x90e4a130\n      eq\n      tag_9\n      jumpi\n      dup1\n      0x968ed600\n      eq\n      tag_10\n      jumpi\n      0x00\n      dup1\n      revert\n    tag_15:\n      dup1\n      0x06fdde03\n      eq\n      tag_2\n      jumpi\n      dup1\n      0x0c611f24\n      eq\n      tag_3\n      jumpi\n      dup1\n      0x22f3e2d4\n      eq\n      tag_4\n      jumpi\n      dup1\n      0x29dcb0cf\n      eq\n      tag_5\n      jumpi\n      dup1\n      0x38af3eed\n      eq\n      tag_6\n      jumpi\n      dup1\n      0x7284e416\n      eq\n      tag_7\n      jumpi\n    tag_1:\n      0x00\n      dup1\n      revert\n        /* \"backend/contracts/Campaign.sol\":315:333  string public name */\n    tag_2:\n      callvalue\n      dup1\n      iszero\n      tag_17\n      jumpi\n      0x00\n      dup1\n      revert\n    tag_17:\n      pop\n      tag_18\n      tag_19\n      jump\t// in\n    tag_18:\n      mload(0x40)\n      tag_20\n      swap2\n      swap1\n      tag_21\n      jump\t// in\n    tag_20:\n      mload(0x40)\n      dup1\n      swap2\n      sub\n      swap1\n      return\n        /* \"backend/contracts/Campaign.sol\":7130:7782  function getCampaignDetails()... */\n    tag_3:\n      callvalue\n      dup1\n      iszero\n      tag_22\n      jumpi\n      0x00\n      dup1\n      revert\n    tag_22:\n      pop\n      tag_23\n      tag_24\n      jump\t// in\n    tag_23:\n      mload(0x40)\n      tag_20\n      swap8\n      swap7\n      swap6\n      swap5\n      swap4\n      swap3\n      swap2\n      swap1\n      tag_26\n      jump\t// in\n        /* \"backend/contracts/Campaign.sol\":526:546  bool public isActive */\n    tag_4:\n      callvalue\n      dup1\n      iszero\n      tag_27\n      jumpi\n      0x00\n      dup1\n      revert\n    tag_27:\n      pop\n      sload(0x03)\n      tag_28\n      swap1\n      0xff\n      and\n      dup2\n      jump\n    tag_28:\n      mload(0x40)\n        /* \"#utility.yul\":1501:1515   */\n      swap1\n      iszero\n        /* \"#utility.yul\":1494:1516   */\n      iszero\n        /* \"#utility.yul\":1476:1517   */\n      dup2\n      mstore\n        /* \"#utility.yul\":1464:1466   */\n      0x20\n        /* \"#utility.yul\":1449:1467   */\n      add\n        /* \"backend/contracts/Campaign.sol\":526:546  bool public isActive */\n      tag_20\n        /* \"#utility.yul\":1336:1523   */\n      jump\n        /* \"backend/contracts/Campaign.sol\":370:402  uint48 public immutable deadline */\n    tag_5:\n      callvalue\n      dup1\n      iszero\n      tag_32\n      jumpi\n      0x00\n      dup1\n      revert\n    tag_32:\n      pop\n      tag_33\n      immutable(\"0x1a192fabce13988b84994d4296e6cdc418d55e2f1d7f942188d4040b94fc57ac\")\n      dup2\n      jump\n    tag_33:\n      mload(0x40)\n        /* \"#utility.yul\":1702:1716   */\n      0xffffffffffff\n        /* \"#utility.yul\":1690:1717   */\n      swap1\n      swap2\n      and\n        /* \"#utility.yul\":1672:1718   */\n      dup2\n      mstore\n        /* \"#utility.yul\":1660:1662   */\n      0x20\n        /* \"#utility.yul\":1645:1663   */\n      add\n        /* \"backend/contracts/Campaign.sol\":370:402  uint48 public immutable deadline */\n      tag_20\n        /* \"#utility.yul\":1528:1724   */\n      jump\n        /* \"backend/contracts/Campaign.sol\":273:309  address public immutable beneficiary */\n    tag_6:\n      callvalue\n      dup1\n      iszero\n      tag_37\n      jumpi\n      0x00\n      dup1\n      revert\n    tag_37:\n      pop\n      tag_38\n      immutable(\"0x13600b294191fc92924bb3ce4b969c1e7e2bab8f4c93c3fc6d0a51733df3c060\")\n      dup2\n      jump\n    tag_38:\n      mload(0x40)\n      sub(shl(0xa0, 0x01), 0x01)\n        /* \"#utility.yul\":1893:1925   */\n      swap1\n      swap2\n      and\n        /* \"#utility.yul\":1875:1926   */\n      dup2\n      mstore\n        /* \"#utility.yul\":1863:1865   */\n      0x20\n        /* \"#utility.yul\":1848:1866   */\n      add\n        /* \"backend/contracts/Campaign.sol\":273:309  address public immutable beneficiary */\n      tag_20\n        /* \"#utility.yul\":1729:1932   */\n      jump\n        /* \"backend/contracts/Campaign.sol\":339:364  string public description */\n    tag_7:\n      callvalue\n      dup1\n      iszero\n      tag_42\n      jumpi\n      0x00\n      dup1\n      revert\n    tag_42:\n      pop\n      tag_18\n      tag_44\n      jump\t// in\n        /* \"backend/contracts/Campaign.sol\":408:444  uint256 public immutable fundingGoal */\n    tag_8:\n      callvalue\n      dup1\n      iszero\n      tag_46\n      jumpi\n      0x00\n      dup1\n      revert\n    tag_46:\n      pop\n      tag_47\n      immutable(\"0x7f8b6b088b6d74c2852fc86c796dca07b44eed6fb3daf5e6b59f7c364db14528\")\n      dup2\n      jump\n    tag_47:\n      mload(0x40)\n        /* \"#utility.yul\":2083:2108   */\n      swap1\n      dup2\n      mstore\n        /* \"#utility.yul\":2071:2073   */\n      0x20\n        /* \"#utility.yul\":2056:2074   */\n      add\n        /* \"backend/contracts/Campaign.sol\":408:444  uint256 public immutable fundingGoal */\n      tag_20\n        /* \"#utility.yul\":1937:2114   */\n      jump\n        /* \"backend/contracts/Campaign.sol\":6939:7042  function getMyDonations() external view returns (uint256) {... */\n    tag_9:\n      callvalue\n      dup1\n      iszero\n      tag_51\n      jumpi\n      0x00\n      dup1\n      revert\n    tag_51:\n      pop\n        /* \"backend/contracts/Campaign.sol\":7024:7034  msg.sender */\n      caller\n        /* \"backend/contracts/Campaign.sol\":6988:6995  uint256 */\n      0x00\n        /* \"backend/contracts/Campaign.sol\":7014:7035  donations[msg.sender] */\n      swap1\n      dup2\n      mstore\n        /* \"backend/contracts/Campaign.sol\":7014:7023  donations */\n      0x04\n        /* \"backend/contracts/Campaign.sol\":7014:7035  donations[msg.sender] */\n      0x20\n      mstore\n      0x40\n      swap1\n      keccak256\n      sload\n        /* \"backend/contracts/Campaign.sol\":6939:7042  function getMyDonations() external view returns (uint256) {... */\n      jump(tag_47)\n        /* \"backend/contracts/Campaign.sol\":467:492  uint256 public totalFunds */\n    tag_10:\n      callvalue\n      dup1\n      iszero\n      tag_55\n      jumpi\n      0x00\n      dup1\n      revert\n    tag_55:\n      pop\n      tag_47\n      sload(0x02)\n      dup2\n      jump\n        /* \"backend/contracts/Campaign.sol\":6551:6643  function getDonors() external view returns (address[] memory) {... */\n    tag_11:\n      callvalue\n      dup1\n      iszero\n      tag_59\n      jumpi\n      0x00\n      dup1\n      revert\n    tag_59:\n      pop\n      tag_60\n      tag_61\n      jump\t// in\n    tag_60:\n      mload(0x40)\n      tag_20\n      swap2\n      swap1\n      tag_63\n      jump\t// in\n        /* \"backend/contracts/Campaign.sol\":4533:4953  function finalizeCampaign()... */\n    tag_12:\n      callvalue\n      dup1\n      iszero\n      tag_64\n      jumpi\n      0x00\n      dup1\n      revert\n    tag_64:\n      pop\n      tag_65\n      tag_66\n      jump\t// in\n    tag_65:\n      stop\n        /* \"backend/contracts/Campaign.sol\":5861:6358  function processRefundsBatch(uint256 start, uint256 end)... */\n    tag_13:\n      callvalue\n      dup1\n      iszero\n      tag_67\n      jumpi\n      0x00\n      dup1\n      revert\n    tag_67:\n      pop\n      tag_65\n      tag_69\n      calldatasize\n      0x04\n      tag_70\n      jump\t// in\n    tag_69:\n      tag_71\n      jump\t// in\n        /* \"backend/contracts/Campaign.sol\":3411:4315  function donate() external payable beforeDeadline isActiveCampaign {... */\n    tag_14:\n      tag_65\n      tag_73\n      jump\t// in\n        /* \"backend/contracts/Campaign.sol\":315:333  string public name */\n    tag_19:\n      0x00\n      dup1\n      sload\n      tag_74\n      swap1\n      tag_75\n      jump\t// in\n    tag_74:\n      dup1\n      0x1f\n      add\n      0x20\n      dup1\n      swap2\n      div\n      mul\n      0x20\n      add\n      mload(0x40)\n      swap1\n      dup2\n      add\n      0x40\n      mstore\n      dup1\n      swap3\n      swap2\n      swap1\n      dup2\n      dup2\n      mstore\n      0x20\n      add\n      dup3\n      dup1\n      sload\n      tag_76\n      swap1\n      tag_75\n      jump\t// in\n    tag_76:\n      dup1\n      iszero\n      tag_77\n      jumpi\n      dup1\n      0x1f\n      lt\n      tag_78\n      jumpi\n      0x0100\n      dup1\n      dup4\n      sload\n      div\n      mul\n      dup4\n      mstore\n      swap2\n      0x20\n      add\n      swap2\n      jump(tag_77)\n    tag_78:\n      dup3\n      add\n      swap2\n      swap1\n      0x00\n      mstore\n      keccak256(0x00, 0x20)\n      swap1\n    tag_79:\n      dup2\n      sload\n      dup2\n      mstore\n      swap1\n      0x01\n      add\n      swap1\n      0x20\n      add\n      dup1\n      dup4\n      gt\n      tag_79\n      jumpi\n      dup3\n      swap1\n      sub\n      0x1f\n      and\n      dup3\n      add\n      swap2\n    tag_77:\n      pop\n      pop\n      pop\n      pop\n      pop\n      dup2\n      jump\t// out\n        /* \"backend/contracts/Campaign.sol\":7130:7782  function getCampaignDetails()... */\n    tag_24:\n        /* \"backend/contracts/Campaign.sol\":7220:7247  address campaignBeneficiary */\n      0x00\n        /* \"backend/contracts/Campaign.sol\":7261:7287  string memory campaignName */\n      0x60\n        /* \"backend/contracts/Campaign.sol\":7301:7334  string memory campaignDescription */\n      dup1\n        /* \"backend/contracts/Campaign.sol\":7348:7371  uint48 campaignDeadline */\n      0x00\n        /* \"backend/contracts/Campaign.sol\":7385:7412  uint256 campaignFundingGoal */\n      dup1\n        /* \"backend/contracts/Campaign.sol\":7426:7452  uint256 campaignTotalFunds */\n      0x00\n        /* \"backend/contracts/Campaign.sol\":7466:7487  bool campaignIsActive */\n      dup1\n        /* \"backend/contracts/Campaign.sol\":7534:7545  beneficiary */\n      immutable(\"0x13600b294191fc92924bb3ce4b969c1e7e2bab8f4c93c3fc6d0a51733df3c060\")\n        /* \"backend/contracts/Campaign.sol\":7512:7545  campaignBeneficiary = beneficiary */\n      swap7\n      pop\n        /* \"backend/contracts/Campaign.sol\":7570:7574  name */\n      0x00\n        /* \"backend/contracts/Campaign.sol\":7555:7574  campaignName = name */\n      dup1\n      sload\n      tag_81\n      swap1\n      tag_75\n      jump\t// in\n    tag_81:\n      dup1\n      0x1f\n      add\n      0x20\n      dup1\n      swap2\n      div\n      mul\n      0x20\n      add\n      mload(0x40)\n      swap1\n      dup2\n      add\n      0x40\n      mstore\n      dup1\n      swap3\n      swap2\n      swap1\n      dup2\n      dup2\n      mstore\n      0x20\n      add\n      dup3\n      dup1\n      sload\n      tag_82\n      swap1\n      tag_75\n      jump\t// in\n    tag_82:\n      dup1\n      iszero\n      tag_83\n      jumpi\n      dup1\n      0x1f\n      lt\n      tag_84\n      jumpi\n      0x0100\n      dup1\n      dup4\n      sload\n      div\n      mul\n      dup4\n      mstore\n      swap2\n      0x20\n      add\n      swap2\n      jump(tag_83)\n    tag_84:\n      dup3\n      add\n      swap2\n      swap1\n      0x00\n      mstore\n      keccak256(0x00, 0x20)\n      swap1\n    tag_85:\n      dup2\n      sload\n      dup2\n      mstore\n      swap1\n      0x01\n      add\n      swap1\n      0x20\n      add\n      dup1\n      dup4\n      gt\n      tag_85\n      jumpi\n      dup3\n      swap1\n      sub\n      0x1f\n      and\n      dup3\n      add\n      swap2\n    tag_83:\n      pop\n      pop\n      pop\n      pop\n      pop\n      swap6\n      pop\n        /* \"backend/contracts/Campaign.sol\":7606:7617  description */\n      0x01\n        /* \"backend/contracts/Campaign.sol\":7584:7617  campaignDescription = description */\n      dup1\n      sload\n      tag_86\n      swap1\n      tag_75\n      jump\t// in\n    tag_86:\n      dup1\n      0x1f\n      add\n      0x20\n      dup1\n      swap2\n      div\n      mul\n      0x20\n      add\n      mload(0x40)\n      swap1\n      dup2\n      add\n      0x40\n      mstore\n      dup1\n      swap3\n      swap2\n      swap1\n      dup2\n      dup2\n      mstore\n      0x20\n      add\n      dup3\n      dup1\n      sload\n      tag_87\n      swap1\n      tag_75\n      jump\t// in\n    tag_87:\n      dup1\n      iszero\n      tag_88\n      jumpi\n      dup1\n      0x1f\n      lt\n      tag_89\n      jumpi\n      0x0100\n      dup1\n      dup4\n      sload\n      div\n      mul\n      dup4\n      mstore\n      swap2\n      0x20\n      add\n      swap2\n      jump(tag_88)\n    tag_89:\n      dup3\n      add\n      swap2\n      swap1\n      0x00\n      mstore\n      keccak256(0x00, 0x20)\n      swap1\n    tag_90:\n      dup2\n      sload\n      dup2\n      mstore\n      swap1\n      0x01\n      add\n      swap1\n      0x20\n      add\n      dup1\n      dup4\n      gt\n      tag_90\n      jumpi\n      dup3\n      swap1\n      sub\n      0x1f\n      and\n      dup3\n      add\n      swap2\n    tag_88:\n      pop\n      pop\n        /* \"backend/contracts/Campaign.sol\":7728:7738  totalFunds */\n      sload(0x02)\n        /* \"backend/contracts/Campaign.sol\":7767:7775  isActive */\n      sload(0x03)\n        /* \"backend/contracts/Campaign.sol\":7130:7782  function getCampaignDetails()... */\n      swap12\n      swap13\n      swap11\n      swap12\n        /* \"backend/contracts/Campaign.sol\":7584:7617  campaignDescription = description */\n      swap5\n      swap11\n        /* \"backend/contracts/Campaign.sol\":7646:7654  deadline */\n      immutable(\"0x1a192fabce13988b84994d4296e6cdc418d55e2f1d7f942188d4040b94fc57ac\")\n      swap11\n      pop\n        /* \"backend/contracts/Campaign.sol\":7686:7697  fundingGoal */\n      immutable(\"0x7f8b6b088b6d74c2852fc86c796dca07b44eed6fb3daf5e6b59f7c364db14528\")\n      swap10\n      pop\n        /* \"backend/contracts/Campaign.sol\":7728:7738  totalFunds */\n      swap1\n      swap8\n      pop\n        /* \"backend/contracts/Campaign.sol\":7767:7775  isActive */\n      0xff\n      swap1\n      swap5\n      and\n      swap6\n      pop\n        /* \"backend/contracts/Campaign.sol\":7130:7782  function getCampaignDetails()... */\n      swap3\n      swap4\n      pop\n      pop\n      pop\n      pop\n      jump\t// out\n        /* \"backend/contracts/Campaign.sol\":339:364  string public description */\n    tag_44:\n      0x01\n      dup1\n      sload\n      tag_74\n      swap1\n      tag_75\n      jump\t// in\n        /* \"backend/contracts/Campaign.sol\":6551:6643  function getDonors() external view returns (address[] memory) {... */\n    tag_61:\n        /* \"backend/contracts/Campaign.sol\":6595:6611  address[] memory */\n      0x60\n        /* \"backend/contracts/Campaign.sol\":6630:6636  donors */\n      0x05\n        /* \"backend/contracts/Campaign.sol\":6623:6636  return donors */\n      dup1\n      sload\n      dup1\n      0x20\n      mul\n      0x20\n      add\n      mload(0x40)\n      swap1\n      dup2\n      add\n      0x40\n      mstore\n      dup1\n      swap3\n      swap2\n      swap1\n      dup2\n      dup2\n      mstore\n      0x20\n      add\n      dup3\n      dup1\n      sload\n      dup1\n      iszero\n      tag_98\n      jumpi\n      0x20\n      mul\n      dup3\n      add\n      swap2\n      swap1\n      0x00\n      mstore\n      keccak256(0x00, 0x20)\n      swap1\n    tag_99:\n      dup2\n      sload\n      sub(shl(0xa0, 0x01), 0x01)\n      and\n      dup2\n      mstore\n      0x01\n      swap1\n      swap2\n      add\n      swap1\n      0x20\n      add\n      dup1\n      dup4\n      gt\n      tag_99\n      jumpi\n    tag_98:\n      pop\n      pop\n      pop\n      pop\n      pop\n      swap1\n      pop\n        /* \"backend/contracts/Campaign.sol\":6551:6643  function getDonors() external view returns (address[] memory) {... */\n      swap1\n      jump\t// out\n        /* \"backend/contracts/Campaign.sol\":4533:4953  function finalizeCampaign()... */\n    tag_66:\n        /* \"backend/contracts/Campaign.sol\":3033:3041  isActive */\n      and(0xff, sload(0x03))\n        /* \"backend/contracts/Campaign.sol\":3025:3063  require(isActive, \"Inactive Campaign\") */\n      tag_101\n      jumpi\n      mload(0x40)\n      shl(0xe5, 0x461bcd)\n      dup2\n      mstore\n        /* \"#utility.yul\":3699:3701   */\n      0x20\n        /* \"backend/contracts/Campaign.sol\":3025:3063  require(isActive, \"Inactive Campaign\") */\n      0x04\n      dup3\n      add\n        /* \"#utility.yul\":3681:3702   */\n      mstore\n        /* \"#utility.yul\":3738:3740   */\n      0x11\n        /* \"#utility.yul\":3718:3736   */\n      0x24\n      dup3\n      add\n        /* \"#utility.yul\":3711:3741   */\n      mstore\n      shl(0x79, 0x24b730b1ba34bb329021b0b6b830b4b3b7)\n        /* \"#utility.yul\":3757:3775   */\n      0x44\n      dup3\n      add\n        /* \"#utility.yul\":3750:3797   */\n      mstore\n        /* \"#utility.yul\":3814:3832   */\n      0x64\n      add\n        /* \"backend/contracts/Campaign.sol\":3025:3063  require(isActive, \"Inactive Campaign\") */\n    tag_102:\n      mload(0x40)\n      dup1\n      swap2\n      sub\n      swap1\n      revert\n    tag_101:\n        /* \"backend/contracts/Campaign.sol\":3151:3159  deadline */\n      immutable(\"0x1a192fabce13988b84994d4296e6cdc418d55e2f1d7f942188d4040b94fc57ac\")\n        /* \"backend/contracts/Campaign.sol\":3133:3159  block.timestamp > deadline */\n      0xffffffffffff\n      and\n        /* \"backend/contracts/Campaign.sol\":3133:3148  block.timestamp */\n      timestamp\n        /* \"backend/contracts/Campaign.sol\":3133:3159  block.timestamp > deadline */\n      gt\n        /* \"backend/contracts/Campaign.sol\":3125:3185  require(block.timestamp > deadline, \"Deadline not exceeded\") */\n      tag_105\n      jumpi\n      mload(0x40)\n      shl(0xe5, 0x461bcd)\n      dup2\n      mstore\n        /* \"#utility.yul\":4045:4047   */\n      0x20\n        /* \"backend/contracts/Campaign.sol\":3125:3185  require(block.timestamp > deadline, \"Deadline not exceeded\") */\n      0x04\n      dup3\n      add\n        /* \"#utility.yul\":4027:4048   */\n      mstore\n        /* \"#utility.yul\":4084:4086   */\n      0x15\n        /* \"#utility.yul\":4064:4082   */\n      0x24\n      dup3\n      add\n        /* \"#utility.yul\":4057:4087   */\n      mstore\n      shl(0x5a, 0x111958591b1a5b99481b9bdd08195e18d959591959)\n        /* \"#utility.yul\":4103:4121   */\n      0x44\n      dup3\n      add\n        /* \"#utility.yul\":4096:4147   */\n      mstore\n        /* \"#utility.yul\":4164:4182   */\n      0x64\n      add\n        /* \"backend/contracts/Campaign.sol\":3125:3185  require(block.timestamp > deadline, \"Deadline not exceeded\") */\n      tag_102\n        /* \"#utility.yul\":3843:4188   */\n      jump\n        /* \"backend/contracts/Campaign.sol\":3125:3185  require(block.timestamp > deadline, \"Deadline not exceeded\") */\n    tag_105:\n        /* \"backend/contracts/Campaign.sol\":2917:2927  msg.sender */\n      caller\n      sub(shl(0xa0, 0x01), 0x01)\n        /* \"backend/contracts/Campaign.sol\":2931:2942  beneficiary */\n      immutable(\"0x13600b294191fc92924bb3ce4b969c1e7e2bab8f4c93c3fc6d0a51733df3c060\")\n        /* \"backend/contracts/Campaign.sol\":2917:2942  msg.sender == beneficiary */\n      and\n      eq\n        /* \"backend/contracts/Campaign.sol\":2909:2963  require(msg.sender == beneficiary, \"Beneficiary only\") */\n      tag_109\n      jumpi\n      mload(0x40)\n      shl(0xe5, 0x461bcd)\n      dup2\n      mstore\n        /* \"#utility.yul\":4395:4397   */\n      0x20\n        /* \"backend/contracts/Campaign.sol\":2909:2963  require(msg.sender == beneficiary, \"Beneficiary only\") */\n      0x04\n      dup3\n      add\n        /* \"#utility.yul\":4377:4398   */\n      mstore\n        /* \"#utility.yul\":4434:4436   */\n      0x10\n        /* \"#utility.yul\":4414:4432   */\n      0x24\n      dup3\n      add\n        /* \"#utility.yul\":4407:4437   */\n      mstore\n      shl(0x80, 0x42656e6566696369617279206f6e6c79)\n        /* \"#utility.yul\":4453:4471   */\n      0x44\n      dup3\n      add\n        /* \"#utility.yul\":4446:4492   */\n      mstore\n        /* \"#utility.yul\":4509:4527   */\n      0x64\n      add\n        /* \"backend/contracts/Campaign.sol\":2909:2963  require(msg.sender == beneficiary, \"Beneficiary only\") */\n      tag_102\n        /* \"#utility.yul\":4193:4533   */\n      jump\n        /* \"backend/contracts/Campaign.sol\":2909:2963  require(msg.sender == beneficiary, \"Beneficiary only\") */\n    tag_109:\n        /* \"backend/contracts/Campaign.sol\":4684:4695  fundingGoal */\n      immutable(\"0x7f8b6b088b6d74c2852fc86c796dca07b44eed6fb3daf5e6b59f7c364db14528\")\n        /* \"backend/contracts/Campaign.sol\":4670:4680  totalFunds */\n      sload(0x02)\n        /* \"backend/contracts/Campaign.sol\":4670:4695  totalFunds >= fundingGoal */\n      lt\n        /* \"backend/contracts/Campaign.sol\":4666:4947  if (totalFunds >= fundingGoal) {... */\n      tag_113\n      jumpi\n        /* \"backend/contracts/Campaign.sol\":4711:4725  releaseFunds() */\n      tag_114\n        /* \"backend/contracts/Campaign.sol\":4711:4723  releaseFunds */\n      tag_115\n        /* \"backend/contracts/Campaign.sol\":4711:4725  releaseFunds() */\n      jump\t// in\n    tag_114:\n        /* \"backend/contracts/Campaign.sol\":4533:4953  function finalizeCampaign()... */\n      jump\t// out\n        /* \"backend/contracts/Campaign.sol\":4666:4947  if (totalFunds >= fundingGoal) {... */\n    tag_113:\n        /* \"backend/contracts/Campaign.sol\":4756:4764  isActive */\n      0x03\n        /* \"backend/contracts/Campaign.sol\":4756:4772  isActive = false */\n      dup1\n      sload\n      not(0xff)\n      and\n      swap1\n      sstore\n        /* \"backend/contracts/Campaign.sol\":4925:4935  totalFunds */\n      sload(0x02)\n        /* \"backend/contracts/Campaign.sol\":4887:4936  CampaignFinalized(beneficiary, false, totalFunds) */\n      0x40\n      dup1\n      mload\n      0x00\n        /* \"#utility.yul\":4706:4747   */\n      dup2\n      mstore\n        /* \"#utility.yul\":4778:4780   */\n      0x20\n        /* \"#utility.yul\":4763:4781   */\n      dup2\n      add\n        /* \"#utility.yul\":4756:4790   */\n      swap3\n      swap1\n      swap3\n      mstore\n        /* \"backend/contracts/Campaign.sol\":4905:4916  beneficiary */\n      immutable(\"0x13600b294191fc92924bb3ce4b969c1e7e2bab8f4c93c3fc6d0a51733df3c060\")\n      sub(shl(0xa0, 0x01), 0x01)\n        /* \"backend/contracts/Campaign.sol\":4887:4936  CampaignFinalized(beneficiary, false, totalFunds) */\n      and\n      swap2\n      0x712d35f4bf4c7422ae5b3996c20cc32903765397cd70e33a25294baf8c89dc80\n      swap2\n        /* \"#utility.yul\":4679:4697   */\n      add\n        /* \"backend/contracts/Campaign.sol\":4887:4936  CampaignFinalized(beneficiary, false, totalFunds) */\n      mload(0x40)\n      dup1\n      swap2\n      sub\n      swap1\n      log2\n        /* \"backend/contracts/Campaign.sol\":4533:4953  function finalizeCampaign()... */\n      jump\t// out\n        /* \"backend/contracts/Campaign.sol\":5861:6358  function processRefundsBatch(uint256 start, uint256 end)... */\n    tag_71:\n        /* \"backend/contracts/Campaign.sol\":2917:2927  msg.sender */\n      caller\n      sub(shl(0xa0, 0x01), 0x01)\n        /* \"backend/contracts/Campaign.sol\":2931:2942  beneficiary */\n      immutable(\"0x13600b294191fc92924bb3ce4b969c1e7e2bab8f4c93c3fc6d0a51733df3c060\")\n        /* \"backend/contracts/Campaign.sol\":2917:2942  msg.sender == beneficiary */\n      and\n      eq\n        /* \"backend/contracts/Campaign.sol\":2909:2963  require(msg.sender == beneficiary, \"Beneficiary only\") */\n      tag_120\n      jumpi\n      mload(0x40)\n      shl(0xe5, 0x461bcd)\n      dup2\n      mstore\n        /* \"#utility.yul\":4395:4397   */\n      0x20\n        /* \"backend/contracts/Campaign.sol\":2909:2963  require(msg.sender == beneficiary, \"Beneficiary only\") */\n      0x04\n      dup3\n      add\n        /* \"#utility.yul\":4377:4398   */\n      mstore\n        /* \"#utility.yul\":4434:4436   */\n      0x10\n        /* \"#utility.yul\":4414:4432   */\n      0x24\n      dup3\n      add\n        /* \"#utility.yul\":4407:4437   */\n      mstore\n      shl(0x80, 0x42656e6566696369617279206f6e6c79)\n        /* \"#utility.yul\":4453:4471   */\n      0x44\n      dup3\n      add\n        /* \"#utility.yul\":4446:4492   */\n      mstore\n        /* \"#utility.yul\":4509:4527   */\n      0x64\n      add\n        /* \"backend/contracts/Campaign.sol\":2909:2963  require(msg.sender == beneficiary, \"Beneficiary only\") */\n      tag_102\n        /* \"#utility.yul\":4193:4533   */\n      jump\n        /* \"backend/contracts/Campaign.sol\":2909:2963  require(msg.sender == beneficiary, \"Beneficiary only\") */\n    tag_120:\n        /* \"backend/contracts/Campaign.sol\":5990:5995  start */\n      dup2\n        /* \"backend/contracts/Campaign.sol\":5973:6352  for (uint256 i = start; i < end; i++) {... */\n    tag_123:\n        /* \"backend/contracts/Campaign.sol\":6001:6004  end */\n      dup2\n        /* \"backend/contracts/Campaign.sol\":5997:5998  i */\n      dup2\n        /* \"backend/contracts/Campaign.sol\":5997:6004  i < end */\n      lt\n        /* \"backend/contracts/Campaign.sol\":5973:6352  for (uint256 i = start; i < end; i++) {... */\n      iszero\n      tag_124\n      jumpi\n        /* \"backend/contracts/Campaign.sol\":6025:6038  address donor */\n      0x00\n        /* \"backend/contracts/Campaign.sol\":6041:6047  donors */\n      0x05\n        /* \"backend/contracts/Campaign.sol\":6048:6049  i */\n      dup3\n        /* \"backend/contracts/Campaign.sol\":6041:6050  donors[i] */\n      dup2\n      sload\n      dup2\n      lt\n      tag_127\n      jumpi\n      tag_127\n      tag_128\n      jump\t// in\n    tag_127:\n      0x00\n      swap2\n      dup3\n      mstore\n      0x20\n      dup1\n      dup4\n      keccak256\n      swap1\n      swap2\n      add\n      sload\n      sub(shl(0xa0, 0x01), 0x01)\n      and\n        /* \"backend/contracts/Campaign.sol\":6089:6105  donations[donor] */\n      dup1\n      dup4\n      mstore\n        /* \"backend/contracts/Campaign.sol\":6089:6098  donations */\n      0x04\n        /* \"backend/contracts/Campaign.sol\":6089:6105  donations[donor] */\n      swap1\n      swap2\n      mstore\n      0x40\n      swap1\n      swap2\n      keccak256\n      sload\n        /* \"backend/contracts/Campaign.sol\":6041:6050  donors[i] */\n      swap1\n      swap2\n      pop\n        /* \"backend/contracts/Campaign.sol\":6124:6142  donationAmount > 0 */\n      dup1\n      iszero\n        /* \"backend/contracts/Campaign.sol\":6120:6342  if (donationAmount > 0) {... */\n      tag_130\n      jumpi\n      sub(shl(0xa0, 0x01), 0x01)\n        /* \"backend/contracts/Campaign.sol\":6162:6178  donations[donor] */\n      dup3\n      and\n        /* \"backend/contracts/Campaign.sol\":6181:6182  0 */\n      0x00\n        /* \"backend/contracts/Campaign.sol\":6162:6178  donations[donor] */\n      dup2\n      dup2\n      mstore\n        /* \"backend/contracts/Campaign.sol\":6162:6171  donations */\n      0x04\n        /* \"backend/contracts/Campaign.sol\":6162:6178  donations[donor] */\n      0x20\n      mstore\n      0x40\n      dup1\n      dup3\n      keccak256\n        /* \"backend/contracts/Campaign.sol\":6162:6182  donations[donor] = 0 */\n      dup3\n      swap1\n      sstore\n        /* \"backend/contracts/Campaign.sol\":6229:6268  payable(donor).transfer(donationAmount) */\n      mload\n      dup4\n      iszero\n      0x08fc\n      mul\n      swap2\n        /* \"backend/contracts/Campaign.sol\":6253:6267  donationAmount */\n      dup5\n      swap2\n        /* \"backend/contracts/Campaign.sol\":6229:6268  payable(donor).transfer(donationAmount) */\n      swap1\n      dup2\n        /* \"backend/contracts/Campaign.sol\":6181:6182  0 */\n      dup2\n        /* \"backend/contracts/Campaign.sol\":6229:6268  payable(donor).transfer(donationAmount) */\n      dup2\n        /* \"backend/contracts/Campaign.sol\":6253:6267  donationAmount */\n      dup6\n        /* \"backend/contracts/Campaign.sol\":6162:6178  donations[donor] */\n      dup9\n        /* \"backend/contracts/Campaign.sol\":6229:6268  payable(donor).transfer(donationAmount) */\n      dup9\n      call\n      swap4\n      pop\n      pop\n      pop\n      pop\n      iszero\n      dup1\n      iszero\n      tag_132\n      jumpi\n      returndatasize\n      0x00\n      dup1\n      returndatacopy\n      revert(0x00, returndatasize)\n    tag_132:\n      pop\n        /* \"backend/contracts/Campaign.sol\":6305:6310  donor */\n      dup2\n      sub(shl(0xa0, 0x01), 0x01)\n        /* \"backend/contracts/Campaign.sol\":6292:6327  RefundIssued(donor, donationAmount) */\n      and\n      0xa171b6942063c6f2800ce40a780edce37baa2b618571b11eedd1e69e626e7d76\n        /* \"backend/contracts/Campaign.sol\":6312:6326  donationAmount */\n      dup3\n        /* \"backend/contracts/Campaign.sol\":6292:6327  RefundIssued(donor, donationAmount) */\n      mload(0x40)\n      tag_133\n      swap2\n        /* \"#utility.yul\":2083:2108   */\n      dup2\n      mstore\n        /* \"#utility.yul\":2071:2073   */\n      0x20\n        /* \"#utility.yul\":2056:2074   */\n      add\n      swap1\n        /* \"#utility.yul\":1937:2114   */\n      jump\n        /* \"backend/contracts/Campaign.sol\":6292:6327  RefundIssued(donor, donationAmount) */\n    tag_133:\n      mload(0x40)\n      dup1\n      swap2\n      sub\n      swap1\n      log2\n        /* \"backend/contracts/Campaign.sol\":6120:6342  if (donationAmount > 0) {... */\n    tag_130:\n      pop\n      pop\n        /* \"backend/contracts/Campaign.sol\":6006:6009  i++ */\n      0x01\n      add\n        /* \"backend/contracts/Campaign.sol\":5973:6352  for (uint256 i = start; i < end; i++) {... */\n      jump(tag_123)\n    tag_124:\n      pop\n        /* \"backend/contracts/Campaign.sol\":5861:6358  function processRefundsBatch(uint256 start, uint256 end)... */\n      pop\n      pop\n      jump\t// out\n        /* \"backend/contracts/Campaign.sol\":3411:4315  function donate() external payable beforeDeadline isActiveCampaign {... */\n    tag_73:\n        /* \"backend/contracts/Campaign.sol\":3272:3280  deadline */\n      immutable(\"0x1a192fabce13988b84994d4296e6cdc418d55e2f1d7f942188d4040b94fc57ac\")\n        /* \"backend/contracts/Campaign.sol\":3253:3280  block.timestamp <= deadline */\n      0xffffffffffff\n      and\n        /* \"backend/contracts/Campaign.sol\":3253:3268  block.timestamp */\n      timestamp\n        /* \"backend/contracts/Campaign.sol\":3253:3280  block.timestamp <= deadline */\n      gt\n      iszero\n        /* \"backend/contracts/Campaign.sol\":3245:3302  require(block.timestamp <= deadline, \"Deadline exceeded\") */\n      tag_135\n      jumpi\n      mload(0x40)\n      shl(0xe5, 0x461bcd)\n      dup2\n      mstore\n        /* \"#utility.yul\":5135:5137   */\n      0x20\n        /* \"backend/contracts/Campaign.sol\":3245:3302  require(block.timestamp <= deadline, \"Deadline exceeded\") */\n      0x04\n      dup3\n      add\n        /* \"#utility.yul\":5117:5138   */\n      mstore\n        /* \"#utility.yul\":5174:5176   */\n      0x11\n        /* \"#utility.yul\":5154:5172   */\n      0x24\n      dup3\n      add\n        /* \"#utility.yul\":5147:5177   */\n      mstore\n      shl(0x7a, 0x111958591b1a5b9948195e18d959591959)\n        /* \"#utility.yul\":5193:5211   */\n      0x44\n      dup3\n      add\n        /* \"#utility.yul\":5186:5233   */\n      mstore\n        /* \"#utility.yul\":5250:5268   */\n      0x64\n      add\n        /* \"backend/contracts/Campaign.sol\":3245:3302  require(block.timestamp <= deadline, \"Deadline exceeded\") */\n      tag_102\n        /* \"#utility.yul\":4933:5274   */\n      jump\n        /* \"backend/contracts/Campaign.sol\":3245:3302  require(block.timestamp <= deadline, \"Deadline exceeded\") */\n    tag_135:\n        /* \"backend/contracts/Campaign.sol\":3033:3041  isActive */\n      and(0xff, sload(0x03))\n        /* \"backend/contracts/Campaign.sol\":3025:3063  require(isActive, \"Inactive Campaign\") */\n      tag_139\n      jumpi\n      mload(0x40)\n      shl(0xe5, 0x461bcd)\n      dup2\n      mstore\n        /* \"#utility.yul\":3699:3701   */\n      0x20\n        /* \"backend/contracts/Campaign.sol\":3025:3063  require(isActive, \"Inactive Campaign\") */\n      0x04\n      dup3\n      add\n        /* \"#utility.yul\":3681:3702   */\n      mstore\n        /* \"#utility.yul\":3738:3740   */\n      0x11\n        /* \"#utility.yul\":3718:3736   */\n      0x24\n      dup3\n      add\n        /* \"#utility.yul\":3711:3741   */\n      mstore\n      shl(0x79, 0x24b730b1ba34bb329021b0b6b830b4b3b7)\n        /* \"#utility.yul\":3757:3775   */\n      0x44\n      dup3\n      add\n        /* \"#utility.yul\":3750:3797   */\n      mstore\n        /* \"#utility.yul\":3814:3832   */\n      0x64\n      add\n        /* \"backend/contracts/Campaign.sol\":3025:3063  require(isActive, \"Inactive Campaign\") */\n      tag_102\n        /* \"#utility.yul\":3497:3838   */\n      jump\n        /* \"backend/contracts/Campaign.sol\":3025:3063  require(isActive, \"Inactive Campaign\") */\n    tag_139:\n        /* \"backend/contracts/Campaign.sol\":3504:3514  msg.sender */\n      caller\n        /* \"backend/contracts/Campaign.sol\":3488:3501  address donor */\n      0x00\n        /* \"backend/contracts/Campaign.sol\":3636:3652  donations[donor] */\n      dup2\n      dup2\n      mstore\n        /* \"backend/contracts/Campaign.sol\":3636:3645  donations */\n      0x04\n        /* \"backend/contracts/Campaign.sol\":3636:3652  donations[donor] */\n      0x20\n      mstore\n      0x40\n      dup2\n      keccak256\n      sload\n        /* \"backend/contracts/Campaign.sol\":3549:3558  msg.value */\n      callvalue\n      swap2\n        /* \"backend/contracts/Campaign.sol\":3636:3657  donations[donor] == 0 */\n      sub\n        /* \"backend/contracts/Campaign.sol\":3632:3702  if (donations[donor] == 0) {... */\n      tag_142\n      jumpi\n        /* \"backend/contracts/Campaign.sol\":3673:3679  donors */\n      0x05\n        /* \"backend/contracts/Campaign.sol\":3673:3691  donors.push(donor) */\n      dup1\n      sload\n      0x01\n      dup2\n      add\n      dup3\n      sstore\n      0x00\n      swap2\n      swap1\n      swap2\n      mstore\n      0x036b6384b5eca791c62761152d0c79bb0604c104a5fb6f4eb0703f3154bb3db0\n      add\n      dup1\n      sload\n      not(sub(shl(0xa0, 0x01), 0x01))\n      and\n      sub(shl(0xa0, 0x01), 0x01)\n      dup5\n      and\n      or\n      swap1\n      sstore\n        /* \"backend/contracts/Campaign.sol\":3632:3702  if (donations[donor] == 0) {... */\n    tag_142:\n      sub(shl(0xa0, 0x01), 0x01)\n        /* \"backend/contracts/Campaign.sol\":3712:3728  donations[donor] */\n      dup3\n      and\n      0x00\n      swap1\n      dup2\n      mstore\n        /* \"backend/contracts/Campaign.sol\":3712:3721  donations */\n      0x04\n        /* \"backend/contracts/Campaign.sol\":3712:3728  donations[donor] */\n      0x20\n      mstore\n      0x40\n      dup2\n      keccak256\n        /* \"backend/contracts/Campaign.sol\":3712:3738  donations[donor] += amount */\n      dup1\n      sload\n        /* \"backend/contracts/Campaign.sol\":3732:3738  amount */\n      dup4\n      swap3\n        /* \"backend/contracts/Campaign.sol\":3712:3728  donations[donor] */\n      swap1\n        /* \"backend/contracts/Campaign.sol\":3712:3738  donations[donor] += amount */\n      tag_144\n      swap1\n        /* \"backend/contracts/Campaign.sol\":3732:3738  amount */\n      dup5\n      swap1\n        /* \"backend/contracts/Campaign.sol\":3712:3738  donations[donor] += amount */\n      tag_145\n      jump\t// in\n    tag_144:\n      swap1\n      swap2\n      sstore\n      pop\n      pop\n        /* \"backend/contracts/Campaign.sol\":3901:3911  totalFunds */\n      sload(0x02)\n        /* \"backend/contracts/Campaign.sol\":3877:3898  uint256 newTotalFunds */\n      0x00\n      swap1\n        /* \"backend/contracts/Campaign.sol\":3901:3920  totalFunds + amount */\n      tag_146\n      swap1\n        /* \"backend/contracts/Campaign.sol\":3914:3920  amount */\n      dup4\n      swap1\n        /* \"backend/contracts/Campaign.sol\":3901:3920  totalFunds + amount */\n      tag_145\n      jump\t// in\n    tag_146:\n        /* \"backend/contracts/Campaign.sol\":3930:3940  totalFunds */\n      0x02\n        /* \"backend/contracts/Campaign.sol\":3930:3956  totalFunds = newTotalFunds */\n      dup2\n      swap1\n      sstore\n        /* \"backend/contracts/Campaign.sol\":3972:3992  DonationMade(amount) */\n      mload(0x40)\n        /* \"#utility.yul\":2083:2108   */\n      dup4\n      dup2\n      mstore\n        /* \"backend/contracts/Campaign.sol\":3877:3920  uint256 newTotalFunds = totalFunds + amount */\n      swap1\n      swap2\n      pop\n        /* \"backend/contracts/Campaign.sol\":3972:3992  DonationMade(amount) */\n      0xeb3301a94d74dc3ee739ec081ebeaf60c5e72b48aef0402c21c9f049f84c9622\n      swap1\n        /* \"#utility.yul\":2071:2073   */\n      0x20\n        /* \"#utility.yul\":2056:2074   */\n      add\n        /* \"backend/contracts/Campaign.sol\":3972:3992  DonationMade(amount) */\n      mload(0x40)\n      dup1\n      swap2\n      sub\n      swap1\n      log1\n        /* \"backend/contracts/Campaign.sol\":4250:4261  fundingGoal */\n      immutable(\"0x7f8b6b088b6d74c2852fc86c796dca07b44eed6fb3daf5e6b59f7c364db14528\")\n        /* \"backend/contracts/Campaign.sol\":4233:4246  newTotalFunds */\n      dup2\n        /* \"backend/contracts/Campaign.sol\":4233:4261  newTotalFunds >= fundingGoal */\n      lt\n        /* \"backend/contracts/Campaign.sol\":4229:4309  if (newTotalFunds >= fundingGoal) {... */\n      tag_124\n      jumpi\n        /* \"backend/contracts/Campaign.sol\":4282:4298  FundingGoalMet() */\n      mload(0x40)\n      0x7efee204be5df5d59d7f2294f7f2776f836d145d72998af64b6dcbbd898e7bf6\n      swap1\n      0x00\n      swap1\n      log1\n        /* \"backend/contracts/Campaign.sol\":3478:4315  {... */\n      pop\n      pop\n      pop\n        /* \"backend/contracts/Campaign.sol\":3411:4315  function donate() external payable beforeDeadline isActiveCampaign {... */\n      jump\t// out\n        /* \"backend/contracts/Campaign.sol\":5320:5673  function releaseFunds() private {... */\n    tag_115:\n        /* \"backend/contracts/Campaign.sol\":5387:5397  totalFunds */\n      0x02\n      dup1\n      sload\n        /* \"backend/contracts/Campaign.sol\":5362:5384  uint256 fundsToRelease */\n      0x00\n        /* \"backend/contracts/Campaign.sol\":5407:5424  delete totalFunds */\n      swap2\n      dup3\n      swap1\n      sstore\n        /* \"backend/contracts/Campaign.sol\":5476:5484  isActive */\n      0x03\n        /* \"backend/contracts/Campaign.sol\":5476:5492  isActive = false */\n      dup1\n      sload\n      not(0xff)\n      and\n      swap1\n      sstore\n        /* \"backend/contracts/Campaign.sol\":5553:5598  payable(beneficiary).transfer(fundsToRelease) */\n      mload(0x40)\n        /* \"backend/contracts/Campaign.sol\":5387:5397  totalFunds */\n      swap1\n      swap2\n      sub(shl(0xa0, 0x01), 0x01)\n        /* \"backend/contracts/Campaign.sol\":5561:5572  beneficiary */\n      immutable(\"0x13600b294191fc92924bb3ce4b969c1e7e2bab8f4c93c3fc6d0a51733df3c060\")\n        /* \"backend/contracts/Campaign.sol\":5553:5582  payable(beneficiary).transfer */\n      and\n      swap2\n        /* \"backend/contracts/Campaign.sol\":5553:5598  payable(beneficiary).transfer(fundsToRelease) */\n      dup4\n      iszero\n      0x08fc\n      mul\n      swap2\n        /* \"backend/contracts/Campaign.sol\":5387:5397  totalFunds */\n      dup5\n      swap2\n        /* \"backend/contracts/Campaign.sol\":5553:5598  payable(beneficiary).transfer(fundsToRelease) */\n      swap1\n      dup2\n        /* \"backend/contracts/Campaign.sol\":5362:5384  uint256 fundsToRelease */\n      dup2\n        /* \"backend/contracts/Campaign.sol\":5553:5598  payable(beneficiary).transfer(fundsToRelease) */\n      dup2\n        /* \"backend/contracts/Campaign.sol\":5387:5397  totalFunds */\n      dup6\n        /* \"backend/contracts/Campaign.sol\":5553:5582  payable(beneficiary).transfer */\n      dup9\n        /* \"backend/contracts/Campaign.sol\":5553:5598  payable(beneficiary).transfer(fundsToRelease) */\n      dup9\n      call\n      swap4\n      pop\n      pop\n      pop\n      pop\n      iszero\n      dup1\n      iszero\n      tag_151\n      jumpi\n      returndatasize\n      0x00\n      dup1\n      returndatacopy\n      revert(0x00, returndatasize)\n    tag_151:\n      pop\n        /* \"backend/contracts/Campaign.sol\":5614:5666  CampaignFinalized(beneficiary, true, fundsToRelease) */\n      0x40\n      dup1\n      mload\n        /* \"backend/contracts/Campaign.sol\":5645:5649  true */\n      0x01\n        /* \"#utility.yul\":4706:4747   */\n      dup2\n      mstore\n        /* \"#utility.yul\":4778:4780   */\n      0x20\n        /* \"#utility.yul\":4763:4781   */\n      dup2\n      add\n        /* \"#utility.yul\":4756:4790   */\n      dup4\n      swap1\n      mstore\n      sub(shl(0xa0, 0x01), 0x01)\n        /* \"backend/contracts/Campaign.sol\":5632:5643  beneficiary */\n      immutable(\"0x13600b294191fc92924bb3ce4b969c1e7e2bab8f4c93c3fc6d0a51733df3c060\")\n        /* \"backend/contracts/Campaign.sol\":5614:5666  CampaignFinalized(beneficiary, true, fundsToRelease) */\n      and\n      swap2\n      0x712d35f4bf4c7422ae5b3996c20cc32903765397cd70e33a25294baf8c89dc80\n      swap2\n        /* \"#utility.yul\":4679:4697   */\n      add\n        /* \"backend/contracts/Campaign.sol\":5614:5666  CampaignFinalized(beneficiary, true, fundsToRelease) */\n      mload(0x40)\n      dup1\n      swap2\n      sub\n      swap1\n      log2\n        /* \"backend/contracts/Campaign.sol\":5352:5673  {... */\n      pop\n        /* \"backend/contracts/Campaign.sol\":5320:5673  function releaseFunds() private {... */\n      jump\t// out\n        /* \"#utility.yul\":14:303   */\n    tag_153:\n        /* \"#utility.yul\":56:59   */\n      0x00\n        /* \"#utility.yul\":94:99   */\n      dup2\n        /* \"#utility.yul\":88:100   */\n      mload\n        /* \"#utility.yul\":121:127   */\n      dup1\n        /* \"#utility.yul\":116:119   */\n      dup5\n        /* \"#utility.yul\":109:128   */\n      mstore\n        /* \"#utility.yul\":177:183   */\n      dup1\n        /* \"#utility.yul\":170:174   */\n      0x20\n        /* \"#utility.yul\":163:168   */\n      dup5\n        /* \"#utility.yul\":159:175   */\n      add\n        /* \"#utility.yul\":152:156   */\n      0x20\n        /* \"#utility.yul\":147:150   */\n      dup7\n        /* \"#utility.yul\":143:157   */\n      add\n        /* \"#utility.yul\":137:184   */\n      mcopy\n        /* \"#utility.yul\":229:230   */\n      0x00\n        /* \"#utility.yul\":222:226   */\n      0x20\n        /* \"#utility.yul\":213:219   */\n      dup3\n        /* \"#utility.yul\":208:211   */\n      dup7\n        /* \"#utility.yul\":204:220   */\n      add\n        /* \"#utility.yul\":200:227   */\n      add\n        /* \"#utility.yul\":193:231   */\n      mstore\n        /* \"#utility.yul\":292:296   */\n      0x20\n        /* \"#utility.yul\":285:287   */\n      0x1f\n        /* \"#utility.yul\":281:288   */\n      not\n        /* \"#utility.yul\":276:278   */\n      0x1f\n        /* \"#utility.yul\":268:274   */\n      dup4\n        /* \"#utility.yul\":264:279   */\n      add\n        /* \"#utility.yul\":260:289   */\n      and\n        /* \"#utility.yul\":255:258   */\n      dup6\n        /* \"#utility.yul\":251:290   */\n      add\n        /* \"#utility.yul\":247:297   */\n      add\n        /* \"#utility.yul\":240:297   */\n      swap2\n      pop\n      pop\n        /* \"#utility.yul\":14:303   */\n      swap3\n      swap2\n      pop\n      pop\n      jump\t// out\n        /* \"#utility.yul\":308:528   */\n    tag_21:\n        /* \"#utility.yul\":457:459   */\n      0x20\n        /* \"#utility.yul\":446:455   */\n      dup2\n        /* \"#utility.yul\":439:460   */\n      mstore\n        /* \"#utility.yul\":420:424   */\n      0x00\n        /* \"#utility.yul\":477:522   */\n      tag_157\n        /* \"#utility.yul\":518:520   */\n      0x20\n        /* \"#utility.yul\":507:516   */\n      dup4\n        /* \"#utility.yul\":503:521   */\n      add\n        /* \"#utility.yul\":495:501   */\n      dup5\n        /* \"#utility.yul\":477:522   */\n      tag_153\n      jump\t// in\n    tag_157:\n        /* \"#utility.yul\":469:522   */\n      swap4\n        /* \"#utility.yul\":308:528   */\n      swap3\n      pop\n      pop\n      pop\n      jump\t// out\n        /* \"#utility.yul\":533:1331   */\n    tag_26:\n      sub(shl(0xa0, 0x01), 0x01)\n        /* \"#utility.yul\":862:894   */\n      dup9\n      and\n        /* \"#utility.yul\":844:895   */\n      dup2\n      mstore\n        /* \"#utility.yul\":931:934   */\n      0xe0\n        /* \"#utility.yul\":926:928   */\n      0x20\n        /* \"#utility.yul\":911:929   */\n      dup3\n      add\n        /* \"#utility.yul\":904:935   */\n      dup2\n      swap1\n      mstore\n      0x00\n      swap1\n        /* \"#utility.yul\":958:1004   */\n      tag_159\n      swap1\n        /* \"#utility.yul\":984:1003   */\n      dup4\n      add\n        /* \"#utility.yul\":976:982   */\n      dup10\n        /* \"#utility.yul\":958:1004   */\n      tag_153\n      jump\t// in\n    tag_159:\n        /* \"#utility.yul\":1052:1061   */\n      dup3\n        /* \"#utility.yul\":1044:1050   */\n      dup2\n        /* \"#utility.yul\":1040:1062   */\n      sub\n        /* \"#utility.yul\":1035:1037   */\n      0x40\n        /* \"#utility.yul\":1024:1033   */\n      dup5\n        /* \"#utility.yul\":1020:1038   */\n      add\n        /* \"#utility.yul\":1013:1063   */\n      mstore\n        /* \"#utility.yul\":1080:1113   */\n      tag_160\n        /* \"#utility.yul\":1106:1112   */\n      dup2\n        /* \"#utility.yul\":1098:1104   */\n      dup10\n        /* \"#utility.yul\":1080:1113   */\n      tag_153\n      jump\t// in\n    tag_160:\n        /* \"#utility.yul\":1072:1113   */\n      swap2\n      pop\n      pop\n        /* \"#utility.yul\":1161:1175   */\n      0xffffffffffff\n        /* \"#utility.yul\":1153:1159   */\n      dup7\n        /* \"#utility.yul\":1149:1176   */\n      and\n        /* \"#utility.yul\":1144:1146   */\n      0x60\n        /* \"#utility.yul\":1133:1142   */\n      dup4\n        /* \"#utility.yul\":1129:1147   */\n      add\n        /* \"#utility.yul\":1122:1177   */\n      mstore\n        /* \"#utility.yul\":1214:1220   */\n      dup5\n        /* \"#utility.yul\":1208:1211   */\n      0x80\n        /* \"#utility.yul\":1197:1206   */\n      dup4\n        /* \"#utility.yul\":1193:1212   */\n      add\n        /* \"#utility.yul\":1186:1221   */\n      mstore\n        /* \"#utility.yul\":1258:1264   */\n      dup4\n        /* \"#utility.yul\":1252:1255   */\n      0xa0\n        /* \"#utility.yul\":1241:1250   */\n      dup4\n        /* \"#utility.yul\":1237:1256   */\n      add\n        /* \"#utility.yul\":1230:1265   */\n      mstore\n        /* \"#utility.yul\":1316:1322   */\n      dup3\n        /* \"#utility.yul\":1309:1323   */\n      iszero\n        /* \"#utility.yul\":1302:1324   */\n      iszero\n        /* \"#utility.yul\":1296:1299   */\n      0xc0\n        /* \"#utility.yul\":1285:1294   */\n      dup4\n        /* \"#utility.yul\":1281:1300   */\n      add\n        /* \"#utility.yul\":1274:1325   */\n      mstore\n        /* \"#utility.yul\":533:1331   */\n      swap9\n      swap8\n      pop\n      pop\n      pop\n      pop\n      pop\n      pop\n      pop\n      pop\n      jump\t// out\n        /* \"#utility.yul\":2119:2756   */\n    tag_63:\n        /* \"#utility.yul\":2309:2311   */\n      0x20\n        /* \"#utility.yul\":2321:2342   */\n      dup1\n      dup3\n      mstore\n        /* \"#utility.yul\":2391:2404   */\n      dup3\n      mload\n        /* \"#utility.yul\":2294:2312   */\n      dup3\n      dup3\n      add\n        /* \"#utility.yul\":2413:2435   */\n      dup2\n      swap1\n      mstore\n        /* \"#utility.yul\":2261:2265   */\n      0x00\n      swap2\n        /* \"#utility.yul\":2492:2507   */\n      dup5\n      add\n      swap1\n        /* \"#utility.yul\":2466:2468   */\n      0x40\n        /* \"#utility.yul\":2451:2469   */\n      dup5\n      add\n      swap1\n        /* \"#utility.yul\":2261:2265   */\n      dup4\n        /* \"#utility.yul\":2535:2730   */\n    tag_166:\n        /* \"#utility.yul\":2549:2555   */\n      dup2\n        /* \"#utility.yul\":2546:2547   */\n      dup2\n        /* \"#utility.yul\":2543:2556   */\n      lt\n        /* \"#utility.yul\":2535:2730   */\n      iszero\n      tag_168\n      jumpi\n        /* \"#utility.yul\":2614:2627   */\n      dup4\n      mload\n      sub(shl(0xa0, 0x01), 0x01)\n        /* \"#utility.yul\":2610:2649   */\n      and\n        /* \"#utility.yul\":2598:2650   */\n      dup4\n      mstore\n        /* \"#utility.yul\":2679:2681   */\n      0x20\n        /* \"#utility.yul\":2705:2720   */\n      swap4\n      dup5\n      add\n      swap4\n        /* \"#utility.yul\":2670:2682   */\n      swap1\n      swap3\n      add\n      swap2\n        /* \"#utility.yul\":2646:2647   */\n      0x01\n        /* \"#utility.yul\":2564:2573   */\n      add\n        /* \"#utility.yul\":2535:2730   */\n      jump(tag_166)\n    tag_168:\n      pop\n        /* \"#utility.yul\":2747:2750   */\n      swap1\n      swap6\n        /* \"#utility.yul\":2119:2756   */\n      swap5\n      pop\n      pop\n      pop\n      pop\n      pop\n      jump\t// out\n        /* \"#utility.yul\":2761:3107   */\n    tag_70:\n        /* \"#utility.yul\":2829:2835   */\n      0x00\n        /* \"#utility.yul\":2837:2843   */\n      dup1\n        /* \"#utility.yul\":2890:2892   */\n      0x40\n        /* \"#utility.yul\":2878:2887   */\n      dup4\n        /* \"#utility.yul\":2869:2876   */\n      dup6\n        /* \"#utility.yul\":2865:2888   */\n      sub\n        /* \"#utility.yul\":2861:2893   */\n      slt\n        /* \"#utility.yul\":2858:2910   */\n      iszero\n      tag_170\n      jumpi\n        /* \"#utility.yul\":2906:2907   */\n      0x00\n        /* \"#utility.yul\":2903:2904   */\n      dup1\n        /* \"#utility.yul\":2896:2908   */\n      revert\n        /* \"#utility.yul\":2858:2910   */\n    tag_170:\n      pop\n      pop\n        /* \"#utility.yul\":2951:2974   */\n      dup1\n      calldataload\n      swap3\n        /* \"#utility.yul\":3071:3073   */\n      0x20\n        /* \"#utility.yul\":3056:3074   */\n      swap1\n      swap2\n      add\n        /* \"#utility.yul\":3043:3075   */\n      calldataload\n      swap2\n      pop\n        /* \"#utility.yul\":2761:3107   */\n      jump\t// out\n        /* \"#utility.yul\":3112:3492   */\n    tag_75:\n        /* \"#utility.yul\":3191:3192   */\n      0x01\n        /* \"#utility.yul\":3187:3199   */\n      dup2\n      dup2\n      shr\n      swap1\n        /* \"#utility.yul\":3234:3246   */\n      dup3\n      and\n      dup1\n        /* \"#utility.yul\":3255:3316   */\n      tag_172\n      jumpi\n        /* \"#utility.yul\":3309:3313   */\n      0x7f\n        /* \"#utility.yul\":3301:3307   */\n      dup3\n        /* \"#utility.yul\":3297:3314   */\n      and\n        /* \"#utility.yul\":3287:3314   */\n      swap2\n      pop\n        /* \"#utility.yul\":3255:3316   */\n    tag_172:\n        /* \"#utility.yul\":3362:3364   */\n      0x20\n        /* \"#utility.yul\":3354:3360   */\n      dup3\n        /* \"#utility.yul\":3351:3365   */\n      lt\n        /* \"#utility.yul\":3331:3349   */\n      dup2\n        /* \"#utility.yul\":3328:3366   */\n      sub\n        /* \"#utility.yul\":3325:3486   */\n      tag_173\n      jumpi\n        /* \"#utility.yul\":3408:3418   */\n      0x4e487b71\n        /* \"#utility.yul\":3403:3406   */\n      0xe0\n        /* \"#utility.yul\":3399:3419   */\n      shl\n        /* \"#utility.yul\":3396:3397   */\n      0x00\n        /* \"#utility.yul\":3389:3420   */\n      mstore\n        /* \"#utility.yul\":3443:3447   */\n      0x22\n        /* \"#utility.yul\":3440:3441   */\n      0x04\n        /* \"#utility.yul\":3433:3448   */\n      mstore\n        /* \"#utility.yul\":3471:3475   */\n      0x24\n        /* \"#utility.yul\":3468:3469   */\n      0x00\n        /* \"#utility.yul\":3461:3476   */\n      revert\n        /* \"#utility.yul\":3325:3486   */\n    tag_173:\n      pop\n        /* \"#utility.yul\":3112:3492   */\n      swap2\n      swap1\n      pop\n      jump\t// out\n        /* \"#utility.yul\":4801:4928   */\n    tag_128:\n        /* \"#utility.yul\":4862:4872   */\n      0x4e487b71\n        /* \"#utility.yul\":4857:4860   */\n      0xe0\n        /* \"#utility.yul\":4853:4873   */\n      shl\n        /* \"#utility.yul\":4850:4851   */\n      0x00\n        /* \"#utility.yul\":4843:4874   */\n      mstore\n        /* \"#utility.yul\":4893:4897   */\n      0x32\n        /* \"#utility.yul\":4890:4891   */\n      0x04\n        /* \"#utility.yul\":4883:4898   */\n      mstore\n        /* \"#utility.yul\":4917:4921   */\n      0x24\n        /* \"#utility.yul\":4914:4915   */\n      0x00\n        /* \"#utility.yul\":4907:4922   */\n      revert\n        /* \"#utility.yul\":5279:5501   */\n    tag_145:\n        /* \"#utility.yul\":5344:5353   */\n      dup1\n      dup3\n      add\n        /* \"#utility.yul\":5365:5375   */\n      dup1\n      dup3\n      gt\n        /* \"#utility.yul\":5362:5495   */\n      iszero\n      tag_181\n      jumpi\n        /* \"#utility.yul\":5417:5427   */\n      0x4e487b71\n        /* \"#utility.yul\":5412:5415   */\n      0xe0\n        /* \"#utility.yul\":5408:5428   */\n      shl\n        /* \"#utility.yul\":5405:5406   */\n      0x00\n        /* \"#utility.yul\":5398:5429   */\n      mstore\n        /* \"#utility.yul\":5452:5456   */\n      0x11\n        /* \"#utility.yul\":5449:5450   */\n      0x04\n        /* \"#utility.yul\":5442:5457   */\n      mstore\n        /* \"#utility.yul\":5480:5484   */\n      0x24\n        /* \"#utility.yul\":5477:5478   */\n      0x00\n        /* \"#utility.yul\":5470:5485   */\n      revert\n        /* \"#utility.yul\":5362:5495   */\n    tag_181:\n        /* \"#utility.yul\":5279:5501   */\n      swap3\n      swap2\n      pop\n      pop\n      jump\t// out\n\n    auxdata: 0xa264697066735822122029a51506532fcab91b6da90c3b212e794a0e3aaa09050af106a1a82bb89bda9e64736f6c634300081a0033\n}\n",
				"bytecode": {
					"linkReferences": {},
					"object": "60e060405234801561000f575f80fd5b5060405161105538038061105583398101604081905261002e91610117565b6001600160a01b0385166080525f6100468582610247565b5060016100538482610247565b5060c09190915265ffffffffffff1660a05250506003805460ff1916600117905550610301565b634e487b7160e01b5f52604160045260245ffd5b5f82601f83011261009d575f80fd5b81516001600160401b038111156100b6576100b661007a565b604051601f8201601f19908116603f011681016001600160401b03811182821017156100e4576100e461007a565b6040528181528382016020018510156100fb575f80fd5b8160208501602083015e5f918101602001919091529392505050565b5f805f805f60a0868803121561012b575f80fd5b85516001600160a01b0381168114610141575f80fd5b60208701519095506001600160401b0381111561015c575f80fd5b6101688882890161008e565b604088015190955090506001600160401b03811115610185575f80fd5b6101918882890161008e565b606088015160808901519195509350905065ffffffffffff811681146101b5575f80fd5b809150509295509295909350565b600181811c908216806101d757607f821691505b6020821081036101f557634e487b7160e01b5f52602260045260245ffd5b50919050565b601f82111561024257805f5260205f20601f840160051c810160208510156102205750805b601f840160051c820191505b8181101561023f575f815560010161022c565b50505b505050565b81516001600160401b038111156102605761026061007a565b6102748161026e84546101c3565b846101fb565b6020601f8211600181146102a6575f831561028f5750848201515b5f19600385901b1c1916600184901b17845561023f565b5f84815260208120601f198516915b828110156102d557878501518255602094850194600190920191016102b5565b50848210156102f257868401515f19600387901b60f8161c191681555b50505050600190811b01905550565b60805160a05160c051610cd661037f5f395f81816101f7015281816104b10152818161067801526109f401525f818161014e0152818161048e0152818161059e015261086a01525f81816101980152818161034f01528181610616015281816106c70152818161072801528181610a680152610ac80152610cd65ff3fe6080604052600436106100bf575f3560e01c80637a3a0e841161007c57806396f300d41161005757806396f300d41461025c578063a1211bc01461027d578063d506b8b514610293578063ed88c68e146102b2575f80fd5b80637a3a0e84146101e657806390e4a13014610227578063968ed60014610247575f80fd5b806306fdde03146100c35780630c611f24146100ed57806322f3e2d41461011457806329dcb0cf1461013d57806338af3eed146101875780637284e416146101d2575b5f80fd5b3480156100ce575f80fd5b506100d76102ba565b6040516100e49190610b45565b60405180910390f35b3480156100f8575f80fd5b50610101610345565b6040516100e49796959493929190610b5e565b34801561011f575f80fd5b5060035461012d9060ff1681565b60405190151581526020016100e4565b348015610148575f80fd5b506101707f000000000000000000000000000000000000000000000000000000000000000081565b60405165ffffffffffff90911681526020016100e4565b348015610192575f80fd5b506101ba7f000000000000000000000000000000000000000000000000000000000000000081565b6040516001600160a01b0390911681526020016100e4565b3480156101dd575f80fd5b506100d76104e4565b3480156101f1575f80fd5b506102197f000000000000000000000000000000000000000000000000000000000000000081565b6040519081526020016100e4565b348015610232575f80fd5b50335f90815260046020526040902054610219565b348015610252575f80fd5b5061021960025481565b348015610267575f80fd5b506102706104f1565b6040516100e49190610bc4565b348015610288575f80fd5b50610291610551565b005b34801561029e575f80fd5b506102916102ad366004610c0f565b61071d565b610291610868565b5f80546102c690610c2f565b80601f01602080910402602001604051908101604052809291908181526020018280546102f290610c2f565b801561033d5780601f106103145761010080835404028352916020019161033d565b820191905f5260205f20905b81548152906001019060200180831161032057829003601f168201915b505050505081565b5f6060805f805f807f000000000000000000000000000000000000000000000000000000000000000096505f805461037c90610c2f565b80601f01602080910402602001604051908101604052809291908181526020018280546103a890610c2f565b80156103f35780601f106103ca576101008083540402835291602001916103f3565b820191905f5260205f20905b8154815290600101906020018083116103d657829003601f168201915b505050505095506001805461040790610c2f565b80601f016020809104026020016040519081016040528092919081815260200182805461043390610c2f565b801561047e5780601f106104555761010080835404028352916020019161047e565b820191905f5260205f20905b81548152906001019060200180831161046157829003601f168201915b50506002546003549b9c9a9b949a7f00000000000000000000000000000000000000000000000000000000000000009a507f0000000000000000000000000000000000000000000000000000000000000000995090975060ff9094169550929350505050565b600180546102c690610c2f565b6060600580548060200260200160405190810160405280929190818152602001828054801561054757602002820191905f5260205f20905b81546001600160a01b03168152600190910190602001808311610529575b5050505050905090565b60035460ff1661059c5760405162461bcd60e51b815260206004820152601160248201527024b730b1ba34bb329021b0b6b830b4b3b760791b60448201526064015b60405180910390fd5b7f000000000000000000000000000000000000000000000000000000000000000065ffffffffffff16421161060b5760405162461bcd60e51b8152602060048201526015602482015274111958591b1a5b99481b9bdd08195e18d959591959605a1b6044820152606401610593565b336001600160a01b037f000000000000000000000000000000000000000000000000000000000000000016146106765760405162461bcd60e51b815260206004820152601060248201526f42656e6566696369617279206f6e6c7960801b6044820152606401610593565b7f0000000000000000000000000000000000000000000000000000000000000000600254106106a9576106a7610a46565b565b6003805460ff19169055600254604080515f815260208101929092527f00000000000000000000000000000000000000000000000000000000000000006001600160a01b0316917f712d35f4bf4c7422ae5b3996c20cc32903765397cd70e33a25294baf8c89dc80910160405180910390a2565b336001600160a01b037f000000000000000000000000000000000000000000000000000000000000000016146107885760405162461bcd60e51b815260206004820152601060248201526f42656e6566696369617279206f6e6c7960801b6044820152606401610593565b815b81811015610863575f600582815481106107a6576107a6610c67565b5f9182526020808320909101546001600160a01b031680835260049091526040909120549091508015610859576001600160a01b0382165f818152600460205260408082208290555183156108fc0291849190818181858888f19350505050158015610814573d5f803e3d5ffd5b50816001600160a01b03167fa171b6942063c6f2800ce40a780edce37baa2b618571b11eedd1e69e626e7d768260405161085091815260200190565b60405180910390a25b505060010161078a565b505050565b7f000000000000000000000000000000000000000000000000000000000000000065ffffffffffff164211156108d45760405162461bcd60e51b8152602060048201526011602482015270111958591b1a5b9948195e18d959591959607a1b6044820152606401610593565b60035460ff1661091a5760405162461bcd60e51b815260206004820152601160248201527024b730b1ba34bb329021b0b6b830b4b3b760791b6044820152606401610593565b335f8181526004602052604081205434910361097b57600580546001810182555f919091527f036b6384b5eca791c62761152d0c79bb0604c104a5fb6f4eb0703f3154bb3db00180546001600160a01b0319166001600160a01b0384161790555b6001600160a01b0382165f90815260046020526040812080548392906109a2908490610c7b565b90915550506002545f906109b7908390610c7b565b60028190556040518381529091507feb3301a94d74dc3ee739ec081ebeaf60c5e72b48aef0402c21c9f049f84c96229060200160405180910390a17f00000000000000000000000000000000000000000000000000000000000000008110610863576040517f7efee204be5df5d59d7f2294f7f2776f836d145d72998af64b6dcbbd898e7bf6905f90a1505050565b600280545f918290556003805460ff1916905560405190916001600160a01b037f0000000000000000000000000000000000000000000000000000000000000000169183156108fc0291849190818181858888f19350505050158015610aae573d5f803e3d5ffd5b506040805160018152602081018390526001600160a01b037f000000000000000000000000000000000000000000000000000000000000000016917f712d35f4bf4c7422ae5b3996c20cc32903765397cd70e33a25294baf8c89dc80910160405180910390a250565b5f81518084528060208401602086015e5f602082860101526020601f19601f83011685010191505092915050565b602081525f610b576020830184610b17565b9392505050565b6001600160a01b038816815260e0602082018190525f90610b8190830189610b17565b8281036040840152610b938189610b17565b91505065ffffffffffff861660608301528460808301528360a083015282151560c083015298975050505050505050565b602080825282518282018190525f918401906040840190835b81811015610c045783516001600160a01b0316835260209384019390920191600101610bdd565b509095945050505050565b5f8060408385031215610c20575f80fd5b50508035926020909101359150565b600181811c90821680610c4357607f821691505b602082108103610c6157634e487b7160e01b5f52602260045260245ffd5b50919050565b634e487b7160e01b5f52603260045260245ffd5b80820180821115610c9a57634e487b7160e01b5f52601160045260245ffd5b9291505056fea264697066735822122029a51506532fcab91b6da90c3b212e794a0e3aaa09050af106a1a82bb89bda9e64736f6c634300081a0033",
					"opcodes": "PUSH1 0xE0 PUSH1 0x40 MSTORE CALLVALUE DUP1 ISZERO PUSH2 0xF JUMPI PUSH0 DUP1 REVERT JUMPDEST POP PUSH1 0x40 MLOAD PUSH2 0x1055 CODESIZE SUB DUP1 PUSH2 0x1055 DUP4 CODECOPY DUP2 ADD PUSH1 0x40 DUP2 SWAP1 MSTORE PUSH2 0x2E SWAP2 PUSH2 0x117 JUMP JUMPDEST PUSH1 0x1 PUSH1 0x1 PUSH1 0xA0 SHL SUB DUP6 AND PUSH1 0x80 MSTORE PUSH0 PUSH2 0x46 DUP6 DUP3 PUSH2 0x247 JUMP JUMPDEST POP PUSH1 0x1 PUSH2 0x53 DUP5 DUP3 PUSH2 0x247 JUMP JUMPDEST POP PUSH1 0xC0 SWAP2 SWAP1 SWAP2 MSTORE PUSH6 0xFFFFFFFFFFFF AND PUSH1 0xA0 MSTORE POP POP PUSH1 0x3 DUP1 SLOAD PUSH1 0xFF NOT AND PUSH1 0x1 OR SWAP1 SSTORE POP PUSH2 0x301 JUMP JUMPDEST PUSH4 0x4E487B71 PUSH1 0xE0 SHL PUSH0 MSTORE PUSH1 0x41 PUSH1 0x4 MSTORE PUSH1 0x24 PUSH0 REVERT JUMPDEST PUSH0 DUP3 PUSH1 0x1F DUP4 ADD SLT PUSH2 0x9D JUMPI PUSH0 DUP1 REVERT JUMPDEST DUP2 MLOAD PUSH1 0x1 PUSH1 0x1 PUSH1 0x40 SHL SUB DUP2 GT ISZERO PUSH2 0xB6 JUMPI PUSH2 0xB6 PUSH2 0x7A JUMP JUMPDEST PUSH1 0x40 MLOAD PUSH1 0x1F DUP3 ADD PUSH1 0x1F NOT SWAP1 DUP2 AND PUSH1 0x3F ADD AND DUP2 ADD PUSH1 0x1 PUSH1 0x1 PUSH1 0x40 SHL SUB DUP2 GT DUP3 DUP3 LT OR ISZERO PUSH2 0xE4 JUMPI PUSH2 0xE4 PUSH2 0x7A JUMP JUMPDEST PUSH1 0x40 MSTORE DUP2 DUP2 MSTORE DUP4 DUP3 ADD PUSH1 0x20 ADD DUP6 LT ISZERO PUSH2 0xFB JUMPI PUSH0 DUP1 REVERT JUMPDEST DUP2 PUSH1 0x20 DUP6 ADD PUSH1 0x20 DUP4 ADD MCOPY PUSH0 SWAP2 DUP2 ADD PUSH1 0x20 ADD SWAP2 SWAP1 SWAP2 MSTORE SWAP4 SWAP3 POP POP POP JUMP JUMPDEST PUSH0 DUP1 PUSH0 DUP1 PUSH0 PUSH1 0xA0 DUP7 DUP9 SUB SLT ISZERO PUSH2 0x12B JUMPI PUSH0 DUP1 REVERT JUMPDEST DUP6 MLOAD PUSH1 0x1 PUSH1 0x1 PUSH1 0xA0 SHL SUB DUP2 AND DUP2 EQ PUSH2 0x141 JUMPI PUSH0 DUP1 REVERT JUMPDEST PUSH1 0x20 DUP8 ADD MLOAD SWAP1 SWAP6 POP PUSH1 0x1 PUSH1 0x1 PUSH1 0x40 SHL SUB DUP2 GT ISZERO PUSH2 0x15C JUMPI PUSH0 DUP1 REVERT JUMPDEST PUSH2 0x168 DUP9 DUP3 DUP10 ADD PUSH2 0x8E JUMP JUMPDEST PUSH1 0x40 DUP9 ADD MLOAD SWAP1 SWAP6 POP SWAP1 POP PUSH1 0x1 PUSH1 0x1 PUSH1 0x40 SHL SUB DUP2 GT ISZERO PUSH2 0x185 JUMPI PUSH0 DUP1 REVERT JUMPDEST PUSH2 0x191 DUP9 DUP3 DUP10 ADD PUSH2 0x8E JUMP JUMPDEST PUSH1 0x60 DUP9 ADD MLOAD PUSH1 0x80 DUP10 ADD MLOAD SWAP2 SWAP6 POP SWAP4 POP SWAP1 POP PUSH6 0xFFFFFFFFFFFF DUP2 AND DUP2 EQ PUSH2 0x1B5 JUMPI PUSH0 DUP1 REVERT JUMPDEST DUP1 SWAP2 POP POP SWAP3 SWAP6 POP SWAP3 SWAP6 SWAP1 SWAP4 POP JUMP JUMPDEST PUSH1 0x1 DUP2 DUP2 SHR SWAP1 DUP3 AND DUP1 PUSH2 0x1D7 JUMPI PUSH1 0x7F DUP3 AND SWAP2 POP JUMPDEST PUSH1 0x20 DUP3 LT DUP2 SUB PUSH2 0x1F5 JUMPI PUSH4 0x4E487B71 PUSH1 0xE0 SHL PUSH0 MSTORE PUSH1 0x22 PUSH1 0x4 MSTORE PUSH1 0x24 PUSH0 REVERT JUMPDEST POP SWAP2 SWAP1 POP JUMP JUMPDEST PUSH1 0x1F DUP3 GT ISZERO PUSH2 0x242 JUMPI DUP1 PUSH0 MSTORE PUSH1 0x20 PUSH0 KECCAK256 PUSH1 0x1F DUP5 ADD PUSH1 0x5 SHR DUP2 ADD PUSH1 0x20 DUP6 LT ISZERO PUSH2 0x220 JUMPI POP DUP1 JUMPDEST PUSH1 0x1F DUP5 ADD PUSH1 0x5 SHR DUP3 ADD SWAP2 POP JUMPDEST DUP2 DUP2 LT ISZERO PUSH2 0x23F JUMPI PUSH0 DUP2 SSTORE PUSH1 0x1 ADD PUSH2 0x22C JUMP JUMPDEST POP POP JUMPDEST POP POP POP JUMP JUMPDEST DUP2 MLOAD PUSH1 0x1 PUSH1 0x1 PUSH1 0x40 SHL SUB DUP2 GT ISZERO PUSH2 0x260 JUMPI PUSH2 0x260 PUSH2 0x7A JUMP JUMPDEST PUSH2 0x274 DUP2 PUSH2 0x26E DUP5 SLOAD PUSH2 0x1C3 JUMP JUMPDEST DUP5 PUSH2 0x1FB JUMP JUMPDEST PUSH1 0x20 PUSH1 0x1F DUP3 GT PUSH1 0x1 DUP2 EQ PUSH2 0x2A6 JUMPI PUSH0 DUP4 ISZERO PUSH2 0x28F JUMPI POP DUP5 DUP3 ADD MLOAD JUMPDEST PUSH0 NOT PUSH1 0x3 DUP6 SWAP1 SHL SHR NOT AND PUSH1 0x1 DUP5 SWAP1 SHL OR DUP5 SSTORE PUSH2 0x23F JUMP JUMPDEST PUSH0 DUP5 DUP2 MSTORE PUSH1 0x20 DUP2 KECCAK256 PUSH1 0x1F NOT DUP6 AND SWAP2 JUMPDEST DUP3 DUP2 LT ISZERO PUSH2 0x2D5 JUMPI DUP8 DUP6 ADD MLOAD DUP3 SSTORE PUSH1 0x20 SWAP5 DUP6 ADD SWAP5 PUSH1 0x1 SWAP1 SWAP3 ADD SWAP2 ADD PUSH2 0x2B5 JUMP JUMPDEST POP DUP5 DUP3 LT ISZERO PUSH2 0x2F2 JUMPI DUP7 DUP5 ADD MLOAD PUSH0 NOT PUSH1 0x3 DUP8 SWAP1 SHL PUSH1 0xF8 AND SHR NOT AND DUP2 SSTORE JUMPDEST POP POP POP POP PUSH1 0x1 SWAP1 DUP2 SHL ADD SWAP1 SSTORE POP JUMP JUMPDEST PUSH1 0x80 MLOAD PUSH1 0xA0 MLOAD PUSH1 0xC0 MLOAD PUSH2 0xCD6 PUSH2 0x37F PUSH0 CODECOPY PUSH0 DUP2 DUP2 PUSH2 0x1F7 ADD MSTORE DUP2 DUP2 PUSH2 0x4B1 ADD MSTORE DUP2 DUP2 PUSH2 0x678 ADD MSTORE PUSH2 0x9F4 ADD MSTORE PUSH0 DUP2 DUP2 PUSH2 0x14E ADD MSTORE DUP2 DUP2 PUSH2 0x48E ADD MSTORE DUP2 DUP2 PUSH2 0x59E ADD MSTORE PUSH2 0x86A ADD MSTORE PUSH0 DUP2 DUP2 PUSH2 0x198 ADD MSTORE DUP2 DUP2 PUSH2 0x34F ADD MSTORE DUP2 DUP2 PUSH2 0x616 ADD MSTORE DUP2 DUP2 PUSH2 0x6C7 ADD MSTORE DUP2 DUP2 PUSH2 0x728 ADD MSTORE DUP2 DUP2 PUSH2 0xA68 ADD MSTORE PUSH2 0xAC8 ADD MSTORE PUSH2 0xCD6 PUSH0 RETURN INVALID PUSH1 0x80 PUSH1 0x40 MSTORE PUSH1 0x4 CALLDATASIZE LT PUSH2 0xBF JUMPI PUSH0 CALLDATALOAD PUSH1 0xE0 SHR DUP1 PUSH4 0x7A3A0E84 GT PUSH2 0x7C JUMPI DUP1 PUSH4 0x96F300D4 GT PUSH2 0x57 JUMPI DUP1 PUSH4 0x96F300D4 EQ PUSH2 0x25C JUMPI DUP1 PUSH4 0xA1211BC0 EQ PUSH2 0x27D JUMPI DUP1 PUSH4 0xD506B8B5 EQ PUSH2 0x293 JUMPI DUP1 PUSH4 0xED88C68E EQ PUSH2 0x2B2 JUMPI PUSH0 DUP1 REVERT JUMPDEST DUP1 PUSH4 0x7A3A0E84 EQ PUSH2 0x1E6 JUMPI DUP1 PUSH4 0x90E4A130 EQ PUSH2 0x227 JUMPI DUP1 PUSH4 0x968ED600 EQ PUSH2 0x247 JUMPI PUSH0 DUP1 REVERT JUMPDEST DUP1 PUSH4 0x6FDDE03 EQ PUSH2 0xC3 JUMPI DUP1 PUSH4 0xC611F24 EQ PUSH2 0xED JUMPI DUP1 PUSH4 0x22F3E2D4 EQ PUSH2 0x114 JUMPI DUP1 PUSH4 0x29DCB0CF EQ PUSH2 0x13D JUMPI DUP1 PUSH4 0x38AF3EED EQ PUSH2 0x187 JUMPI DUP1 PUSH4 0x7284E416 EQ PUSH2 0x1D2 JUMPI JUMPDEST PUSH0 DUP1 REVERT JUMPDEST CALLVALUE DUP1 ISZERO PUSH2 0xCE JUMPI PUSH0 DUP1 REVERT JUMPDEST POP PUSH2 0xD7 PUSH2 0x2BA JUMP JUMPDEST PUSH1 0x40 MLOAD PUSH2 0xE4 SWAP2 SWAP1 PUSH2 0xB45 JUMP JUMPDEST PUSH1 0x40 MLOAD DUP1 SWAP2 SUB SWAP1 RETURN JUMPDEST CALLVALUE DUP1 ISZERO PUSH2 0xF8 JUMPI PUSH0 DUP1 REVERT JUMPDEST POP PUSH2 0x101 PUSH2 0x345 JUMP JUMPDEST PUSH1 0x40 MLOAD PUSH2 0xE4 SWAP8 SWAP7 SWAP6 SWAP5 SWAP4 SWAP3 SWAP2 SWAP1 PUSH2 0xB5E JUMP JUMPDEST CALLVALUE DUP1 ISZERO PUSH2 0x11F JUMPI PUSH0 DUP1 REVERT JUMPDEST POP PUSH1 0x3 SLOAD PUSH2 0x12D SWAP1 PUSH1 0xFF AND DUP2 JUMP JUMPDEST PUSH1 0x40 MLOAD SWAP1 ISZERO ISZERO DUP2 MSTORE PUSH1 0x20 ADD PUSH2 0xE4 JUMP JUMPDEST CALLVALUE DUP1 ISZERO PUSH2 0x148 JUMPI PUSH0 DUP1 REVERT JUMPDEST POP PUSH2 0x170 PUSH32 0x0 DUP2 JUMP JUMPDEST PUSH1 0x40 MLOAD PUSH6 0xFFFFFFFFFFFF SWAP1 SWAP2 AND DUP2 MSTORE PUSH1 0x20 ADD PUSH2 0xE4 JUMP JUMPDEST CALLVALUE DUP1 ISZERO PUSH2 0x192 JUMPI PUSH0 DUP1 REVERT JUMPDEST POP PUSH2 0x1BA PUSH32 0x0 DUP2 JUMP JUMPDEST PUSH1 0x40 MLOAD PUSH1 0x1 PUSH1 0x1 PUSH1 0xA0 SHL SUB SWAP1 SWAP2 AND DUP2 MSTORE PUSH1 0x20 ADD PUSH2 0xE4 JUMP JUMPDEST CALLVALUE DUP1 ISZERO PUSH2 0x1DD JUMPI PUSH0 DUP1 REVERT JUMPDEST POP PUSH2 0xD7 PUSH2 0x4E4 JUMP JUMPDEST CALLVALUE DUP1 ISZERO PUSH2 0x1F1 JUMPI PUSH0 DUP1 REVERT JUMPDEST POP PUSH2 0x219 PUSH32 0x0 DUP2 JUMP JUMPDEST PUSH1 0x40 MLOAD SWAP1 DUP2 MSTORE PUSH1 0x20 ADD PUSH2 0xE4 JUMP JUMPDEST CALLVALUE DUP1 ISZERO PUSH2 0x232 JUMPI PUSH0 DUP1 REVERT JUMPDEST POP CALLER PUSH0 SWAP1 DUP2 MSTORE PUSH1 0x4 PUSH1 0x20 MSTORE PUSH1 0x40 SWAP1 KECCAK256 SLOAD PUSH2 0x219 JUMP JUMPDEST CALLVALUE DUP1 ISZERO PUSH2 0x252 JUMPI PUSH0 DUP1 REVERT JUMPDEST POP PUSH2 0x219 PUSH1 0x2 SLOAD DUP2 JUMP JUMPDEST CALLVALUE DUP1 ISZERO PUSH2 0x267 JUMPI PUSH0 DUP1 REVERT JUMPDEST POP PUSH2 0x270 PUSH2 0x4F1 JUMP JUMPDEST PUSH1 0x40 MLOAD PUSH2 0xE4 SWAP2 SWAP1 PUSH2 0xBC4 JUMP JUMPDEST CALLVALUE DUP1 ISZERO PUSH2 0x288 JUMPI PUSH0 DUP1 REVERT JUMPDEST POP PUSH2 0x291 PUSH2 0x551 JUMP JUMPDEST STOP JUMPDEST CALLVALUE DUP1 ISZERO PUSH2 0x29E JUMPI PUSH0 DUP1 REVERT JUMPDEST POP PUSH2 0x291 PUSH2 0x2AD CALLDATASIZE PUSH1 0x4 PUSH2 0xC0F JUMP JUMPDEST PUSH2 0x71D JUMP JUMPDEST PUSH2 0x291 PUSH2 0x868 JUMP JUMPDEST PUSH0 DUP1 SLOAD PUSH2 0x2C6 SWAP1 PUSH2 0xC2F JUMP JUMPDEST DUP1 PUSH1 0x1F ADD PUSH1 0x20 DUP1 SWAP2 DIV MUL PUSH1 0x20 ADD PUSH1 0x40 MLOAD SWAP1 DUP2 ADD PUSH1 0x40 MSTORE DUP1 SWAP3 SWAP2 SWAP1 DUP2 DUP2 MSTORE PUSH1 0x20 ADD DUP3 DUP1 SLOAD PUSH2 0x2F2 SWAP1 PUSH2 0xC2F JUMP JUMPDEST DUP1 ISZERO PUSH2 0x33D JUMPI DUP1 PUSH1 0x1F LT PUSH2 0x314 JUMPI PUSH2 0x100 DUP1 DUP4 SLOAD DIV MUL DUP4 MSTORE SWAP2 PUSH1 0x20 ADD SWAP2 PUSH2 0x33D JUMP JUMPDEST DUP3 ADD SWAP2 SWAP1 PUSH0 MSTORE PUSH1 0x20 PUSH0 KECCAK256 SWAP1 JUMPDEST DUP2 SLOAD DUP2 MSTORE SWAP1 PUSH1 0x1 ADD SWAP1 PUSH1 0x20 ADD DUP1 DUP4 GT PUSH2 0x320 JUMPI DUP3 SWAP1 SUB PUSH1 0x1F AND DUP3 ADD SWAP2 JUMPDEST POP POP POP POP POP DUP2 JUMP JUMPDEST PUSH0 PUSH1 0x60 DUP1 PUSH0 DUP1 PUSH0 DUP1 PUSH32 0x0 SWAP7 POP PUSH0 DUP1 SLOAD PUSH2 0x37C SWAP1 PUSH2 0xC2F JUMP JUMPDEST DUP1 PUSH1 0x1F ADD PUSH1 0x20 DUP1 SWAP2 DIV MUL PUSH1 0x20 ADD PUSH1 0x40 MLOAD SWAP1 DUP2 ADD PUSH1 0x40 MSTORE DUP1 SWAP3 SWAP2 SWAP1 DUP2 DUP2 MSTORE PUSH1 0x20 ADD DUP3 DUP1 SLOAD PUSH2 0x3A8 SWAP1 PUSH2 0xC2F JUMP JUMPDEST DUP1 ISZERO PUSH2 0x3F3 JUMPI DUP1 PUSH1 0x1F LT PUSH2 0x3CA JUMPI PUSH2 0x100 DUP1 DUP4 SLOAD DIV MUL DUP4 MSTORE SWAP2 PUSH1 0x20 ADD SWAP2 PUSH2 0x3F3 JUMP JUMPDEST DUP3 ADD SWAP2 SWAP1 PUSH0 MSTORE PUSH1 0x20 PUSH0 KECCAK256 SWAP1 JUMPDEST DUP2 SLOAD DUP2 MSTORE SWAP1 PUSH1 0x1 ADD SWAP1 PUSH1 0x20 ADD DUP1 DUP4 GT PUSH2 0x3D6 JUMPI DUP3 SWAP1 SUB PUSH1 0x1F AND DUP3 ADD SWAP2 JUMPDEST POP POP POP POP POP SWAP6 POP PUSH1 0x1 DUP1 SLOAD PUSH2 0x407 SWAP1 PUSH2 0xC2F JUMP JUMPDEST DUP1 PUSH1 0x1F ADD PUSH1 0x20 DUP1 SWAP2 DIV MUL PUSH1 0x20 ADD PUSH1 0x40 MLOAD SWAP1 DUP2 ADD PUSH1 0x40 MSTORE DUP1 SWAP3 SWAP2 SWAP1 DUP2 DUP2 MSTORE PUSH1 0x20 ADD DUP3 DUP1 SLOAD PUSH2 0x433 SWAP1 PUSH2 0xC2F JUMP JUMPDEST DUP1 ISZERO PUSH2 0x47E JUMPI DUP1 PUSH1 0x1F LT PUSH2 0x455 JUMPI PUSH2 0x100 DUP1 DUP4 SLOAD DIV MUL DUP4 MSTORE SWAP2 PUSH1 0x20 ADD SWAP2 PUSH2 0x47E JUMP JUMPDEST DUP3 ADD SWAP2 SWAP1 PUSH0 MSTORE PUSH1 0x20 PUSH0 KECCAK256 SWAP1 JUMPDEST DUP2 SLOAD DUP2 MSTORE SWAP1 PUSH1 0x1 ADD SWAP1 PUSH1 0x20 ADD DUP1 DUP4 GT PUSH2 0x461 JUMPI DUP3 SWAP1 SUB PUSH1 0x1F AND DUP3 ADD SWAP2 JUMPDEST POP POP PUSH1 0x2 SLOAD PUSH1 0x3 SLOAD SWAP12 SWAP13 SWAP11 SWAP12 SWAP5 SWAP11 PUSH32 0x0 SWAP11 POP PUSH32 0x0 SWAP10 POP SWAP1 SWAP8 POP PUSH1 0xFF SWAP1 SWAP5 AND SWAP6 POP SWAP3 SWAP4 POP POP POP POP JUMP JUMPDEST PUSH1 0x1 DUP1 SLOAD PUSH2 0x2C6 SWAP1 PUSH2 0xC2F JUMP JUMPDEST PUSH1 0x60 PUSH1 0x5 DUP1 SLOAD DUP1 PUSH1 0x20 MUL PUSH1 0x20 ADD PUSH1 0x40 MLOAD SWAP1 DUP2 ADD PUSH1 0x40 MSTORE DUP1 SWAP3 SWAP2 SWAP1 DUP2 DUP2 MSTORE PUSH1 0x20 ADD DUP3 DUP1 SLOAD DUP1 ISZERO PUSH2 0x547 JUMPI PUSH1 0x20 MUL DUP3 ADD SWAP2 SWAP1 PUSH0 MSTORE PUSH1 0x20 PUSH0 KECCAK256 SWAP1 JUMPDEST DUP2 SLOAD PUSH1 0x1 PUSH1 0x1 PUSH1 0xA0 SHL SUB AND DUP2 MSTORE PUSH1 0x1 SWAP1 SWAP2 ADD SWAP1 PUSH1 0x20 ADD DUP1 DUP4 GT PUSH2 0x529 JUMPI JUMPDEST POP POP POP POP POP SWAP1 POP SWAP1 JUMP JUMPDEST PUSH1 0x3 SLOAD PUSH1 0xFF AND PUSH2 0x59C JUMPI PUSH1 0x40 MLOAD PUSH3 0x461BCD PUSH1 0xE5 SHL DUP2 MSTORE PUSH1 0x20 PUSH1 0x4 DUP3 ADD MSTORE PUSH1 0x11 PUSH1 0x24 DUP3 ADD MSTORE PUSH17 0x24B730B1BA34BB329021B0B6B830B4B3B7 PUSH1 0x79 SHL PUSH1 0x44 DUP3 ADD MSTORE PUSH1 0x64 ADD JUMPDEST PUSH1 0x40 MLOAD DUP1 SWAP2 SUB SWAP1 REVERT JUMPDEST PUSH32 0x0 PUSH6 0xFFFFFFFFFFFF AND TIMESTAMP GT PUSH2 0x60B JUMPI PUSH1 0x40 MLOAD PUSH3 0x461BCD PUSH1 0xE5 SHL DUP2 MSTORE PUSH1 0x20 PUSH1 0x4 DUP3 ADD MSTORE PUSH1 0x15 PUSH1 0x24 DUP3 ADD MSTORE PUSH21 0x111958591B1A5B99481B9BDD08195E18D959591959 PUSH1 0x5A SHL PUSH1 0x44 DUP3 ADD MSTORE PUSH1 0x64 ADD PUSH2 0x593 JUMP JUMPDEST CALLER PUSH1 0x1 PUSH1 0x1 PUSH1 0xA0 SHL SUB PUSH32 0x0 AND EQ PUSH2 0x676 JUMPI PUSH1 0x40 MLOAD PUSH3 0x461BCD PUSH1 0xE5 SHL DUP2 MSTORE PUSH1 0x20 PUSH1 0x4 DUP3 ADD MSTORE PUSH1 0x10 PUSH1 0x24 DUP3 ADD MSTORE PUSH16 0x42656E6566696369617279206F6E6C79 PUSH1 0x80 SHL PUSH1 0x44 DUP3 ADD MSTORE PUSH1 0x64 ADD PUSH2 0x593 JUMP JUMPDEST PUSH32 0x0 PUSH1 0x2 SLOAD LT PUSH2 0x6A9 JUMPI PUSH2 0x6A7 PUSH2 0xA46 JUMP JUMPDEST JUMP JUMPDEST PUSH1 0x3 DUP1 SLOAD PUSH1 0xFF NOT AND SWAP1 SSTORE PUSH1 0x2 SLOAD PUSH1 0x40 DUP1 MLOAD PUSH0 DUP2 MSTORE PUSH1 0x20 DUP2 ADD SWAP3 SWAP1 SWAP3 MSTORE PUSH32 0x0 PUSH1 0x1 PUSH1 0x1 PUSH1 0xA0 SHL SUB AND SWAP2 PUSH32 0x712D35F4BF4C7422AE5B3996C20CC32903765397CD70E33A25294BAF8C89DC80 SWAP2 ADD PUSH1 0x40 MLOAD DUP1 SWAP2 SUB SWAP1 LOG2 JUMP JUMPDEST CALLER PUSH1 0x1 PUSH1 0x1 PUSH1 0xA0 SHL SUB PUSH32 0x0 AND EQ PUSH2 0x788 JUMPI PUSH1 0x40 MLOAD PUSH3 0x461BCD PUSH1 0xE5 SHL DUP2 MSTORE PUSH1 0x20 PUSH1 0x4 DUP3 ADD MSTORE PUSH1 0x10 PUSH1 0x24 DUP3 ADD MSTORE PUSH16 0x42656E6566696369617279206F6E6C79 PUSH1 0x80 SHL PUSH1 0x44 DUP3 ADD MSTORE PUSH1 0x64 ADD PUSH2 0x593 JUMP JUMPDEST DUP2 JUMPDEST DUP2 DUP2 LT ISZERO PUSH2 0x863 JUMPI PUSH0 PUSH1 0x5 DUP3 DUP2 SLOAD DUP2 LT PUSH2 0x7A6 JUMPI PUSH2 0x7A6 PUSH2 0xC67 JUMP JUMPDEST PUSH0 SWAP2 DUP3 MSTORE PUSH1 0x20 DUP1 DUP4 KECCAK256 SWAP1 SWAP2 ADD SLOAD PUSH1 0x1 PUSH1 0x1 PUSH1 0xA0 SHL SUB AND DUP1 DUP4 MSTORE PUSH1 0x4 SWAP1 SWAP2 MSTORE PUSH1 0x40 SWAP1 SWAP2 KECCAK256 SLOAD SWAP1 SWAP2 POP DUP1 ISZERO PUSH2 0x859 JUMPI PUSH1 0x1 PUSH1 0x1 PUSH1 0xA0 SHL SUB DUP3 AND PUSH0 DUP2 DUP2 MSTORE PUSH1 0x4 PUSH1 0x20 MSTORE PUSH1 0x40 DUP1 DUP3 KECCAK256 DUP3 SWAP1 SSTORE MLOAD DUP4 ISZERO PUSH2 0x8FC MUL SWAP2 DUP5 SWAP2 SWAP1 DUP2 DUP2 DUP2 DUP6 DUP9 DUP9 CALL SWAP4 POP POP POP POP ISZERO DUP1 ISZERO PUSH2 0x814 JUMPI RETURNDATASIZE PUSH0 DUP1 RETURNDATACOPY RETURNDATASIZE PUSH0 REVERT JUMPDEST POP DUP2 PUSH1 0x1 PUSH1 0x1 PUSH1 0xA0 SHL SUB AND PUSH32 0xA171B6942063C6F2800CE40A780EDCE37BAA2B618571B11EEDD1E69E626E7D76 DUP3 PUSH1 0x40 MLOAD PUSH2 0x850 SWAP2 DUP2 MSTORE PUSH1 0x20 ADD SWAP1 JUMP JUMPDEST PUSH1 0x40 MLOAD DUP1 SWAP2 SUB SWAP1 LOG2 JUMPDEST POP POP PUSH1 0x1 ADD PUSH2 0x78A JUMP JUMPDEST POP POP POP JUMP JUMPDEST PUSH32 0x0 PUSH6 0xFFFFFFFFFFFF AND TIMESTAMP GT ISZERO PUSH2 0x8D4 JUMPI PUSH1 0x40 MLOAD PUSH3 0x461BCD PUSH1 0xE5 SHL DUP2 MSTORE PUSH1 0x20 PUSH1 0x4 DUP3 ADD MSTORE PUSH1 0x11 PUSH1 0x24 DUP3 ADD MSTORE PUSH17 0x111958591B1A5B9948195E18D959591959 PUSH1 0x7A SHL PUSH1 0x44 DUP3 ADD MSTORE PUSH1 0x64 ADD PUSH2 0x593 JUMP JUMPDEST PUSH1 0x3 SLOAD PUSH1 0xFF AND PUSH2 0x91A JUMPI PUSH1 0x40 MLOAD PUSH3 0x461BCD PUSH1 0xE5 SHL DUP2 MSTORE PUSH1 0x20 PUSH1 0x4 DUP3 ADD MSTORE PUSH1 0x11 PUSH1 0x24 DUP3 ADD MSTORE PUSH17 0x24B730B1BA34BB329021B0B6B830B4B3B7 PUSH1 0x79 SHL PUSH1 0x44 DUP3 ADD MSTORE PUSH1 0x64 ADD PUSH2 0x593 JUMP JUMPDEST CALLER PUSH0 DUP2 DUP2 MSTORE PUSH1 0x4 PUSH1 0x20 MSTORE PUSH1 0x40 DUP2 KECCAK256 SLOAD CALLVALUE SWAP2 SUB PUSH2 0x97B JUMPI PUSH1 0x5 DUP1 SLOAD PUSH1 0x1 DUP2 ADD DUP3 SSTORE PUSH0 SWAP2 SWAP1 SWAP2 MSTORE PUSH32 0x36B6384B5ECA791C62761152D0C79BB0604C104A5FB6F4EB0703F3154BB3DB0 ADD DUP1 SLOAD PUSH1 0x1 PUSH1 0x1 PUSH1 0xA0 SHL SUB NOT AND PUSH1 0x1 PUSH1 0x1 PUSH1 0xA0 SHL SUB DUP5 AND OR SWAP1 SSTORE JUMPDEST PUSH1 0x1 PUSH1 0x1 PUSH1 0xA0 SHL SUB DUP3 AND PUSH0 SWAP1 DUP2 MSTORE PUSH1 0x4 PUSH1 0x20 MSTORE PUSH1 0x40 DUP2 KECCAK256 DUP1 SLOAD DUP4 SWAP3 SWAP1 PUSH2 0x9A2 SWAP1 DUP5 SWAP1 PUSH2 0xC7B JUMP JUMPDEST SWAP1 SWAP2 SSTORE POP POP PUSH1 0x2 SLOAD PUSH0 SWAP1 PUSH2 0x9B7 SWAP1 DUP4 SWAP1 PUSH2 0xC7B JUMP JUMPDEST PUSH1 0x2 DUP2 SWAP1 SSTORE PUSH1 0x40 MLOAD DUP4 DUP2 MSTORE SWAP1 SWAP2 POP PUSH32 0xEB3301A94D74DC3EE739EC081EBEAF60C5E72B48AEF0402C21C9F049F84C9622 SWAP1 PUSH1 0x20 ADD PUSH1 0x40 MLOAD DUP1 SWAP2 SUB SWAP1 LOG1 PUSH32 0x0 DUP2 LT PUSH2 0x863 JUMPI PUSH1 0x40 MLOAD PUSH32 0x7EFEE204BE5DF5D59D7F2294F7F2776F836D145D72998AF64B6DCBBD898E7BF6 SWAP1 PUSH0 SWAP1 LOG1 POP POP POP JUMP JUMPDEST PUSH1 0x2 DUP1 SLOAD PUSH0 SWAP2 DUP3 SWAP1 SSTORE PUSH1 0x3 DUP1 SLOAD PUSH1 0xFF NOT AND SWAP1 SSTORE PUSH1 0x40 MLOAD SWAP1 SWAP2 PUSH1 0x1 PUSH1 0x1 PUSH1 0xA0 SHL SUB PUSH32 0x0 AND SWAP2 DUP4 ISZERO PUSH2 0x8FC MUL SWAP2 DUP5 SWAP2 SWAP1 DUP2 DUP2 DUP2 DUP6 DUP9 DUP9 CALL SWAP4 POP POP POP POP ISZERO DUP1 ISZERO PUSH2 0xAAE JUMPI RETURNDATASIZE PUSH0 DUP1 RETURNDATACOPY RETURNDATASIZE PUSH0 REVERT JUMPDEST POP PUSH1 0x40 DUP1 MLOAD PUSH1 0x1 DUP2 MSTORE PUSH1 0x20 DUP2 ADD DUP4 SWAP1 MSTORE PUSH1 0x1 PUSH1 0x1 PUSH1 0xA0 SHL SUB PUSH32 0x0 AND SWAP2 PUSH32 0x712D35F4BF4C7422AE5B3996C20CC32903765397CD70E33A25294BAF8C89DC80 SWAP2 ADD PUSH1 0x40 MLOAD DUP1 SWAP2 SUB SWAP1 LOG2 POP JUMP JUMPDEST PUSH0 DUP2 MLOAD DUP1 DUP5 MSTORE DUP1 PUSH1 0x20 DUP5 ADD PUSH1 0x20 DUP7 ADD MCOPY PUSH0 PUSH1 0x20 DUP3 DUP7 ADD ADD MSTORE PUSH1 0x20 PUSH1 0x1F NOT PUSH1 0x1F DUP4 ADD AND DUP6 ADD ADD SWAP2 POP POP SWAP3 SWAP2 POP POP JUMP JUMPDEST PUSH1 0x20 DUP2 MSTORE PUSH0 PUSH2 0xB57 PUSH1 0x20 DUP4 ADD DUP5 PUSH2 0xB17 JUMP JUMPDEST SWAP4 SWAP3 POP POP POP JUMP JUMPDEST PUSH1 0x1 PUSH1 0x1 PUSH1 0xA0 SHL SUB DUP9 AND DUP2 MSTORE PUSH1 0xE0 PUSH1 0x20 DUP3 ADD DUP2 SWAP1 MSTORE PUSH0 SWAP1 PUSH2 0xB81 SWAP1 DUP4 ADD DUP10 PUSH2 0xB17 JUMP JUMPDEST DUP3 DUP2 SUB PUSH1 0x40 DUP5 ADD MSTORE PUSH2 0xB93 DUP2 DUP10 PUSH2 0xB17 JUMP JUMPDEST SWAP2 POP POP PUSH6 0xFFFFFFFFFFFF DUP7 AND PUSH1 0x60 DUP4 ADD MSTORE DUP5 PUSH1 0x80 DUP4 ADD MSTORE DUP4 PUSH1 0xA0 DUP4 ADD MSTORE DUP3 ISZERO ISZERO PUSH1 0xC0 DUP4 ADD MSTORE SWAP9 SWAP8 POP POP POP POP POP POP POP POP JUMP JUMPDEST PUSH1 0x20 DUP1 DUP3 MSTORE DUP3 MLOAD DUP3 DUP3 ADD DUP2 SWAP1 MSTORE PUSH0 SWAP2 DUP5 ADD SWAP1 PUSH1 0x40 DUP5 ADD SWAP1 DUP4 JUMPDEST DUP2 DUP2 LT ISZERO PUSH2 0xC04 JUMPI DUP4 MLOAD PUSH1 0x1 PUSH1 0x1 PUSH1 0xA0 SHL SUB AND DUP4 MSTORE PUSH1 0x20 SWAP4 DUP5 ADD SWAP4 SWAP1 SWAP3 ADD SWAP2 PUSH1 0x1 ADD PUSH2 0xBDD JUMP JUMPDEST POP SWAP1 SWAP6 SWAP5 POP POP POP POP POP JUMP JUMPDEST PUSH0 DUP1 PUSH1 0x40 DUP4 DUP6 SUB SLT ISZERO PUSH2 0xC20 JUMPI PUSH0 DUP1 REVERT JUMPDEST POP POP DUP1 CALLDATALOAD SWAP3 PUSH1 0x20 SWAP1 SWAP2 ADD CALLDATALOAD SWAP2 POP JUMP JUMPDEST PUSH1 0x1 DUP2 DUP2 SHR SWAP1 DUP3 AND DUP1 PUSH2 0xC43 JUMPI PUSH1 0x7F DUP3 AND SWAP2 POP JUMPDEST PUSH1 0x20 DUP3 LT DUP2 SUB PUSH2 0xC61 JUMPI PUSH4 0x4E487B71 PUSH1 0xE0 SHL PUSH0 MSTORE PUSH1 0x22 PUSH1 0x4 MSTORE PUSH1 0x24 PUSH0 REVERT JUMPDEST POP SWAP2 SWAP1 POP JUMP JUMPDEST PUSH4 0x4E487B71 PUSH1 0xE0 SHL PUSH0 MSTORE PUSH1 0x32 PUSH1 0x4 MSTORE PUSH1 0x24 PUSH0 REVERT JUMPDEST DUP1 DUP3 ADD DUP1 DUP3 GT ISZERO PUSH2 0xC9A JUMPI PUSH4 0x4E487B71 PUSH1 0xE0 SHL PUSH0 MSTORE PUSH1 0x11 PUSH1 0x4 MSTORE PUSH1 0x24 PUSH0 REVERT JUMPDEST SWAP3 SWAP2 POP POP JUMP INVALID LOG2 PUSH5 0x6970667358 0x22 SLT KECCAK256 0x29 0xA5 ISZERO MOD MSTORE8 0x2F 0xCA 0xB9 SHL PUSH14 0xA90C3B212E794A0E3AAA09050AF1 MOD LOG1 0xA8 0x2B 0xB8 SWAP12 0xDA SWAP15 PUSH5 0x736F6C6343 STOP ADDMOD BYTE STOP CALLER "
				},
				"gasEstimates": {
					"creation": {
						"codeDepositCost": "657200",
						"executionCost": "infinite",
						"totalCost": "infinite"
					},
					"external": {
						"beneficiary()": "infinite",
						"deadline()": "infinite",
						"description()": "infinite",
						"donate()": "infinite",
						"finalizeCampaign()": "infinite",
						"fundingGoal()": "infinite",
						"getCampaignDetails()": "infinite",
						"getDonors()": "infinite",
						"getMyDonations()": "2403",
						"isActive()": "2354",
						"name()": "infinite",
						"processRefundsBatch(uint256,uint256)": "infinite",
						"totalFunds()": "2361"
					},
					"internal": {
						"releaseFunds()": "infinite"
					}
				},
				"methodIdentifiers": {
					"beneficiary()": "38af3eed",
					"deadline()": "29dcb0cf",
					"description()": "7284e416",
					"donate()": "ed88c68e",
					"finalizeCampaign()": "a1211bc0",
					"fundingGoal()": "7a3a0e84",
					"getCampaignDetails()": "0c611f24",
					"getDonors()": "96f300d4",
					"getMyDonations()": "90e4a130",
					"isActive()": "22f3e2d4",
					"name()": "06fdde03",
					"processRefundsBatch(uint256,uint256)": "d506b8b5",
					"totalFunds()": "968ed600"
				}
			},
			"storageLayout": {
				"storage": [
					{
						"astId": 6,
						"contract": "backend/contracts/Campaign.sol:Campaign",
						"label": "name",
						"offset": 0,
						"slot": "0",
						"type": "t_string_storage"
					},
					{
						"astId": 8,
						"contract": "backend/contracts/Campaign.sol:Campaign",
						"label": "description",
						"offset": 0,
						"slot": "1",
						"type": "t_string_storage"
					},
					{
						"astId": 14,
						"contract": "backend/contracts/Campaign.sol:Campaign",
						"label": "totalFunds",
						"offset": 0,
						"slot": "2",
						"type": "t_uint256"
					},
					{
						"astId": 16,
						"contract": "backend/contracts/Campaign.sol:Campaign",
						"label": "isActive",
						"offset": 0,
						"slot": "3",
						"type": "t_bool"
					},
					{
						"astId": 20,
						"contract": "backend/contracts/Campaign.sol:Campaign",
						"label": "donations",
						"offset": 0,
						"slot": "4",
						"type": "t_mapping(t_address,t_uint256)"
					},
					{
						"astId": 23,
						"contract": "backend/contracts/Campaign.sol:Campaign",
						"label": "donors",
						"offset": 0,
						"slot": "5",
						"type": "t_array(t_address)dyn_storage"
					}
				],
				"types": {
					"t_address": {
						"encoding": "inplace",
						"label": "address",
						"numberOfBytes": "20"
					},
					"t_array(t_address)dyn_storage": {
						"base": "t_address",
						"encoding": "dynamic_array",
						"label": "address[]",
						"numberOfBytes": "32"
					},
					"t_bool": {
						"encoding": "inplace",
						"label": "bool",
						"numberOfBytes": "1"
					},
					"t_mapping(t_address,t_uint256)": {
						"encoding": "mapping",
						"key": "t_address",
						"label": "mapping(address => uint256)",
						"numberOfBytes": "32",
						"value": "t_uint256"
					},
					"t_string_storage": {
						"encoding": "bytes",
						"label": "string",
						"numberOfBytes": "32"
					},
					"t_uint256": {
						"encoding": "inplace",
						"label": "uint256",
						"numberOfBytes": "32"
					}
				}
			},
			"userdoc": {
				"kind": "user",
				"methods": {},
				"version": 1
			}
		}
	}
}